{
  "address": "0x3b451a9E55e2414A2f831bF3A3A910Fe5E8d1168",
  "abi": [
    {
      "inputs": [
        {
          "internalType": "address",
          "name": "_feeTo",
          "type": "address"
        },
        {
          "internalType": "uint16",
          "name": "_makerRate",
          "type": "uint16"
        },
        {
          "internalType": "address",
          "name": "_diaOracleAddress",
          "type": "address"
        },
        {
          "internalType": "contract IRoleBase",
          "name": "_roleManager",
          "type": "address"
        },
        {
          "internalType": "contract ISupportedAsset",
          "name": "_assetManager",
          "type": "address"
        },
        {
          "internalType": "contract IERC20",
          "name": "_baseAsset",
          "type": "address"
        },
        {
          "internalType": "contract IPoint",
          "name": "_pointFactory",
          "type": "address"
        },
        {
          "internalType": "contract ISafeFactory",
          "name": "_safeFactory",
          "type": "address"
        }
      ],
      "stateMutability": "nonpayable",
      "type": "constructor"
    },
    {
      "inputs": [],
      "name": "EnforcedPause",
      "type": "error"
    },
    {
      "inputs": [
        {
          "internalType": "string",
          "name": "errorMsg",
          "type": "string"
        }
      ],
      "name": "ErrorOccurred",
      "type": "error"
    },
    {
      "inputs": [],
      "name": "ExpectedPause",
      "type": "error"
    },
    {
      "anonymous": false,
      "inputs": [
        {
          "indexed": false,
          "internalType": "uint256",
          "name": "unit",
          "type": "uint256"
        }
      ],
      "name": "Cancellation",
      "type": "event"
    },
    {
      "anonymous": false,
      "inputs": [
        {
          "components": [
            {
              "components": [
                {
                  "internalType": "uint8",
                  "name": "maxQuorum",
                  "type": "uint8"
                },
                {
                  "internalType": "uint8",
                  "name": "selector",
                  "type": "uint8"
                },
                {
                  "internalType": "uint24",
                  "name": "colCoverage",
                  "type": "uint24"
                },
                {
                  "internalType": "uint32",
                  "name": "duration",
                  "type": "uint32"
                },
                {
                  "internalType": "uint8",
                  "name": "allGh",
                  "type": "uint8"
                },
                {
                  "internalType": "uint8",
                  "name": "userCount",
                  "type": "uint8"
                }
              ],
              "internalType": "struct Common.Low",
              "name": "low",
              "type": "tuple"
            },
            {
              "components": [
                {
                  "internalType": "uint256",
                  "name": "unit",
                  "type": "uint256"
                },
                {
                  "internalType": "uint256",
                  "name": "currentPool",
                  "type": "uint256"
                },
                {
                  "internalType": "uint96",
                  "name": "recordId",
                  "type": "uint96"
                },
                {
                  "internalType": "uint96",
                  "name": "unitId",
                  "type": "uint96"
                }
              ],
              "internalType": "struct Common.Big",
              "name": "big",
              "type": "tuple"
            },
            {
              "components": [
                {
                  "internalType": "contract IERC20",
                  "name": "colAsset",
                  "type": "address"
                },
                {
                  "internalType": "address",
                  "name": "lastPaid",
                  "type": "address"
                },
                {
                  "internalType": "address",
                  "name": "safe",
                  "type": "address"
                },
                {
                  "internalType": "address",
                  "name": "admin",
                  "type": "address"
                }
              ],
              "internalType": "struct Common.Addresses",
              "name": "addrs",
              "type": "tuple"
            },
            {
              "internalType": "enum Common.Router",
              "name": "router",
              "type": "uint8"
            },
            {
              "internalType": "enum Common.Stage",
              "name": "stage",
              "type": "uint8"
            },
            {
              "internalType": "enum Common.Status",
              "name": "status",
              "type": "uint8"
            }
          ],
          "indexed": false,
          "internalType": "struct Common.Pool",
          "name": "",
          "type": "tuple"
        }
      ],
      "name": "GetFinanced",
      "type": "event"
    },
    {
      "anonymous": false,
      "inputs": [
        {
          "components": [
            {
              "components": [
                {
                  "internalType": "uint8",
                  "name": "maxQuorum",
                  "type": "uint8"
                },
                {
                  "internalType": "uint8",
                  "name": "selector",
                  "type": "uint8"
                },
                {
                  "internalType": "uint24",
                  "name": "colCoverage",
                  "type": "uint24"
                },
                {
                  "internalType": "uint32",
                  "name": "duration",
                  "type": "uint32"
                },
                {
                  "internalType": "uint8",
                  "name": "allGh",
                  "type": "uint8"
                },
                {
                  "internalType": "uint8",
                  "name": "userCount",
                  "type": "uint8"
                }
              ],
              "internalType": "struct Common.Low",
              "name": "low",
              "type": "tuple"
            },
            {
              "components": [
                {
                  "internalType": "uint256",
                  "name": "unit",
                  "type": "uint256"
                },
                {
                  "internalType": "uint256",
                  "name": "currentPool",
                  "type": "uint256"
                },
                {
                  "internalType": "uint96",
                  "name": "recordId",
                  "type": "uint96"
                },
                {
                  "internalType": "uint96",
                  "name": "unitId",
                  "type": "uint96"
                }
              ],
              "internalType": "struct Common.Big",
              "name": "big",
              "type": "tuple"
            },
            {
              "components": [
                {
                  "internalType": "contract IERC20",
                  "name": "colAsset",
                  "type": "address"
                },
                {
                  "internalType": "address",
                  "name": "lastPaid",
                  "type": "address"
                },
                {
                  "internalType": "address",
                  "name": "safe",
                  "type": "address"
                },
                {
                  "internalType": "address",
                  "name": "admin",
                  "type": "address"
                }
              ],
              "internalType": "struct Common.Addresses",
              "name": "addrs",
              "type": "tuple"
            },
            {
              "internalType": "enum Common.Router",
              "name": "router",
              "type": "uint8"
            },
            {
              "internalType": "enum Common.Stage",
              "name": "stage",
              "type": "uint8"
            },
            {
              "internalType": "enum Common.Status",
              "name": "status",
              "type": "uint8"
            }
          ],
          "indexed": false,
          "internalType": "struct Common.Pool",
          "name": "",
          "type": "tuple"
        }
      ],
      "name": "Liquidated",
      "type": "event"
    },
    {
      "anonymous": false,
      "inputs": [
        {
          "components": [
            {
              "components": [
                {
                  "internalType": "uint8",
                  "name": "maxQuorum",
                  "type": "uint8"
                },
                {
                  "internalType": "uint8",
                  "name": "selector",
                  "type": "uint8"
                },
                {
                  "internalType": "uint24",
                  "name": "colCoverage",
                  "type": "uint24"
                },
                {
                  "internalType": "uint32",
                  "name": "duration",
                  "type": "uint32"
                },
                {
                  "internalType": "uint8",
                  "name": "allGh",
                  "type": "uint8"
                },
                {
                  "internalType": "uint8",
                  "name": "userCount",
                  "type": "uint8"
                }
              ],
              "internalType": "struct Common.Low",
              "name": "low",
              "type": "tuple"
            },
            {
              "components": [
                {
                  "internalType": "uint256",
                  "name": "unit",
                  "type": "uint256"
                },
                {
                  "internalType": "uint256",
                  "name": "currentPool",
                  "type": "uint256"
                },
                {
                  "internalType": "uint96",
                  "name": "recordId",
                  "type": "uint96"
                },
                {
                  "internalType": "uint96",
                  "name": "unitId",
                  "type": "uint96"
                }
              ],
              "internalType": "struct Common.Big",
              "name": "big",
              "type": "tuple"
            },
            {
              "components": [
                {
                  "internalType": "contract IERC20",
                  "name": "colAsset",
                  "type": "address"
                },
                {
                  "internalType": "address",
                  "name": "lastPaid",
                  "type": "address"
                },
                {
                  "internalType": "address",
                  "name": "safe",
                  "type": "address"
                },
                {
                  "internalType": "address",
                  "name": "admin",
                  "type": "address"
                }
              ],
              "internalType": "struct Common.Addresses",
              "name": "addrs",
              "type": "tuple"
            },
            {
              "internalType": "enum Common.Router",
              "name": "router",
              "type": "uint8"
            },
            {
              "internalType": "enum Common.Stage",
              "name": "stage",
              "type": "uint8"
            },
            {
              "internalType": "enum Common.Status",
              "name": "status",
              "type": "uint8"
            }
          ],
          "indexed": false,
          "internalType": "struct Common.Pool",
          "name": "",
          "type": "tuple"
        }
      ],
      "name": "NewContributorAdded",
      "type": "event"
    },
    {
      "anonymous": false,
      "inputs": [
        {
          "indexed": false,
          "internalType": "address",
          "name": "account",
          "type": "address"
        }
      ],
      "name": "Paused",
      "type": "event"
    },
    {
      "anonymous": false,
      "inputs": [
        {
          "components": [
            {
              "components": [
                {
                  "internalType": "uint8",
                  "name": "maxQuorum",
                  "type": "uint8"
                },
                {
                  "internalType": "uint8",
                  "name": "selector",
                  "type": "uint8"
                },
                {
                  "internalType": "uint24",
                  "name": "colCoverage",
                  "type": "uint24"
                },
                {
                  "internalType": "uint32",
                  "name": "duration",
                  "type": "uint32"
                },
                {
                  "internalType": "uint8",
                  "name": "allGh",
                  "type": "uint8"
                },
                {
                  "internalType": "uint8",
                  "name": "userCount",
                  "type": "uint8"
                }
              ],
              "internalType": "struct Common.Low",
              "name": "low",
              "type": "tuple"
            },
            {
              "components": [
                {
                  "internalType": "uint256",
                  "name": "unit",
                  "type": "uint256"
                },
                {
                  "internalType": "uint256",
                  "name": "currentPool",
                  "type": "uint256"
                },
                {
                  "internalType": "uint96",
                  "name": "recordId",
                  "type": "uint96"
                },
                {
                  "internalType": "uint96",
                  "name": "unitId",
                  "type": "uint96"
                }
              ],
              "internalType": "struct Common.Big",
              "name": "big",
              "type": "tuple"
            },
            {
              "components": [
                {
                  "internalType": "contract IERC20",
                  "name": "colAsset",
                  "type": "address"
                },
                {
                  "internalType": "address",
                  "name": "lastPaid",
                  "type": "address"
                },
                {
                  "internalType": "address",
                  "name": "safe",
                  "type": "address"
                },
                {
                  "internalType": "address",
                  "name": "admin",
                  "type": "address"
                }
              ],
              "internalType": "struct Common.Addresses",
              "name": "addrs",
              "type": "tuple"
            },
            {
              "internalType": "enum Common.Router",
              "name": "router",
              "type": "uint8"
            },
            {
              "internalType": "enum Common.Stage",
              "name": "stage",
              "type": "uint8"
            },
            {
              "internalType": "enum Common.Status",
              "name": "status",
              "type": "uint8"
            }
          ],
          "indexed": false,
          "internalType": "struct Common.Pool",
          "name": "",
          "type": "tuple"
        }
      ],
      "name": "Payback",
      "type": "event"
    },
    {
      "anonymous": false,
      "inputs": [
        {
          "components": [
            {
              "components": [
                {
                  "internalType": "uint8",
                  "name": "maxQuorum",
                  "type": "uint8"
                },
                {
                  "internalType": "uint8",
                  "name": "selector",
                  "type": "uint8"
                },
                {
                  "internalType": "uint24",
                  "name": "colCoverage",
                  "type": "uint24"
                },
                {
                  "internalType": "uint32",
                  "name": "duration",
                  "type": "uint32"
                },
                {
                  "internalType": "uint8",
                  "name": "allGh",
                  "type": "uint8"
                },
                {
                  "internalType": "uint8",
                  "name": "userCount",
                  "type": "uint8"
                }
              ],
              "internalType": "struct Common.Low",
              "name": "low",
              "type": "tuple"
            },
            {
              "components": [
                {
                  "internalType": "uint256",
                  "name": "unit",
                  "type": "uint256"
                },
                {
                  "internalType": "uint256",
                  "name": "currentPool",
                  "type": "uint256"
                },
                {
                  "internalType": "uint96",
                  "name": "recordId",
                  "type": "uint96"
                },
                {
                  "internalType": "uint96",
                  "name": "unitId",
                  "type": "uint96"
                }
              ],
              "internalType": "struct Common.Big",
              "name": "big",
              "type": "tuple"
            },
            {
              "components": [
                {
                  "internalType": "contract IERC20",
                  "name": "colAsset",
                  "type": "address"
                },
                {
                  "internalType": "address",
                  "name": "lastPaid",
                  "type": "address"
                },
                {
                  "internalType": "address",
                  "name": "safe",
                  "type": "address"
                },
                {
                  "internalType": "address",
                  "name": "admin",
                  "type": "address"
                }
              ],
              "internalType": "struct Common.Addresses",
              "name": "addrs",
              "type": "tuple"
            },
            {
              "internalType": "enum Common.Router",
              "name": "router",
              "type": "uint8"
            },
            {
              "internalType": "enum Common.Stage",
              "name": "stage",
              "type": "uint8"
            },
            {
              "internalType": "enum Common.Status",
              "name": "status",
              "type": "uint8"
            }
          ],
          "indexed": false,
          "internalType": "struct Common.Pool",
          "name": "",
          "type": "tuple"
        }
      ],
      "name": "PoolCreated",
      "type": "event"
    },
    {
      "anonymous": false,
      "inputs": [
        {
          "components": [
            {
              "components": [
                {
                  "internalType": "uint8",
                  "name": "maxQuorum",
                  "type": "uint8"
                },
                {
                  "internalType": "uint8",
                  "name": "selector",
                  "type": "uint8"
                },
                {
                  "internalType": "uint24",
                  "name": "colCoverage",
                  "type": "uint24"
                },
                {
                  "internalType": "uint32",
                  "name": "duration",
                  "type": "uint32"
                },
                {
                  "internalType": "uint8",
                  "name": "allGh",
                  "type": "uint8"
                },
                {
                  "internalType": "uint8",
                  "name": "userCount",
                  "type": "uint8"
                }
              ],
              "internalType": "struct Common.Low",
              "name": "low",
              "type": "tuple"
            },
            {
              "components": [
                {
                  "internalType": "uint256",
                  "name": "unit",
                  "type": "uint256"
                },
                {
                  "internalType": "uint256",
                  "name": "currentPool",
                  "type": "uint256"
                },
                {
                  "internalType": "uint96",
                  "name": "recordId",
                  "type": "uint96"
                },
                {
                  "internalType": "uint96",
                  "name": "unitId",
                  "type": "uint96"
                }
              ],
              "internalType": "struct Common.Big",
              "name": "big",
              "type": "tuple"
            },
            {
              "components": [
                {
                  "internalType": "contract IERC20",
                  "name": "colAsset",
                  "type": "address"
                },
                {
                  "internalType": "address",
                  "name": "lastPaid",
                  "type": "address"
                },
                {
                  "internalType": "address",
                  "name": "safe",
                  "type": "address"
                },
                {
                  "internalType": "address",
                  "name": "admin",
                  "type": "address"
                }
              ],
              "internalType": "struct Common.Addresses",
              "name": "addrs",
              "type": "tuple"
            },
            {
              "internalType": "enum Common.Router",
              "name": "router",
              "type": "uint8"
            },
            {
              "internalType": "enum Common.Stage",
              "name": "stage",
              "type": "uint8"
            },
            {
              "internalType": "enum Common.Status",
              "name": "status",
              "type": "uint8"
            }
          ],
          "indexed": false,
          "internalType": "struct Common.Pool",
          "name": "",
          "type": "tuple"
        }
      ],
      "name": "PoolEdited",
      "type": "event"
    },
    {
      "anonymous": false,
      "inputs": [
        {
          "indexed": false,
          "internalType": "address",
          "name": "account",
          "type": "address"
        }
      ],
      "name": "Unpaused",
      "type": "event"
    },
    {
      "inputs": [],
      "name": "activateReward",
      "outputs": [
        {
          "internalType": "bool",
          "name": "",
          "type": "bool"
        }
      ],
      "stateMutability": "nonpayable",
      "type": "function"
    },
    {
      "inputs": [],
      "name": "analytics",
      "outputs": [
        {
          "internalType": "uint256",
          "name": "tvlCollateral",
          "type": "uint256"
        },
        {
          "internalType": "uint256",
          "name": "tvlBase",
          "type": "uint256"
        },
        {
          "internalType": "uint256",
          "name": "totalPermissioned",
          "type": "uint256"
        },
        {
          "internalType": "uint256",
          "name": "totalPermissionless",
          "type": "uint256"
        }
      ],
      "stateMutability": "view",
      "type": "function"
    },
    {
      "inputs": [],
      "name": "assetManager",
      "outputs": [
        {
          "internalType": "contract ISupportedAsset",
          "name": "",
          "type": "address"
        }
      ],
      "stateMutability": "view",
      "type": "function"
    },
    {
      "inputs": [],
      "name": "awardPoint",
      "outputs": [
        {
          "internalType": "bool",
          "name": "",
          "type": "bool"
        }
      ],
      "stateMutability": "view",
      "type": "function"
    },
    {
      "inputs": [],
      "name": "baseAsset",
      "outputs": [
        {
          "internalType": "contract IERC20",
          "name": "",
          "type": "address"
        }
      ],
      "stateMutability": "view",
      "type": "function"
    },
    {
      "inputs": [
        {
          "internalType": "uint256",
          "name": "unit",
          "type": "uint256"
        }
      ],
      "name": "closePool",
      "outputs": [
        {
          "internalType": "bool",
          "name": "",
          "type": "bool"
        }
      ],
      "stateMutability": "nonpayable",
      "type": "function"
    },
    {
      "inputs": [
        {
          "internalType": "uint256",
          "name": "unit",
          "type": "uint256"
        }
      ],
      "name": "contribute",
      "outputs": [
        {
          "internalType": "bool",
          "name": "",
          "type": "bool"
        }
      ],
      "stateMutability": "nonpayable",
      "type": "function"
    },
    {
      "inputs": [
        {
          "components": [
            {
              "internalType": "uint256",
              "name": "slot",
              "type": "uint256"
            },
            {
              "internalType": "uint256",
              "name": "amount",
              "type": "uint256"
            },
            {
              "internalType": "uint256",
              "name": "rate",
              "type": "uint256"
            },
            {
              "internalType": "uint256",
              "name": "earnStartDate",
              "type": "uint256"
            },
            {
              "internalType": "address",
              "name": "account",
              "type": "address"
            },
            {
              "components": [
                {
                  "internalType": "uint256",
                  "name": "fullInterest",
                  "type": "uint256"
                },
                {
                  "internalType": "uint256",
                  "name": "intPerSec",
                  "type": "uint256"
                }
              ],
              "internalType": "struct Common.Interest",
              "name": "accruals",
              "type": "tuple"
            }
          ],
          "internalType": "struct Common.Provider[]",
          "name": "providers",
          "type": "tuple[]"
        },
        {
          "internalType": "address",
          "name": "borrower",
          "type": "address"
        },
        {
          "internalType": "uint256",
          "name": "unit",
          "type": "uint256"
        }
      ],
      "name": "contributeThroughProvider",
      "outputs": [
        {
          "internalType": "bool",
          "name": "",
          "type": "bool"
        }
      ],
      "stateMutability": "nonpayable",
      "type": "function"
    },
    {
      "inputs": [
        {
          "internalType": "address[]",
          "name": "users",
          "type": "address[]"
        },
        {
          "internalType": "uint256",
          "name": "unit",
          "type": "uint256"
        },
        {
          "internalType": "uint8",
          "name": "maxQuorum",
          "type": "uint8"
        },
        {
          "internalType": "uint16",
          "name": "durationInHours",
          "type": "uint16"
        },
        {
          "internalType": "uint24",
          "name": "colCoverage",
          "type": "uint24"
        },
        {
          "internalType": "bool",
          "name": "isPermissionless",
          "type": "bool"
        },
        {
          "internalType": "contract IERC20",
          "name": "colAsset",
          "type": "address"
        }
      ],
      "name": "createPool",
      "outputs": [
        {
          "internalType": "bool",
          "name": "",
          "type": "bool"
        }
      ],
      "stateMutability": "nonpayable",
      "type": "function"
    },
    {
      "inputs": [],
      "name": "deactivateReward",
      "outputs": [
        {
          "internalType": "bool",
          "name": "",
          "type": "bool"
        }
      ],
      "stateMutability": "nonpayable",
      "type": "function"
    },
    {
      "inputs": [],
      "name": "diaOracleAddress",
      "outputs": [
        {
          "internalType": "address",
          "name": "",
          "type": "address"
        }
      ],
      "stateMutability": "view",
      "type": "function"
    },
    {
      "inputs": [
        {
          "internalType": "uint256",
          "name": "unit",
          "type": "uint256"
        },
        {
          "internalType": "uint8",
          "name": "maxQuorum",
          "type": "uint8"
        },
        {
          "internalType": "uint16",
          "name": "durationInHours",
          "type": "uint16"
        },
        {
          "internalType": "uint24",
          "name": "colCoverage",
          "type": "uint24"
        }
      ],
      "name": "editPool",
      "outputs": [
        {
          "internalType": "bool",
          "name": "",
          "type": "bool"
        }
      ],
      "stateMutability": "nonpayable",
      "type": "function"
    },
    {
      "inputs": [
        {
          "internalType": "uint256",
          "name": "unit",
          "type": "uint256"
        }
      ],
      "name": "enquireLiquidation",
      "outputs": [
        {
          "components": [
            {
              "internalType": "uint32",
              "name": "paybackTime",
              "type": "uint32"
            },
            {
              "internalType": "uint32",
              "name": "turnStartTime",
              "type": "uint32"
            },
            {
              "internalType": "uint32",
              "name": "getFinanceTime",
              "type": "uint32"
            },
            {
              "internalType": "uint256",
              "name": "loan",
              "type": "uint256"
            },
            {
              "internalType": "uint256",
              "name": "colBals",
              "type": "uint256"
            },
            {
              "internalType": "address",
              "name": "id",
              "type": "address"
            },
            {
              "internalType": "bool",
              "name": "sentQuota",
              "type": "bool"
            }
          ],
          "internalType": "struct Common.Contributor",
          "name": "profile",
          "type": "tuple"
        },
        {
          "internalType": "bool",
          "name": "defaulter",
          "type": "bool"
        },
        {
          "components": [
            {
              "internalType": "uint256",
              "name": "value",
              "type": "uint256"
            },
            {
              "internalType": "bool",
              "name": "isMember",
              "type": "bool"
            },
            {
              "internalType": "bool",
              "name": "isAdmin",
              "type": "bool"
            }
          ],
          "internalType": "struct Common.Slot",
          "name": "slot",
          "type": "tuple"
        }
      ],
      "stateMutability": "view",
      "type": "function"
    },
    {
      "inputs": [],
      "name": "feeTo",
      "outputs": [
        {
          "internalType": "address",
          "name": "",
          "type": "address"
        }
      ],
      "stateMutability": "view",
      "type": "function"
    },
    {
      "inputs": [
        {
          "internalType": "uint256",
          "name": "unit",
          "type": "uint256"
        }
      ],
      "name": "getCollateralQuote",
      "outputs": [
        {
          "internalType": "uint256",
          "name": "collateral",
          "type": "uint256"
        },
        {
          "internalType": "uint24",
          "name": "colCoverage",
          "type": "uint24"
        }
      ],
      "stateMutability": "view",
      "type": "function"
    },
    {
      "inputs": [
        {
          "internalType": "address",
          "name": "target",
          "type": "address"
        },
        {
          "internalType": "uint96",
          "name": "recordId",
          "type": "uint96"
        }
      ],
      "name": "getContributorProviders",
      "outputs": [
        {
          "components": [
            {
              "internalType": "uint256",
              "name": "slot",
              "type": "uint256"
            },
            {
              "internalType": "uint256",
              "name": "amount",
              "type": "uint256"
            },
            {
              "internalType": "uint256",
              "name": "rate",
              "type": "uint256"
            },
            {
              "internalType": "uint256",
              "name": "earnStartDate",
              "type": "uint256"
            },
            {
              "internalType": "address",
              "name": "account",
              "type": "address"
            },
            {
              "components": [
                {
                  "internalType": "uint256",
                  "name": "fullInterest",
                  "type": "uint256"
                },
                {
                  "internalType": "uint256",
                  "name": "intPerSec",
                  "type": "uint256"
                }
              ],
              "internalType": "struct Common.Interest",
              "name": "accruals",
              "type": "tuple"
            }
          ],
          "internalType": "struct Common.Provider[]",
          "name": "result",
          "type": "tuple[]"
        }
      ],
      "stateMutability": "view",
      "type": "function"
    },
    {
      "inputs": [
        {
          "internalType": "uint256",
          "name": "unit",
          "type": "uint256"
        }
      ],
      "name": "getCurrentDebt",
      "outputs": [
        {
          "internalType": "uint256",
          "name": "debt",
          "type": "uint256"
        }
      ],
      "stateMutability": "view",
      "type": "function"
    },
    {
      "inputs": [],
      "name": "getFactoryData",
      "outputs": [
        {
          "components": [
            {
              "components": [
                {
                  "internalType": "uint256",
                  "name": "tvlCollateral",
                  "type": "uint256"
                },
                {
                  "internalType": "uint256",
                  "name": "tvlBase",
                  "type": "uint256"
                },
                {
                  "internalType": "uint256",
                  "name": "totalPermissioned",
                  "type": "uint256"
                },
                {
                  "internalType": "uint256",
                  "name": "totalPermissionless",
                  "type": "uint256"
                }
              ],
              "internalType": "struct Common.Analytics",
              "name": "analytics",
              "type": "tuple"
            },
            {
              "internalType": "uint16",
              "name": "makerRate",
              "type": "uint16"
            },
            {
              "internalType": "uint256",
              "name": "currentEpoches",
              "type": "uint256"
            },
            {
              "internalType": "uint256",
              "name": "recordEpoches",
              "type": "uint256"
            }
          ],
          "internalType": "struct Common.ViewFactoryData",
          "name": "data",
          "type": "tuple"
        }
      ],
      "stateMutability": "view",
      "type": "function"
    },
    {
      "inputs": [
        {
          "internalType": "uint256",
          "name": "unit",
          "type": "uint256"
        }
      ],
      "name": "getFinance",
      "outputs": [
        {
          "internalType": "bool",
          "name": "",
          "type": "bool"
        }
      ],
      "stateMutability": "nonpayable",
      "type": "function"
    },
    {
      "inputs": [
        {
          "internalType": "uint96",
          "name": "unitId",
          "type": "uint96"
        }
      ],
      "name": "getPoolData",
      "outputs": [
        {
          "components": [
            {
              "components": [
                {
                  "components": [
                    {
                      "internalType": "uint8",
                      "name": "maxQuorum",
                      "type": "uint8"
                    },
                    {
                      "internalType": "uint8",
                      "name": "selector",
                      "type": "uint8"
                    },
                    {
                      "internalType": "uint24",
                      "name": "colCoverage",
                      "type": "uint24"
                    },
                    {
                      "internalType": "uint32",
                      "name": "duration",
                      "type": "uint32"
                    },
                    {
                      "internalType": "uint8",
                      "name": "allGh",
                      "type": "uint8"
                    },
                    {
                      "internalType": "uint8",
                      "name": "userCount",
                      "type": "uint8"
                    }
                  ],
                  "internalType": "struct Common.Low",
                  "name": "low",
                  "type": "tuple"
                },
                {
                  "components": [
                    {
                      "internalType": "uint256",
                      "name": "unit",
                      "type": "uint256"
                    },
                    {
                      "internalType": "uint256",
                      "name": "currentPool",
                      "type": "uint256"
                    },
                    {
                      "internalType": "uint96",
                      "name": "recordId",
                      "type": "uint96"
                    },
                    {
                      "internalType": "uint96",
                      "name": "unitId",
                      "type": "uint96"
                    }
                  ],
                  "internalType": "struct Common.Big",
                  "name": "big",
                  "type": "tuple"
                },
                {
                  "components": [
                    {
                      "internalType": "contract IERC20",
                      "name": "colAsset",
                      "type": "address"
                    },
                    {
                      "internalType": "address",
                      "name": "lastPaid",
                      "type": "address"
                    },
                    {
                      "internalType": "address",
                      "name": "safe",
                      "type": "address"
                    },
                    {
                      "internalType": "address",
                      "name": "admin",
                      "type": "address"
                    }
                  ],
                  "internalType": "struct Common.Addresses",
                  "name": "addrs",
                  "type": "tuple"
                },
                {
                  "internalType": "enum Common.Router",
                  "name": "router",
                  "type": "uint8"
                },
                {
                  "internalType": "enum Common.Stage",
                  "name": "stage",
                  "type": "uint8"
                },
                {
                  "internalType": "enum Common.Status",
                  "name": "status",
                  "type": "uint8"
                }
              ],
              "internalType": "struct Common.Pool",
              "name": "pool",
              "type": "tuple"
            },
            {
              "components": [
                {
                  "components": [
                    {
                      "internalType": "uint32",
                      "name": "paybackTime",
                      "type": "uint32"
                    },
                    {
                      "internalType": "uint32",
                      "name": "turnStartTime",
                      "type": "uint32"
                    },
                    {
                      "internalType": "uint32",
                      "name": "getFinanceTime",
                      "type": "uint32"
                    },
                    {
                      "internalType": "uint256",
                      "name": "loan",
                      "type": "uint256"
                    },
                    {
                      "internalType": "uint256",
                      "name": "colBals",
                      "type": "uint256"
                    },
                    {
                      "internalType": "address",
                      "name": "id",
                      "type": "address"
                    },
                    {
                      "internalType": "bool",
                      "name": "sentQuota",
                      "type": "bool"
                    }
                  ],
                  "internalType": "struct Common.Contributor",
                  "name": "profile",
                  "type": "tuple"
                },
                {
                  "components": [
                    {
                      "internalType": "uint256",
                      "name": "value",
                      "type": "uint256"
                    },
                    {
                      "internalType": "bool",
                      "name": "isMember",
                      "type": "bool"
                    },
                    {
                      "internalType": "bool",
                      "name": "isAdmin",
                      "type": "bool"
                    }
                  ],
                  "internalType": "struct Common.Slot",
                  "name": "slot",
                  "type": "tuple"
                },
                {
                  "components": [
                    {
                      "internalType": "uint256",
                      "name": "slot",
                      "type": "uint256"
                    },
                    {
                      "internalType": "uint256",
                      "name": "amount",
                      "type": "uint256"
                    },
                    {
                      "internalType": "uint256",
                      "name": "rate",
                      "type": "uint256"
                    },
                    {
                      "internalType": "uint256",
                      "name": "earnStartDate",
                      "type": "uint256"
                    },
                    {
                      "internalType": "address",
                      "name": "account",
                      "type": "address"
                    },
                    {
                      "components": [
                        {
                          "internalType": "uint256",
                          "name": "fullInterest",
                          "type": "uint256"
                        },
                        {
                          "internalType": "uint256",
                          "name": "intPerSec",
                          "type": "uint256"
                        }
                      ],
                      "internalType": "struct Common.Interest",
                      "name": "accruals",
                      "type": "tuple"
                    }
                  ],
                  "internalType": "struct Common.Provider[]",
                  "name": "providers",
                  "type": "tuple[]"
                }
              ],
              "internalType": "struct Common.ContributorReturnValue[]",
              "name": "cData",
              "type": "tuple[]"
            }
          ],
          "internalType": "struct Common.ReadPoolDataReturnValue",
          "name": "result",
          "type": "tuple"
        }
      ],
      "stateMutability": "view",
      "type": "function"
    },
    {
      "inputs": [
        {
          "internalType": "uint96",
          "name": "recordId",
          "type": "uint96"
        }
      ],
      "name": "getPoolRecord",
      "outputs": [
        {
          "components": [
            {
              "components": [
                {
                  "components": [
                    {
                      "internalType": "uint8",
                      "name": "maxQuorum",
                      "type": "uint8"
                    },
                    {
                      "internalType": "uint8",
                      "name": "selector",
                      "type": "uint8"
                    },
                    {
                      "internalType": "uint24",
                      "name": "colCoverage",
                      "type": "uint24"
                    },
                    {
                      "internalType": "uint32",
                      "name": "duration",
                      "type": "uint32"
                    },
                    {
                      "internalType": "uint8",
                      "name": "allGh",
                      "type": "uint8"
                    },
                    {
                      "internalType": "uint8",
                      "name": "userCount",
                      "type": "uint8"
                    }
                  ],
                  "internalType": "struct Common.Low",
                  "name": "low",
                  "type": "tuple"
                },
                {
                  "components": [
                    {
                      "internalType": "uint256",
                      "name": "unit",
                      "type": "uint256"
                    },
                    {
                      "internalType": "uint256",
                      "name": "currentPool",
                      "type": "uint256"
                    },
                    {
                      "internalType": "uint96",
                      "name": "recordId",
                      "type": "uint96"
                    },
                    {
                      "internalType": "uint96",
                      "name": "unitId",
                      "type": "uint96"
                    }
                  ],
                  "internalType": "struct Common.Big",
                  "name": "big",
                  "type": "tuple"
                },
                {
                  "components": [
                    {
                      "internalType": "contract IERC20",
                      "name": "colAsset",
                      "type": "address"
                    },
                    {
                      "internalType": "address",
                      "name": "lastPaid",
                      "type": "address"
                    },
                    {
                      "internalType": "address",
                      "name": "safe",
                      "type": "address"
                    },
                    {
                      "internalType": "address",
                      "name": "admin",
                      "type": "address"
                    }
                  ],
                  "internalType": "struct Common.Addresses",
                  "name": "addrs",
                  "type": "tuple"
                },
                {
                  "internalType": "enum Common.Router",
                  "name": "router",
                  "type": "uint8"
                },
                {
                  "internalType": "enum Common.Stage",
                  "name": "stage",
                  "type": "uint8"
                },
                {
                  "internalType": "enum Common.Status",
                  "name": "status",
                  "type": "uint8"
                }
              ],
              "internalType": "struct Common.Pool",
              "name": "pool",
              "type": "tuple"
            },
            {
              "components": [
                {
                  "components": [
                    {
                      "internalType": "uint32",
                      "name": "paybackTime",
                      "type": "uint32"
                    },
                    {
                      "internalType": "uint32",
                      "name": "turnStartTime",
                      "type": "uint32"
                    },
                    {
                      "internalType": "uint32",
                      "name": "getFinanceTime",
                      "type": "uint32"
                    },
                    {
                      "internalType": "uint256",
                      "name": "loan",
                      "type": "uint256"
                    },
                    {
                      "internalType": "uint256",
                      "name": "colBals",
                      "type": "uint256"
                    },
                    {
                      "internalType": "address",
                      "name": "id",
                      "type": "address"
                    },
                    {
                      "internalType": "bool",
                      "name": "sentQuota",
                      "type": "bool"
                    }
                  ],
                  "internalType": "struct Common.Contributor",
                  "name": "profile",
                  "type": "tuple"
                },
                {
                  "components": [
                    {
                      "internalType": "uint256",
                      "name": "value",
                      "type": "uint256"
                    },
                    {
                      "internalType": "bool",
                      "name": "isMember",
                      "type": "bool"
                    },
                    {
                      "internalType": "bool",
                      "name": "isAdmin",
                      "type": "bool"
                    }
                  ],
                  "internalType": "struct Common.Slot",
                  "name": "slot",
                  "type": "tuple"
                },
                {
                  "components": [
                    {
                      "internalType": "uint256",
                      "name": "slot",
                      "type": "uint256"
                    },
                    {
                      "internalType": "uint256",
                      "name": "amount",
                      "type": "uint256"
                    },
                    {
                      "internalType": "uint256",
                      "name": "rate",
                      "type": "uint256"
                    },
                    {
                      "internalType": "uint256",
                      "name": "earnStartDate",
                      "type": "uint256"
                    },
                    {
                      "internalType": "address",
                      "name": "account",
                      "type": "address"
                    },
                    {
                      "components": [
                        {
                          "internalType": "uint256",
                          "name": "fullInterest",
                          "type": "uint256"
                        },
                        {
                          "internalType": "uint256",
                          "name": "intPerSec",
                          "type": "uint256"
                        }
                      ],
                      "internalType": "struct Common.Interest",
                      "name": "accruals",
                      "type": "tuple"
                    }
                  ],
                  "internalType": "struct Common.Provider[]",
                  "name": "providers",
                  "type": "tuple[]"
                }
              ],
              "internalType": "struct Common.ContributorReturnValue[]",
              "name": "cData",
              "type": "tuple[]"
            }
          ],
          "internalType": "struct Common.ReadPoolDataReturnValue",
          "name": "result",
          "type": "tuple"
        }
      ],
      "stateMutability": "view",
      "type": "function"
    },
    {
      "inputs": [
        {
          "internalType": "uint256",
          "name": "unit",
          "type": "uint256"
        },
        {
          "internalType": "address",
          "name": "target",
          "type": "address"
        }
      ],
      "name": "getProfile",
      "outputs": [
        {
          "components": [
            {
              "components": [
                {
                  "internalType": "uint32",
                  "name": "paybackTime",
                  "type": "uint32"
                },
                {
                  "internalType": "uint32",
                  "name": "turnStartTime",
                  "type": "uint32"
                },
                {
                  "internalType": "uint32",
                  "name": "getFinanceTime",
                  "type": "uint32"
                },
                {
                  "internalType": "uint256",
                  "name": "loan",
                  "type": "uint256"
                },
                {
                  "internalType": "uint256",
                  "name": "colBals",
                  "type": "uint256"
                },
                {
                  "internalType": "address",
                  "name": "id",
                  "type": "address"
                },
                {
                  "internalType": "bool",
                  "name": "sentQuota",
                  "type": "bool"
                }
              ],
              "internalType": "struct Common.Contributor",
              "name": "profile",
              "type": "tuple"
            },
            {
              "components": [
                {
                  "internalType": "uint256",
                  "name": "value",
                  "type": "uint256"
                },
                {
                  "internalType": "bool",
                  "name": "isMember",
                  "type": "bool"
                },
                {
                  "internalType": "bool",
                  "name": "isAdmin",
                  "type": "bool"
                }
              ],
              "internalType": "struct Common.Slot",
              "name": "slot",
              "type": "tuple"
            },
            {
              "components": [
                {
                  "internalType": "uint256",
                  "name": "slot",
                  "type": "uint256"
                },
                {
                  "internalType": "uint256",
                  "name": "amount",
                  "type": "uint256"
                },
                {
                  "internalType": "uint256",
                  "name": "rate",
                  "type": "uint256"
                },
                {
                  "internalType": "uint256",
                  "name": "earnStartDate",
                  "type": "uint256"
                },
                {
                  "internalType": "address",
                  "name": "account",
                  "type": "address"
                },
                {
                  "components": [
                    {
                      "internalType": "uint256",
                      "name": "fullInterest",
                      "type": "uint256"
                    },
                    {
                      "internalType": "uint256",
                      "name": "intPerSec",
                      "type": "uint256"
                    }
                  ],
                  "internalType": "struct Common.Interest",
                  "name": "accruals",
                  "type": "tuple"
                }
              ],
              "internalType": "struct Common.Provider[]",
              "name": "providers",
              "type": "tuple[]"
            }
          ],
          "internalType": "struct Common.ContributorReturnValue",
          "name": "",
          "type": "tuple"
        }
      ],
      "stateMutability": "view",
      "type": "function"
    },
    {
      "inputs": [
        {
          "internalType": "address",
          "name": "target",
          "type": "address"
        },
        {
          "internalType": "uint256",
          "name": "unit",
          "type": "uint256"
        }
      ],
      "name": "getSlot",
      "outputs": [
        {
          "components": [
            {
              "internalType": "uint256",
              "name": "value",
              "type": "uint256"
            },
            {
              "internalType": "bool",
              "name": "isMember",
              "type": "bool"
            },
            {
              "internalType": "bool",
              "name": "isAdmin",
              "type": "bool"
            }
          ],
          "internalType": "struct Common.Slot",
          "name": "",
          "type": "tuple"
        }
      ],
      "stateMutability": "view",
      "type": "function"
    },
    {
      "inputs": [
        {
          "internalType": "uint256",
          "name": "unit",
          "type": "uint256"
        }
      ],
      "name": "isPoolAvailable",
      "outputs": [
        {
          "internalType": "bool",
          "name": "",
          "type": "bool"
        }
      ],
      "stateMutability": "view",
      "type": "function"
    },
    {
      "inputs": [
        {
          "internalType": "uint256",
          "name": "unit",
          "type": "uint256"
        }
      ],
      "name": "liquidate",
      "outputs": [
        {
          "internalType": "bool",
          "name": "",
          "type": "bool"
        }
      ],
      "stateMutability": "nonpayable",
      "type": "function"
    },
    {
      "inputs": [],
      "name": "makerRate",
      "outputs": [
        {
          "internalType": "uint256",
          "name": "",
          "type": "uint256"
        }
      ],
      "stateMutability": "view",
      "type": "function"
    },
    {
      "inputs": [],
      "name": "pause",
      "outputs": [],
      "stateMutability": "nonpayable",
      "type": "function"
    },
    {
      "inputs": [],
      "name": "paused",
      "outputs": [
        {
          "internalType": "bool",
          "name": "",
          "type": "bool"
        }
      ],
      "stateMutability": "view",
      "type": "function"
    },
    {
      "inputs": [
        {
          "internalType": "uint256",
          "name": "unit",
          "type": "uint256"
        }
      ],
      "name": "payback",
      "outputs": [
        {
          "internalType": "bool",
          "name": "",
          "type": "bool"
        }
      ],
      "stateMutability": "nonpayable",
      "type": "function"
    },
    {
      "inputs": [],
      "name": "pointFactory",
      "outputs": [
        {
          "internalType": "contract IPoint",
          "name": "",
          "type": "address"
        }
      ],
      "stateMutability": "view",
      "type": "function"
    },
    {
      "inputs": [],
      "name": "roleManager",
      "outputs": [
        {
          "internalType": "contract IRoleBase",
          "name": "",
          "type": "address"
        }
      ],
      "stateMutability": "view",
      "type": "function"
    },
    {
      "inputs": [],
      "name": "safeFactory",
      "outputs": [
        {
          "internalType": "contract ISafeFactory",
          "name": "",
          "type": "address"
        }
      ],
      "stateMutability": "view",
      "type": "function"
    },
    {
      "inputs": [
        {
          "internalType": "address",
          "name": "_feeTo",
          "type": "address"
        },
        {
          "internalType": "uint16",
          "name": "_makerRate",
          "type": "uint16"
        }
      ],
      "name": "setFeeOrMakerRate",
      "outputs": [
        {
          "internalType": "bool",
          "name": "",
          "type": "bool"
        }
      ],
      "stateMutability": "nonpayable",
      "type": "function"
    },
    {
      "inputs": [
        {
          "internalType": "contract IERC20",
          "name": "collateralAsset",
          "type": "address"
        },
        {
          "internalType": "string",
          "name": "pair",
          "type": "string"
        }
      ],
      "name": "setPair",
      "outputs": [
        {
          "internalType": "bool",
          "name": "",
          "type": "bool"
        }
      ],
      "stateMutability": "nonpayable",
      "type": "function"
    },
    {
      "inputs": [
        {
          "internalType": "address",
          "name": "newManager",
          "type": "address"
        }
      ],
      "name": "setRoleManager",
      "outputs": [
        {
          "internalType": "bool",
          "name": "",
          "type": "bool"
        }
      ],
      "stateMutability": "nonpayable",
      "type": "function"
    },
    {
      "inputs": [],
      "name": "unpause",
      "outputs": [],
      "stateMutability": "nonpayable",
      "type": "function"
    }
  ],
  "transactionHash": "0x7497f30ad37a6f4b4aa3698dda6ed6faca832c73ff23443d4565fa5fb6ff0c0f",
  "args": [
    "0xD7c271d20c9E323336bFC843AEb8deC23B346352",
    10,
    "0x0000000000000000000000000000000000000000",
    "0x79dF2FCc7DfDdc0C85Cc1f82B1f631b4b9D994B0",
    "0x7fa06DeeF92926964ed0D49Cc63E689C690D1b31",
    "0x874069Fa1Eb16D44d622F2e0Ca25eeA172369bC1",
    "0x803C0997623CF5bcb033cD03bA4B3E662aa843ed",
    "0xB868518D5E0dC52A74301e24763312840B2CdB2d"
  ],
  "numDeployments": 5,
  "solcInputHash": "276e8b2b1fa4cfc08f4889401705e06c",
  "bytecode": "0x6101206040523480156200001257600080fd5b50604051620063be380380620063be833981016040819052620000359162000341565b600680546001600160a01b0319166001600160a01b038716179055878787878787878785848685858585858585858583828488888582828786848382848380826006805460ff60a01b19169055506001600160a01b0390811660805260a051811690851603620000de5760408051808201909152601581527f5f61737365744d616e61676572206973207a65726f00000000000000000000006020820152620000de90620002e1565b60c0516001600160a01b0316836001600160a01b031603620001395760408051808201909152601281527f5f626173654173736574206973207a65726f000000000000000000000000000060208201526200013990620002e1565b50506001600160a01b0391821660a052811660c05294851660e0525050509086169050620001a05760408051808201909152601581527f49506f696e74466163746f7279206973207a65726f00000000000000000000006020820152620001a090620002e1565b6001600960006101000a81548160ff021916908315150217905550846001600160a01b0316610100816001600160a01b031681525050505050505050505050505050505050505050600c60009054906101000a90046001600160a01b03166001600160a01b0316886001600160a01b031603620002565760408051808201909152600f81527f5f666565546f20697320656d707479000000000000000000000000000000000060208201526200025690620002e1565b61271061ffff88161115620002a45760408051808201909152601281527f496e76616c6964206d616b6572207261746500000000000000000000000000006020820152620002a490620002e1565b5050600c80546001600160a01b0319166001600160a01b03979097169690961790955550505061ffff16600d555062000459975050505050505050565b8051156200032857806040517fcc8610630000000000000000000000000000000000000000000000000000000081526004016200031f919062000408565b60405180910390fd5b50565b6001600160a01b03811681146200032857600080fd5b600080600080600080600080610100898b0312156200035f57600080fd5b88516200036c816200032b565b60208a015190985061ffff811681146200038557600080fd5b60408a015190975062000398816200032b565b60608a0151909650620003ab816200032b565b60808a0151909550620003be816200032b565b60a08a0151909450620003d1816200032b565b60c08a0151909350620003e4816200032b565b60e08a0151909250620003f7816200032b565b809150509295985092959890939650565b60006020808352835180602085015260005b8181101562000438578581018301518582016040015282016200041a565b506000604082860101526040601f19601f8301168501019250505092915050565b60805160a05160c05160e05161010051615e9b62000523600039600081816104f20152818161247301526125090152600081816103b4015281816134990152818161499101526149d801526000818161052c01528181610a1e015281816111c80152818161163301528181612095015281816131190152818161318b015281816131ef015281816142d20152614ad60152600081816104260152818161072901528181611689015281816120eb0152614b2c0152600081816102680152614e110152615e9b6000f3fe608060405234801561001057600080fd5b506004361061021b5760003560e01c806380d5ac8a11610125578063c93c74e3116100ad578063e95b110d1161007c578063e95b110d14610581578063e962916814610589578063ed4c6cd81461059c578063f1d588c5146105bc578063f8e497dc146105cf57600080fd5b8063c93c74e314610514578063cdf456e114610527578063d9cc5ed01461054e578063e07098231461056e57600080fd5b80639d672294116100f45780639d672294146104485780639e6fbfd314610474578063a846c2fd146104c7578063c1cbbca7146104da578063c61778e9146104ed57600080fd5b806380d5ac8a146103d65780638456cb591461040c5780638b3c53cb1461041457806394217ad11461042157600080fd5b80633fd97927116101a857806358f0bd6d1161017757806358f0bd6d1461036457806359d2f32b146103775780635c975abb1461038a5780636d0406fd1461039c5780637d07db3c146103af57600080fd5b80633fd9792714610315578063415f124014610335578063435daefc14610348578063553c305a1461035157600080fd5b80631a055c1a116101ef5780631a055c1a146102ab57806321c05300146102cd5780632ef3946f146102e557806337de615f146102f85780633f4ba83a1461030b57600080fd5b8062435da514610220578063017e7e5814610250578063131e7e1c1461026357806313c8e60d1461028a575b600080fd5b600654610233906001600160a01b031681565b6040516001600160a01b0390911681526020015b60405180910390f35b600c54610233906001600160a01b031681565b6102337f000000000000000000000000000000000000000000000000000000000000000081565b61029d61029836600461513e565b6105ef565b604051908152602001610247565b6102be6102b936600461513e565b610601565b604051610247939291906151b1565b6102d561063b565b6040519015158152602001610247565b6102d56102f33660046152a2565b610695565b6102d561030636600461513e565b610852565b610313610b21565b005b6103286103233660046153df565b610b7e565b60405161024791906154ea565b6102d561034336600461513e565b610b99565b61029d600d5481565b6102d561035f36600461513e565b610cd0565b6102d5610372366004615533565b610cf8565b6102d5610385366004615580565b610e94565b600654600160a01b900460ff166102d5565b6102d56103aa36600461513e565b610f15565b6102337f000000000000000000000000000000000000000000000000000000000000000081565b600e54600f546010546011546103ec9392919084565b604080519485526020850193909352918301526060820152608001610247565b61031361134a565b6009546102d59060ff1681565b6102337f000000000000000000000000000000000000000000000000000000000000000081565b61045b61045636600461513e565b611395565b6040805192835262ffffff909116602083015201610247565b61047c6113aa565b604080518251805182526020808201518184015281840151838501526060918201518284015284015161ffff1660808301529183015160a082015291015160c082015260e001610247565b6102d56104d536600461513e565b611416565b6102d56104e836600461513e565b611488565b6102337f000000000000000000000000000000000000000000000000000000000000000081565b6102d56105223660046155ce565b61151c565b6102337f000000000000000000000000000000000000000000000000000000000000000081565b61056161055c3660046156b3565b61160d565b6040516102479190615815565b6102d561057c366004615893565b611626565b6102d56117c9565b6105616105973660046156b3565b611820565b6105af6105aa36600461593b565b611834565b6040516102479190615967565b6102d56105ca36600461598c565b61185b565b6105e26105dd3660046159a9565b611888565b60405161024791906159d5565b60006105fa82611894565b5092915050565b610609614e9e565b6040805160608101825260008082526020820181905291810182905261062e84611b02565b9250925092509193909250565b6000610645611bca565b60095460ff1615610681576106816040518060400160405280601081526020016f5265776172642069732061637469766560801b815250611c49565b506009805460ff1916600190811790915590565b600061069f611bca565b6106a7611c74565b6106af614eda565b6106b883610cd0565b15610723576106c683611ca1565b90506106d3838583611cca565b90506106e781602001516060015182611e58565b7f03d06435b835aed8e31056998d82805968e80861808275303d222099b83e61e0816040516107169190615a1e565b60405180910390a1610824565b606060007f00000000000000000000000000000000000000000000000000000000000000006001600160a01b031663739c13db6040518163ffffffff1660e01b8152600401602060405180830381865afa158015610785573d6000803e3d6000fd5b505050506040513d601f19601f820116820180604052508101906107a99190615a2d565b90506107bf82878760026048607860008861204c565b92506107ea826000815181106107d7576107d7615a4a565b6020026020010151600060056000612428565b7fb161ed253087c33a1ed470e454d38c38a1b3cf735f6387e8755f5c85ec1496c1836040516108199190615a1e565b60405180910390a150505b61083785858360200151604001516125c5565b61084583600080600161269f565b60019150505b9392505050565b600061085c611c74565b81610866816127c2565b61089b5761089b6040518060400160405280601081526020016f556e697420697320696e41637469766560801b815250611c49565b60006108a684611ca1565b60408101516060015190915033906001600160a01b03168114610901576109016040518060400160405280601981526020017f4f6e6c792041646d696e2063616e20636c6f736520706f6f6c00000000000000815250611c49565b6000808360600151600181111561091a5761091a6156ce565b1490508015610972576001836000015160a0015160ff16111561096d5761096d6040518060400160405280601581526020017410d85b98d95b1b185d1a5bdb88191a5cd8589b1959605a1b815250611c49565b6109b9565b602080840151805191015111156109b9576109b96040518060400160405280601581526020017410d85b98d95b1b185d1a5bdb88191a5cd8589b1959605a1b815250611c49565b6109c882600060056001612428565b600360808401526109d88361280a565b6020830151516109ec90600060038461269f565b6040838101518101516020850151805190830151925163bb16369f60e01b81526001600160a01b0386811660048301527f00000000000000000000000000000000000000000000000000000000000000008116602483015260448201929092526001600160601b039093166064840152169063bb16369f906084016020604051808303816000875af1158015610a86573d6000803e3d6000fd5b505050506040513d601f19601f82011682018060405250810190610aaa9190615a60565b610adf57610adf6040518060400160405280601081526020016f14d859994818d85b1b0819985a5b195960821b815250611c49565b6040518681527f79d50744e568d2dcbac1c613dc0f174be90b0121dbc73682de80b3c4ebc5d1e7906020015b60405180910390a1600194505050505b50919050565b610b29611bca565b610b31612ae3565b6006805460ff60a01b191690557f5db9ee0a495bf2e6ff9c91a7834c1ba4fdd244a5e8aa4e537bd38aeae4b073aa335b6040516001600160a01b03909116815260200160405180910390a1565b610b86614f81565b610b908284612b0d565b90505b92915050565b6000610ba3611c74565b6000806000610bb185611b02565b92509250925081610bea57610bea6040518060400160405280600d81526020016c139bdd08191959985d5b1d1959609a1b815250611c49565b33610bf58187612bf9565b610c1681610c0288611ca1565b6020015160400151848760a001518a612c3f565b8360a001516001600160a01b0316816001600160a01b031603610c3b57610c3b615a7d565b610c458187612e10565b6000806000610c5b898560018a60a00151612e64565b91945092509050610c888282600260005b87606001516001811115610c8257610c826156ce565b1461269f565b7f2f5bbba2897c0da2732c0b1eec00e0d12fe536c653a8575198092bed62561a7c83604051610cb79190615a1e565b60405180910390a160019750505050505050505b919050565b600080610cdc83611ca1565b60a001516001811115610cf157610cf16156ce565b1492915050565b600084610d04816127c2565b610d3957610d396040518060400160405280601081526020016f556e697420697320696e41637469766560801b815250611c49565b610d41611c74565b6000610d4c87611ca1565b905060008160400151606001516001600160a01b0316610d693390565b6001600160a01b031614610da357610da36040518060400160405280600b81526020016a139bdd08105b1b1bddd95960aa1b815250611c49565b5080515161ffff610e108702169060ff908116908816118015610dc8575060ff878116105b15610dd657815160ff881690525b6102d08661ffff1611158015610dff575081600001516060015163ffffffff168163ffffffff16115b15610e1457815163ffffffff82166060909101525b81600001516040015162ffffff168562ffffff161115610e3d57815162ffffff86166040909101525b610e4f82602001516060015183611e58565b7f136b0bab8d4b28df6bdf26f270fde904c2c696b6bf243dde423642fff1df24b382604051610e7e9190615a1e565b60405180910390a1506001979650505050505050565b6000610e9e611bca565b600c546001600160a01b03848116911614801590610ec457506001600160a01b03831615155b15610ee557600c80546001600160a01b0319166001600160a01b0385161790555b60008261ffff16118015610efe575061271061ffff8316105b15610f0c5761ffff8216600d555b50600192915050565b600081610f21816127c2565b610f5657610f566040518060400160405280601081526020016f556e697420697320696e41637469766560801b815250611c49565b610f5e611c74565b610f6a338460006133e6565b6000610f758461342f565b5090506000610f8385611ca1565b90506000610f99868360000151602001516134ec565b9050600182608001516004811115610fb357610fb36156ce565b14610fe957610fe96040518060400160405280601081526020016f426f72726f77206e6f7420726561647960801b815250611c49565b8151805160809091015160ff91821691160361102b5761102b6040518060400160405280600b81526020016a115c1bd8da08195b99195960aa1b815250611c49565b815151602080840151805191015160ff90921602111561107a5761107a60405180604001604052806014815260200173506f6f6c2066756e6420696e636f6d706c65746560601b815250611c49565b8060200151610e100163ffffffff166110904290565b63ffffffff1611156110d65760a08101516001600160a01b0316336001600160a01b0316146110d1576110ce86336110c8338a6135be565b8461362c565b90505b611129565b60a08101516001600160a01b0316336001600160a01b03161461112957611129604051806040016040528060158152602001745475726e54696d6520686173206e6f74207061737360581b815250611c49565b8151608001805160ff60019182011690915260a082015160408401516001600160a01b0390911660209182015280840151015161117a918590600086606001516001811115610c8257610c826156ce565b61119a8260400151600001518260a00151846040015160400151866136c7565b50604080830151015160a08201516020808501510151600d546001600160a01b039093169263d4e8694492917f0000000000000000000000000000000000000000000000000000000000000000916111f39082906137bd565b602088015160409081015190516001600160e01b031960e088901b1681526001600160a01b03958616600482015294909316602485015260448401919091526064830152608482018790526001600160601b031660a482015260c4016020604051808303816000875af115801561126e573d6000803e3d6000fd5b505050506040513d601f19601f820116820180604052508101906112929190615a60565b6112c7576112c76040518060400160405280601081526020016f14d859994818d85b1b0819985a5b195960821b815250611c49565b6112d28284836137c9565b8092508193505050611309818360200151604001516113018560400151602001518660200151600001516135be565b516000613a4d565b61131b82602001516060015183611e58565b7fe34571ffc6f937a259747d53f9fab8d617fd8a80c8cc077638061beead4d3ff882604051610b0b9190615a1e565b611352611bca565b61135a611c74565b6006805460ff60a01b1916600160a01b1790557f62e78cea01bee320cd4e420270b5ea74000d11b0c9f74754ebdbfc544b05a258610b613390565b6000806113a18361342f565b91509150915091565b6113b2614fc2565b60408051608081018252600e548152600f546020808301919091526010549282019290925260115460608201528252600d5461ffff16908201526113f4613b45565b6001600160601b031660408201526000546001600160601b0316606082015290565b6000611420611c74565b600080806114318533600080612e64565b91945092509050611446828260026000610c6c565b7f2f5bbba2897c0da2732c0b1eec00e0d12fe536c653a8575198092bed62561a7c836040516114759190615a1e565b60405180910390a1506001949350505050565b6000611492611c74565b600061149d83611ca1565b90506114aa833383611cca565b90506114be81602001516060015182611e58565b6114dc836000808085606001516001811115610c8257610c826156ce565b7f03d06435b835aed8e31056998d82805968e80861808275303d222099b83e61e08160405161150b9190615a1e565b60405180910390a150600192915050565b6000611526611c74565b60006115818a8a808060200260200160405190810160405280939291908181526020018383602002808284376000920191909152506115689250612806915050565b8a8a8a8a8a61157857600161157b565b60005b8a61204c565b90506115b98a8a600081811061159957611599615a4a565b90506020020160208101906115ae919061598c565b600060056000612428565b6115c6886000808761269f565b7fb161ed253087c33a1ed470e454d38c38a1b3cf735f6387e8755f5c85ec1496c1816040516115f59190615a1e565b60405180910390a15060019998505050505050505050565b611615615017565b610b9361162183613b55565b613d0f565b6000611630611bca565b827f00000000000000000000000000000000000000000000000000000000000000006001600160a01b0316816001600160a01b03161461172a57604051634df48c7360e11b81526001600160a01b0382811660048301527f00000000000000000000000000000000000000000000000000000000000000001690639be918e690602401602060405180830381865afa1580156116d0573d6000803e3d6000fd5b505050506040513d601f19601f820116820180604052508101906116f49190615a60565b61172a5761172a60405180604001604052806011815260200170155b9cdd5c1c1bdc9d195908105cdcd95d607a1b815250611c49565b8251600003611760576117606040518060400160405280600c81526020016b24b73b30b634b2103830b4b960a11b815250611c49565b6001600160a01b03841661179c5761179c6040518060400160405280600d81526020016c4173736574206973207a65726f60981b815250611c49565b6001600160a01b03841660009081526008602052604090206117be8482615b0f565b506001949350505050565b60006117d3611bca565b60095460ff16611810576118106040518060400160405280601281526020017152657761726420697320696e41637469766560701b815250611c49565b506009805460ff19169055600190565b611828615017565b610b9361162183613ed0565b6040805160608101825260008082526020820181905291810191909152610b9083836135be565b6000611865611bca565b600680546001600160a01b0319166001600160a01b038416179055506001919050565b6060610b908383613ffd565b600061189e614eda565b6118a783611ca1565b6040810151602001519091506001600160a01b03166118c8576118c8615a7d565b6020808201516040908101516001600160601b03166000908152600a835281812080548351818602810186019094528084529193909190849084015b828210156119995760008481526020908190206040805160e08101825260048602909201805463ffffffff8082168552600160201b8204811685870152600160401b90910416918301919091526001808201546060840152600282015460808401526003909101546001600160a01b03811660a0840152600160a01b900460ff16151560c08301529083529092019101611904565b505050509050600081511115611afc5760005b8151811015611afa5760006119de8383815181106119cc576119cc615a4a565b602002602001015160a0015187612b0d565b90508360400151602001516001600160a01b0316816000015160a001516001600160a01b031603611a1c57805160600151611a199086615be5565b94505b60408101515115611af15760005b816040015151811015611aef57600082604001518281518110611a4f57611a4f615a4a565b602002602001015190508060600151611a654290565b63ffffffff161115611ae6578560400151602001516001600160a01b0316836000015160a001516001600160a01b031603611aba5760608101514263ffffffff16038160a00151602001510287019650611ae6565b60608101514263ffffffff160360028260a001516020015181611adf57611adf615bf8565b0402870196505b50600101611a2a565b505b506001016119ac565b505b50915091565b611b0a614e9e565b604080516060810182526000808252602082018190529181018290526000611b3185611ca1565b6040810151602001519091506001600160a01b0316611b5257611b52615a7d565b6000611b6682604001516020015187612b0d565b80515190915063ffffffff164263ffffffff161115611bc157806000015160a001516001600160a01b03168260400151602001516001600160a01b031614611bb057611bb0615a7d565b805160208201519095506001945092505b50509193909250565b6006546001600160a01b031680611c0b57611c0b6040518060400160405280600f81526020016e4d616e61676572206973207a65726f60881b815250611c49565b611c14336140d8565b611c4657611c466040518060400160405280600d81526020016c1058d8d95cdcc819195b9a5959609a1b815250611c49565b50565b805115611c46578060405163cc86106360e01b8152600401611c6b9190615c0e565b60405180910390fd5b600654600160a01b900460ff1615611c9f5760405163d93c066560e01b815260040160405180910390fd5b565b611ca9614eda565b600082815260046020526040902054610b93906001600160601b0316613b55565b611cd2614eda565b83611cdc816127c2565b611d1157611d116040518060400160405280601081526020016f556e697420697320696e41637469766560801b815250611c49565b600083608001516004811115611d2957611d296156ce565b14611d5c57611d5c6040518060400160405280600d81526020016c496e76616c696420737461676560981b815250611c49565b611d64614f81565b6020808501518051910180519091019052835160a001805160ff60019182011690915284606001516001811115611d9d57611d9d6156ce565b03611dc957611dae858760006133e6565b611db88587612b0d565b8051600160c0909101529050611de6565b611dd38587612bf9565b611de38487876000600180614147565b90505b611e0781600001518560200151604001518360200151600001516000613a4d565b611e2984600186606001516001811115611e2357611e236156ce565b146141db565b15611e4257611e3a60008742614213565b600160808501525b839250611e4f85856142cd565b50509392505050565b6001600160601b038083166000908152600360208181526040928390208551805182548285015183880151606080860151608087015160a09097015160ff908116600160501b0260ff60501b19988216600160481b029890981661ffff60481b1963ffffffff909316600160281b0268ffffffff00000000001962ffffff90961662010000029590951668ffffffffffffff0000199683166101000261ffff199098169290981691909117959095179390931694909417171617919091178255828701518051600180850191909155818501516002850155818701519584018054928401518916600160601b026001600160c01b03199093169690981695909517179095558386015180516004830180546001600160a01b039283166001600160a01b03199182161790915593820151600584018054918316918616919091179055948101516006830180549187169185169190911790558501516007820180549190951692169190911790925591830151600882018054859460ff1991909116908381811115611feb57611feb6156ce565b0217905550608082015160088201805461ff001916610100836004811115612015576120156156ce565b021790555060a082015160088201805462ff0000191662010000836001811115612041576120416156ce565b021790555050505050565b612054614eda565b8661205e816127c2565b15612092576120926040518060400160405280600e81526020016d556e69742069732061637469766560901b815250611c49565b827f00000000000000000000000000000000000000000000000000000000000000006001600160a01b0316816001600160a01b03161461218c57604051634df48c7360e11b81526001600160a01b0382811660048301527f00000000000000000000000000000000000000000000000000000000000000001690639be918e690602401602060405180830381865afa158015612132573d6000803e3d6000fd5b505050506040513d601f19601f820116820180604052508101906121569190615a60565b61218c5761218c60405180604001604052806011815260200170155b9cdd5c1c1bdc9d195908105cdcd95d607a1b815250611c49565b61ffff871615806121a257506102d08761ffff16115b156121d8576121d86040518060400160405280601081526020016f24b73b30b634b210323ab930ba34b7b760811b815250611c49565b60008560018111156121ec576121ec6156ce565b0361227b5760018b51118061220057508a51155b1561223b5761223b60405180604001604052806015815260200174115e1c1958dd080c481a5d195b481a5b881b1a5cdd605a1b815250611c49565b896001600160a01b03168b60008151811061225857612258615a4a565b60200260200101516001600160a01b03161461227657612276615a7d565b612329565b60028b5110156122c3576122c36040518060400160405280601881526020017f4c69737420746f6f206c6f7720666f7220726f75746572320000000000000000815250611c49565b8a6000815181106122d6576122d6615a4a565b60200260200101516001600160a01b03168a6001600160a01b031614612329576123296040518060400160405280601281526020017114d95b99195c881b9bdd081a5b881b1a5cdd60721b815250611c49565b6000806123358b6143ca565b915091506123db6040518061012001604052808d8152602001846001600160601b03168152602001836001600160601b031681526020018c60ff1681526020018a62ffffff168152602001886001600160a01b031681526020018b61ffff1681526020018f6000815181106123ac576123ac615a4a565b60200260200101516001600160a01b031681526020018960018111156123d4576123d46156ce565b9052614424565b94506123e88b8e87614578565b94506123f48286611e58565b6124188d60008151811061240a5761240a615a4a565b6020026020010151866142cd565b5050505098975050505050505050565b6040805160808101825260ff80861682528416602082015260009181018290526001600160a01b0386166060820152826124f257604051639c04622360e01b81526001600160a01b037f00000000000000000000000000000000000000000000000000000000000000001690639c046223906124aa9089908590600401615c5d565b6020604051808303816000875af11580156124c9573d6000803e3d6000fd5b505050506040513d601f19601f820116820180604052508101906124ed9190615a60565b612583565b604051630c03b9c960e21b81526001600160a01b037f0000000000000000000000000000000000000000000000000000000000000000169063300ee724906125409089908590600401615c5d565b6020604051808303816000875af115801561255f573d6000803e3d6000fd5b505050506040513d601f19601f820116820180604052508101906125839190615a60565b9150816125bd576125bd60405180604001604052806012815260200171141bda5b9d08185dd85c990819985a5b195960721b815250611c49565b505050505050565b60005b8351811015612699576001600160601b0382166000908152600b602090815260408083206001600160a01b03871684529091529020845185908390811061261157612611615a4a565b60209081029190910181015182546001808201855560009485529383902082516007909202019081558183015181850155604082015160028201556060820151600382015560808201516004820180546001600160a01b0319166001600160a01b0390921691909117905560a0909101518051600583015590910151600690910155016125c8565b50505050565b60408051608081018252600e548152600f54602082015260105491810191909152601154606082015260008360048111156126dc576126dc6156ce565b036127165760208101805186019052816127025760408101805160010190819052612710565b606081018051600101908190525b506127a0565b600183600481111561272a5761272a6156ce565b0361275157848160200151106127465760208101805186900390525b8051840181526127a0565b6002836004811115612765576127656156ce565b03612789578051841161277a57805184900381525b602081018051860190526127a0565b848160200151106127a05760208101805186900390525b8051600e556020810151600f5560408101516010556060015160115550505050565b6000818152600460209081526040808320546001600160601b03168352600390915281206008015460019062010000900460ff1681811115610cf157610cf16156ce565b3390565b60008080526003602090815260408051610180810182527f3617319a054d772f909f7c479a2cebe5066e836a939412e32403c99029b92eff805460ff80821660c08501908152610100808404831660e087015262ffffff620100008504169086015263ffffffff600160281b840416610120860152600160481b83048216610140860152600160501b90920481166101608501529083528351608080820186527f3617319a054d772f909f7c479a2cebe5066e836a939412e32403c99029b92f005482527f3617319a054d772f909f7c479a2cebe5066e836a939412e32403c99029b92f0154828801527f3617319a054d772f909f7c479a2cebe5066e836a939412e32403c99029b92f02546001600160601b0381811684890152600160601b9091041660608084019190915285880192909252855190810186527f3617319a054d772f909f7c479a2cebe5066e836a939412e32403c99029b92f03546001600160a01b0390811682527f3617319a054d772f909f7c479a2cebe5066e836a939412e32403c99029b92f04548116978201979097527f3617319a054d772f909f7c479a2cebe5066e836a939412e32403c99029b92f05548716818701527f3617319a054d772f909f7c479a2cebe5066e836a939412e32403c99029b92f065490961686820152938301949094527f3617319a054d772f909f7c479a2cebe5066e836a939412e32403c99029b92f075491939092840191166001811115612a3257612a326156ce565b6001811115612a4357612a436156ce565b81526020016008820160019054906101000a900460ff166004811115612a6b57612a6b6156ce565b6004811115612a7c57612a7c6156ce565b81526020016008820160029054906101000a900460ff166001811115612aa457612aa46156ce565b6001811115612ab557612ab56156ce565b815250509050612acd82602001516060015182611e58565b612adf826020015160400151836146ae565b5050565b600654600160a01b900460ff16611c9f57604051638dfc202b60e01b815260040160405180910390fd5b612b15614f81565b6000612b208361483a565b9050612b2c84846135be565b60208084019182526001600160601b0383166000908152600a9091526040902090515181548110612b5f57612b5f615a4a565b60009182526020918290206040805160e0810182526004909302909101805463ffffffff8082168552600160201b8204811695850195909552600160401b90049093169082015260018201546060820152600282015460808201526003909101546001600160a01b03811660a083015260ff600160a01b90910416151560c08201528252612bed8482613ffd565b60408301525092915050565b612c0382826135be565b6020015115612adf57612adf6040518060400160405280601281526020017113595b58995c881b9bdd08185b1b1bddd95960721b815250611c49565b6001600160601b0384166000908152600b602090815260408083206001600160a01b0386168452825280832080548251818502810185019093528083529192909190849084015b82821015612d0c5760008481526020908190206040805160c0810182526007860290920180548352600180820154848601526002820154848401526003820154606085015260048201546001600160a01b031660808501528251808401909352600582015483526006909101548285015260a08301919091529083529092019101612c86565b505050509050600081511115612d93576001600160601b0385166000908152600b602090815260408083206001600160a01b038781168552925280832091891683529091208154612d5d929061502a565b506001600160601b0385166000908152600b602090815260408083206001600160a01b03871684529091528120612d93916150d8565b6001600160601b0385166000908152600a6020526040902084518154889291908110612dc157612dc1615a4a565b906000526020600020906004020160030160006101000a8154816001600160a01b0302191690836001600160a01b03160217905550612e038683866000614853565b6125bd8383866001614853565b8160036000612e1e84611ca1565b602090810151606001516001600160601b0316825281019190915260400160002060050180546001600160a01b0319166001600160a01b03929092169190911790555050565b612e6c614eda565b60008086612e79816127c2565b612eae57612eae6040518060400160405280601081526020016f556e697420697320696e41637469766560801b815250611c49565b612eb788611894565b945092506000839003612ef257612ef26040518060400160405280600d81526020016c139bc81919589d08199bdd5b99609a1b815250611c49565b6000612f068560400151602001518a6135be565b516020808701516040908101516001600160601b03166000908152600a90925281208054929350909183908110612f3f57612f3f615a4a565b9060005260206000209060040201600101819055506000600a60008760200151604001516001600160601b03166001600160601b031681526020019081526020016000208281548110612f9457612f94615a4a565b6000918252602090912060026004909202010155426020808701516040908101516001600160601b03166000908152600a9092529020805483908110612fdc57612fdc615a4a565b60009182526020909120600490910201805463ffffffff191663ffffffff9290921691909117905560095460ff1615613025576130258560400151602001516002600080612428565b84516080810151905160ff91821691160361304f576004608086015261304a8561280a565b6130ef565b426020808701516040908101516001600160601b03166000908152600a835220875190910151815460ff90911690811061308b5761308b615a4a565b6000918252602091829020600490910201805467ffffffff000000001916600160201b63ffffffff949094169390930292909217909155600160808701528551518682018051805160ff909316909202919092015251606001516130ef9086611e58565b60408581015181015190516370a0823160e01b81526001600160a01b0391821660048201526000917f000000000000000000000000000000000000000000000000000000000000000016906370a0823190602401602060405180830381865afa158015613160573d6000803e3d6000fd5b505050506040513d601f19601f820116820180604052508101906131849190615c9f565b90506131ba7f00000000000000000000000000000000000000000000000000000000000000008a886040015160400151886136c7565b508560400151604001516001600160a01b031663397c39bd6040518061014001604052808c6001600160a01b031681526020017f00000000000000000000000000000000000000000000000000000000000000006001600160a01b0316815260200188815260200184815260200189600001516080015160ff168a600001516000015160ff161415158152602001600a60008b60200151604001516001600160601b03166001600160601b03168152602001908152602001600020805480602002602001604051908101604052809291908181526020016000905b8282101561332a5760008481526020908190206040805160e08101825260048602909201805463ffffffff8082168552600160201b8204811685870152600160401b90910416918301919091526001808201546060840152600282015460808401526003909101546001600160a01b03811660a0840152600160a01b900460ff16151560c08301529083529092019101613295565b5050505081526020018b151581526020018a6001600160a01b031681526020018960200151604001516001600160601b031681526020018960400151600001516001600160a01b03168152508c6040518363ffffffff1660e01b8152600401613394929190615cfe565b6020604051808303816000875af11580156133b3573d6000803e3d6000fd5b505050506040513d601f19601f820116820180604052508101906133d79190615c9f565b93505050509450945094915050565b8061342a576133f583836135be565b6020015161342a5761342a6040518060400160405280600c81526020016b2737ba10309036b2b6b132b960a11b815250611c49565b505050565b600080600061343d84611ca1565b60208101515190915015611afc576134dc81600001516040015182600001516000015160ff168360200151600001510260405180604001604052806134898660400151600001516148de565b6001600160801b031681526020017f00000000000000000000000000000000000000000000000000000000000000006001600160a01b0316156134cd5760086134d0565b60125b60ff1690529190614a67565b9051604001519094909350915050565b6134f4614e9e565b600a60006135018561483a565b6001600160601b03166001600160601b031681526020019081526020016000208260ff168154811061353557613535615a4a565b60009182526020918290206040805160e0810182526004909302909101805463ffffffff8082168552600160201b8204811695850195909552600160401b90049093169082015260018201546060820152600282015460808201526003909101546001600160a01b03811660a083015260ff600160a01b90910416151560c08201529392505050565b6040805160608082018352600080835260208084018290529284018190526001600160a01b03959095168552600582528285209385529281529281902081519283018252805483526001015460ff808216151594840194909452610100900490921615159181019190915290565b613634614e9e565b613640848660006133e6565b600061364b8661483a565b9050600061365986886135be565b90506136658688612b0d565b5192506136758688876000614853565b6136868460a0015188836000614853565b6001600160a01b03861660a080860182905284015284516136ac90859084906000613a4d565b6136bd838383600001516000613a4d565b5050949350505050565b60006136d4858584614ad1565b90506001600160a01b0383166136ec576136ec615a7d565b6001600160a01b03851661370257613702615a7d565b80156137b5576040516323b872dd60e01b81526001600160a01b0385811660048301528481166024830152604482018390528616906323b872dd906064016020604051808303816000875af115801561375f573d6000803e3d6000fd5b505050506040513d601f19601f820116820180604052508101906137839190615a60565b6137b5576137b56040518060400160405280600d81526020016c151c9e11995c8819985a5b1959609a1b815250611c49565b949350505050565b6000610b908383614cb2565b6137d1614eda565b6137d9614e9e565b84516020018051906137ea82615ddf565b60ff16905250845160600151420163ffffffff16835260808301849052602085810180518201516060860152516040908101516001600160601b03166000908152600b8352818120828901518401516001600160a01b03168252835281812080548351818602810186019094528084529193909190849084015b828210156138ea5760008481526020908190206040805160c0810182526007860290920180548352600180820154848601526002820154848401526003820154606085015260048201546001600160a01b031660808501528251808401909352600582015483526006909101548285015260a08301919091529083529092019101613864565b50505050905060005b8151811015613a31576020878101516040908101516001600160601b03166000908152600b8352818120828b01518401516001600160a01b031682529092529020805463ffffffff421691908390811061394f5761394f615a4a565b9060005260206000209060070201600301819055506139bb82828151811061397957613979615a4a565b6020026020010151604001518860000151606001518484815181106139a0576139a0615a4a565b602002602001015160200151614d609092919063ffffffff16565b6020808901516040908101516001600160601b03166000908152600b8352818120828c01518401516001600160a01b031682529092529020805483908110613a0557613a05615a4a565b6000918252602091829020835160056007909302909101918201559101516006909101556001016138f3565b5050505060208381015160009101526002608084015291929050565b613a55614e9e565b81613a605784613a62565b805b6001600160601b0385166000908152600a60205260409020805460ff8616908110613a8f57613a8f615a4a565b60009182526020918290208351600490920201805492840151604085015163ffffffff908116600160401b026bffffffff000000000000000019928216600160201b0267ffffffffffffffff1990961691909416179390931792909216178155606082015160018201556080820151600282015560a08201516003909101805460c0909301511515600160a01b026001600160a81b03199093166001600160a01b03909216919091179190911790555050505050565b6000613b5060025490565b905090565b613b5d614eda565b6001600160601b03808316600090815260036020818152604092839020835161018081018552815460ff80821660c08401908152610100808404831660e086015262ffffff620100008504169085015263ffffffff600160281b840416610120850152600160481b83048216610140850152600160501b9092048116610160840152908252855160808082018852600180860154835260028601548388015296850154808a16838a0152600160601b9004909816606080830191909152838601919091528651978801875260048401546001600160a01b03908116895260058501548116958901959095526006840154851688880152600784015490941687850152948101959095526008810154909391850192911690811115613c8357613c836156ce565b6001811115613c9457613c946156ce565b81526020016008820160019054906101000a900460ff166004811115613cbc57613cbc6156ce565b6004811115613ccd57613ccd6156ce565b81526020016008820160029054906101000a900460ff166001811115613cf557613cf56156ce565b6001811115613d0657613d066156ce565b90525092915050565b613d17615017565b8181526020808301516040908101516001600160601b03166000908152600a835281812080548351818602810186019094528084529193909190849084015b82821015613deb5760008481526020908190206040805160e08101825260048602909201805463ffffffff8082168552600160201b8204811685870152600160401b90910416918301919091526001808201546060840152600282015460808401526003909101546001600160a01b03811660a0840152600160a01b900460ff16151560c08301529083529092019101613d56565b5050505090506000815167ffffffffffffffff811115613e0d57613e0d6151ef565b604051908082528060200260200182016040528015613e4657816020015b613e33614f81565b815260200190600190039081613e2b5790505b508351602001515190915015613ec95760005b8251811015613ec0576000838281518110613e7657613e76615a4a565b602002602001015160a001519050613e9a8186600001516020015160000151612b0d565b838381518110613eac57613eac615a4a565b602090810291909101015250600101613e59565b50602083018190525b5050919050565b613ed8614eda565b6001600160601b03808316600090815260016020818152604092839020835161018081018552815460ff80821660c08401908152610100808404831660e086015262ffffff620100008504169085015263ffffffff600160281b840416610120850152600160481b83048216610140850152600160501b90920481166101608401529082528551608080820188528487015482526002850154828701526003850154808a16838a0152600160601b9004909816606080830191909152838601919091528651978801875260048401546001600160a01b03908116895260058501548116958901959095526006840154851688880152600784015490941687850152948101959095526008810154909391850192911690811115613c8357613c836156ce565b6001600160601b0381166000908152600b602090815260408083206001600160a01b03861684528252808320805482518185028101850190935280835260609492939192909184015b828210156140cc5760008481526020908190206040805160c0810182526007860290920180548352600180820154848601526002820154848401526003820154606085015260048201546001600160a01b031660808501528251808401909352600582015483526006909101548285015260a08301919091529083529092019101614046565b50505050905092915050565b600654604051633f784de560e11b81526001600160a01b0383811660048301526000921690637ef09bca90602401602060405180830381865afa158015614123573d6000803e3d6000fd5b505050506040513d601f19601f82011682018060405250810190610b939190615a60565b61414f614f81565b6020808801516040908101516001600160601b03166000908152600a83522054908201805191909152515161418990869088908787614dc3565b6020968701516040908101516001600160601b03166000908152600a90985287208054600101815590965285516001600160a01b0390941660a0909401939093525050825190151560c0909101525090565b600081156141fd57825151602080850151805191015160ff9092160214610b90565b505051805160a09091015160ff91821691161490565b60006001600160a01b03841661424b5761422c83611ca1565b516020015160ff16905061424083826134ec565b60a001519350614259565b61425584846135be565b5190505b81600a60006142678661483a565b6001600160601b03166001600160601b03168152602001908152602001600020828154811061429857614298615a4a565b906000526020600020906004020160000160046101000a81548163ffffffff021916908363ffffffff16021790555050505050565b6143097f0000000000000000000000000000000000000000000000000000000000000000838360400151604001518460200151600001516136c7565b50604080820151810151602083015182015191516320d46be760e11b81526001600160a01b0385811660048301526001600160601b0390931660248201529116906341a8d7ce906044016020604051808303816000875af1158015614372573d6000803e3d6000fd5b505050506040513d601f19601f820116820180604052508101906143969190615a60565b612adf57612adf6040518060400160405280600f81526020016e105919081d5cd95c8819985a5b1959608a1b815250611c49565b6000806143db600280546001019055565b600254600084815260046020526040902080546bffffffffffffffffffffffff19166001600160601b038316179055915061441d600080546001810190915590565b9050915091565b61442c614eda565b6040518060c00160405280836060015160ff168152602001600060ff168152602001836080015162ffffff1681526020018360c0015161ffff16610e100263ffffffff168152602001600060ff168152602001600160ff1681525081600001819052506040518060800160405280836000015181526020018360000151815260200183604001516001600160601b0316815260200183602001516001600160601b0316815250816020018190525060405180608001604052808360a001516001600160a01b0316815260200160006001600160a01b031681526020016145158460000151614df8565b6001600160a01b03908116825260e08501511660209091015260408201526101008201516060820190600181111561454f5761454f6156ce565b90816001811115614562576145626156ce565b905250600160a082015260006080820152919050565b614580614eda565b60005b83518110156146a557614594614f81565b816000036145cc576145c584878785815181106145b3576145b3615a4a565b60200260200101516001806001614147565b905061467b565b8482815181106145de576145de615a4a565b60200260200101516001600160a01b03168560008151811061460257614602615a4a565b60200260200101516001600160a01b03160361464e5761464e6040518060400160405280601581526020017443726561746f722073706f7474656420747769636560581b815250611c49565b614678848787858151811061466557614665615a4a565b6020026020010151600060016000614147565b90505b61469c81600001518560200151604001518360200151600001516000613a4d565b50600101614583565b50909392505050565b6001600160601b038083166000908152600160208181526040928390208551805182548285015183880151606080860151608087015160a09097015160ff908116600160501b0260ff60501b19988216600160481b029890981661ffff60481b1963ffffffff909316600160281b0268ffffffff00000000001962ffffff90961662010000029590951668ffffffffffffff0000199683166101000261ffff1990981692909816919091179590951793909316949094171716179190911782558287015180518386015580840151600284015580860151600384018054928401518916600160601b026001600160c01b03199093169190981617179095558386015180516004830180546001600160a01b039283166001600160a01b03199182161790915593820151600584018054918316918616919091179055948101516006830180549187169185169190911790558501516007820180549190951692169190911790925591830151600882018054859460ff1991909116908381811115611feb57611feb6156ce565b600061484582611ca1565b602001516040015192915050565b60408051606081018252600080825260208201819052918101919091528161487b578261487d565b805b6001600160a01b0395909516600090815260056020908152604080832096835295815290859020865181559086015160019091018054959096015161ffff1990951690151561ff001916176101009415159490940293909317909355505050565b6001600160a01b0381166000908152600860205260408120805482919061490490615a93565b80601f016020809104026020016040519081016040528092919081815260200182805461493090615a93565b801561497d5780601f106149525761010080835404028352916020019161497d565b820191906000526020600020905b81548152906001019060200180831161496057829003601f168201915b5050505050905060006001600160a01b03167f00000000000000000000000000000000000000000000000000000000000000006001600160a01b031614614a57576040516304b01c2560e51b81526000906001600160a01b037f0000000000000000000000000000000000000000000000000000000000000000169063960384a090614a0d908590600401615c0e565b6040805180830381865afa158015614a29573d6000803e3d6000fd5b505050506040513d601f19601f82011682018060405250810190614a4d9190615e15565b509250610b1b9050565b50678ac7230489e8000092915050565b60008262ffffff16600003614a7e5750600061084b565b60008360640262ffffff169050600085600001516001600160801b0316866020015160ff16600a0a850281614ab557614ab5615bf8565b04905061271065ffffffffffff83168202049695505050505050565b6000837f00000000000000000000000000000000000000000000000000000000000000006001600160a01b0316816001600160a01b031614614bcd57604051634df48c7360e11b81526001600160a01b0382811660048301527f00000000000000000000000000000000000000000000000000000000000000001690639be918e690602401602060405180830381865afa158015614b73573d6000803e3d6000fd5b505050506040513d601f19601f82011682018060405250810190614b979190615a60565b614bcd57614bcd60405180604001604052806011815260200170155b9cdd5c1c1bdc9d195908105cdcd95d607a1b815250611c49565b6001600160a01b038516614be357614be3615a7d565b6001600160a01b038416614bf957614bf9615a7d565b604051636eb1769f60e11b81526001600160a01b03858116600483015230602483015286169063dd62ed3e90604401602060405180830381865afa158015614c45573d6000803e3d6000fd5b505050506040513d601f19601f82011682018060405250810190614c699190615c9f565b915082821015614caa57614caa6040518060400160405280601681526020017556616c75652065786365656420616c6c6f77616e636560501b815250611c49565b509392505050565b600061271061ffff83161580614cc6575083155b15614cd5576000915050610b93565b61ffff83811610614d1257614d1260405180604001604052806011815260200170496e746572657374206f766572666c6f7760781b815250611c49565b8061ffff168411614d3e57614d3e604051806060016040528060268152602001615e4060269139611c49565b8061ffff168361ffff16850281614d5757614d57615bf8565b04949350505050565b604080518082019091526000808252602082015262278d0063ffffffff83161115614d8d57614d8d615a7d565b614d978484614cb2565b8082521561084b57805163ffffffff83169081614db657614db6615bf8565b0460208201529392505050565b614df1858560405180606001604052808760ff16815260200185151581526020018615158152506000614853565b5050505050565b60405163f72be56960e01b8152600481018290526000907f00000000000000000000000000000000000000000000000000000000000000006001600160a01b03169063f72be569906024016020604051808303816000875af1158015614e62573d6000803e3d6000fd5b505050506040513d601f19601f82011682018060405250810190614e869190615a2d565b90506001600160a01b038116610ccb57610ccb615a7d565b6040805160e081018252600080825260208201819052918101829052606081018290526080810182905260a0810182905260c081019190915290565b604080516101808101909152600060c0820181815260e083018290526101008301829052610120830182905261014083018290526101608301919091528190815260408051608081018252600080825260208281018290529282018190526060820152910190815260408051608081018252600080825260208281018290529282018190526060820152910190815260200160008152602001600081526020016000905290565b6040518060600160405280614f94614e9e565b81526040805160608101825260008082526020828101829052928201529101905b8152602001606081525090565b6040518060800160405280614ff86040518060800160405280600081526020016000815260200160008152602001600081525090565b8152602001600061ffff16815260200160008152602001600081525090565b6040518060400160405280614fb5614eda565b8280548282559060005260206000209060070281019282156150c85760005260206000209160070282015b828111156150c8578254825560018084015490830155600280840154908301556003808401549083015560048084015490830180546001600160a01b0319166001600160a01b03909216919091179055600580840154908301556006808401549083015560079283019290910190615055565b506150d49291506150f5565b5090565b5080546000825560070290600052602060002090810190611c4691905b5b808211156150d45760008082556001820181905560028201819055600382018190556004820180546001600160a01b03191690556005820181905560068201556007016150f6565b60006020828403121561515057600080fd5b5035919050565b63ffffffff80825116835280602083015116602084015280604083015116604084015250606081015160608301526080810151608083015260018060a01b0360a08201511660a083015260c0810151151560c08301525050565b61016081016151c08286615157565b83151560e0830152825161010083015260208301511515610120830152604083015115156101408301526137b5565b634e487b7160e01b600052604160045260246000fd5b60405160c0810167ffffffffffffffff81118282101715615228576152286151ef565b60405290565b6040805190810167ffffffffffffffff81118282101715615228576152286151ef565b604051601f8201601f1916810167ffffffffffffffff8111828210171561527a5761527a6151ef565b604052919050565b6001600160a01b0381168114611c4657600080fd5b8035610ccb81615282565b600080600060608085870312156152b857600080fd5b843567ffffffffffffffff808211156152d057600080fd5b818701915087601f8301126152e457600080fd5b81356020828211156152f8576152f86151ef565b615306818360051b01615251565b828152818101935060e092830285018201928b84111561532557600080fd5b948201945b838610156153bc57858c03818112156153435760008081fd5b61534b615205565b87358152848801358582015260408089013581830152898901358a8301526080808a013561537881615282565b9083015260a0609f1984018213156153905760008081fd5b61539861522e565b8a820135815260c08b0135888201529083015250865250948501949382019361532a565b5097506153ca898201615297565b96505050505050604084013590509250925092565b600080604083850312156153f257600080fd5b82359150602083013561540481615282565b809150509250929050565b805182526020808201518184015260408083015190840152606080830151908401526080808301516001600160a01b03169084015260a091820151805192840192909252015160c082015260e00190565b6000610160808401615473858551615157565b602084810151805160e088015280820151151561010088015260409081015115156101208801528501516101408701939093528251918290526101808601928101916000905b808210156154de576154cc85855161540f565b945082840193506001820191506154b9565b50929695505050505050565b602081526000610b906020830184615460565b803560ff81168114610ccb57600080fd5b803561ffff81168114610ccb57600080fd5b803562ffffff81168114610ccb57600080fd5b6000806000806080858703121561554957600080fd5b84359350615559602086016154fd565b92506155676040860161550e565b915061557560608601615520565b905092959194509250565b6000806040838503121561559357600080fd5b823561559e81615282565b91506155ac6020840161550e565b90509250929050565b8015158114611c4657600080fd5b8035610ccb816155b5565b60008060008060008060008060e0898b0312156155ea57600080fd5b883567ffffffffffffffff8082111561560257600080fd5b818b0191508b601f83011261561657600080fd5b81358181111561562557600080fd5b8c60208260051b850101111561563a57600080fd5b60209283019a50985050890135955061565560408a016154fd565b945061566360608a0161550e565b935061567160808a01615520565b925061567f60a08a016155c3565b915061568d60c08a01615297565b90509295985092959890939650565b80356001600160601b0381168114610ccb57600080fd5b6000602082840312156156c557600080fd5b610b908261569c565b634e487b7160e01b600052602160045260246000fd5b600281106156f4576156f46156ce565b9052565b600581106156f4576156f46156ce565b805160ff815116835260ff602082015116602084015262ffffff604082015116604084015263ffffffff606082015116606084015260ff608082015116608084015260ff60a08201511660a084015250602081015161579a60c0840182805182526020810151602083015260408101516001600160601b03808216604085015280606084015116606085015250505050565b5060408181015180516001600160a01b03908116610140860152602082015181166101608601529181015182166101808501526060908101519091166101a08401528101516157ed6101c08401826156e4565b5060808101516158016101e08401826156f8565b5060a081015161342a6102008401826156e4565b60006020808352610260830161582e8285018651615708565b8185015161024085810152805191829052610280600583901b8601810192918401919086019060005b818110156158865761027f19888603018352615874858551615460565b94509285019291850191600101615857565b5092979650505050505050565b600080604083850312156158a657600080fd5b82356158b181615282565b915060208381013567ffffffffffffffff808211156158cf57600080fd5b818601915086601f8301126158e357600080fd5b8135818111156158f5576158f56151ef565b615907601f8201601f19168501615251565b9150808252878482850101111561591d57600080fd5b80848401858401376000848284010152508093505050509250929050565b6000806040838503121561594e57600080fd5b823561595981615282565b946020939093013593505050565b8151815260208083015115159082015260408083015115159082015260608101610b93565b60006020828403121561599e57600080fd5b813561084b81615282565b600080604083850312156159bc57600080fd5b82356159c781615282565b91506155ac6020840161569c565b6020808252825182820181905260009190848201906040850190845b81811015615a1257615a0483855161540f565b9385019392506001016159f1565b50909695505050505050565b6102208101610b938284615708565b600060208284031215615a3f57600080fd5b815161084b81615282565b634e487b7160e01b600052603260045260246000fd5b600060208284031215615a7257600080fd5b815161084b816155b5565b634e487b7160e01b600052600160045260246000fd5b600181811c90821680615aa757607f821691505b602082108103610b1b57634e487b7160e01b600052602260045260246000fd5b601f82111561342a576000816000526020600020601f850160051c81016020861015615af05750805b601f850160051c820191505b818110156125bd57828155600101615afc565b815167ffffffffffffffff811115615b2957615b296151ef565b615b3d81615b378454615a93565b84615ac7565b602080601f831160018114615b725760008415615b5a5750858301515b600019600386901b1c1916600185901b1785556125bd565b600085815260208120601f198616915b82811015615ba157888601518255948401946001909101908401615b82565b5085821015615bbf5787850151600019600388901b60f8161c191681555b5050505050600190811b01905550565b634e487b7160e01b600052601160045260246000fd5b80820180821115610b9357610b93615bcf565b634e487b7160e01b600052601260045260246000fd5b60006020808352835180602085015260005b81811015615c3c57858101830151858201604001528201615c20565b506000604082860101526040601f19601f8301168501019250505092915050565b6001600160a01b039283168152815160208083019190915282015160408083019190915282015160608083019190915290910151909116608082015260a00190565b600060208284031215615cb157600080fd5b5051919050565b60008151808452602080850194506020840160005b83811015615cf357615ce0878351615157565b60e0969096019590820190600101615ccd565b509495945050505050565b60408152615d186040820184516001600160a01b03169052565b60006020840151615d3460608401826001600160a01b03169052565b5060408401516080830152606084015160a08301526080840151615d5c60c084018215159052565b5060a08401516101408060e0850152615d79610180850183615cb8565b915060c0860151610100615d908187018315159052565b60e08801519150610120615dae818801846001600160a01b03169052565b908801516001600160601b0316928601929092525094909401516001600160a01b0316610160830152506020015290565b600060ff821660ff8103615df557615df5615bcf565b60010192915050565b80516001600160801b0381168114610ccb57600080fd5b60008060408385031215615e2857600080fd5b615e3183615dfe565b91506155ac60208401615dfe56fe5072696e636970616c2073686f756c642062652067726561746572207468616e203130303030a26469706673582212205d7ef22366b5030924ded7a6e4e45a4e8f98395fba56a4558f062ba59918ac3364736f6c63430008180033",
  "devdoc": {
    "author": "Simplifi (Bobeu)",
    "errors": {
      "EnforcedPause()": [
        {
          "details": "The operation failed because the contract is paused."
        }
      ],
      "ExpectedPause()": [
        {
          "details": "The operation failed because the contract is not paused."
        }
      ]
    },
    "events": {
      "Paused(address)": {
        "details": "Emitted when the pause is triggered by `account`."
      },
      "Unpaused(address)": {
        "details": "Emitted when the pause is lifted by `account`."
      }
    },
    "kind": "dev",
    "methods": {
      "activateReward()": {
        "details": "Activate reward"
      },
      "closePool(uint256)": {
        "details": "Cancels a pool. Only pool with one contributor can be close.",
        "params": {
          "unit": ": Unit contribution."
        }
      },
      "constructor": {
        "params": {
          "_assetManager": ": Asset manager contract",
          "_baseAsset": ": ERC20 compatible asset to use as base contribution",
          "_feeTo": ": Fee receiver",
          "_pointFactory": ": Platform fee",
          "_roleManager": ": Role manager contract"
        }
      },
      "contribute(uint256)": {
        "details": "Add a contributor to a poool",
        "params": {
          "": ": Unit contribution"
        }
      },
      "contributeThroughProvider((uint256,uint256,uint256,uint256,address,(uint256,uint256))[],address,uint256)": {
        "details": "Contributors can join a pool through a provider is they wish to borrow to finance the unit contribution.      If the unit is not taken, we add them to the pool otherwise a new pool will be launched.",
        "params": {
          "borrower": ": Account address of the borrower",
          "providers": ": List of providers that lend to the borrower",
          "unit": ": Amount borrowed will automatically be the unit contribution"
        }
      },
      "createPool(address[],uint256,uint8,uint16,uint24,bool,address)": {
        "details": "Create a pool internally",
        "params": {
          "colAsset": ": An ERC20-compatible asset to use as collateral currency ",
          "colCoverage": ": Ration of collateral coverage or index required as cover for loan",
          "durationInHours": ": Maximum duration in hours each borrower can retain the loan",
          "isPermissionless": ": Whether to create a permissionless or permissioned pool.",
          "maxQuorum": ": Maximum number of contributors that can participate",
          "unit": ": Unit contribution",
          "users": ": List of participating accounts"
        }
      },
      "deactivateReward()": {
        "details": "Deactivate reward"
      },
      "editPool(uint256,uint8,uint16,uint24)": {
        "details": "Edit pool information",
        "params": {
          "colCoverage": ": Collateral coverage or ratio.",
          "durationInHours": ": Number of time in hours each contributor can retain the loan",
          "maxQuorum": ": Number of expected participants",
          "unit": ": Unit contribution"
        }
      },
      "enquireLiquidation(uint256)": {
        "details": "Check liquidation opportunity in the pool",
        "params": {
          "unit": ": Unit contribution"
        }
      },
      "getCollateralQuote(uint256)": {
        "details": "Returns amount of collateral required in a pool.",
        "params": {
          "unit": ": EpochId"
        },
        "returns": {
          "colCoverage": "Collateral coverage",
          "collateral": "Collateral"
        }
      },
      "getContributorProviders(address,uint96)": {
        "details": "Return providers associated with the target account",
        "params": {
          "recordId": ": Record id",
          "target": ": Target account"
        }
      },
      "getCurrentDebt(uint256)": {
        "params": {
          "unit": ": Unit contribution"
        }
      },
      "getFactoryData()": {
        "details": "Return contract data "
      },
      "getFinance(uint256)": {
        "details": "Get finance",
        "params": {
          "unit": ": Unit contribution"
        },
        "returns": {
          "_0": "bool : Success or Failure"
        }
      },
      "getPoolData(uint96)": {
        "details": "Return past pools using unitId. ",
        "params": {
          "unitId": ": UnitId "
        }
      },
      "getPoolRecord(uint96)": {
        "details": "Return past pools using unitId. ",
        "params": {
          "recordId": ": Record Id"
        }
      },
      "getProfile(uint256,address)": {
        "details": "Returns the profile of target",
        "params": {
          "target": ": User",
          "unit": ": unit contribution"
        }
      },
      "isPoolAvailable(uint256)": {
        "details": "Get pool from storage",
        "params": {
          "unit": ": Unit contribution"
        }
      },
      "liquidate(uint256)": {
        "details": "Liquidates a borrower if they have defaulted in repaying their loan. - If the current beneficiary defaults, they're liquidated. - Their collateral balances is forwarded to the liquidator. Liquidator also takes the full  responsibilities of the providers if any. - Liquidator must not be a participant in pool at `unitId. We use this  to avoid fatal error in storage.",
        "params": {
          "unit": ": Unit contribution."
        }
      },
      "pause()": {
        "details": "Triggers stopped state. Requirements: Only owner role can call. - The contract must not be paused."
      },
      "paused()": {
        "details": "Returns true if the contract is paused, and false otherwise."
      },
      "payback(uint256)": {
        "details": "Payback. For detailed documentation, see _payback",
        "params": {
          "unit": ": Unit contribution"
        }
      },
      "setFeeOrMakerRate(address,uint16)": {
        "details": "Set fee or maker rate. The status of the value parsed determines which to update.",
        "params": {
          "_feeTo": ": Fee receiving account. ",
          "_makerRate": ": Platform fee (in %)"
        }
      },
      "setPair(address,string)": {
        "details": "Map collateral asset to their corresponding pair for price retrieval",
        "params": {
          "collateralAsset": ": ERC20 compatible asset",
          "pair": ": Price pair e.g cUSD/USDT"
        }
      },
      "setRoleManager(address)": {
        "params": {
          "newManager": ": New manager address"
        }
      },
      "unpause()": {
        "details": "Returns to normal state. Requirements: - Only owner role can call. - The contract must be paused."
      }
    },
    "title": "FlexpoolFactory",
    "version": 1
  },
  "userdoc": {
    "kind": "user",
    "methods": {
      "closePool(uint256)": {
        "notice": ": Only the creator of a pool can close it provided the number of contributors does not exceed one."
      },
      "constructor": {
        "notice": "================ Constructor =============="
      },
      "contributeThroughProvider((uint256,uint256,uint256,uint256,address,(uint256,uint256))[],address,uint256)": {
        "notice": "By default, maxQuorum is set to 2 using this method. Users can immediately change the quorum to desired value otherwise it will not be possible if another contributor joins to complete the quorum. - durationInHrs is set to 72 hours by default. - colCoverage is set to 120 by default. Only accounts with the roleBearer are allowed i.e Ex. Providers contract"
      },
      "createPool(address[],uint256,uint8,uint16,uint24,bool,address)": {
        "notice": "users list should be a list of participating accounts if it is permissioned including the creator being the first on the list. But the list can be empty if it is permissionless."
      },
      "getCurrentDebt(uint256)": {
        "notice": "Returns the current debt of target user."
      },
      "getFinance(uint256)": {
        "notice": ": To get finance, the unit contribution must be active. In the event the expected contributor failed to  call, we swap their profile for the current msg.sender provided the grace period of 1hr has passed."
      },
      "getPoolData(uint96)": {
        "notice": "For every unit contribution, the unit Id is unique to another and does not change"
      },
      "getPoolRecord(uint96)": {
        "notice": "The correct unitId must be parsed. The record id can be obtained by iterating over the past epoches. Using the record Id associated with the current pool will return empty pool but may not return empty contributors."
      },
      "setFeeOrMakerRate(address,uint16)": {
        "notice": ": For detailed doc on setting maker rate, see Utils.sol._getPercentage()"
      },
      "setPair(address,string)": {
        "notice": "Collateral asset must be supported"
      },
      "setRoleManager(address)": {
        "notice": "Set Role manager"
      }
    },
    "notice": "Deployable FlexpoolFactory contract that enables peer-funding. Participants of each pool are referred to  contributors. There is no limit to the amount that can be contributed except for zer0 value. Users can single-handedly run a pool (where anyone is free to participate) or collectively with friends and family or peer operate a permissioned pool  where participation is restricted to the preset members only. Users can use providers strategy to finance their quota if they can't afford the unit contribution. They can select multiple providers if the provider balance cannot the amount they wish to borrow. If this is the case, the selected providers are  entitled to earn interest on the amount they provide. When paying back, the contributor will repay the full loan with interest but halved for other contributors.  ",
    "version": 1
  },
  "storageLayout": {
    "storage": [
      {
        "astId": 3876,
        "contract": "contracts/standalone/celo/FlexpoolFactory.sol:FlexpoolFactory",
        "label": "pastEpoches",
        "offset": 0,
        "slot": "0",
        "type": "t_struct(Counter)362_storage"
      },
      {
        "astId": 3881,
        "contract": "contracts/standalone/celo/FlexpoolFactory.sol:FlexpoolFactory",
        "label": "records",
        "offset": 0,
        "slot": "1",
        "type": "t_mapping(t_uint96,t_struct(Pool)502_storage)"
      },
      {
        "astId": 3324,
        "contract": "contracts/standalone/celo/FlexpoolFactory.sol:FlexpoolFactory",
        "label": "epoches",
        "offset": 0,
        "slot": "2",
        "type": "t_struct(Counter)362_storage"
      },
      {
        "astId": 3329,
        "contract": "contracts/standalone/celo/FlexpoolFactory.sol:FlexpoolFactory",
        "label": "pools",
        "offset": 0,
        "slot": "3",
        "type": "t_mapping(t_uint96,t_struct(Pool)502_storage)"
      },
      {
        "astId": 3334,
        "contract": "contracts/standalone/celo/FlexpoolFactory.sol:FlexpoolFactory",
        "label": "indexes",
        "offset": 0,
        "slot": "4",
        "type": "t_mapping(t_uint256,t_uint96)"
      },
      {
        "astId": 4908,
        "contract": "contracts/standalone/celo/FlexpoolFactory.sol:FlexpoolFactory",
        "label": "slots",
        "offset": 0,
        "slot": "5",
        "type": "t_mapping(t_address,t_mapping(t_uint256,t_struct(Slot)616_storage))"
      },
      {
        "astId": 3762,
        "contract": "contracts/standalone/celo/FlexpoolFactory.sol:FlexpoolFactory",
        "label": "roleManager",
        "offset": 0,
        "slot": "6",
        "type": "t_contract(IRoleBase)987"
      },
      {
        "astId": 3957,
        "contract": "contracts/standalone/celo/FlexpoolFactory.sol:FlexpoolFactory",
        "label": "_paused",
        "offset": 20,
        "slot": "6",
        "type": "t_bool"
      },
      {
        "astId": 4852,
        "contract": "contracts/standalone/celo/FlexpoolFactory.sol:FlexpoolFactory",
        "label": "safes",
        "offset": 0,
        "slot": "7",
        "type": "t_mapping(t_uint256,t_address)"
      },
      {
        "astId": 4711,
        "contract": "contracts/standalone/celo/FlexpoolFactory.sol:FlexpoolFactory",
        "label": "pairs",
        "offset": 0,
        "slot": "8",
        "type": "t_mapping(t_contract(IERC20)857,t_string_storage)"
      },
      {
        "astId": 1396,
        "contract": "contracts/standalone/celo/FlexpoolFactory.sol:FlexpoolFactory",
        "label": "awardPoint",
        "offset": 0,
        "slot": "9",
        "type": "t_bool"
      },
      {
        "astId": 1584,
        "contract": "contracts/standalone/celo/FlexpoolFactory.sol:FlexpoolFactory",
        "label": "contributors",
        "offset": 0,
        "slot": "10",
        "type": "t_mapping(t_uint96,t_array(t_struct(Contributor)565_storage)dyn_storage)"
      },
      {
        "astId": 1593,
        "contract": "contracts/standalone/celo/FlexpoolFactory.sol:FlexpoolFactory",
        "label": "unitProviders",
        "offset": 0,
        "slot": "11",
        "type": "t_mapping(t_uint96,t_mapping(t_address,t_array(t_struct(Provider)584_storage)dyn_storage))"
      },
      {
        "astId": 3629,
        "contract": "contracts/standalone/celo/FlexpoolFactory.sol:FlexpoolFactory",
        "label": "feeTo",
        "offset": 0,
        "slot": "12",
        "type": "t_address"
      },
      {
        "astId": 3631,
        "contract": "contracts/standalone/celo/FlexpoolFactory.sol:FlexpoolFactory",
        "label": "makerRate",
        "offset": 0,
        "slot": "13",
        "type": "t_uint256"
      },
      {
        "astId": 5034,
        "contract": "contracts/standalone/celo/FlexpoolFactory.sol:FlexpoolFactory",
        "label": "analytics",
        "offset": 0,
        "slot": "14",
        "type": "t_struct(Analytics)662_storage"
      }
    ],
    "types": {
      "t_address": {
        "encoding": "inplace",
        "label": "address",
        "numberOfBytes": "20"
      },
      "t_array(t_struct(Contributor)565_storage)dyn_storage": {
        "base": "t_struct(Contributor)565_storage",
        "encoding": "dynamic_array",
        "label": "struct Common.Contributor[]",
        "numberOfBytes": "32"
      },
      "t_array(t_struct(Provider)584_storage)dyn_storage": {
        "base": "t_struct(Provider)584_storage",
        "encoding": "dynamic_array",
        "label": "struct Common.Provider[]",
        "numberOfBytes": "32"
      },
      "t_bool": {
        "encoding": "inplace",
        "label": "bool",
        "numberOfBytes": "1"
      },
      "t_contract(IERC20)857": {
        "encoding": "inplace",
        "label": "contract IERC20",
        "numberOfBytes": "20"
      },
      "t_contract(IRoleBase)987": {
        "encoding": "inplace",
        "label": "contract IRoleBase",
        "numberOfBytes": "20"
      },
      "t_enum(Router)483": {
        "encoding": "inplace",
        "label": "enum Common.Router",
        "numberOfBytes": "1"
      },
      "t_enum(Stage)474": {
        "encoding": "inplace",
        "label": "enum Common.Stage",
        "numberOfBytes": "1"
      },
      "t_enum(Status)477": {
        "encoding": "inplace",
        "label": "enum Common.Status",
        "numberOfBytes": "1"
      },
      "t_mapping(t_address,t_array(t_struct(Provider)584_storage)dyn_storage)": {
        "encoding": "mapping",
        "key": "t_address",
        "label": "mapping(address => struct Common.Provider[])",
        "numberOfBytes": "32",
        "value": "t_array(t_struct(Provider)584_storage)dyn_storage"
      },
      "t_mapping(t_address,t_mapping(t_uint256,t_struct(Slot)616_storage))": {
        "encoding": "mapping",
        "key": "t_address",
        "label": "mapping(address => mapping(uint256 => struct Common.Slot))",
        "numberOfBytes": "32",
        "value": "t_mapping(t_uint256,t_struct(Slot)616_storage)"
      },
      "t_mapping(t_contract(IERC20)857,t_string_storage)": {
        "encoding": "mapping",
        "key": "t_contract(IERC20)857",
        "label": "mapping(contract IERC20 => string)",
        "numberOfBytes": "32",
        "value": "t_string_storage"
      },
      "t_mapping(t_uint256,t_address)": {
        "encoding": "mapping",
        "key": "t_uint256",
        "label": "mapping(uint256 => address)",
        "numberOfBytes": "32",
        "value": "t_address"
      },
      "t_mapping(t_uint256,t_struct(Slot)616_storage)": {
        "encoding": "mapping",
        "key": "t_uint256",
        "label": "mapping(uint256 => struct Common.Slot)",
        "numberOfBytes": "32",
        "value": "t_struct(Slot)616_storage"
      },
      "t_mapping(t_uint256,t_uint96)": {
        "encoding": "mapping",
        "key": "t_uint256",
        "label": "mapping(uint256 => uint96)",
        "numberOfBytes": "32",
        "value": "t_uint96"
      },
      "t_mapping(t_uint96,t_array(t_struct(Contributor)565_storage)dyn_storage)": {
        "encoding": "mapping",
        "key": "t_uint96",
        "label": "mapping(uint96 => struct Common.Contributor[])",
        "numberOfBytes": "32",
        "value": "t_array(t_struct(Contributor)565_storage)dyn_storage"
      },
      "t_mapping(t_uint96,t_mapping(t_address,t_array(t_struct(Provider)584_storage)dyn_storage))": {
        "encoding": "mapping",
        "key": "t_uint96",
        "label": "mapping(uint96 => mapping(address => struct Common.Provider[]))",
        "numberOfBytes": "32",
        "value": "t_mapping(t_address,t_array(t_struct(Provider)584_storage)dyn_storage)"
      },
      "t_mapping(t_uint96,t_struct(Pool)502_storage)": {
        "encoding": "mapping",
        "key": "t_uint96",
        "label": "mapping(uint96 => struct Common.Pool)",
        "numberOfBytes": "32",
        "value": "t_struct(Pool)502_storage"
      },
      "t_string_storage": {
        "encoding": "bytes",
        "label": "string",
        "numberOfBytes": "32"
      },
      "t_struct(Addresses)549_storage": {
        "encoding": "inplace",
        "label": "struct Common.Addresses",
        "members": [
          {
            "astId": 542,
            "contract": "contracts/standalone/celo/FlexpoolFactory.sol:FlexpoolFactory",
            "label": "colAsset",
            "offset": 0,
            "slot": "0",
            "type": "t_contract(IERC20)857"
          },
          {
            "astId": 544,
            "contract": "contracts/standalone/celo/FlexpoolFactory.sol:FlexpoolFactory",
            "label": "lastPaid",
            "offset": 0,
            "slot": "1",
            "type": "t_address"
          },
          {
            "astId": 546,
            "contract": "contracts/standalone/celo/FlexpoolFactory.sol:FlexpoolFactory",
            "label": "safe",
            "offset": 0,
            "slot": "2",
            "type": "t_address"
          },
          {
            "astId": 548,
            "contract": "contracts/standalone/celo/FlexpoolFactory.sol:FlexpoolFactory",
            "label": "admin",
            "offset": 0,
            "slot": "3",
            "type": "t_address"
          }
        ],
        "numberOfBytes": "128"
      },
      "t_struct(Analytics)662_storage": {
        "encoding": "inplace",
        "label": "struct Common.Analytics",
        "members": [
          {
            "astId": 655,
            "contract": "contracts/standalone/celo/FlexpoolFactory.sol:FlexpoolFactory",
            "label": "tvlCollateral",
            "offset": 0,
            "slot": "0",
            "type": "t_uint256"
          },
          {
            "astId": 657,
            "contract": "contracts/standalone/celo/FlexpoolFactory.sol:FlexpoolFactory",
            "label": "tvlBase",
            "offset": 0,
            "slot": "1",
            "type": "t_uint256"
          },
          {
            "astId": 659,
            "contract": "contracts/standalone/celo/FlexpoolFactory.sol:FlexpoolFactory",
            "label": "totalPermissioned",
            "offset": 0,
            "slot": "2",
            "type": "t_uint256"
          },
          {
            "astId": 661,
            "contract": "contracts/standalone/celo/FlexpoolFactory.sol:FlexpoolFactory",
            "label": "totalPermissionless",
            "offset": 0,
            "slot": "3",
            "type": "t_uint256"
          }
        ],
        "numberOfBytes": "128"
      },
      "t_struct(Big)524_storage": {
        "encoding": "inplace",
        "label": "struct Common.Big",
        "members": [
          {
            "astId": 517,
            "contract": "contracts/standalone/celo/FlexpoolFactory.sol:FlexpoolFactory",
            "label": "unit",
            "offset": 0,
            "slot": "0",
            "type": "t_uint256"
          },
          {
            "astId": 519,
            "contract": "contracts/standalone/celo/FlexpoolFactory.sol:FlexpoolFactory",
            "label": "currentPool",
            "offset": 0,
            "slot": "1",
            "type": "t_uint256"
          },
          {
            "astId": 521,
            "contract": "contracts/standalone/celo/FlexpoolFactory.sol:FlexpoolFactory",
            "label": "recordId",
            "offset": 0,
            "slot": "2",
            "type": "t_uint96"
          },
          {
            "astId": 523,
            "contract": "contracts/standalone/celo/FlexpoolFactory.sol:FlexpoolFactory",
            "label": "unitId",
            "offset": 12,
            "slot": "2",
            "type": "t_uint96"
          }
        ],
        "numberOfBytes": "96"
      },
      "t_struct(Contributor)565_storage": {
        "encoding": "inplace",
        "label": "struct Common.Contributor",
        "members": [
          {
            "astId": 552,
            "contract": "contracts/standalone/celo/FlexpoolFactory.sol:FlexpoolFactory",
            "label": "paybackTime",
            "offset": 0,
            "slot": "0",
            "type": "t_uint32"
          },
          {
            "astId": 554,
            "contract": "contracts/standalone/celo/FlexpoolFactory.sol:FlexpoolFactory",
            "label": "turnStartTime",
            "offset": 4,
            "slot": "0",
            "type": "t_uint32"
          },
          {
            "astId": 556,
            "contract": "contracts/standalone/celo/FlexpoolFactory.sol:FlexpoolFactory",
            "label": "getFinanceTime",
            "offset": 8,
            "slot": "0",
            "type": "t_uint32"
          },
          {
            "astId": 558,
            "contract": "contracts/standalone/celo/FlexpoolFactory.sol:FlexpoolFactory",
            "label": "loan",
            "offset": 0,
            "slot": "1",
            "type": "t_uint256"
          },
          {
            "astId": 560,
            "contract": "contracts/standalone/celo/FlexpoolFactory.sol:FlexpoolFactory",
            "label": "colBals",
            "offset": 0,
            "slot": "2",
            "type": "t_uint256"
          },
          {
            "astId": 562,
            "contract": "contracts/standalone/celo/FlexpoolFactory.sol:FlexpoolFactory",
            "label": "id",
            "offset": 0,
            "slot": "3",
            "type": "t_address"
          },
          {
            "astId": 564,
            "contract": "contracts/standalone/celo/FlexpoolFactory.sol:FlexpoolFactory",
            "label": "sentQuota",
            "offset": 20,
            "slot": "3",
            "type": "t_bool"
          }
        ],
        "numberOfBytes": "128"
      },
      "t_struct(Counter)362_storage": {
        "encoding": "inplace",
        "label": "struct Counters.Counter",
        "members": [
          {
            "astId": 361,
            "contract": "contracts/standalone/celo/FlexpoolFactory.sol:FlexpoolFactory",
            "label": "_value",
            "offset": 0,
            "slot": "0",
            "type": "t_uint256"
          }
        ],
        "numberOfBytes": "32"
      },
      "t_struct(Interest)538_storage": {
        "encoding": "inplace",
        "label": "struct Common.Interest",
        "members": [
          {
            "astId": 535,
            "contract": "contracts/standalone/celo/FlexpoolFactory.sol:FlexpoolFactory",
            "label": "fullInterest",
            "offset": 0,
            "slot": "0",
            "type": "t_uint256"
          },
          {
            "astId": 537,
            "contract": "contracts/standalone/celo/FlexpoolFactory.sol:FlexpoolFactory",
            "label": "intPerSec",
            "offset": 0,
            "slot": "1",
            "type": "t_uint256"
          }
        ],
        "numberOfBytes": "64"
      },
      "t_struct(Low)515_storage": {
        "encoding": "inplace",
        "label": "struct Common.Low",
        "members": [
          {
            "astId": 504,
            "contract": "contracts/standalone/celo/FlexpoolFactory.sol:FlexpoolFactory",
            "label": "maxQuorum",
            "offset": 0,
            "slot": "0",
            "type": "t_uint8"
          },
          {
            "astId": 506,
            "contract": "contracts/standalone/celo/FlexpoolFactory.sol:FlexpoolFactory",
            "label": "selector",
            "offset": 1,
            "slot": "0",
            "type": "t_uint8"
          },
          {
            "astId": 508,
            "contract": "contracts/standalone/celo/FlexpoolFactory.sol:FlexpoolFactory",
            "label": "colCoverage",
            "offset": 2,
            "slot": "0",
            "type": "t_uint24"
          },
          {
            "astId": 510,
            "contract": "contracts/standalone/celo/FlexpoolFactory.sol:FlexpoolFactory",
            "label": "duration",
            "offset": 5,
            "slot": "0",
            "type": "t_uint32"
          },
          {
            "astId": 512,
            "contract": "contracts/standalone/celo/FlexpoolFactory.sol:FlexpoolFactory",
            "label": "allGh",
            "offset": 9,
            "slot": "0",
            "type": "t_uint8"
          },
          {
            "astId": 514,
            "contract": "contracts/standalone/celo/FlexpoolFactory.sol:FlexpoolFactory",
            "label": "userCount",
            "offset": 10,
            "slot": "0",
            "type": "t_uint8"
          }
        ],
        "numberOfBytes": "32"
      },
      "t_struct(Pool)502_storage": {
        "encoding": "inplace",
        "label": "struct Common.Pool",
        "members": [
          {
            "astId": 486,
            "contract": "contracts/standalone/celo/FlexpoolFactory.sol:FlexpoolFactory",
            "label": "low",
            "offset": 0,
            "slot": "0",
            "type": "t_struct(Low)515_storage"
          },
          {
            "astId": 489,
            "contract": "contracts/standalone/celo/FlexpoolFactory.sol:FlexpoolFactory",
            "label": "big",
            "offset": 0,
            "slot": "1",
            "type": "t_struct(Big)524_storage"
          },
          {
            "astId": 492,
            "contract": "contracts/standalone/celo/FlexpoolFactory.sol:FlexpoolFactory",
            "label": "addrs",
            "offset": 0,
            "slot": "4",
            "type": "t_struct(Addresses)549_storage"
          },
          {
            "astId": 495,
            "contract": "contracts/standalone/celo/FlexpoolFactory.sol:FlexpoolFactory",
            "label": "router",
            "offset": 0,
            "slot": "8",
            "type": "t_enum(Router)483"
          },
          {
            "astId": 498,
            "contract": "contracts/standalone/celo/FlexpoolFactory.sol:FlexpoolFactory",
            "label": "stage",
            "offset": 1,
            "slot": "8",
            "type": "t_enum(Stage)474"
          },
          {
            "astId": 501,
            "contract": "contracts/standalone/celo/FlexpoolFactory.sol:FlexpoolFactory",
            "label": "status",
            "offset": 2,
            "slot": "8",
            "type": "t_enum(Status)477"
          }
        ],
        "numberOfBytes": "288"
      },
      "t_struct(Provider)584_storage": {
        "encoding": "inplace",
        "label": "struct Common.Provider",
        "members": [
          {
            "astId": 572,
            "contract": "contracts/standalone/celo/FlexpoolFactory.sol:FlexpoolFactory",
            "label": "slot",
            "offset": 0,
            "slot": "0",
            "type": "t_uint256"
          },
          {
            "astId": 574,
            "contract": "contracts/standalone/celo/FlexpoolFactory.sol:FlexpoolFactory",
            "label": "amount",
            "offset": 0,
            "slot": "1",
            "type": "t_uint256"
          },
          {
            "astId": 576,
            "contract": "contracts/standalone/celo/FlexpoolFactory.sol:FlexpoolFactory",
            "label": "rate",
            "offset": 0,
            "slot": "2",
            "type": "t_uint256"
          },
          {
            "astId": 578,
            "contract": "contracts/standalone/celo/FlexpoolFactory.sol:FlexpoolFactory",
            "label": "earnStartDate",
            "offset": 0,
            "slot": "3",
            "type": "t_uint256"
          },
          {
            "astId": 580,
            "contract": "contracts/standalone/celo/FlexpoolFactory.sol:FlexpoolFactory",
            "label": "account",
            "offset": 0,
            "slot": "4",
            "type": "t_address"
          },
          {
            "astId": 583,
            "contract": "contracts/standalone/celo/FlexpoolFactory.sol:FlexpoolFactory",
            "label": "accruals",
            "offset": 0,
            "slot": "5",
            "type": "t_struct(Interest)538_storage"
          }
        ],
        "numberOfBytes": "224"
      },
      "t_struct(Slot)616_storage": {
        "encoding": "inplace",
        "label": "struct Common.Slot",
        "members": [
          {
            "astId": 611,
            "contract": "contracts/standalone/celo/FlexpoolFactory.sol:FlexpoolFactory",
            "label": "value",
            "offset": 0,
            "slot": "0",
            "type": "t_uint256"
          },
          {
            "astId": 613,
            "contract": "contracts/standalone/celo/FlexpoolFactory.sol:FlexpoolFactory",
            "label": "isMember",
            "offset": 0,
            "slot": "1",
            "type": "t_bool"
          },
          {
            "astId": 615,
            "contract": "contracts/standalone/celo/FlexpoolFactory.sol:FlexpoolFactory",
            "label": "isAdmin",
            "offset": 1,
            "slot": "1",
            "type": "t_bool"
          }
        ],
        "numberOfBytes": "64"
      },
      "t_uint24": {
        "encoding": "inplace",
        "label": "uint24",
        "numberOfBytes": "3"
      },
      "t_uint256": {
        "encoding": "inplace",
        "label": "uint256",
        "numberOfBytes": "32"
      },
      "t_uint32": {
        "encoding": "inplace",
        "label": "uint32",
        "numberOfBytes": "4"
      },
      "t_uint8": {
        "encoding": "inplace",
        "label": "uint8",
        "numberOfBytes": "1"
      },
      "t_uint96": {
        "encoding": "inplace",
        "label": "uint96",
        "numberOfBytes": "12"
      }
    }
  }
}