{
  "address": "0x39bD775C6488Cc27897D4f5A215E6D6569c3ddf1",
  "abi": [
    {
      "inputs": [
        {
          "internalType": "address",
          "name": "_feeTo",
          "type": "address"
        },
        {
          "internalType": "uint16",
          "name": "_makerRate",
          "type": "uint16"
        },
        {
          "internalType": "address",
          "name": "_diaOracleAddress",
          "type": "address"
        },
        {
          "internalType": "contract IRoleBase",
          "name": "_roleManager",
          "type": "address"
        },
        {
          "internalType": "contract ISupportedAsset",
          "name": "_assetManager",
          "type": "address"
        },
        {
          "internalType": "contract IERC20",
          "name": "_baseAsset",
          "type": "address"
        },
        {
          "internalType": "contract IPoint",
          "name": "_pointFactory",
          "type": "address"
        },
        {
          "internalType": "contract ISafeFactory",
          "name": "_safeFactory",
          "type": "address"
        }
      ],
      "stateMutability": "nonpayable",
      "type": "constructor"
    },
    {
      "inputs": [],
      "name": "EnforcedPause",
      "type": "error"
    },
    {
      "inputs": [
        {
          "internalType": "string",
          "name": "errorMsg",
          "type": "string"
        }
      ],
      "name": "ErrorOccurred",
      "type": "error"
    },
    {
      "inputs": [],
      "name": "ExpectedPause",
      "type": "error"
    },
    {
      "anonymous": false,
      "inputs": [
        {
          "indexed": false,
          "internalType": "uint256",
          "name": "unit",
          "type": "uint256"
        }
      ],
      "name": "Cancellation",
      "type": "event"
    },
    {
      "anonymous": false,
      "inputs": [
        {
          "components": [
            {
              "components": [
                {
                  "internalType": "uint8",
                  "name": "maxQuorum",
                  "type": "uint8"
                },
                {
                  "internalType": "uint8",
                  "name": "selector",
                  "type": "uint8"
                },
                {
                  "internalType": "uint24",
                  "name": "colCoverage",
                  "type": "uint24"
                },
                {
                  "internalType": "uint32",
                  "name": "duration",
                  "type": "uint32"
                },
                {
                  "internalType": "uint8",
                  "name": "allGh",
                  "type": "uint8"
                },
                {
                  "internalType": "uint8",
                  "name": "userCount",
                  "type": "uint8"
                }
              ],
              "internalType": "struct Common.Low",
              "name": "low",
              "type": "tuple"
            },
            {
              "components": [
                {
                  "internalType": "uint256",
                  "name": "unit",
                  "type": "uint256"
                },
                {
                  "internalType": "uint256",
                  "name": "currentPool",
                  "type": "uint256"
                },
                {
                  "internalType": "uint96",
                  "name": "recordId",
                  "type": "uint96"
                },
                {
                  "internalType": "uint96",
                  "name": "unitId",
                  "type": "uint96"
                }
              ],
              "internalType": "struct Common.Big",
              "name": "big",
              "type": "tuple"
            },
            {
              "components": [
                {
                  "internalType": "contract IERC20",
                  "name": "colAsset",
                  "type": "address"
                },
                {
                  "internalType": "address",
                  "name": "lastPaid",
                  "type": "address"
                },
                {
                  "internalType": "address",
                  "name": "safe",
                  "type": "address"
                },
                {
                  "internalType": "address",
                  "name": "admin",
                  "type": "address"
                }
              ],
              "internalType": "struct Common.Addresses",
              "name": "addrs",
              "type": "tuple"
            },
            {
              "internalType": "enum Common.Router",
              "name": "router",
              "type": "uint8"
            },
            {
              "internalType": "enum Common.Stage",
              "name": "stage",
              "type": "uint8"
            },
            {
              "internalType": "enum Common.Status",
              "name": "status",
              "type": "uint8"
            }
          ],
          "indexed": false,
          "internalType": "struct Common.Pool",
          "name": "",
          "type": "tuple"
        }
      ],
      "name": "GetFinanced",
      "type": "event"
    },
    {
      "anonymous": false,
      "inputs": [
        {
          "components": [
            {
              "components": [
                {
                  "internalType": "uint8",
                  "name": "maxQuorum",
                  "type": "uint8"
                },
                {
                  "internalType": "uint8",
                  "name": "selector",
                  "type": "uint8"
                },
                {
                  "internalType": "uint24",
                  "name": "colCoverage",
                  "type": "uint24"
                },
                {
                  "internalType": "uint32",
                  "name": "duration",
                  "type": "uint32"
                },
                {
                  "internalType": "uint8",
                  "name": "allGh",
                  "type": "uint8"
                },
                {
                  "internalType": "uint8",
                  "name": "userCount",
                  "type": "uint8"
                }
              ],
              "internalType": "struct Common.Low",
              "name": "low",
              "type": "tuple"
            },
            {
              "components": [
                {
                  "internalType": "uint256",
                  "name": "unit",
                  "type": "uint256"
                },
                {
                  "internalType": "uint256",
                  "name": "currentPool",
                  "type": "uint256"
                },
                {
                  "internalType": "uint96",
                  "name": "recordId",
                  "type": "uint96"
                },
                {
                  "internalType": "uint96",
                  "name": "unitId",
                  "type": "uint96"
                }
              ],
              "internalType": "struct Common.Big",
              "name": "big",
              "type": "tuple"
            },
            {
              "components": [
                {
                  "internalType": "contract IERC20",
                  "name": "colAsset",
                  "type": "address"
                },
                {
                  "internalType": "address",
                  "name": "lastPaid",
                  "type": "address"
                },
                {
                  "internalType": "address",
                  "name": "safe",
                  "type": "address"
                },
                {
                  "internalType": "address",
                  "name": "admin",
                  "type": "address"
                }
              ],
              "internalType": "struct Common.Addresses",
              "name": "addrs",
              "type": "tuple"
            },
            {
              "internalType": "enum Common.Router",
              "name": "router",
              "type": "uint8"
            },
            {
              "internalType": "enum Common.Stage",
              "name": "stage",
              "type": "uint8"
            },
            {
              "internalType": "enum Common.Status",
              "name": "status",
              "type": "uint8"
            }
          ],
          "indexed": false,
          "internalType": "struct Common.Pool",
          "name": "",
          "type": "tuple"
        }
      ],
      "name": "Liquidated",
      "type": "event"
    },
    {
      "anonymous": false,
      "inputs": [
        {
          "components": [
            {
              "components": [
                {
                  "internalType": "uint8",
                  "name": "maxQuorum",
                  "type": "uint8"
                },
                {
                  "internalType": "uint8",
                  "name": "selector",
                  "type": "uint8"
                },
                {
                  "internalType": "uint24",
                  "name": "colCoverage",
                  "type": "uint24"
                },
                {
                  "internalType": "uint32",
                  "name": "duration",
                  "type": "uint32"
                },
                {
                  "internalType": "uint8",
                  "name": "allGh",
                  "type": "uint8"
                },
                {
                  "internalType": "uint8",
                  "name": "userCount",
                  "type": "uint8"
                }
              ],
              "internalType": "struct Common.Low",
              "name": "low",
              "type": "tuple"
            },
            {
              "components": [
                {
                  "internalType": "uint256",
                  "name": "unit",
                  "type": "uint256"
                },
                {
                  "internalType": "uint256",
                  "name": "currentPool",
                  "type": "uint256"
                },
                {
                  "internalType": "uint96",
                  "name": "recordId",
                  "type": "uint96"
                },
                {
                  "internalType": "uint96",
                  "name": "unitId",
                  "type": "uint96"
                }
              ],
              "internalType": "struct Common.Big",
              "name": "big",
              "type": "tuple"
            },
            {
              "components": [
                {
                  "internalType": "contract IERC20",
                  "name": "colAsset",
                  "type": "address"
                },
                {
                  "internalType": "address",
                  "name": "lastPaid",
                  "type": "address"
                },
                {
                  "internalType": "address",
                  "name": "safe",
                  "type": "address"
                },
                {
                  "internalType": "address",
                  "name": "admin",
                  "type": "address"
                }
              ],
              "internalType": "struct Common.Addresses",
              "name": "addrs",
              "type": "tuple"
            },
            {
              "internalType": "enum Common.Router",
              "name": "router",
              "type": "uint8"
            },
            {
              "internalType": "enum Common.Stage",
              "name": "stage",
              "type": "uint8"
            },
            {
              "internalType": "enum Common.Status",
              "name": "status",
              "type": "uint8"
            }
          ],
          "indexed": false,
          "internalType": "struct Common.Pool",
          "name": "",
          "type": "tuple"
        }
      ],
      "name": "NewContributorAdded",
      "type": "event"
    },
    {
      "anonymous": false,
      "inputs": [
        {
          "indexed": false,
          "internalType": "address",
          "name": "account",
          "type": "address"
        }
      ],
      "name": "Paused",
      "type": "event"
    },
    {
      "anonymous": false,
      "inputs": [
        {
          "components": [
            {
              "components": [
                {
                  "internalType": "uint8",
                  "name": "maxQuorum",
                  "type": "uint8"
                },
                {
                  "internalType": "uint8",
                  "name": "selector",
                  "type": "uint8"
                },
                {
                  "internalType": "uint24",
                  "name": "colCoverage",
                  "type": "uint24"
                },
                {
                  "internalType": "uint32",
                  "name": "duration",
                  "type": "uint32"
                },
                {
                  "internalType": "uint8",
                  "name": "allGh",
                  "type": "uint8"
                },
                {
                  "internalType": "uint8",
                  "name": "userCount",
                  "type": "uint8"
                }
              ],
              "internalType": "struct Common.Low",
              "name": "low",
              "type": "tuple"
            },
            {
              "components": [
                {
                  "internalType": "uint256",
                  "name": "unit",
                  "type": "uint256"
                },
                {
                  "internalType": "uint256",
                  "name": "currentPool",
                  "type": "uint256"
                },
                {
                  "internalType": "uint96",
                  "name": "recordId",
                  "type": "uint96"
                },
                {
                  "internalType": "uint96",
                  "name": "unitId",
                  "type": "uint96"
                }
              ],
              "internalType": "struct Common.Big",
              "name": "big",
              "type": "tuple"
            },
            {
              "components": [
                {
                  "internalType": "contract IERC20",
                  "name": "colAsset",
                  "type": "address"
                },
                {
                  "internalType": "address",
                  "name": "lastPaid",
                  "type": "address"
                },
                {
                  "internalType": "address",
                  "name": "safe",
                  "type": "address"
                },
                {
                  "internalType": "address",
                  "name": "admin",
                  "type": "address"
                }
              ],
              "internalType": "struct Common.Addresses",
              "name": "addrs",
              "type": "tuple"
            },
            {
              "internalType": "enum Common.Router",
              "name": "router",
              "type": "uint8"
            },
            {
              "internalType": "enum Common.Stage",
              "name": "stage",
              "type": "uint8"
            },
            {
              "internalType": "enum Common.Status",
              "name": "status",
              "type": "uint8"
            }
          ],
          "indexed": false,
          "internalType": "struct Common.Pool",
          "name": "",
          "type": "tuple"
        }
      ],
      "name": "Payback",
      "type": "event"
    },
    {
      "anonymous": false,
      "inputs": [
        {
          "components": [
            {
              "components": [
                {
                  "internalType": "uint8",
                  "name": "maxQuorum",
                  "type": "uint8"
                },
                {
                  "internalType": "uint8",
                  "name": "selector",
                  "type": "uint8"
                },
                {
                  "internalType": "uint24",
                  "name": "colCoverage",
                  "type": "uint24"
                },
                {
                  "internalType": "uint32",
                  "name": "duration",
                  "type": "uint32"
                },
                {
                  "internalType": "uint8",
                  "name": "allGh",
                  "type": "uint8"
                },
                {
                  "internalType": "uint8",
                  "name": "userCount",
                  "type": "uint8"
                }
              ],
              "internalType": "struct Common.Low",
              "name": "low",
              "type": "tuple"
            },
            {
              "components": [
                {
                  "internalType": "uint256",
                  "name": "unit",
                  "type": "uint256"
                },
                {
                  "internalType": "uint256",
                  "name": "currentPool",
                  "type": "uint256"
                },
                {
                  "internalType": "uint96",
                  "name": "recordId",
                  "type": "uint96"
                },
                {
                  "internalType": "uint96",
                  "name": "unitId",
                  "type": "uint96"
                }
              ],
              "internalType": "struct Common.Big",
              "name": "big",
              "type": "tuple"
            },
            {
              "components": [
                {
                  "internalType": "contract IERC20",
                  "name": "colAsset",
                  "type": "address"
                },
                {
                  "internalType": "address",
                  "name": "lastPaid",
                  "type": "address"
                },
                {
                  "internalType": "address",
                  "name": "safe",
                  "type": "address"
                },
                {
                  "internalType": "address",
                  "name": "admin",
                  "type": "address"
                }
              ],
              "internalType": "struct Common.Addresses",
              "name": "addrs",
              "type": "tuple"
            },
            {
              "internalType": "enum Common.Router",
              "name": "router",
              "type": "uint8"
            },
            {
              "internalType": "enum Common.Stage",
              "name": "stage",
              "type": "uint8"
            },
            {
              "internalType": "enum Common.Status",
              "name": "status",
              "type": "uint8"
            }
          ],
          "indexed": false,
          "internalType": "struct Common.Pool",
          "name": "",
          "type": "tuple"
        }
      ],
      "name": "PoolCreated",
      "type": "event"
    },
    {
      "anonymous": false,
      "inputs": [
        {
          "components": [
            {
              "components": [
                {
                  "internalType": "uint8",
                  "name": "maxQuorum",
                  "type": "uint8"
                },
                {
                  "internalType": "uint8",
                  "name": "selector",
                  "type": "uint8"
                },
                {
                  "internalType": "uint24",
                  "name": "colCoverage",
                  "type": "uint24"
                },
                {
                  "internalType": "uint32",
                  "name": "duration",
                  "type": "uint32"
                },
                {
                  "internalType": "uint8",
                  "name": "allGh",
                  "type": "uint8"
                },
                {
                  "internalType": "uint8",
                  "name": "userCount",
                  "type": "uint8"
                }
              ],
              "internalType": "struct Common.Low",
              "name": "low",
              "type": "tuple"
            },
            {
              "components": [
                {
                  "internalType": "uint256",
                  "name": "unit",
                  "type": "uint256"
                },
                {
                  "internalType": "uint256",
                  "name": "currentPool",
                  "type": "uint256"
                },
                {
                  "internalType": "uint96",
                  "name": "recordId",
                  "type": "uint96"
                },
                {
                  "internalType": "uint96",
                  "name": "unitId",
                  "type": "uint96"
                }
              ],
              "internalType": "struct Common.Big",
              "name": "big",
              "type": "tuple"
            },
            {
              "components": [
                {
                  "internalType": "contract IERC20",
                  "name": "colAsset",
                  "type": "address"
                },
                {
                  "internalType": "address",
                  "name": "lastPaid",
                  "type": "address"
                },
                {
                  "internalType": "address",
                  "name": "safe",
                  "type": "address"
                },
                {
                  "internalType": "address",
                  "name": "admin",
                  "type": "address"
                }
              ],
              "internalType": "struct Common.Addresses",
              "name": "addrs",
              "type": "tuple"
            },
            {
              "internalType": "enum Common.Router",
              "name": "router",
              "type": "uint8"
            },
            {
              "internalType": "enum Common.Stage",
              "name": "stage",
              "type": "uint8"
            },
            {
              "internalType": "enum Common.Status",
              "name": "status",
              "type": "uint8"
            }
          ],
          "indexed": false,
          "internalType": "struct Common.Pool",
          "name": "",
          "type": "tuple"
        }
      ],
      "name": "PoolEdited",
      "type": "event"
    },
    {
      "anonymous": false,
      "inputs": [
        {
          "indexed": false,
          "internalType": "address",
          "name": "account",
          "type": "address"
        }
      ],
      "name": "Unpaused",
      "type": "event"
    },
    {
      "inputs": [],
      "name": "activateReward",
      "outputs": [
        {
          "internalType": "bool",
          "name": "",
          "type": "bool"
        }
      ],
      "stateMutability": "nonpayable",
      "type": "function"
    },
    {
      "inputs": [],
      "name": "analytics",
      "outputs": [
        {
          "internalType": "uint256",
          "name": "tvlCollateral",
          "type": "uint256"
        },
        {
          "internalType": "uint256",
          "name": "tvlBase",
          "type": "uint256"
        },
        {
          "internalType": "uint256",
          "name": "totalPermissioned",
          "type": "uint256"
        },
        {
          "internalType": "uint256",
          "name": "totalPermissionless",
          "type": "uint256"
        }
      ],
      "stateMutability": "view",
      "type": "function"
    },
    {
      "inputs": [],
      "name": "assetManager",
      "outputs": [
        {
          "internalType": "contract ISupportedAsset",
          "name": "",
          "type": "address"
        }
      ],
      "stateMutability": "view",
      "type": "function"
    },
    {
      "inputs": [],
      "name": "awardPoint",
      "outputs": [
        {
          "internalType": "bool",
          "name": "",
          "type": "bool"
        }
      ],
      "stateMutability": "view",
      "type": "function"
    },
    {
      "inputs": [],
      "name": "baseAsset",
      "outputs": [
        {
          "internalType": "contract IERC20",
          "name": "",
          "type": "address"
        }
      ],
      "stateMutability": "view",
      "type": "function"
    },
    {
      "inputs": [
        {
          "internalType": "uint256",
          "name": "unit",
          "type": "uint256"
        }
      ],
      "name": "closePool",
      "outputs": [
        {
          "internalType": "bool",
          "name": "",
          "type": "bool"
        }
      ],
      "stateMutability": "nonpayable",
      "type": "function"
    },
    {
      "inputs": [
        {
          "internalType": "uint256",
          "name": "unit",
          "type": "uint256"
        }
      ],
      "name": "contribute",
      "outputs": [
        {
          "internalType": "bool",
          "name": "",
          "type": "bool"
        }
      ],
      "stateMutability": "nonpayable",
      "type": "function"
    },
    {
      "inputs": [
        {
          "components": [
            {
              "internalType": "uint256",
              "name": "slot",
              "type": "uint256"
            },
            {
              "internalType": "uint256",
              "name": "amount",
              "type": "uint256"
            },
            {
              "internalType": "uint256",
              "name": "rate",
              "type": "uint256"
            },
            {
              "internalType": "uint256",
              "name": "earnStartDate",
              "type": "uint256"
            },
            {
              "internalType": "address",
              "name": "account",
              "type": "address"
            },
            {
              "components": [
                {
                  "internalType": "uint256",
                  "name": "fullInterest",
                  "type": "uint256"
                },
                {
                  "internalType": "uint256",
                  "name": "intPerSec",
                  "type": "uint256"
                }
              ],
              "internalType": "struct Common.Interest",
              "name": "accruals",
              "type": "tuple"
            }
          ],
          "internalType": "struct Common.Provider[]",
          "name": "providers",
          "type": "tuple[]"
        },
        {
          "internalType": "address",
          "name": "borrower",
          "type": "address"
        },
        {
          "internalType": "uint256",
          "name": "unit",
          "type": "uint256"
        }
      ],
      "name": "contributeThroughProvider",
      "outputs": [
        {
          "internalType": "bool",
          "name": "",
          "type": "bool"
        }
      ],
      "stateMutability": "nonpayable",
      "type": "function"
    },
    {
      "inputs": [
        {
          "internalType": "address[]",
          "name": "users",
          "type": "address[]"
        },
        {
          "internalType": "uint256",
          "name": "unit",
          "type": "uint256"
        },
        {
          "internalType": "uint8",
          "name": "maxQuorum",
          "type": "uint8"
        },
        {
          "internalType": "uint16",
          "name": "durationInHours",
          "type": "uint16"
        },
        {
          "internalType": "uint24",
          "name": "colCoverage",
          "type": "uint24"
        },
        {
          "internalType": "bool",
          "name": "isPermissionless",
          "type": "bool"
        },
        {
          "internalType": "contract IERC20",
          "name": "colAsset",
          "type": "address"
        }
      ],
      "name": "createPool",
      "outputs": [
        {
          "internalType": "bool",
          "name": "",
          "type": "bool"
        }
      ],
      "stateMutability": "nonpayable",
      "type": "function"
    },
    {
      "inputs": [],
      "name": "deactivateReward",
      "outputs": [
        {
          "internalType": "bool",
          "name": "",
          "type": "bool"
        }
      ],
      "stateMutability": "nonpayable",
      "type": "function"
    },
    {
      "inputs": [],
      "name": "diaOracleAddress",
      "outputs": [
        {
          "internalType": "address",
          "name": "",
          "type": "address"
        }
      ],
      "stateMutability": "view",
      "type": "function"
    },
    {
      "inputs": [
        {
          "internalType": "uint256",
          "name": "unit",
          "type": "uint256"
        },
        {
          "internalType": "uint8",
          "name": "maxQuorum",
          "type": "uint8"
        },
        {
          "internalType": "uint16",
          "name": "durationInHours",
          "type": "uint16"
        },
        {
          "internalType": "uint24",
          "name": "colCoverage",
          "type": "uint24"
        }
      ],
      "name": "editPool",
      "outputs": [
        {
          "internalType": "bool",
          "name": "",
          "type": "bool"
        }
      ],
      "stateMutability": "nonpayable",
      "type": "function"
    },
    {
      "inputs": [
        {
          "internalType": "uint256",
          "name": "unit",
          "type": "uint256"
        }
      ],
      "name": "enquireLiquidation",
      "outputs": [
        {
          "components": [
            {
              "internalType": "uint32",
              "name": "paybackTime",
              "type": "uint32"
            },
            {
              "internalType": "uint32",
              "name": "turnStartTime",
              "type": "uint32"
            },
            {
              "internalType": "uint32",
              "name": "getFinanceTime",
              "type": "uint32"
            },
            {
              "internalType": "uint256",
              "name": "loan",
              "type": "uint256"
            },
            {
              "internalType": "uint256",
              "name": "colBals",
              "type": "uint256"
            },
            {
              "internalType": "address",
              "name": "id",
              "type": "address"
            },
            {
              "internalType": "bool",
              "name": "sentQuota",
              "type": "bool"
            }
          ],
          "internalType": "struct Common.Contributor",
          "name": "profile",
          "type": "tuple"
        },
        {
          "internalType": "bool",
          "name": "defaulter",
          "type": "bool"
        },
        {
          "components": [
            {
              "internalType": "uint256",
              "name": "value",
              "type": "uint256"
            },
            {
              "internalType": "bool",
              "name": "isMember",
              "type": "bool"
            },
            {
              "internalType": "bool",
              "name": "isAdmin",
              "type": "bool"
            }
          ],
          "internalType": "struct Common.Slot",
          "name": "slot",
          "type": "tuple"
        }
      ],
      "stateMutability": "view",
      "type": "function"
    },
    {
      "inputs": [],
      "name": "feeTo",
      "outputs": [
        {
          "internalType": "address",
          "name": "",
          "type": "address"
        }
      ],
      "stateMutability": "view",
      "type": "function"
    },
    {
      "inputs": [
        {
          "internalType": "uint256",
          "name": "unit",
          "type": "uint256"
        }
      ],
      "name": "getCollateralQuote",
      "outputs": [
        {
          "internalType": "uint256",
          "name": "collateral",
          "type": "uint256"
        },
        {
          "internalType": "uint24",
          "name": "colCoverage",
          "type": "uint24"
        }
      ],
      "stateMutability": "view",
      "type": "function"
    },
    {
      "inputs": [
        {
          "internalType": "address",
          "name": "target",
          "type": "address"
        },
        {
          "internalType": "uint96",
          "name": "recordId",
          "type": "uint96"
        }
      ],
      "name": "getContributorProviders",
      "outputs": [
        {
          "components": [
            {
              "internalType": "uint256",
              "name": "slot",
              "type": "uint256"
            },
            {
              "internalType": "uint256",
              "name": "amount",
              "type": "uint256"
            },
            {
              "internalType": "uint256",
              "name": "rate",
              "type": "uint256"
            },
            {
              "internalType": "uint256",
              "name": "earnStartDate",
              "type": "uint256"
            },
            {
              "internalType": "address",
              "name": "account",
              "type": "address"
            },
            {
              "components": [
                {
                  "internalType": "uint256",
                  "name": "fullInterest",
                  "type": "uint256"
                },
                {
                  "internalType": "uint256",
                  "name": "intPerSec",
                  "type": "uint256"
                }
              ],
              "internalType": "struct Common.Interest",
              "name": "accruals",
              "type": "tuple"
            }
          ],
          "internalType": "struct Common.Provider[]",
          "name": "result",
          "type": "tuple[]"
        }
      ],
      "stateMutability": "view",
      "type": "function"
    },
    {
      "inputs": [
        {
          "internalType": "uint256",
          "name": "unit",
          "type": "uint256"
        }
      ],
      "name": "getCurrentDebt",
      "outputs": [
        {
          "internalType": "uint256",
          "name": "debt",
          "type": "uint256"
        }
      ],
      "stateMutability": "view",
      "type": "function"
    },
    {
      "inputs": [],
      "name": "getEpoches",
      "outputs": [
        {
          "internalType": "uint96",
          "name": "",
          "type": "uint96"
        }
      ],
      "stateMutability": "view",
      "type": "function"
    },
    {
      "inputs": [],
      "name": "getFactoryData",
      "outputs": [
        {
          "components": [
            {
              "components": [
                {
                  "internalType": "uint256",
                  "name": "tvlCollateral",
                  "type": "uint256"
                },
                {
                  "internalType": "uint256",
                  "name": "tvlBase",
                  "type": "uint256"
                },
                {
                  "internalType": "uint256",
                  "name": "totalPermissioned",
                  "type": "uint256"
                },
                {
                  "internalType": "uint256",
                  "name": "totalPermissionless",
                  "type": "uint256"
                }
              ],
              "internalType": "struct Common.Analytics",
              "name": "analytics",
              "type": "tuple"
            },
            {
              "internalType": "uint16",
              "name": "makerRate",
              "type": "uint16"
            },
            {
              "internalType": "uint256",
              "name": "currentEpoches",
              "type": "uint256"
            },
            {
              "internalType": "uint256",
              "name": "recordEpoches",
              "type": "uint256"
            }
          ],
          "internalType": "struct Common.ViewFactoryData",
          "name": "data",
          "type": "tuple"
        }
      ],
      "stateMutability": "view",
      "type": "function"
    },
    {
      "inputs": [
        {
          "internalType": "uint256",
          "name": "unit",
          "type": "uint256"
        }
      ],
      "name": "getFinance",
      "outputs": [
        {
          "internalType": "bool",
          "name": "",
          "type": "bool"
        }
      ],
      "stateMutability": "nonpayable",
      "type": "function"
    },
    {
      "inputs": [],
      "name": "getPastEpoches",
      "outputs": [
        {
          "internalType": "uint96",
          "name": "",
          "type": "uint96"
        }
      ],
      "stateMutability": "view",
      "type": "function"
    },
    {
      "inputs": [
        {
          "internalType": "uint256",
          "name": "unit",
          "type": "uint256"
        }
      ],
      "name": "getPoolData",
      "outputs": [
        {
          "components": [
            {
              "components": [
                {
                  "components": [
                    {
                      "internalType": "uint8",
                      "name": "maxQuorum",
                      "type": "uint8"
                    },
                    {
                      "internalType": "uint8",
                      "name": "selector",
                      "type": "uint8"
                    },
                    {
                      "internalType": "uint24",
                      "name": "colCoverage",
                      "type": "uint24"
                    },
                    {
                      "internalType": "uint32",
                      "name": "duration",
                      "type": "uint32"
                    },
                    {
                      "internalType": "uint8",
                      "name": "allGh",
                      "type": "uint8"
                    },
                    {
                      "internalType": "uint8",
                      "name": "userCount",
                      "type": "uint8"
                    }
                  ],
                  "internalType": "struct Common.Low",
                  "name": "low",
                  "type": "tuple"
                },
                {
                  "components": [
                    {
                      "internalType": "uint256",
                      "name": "unit",
                      "type": "uint256"
                    },
                    {
                      "internalType": "uint256",
                      "name": "currentPool",
                      "type": "uint256"
                    },
                    {
                      "internalType": "uint96",
                      "name": "recordId",
                      "type": "uint96"
                    },
                    {
                      "internalType": "uint96",
                      "name": "unitId",
                      "type": "uint96"
                    }
                  ],
                  "internalType": "struct Common.Big",
                  "name": "big",
                  "type": "tuple"
                },
                {
                  "components": [
                    {
                      "internalType": "contract IERC20",
                      "name": "colAsset",
                      "type": "address"
                    },
                    {
                      "internalType": "address",
                      "name": "lastPaid",
                      "type": "address"
                    },
                    {
                      "internalType": "address",
                      "name": "safe",
                      "type": "address"
                    },
                    {
                      "internalType": "address",
                      "name": "admin",
                      "type": "address"
                    }
                  ],
                  "internalType": "struct Common.Addresses",
                  "name": "addrs",
                  "type": "tuple"
                },
                {
                  "internalType": "enum Common.Router",
                  "name": "router",
                  "type": "uint8"
                },
                {
                  "internalType": "enum Common.Stage",
                  "name": "stage",
                  "type": "uint8"
                },
                {
                  "internalType": "enum Common.Status",
                  "name": "status",
                  "type": "uint8"
                }
              ],
              "internalType": "struct Common.Pool",
              "name": "pool",
              "type": "tuple"
            },
            {
              "components": [
                {
                  "components": [
                    {
                      "internalType": "uint32",
                      "name": "paybackTime",
                      "type": "uint32"
                    },
                    {
                      "internalType": "uint32",
                      "name": "turnStartTime",
                      "type": "uint32"
                    },
                    {
                      "internalType": "uint32",
                      "name": "getFinanceTime",
                      "type": "uint32"
                    },
                    {
                      "internalType": "uint256",
                      "name": "loan",
                      "type": "uint256"
                    },
                    {
                      "internalType": "uint256",
                      "name": "colBals",
                      "type": "uint256"
                    },
                    {
                      "internalType": "address",
                      "name": "id",
                      "type": "address"
                    },
                    {
                      "internalType": "bool",
                      "name": "sentQuota",
                      "type": "bool"
                    }
                  ],
                  "internalType": "struct Common.Contributor",
                  "name": "profile",
                  "type": "tuple"
                },
                {
                  "components": [
                    {
                      "internalType": "uint256",
                      "name": "value",
                      "type": "uint256"
                    },
                    {
                      "internalType": "bool",
                      "name": "isMember",
                      "type": "bool"
                    },
                    {
                      "internalType": "bool",
                      "name": "isAdmin",
                      "type": "bool"
                    }
                  ],
                  "internalType": "struct Common.Slot",
                  "name": "slot",
                  "type": "tuple"
                },
                {
                  "components": [
                    {
                      "internalType": "uint256",
                      "name": "slot",
                      "type": "uint256"
                    },
                    {
                      "internalType": "uint256",
                      "name": "amount",
                      "type": "uint256"
                    },
                    {
                      "internalType": "uint256",
                      "name": "rate",
                      "type": "uint256"
                    },
                    {
                      "internalType": "uint256",
                      "name": "earnStartDate",
                      "type": "uint256"
                    },
                    {
                      "internalType": "address",
                      "name": "account",
                      "type": "address"
                    },
                    {
                      "components": [
                        {
                          "internalType": "uint256",
                          "name": "fullInterest",
                          "type": "uint256"
                        },
                        {
                          "internalType": "uint256",
                          "name": "intPerSec",
                          "type": "uint256"
                        }
                      ],
                      "internalType": "struct Common.Interest",
                      "name": "accruals",
                      "type": "tuple"
                    }
                  ],
                  "internalType": "struct Common.Provider[]",
                  "name": "providers",
                  "type": "tuple[]"
                }
              ],
              "internalType": "struct Common.ContributorReturnValue[]",
              "name": "cData",
              "type": "tuple[]"
            }
          ],
          "internalType": "struct Common.ReadPoolDataReturnValue",
          "name": "result",
          "type": "tuple"
        }
      ],
      "stateMutability": "view",
      "type": "function"
    },
    {
      "inputs": [
        {
          "internalType": "uint96",
          "name": "recordId",
          "type": "uint96"
        }
      ],
      "name": "getPoolRecord",
      "outputs": [
        {
          "components": [
            {
              "components": [
                {
                  "components": [
                    {
                      "internalType": "uint8",
                      "name": "maxQuorum",
                      "type": "uint8"
                    },
                    {
                      "internalType": "uint8",
                      "name": "selector",
                      "type": "uint8"
                    },
                    {
                      "internalType": "uint24",
                      "name": "colCoverage",
                      "type": "uint24"
                    },
                    {
                      "internalType": "uint32",
                      "name": "duration",
                      "type": "uint32"
                    },
                    {
                      "internalType": "uint8",
                      "name": "allGh",
                      "type": "uint8"
                    },
                    {
                      "internalType": "uint8",
                      "name": "userCount",
                      "type": "uint8"
                    }
                  ],
                  "internalType": "struct Common.Low",
                  "name": "low",
                  "type": "tuple"
                },
                {
                  "components": [
                    {
                      "internalType": "uint256",
                      "name": "unit",
                      "type": "uint256"
                    },
                    {
                      "internalType": "uint256",
                      "name": "currentPool",
                      "type": "uint256"
                    },
                    {
                      "internalType": "uint96",
                      "name": "recordId",
                      "type": "uint96"
                    },
                    {
                      "internalType": "uint96",
                      "name": "unitId",
                      "type": "uint96"
                    }
                  ],
                  "internalType": "struct Common.Big",
                  "name": "big",
                  "type": "tuple"
                },
                {
                  "components": [
                    {
                      "internalType": "contract IERC20",
                      "name": "colAsset",
                      "type": "address"
                    },
                    {
                      "internalType": "address",
                      "name": "lastPaid",
                      "type": "address"
                    },
                    {
                      "internalType": "address",
                      "name": "safe",
                      "type": "address"
                    },
                    {
                      "internalType": "address",
                      "name": "admin",
                      "type": "address"
                    }
                  ],
                  "internalType": "struct Common.Addresses",
                  "name": "addrs",
                  "type": "tuple"
                },
                {
                  "internalType": "enum Common.Router",
                  "name": "router",
                  "type": "uint8"
                },
                {
                  "internalType": "enum Common.Stage",
                  "name": "stage",
                  "type": "uint8"
                },
                {
                  "internalType": "enum Common.Status",
                  "name": "status",
                  "type": "uint8"
                }
              ],
              "internalType": "struct Common.Pool",
              "name": "pool",
              "type": "tuple"
            },
            {
              "components": [
                {
                  "internalType": "uint32",
                  "name": "paybackTime",
                  "type": "uint32"
                },
                {
                  "internalType": "uint32",
                  "name": "turnStartTime",
                  "type": "uint32"
                },
                {
                  "internalType": "uint32",
                  "name": "getFinanceTime",
                  "type": "uint32"
                },
                {
                  "internalType": "uint256",
                  "name": "loan",
                  "type": "uint256"
                },
                {
                  "internalType": "uint256",
                  "name": "colBals",
                  "type": "uint256"
                },
                {
                  "internalType": "address",
                  "name": "id",
                  "type": "address"
                },
                {
                  "internalType": "bool",
                  "name": "sentQuota",
                  "type": "bool"
                }
              ],
              "internalType": "struct Common.Contributor[]",
              "name": "cData",
              "type": "tuple[]"
            }
          ],
          "internalType": "struct Common.ReadRecordDataReturnValue",
          "name": "result",
          "type": "tuple"
        }
      ],
      "stateMutability": "view",
      "type": "function"
    },
    {
      "inputs": [
        {
          "internalType": "uint256",
          "name": "unit",
          "type": "uint256"
        },
        {
          "internalType": "address",
          "name": "target",
          "type": "address"
        }
      ],
      "name": "getProfile",
      "outputs": [
        {
          "components": [
            {
              "components": [
                {
                  "internalType": "uint32",
                  "name": "paybackTime",
                  "type": "uint32"
                },
                {
                  "internalType": "uint32",
                  "name": "turnStartTime",
                  "type": "uint32"
                },
                {
                  "internalType": "uint32",
                  "name": "getFinanceTime",
                  "type": "uint32"
                },
                {
                  "internalType": "uint256",
                  "name": "loan",
                  "type": "uint256"
                },
                {
                  "internalType": "uint256",
                  "name": "colBals",
                  "type": "uint256"
                },
                {
                  "internalType": "address",
                  "name": "id",
                  "type": "address"
                },
                {
                  "internalType": "bool",
                  "name": "sentQuota",
                  "type": "bool"
                }
              ],
              "internalType": "struct Common.Contributor",
              "name": "profile",
              "type": "tuple"
            },
            {
              "components": [
                {
                  "internalType": "uint256",
                  "name": "value",
                  "type": "uint256"
                },
                {
                  "internalType": "bool",
                  "name": "isMember",
                  "type": "bool"
                },
                {
                  "internalType": "bool",
                  "name": "isAdmin",
                  "type": "bool"
                }
              ],
              "internalType": "struct Common.Slot",
              "name": "slot",
              "type": "tuple"
            },
            {
              "components": [
                {
                  "internalType": "uint256",
                  "name": "slot",
                  "type": "uint256"
                },
                {
                  "internalType": "uint256",
                  "name": "amount",
                  "type": "uint256"
                },
                {
                  "internalType": "uint256",
                  "name": "rate",
                  "type": "uint256"
                },
                {
                  "internalType": "uint256",
                  "name": "earnStartDate",
                  "type": "uint256"
                },
                {
                  "internalType": "address",
                  "name": "account",
                  "type": "address"
                },
                {
                  "components": [
                    {
                      "internalType": "uint256",
                      "name": "fullInterest",
                      "type": "uint256"
                    },
                    {
                      "internalType": "uint256",
                      "name": "intPerSec",
                      "type": "uint256"
                    }
                  ],
                  "internalType": "struct Common.Interest",
                  "name": "accruals",
                  "type": "tuple"
                }
              ],
              "internalType": "struct Common.Provider[]",
              "name": "providers",
              "type": "tuple[]"
            }
          ],
          "internalType": "struct Common.ContributorReturnValue",
          "name": "",
          "type": "tuple"
        }
      ],
      "stateMutability": "view",
      "type": "function"
    },
    {
      "inputs": [
        {
          "internalType": "address",
          "name": "target",
          "type": "address"
        },
        {
          "internalType": "uint256",
          "name": "unit",
          "type": "uint256"
        }
      ],
      "name": "getSlot",
      "outputs": [
        {
          "components": [
            {
              "internalType": "uint256",
              "name": "value",
              "type": "uint256"
            },
            {
              "internalType": "bool",
              "name": "isMember",
              "type": "bool"
            },
            {
              "internalType": "bool",
              "name": "isAdmin",
              "type": "bool"
            }
          ],
          "internalType": "struct Common.Slot",
          "name": "",
          "type": "tuple"
        }
      ],
      "stateMutability": "view",
      "type": "function"
    },
    {
      "inputs": [
        {
          "internalType": "uint256",
          "name": "unit",
          "type": "uint256"
        }
      ],
      "name": "isPoolAvailable",
      "outputs": [
        {
          "internalType": "bool",
          "name": "",
          "type": "bool"
        }
      ],
      "stateMutability": "view",
      "type": "function"
    },
    {
      "inputs": [
        {
          "internalType": "uint256",
          "name": "unit",
          "type": "uint256"
        }
      ],
      "name": "liquidate",
      "outputs": [
        {
          "internalType": "bool",
          "name": "",
          "type": "bool"
        }
      ],
      "stateMutability": "nonpayable",
      "type": "function"
    },
    {
      "inputs": [],
      "name": "makerRate",
      "outputs": [
        {
          "internalType": "uint256",
          "name": "",
          "type": "uint256"
        }
      ],
      "stateMutability": "view",
      "type": "function"
    },
    {
      "inputs": [],
      "name": "pause",
      "outputs": [],
      "stateMutability": "nonpayable",
      "type": "function"
    },
    {
      "inputs": [],
      "name": "paused",
      "outputs": [
        {
          "internalType": "bool",
          "name": "",
          "type": "bool"
        }
      ],
      "stateMutability": "view",
      "type": "function"
    },
    {
      "inputs": [
        {
          "internalType": "uint256",
          "name": "unit",
          "type": "uint256"
        }
      ],
      "name": "payback",
      "outputs": [
        {
          "internalType": "bool",
          "name": "",
          "type": "bool"
        }
      ],
      "stateMutability": "nonpayable",
      "type": "function"
    },
    {
      "inputs": [],
      "name": "pointFactory",
      "outputs": [
        {
          "internalType": "contract IPoint",
          "name": "",
          "type": "address"
        }
      ],
      "stateMutability": "view",
      "type": "function"
    },
    {
      "inputs": [],
      "name": "roleManager",
      "outputs": [
        {
          "internalType": "contract IRoleBase",
          "name": "",
          "type": "address"
        }
      ],
      "stateMutability": "view",
      "type": "function"
    },
    {
      "inputs": [],
      "name": "safeFactory",
      "outputs": [
        {
          "internalType": "contract ISafeFactory",
          "name": "",
          "type": "address"
        }
      ],
      "stateMutability": "view",
      "type": "function"
    },
    {
      "inputs": [
        {
          "internalType": "address",
          "name": "_feeTo",
          "type": "address"
        },
        {
          "internalType": "uint16",
          "name": "_makerRate",
          "type": "uint16"
        }
      ],
      "name": "setFeeOrMakerRate",
      "outputs": [
        {
          "internalType": "bool",
          "name": "",
          "type": "bool"
        }
      ],
      "stateMutability": "nonpayable",
      "type": "function"
    },
    {
      "inputs": [
        {
          "internalType": "contract IERC20",
          "name": "collateralAsset",
          "type": "address"
        },
        {
          "internalType": "string",
          "name": "pair",
          "type": "string"
        }
      ],
      "name": "setPair",
      "outputs": [
        {
          "internalType": "bool",
          "name": "",
          "type": "bool"
        }
      ],
      "stateMutability": "nonpayable",
      "type": "function"
    },
    {
      "inputs": [
        {
          "internalType": "address",
          "name": "newManager",
          "type": "address"
        }
      ],
      "name": "setRoleManager",
      "outputs": [
        {
          "internalType": "bool",
          "name": "",
          "type": "bool"
        }
      ],
      "stateMutability": "nonpayable",
      "type": "function"
    },
    {
      "inputs": [],
      "name": "unpause",
      "outputs": [],
      "stateMutability": "nonpayable",
      "type": "function"
    }
  ],
  "transactionHash": "0x39bf948861240b6dcf88e2720e57380d708971108da8e3956e406a0958a8cbeb",
  "args": [
    "0xD7c271d20c9E323336bFC843AEb8deC23B346352",
    10,
    "0x0000000000000000000000000000000000000000",
    "0x79dF2FCc7DfDdc0C85Cc1f82B1f631b4b9D994B0",
    "0x8a7a88e6Af8F2A2966D0E46E09fc46E3c3943551",
    "0x874069Fa1Eb16D44d622F2e0Ca25eeA172369bC1",
    "0x76685868B6c270d081450c488372E04F6db11494",
    "0x09472cBF305BF8323cb2E8DF79C942E76aeB38cd"
  ],
  "numDeployments": 4,
  "solcInputHash": "4e1e658c7644f0768f5f1188ec220a54",
  "bytecode": "0x6101206040523480156200001257600080fd5b50604051620064d8380380620064d8833981016040819052620000359162000341565b600680546001600160a01b0319166001600160a01b038716179055878787878787878785848685858585858585858583828488888582828786848382848380826006805460ff60a01b19169055506001600160a01b0390811660805260a051811690851603620000de5760408051808201909152601581527f5f61737365744d616e61676572206973207a65726f00000000000000000000006020820152620000de90620002e1565b60c0516001600160a01b0316836001600160a01b031603620001395760408051808201909152601281527f5f626173654173736574206973207a65726f000000000000000000000000000060208201526200013990620002e1565b50506001600160a01b0391821660a052811660c05294851660e0525050509086169050620001a05760408051808201909152601581527f49506f696e74466163746f7279206973207a65726f00000000000000000000006020820152620001a090620002e1565b6001600960006101000a81548160ff021916908315150217905550846001600160a01b0316610100816001600160a01b031681525050505050505050505050505050505050505050600c60009054906101000a90046001600160a01b03166001600160a01b0316886001600160a01b031603620002565760408051808201909152600f81527f5f666565546f20697320656d707479000000000000000000000000000000000060208201526200025690620002e1565b61271061ffff88161115620002a45760408051808201909152601281527f496e76616c6964206d616b6572207261746500000000000000000000000000006020820152620002a490620002e1565b5050600c80546001600160a01b0319166001600160a01b03979097169690961790955550505061ffff16600d555062000459975050505050505050565b8051156200032857806040517fcc8610630000000000000000000000000000000000000000000000000000000081526004016200031f919062000408565b60405180910390fd5b50565b6001600160a01b03811681146200032857600080fd5b600080600080600080600080610100898b0312156200035f57600080fd5b88516200036c816200032b565b60208a015190985061ffff811681146200038557600080fd5b60408a015190975062000398816200032b565b60608a0151909650620003ab816200032b565b60808a0151909550620003be816200032b565b60a08a0151909450620003d1816200032b565b60c08a0151909350620003e4816200032b565b60e08a0151909250620003f7816200032b565b809150509295985092959890939650565b60006020808352835180602085015260005b8181101562000438578581018301518582016040015282016200041a565b506000604082860101526040601f19601f8301168501019250505092915050565b60805160a05160c05160e05161010051615fb5620005236000396000818161052c0152818161292401526129d20152600081816103ee0152818161394601528181614abe0152614b0501526000818161056601528181610a65015281816112250152818161185d01528181612532015281816135c6015281816136380152818161369c015281816143ff0152614c0301526000818161046001528181610770015281816118b3015281816125880152614c5901526000818161027e0152614f3e0152615fb56000f3fe608060405234801561001057600080fd5b50600436106102315760003560e01c80637d07db3c11610130578063c61778e9116100b8578063e95b110d1161007c578063e95b110d146105bb578063e9629168146105c3578063ed4c6cd8146105e3578063f1d588c514610603578063f8e497dc1461061657600080fd5b8063c61778e914610527578063c93c74e31461054e578063cdf456e114610561578063d21c87ad14610588578063e0709823146105a857600080fd5b806394217ad1116100ff57806394217ad11461045b5780639d672294146104825780639e6fbfd3146104ae578063a846c2fd14610501578063c1cbbca71461051457600080fd5b80637d07db3c146103e957806380d5ac8a146104105780638456cb59146104465780638b3c53cb1461044e57600080fd5b80633fd97927116101be57806359d2f32b1161018257806359d2f32b1461038d5780635c975abb146103a05780635f7b1a2d146103b25780636d0406fd146103ce57806371d5501b146103e157600080fd5b80633fd979271461032b578063415f12401461034b578063435daefc1461035e578063553c305a1461036757806358f0bd6d1461037a57600080fd5b80631a055c1a116102055780631a055c1a146102c157806321c05300146102e35780632ef3946f146102fb57806337de615f1461030e5780633f4ba83a1461032157600080fd5b8062435da514610236578063017e7e5814610266578063131e7e1c1461027957806313c8e60d146102a0575b600080fd5b600654610249906001600160a01b031681565b6040516001600160a01b0390911681526020015b60405180910390f35b600c54610249906001600160a01b031681565b6102497f000000000000000000000000000000000000000000000000000000000000000081565b6102b36102ae36600461526b565b610636565b60405190815260200161025d565b6102d46102cf36600461526b565b610648565b60405161025d939291906152de565b6102eb610682565b604051901515815260200161025d565b6102eb6103093660046153cf565b6106dc565b6102eb61031c36600461526b565b610899565b610329610b68565b005b61033e61033936600461550c565b610bc5565b60405161025d9190615617565b6102eb61035936600461526b565b610be0565b6102b3600d5481565b6102eb61037536600461526b565b610d28565b6102eb610388366004615660565b610d50565b6102eb61039b3660046156ad565b610eec565b600654600160a01b900460ff166102eb565b6000545b6040516001600160601b03909116815260200161025d565b6102eb6103dc36600461526b565b610f72565b6103b66113a7565b6102497f000000000000000000000000000000000000000000000000000000000000000081565b600e54600f546010546011546104269392919084565b60408051948552602085019390935291830152606082015260800161025d565b6103296113b1565b6009546102eb9060ff1681565b6102497f000000000000000000000000000000000000000000000000000000000000000081565b61049561049036600461526b565b6113fc565b6040805192835262ffffff90911660208301520161025d565b6104b6611411565b604080518251805182526020808201518184015281840151838501526060918201518284015284015161ffff1660808301529183015160a082015291015160c082015260e00161025d565b6102eb61050f36600461526b565b61147d565b6102eb61052236600461526b565b611500565b6102497f000000000000000000000000000000000000000000000000000000000000000081565b6102eb61055c3660046156fb565b611594565b6102497f000000000000000000000000000000000000000000000000000000000000000081565b61059b61059636600461526b565b611685565b60405161025d9190615910565b6102eb6105b636600461598e565b611850565b6102eb6119f3565b6105d66105d1366004615a4d565b611a4a565b60405161025d9190615aae565b6105f66105f1366004615add565b611b33565b60405161025d9190615b09565b6102eb610611366004615b2e565b611b5a565b610629610624366004615b4b565b611b87565b60405161025d9190615b77565b600061064182611b93565b5092915050565b610650614fcb565b6040805160608101825260008082526020820181905291810182905261067584611e01565b9250925092509193909250565b600061068c611ec9565b60095460ff16156106c8576106c86040518060400160405280601081526020016f5265776172642069732061637469766560801b815250611f48565b506009805460ff1916600190811790915590565b60006106e6611ec9565b6106ee611f73565b6106f6615007565b6106ff83610d28565b1561076a5761070d83611fa0565b905061071a838583612167565b905061072e816020015160600151826122f5565b7f03d06435b835aed8e31056998d82805968e80861808275303d222099b83e61e08160405161075d9190615bc0565b60405180910390a161086b565b606060007f00000000000000000000000000000000000000000000000000000000000000006001600160a01b031663739c13db6040518163ffffffff1660e01b8152600401602060405180830381865afa1580156107cc573d6000803e3d6000fd5b505050506040513d601f19601f820116820180604052508101906107f09190615bcf565b90506108068287876002604860786000886124e9565b92506108318260008151811061081e5761081e615bec565b60200260200101516000600560006128c5565b7fb161ed253087c33a1ed470e454d38c38a1b3cf735f6387e8755f5c85ec1496c1836040516108609190615bc0565b60405180910390a150505b61087e8585836020015160400151612a83565b61088c836000806001612b5d565b60019150505b9392505050565b60006108a3611f73565b816108ad81612c80565b6108e2576108e26040518060400160405280601081526020016f556e697420697320696e41637469766560801b815250611f48565b60006108ed84611fa0565b60408101516060015190915033906001600160a01b03168114610948576109486040518060400160405280601981526020017f4f6e6c792041646d696e2063616e20636c6f736520706f6f6c00000000000000815250611f48565b60008083606001516001811115610961576109616157c9565b14905080156109b9576001836000015160a0015160ff1611156109b4576109b46040518060400160405280601581526020017410d85b98d95b1b185d1a5bdb88191a5cd8589b1959605a1b815250611f48565b610a00565b60208084015180519101511115610a0057610a006040518060400160405280601581526020017410d85b98d95b1b185d1a5bdb88191a5cd8589b1959605a1b815250611f48565b610a0f826000600560016128c5565b60036080840152610a1f83612cc8565b602083015151610a33906000600384612b5d565b6040838101518101516020850151805190830151925163bb16369f60e01b81526001600160a01b0386811660048301527f00000000000000000000000000000000000000000000000000000000000000008116602483015260448201929092526001600160601b039093166064840152169063bb16369f906084016020604051808303816000875af1158015610acd573d6000803e3d6000fd5b505050506040513d601f19601f82011682018060405250810190610af19190615c02565b610b2657610b266040518060400160405280601081526020016f14d859994818d85b1b0819985a5b195960821b815250611f48565b6040518681527f79d50744e568d2dcbac1c613dc0f174be90b0121dbc73682de80b3c4ebc5d1e7906020015b60405180910390a1600194505050505b50919050565b610b70611ec9565b610b78612fa1565b6006805460ff60a01b191690557f5db9ee0a495bf2e6ff9c91a7834c1ba4fdd244a5e8aa4e537bd38aeae4b073aa335b6040516001600160a01b03909116815260200160405180910390a1565b610bcd6150ae565b610bd78284612fcb565b90505b92915050565b6000610bea611f73565b6000806000610bf885611e01565b92509250925081610c3157610c316040518060400160405280600d81526020016c139bdd08191959985d5b1d1959609a1b815250611f48565b33610c3c81876130b7565b610c5d81610c4988611fa0565b6020015160400151848760a001518a6130fd565b8360a001516001600160a01b0316816001600160a01b031603610c8257610c82615c1f565b610c8c81876132ce565b6000806000610ca2898560018a60a00151613322565b925092509250610cba836020015160600151846122f5565b610ce08282600260005b87606001516001811115610cda57610cda6157c9565b14612b5d565b7f2f5bbba2897c0da2732c0b1eec00e0d12fe536c653a8575198092bed62561a7c83604051610d0f9190615bc0565b60405180910390a160019750505050505050505b919050565b600080610d3483611fa0565b60a001516001811115610d4957610d496157c9565b1492915050565b600084610d5c81612c80565b610d9157610d916040518060400160405280601081526020016f556e697420697320696e41637469766560801b815250611f48565b610d99611f73565b6000610da487611fa0565b905060008160400151606001516001600160a01b0316610dc13390565b6001600160a01b031614610dfb57610dfb6040518060400160405280600b81526020016a139bdd08105b1b1bddd95960aa1b815250611f48565b5080515161ffff610e108702169060ff908116908816118015610e20575060ff878116105b15610e2e57815160ff881690525b6102d08661ffff1611158015610e57575081600001516060015163ffffffff168163ffffffff16115b15610e6c57815163ffffffff82166060909101525b81600001516040015162ffffff168562ffffff161115610e9557815162ffffff86166040909101525b610ea7826020015160600151836122f5565b7f136b0bab8d4b28df6bdf26f270fde904c2c696b6bf243dde423642fff1df24b382604051610ed69190615bc0565b60405180910390a1506001979650505050505050565b6000610ef6611ec9565b600c546001600160a01b03848116911614801590610f1c57506001600160a01b03831615155b15610f3d57600c80546001600160a01b0319166001600160a01b0385161790555b60008261ffff16118015610f56575061271061ffff8316105b15610f645761ffff8216600d555b50600192915050565b905090565b600081610f7e81612c80565b610fb357610fb36040518060400160405280601081526020016f556e697420697320696e41637469766560801b815250611f48565b610fbb611f73565b610fc733846000613893565b6000610fd2846138dc565b5090506000610fe085611fa0565b90506000610ff686836000015160200151613999565b9050600182608001516004811115611010576110106157c9565b14611046576110466040518060400160405280601081526020016f426f72726f77206e6f7420726561647960801b815250611f48565b8151805160809091015160ff918216911603611088576110886040518060400160405280600b81526020016a115c1bd8da08195b99195960aa1b815250611f48565b815151602080840151805191015160ff9092160211156110d7576110d760405180604001604052806014815260200173506f6f6c2066756e6420696e636f6d706c65746560601b815250611f48565b8060200151610e100163ffffffff166110ed4290565b63ffffffff1611156111335760a08101516001600160a01b0316336001600160a01b03161461112e5761112b8633611125338a613a6b565b84613ad9565b90505b611186565b60a08101516001600160a01b0316336001600160a01b03161461118657611186604051806040016040528060158152602001745475726e54696d6520686173206e6f74207061737360581b815250611f48565b8151608001805160ff60019182011690915260a082015160408401516001600160a01b039091166020918201528084015101516111d7918590600086606001516001811115610cda57610cda6157c9565b6111f78260400151600001518260a0015184604001516040015186613b74565b50604080830151015160a08201516020808501510151600d546001600160a01b039093169263d4e8694492917f000000000000000000000000000000000000000000000000000000000000000091611250908290613c6a565b602088015160409081015190516001600160e01b031960e088901b1681526001600160a01b03958616600482015294909316602485015260448401919091526064830152608482018790526001600160601b031660a482015260c4016020604051808303816000875af11580156112cb573d6000803e3d6000fd5b505050506040513d601f19601f820116820180604052508101906112ef9190615c02565b611324576113246040518060400160405280601081526020016f14d859994818d85b1b0819985a5b195960821b815250611f48565b61132f828483613c76565b80925081935050506113668183602001516040015161135e856040015160200151866020015160000151613a6b565b516000613efa565b611378826020015160600151836122f5565b7fe34571ffc6f937a259747d53f9fab8d617fd8a80c8cc077638061beead4d3ff882604051610b529190615bc0565b6000610f6d613ff2565b6113b9611ec9565b6113c1611f73565b6006805460ff60a01b1916600160a01b1790557f62e78cea01bee320cd4e420270b5ea74000d11b0c9f74754ebdbfc544b05a258610ba83390565b600080611408836138dc565b91509150915091565b6114196150ef565b60408051608081018252600e548152600f546020808301919091526010549282019290925260115460608201528252600d5461ffff169082015261145b613ff2565b6001600160601b031660408201526000546001600160601b0316606082015290565b6000611487611f73565b600080806114988533600080613322565b9250925092506114b0836020015160600151846122f5565b6114be828260026000610cc4565b7f2f5bbba2897c0da2732c0b1eec00e0d12fe536c653a8575198092bed62561a7c836040516114ed9190615bc0565b60405180910390a1506001949350505050565b600061150a611f73565b600061151583611fa0565b9050611522833383612167565b9050611536816020015160600151826122f5565b611554836000808085606001516001811115610cda57610cda6157c9565b7f03d06435b835aed8e31056998d82805968e80861808275303d222099b83e61e0816040516115839190615bc0565b60405180910390a150600192915050565b600061159e611f73565b60006115f98a8a808060200260200160405190810160405280939291908181526020018383602002808284376000920191909152506115e09250612cc4915050565b8a8a8a8a8a6115f05760016115f3565b60005b8a6124e9565b90506116318a8a600081811061161157611611615bec565b90506020020160208101906116269190615b2e565b6000600560006128c5565b61163e8860008087612b5d565b7fb161ed253087c33a1ed470e454d38c38a1b3cf735f6387e8755f5c85ec1496c18160405161166d9190615bc0565b60405180910390a15060019998505050505050505050565b61168d615144565b6000600a600061169c85611fa0565b60200151604001516001600160601b03166001600160601b03168152602001908152602001600020805480602002602001604051908101604052809291908181526020016000905b828210156117795760008481526020908190206040805160e08101825260048602909201805463ffffffff8082168552600160201b8204811685870152600160401b90910416918301919091526001808201546060840152600282015460808401526003909101546001600160a01b03811660a0840152600160a01b900460ff16151560c083015290835290920191016116e4565b5050505090506000815167ffffffffffffffff81111561179b5761179b61531c565b6040519080825280602002602001820160405280156117d457816020015b6117c16150ae565b8152602001906001900390816117b95790505b50905060005b82518110156118355760008382815181106117f7576117f7615bec565b602002602001015160a00151905061180f8187612fcb565b83838151811061182157611821615bec565b6020908102919091010152506001016117da565b506020830181905261184684611fa0565b8352509092915050565b600061185a611ec9565b827f00000000000000000000000000000000000000000000000000000000000000006001600160a01b0316816001600160a01b03161461195457604051634df48c7360e11b81526001600160a01b0382811660048301527f00000000000000000000000000000000000000000000000000000000000000001690639be918e690602401602060405180830381865afa1580156118fa573d6000803e3d6000fd5b505050506040513d601f19601f8201168201806040525081019061191e9190615c02565b6119545761195460405180604001604052806011815260200170155b9cdd5c1c1bdc9d195908105cdcd95d607a1b815250611f48565b825160000361198a5761198a6040518060400160405280600c81526020016b24b73b30b634b2103830b4b960a11b815250611f48565b6001600160a01b0384166119c6576119c66040518060400160405280600d81526020016c4173736574206973207a65726f60981b815250611f48565b6001600160a01b03841660009081526008602052604090206119e88482615cb1565b506001949350505050565b60006119fd611ec9565b60095460ff16611a3a57611a3a6040518060400160405280601281526020017152657761726420697320696e41637469766560701b815250611f48565b506009805460ff19169055600190565b611a52615144565b6001600160601b0382166000908152600a6020908152604080832080548251818502810185019093528083529193909284015b82821015611b1a5760008481526020908190206040805160e08101825260048602909201805463ffffffff8082168552600160201b8204811685870152600160401b90910416918301919091526001808201546060840152600282015460808401526003909101546001600160a01b03811660a0840152600160a01b900460ff16151560c08301529083529092019101611a85565b505050506020820152611b2c82613ffd565b8152919050565b6040805160608101825260008082526020820181905291810191909152610bd78383613a6b565b6000611b64611ec9565b600680546001600160a01b0319166001600160a01b038416179055506001919050565b6060610bd7838361412a565b6000611b9d615007565b611ba683611fa0565b6040810151602001519091506001600160a01b0316611bc757611bc7615c1f565b6020808201516040908101516001600160601b03166000908152600a835281812080548351818602810186019094528084529193909190849084015b82821015611c985760008481526020908190206040805160e08101825260048602909201805463ffffffff8082168552600160201b8204811685870152600160401b90910416918301919091526001808201546060840152600282015460808401526003909101546001600160a01b03811660a0840152600160a01b900460ff16151560c08301529083529092019101611c03565b505050509050600081511115611dfb5760005b8151811015611df9576000611cdd838381518110611ccb57611ccb615bec565b602002602001015160a0015187612fcb565b90508360400151602001516001600160a01b0316816000015160a001516001600160a01b031603611d1b57805160600151611d189086615d87565b94505b60408101515115611df05760005b816040015151811015611dee57600082604001518281518110611d4e57611d4e615bec565b602002602001015190508060600151611d644290565b63ffffffff161115611de5578560400151602001516001600160a01b0316836000015160a001516001600160a01b031603611db95760608101514263ffffffff16038160a00151602001510287019650611de5565b60608101514263ffffffff160360028260a001516020015181611dde57611dde615d9a565b0402870196505b50600101611d29565b505b50600101611cab565b505b50915091565b611e09614fcb565b604080516060810182526000808252602082018190529181018290526000611e3085611fa0565b6040810151602001519091506001600160a01b0316611e5157611e51615c1f565b6000611e6582604001516020015187612fcb565b80515190915063ffffffff164263ffffffff161115611ec057806000015160a001516001600160a01b03168260400151602001516001600160a01b031614611eaf57611eaf615c1f565b805160208201519095506001945092505b50509193909250565b6006546001600160a01b031680611f0a57611f0a6040518060400160405280600f81526020016e4d616e61676572206973207a65726f60881b815250611f48565b611f1333614205565b611f4557611f456040518060400160405280600d81526020016c1058d8d95cdcc819195b9a5959609a1b815250611f48565b50565b805115611f45578060405163cc86106360e01b8152600401611f6a9190615db0565b60405180910390fd5b600654600160a01b900460ff1615611f9e5760405163d93c066560e01b815260040160405180910390fd5b565b611fa8615007565b6000828152600460208181526040808420546001600160601b039081168552600380845294829020825161018081018452815460ff80821660c08401908152610100808404831660e086015262010000840462ffffff1690850152600160281b830463ffffffff16610120850152600160481b83048216610140850152600160501b909204811661016084015290825284516080808201875260018086015483526002860154838a01529985015480871683890152600160601b90049095166060808301919091528388019190915285519485018652968301546001600160a01b039081168552600584015481169685019690965260068301548616848601526007830154909516838701529283019190915260088101549194909385019291909116908111156120db576120db6157c9565b60018111156120ec576120ec6157c9565b81526020016008820160019054906101000a900460ff166004811115612114576121146157c9565b6004811115612125576121256157c9565b81526020016008820160029054906101000a900460ff16600181111561214d5761214d6157c9565b600181111561215e5761215e6157c9565b90525092915050565b61216f615007565b8361217981612c80565b6121ae576121ae6040518060400160405280601081526020016f556e697420697320696e41637469766560801b815250611f48565b6000836080015160048111156121c6576121c66157c9565b146121f9576121f96040518060400160405280600d81526020016c496e76616c696420737461676560981b815250611f48565b6122016150ae565b6020808501518051910180519091019052835160a001805160ff6001918201169091528460600151600181111561223a5761223a6157c9565b036122665761224b85876000613893565b6122558587612fcb565b8051600160c0909101529050612283565b61227085876130b7565b6122808487876000600180614274565b90505b6122a481600001518560200151604001518360200151600001516000613efa565b6122c6846001866060015160018111156122c0576122c06157c9565b14614308565b156122df576122d760008742614340565b600160808501525b8392506122ec85856143fa565b50509392505050565b6001600160601b038083166000908152600360208181526040928390208551805182548285015183880151606080860151608087015160a09097015160ff908116600160501b0260ff60501b19988216600160481b029890981661ffff60481b1963ffffffff909316600160281b0268ffffffff00000000001962ffffff90961662010000029590951668ffffffffffffff0000199683166101000261ffff199098169290981691909117959095179390931694909417171617919091178255828701518051600180850191909155818501516002850155818701519584018054928401518916600160601b026001600160c01b03199093169690981695909517179095558386015180516004830180546001600160a01b039283166001600160a01b03199182161790915593820151600584018054918316918616919091179055948101516006830180549187169185169190911790558501516007820180549190951692169190911790925591830151600882018054859460ff1991909116908381811115612488576124886157c9565b0217905550608082015160088201805461ff0019166101008360048111156124b2576124b26157c9565b021790555060a082015160088201805462ff00001916620100008360018111156124de576124de6157c9565b021790555050505050565b6124f1615007565b866124fb81612c80565b1561252f5761252f6040518060400160405280600e81526020016d556e69742069732061637469766560901b815250611f48565b827f00000000000000000000000000000000000000000000000000000000000000006001600160a01b0316816001600160a01b03161461262957604051634df48c7360e11b81526001600160a01b0382811660048301527f00000000000000000000000000000000000000000000000000000000000000001690639be918e690602401602060405180830381865afa1580156125cf573d6000803e3d6000fd5b505050506040513d601f19601f820116820180604052508101906125f39190615c02565b6126295761262960405180604001604052806011815260200170155b9cdd5c1c1bdc9d195908105cdcd95d607a1b815250611f48565b61ffff8716158061263f57506102d08761ffff16115b15612675576126756040518060400160405280601081526020016f24b73b30b634b210323ab930ba34b7b760811b815250611f48565b6000856001811115612689576126896157c9565b036127185760018b51118061269d57508a51155b156126d8576126d860405180604001604052806015815260200174115e1c1958dd080c481a5d195b481a5b881b1a5cdd605a1b815250611f48565b896001600160a01b03168b6000815181106126f5576126f5615bec565b60200260200101516001600160a01b03161461271357612713615c1f565b6127c6565b60028b511015612760576127606040518060400160405280601881526020017f4c69737420746f6f206c6f7720666f7220726f75746572320000000000000000815250611f48565b8a60008151811061277357612773615bec565b60200260200101516001600160a01b03168a6001600160a01b0316146127c6576127c66040518060400160405280601281526020017114d95b99195c881b9bdd081a5b881b1a5cdd60721b815250611f48565b6000806127d28b6144f7565b915091506128786040518061012001604052808d8152602001846001600160601b03168152602001836001600160601b031681526020018c60ff1681526020018a62ffffff168152602001886001600160a01b031681526020018b61ffff1681526020018f60008151811061284957612849615bec565b60200260200101516001600160a01b03168152602001896001811115612871576128716157c9565b9052614551565b94506128858b8e876146a5565b945061289182866122f5565b6128b58d6000815181106128a7576128a7615bec565b6020026020010151866143fa565b5050505098975050505050505050565b6040805160608101825260ff808616825284166020820152600091810182905282612998576040805163dc5c143760e01b81526001600160a01b03888116600483015283516024830152602084015160448301529183015160648201527f00000000000000000000000000000000000000000000000000000000000000009091169063dc5c1437906084016020604051808303816000875af115801561296f573d6000803e3d6000fd5b505050506040513d601f19601f820116820180604052508101906129939190615c02565b612a41565b6040805163f7c8e59160e01b81526001600160a01b03888116600483015283516024830152602084015160448301529183015160648201527f00000000000000000000000000000000000000000000000000000000000000009091169063f7c8e591906084016020604051808303816000875af1158015612a1d573d6000803e3d6000fd5b505050506040513d601f19601f82011682018060405250810190612a419190615c02565b915081612a7b57612a7b60405180604001604052806012815260200171141bda5b9d08185dd85c990819985a5b195960721b815250611f48565b505050505050565b60005b8351811015612b57576001600160601b0382166000908152600b602090815260408083206001600160a01b038716845290915290208451859083908110612acf57612acf615bec565b60209081029190910181015182546001808201855560009485529383902082516007909202019081558183015181850155604082015160028201556060820151600382015560808201516004820180546001600160a01b0319166001600160a01b0390921691909117905560a090910151805160058301559091015160069091015501612a86565b50505050565b60408051608081018252600e548152600f5460208201526010549181019190915260115460608201526000836004811115612b9a57612b9a6157c9565b03612bd4576020810180518601905281612bc05760408101805160010190819052612bce565b606081018051600101908190525b50612c5e565b6001836004811115612be857612be86157c9565b03612c0f5784816020015110612c045760208101805186900390525b805184018152612c5e565b6002836004811115612c2357612c236157c9565b03612c475780518411612c3857805184900381525b60208101805186019052612c5e565b84816020015110612c5e5760208101805186900390525b8051600e556020810151600f5560408101516010556060015160115550505050565b6000818152600460209081526040808320546001600160601b03168352600390915281206008015460019062010000900460ff1681811115610d4957610d496157c9565b3390565b60008080526003602090815260408051610180810182527f3617319a054d772f909f7c479a2cebe5066e836a939412e32403c99029b92eff805460ff80821660c08501908152610100808404831660e087015262ffffff620100008504169086015263ffffffff600160281b840416610120860152600160481b83048216610140860152600160501b90920481166101608501529083528351608080820186527f3617319a054d772f909f7c479a2cebe5066e836a939412e32403c99029b92f005482527f3617319a054d772f909f7c479a2cebe5066e836a939412e32403c99029b92f0154828801527f3617319a054d772f909f7c479a2cebe5066e836a939412e32403c99029b92f02546001600160601b0381811684890152600160601b9091041660608084019190915285880192909252855190810186527f3617319a054d772f909f7c479a2cebe5066e836a939412e32403c99029b92f03546001600160a01b0390811682527f3617319a054d772f909f7c479a2cebe5066e836a939412e32403c99029b92f04548116978201979097527f3617319a054d772f909f7c479a2cebe5066e836a939412e32403c99029b92f05548716818701527f3617319a054d772f909f7c479a2cebe5066e836a939412e32403c99029b92f065490961686820152938301949094527f3617319a054d772f909f7c479a2cebe5066e836a939412e32403c99029b92f075491939092840191166001811115612ef057612ef06157c9565b6001811115612f0157612f016157c9565b81526020016008820160019054906101000a900460ff166004811115612f2957612f296157c9565b6004811115612f3a57612f3a6157c9565b81526020016008820160029054906101000a900460ff166001811115612f6257612f626157c9565b6001811115612f7357612f736157c9565b815250509050612f8b826020015160600151826122f5565b612f9d826020015160400151836147db565b5050565b600654600160a01b900460ff16611f9e57604051638dfc202b60e01b815260040160405180910390fd5b612fd36150ae565b6000612fde83614967565b9050612fea8484613a6b565b60208084019182526001600160601b0383166000908152600a909152604090209051518154811061301d5761301d615bec565b60009182526020918290206040805160e0810182526004909302909101805463ffffffff8082168552600160201b8204811695850195909552600160401b90049093169082015260018201546060820152600282015460808201526003909101546001600160a01b03811660a083015260ff600160a01b90910416151560c082015282526130ab848261412a565b60408301525092915050565b6130c18282613a6b565b6020015115612f9d57612f9d6040518060400160405280601281526020017113595b58995c881b9bdd08185b1b1bddd95960721b815250611f48565b6001600160601b0384166000908152600b602090815260408083206001600160a01b0386168452825280832080548251818502810185019093528083529192909190849084015b828210156131ca5760008481526020908190206040805160c0810182526007860290920180548352600180820154848601526002820154848401526003820154606085015260048201546001600160a01b031660808501528251808401909352600582015483526006909101548285015260a08301919091529083529092019101613144565b505050509050600081511115613251576001600160601b0385166000908152600b602090815260408083206001600160a01b03878116855292528083209189168352909120815461321b9290615157565b506001600160601b0385166000908152600b602090815260408083206001600160a01b0387168452909152812061325191615205565b6001600160601b0385166000908152600a602052604090208451815488929190811061327f5761327f615bec565b906000526020600020906004020160030160006101000a8154816001600160a01b0302191690836001600160a01b031602179055506132c18683866000614980565b612a7b8383866001614980565b81600360006132dc84611fa0565b602090810151606001516001600160601b0316825281019190915260400160002060050180546001600160a01b0319166001600160a01b03929092169190911790555050565b61332a615007565b6000808661333781612c80565b61336c5761336c6040518060400160405280601081526020016f556e697420697320696e41637469766560801b815250611f48565b61337588611b93565b9450925060008390036133b0576133b06040518060400160405280600d81526020016c139bc81919589d08199bdd5b99609a1b815250611f48565b60006133c48560400151602001518a613a6b565b516020808701516040908101516001600160601b03166000908152600a909252812080549293509091839081106133fd576133fd615bec565b9060005260206000209060040201600101819055506000600a60008760200151604001516001600160601b03166001600160601b03168152602001908152602001600020828154811061345257613452615bec565b6000918252602090912060026004909202010155426020808701516040908101516001600160601b03166000908152600a909252902080548390811061349a5761349a615bec565b60009182526020909120600490910201805463ffffffff191663ffffffff9290921691909117905560095460ff16156134e3576134e385604001516020015160026000806128c5565b84516080810151905160ff91821691160361350d576004608086015261350885612cc8565b61359c565b426020808701516040908101516001600160601b03166000908152600a835220875190910151815460ff90911690811061354957613549615bec565b6000918252602091829020600490910201805467ffffffff000000001916600160201b63ffffffff9490941693909302929092179091556001608087015285515186820151805160ff9092169091029101525b60408581015181015190516370a0823160e01b81526001600160a01b0391821660048201526000917f000000000000000000000000000000000000000000000000000000000000000016906370a0823190602401602060405180830381865afa15801561360d573d6000803e3d6000fd5b505050506040513d601f19601f820116820180604052508101906136319190615dff565b90506136677f00000000000000000000000000000000000000000000000000000000000000008a88604001516040015188613b74565b508560400151604001516001600160a01b031663397c39bd6040518061014001604052808c6001600160a01b031681526020017f00000000000000000000000000000000000000000000000000000000000000006001600160a01b0316815260200188815260200184815260200189600001516080015160ff168a600001516000015160ff161415158152602001600a60008b60200151604001516001600160601b03166001600160601b03168152602001908152602001600020805480602002602001604051908101604052809291908181526020016000905b828210156137d75760008481526020908190206040805160e08101825260048602909201805463ffffffff8082168552600160201b8204811685870152600160401b90910416918301919091526001808201546060840152600282015460808401526003909101546001600160a01b03811660a0840152600160a01b900460ff16151560c08301529083529092019101613742565b5050505081526020018b151581526020018a6001600160a01b031681526020018960200151604001516001600160601b031681526020018960400151600001516001600160a01b03168152508c6040518363ffffffff1660e01b8152600401613841929190615e18565b6020604051808303816000875af1158015613860573d6000803e3d6000fd5b505050506040513d601f19601f820116820180604052508101906138849190615dff565b93505050509450945094915050565b806138d7576138a28383613a6b565b602001516138d7576138d76040518060400160405280600c81526020016b2737ba10309036b2b6b132b960a11b815250611f48565b505050565b60008060006138ea84611fa0565b60208101515190915015611dfb5761398981600001516040015182600001516000015160ff16836020015160000151026040518060400160405280613936866040015160000151614a0b565b6001600160801b031681526020017f00000000000000000000000000000000000000000000000000000000000000006001600160a01b03161561397a57600861397d565b60125b60ff1690529190614b94565b9051604001519094909350915050565b6139a1614fcb565b600a60006139ae85614967565b6001600160601b03166001600160601b031681526020019081526020016000208260ff16815481106139e2576139e2615bec565b60009182526020918290206040805160e0810182526004909302909101805463ffffffff8082168552600160201b8204811695850195909552600160401b90049093169082015260018201546060820152600282015460808201526003909101546001600160a01b03811660a083015260ff600160a01b90910416151560c08201529392505050565b6040805160608082018352600080835260208084018290529284018190526001600160a01b03959095168552600582528285209385529281529281902081519283018252805483526001015460ff808216151594840194909452610100900490921615159181019190915290565b613ae1614fcb565b613aed84866000613893565b6000613af886614967565b90506000613b068688613a6b565b9050613b128688612fcb565b519250613b228688876000614980565b613b338460a0015188836000614980565b6001600160a01b03861660a08086018290528401528451613b5990859084906000613efa565b613b6a838383600001516000613efa565b5050949350505050565b6000613b81858584614bfe565b90506001600160a01b038316613b9957613b99615c1f565b6001600160a01b038516613baf57613baf615c1f565b8015613c62576040516323b872dd60e01b81526001600160a01b0385811660048301528481166024830152604482018390528616906323b872dd906064016020604051808303816000875af1158015613c0c573d6000803e3d6000fd5b505050506040513d601f19601f82011682018060405250810190613c309190615c02565b613c6257613c626040518060400160405280600d81526020016c151c9e11995c8819985a5b1959609a1b815250611f48565b949350505050565b6000610bd78383614ddf565b613c7e615007565b613c86614fcb565b8451602001805190613c9782615ef9565b60ff16905250845160600151420163ffffffff16835260808301849052602085810180518201516060860152516040908101516001600160601b03166000908152600b8352818120828901518401516001600160a01b03168252835281812080548351818602810186019094528084529193909190849084015b82821015613d975760008481526020908190206040805160c0810182526007860290920180548352600180820154848601526002820154848401526003820154606085015260048201546001600160a01b031660808501528251808401909352600582015483526006909101548285015260a08301919091529083529092019101613d11565b50505050905060005b8151811015613ede576020878101516040908101516001600160601b03166000908152600b8352818120828b01518401516001600160a01b031682529092529020805463ffffffff4216919083908110613dfc57613dfc615bec565b906000526020600020906007020160030181905550613e68828281518110613e2657613e26615bec565b602002602001015160400151886000015160600151848481518110613e4d57613e4d615bec565b602002602001015160200151614e8d9092919063ffffffff16565b6020808901516040908101516001600160601b03166000908152600b8352818120828c01518401516001600160a01b031682529092529020805483908110613eb257613eb2615bec565b600091825260209182902083516005600790930290910191820155910151600690910155600101613da0565b5050505060208381015160009101526002608084015291929050565b613f02614fcb565b81613f0d5784613f0f565b805b6001600160601b0385166000908152600a60205260409020805460ff8616908110613f3c57613f3c615bec565b60009182526020918290208351600490920201805492840151604085015163ffffffff908116600160401b026bffffffff000000000000000019928216600160201b0267ffffffffffffffff1990961691909416179390931792909216178155606082015160018201556080820151600282015560a08201516003909101805460c0909301511515600160a01b026001600160a81b03199093166001600160a01b03909216919091179190911790555050505050565b6000610f6d60025490565b614005615007565b6001600160601b03808316600090815260016020818152604092839020835161018081018552815460ff80821660c08401908152610100808404831660e086015262ffffff620100008504169085015263ffffffff600160281b840416610120850152600160481b83048216610140850152600160501b90920481166101608401529082528551608080820188528487015482526002850154828701526003850154808a16838a0152600160601b9004909816606080830191909152838601919091528651978801875260048401546001600160a01b039081168952600585015481169589019590955260068401548516888801526007840154909416878501529481019590955260088101549093918501929116908111156120db576120db6157c9565b6001600160601b0381166000908152600b602090815260408083206001600160a01b03861684528252808320805482518185028101850190935280835260609492939192909184015b828210156141f95760008481526020908190206040805160c0810182526007860290920180548352600180820154848601526002820154848401526003820154606085015260048201546001600160a01b031660808501528251808401909352600582015483526006909101548285015260a08301919091529083529092019101614173565b50505050905092915050565b600654604051633f784de560e11b81526001600160a01b0383811660048301526000921690637ef09bca90602401602060405180830381865afa158015614250573d6000803e3d6000fd5b505050506040513d601f19601f82011682018060405250810190610bda9190615c02565b61427c6150ae565b6020808801516040908101516001600160601b03166000908152600a8352205490820180519190915251516142b690869088908787614ef0565b6020968701516040908101516001600160601b03166000908152600a90985287208054600101815590965285516001600160a01b0390941660a0909401939093525050825190151560c0909101525090565b6000811561432a57825151602080850151805191015160ff9092160214610bd7565b505051805160a09091015160ff91821691161490565b60006001600160a01b0384166143785761435983611fa0565b516020015160ff16905061436d8382613999565b60a001519350614386565b6143828484613a6b565b5190505b81600a600061439486614967565b6001600160601b03166001600160601b0316815260200190815260200160002082815481106143c5576143c5615bec565b906000526020600020906004020160000160046101000a81548163ffffffff021916908363ffffffff16021790555050505050565b6144367f000000000000000000000000000000000000000000000000000000000000000083836040015160400151846020015160000151613b74565b50604080820151810151602083015182015191516320d46be760e11b81526001600160a01b0385811660048301526001600160601b0390931660248201529116906341a8d7ce906044016020604051808303816000875af115801561449f573d6000803e3d6000fd5b505050506040513d601f19601f820116820180604052508101906144c39190615c02565b612f9d57612f9d6040518060400160405280600f81526020016e105919081d5cd95c8819985a5b1959608a1b815250611f48565b600080614508600280546001019055565b600254600084815260046020526040902080546bffffffffffffffffffffffff19166001600160601b038316179055915061454a600080546001810190915590565b9050915091565b614559615007565b6040518060c00160405280836060015160ff168152602001600060ff168152602001836080015162ffffff1681526020018360c0015161ffff16610e100263ffffffff168152602001600060ff168152602001600160ff1681525081600001819052506040518060800160405280836000015181526020018360000151815260200183604001516001600160601b0316815260200183602001516001600160601b0316815250816020018190525060405180608001604052808360a001516001600160a01b0316815260200160006001600160a01b031681526020016146428460000151614f25565b6001600160a01b03908116825260e08501511660209091015260408201526101008201516060820190600181111561467c5761467c6157c9565b9081600181111561468f5761468f6157c9565b905250600160a082015260006080820152919050565b6146ad615007565b60005b83518110156147d2576146c16150ae565b816000036146f9576146f284878785815181106146e0576146e0615bec565b60200260200101516001806001614274565b90506147a8565b84828151811061470b5761470b615bec565b60200260200101516001600160a01b03168560008151811061472f5761472f615bec565b60200260200101516001600160a01b03160361477b5761477b6040518060400160405280601581526020017443726561746f722073706f7474656420747769636560581b815250611f48565b6147a5848787858151811061479257614792615bec565b6020026020010151600060016000614274565b90505b6147c981600001518560200151604001518360200151600001516000613efa565b506001016146b0565b50909392505050565b6001600160601b038083166000908152600160208181526040928390208551805182548285015183880151606080860151608087015160a09097015160ff908116600160501b0260ff60501b19988216600160481b029890981661ffff60481b1963ffffffff909316600160281b0268ffffffff00000000001962ffffff90961662010000029590951668ffffffffffffff0000199683166101000261ffff1990981692909816919091179590951793909316949094171716179190911782558287015180518386015580840151600284015580860151600384018054928401518916600160601b026001600160c01b03199093169190981617179095558386015180516004830180546001600160a01b039283166001600160a01b03199182161790915593820151600584018054918316918616919091179055948101516006830180549187169185169190911790558501516007820180549190951692169190911790925591830151600882018054859460ff1991909116908381811115612488576124886157c9565b600061497282611fa0565b602001516040015192915050565b6040805160608101825260008082526020820181905291810191909152816149a857826149aa565b805b6001600160a01b0395909516600090815260056020908152604080832096835295815290859020865181559086015160019091018054959096015161ffff1990951690151561ff001916176101009415159490940293909317909355505050565b6001600160a01b03811660009081526008602052604081208054829190614a3190615c35565b80601f0160208091040260200160405190810160405280929190818152602001828054614a5d90615c35565b8015614aaa5780601f10614a7f57610100808354040283529160200191614aaa565b820191906000526020600020905b815481529060010190602001808311614a8d57829003601f168201915b5050505050905060006001600160a01b03167f00000000000000000000000000000000000000000000000000000000000000006001600160a01b031614614b84576040516304b01c2560e51b81526000906001600160a01b037f0000000000000000000000000000000000000000000000000000000000000000169063960384a090614b3a908590600401615db0565b6040805180830381865afa158015614b56573d6000803e3d6000fd5b505050506040513d601f19601f82011682018060405250810190614b7a9190615f2f565b509250610b629050565b50678ac7230489e8000092915050565b60008262ffffff16600003614bab57506000610892565b60008360640262ffffff169050600085600001516001600160801b0316866020015160ff16600a0a850281614be257614be2615d9a565b04905061271065ffffffffffff83168202049695505050505050565b6000837f00000000000000000000000000000000000000000000000000000000000000006001600160a01b0316816001600160a01b031614614cfa57604051634df48c7360e11b81526001600160a01b0382811660048301527f00000000000000000000000000000000000000000000000000000000000000001690639be918e690602401602060405180830381865afa158015614ca0573d6000803e3d6000fd5b505050506040513d601f19601f82011682018060405250810190614cc49190615c02565b614cfa57614cfa60405180604001604052806011815260200170155b9cdd5c1c1bdc9d195908105cdcd95d607a1b815250611f48565b6001600160a01b038516614d1057614d10615c1f565b6001600160a01b038416614d2657614d26615c1f565b604051636eb1769f60e11b81526001600160a01b03858116600483015230602483015286169063dd62ed3e90604401602060405180830381865afa158015614d72573d6000803e3d6000fd5b505050506040513d601f19601f82011682018060405250810190614d969190615dff565b915082821015614dd757614dd76040518060400160405280601681526020017556616c75652065786365656420616c6c6f77616e636560501b815250611f48565b509392505050565b600061271061ffff83161580614df3575083155b15614e02576000915050610bda565b61ffff83811610614e3f57614e3f60405180604001604052806011815260200170496e746572657374206f766572666c6f7760781b815250611f48565b8061ffff168411614e6b57614e6b604051806060016040528060268152602001615f5a60269139611f48565b8061ffff168361ffff16850281614e8457614e84615d9a565b04949350505050565b604080518082019091526000808252602082015262278d0063ffffffff83161115614eba57614eba615c1f565b614ec48484614ddf565b8082521561089257805163ffffffff83169081614ee357614ee3615d9a565b0460208201529392505050565b614f1e858560405180606001604052808760ff16815260200185151581526020018615158152506000614980565b5050505050565b60405163f72be56960e01b8152600481018290526000907f00000000000000000000000000000000000000000000000000000000000000006001600160a01b03169063f72be569906024016020604051808303816000875af1158015614f8f573d6000803e3d6000fd5b505050506040513d601f19601f82011682018060405250810190614fb39190615bcf565b90506001600160a01b038116610d2357610d23615c1f565b6040805160e081018252600080825260208201819052918101829052606081018290526080810182905260a0810182905260c081019190915290565b604080516101808101909152600060c0820181815260e083018290526101008301829052610120830182905261014083018290526101608301919091528190815260408051608081018252600080825260208281018290529282018190526060820152910190815260408051608081018252600080825260208281018290529282018190526060820152910190815260200160008152602001600081526020016000905290565b60405180606001604052806150c1614fcb565b81526040805160608101825260008082526020828101829052928201529101905b8152602001606081525090565b60405180608001604052806151256040518060800160405280600081526020016000815260200160008152602001600081525090565b8152602001600061ffff16815260200160008152602001600081525090565b60405180604001604052806150e2615007565b8280548282559060005260206000209060070281019282156151f55760005260206000209160070282015b828111156151f5578254825560018084015490830155600280840154908301556003808401549083015560048084015490830180546001600160a01b0319166001600160a01b03909216919091179055600580840154908301556006808401549083015560079283019290910190615182565b50615201929150615222565b5090565b5080546000825560070290600052602060002090810190611f4591905b5b808211156152015760008082556001820181905560028201819055600382018190556004820180546001600160a01b0319169055600582018190556006820155600701615223565b60006020828403121561527d57600080fd5b5035919050565b63ffffffff80825116835280602083015116602084015280604083015116604084015250606081015160608301526080810151608083015260018060a01b0360a08201511660a083015260c0810151151560c08301525050565b61016081016152ed8286615284565b83151560e083015282516101008301526020830151151561012083015260408301511515610140830152613c62565b634e487b7160e01b600052604160045260246000fd5b60405160c0810167ffffffffffffffff811182821017156153555761535561531c565b60405290565b6040805190810167ffffffffffffffff811182821017156153555761535561531c565b604051601f8201601f1916810167ffffffffffffffff811182821017156153a7576153a761531c565b604052919050565b6001600160a01b0381168114611f4557600080fd5b8035610d23816153af565b600080600060608085870312156153e557600080fd5b843567ffffffffffffffff808211156153fd57600080fd5b818701915087601f83011261541157600080fd5b81356020828211156154255761542561531c565b615433818360051b0161537e565b828152818101935060e092830285018201928b84111561545257600080fd5b948201945b838610156154e957858c03818112156154705760008081fd5b615478615332565b87358152848801358582015260408089013581830152898901358a8301526080808a01356154a5816153af565b9083015260a0609f1984018213156154bd5760008081fd5b6154c561535b565b8a820135815260c08b01358882015290830152508652509485019493820193615457565b5097506154f78982016153c4565b96505050505050604084013590509250925092565b6000806040838503121561551f57600080fd5b823591506020830135615531816153af565b809150509250929050565b805182526020808201518184015260408083015190840152606080830151908401526080808301516001600160a01b03169084015260a091820151805192840192909252015160c082015260e00190565b60006101608084016155a0858551615284565b602084810151805160e088015280820151151561010088015260409081015115156101208801528501516101408701939093528251918290526101808601928101916000905b8082101561560b576155f985855161553c565b945082840193506001820191506155e6565b50929695505050505050565b602081526000610bd7602083018461558d565b803560ff81168114610d2357600080fd5b803561ffff81168114610d2357600080fd5b803562ffffff81168114610d2357600080fd5b6000806000806080858703121561567657600080fd5b843593506156866020860161562a565b92506156946040860161563b565b91506156a26060860161564d565b905092959194509250565b600080604083850312156156c057600080fd5b82356156cb816153af565b91506156d96020840161563b565b90509250929050565b8015158114611f4557600080fd5b8035610d23816156e2565b60008060008060008060008060e0898b03121561571757600080fd5b883567ffffffffffffffff8082111561572f57600080fd5b818b0191508b601f83011261574357600080fd5b81358181111561575257600080fd5b8c60208260051b850101111561576757600080fd5b60209283019a50985050890135955061578260408a0161562a565b945061579060608a0161563b565b935061579e60808a0161564d565b92506157ac60a08a016156f0565b91506157ba60c08a016153c4565b90509295985092959890939650565b634e487b7160e01b600052602160045260246000fd5b600281106157ef576157ef6157c9565b9052565b600581106157ef576157ef6157c9565b805160ff815116835260ff602082015116602084015262ffffff604082015116604084015263ffffffff606082015116606084015260ff608082015116608084015260ff60a08201511660a084015250602081015161589560c0840182805182526020810151602083015260408101516001600160601b03808216604085015280606084015116606085015250505050565b5060408181015180516001600160a01b03908116610140860152602082015181166101608601529181015182166101808501526060908101519091166101a08401528101516158e86101c08401826157df565b5060808101516158fc6101e08401826157f3565b5060a08101516138d76102008401826157df565b6000602080835261026083016159298285018651615803565b8185015161024085810152805191829052610280600583901b8601810192918401919086019060005b818110156159815761027f1988860301835261596f85855161558d565b94509285019291850191600101615952565b5092979650505050505050565b600080604083850312156159a157600080fd5b82356159ac816153af565b915060208381013567ffffffffffffffff808211156159ca57600080fd5b818601915086601f8301126159de57600080fd5b8135818111156159f0576159f061531c565b615a02601f8201601f1916850161537e565b91508082528784828501011115615a1857600080fd5b80848401858401376000848284010152508093505050509250929050565b80356001600160601b0381168114610d2357600080fd5b600060208284031215615a5f57600080fd5b610bd782615a36565b60008151808452602080850194506020840160005b83811015615aa357615a90878351615284565b60e0969096019590820190600101615a7d565b509495945050505050565b60208152615ac0602082018351615803565b602082015161024082810152600090613c62610260840182615a68565b60008060408385031215615af057600080fd5b8235615afb816153af565b946020939093013593505050565b8151815260208083015115159082015260408083015115159082015260608101610bda565b600060208284031215615b4057600080fd5b8135610892816153af565b60008060408385031215615b5e57600080fd5b8235615b69816153af565b91506156d960208401615a36565b6020808252825182820181905260009190848201906040850190845b81811015615bb457615ba683855161553c565b938501939250600101615b93565b50909695505050505050565b6102208101610bda8284615803565b600060208284031215615be157600080fd5b8151610892816153af565b634e487b7160e01b600052603260045260246000fd5b600060208284031215615c1457600080fd5b8151610892816156e2565b634e487b7160e01b600052600160045260246000fd5b600181811c90821680615c4957607f821691505b602082108103610b6257634e487b7160e01b600052602260045260246000fd5b601f8211156138d7576000816000526020600020601f850160051c81016020861015615c925750805b601f850160051c820191505b81811015612a7b57828155600101615c9e565b815167ffffffffffffffff811115615ccb57615ccb61531c565b615cdf81615cd98454615c35565b84615c69565b602080601f831160018114615d145760008415615cfc5750858301515b600019600386901b1c1916600185901b178555612a7b565b600085815260208120601f198616915b82811015615d4357888601518255948401946001909101908401615d24565b5085821015615d615787850151600019600388901b60f8161c191681555b5050505050600190811b01905550565b634e487b7160e01b600052601160045260246000fd5b80820180821115610bda57610bda615d71565b634e487b7160e01b600052601260045260246000fd5b60006020808352835180602085015260005b81811015615dde57858101830151858201604001528201615dc2565b506000604082860101526040601f19601f8301168501019250505092915050565b600060208284031215615e1157600080fd5b5051919050565b60408152615e326040820184516001600160a01b03169052565b60006020840151615e4e60608401826001600160a01b03169052565b5060408401516080830152606084015160a08301526080840151615e7660c084018215159052565b5060a08401516101408060e0850152615e93610180850183615a68565b915060c0860151610100615eaa8187018315159052565b60e08801519150610120615ec8818801846001600160a01b03169052565b908801516001600160601b0316928601929092525094909401516001600160a01b0316610160830152506020015290565b600060ff821660ff8103615f0f57615f0f615d71565b60010192915050565b80516001600160801b0381168114610d2357600080fd5b60008060408385031215615f4257600080fd5b615f4b83615f18565b91506156d960208401615f1856fe5072696e636970616c2073686f756c642062652067726561746572207468616e203130303030a2646970667358221220dff08febb61aa04edc55b3019c4f416c84a0e64811febd410b6deafcd27f02c764736f6c63430008180033",
  "devdoc": {
    "author": "Simplifi (Bobeu)",
    "errors": {
      "EnforcedPause()": [
        {
          "details": "The operation failed because the contract is paused."
        }
      ],
      "ExpectedPause()": [
        {
          "details": "The operation failed because the contract is not paused."
        }
      ]
    },
    "events": {
      "Paused(address)": {
        "details": "Emitted when the pause is triggered by `account`."
      },
      "Unpaused(address)": {
        "details": "Emitted when the pause is lifted by `account`."
      }
    },
    "kind": "dev",
    "methods": {
      "activateReward()": {
        "details": "Activate reward"
      },
      "closePool(uint256)": {
        "details": "Cancels a pool. Only pool with one contributor can be close.",
        "params": {
          "unit": ": Unit contribution."
        }
      },
      "constructor": {
        "params": {
          "_assetManager": ": Asset manager contract",
          "_baseAsset": ": ERC20 compatible asset to use as base contribution",
          "_feeTo": ": Fee receiver",
          "_pointFactory": ": Platform fee",
          "_roleManager": ": Role manager contract"
        }
      },
      "contribute(uint256)": {
        "details": "Add a contributor to a poool",
        "params": {
          "": ": Unit contribution"
        }
      },
      "contributeThroughProvider((uint256,uint256,uint256,uint256,address,(uint256,uint256))[],address,uint256)": {
        "details": "Contributors can join a pool through a provider is they wish to borrow to finance the unit contribution.      If the unit is not taken, we add them to the pool otherwise a new pool will be launched.",
        "params": {
          "borrower": ": Account address of the borrower",
          "providers": ": List of providers that lend to the borrower",
          "unit": ": Amount borrowed will automatically be the unit contribution"
        }
      },
      "createPool(address[],uint256,uint8,uint16,uint24,bool,address)": {
        "details": "Create a pool internally",
        "params": {
          "colAsset": ": An ERC20-compatible asset to use as collateral currency ",
          "colCoverage": ": Ration of collateral coverage or index required as cover for loan",
          "durationInHours": ": Maximum duration in hours each borrower can retain the loan",
          "isPermissionless": ": Whether to create a permissionless or permissioned pool.",
          "maxQuorum": ": Maximum number of contributors that can participate",
          "unit": ": Unit contribution",
          "users": ": List of participating accounts"
        }
      },
      "deactivateReward()": {
        "details": "Deactivate reward"
      },
      "editPool(uint256,uint8,uint16,uint24)": {
        "details": "Edit pool information",
        "params": {
          "colCoverage": ": Collateral coverage or ratio.",
          "durationInHours": ": Number of time in hours each contributor can retain the loan",
          "maxQuorum": ": Number of expected participants",
          "unit": ": Unit contribution"
        }
      },
      "enquireLiquidation(uint256)": {
        "details": "Check liquidation opportunity in the pool",
        "params": {
          "unit": ": Unit contribution"
        }
      },
      "getCollateralQuote(uint256)": {
        "details": "Returns amount of collateral required in a pool.",
        "params": {
          "unit": ": EpochId"
        },
        "returns": {
          "colCoverage": "Collateral coverage",
          "collateral": "Collateral"
        }
      },
      "getContributorProviders(address,uint96)": {
        "details": "Return providers associated with the target account",
        "params": {
          "recordId": ": Record id",
          "target": ": Target account"
        }
      },
      "getCurrentDebt(uint256)": {
        "params": {
          "unit": ": Unit contribution"
        }
      },
      "getEpoches()": {
        "details": "Return Current epoches "
      },
      "getFactoryData()": {
        "details": "Return contract data "
      },
      "getFinance(uint256)": {
        "details": "Get finance",
        "params": {
          "unit": ": Unit contribution"
        },
        "returns": {
          "_0": "bool : Success or Failure"
        }
      },
      "getPastEpoches()": {
        "details": "Return Past epoches "
      },
      "getPoolData(uint256)": {
        "details": "Return past pools using unitId. ",
        "params": {
          "unit": ": UnitId "
        }
      },
      "getPoolRecord(uint96)": {
        "details": "Return past pools using unitId. ",
        "params": {
          "recordId": ": Record Id"
        }
      },
      "getProfile(uint256,address)": {
        "details": "Returns the profile of target",
        "params": {
          "target": ": User",
          "unit": ": unit contribution"
        }
      },
      "isPoolAvailable(uint256)": {
        "details": "Get pool from storage",
        "params": {
          "unit": ": Unit contribution"
        }
      },
      "liquidate(uint256)": {
        "details": "Liquidates a borrower if they have defaulted in repaying their loan. - If the current beneficiary defaults, they're liquidated. - Their collateral balances is forwarded to the liquidator. Liquidator also takes the full  responsibilities of the providers if any. - Liquidator must not be a participant in pool at `unitId. We use this  to avoid fatal error in storage.",
        "params": {
          "unit": ": Unit contribution."
        }
      },
      "pause()": {
        "details": "Triggers stopped state. Requirements: Only owner role can call. - The contract must not be paused."
      },
      "paused()": {
        "details": "Returns true if the contract is paused, and false otherwise."
      },
      "payback(uint256)": {
        "details": "Payback. For detailed documentation, see _payback",
        "params": {
          "unit": ": Unit contribution"
        }
      },
      "setFeeOrMakerRate(address,uint16)": {
        "details": "Set fee or maker rate. The status of the value parsed determines which to update.",
        "params": {
          "_feeTo": ": Fee receiving account. ",
          "_makerRate": ": Platform fee (in %)"
        }
      },
      "setPair(address,string)": {
        "details": "Map collateral asset to their corresponding pair for price retrieval",
        "params": {
          "collateralAsset": ": ERC20 compatible asset",
          "pair": ": Price pair e.g cUSD/USDT"
        }
      },
      "setRoleManager(address)": {
        "params": {
          "newManager": ": New manager address"
        }
      },
      "unpause()": {
        "details": "Returns to normal state. Requirements: - Only owner role can call. - The contract must be paused."
      }
    },
    "title": "FlexpoolFactory",
    "version": 1
  },
  "userdoc": {
    "kind": "user",
    "methods": {
      "closePool(uint256)": {
        "notice": ": Only the creator of a pool can close it provided the number of contributors does not exceed one."
      },
      "constructor": {
        "notice": "================ Constructor =============="
      },
      "contributeThroughProvider((uint256,uint256,uint256,uint256,address,(uint256,uint256))[],address,uint256)": {
        "notice": "By default, maxQuorum is set to 2 using this method. Users can immediately change the quorum to desired value otherwise it will not be possible if another contributor joins to complete the quorum. - durationInHrs is set to 72 hours by default. - colCoverage is set to 120 by default. Only accounts with the roleBearer are allowed i.e Ex. Providers contract"
      },
      "createPool(address[],uint256,uint8,uint16,uint24,bool,address)": {
        "notice": "users list should be a list of participating accounts if it is permissioned including the creator being the first on the list. But the list can be empty if it is permissionless."
      },
      "getCurrentDebt(uint256)": {
        "notice": "Returns the current debt of target user."
      },
      "getFinance(uint256)": {
        "notice": ": To get finance, the unit contribution must be active. In the event the expected contributor failed to  call, we swap their profile for the current msg.sender provided the grace period of 1hr has passed."
      },
      "getPoolData(uint256)": {
        "notice": "The correct unitId must be parsed. "
      },
      "getPoolRecord(uint96)": {
        "notice": "The correct unitId must be parsed. The record id can be obtained by iterating over the past epoches. Using the record Id associated with the current pool will return empty pool but may not return empty contributors."
      },
      "setFeeOrMakerRate(address,uint16)": {
        "notice": ": For detailed doc on setting maker rate, see Utils.sol._getPercentage()"
      },
      "setPair(address,string)": {
        "notice": "Collateral asset must be supported"
      },
      "setRoleManager(address)": {
        "notice": "Set Role manager"
      }
    },
    "notice": "Deployable FlexpoolFactory contract that enables peer-funding. Participants of each pool are referred to  contributors. There is no limit to the amount that can be contributed except for zer0 value. Users can single-handedly run a pool (where anyone is free to participate) or collectively with friends and family or peer operate a permissioned pool  where participation is restricted to the preset members only. Users can use providers strategy to finance their quota if they can't afford the unit contribution. They can select multiple providers if the provider balance cannot the amount they wish to borrow. If this is the case, the selected providers are  entitled to earn interest on the amount they provide. When paying back, the contributor will repay the full loan with interest but halved for other contributors.  ",
    "version": 1
  },
  "storageLayout": {
    "storage": [
      {
        "astId": 4010,
        "contract": "contracts/standalone/celo/FlexpoolFactory.sol:FlexpoolFactory",
        "label": "pastEpoches",
        "offset": 0,
        "slot": "0",
        "type": "t_struct(Counter)470_storage"
      },
      {
        "astId": 4015,
        "contract": "contracts/standalone/celo/FlexpoolFactory.sol:FlexpoolFactory",
        "label": "records",
        "offset": 0,
        "slot": "1",
        "type": "t_mapping(t_uint96,t_struct(Pool)610_storage)"
      },
      {
        "astId": 3402,
        "contract": "contracts/standalone/celo/FlexpoolFactory.sol:FlexpoolFactory",
        "label": "epoches",
        "offset": 0,
        "slot": "2",
        "type": "t_struct(Counter)470_storage"
      },
      {
        "astId": 3407,
        "contract": "contracts/standalone/celo/FlexpoolFactory.sol:FlexpoolFactory",
        "label": "pools",
        "offset": 0,
        "slot": "3",
        "type": "t_mapping(t_uint96,t_struct(Pool)610_storage)"
      },
      {
        "astId": 3412,
        "contract": "contracts/standalone/celo/FlexpoolFactory.sol:FlexpoolFactory",
        "label": "indexes",
        "offset": 0,
        "slot": "4",
        "type": "t_mapping(t_uint256,t_uint96)"
      },
      {
        "astId": 5822,
        "contract": "contracts/standalone/celo/FlexpoolFactory.sol:FlexpoolFactory",
        "label": "slots",
        "offset": 0,
        "slot": "5",
        "type": "t_mapping(t_address,t_mapping(t_uint256,t_struct(Slot)722_storage))"
      },
      {
        "astId": 3896,
        "contract": "contracts/standalone/celo/FlexpoolFactory.sol:FlexpoolFactory",
        "label": "roleManager",
        "offset": 0,
        "slot": "6",
        "type": "t_contract(IRoleBase)1093"
      },
      {
        "astId": 4091,
        "contract": "contracts/standalone/celo/FlexpoolFactory.sol:FlexpoolFactory",
        "label": "_paused",
        "offset": 20,
        "slot": "6",
        "type": "t_bool"
      },
      {
        "astId": 5766,
        "contract": "contracts/standalone/celo/FlexpoolFactory.sol:FlexpoolFactory",
        "label": "safes",
        "offset": 0,
        "slot": "7",
        "type": "t_mapping(t_uint256,t_address)"
      },
      {
        "astId": 4865,
        "contract": "contracts/standalone/celo/FlexpoolFactory.sol:FlexpoolFactory",
        "label": "pairs",
        "offset": 0,
        "slot": "8",
        "type": "t_mapping(t_contract(IERC20)963,t_string_storage)"
      },
      {
        "astId": 1502,
        "contract": "contracts/standalone/celo/FlexpoolFactory.sol:FlexpoolFactory",
        "label": "awardPoint",
        "offset": 0,
        "slot": "9",
        "type": "t_bool"
      },
      {
        "astId": 1689,
        "contract": "contracts/standalone/celo/FlexpoolFactory.sol:FlexpoolFactory",
        "label": "contributors",
        "offset": 0,
        "slot": "10",
        "type": "t_mapping(t_uint96,t_array(t_struct(Contributor)671_storage)dyn_storage)"
      },
      {
        "astId": 1698,
        "contract": "contracts/standalone/celo/FlexpoolFactory.sol:FlexpoolFactory",
        "label": "unitProviders",
        "offset": 0,
        "slot": "11",
        "type": "t_mapping(t_uint96,t_mapping(t_address,t_array(t_struct(Provider)690_storage)dyn_storage))"
      },
      {
        "astId": 3689,
        "contract": "contracts/standalone/celo/FlexpoolFactory.sol:FlexpoolFactory",
        "label": "feeTo",
        "offset": 0,
        "slot": "12",
        "type": "t_address"
      },
      {
        "astId": 3691,
        "contract": "contracts/standalone/celo/FlexpoolFactory.sol:FlexpoolFactory",
        "label": "makerRate",
        "offset": 0,
        "slot": "13",
        "type": "t_uint256"
      },
      {
        "astId": 6439,
        "contract": "contracts/standalone/celo/FlexpoolFactory.sol:FlexpoolFactory",
        "label": "analytics",
        "offset": 0,
        "slot": "14",
        "type": "t_struct(Analytics)768_storage"
      }
    ],
    "types": {
      "t_address": {
        "encoding": "inplace",
        "label": "address",
        "numberOfBytes": "20"
      },
      "t_array(t_struct(Contributor)671_storage)dyn_storage": {
        "base": "t_struct(Contributor)671_storage",
        "encoding": "dynamic_array",
        "label": "struct Common.Contributor[]",
        "numberOfBytes": "32"
      },
      "t_array(t_struct(Provider)690_storage)dyn_storage": {
        "base": "t_struct(Provider)690_storage",
        "encoding": "dynamic_array",
        "label": "struct Common.Provider[]",
        "numberOfBytes": "32"
      },
      "t_bool": {
        "encoding": "inplace",
        "label": "bool",
        "numberOfBytes": "1"
      },
      "t_contract(IERC20)963": {
        "encoding": "inplace",
        "label": "contract IERC20",
        "numberOfBytes": "20"
      },
      "t_contract(IRoleBase)1093": {
        "encoding": "inplace",
        "label": "contract IRoleBase",
        "numberOfBytes": "20"
      },
      "t_enum(Router)591": {
        "encoding": "inplace",
        "label": "enum Common.Router",
        "numberOfBytes": "1"
      },
      "t_enum(Stage)582": {
        "encoding": "inplace",
        "label": "enum Common.Stage",
        "numberOfBytes": "1"
      },
      "t_enum(Status)585": {
        "encoding": "inplace",
        "label": "enum Common.Status",
        "numberOfBytes": "1"
      },
      "t_mapping(t_address,t_array(t_struct(Provider)690_storage)dyn_storage)": {
        "encoding": "mapping",
        "key": "t_address",
        "label": "mapping(address => struct Common.Provider[])",
        "numberOfBytes": "32",
        "value": "t_array(t_struct(Provider)690_storage)dyn_storage"
      },
      "t_mapping(t_address,t_mapping(t_uint256,t_struct(Slot)722_storage))": {
        "encoding": "mapping",
        "key": "t_address",
        "label": "mapping(address => mapping(uint256 => struct Common.Slot))",
        "numberOfBytes": "32",
        "value": "t_mapping(t_uint256,t_struct(Slot)722_storage)"
      },
      "t_mapping(t_contract(IERC20)963,t_string_storage)": {
        "encoding": "mapping",
        "key": "t_contract(IERC20)963",
        "label": "mapping(contract IERC20 => string)",
        "numberOfBytes": "32",
        "value": "t_string_storage"
      },
      "t_mapping(t_uint256,t_address)": {
        "encoding": "mapping",
        "key": "t_uint256",
        "label": "mapping(uint256 => address)",
        "numberOfBytes": "32",
        "value": "t_address"
      },
      "t_mapping(t_uint256,t_struct(Slot)722_storage)": {
        "encoding": "mapping",
        "key": "t_uint256",
        "label": "mapping(uint256 => struct Common.Slot)",
        "numberOfBytes": "32",
        "value": "t_struct(Slot)722_storage"
      },
      "t_mapping(t_uint256,t_uint96)": {
        "encoding": "mapping",
        "key": "t_uint256",
        "label": "mapping(uint256 => uint96)",
        "numberOfBytes": "32",
        "value": "t_uint96"
      },
      "t_mapping(t_uint96,t_array(t_struct(Contributor)671_storage)dyn_storage)": {
        "encoding": "mapping",
        "key": "t_uint96",
        "label": "mapping(uint96 => struct Common.Contributor[])",
        "numberOfBytes": "32",
        "value": "t_array(t_struct(Contributor)671_storage)dyn_storage"
      },
      "t_mapping(t_uint96,t_mapping(t_address,t_array(t_struct(Provider)690_storage)dyn_storage))": {
        "encoding": "mapping",
        "key": "t_uint96",
        "label": "mapping(uint96 => mapping(address => struct Common.Provider[]))",
        "numberOfBytes": "32",
        "value": "t_mapping(t_address,t_array(t_struct(Provider)690_storage)dyn_storage)"
      },
      "t_mapping(t_uint96,t_struct(Pool)610_storage)": {
        "encoding": "mapping",
        "key": "t_uint96",
        "label": "mapping(uint96 => struct Common.Pool)",
        "numberOfBytes": "32",
        "value": "t_struct(Pool)610_storage"
      },
      "t_string_storage": {
        "encoding": "bytes",
        "label": "string",
        "numberOfBytes": "32"
      },
      "t_struct(Addresses)655_storage": {
        "encoding": "inplace",
        "label": "struct Common.Addresses",
        "members": [
          {
            "astId": 648,
            "contract": "contracts/standalone/celo/FlexpoolFactory.sol:FlexpoolFactory",
            "label": "colAsset",
            "offset": 0,
            "slot": "0",
            "type": "t_contract(IERC20)963"
          },
          {
            "astId": 650,
            "contract": "contracts/standalone/celo/FlexpoolFactory.sol:FlexpoolFactory",
            "label": "lastPaid",
            "offset": 0,
            "slot": "1",
            "type": "t_address"
          },
          {
            "astId": 652,
            "contract": "contracts/standalone/celo/FlexpoolFactory.sol:FlexpoolFactory",
            "label": "safe",
            "offset": 0,
            "slot": "2",
            "type": "t_address"
          },
          {
            "astId": 654,
            "contract": "contracts/standalone/celo/FlexpoolFactory.sol:FlexpoolFactory",
            "label": "admin",
            "offset": 0,
            "slot": "3",
            "type": "t_address"
          }
        ],
        "numberOfBytes": "128"
      },
      "t_struct(Analytics)768_storage": {
        "encoding": "inplace",
        "label": "struct Common.Analytics",
        "members": [
          {
            "astId": 761,
            "contract": "contracts/standalone/celo/FlexpoolFactory.sol:FlexpoolFactory",
            "label": "tvlCollateral",
            "offset": 0,
            "slot": "0",
            "type": "t_uint256"
          },
          {
            "astId": 763,
            "contract": "contracts/standalone/celo/FlexpoolFactory.sol:FlexpoolFactory",
            "label": "tvlBase",
            "offset": 0,
            "slot": "1",
            "type": "t_uint256"
          },
          {
            "astId": 765,
            "contract": "contracts/standalone/celo/FlexpoolFactory.sol:FlexpoolFactory",
            "label": "totalPermissioned",
            "offset": 0,
            "slot": "2",
            "type": "t_uint256"
          },
          {
            "astId": 767,
            "contract": "contracts/standalone/celo/FlexpoolFactory.sol:FlexpoolFactory",
            "label": "totalPermissionless",
            "offset": 0,
            "slot": "3",
            "type": "t_uint256"
          }
        ],
        "numberOfBytes": "128"
      },
      "t_struct(Big)632_storage": {
        "encoding": "inplace",
        "label": "struct Common.Big",
        "members": [
          {
            "astId": 625,
            "contract": "contracts/standalone/celo/FlexpoolFactory.sol:FlexpoolFactory",
            "label": "unit",
            "offset": 0,
            "slot": "0",
            "type": "t_uint256"
          },
          {
            "astId": 627,
            "contract": "contracts/standalone/celo/FlexpoolFactory.sol:FlexpoolFactory",
            "label": "currentPool",
            "offset": 0,
            "slot": "1",
            "type": "t_uint256"
          },
          {
            "astId": 629,
            "contract": "contracts/standalone/celo/FlexpoolFactory.sol:FlexpoolFactory",
            "label": "recordId",
            "offset": 0,
            "slot": "2",
            "type": "t_uint96"
          },
          {
            "astId": 631,
            "contract": "contracts/standalone/celo/FlexpoolFactory.sol:FlexpoolFactory",
            "label": "unitId",
            "offset": 12,
            "slot": "2",
            "type": "t_uint96"
          }
        ],
        "numberOfBytes": "96"
      },
      "t_struct(Contributor)671_storage": {
        "encoding": "inplace",
        "label": "struct Common.Contributor",
        "members": [
          {
            "astId": 658,
            "contract": "contracts/standalone/celo/FlexpoolFactory.sol:FlexpoolFactory",
            "label": "paybackTime",
            "offset": 0,
            "slot": "0",
            "type": "t_uint32"
          },
          {
            "astId": 660,
            "contract": "contracts/standalone/celo/FlexpoolFactory.sol:FlexpoolFactory",
            "label": "turnStartTime",
            "offset": 4,
            "slot": "0",
            "type": "t_uint32"
          },
          {
            "astId": 662,
            "contract": "contracts/standalone/celo/FlexpoolFactory.sol:FlexpoolFactory",
            "label": "getFinanceTime",
            "offset": 8,
            "slot": "0",
            "type": "t_uint32"
          },
          {
            "astId": 664,
            "contract": "contracts/standalone/celo/FlexpoolFactory.sol:FlexpoolFactory",
            "label": "loan",
            "offset": 0,
            "slot": "1",
            "type": "t_uint256"
          },
          {
            "astId": 666,
            "contract": "contracts/standalone/celo/FlexpoolFactory.sol:FlexpoolFactory",
            "label": "colBals",
            "offset": 0,
            "slot": "2",
            "type": "t_uint256"
          },
          {
            "astId": 668,
            "contract": "contracts/standalone/celo/FlexpoolFactory.sol:FlexpoolFactory",
            "label": "id",
            "offset": 0,
            "slot": "3",
            "type": "t_address"
          },
          {
            "astId": 670,
            "contract": "contracts/standalone/celo/FlexpoolFactory.sol:FlexpoolFactory",
            "label": "sentQuota",
            "offset": 20,
            "slot": "3",
            "type": "t_bool"
          }
        ],
        "numberOfBytes": "128"
      },
      "t_struct(Counter)470_storage": {
        "encoding": "inplace",
        "label": "struct Counters.Counter",
        "members": [
          {
            "astId": 469,
            "contract": "contracts/standalone/celo/FlexpoolFactory.sol:FlexpoolFactory",
            "label": "_value",
            "offset": 0,
            "slot": "0",
            "type": "t_uint256"
          }
        ],
        "numberOfBytes": "32"
      },
      "t_struct(Interest)644_storage": {
        "encoding": "inplace",
        "label": "struct Common.Interest",
        "members": [
          {
            "astId": 641,
            "contract": "contracts/standalone/celo/FlexpoolFactory.sol:FlexpoolFactory",
            "label": "fullInterest",
            "offset": 0,
            "slot": "0",
            "type": "t_uint256"
          },
          {
            "astId": 643,
            "contract": "contracts/standalone/celo/FlexpoolFactory.sol:FlexpoolFactory",
            "label": "intPerSec",
            "offset": 0,
            "slot": "1",
            "type": "t_uint256"
          }
        ],
        "numberOfBytes": "64"
      },
      "t_struct(Low)623_storage": {
        "encoding": "inplace",
        "label": "struct Common.Low",
        "members": [
          {
            "astId": 612,
            "contract": "contracts/standalone/celo/FlexpoolFactory.sol:FlexpoolFactory",
            "label": "maxQuorum",
            "offset": 0,
            "slot": "0",
            "type": "t_uint8"
          },
          {
            "astId": 614,
            "contract": "contracts/standalone/celo/FlexpoolFactory.sol:FlexpoolFactory",
            "label": "selector",
            "offset": 1,
            "slot": "0",
            "type": "t_uint8"
          },
          {
            "astId": 616,
            "contract": "contracts/standalone/celo/FlexpoolFactory.sol:FlexpoolFactory",
            "label": "colCoverage",
            "offset": 2,
            "slot": "0",
            "type": "t_uint24"
          },
          {
            "astId": 618,
            "contract": "contracts/standalone/celo/FlexpoolFactory.sol:FlexpoolFactory",
            "label": "duration",
            "offset": 5,
            "slot": "0",
            "type": "t_uint32"
          },
          {
            "astId": 620,
            "contract": "contracts/standalone/celo/FlexpoolFactory.sol:FlexpoolFactory",
            "label": "allGh",
            "offset": 9,
            "slot": "0",
            "type": "t_uint8"
          },
          {
            "astId": 622,
            "contract": "contracts/standalone/celo/FlexpoolFactory.sol:FlexpoolFactory",
            "label": "userCount",
            "offset": 10,
            "slot": "0",
            "type": "t_uint8"
          }
        ],
        "numberOfBytes": "32"
      },
      "t_struct(Pool)610_storage": {
        "encoding": "inplace",
        "label": "struct Common.Pool",
        "members": [
          {
            "astId": 594,
            "contract": "contracts/standalone/celo/FlexpoolFactory.sol:FlexpoolFactory",
            "label": "low",
            "offset": 0,
            "slot": "0",
            "type": "t_struct(Low)623_storage"
          },
          {
            "astId": 597,
            "contract": "contracts/standalone/celo/FlexpoolFactory.sol:FlexpoolFactory",
            "label": "big",
            "offset": 0,
            "slot": "1",
            "type": "t_struct(Big)632_storage"
          },
          {
            "astId": 600,
            "contract": "contracts/standalone/celo/FlexpoolFactory.sol:FlexpoolFactory",
            "label": "addrs",
            "offset": 0,
            "slot": "4",
            "type": "t_struct(Addresses)655_storage"
          },
          {
            "astId": 603,
            "contract": "contracts/standalone/celo/FlexpoolFactory.sol:FlexpoolFactory",
            "label": "router",
            "offset": 0,
            "slot": "8",
            "type": "t_enum(Router)591"
          },
          {
            "astId": 606,
            "contract": "contracts/standalone/celo/FlexpoolFactory.sol:FlexpoolFactory",
            "label": "stage",
            "offset": 1,
            "slot": "8",
            "type": "t_enum(Stage)582"
          },
          {
            "astId": 609,
            "contract": "contracts/standalone/celo/FlexpoolFactory.sol:FlexpoolFactory",
            "label": "status",
            "offset": 2,
            "slot": "8",
            "type": "t_enum(Status)585"
          }
        ],
        "numberOfBytes": "288"
      },
      "t_struct(Provider)690_storage": {
        "encoding": "inplace",
        "label": "struct Common.Provider",
        "members": [
          {
            "astId": 678,
            "contract": "contracts/standalone/celo/FlexpoolFactory.sol:FlexpoolFactory",
            "label": "slot",
            "offset": 0,
            "slot": "0",
            "type": "t_uint256"
          },
          {
            "astId": 680,
            "contract": "contracts/standalone/celo/FlexpoolFactory.sol:FlexpoolFactory",
            "label": "amount",
            "offset": 0,
            "slot": "1",
            "type": "t_uint256"
          },
          {
            "astId": 682,
            "contract": "contracts/standalone/celo/FlexpoolFactory.sol:FlexpoolFactory",
            "label": "rate",
            "offset": 0,
            "slot": "2",
            "type": "t_uint256"
          },
          {
            "astId": 684,
            "contract": "contracts/standalone/celo/FlexpoolFactory.sol:FlexpoolFactory",
            "label": "earnStartDate",
            "offset": 0,
            "slot": "3",
            "type": "t_uint256"
          },
          {
            "astId": 686,
            "contract": "contracts/standalone/celo/FlexpoolFactory.sol:FlexpoolFactory",
            "label": "account",
            "offset": 0,
            "slot": "4",
            "type": "t_address"
          },
          {
            "astId": 689,
            "contract": "contracts/standalone/celo/FlexpoolFactory.sol:FlexpoolFactory",
            "label": "accruals",
            "offset": 0,
            "slot": "5",
            "type": "t_struct(Interest)644_storage"
          }
        ],
        "numberOfBytes": "224"
      },
      "t_struct(Slot)722_storage": {
        "encoding": "inplace",
        "label": "struct Common.Slot",
        "members": [
          {
            "astId": 717,
            "contract": "contracts/standalone/celo/FlexpoolFactory.sol:FlexpoolFactory",
            "label": "value",
            "offset": 0,
            "slot": "0",
            "type": "t_uint256"
          },
          {
            "astId": 719,
            "contract": "contracts/standalone/celo/FlexpoolFactory.sol:FlexpoolFactory",
            "label": "isMember",
            "offset": 0,
            "slot": "1",
            "type": "t_bool"
          },
          {
            "astId": 721,
            "contract": "contracts/standalone/celo/FlexpoolFactory.sol:FlexpoolFactory",
            "label": "isAdmin",
            "offset": 1,
            "slot": "1",
            "type": "t_bool"
          }
        ],
        "numberOfBytes": "64"
      },
      "t_uint24": {
        "encoding": "inplace",
        "label": "uint24",
        "numberOfBytes": "3"
      },
      "t_uint256": {
        "encoding": "inplace",
        "label": "uint256",
        "numberOfBytes": "32"
      },
      "t_uint32": {
        "encoding": "inplace",
        "label": "uint32",
        "numberOfBytes": "4"
      },
      "t_uint8": {
        "encoding": "inplace",
        "label": "uint8",
        "numberOfBytes": "1"
      },
      "t_uint96": {
        "encoding": "inplace",
        "label": "uint96",
        "numberOfBytes": "12"
      }
    }
  }
}