{
  "address": "0x76685868B6c270d081450c488372E04F6db11494",
  "abi": [
    {
      "inputs": [
        {
          "internalType": "contract IRoleBase",
          "name": "_roleManager",
          "type": "address"
        }
      ],
      "stateMutability": "nonpayable",
      "type": "constructor"
    },
    {
      "inputs": [
        {
          "internalType": "string",
          "name": "errorMsg",
          "type": "string"
        }
      ],
      "name": "ErrorOccurred",
      "type": "error"
    },
    {
      "inputs": [
        {
          "internalType": "address",
          "name": "user",
          "type": "address"
        },
        {
          "components": [
            {
              "internalType": "uint256",
              "name": "contributor",
              "type": "uint256"
            },
            {
              "internalType": "uint256",
              "name": "creator",
              "type": "uint256"
            },
            {
              "internalType": "uint256",
              "name": "referrals",
              "type": "uint256"
            }
          ],
          "internalType": "struct Common.Point",
          "name": "_point",
          "type": "tuple"
        }
      ],
      "name": "deductPoint",
      "outputs": [
        {
          "internalType": "bool",
          "name": "",
          "type": "bool"
        }
      ],
      "stateMutability": "nonpayable",
      "type": "function"
    },
    {
      "inputs": [
        {
          "internalType": "address",
          "name": "user",
          "type": "address"
        }
      ],
      "name": "getPoint",
      "outputs": [
        {
          "components": [
            {
              "internalType": "uint256",
              "name": "contributor",
              "type": "uint256"
            },
            {
              "internalType": "uint256",
              "name": "creator",
              "type": "uint256"
            },
            {
              "internalType": "uint256",
              "name": "referrals",
              "type": "uint256"
            }
          ],
          "internalType": "struct Common.Point",
          "name": "",
          "type": "tuple"
        }
      ],
      "stateMutability": "view",
      "type": "function"
    },
    {
      "inputs": [],
      "name": "getPoints",
      "outputs": [
        {
          "components": [
            {
              "internalType": "uint256",
              "name": "contributor",
              "type": "uint256"
            },
            {
              "internalType": "uint256",
              "name": "creator",
              "type": "uint256"
            },
            {
              "internalType": "uint256",
              "name": "referrals",
              "type": "uint256"
            }
          ],
          "internalType": "struct Common.Point[]",
          "name": "_points",
          "type": "tuple[]"
        }
      ],
      "stateMutability": "view",
      "type": "function"
    },
    {
      "inputs": [],
      "name": "registerToEarnPoints",
      "outputs": [],
      "stateMutability": "nonpayable",
      "type": "function"
    },
    {
      "inputs": [],
      "name": "roleManager",
      "outputs": [
        {
          "internalType": "contract IRoleBase",
          "name": "",
          "type": "address"
        }
      ],
      "stateMutability": "view",
      "type": "function"
    },
    {
      "inputs": [
        {
          "internalType": "address",
          "name": "user",
          "type": "address"
        },
        {
          "components": [
            {
              "internalType": "uint256",
              "name": "contributor",
              "type": "uint256"
            },
            {
              "internalType": "uint256",
              "name": "creator",
              "type": "uint256"
            },
            {
              "internalType": "uint256",
              "name": "referrals",
              "type": "uint256"
            }
          ],
          "internalType": "struct Common.Point",
          "name": "_point",
          "type": "tuple"
        }
      ],
      "name": "setPoint",
      "outputs": [
        {
          "internalType": "bool",
          "name": "",
          "type": "bool"
        }
      ],
      "stateMutability": "nonpayable",
      "type": "function"
    },
    {
      "inputs": [
        {
          "internalType": "address",
          "name": "newManager",
          "type": "address"
        }
      ],
      "name": "setRoleManager",
      "outputs": [
        {
          "internalType": "bool",
          "name": "",
          "type": "bool"
        }
      ],
      "stateMutability": "nonpayable",
      "type": "function"
    }
  ],
  "transactionHash": "0xdd567da7a7bf86f087384e3d0e96c35b70bdb8ba083b9ca6f196acc4716af03f",
  "args": [
    "0x79dF2FCc7DfDdc0C85Cc1f82B1f631b4b9D994B0"
  ],
  "numDeployments": 3,
  "solcInputHash": "4e1e658c7644f0768f5f1188ec220a54",
  "bytecode": "0x608060405234801561001057600080fd5b50604051610a71380380610a7183398101604081905261002f91610050565b600080546001600160a01b0319166001600160a01b03831617905550610080565b60006020828403121561006257600080fd5b81516001600160a01b038116811461007957600080fd5b9392505050565b6109e28061008f6000396000f3fe608060405234801561001057600080fd5b506004361061007c5760003560e01c8063dc5c14371161005b578063dc5c1437146100db578063f1d588c5146100fe578063f4b7095b14610111578063f7c8e5911461012657600080fd5b8062435da5146100815780634ff531b6146100b15780636bf2daaf146100d1575b600080fd5b600054610094906001600160a01b031681565b6040516001600160a01b0390911681526020015b60405180910390f35b6100c46100bf3660046107f2565b610139565b6040516100a89190610814565b6100d961016c565b005b6100ee6100e9366004610835565b6102a8565b60405190151581526020016100a8565b6100ee61010c3660046107f2565b6103b8565b6101196103e6565b6040516100a891906108c3565b6100ee610134366004610835565b610463565b61015d60405180606001604052806000815260200160008152602001600081525090565b61016682610608565b92915050565b336000908152600260209081526040918290208251808401909352805460ff161580158452600190910154918301919091526101d5576101d560405180604001604052806012815260200171155cd95c881a5cc81c9959da5cdd195c995960721b8152506106c2565b6001808252805460208084019182523360009081526002825260408082209551865460ff1916901515178655925194840194909455815160608101835284815290810184815260059282019283528354808501855593909452517fb10e2d527612073b26eecdfd717e6a320cf44b4afac2b0732d9fcbe2b7fa0cf660039093029283015591517fb10e2d527612073b26eecdfd717e6a320cf44b4afac2b0732d9fcbe2b7fa0cf782015590517fb10e2d527612073b26eecdfd717e6a320cf44b4afac2b0732d9fcbe2b7fa0cf890910155565b60006102b26106f0565b6001600160a01b0383166000908152600260209081526040918290208251808401909352805460ff161580158452600190910154918301919091526103ae5782511561032c578260000151600182602001518154811061031457610314610925565b60009182526020909120600390910201805490910190555b60208301511561036d578260200151600182602001518154811061035257610352610925565b60009182526020909120600160039092020101805490910190555b6040830151156103ae578260400151600182602001518154811061039357610393610925565b60009182526020909120600260039092020101805490910190555b5060019392505050565b60006103c26106f0565b600080546001600160a01b0319166001600160a01b0384161790555060015b919050565b60606001805480602002602001604051908101604052809291908181526020016000905b8282101561045a578382906000526020600020906003020160405180606001604052908160008201548152602001600182015481526020016002820154815250508152602001906001019061040a565b50505050905090565b600061046d6106f0565b6001600160a01b0383166000908152600260209081526040918290208251808401909352805460ff161580158452600190910154918301919091526103ae57600060018260200151815481106104c5576104c5610925565b90600052602060002090600302016040518060600160405290816000820154815260200160018201548152602001600282015481525050905060008460000151118015610513575083518151115b1561054d578060000151600183602001518154811061053457610534610925565b6000918252602090912060039091020180549190910390555b60008460200151118015610568575083602001518160200151115b156105a5578060200151600183602001518154811061058957610589610925565b6000918252602090912060016003909202010180549190910390555b600084604001511180156105c0575083604001518160400151115b156105fd57806040015160018360200151815481106105e1576105e1610925565b6000918252602090912060026003909202010180549190910390555b506001949350505050565b61062c60405180606001604052806000815260200160008152602001600081525090565b6001600160a01b0382166000908152600260209081526040918290208251808401909352805460ff161580158452600190910154918301919091526106bc57600181602001518154811061068257610682610925565b9060005260206000209060030201604051806060016040529081600082015481526020016001820154815260200160028201548152505091505b50919050565b8051156106ed578060405163cc86106360e01b81526004016106e4919061093b565b60405180910390fd5b50565b6000546001600160a01b031680610731576107316040518060400160405280600f81526020016e4d616e61676572206973207a65726f60881b8152506106c2565b61073a3361076c565b6106ed576106ed6040518060400160405280600d81526020016c1058d8d95cdcc819195b9a5959609a1b8152506106c2565b60008054604051633f784de560e11b81526001600160a01b03848116600483015290911690637ef09bca90602401602060405180830381865afa1580156107b7573d6000803e3d6000fd5b505050506040513d601f19601f82011682018060405250810190610166919061098a565b80356001600160a01b03811681146103e157600080fd5b60006020828403121561080457600080fd5b61080d826107db565b9392505050565b81518152602080830151908201526040808301519082015260608101610166565b600080828403608081121561084957600080fd5b610852846107db565b92506060601f198201121561086657600080fd5b506040516060810181811067ffffffffffffffff8211171561089857634e487b7160e01b600052604160045260246000fd5b8060405250602084013581526040840135602082015260608401356040820152809150509250929050565b6020808252825182820181905260009190848201906040850190845b81811015610919576109068385518051825260208082015190830152604090810151910152565b92840192606092909201916001016108df565b50909695505050505050565b634e487b7160e01b600052603260045260246000fd5b60006020808352835180602085015260005b818110156109695785810183015185820160400152820161094d565b506000604082860101526040601f19601f8301168501019250505092915050565b60006020828403121561099c57600080fd5b8151801515811461080d57600080fdfea2646970667358221220b0d14164bada040da9d5124f3a50f4e371ecb35d722673263b916d5fd95c080064736f6c63430008180033",
  "devdoc": {
    "kind": "dev",
    "methods": {
      "deductPoint(address,(uint256,uint256,uint256))": {
        "details": "Update points for the target user if they are already initialized otherwise create a new spot for them. ",
        "params": {
          "_point": ": Point struct containing essential data;",
          "user": ": Unit contribution"
        }
      },
      "getPoint(address)": {
        "details": "Returns the point See _getPoint"
      },
      "registerToEarnPoints()": {
        "details": "Register user to earn points"
      },
      "setPoint(address,(uint256,uint256,uint256))": {
        "details": "Update points for the target user if they are already initialized otherwise create a new spot for them. ",
        "params": {
          "_point": ": Point struct containing essential data;",
          "user": ": Unit contribution"
        }
      },
      "setRoleManager(address)": {
        "params": {
          "newManager": ": New manager address"
        }
      }
    },
    "version": 1
  },
  "userdoc": {
    "kind": "user",
    "methods": {
      "registerToEarnPoints()": {
        "notice": "Users automatically earn 5 points for signing up"
      },
      "setRoleManager(address)": {
        "notice": "Set Role manager"
      }
    },
    "version": 1
  },
  "storageLayout": {
    "storage": [
      {
        "astId": 3896,
        "contract": "contracts/standalone/Points.sol:Points",
        "label": "roleManager",
        "offset": 0,
        "slot": "0",
        "type": "t_contract(IRoleBase)1093"
      },
      {
        "astId": 5937,
        "contract": "contracts/standalone/Points.sol:Points",
        "label": "points",
        "offset": 0,
        "slot": "1",
        "type": "t_array(t_struct(Point)639_storage)dyn_storage"
      },
      {
        "astId": 5942,
        "contract": "contracts/standalone/Points.sol:Points",
        "label": "initializer",
        "offset": 0,
        "slot": "2",
        "type": "t_mapping(t_address,t_struct(Initializer)1026_storage)"
      }
    ],
    "types": {
      "t_address": {
        "encoding": "inplace",
        "label": "address",
        "numberOfBytes": "20"
      },
      "t_array(t_struct(Point)639_storage)dyn_storage": {
        "base": "t_struct(Point)639_storage",
        "encoding": "dynamic_array",
        "label": "struct Common.Point[]",
        "numberOfBytes": "32"
      },
      "t_bool": {
        "encoding": "inplace",
        "label": "bool",
        "numberOfBytes": "1"
      },
      "t_contract(IRoleBase)1093": {
        "encoding": "inplace",
        "label": "contract IRoleBase",
        "numberOfBytes": "20"
      },
      "t_mapping(t_address,t_struct(Initializer)1026_storage)": {
        "encoding": "mapping",
        "key": "t_address",
        "label": "mapping(address => struct IPoint.Initializer)",
        "numberOfBytes": "32",
        "value": "t_struct(Initializer)1026_storage"
      },
      "t_struct(Initializer)1026_storage": {
        "encoding": "inplace",
        "label": "struct IPoint.Initializer",
        "members": [
          {
            "astId": 1023,
            "contract": "contracts/standalone/Points.sol:Points",
            "label": "isRegistered",
            "offset": 0,
            "slot": "0",
            "type": "t_bool"
          },
          {
            "astId": 1025,
            "contract": "contracts/standalone/Points.sol:Points",
            "label": "location",
            "offset": 0,
            "slot": "1",
            "type": "t_uint256"
          }
        ],
        "numberOfBytes": "64"
      },
      "t_struct(Point)639_storage": {
        "encoding": "inplace",
        "label": "struct Common.Point",
        "members": [
          {
            "astId": 634,
            "contract": "contracts/standalone/Points.sol:Points",
            "label": "contributor",
            "offset": 0,
            "slot": "0",
            "type": "t_uint256"
          },
          {
            "astId": 636,
            "contract": "contracts/standalone/Points.sol:Points",
            "label": "creator",
            "offset": 0,
            "slot": "1",
            "type": "t_uint256"
          },
          {
            "astId": 638,
            "contract": "contracts/standalone/Points.sol:Points",
            "label": "referrals",
            "offset": 0,
            "slot": "2",
            "type": "t_uint256"
          }
        ],
        "numberOfBytes": "96"
      },
      "t_uint256": {
        "encoding": "inplace",
        "label": "uint256",
        "numberOfBytes": "32"
      }
    }
  }
}