{
  "address": "0x74C073D9d460458f2703cc27e6eD39fe3270a602",
  "abi": [
    {
      "inputs": [
        {
          "internalType": "contract IFactory",
          "name": "_flexpoolFactory",
          "type": "address"
        },
        {
          "internalType": "contract IRoleBase",
          "name": "_roleManager",
          "type": "address"
        },
        {
          "internalType": "contract IERC20",
          "name": "_baseAsset",
          "type": "address"
        },
        {
          "internalType": "contract ISupportedAsset",
          "name": "_assetManager",
          "type": "address"
        },
        {
          "internalType": "contract ISafeFactory",
          "name": "_safeFactory",
          "type": "address"
        }
      ],
      "stateMutability": "nonpayable",
      "type": "constructor"
    },
    {
      "inputs": [],
      "name": "EnforcedPause",
      "type": "error"
    },
    {
      "inputs": [
        {
          "internalType": "string",
          "name": "errorMsg",
          "type": "string"
        }
      ],
      "name": "ErrorOccurred",
      "type": "error"
    },
    {
      "inputs": [],
      "name": "ExpectedPause",
      "type": "error"
    },
    {
      "inputs": [],
      "name": "ReentrancyGuardReentrantCall",
      "type": "error"
    },
    {
      "anonymous": false,
      "inputs": [
        {
          "components": [
            {
              "internalType": "uint256",
              "name": "slot",
              "type": "uint256"
            },
            {
              "internalType": "uint256",
              "name": "amount",
              "type": "uint256"
            },
            {
              "internalType": "uint256",
              "name": "rate",
              "type": "uint256"
            },
            {
              "internalType": "uint256",
              "name": "earnStartDate",
              "type": "uint256"
            },
            {
              "internalType": "address",
              "name": "account",
              "type": "address"
            },
            {
              "components": [
                {
                  "internalType": "uint256",
                  "name": "fullInterest",
                  "type": "uint256"
                },
                {
                  "internalType": "uint256",
                  "name": "intPerSec",
                  "type": "uint256"
                }
              ],
              "internalType": "struct Common.Interest",
              "name": "accruals",
              "type": "tuple"
            }
          ],
          "indexed": false,
          "internalType": "struct Common.Provider[]",
          "name": "providers",
          "type": "tuple[]"
        },
        {
          "indexed": false,
          "internalType": "address",
          "name": "borrower",
          "type": "address"
        }
      ],
      "name": "Borrowed",
      "type": "event"
    },
    {
      "anonymous": false,
      "inputs": [
        {
          "components": [
            {
              "internalType": "uint256",
              "name": "slot",
              "type": "uint256"
            },
            {
              "internalType": "uint256",
              "name": "amount",
              "type": "uint256"
            },
            {
              "internalType": "uint256",
              "name": "rate",
              "type": "uint256"
            },
            {
              "internalType": "uint256",
              "name": "earnStartDate",
              "type": "uint256"
            },
            {
              "internalType": "address",
              "name": "account",
              "type": "address"
            },
            {
              "components": [
                {
                  "internalType": "uint256",
                  "name": "fullInterest",
                  "type": "uint256"
                },
                {
                  "internalType": "uint256",
                  "name": "intPerSec",
                  "type": "uint256"
                }
              ],
              "internalType": "struct Common.Interest",
              "name": "accruals",
              "type": "tuple"
            }
          ],
          "indexed": false,
          "internalType": "struct Common.Provider",
          "name": "",
          "type": "tuple"
        }
      ],
      "name": "LiquidityProvided",
      "type": "event"
    },
    {
      "anonymous": false,
      "inputs": [
        {
          "components": [
            {
              "internalType": "uint256",
              "name": "slot",
              "type": "uint256"
            },
            {
              "internalType": "uint256",
              "name": "amount",
              "type": "uint256"
            },
            {
              "internalType": "uint256",
              "name": "rate",
              "type": "uint256"
            },
            {
              "internalType": "uint256",
              "name": "earnStartDate",
              "type": "uint256"
            },
            {
              "internalType": "address",
              "name": "account",
              "type": "address"
            },
            {
              "components": [
                {
                  "internalType": "uint256",
                  "name": "fullInterest",
                  "type": "uint256"
                },
                {
                  "internalType": "uint256",
                  "name": "intPerSec",
                  "type": "uint256"
                }
              ],
              "internalType": "struct Common.Interest",
              "name": "accruals",
              "type": "tuple"
            }
          ],
          "indexed": false,
          "internalType": "struct Common.Provider",
          "name": "",
          "type": "tuple"
        }
      ],
      "name": "LiquidityRemoved",
      "type": "event"
    },
    {
      "anonymous": false,
      "inputs": [
        {
          "indexed": false,
          "internalType": "address",
          "name": "account",
          "type": "address"
        }
      ],
      "name": "Paused",
      "type": "event"
    },
    {
      "anonymous": false,
      "inputs": [
        {
          "indexed": false,
          "internalType": "address",
          "name": "account",
          "type": "address"
        }
      ],
      "name": "Unpaused",
      "type": "event"
    },
    {
      "inputs": [],
      "name": "assetManager",
      "outputs": [
        {
          "internalType": "contract ISupportedAsset",
          "name": "",
          "type": "address"
        }
      ],
      "stateMutability": "view",
      "type": "function"
    },
    {
      "inputs": [],
      "name": "baseAsset",
      "outputs": [
        {
          "internalType": "contract IERC20",
          "name": "",
          "type": "address"
        }
      ],
      "stateMutability": "view",
      "type": "function"
    },
    {
      "inputs": [
        {
          "internalType": "uint256[]",
          "name": "providersSlots",
          "type": "uint256[]"
        },
        {
          "internalType": "uint256",
          "name": "amount",
          "type": "uint256"
        }
      ],
      "name": "borrow",
      "outputs": [
        {
          "internalType": "bool",
          "name": "",
          "type": "bool"
        }
      ],
      "stateMutability": "nonpayable",
      "type": "function"
    },
    {
      "inputs": [],
      "name": "flexpoolFactory",
      "outputs": [
        {
          "internalType": "contract IFactory",
          "name": "",
          "type": "address"
        }
      ],
      "stateMutability": "view",
      "type": "function"
    },
    {
      "inputs": [],
      "name": "getProviders",
      "outputs": [
        {
          "components": [
            {
              "internalType": "uint256",
              "name": "slot",
              "type": "uint256"
            },
            {
              "internalType": "uint256",
              "name": "amount",
              "type": "uint256"
            },
            {
              "internalType": "uint256",
              "name": "rate",
              "type": "uint256"
            },
            {
              "internalType": "uint256",
              "name": "earnStartDate",
              "type": "uint256"
            },
            {
              "internalType": "address",
              "name": "account",
              "type": "address"
            },
            {
              "components": [
                {
                  "internalType": "uint256",
                  "name": "fullInterest",
                  "type": "uint256"
                },
                {
                  "internalType": "uint256",
                  "name": "intPerSec",
                  "type": "uint256"
                }
              ],
              "internalType": "struct Common.Interest",
              "name": "accruals",
              "type": "tuple"
            }
          ],
          "internalType": "struct Common.Provider[]",
          "name": "prov",
          "type": "tuple[]"
        }
      ],
      "stateMutability": "view",
      "type": "function"
    },
    {
      "inputs": [],
      "name": "minimumLiquidity",
      "outputs": [
        {
          "internalType": "uint256",
          "name": "",
          "type": "uint256"
        }
      ],
      "stateMutability": "view",
      "type": "function"
    },
    {
      "inputs": [],
      "name": "pause",
      "outputs": [],
      "stateMutability": "nonpayable",
      "type": "function"
    },
    {
      "inputs": [],
      "name": "paused",
      "outputs": [
        {
          "internalType": "bool",
          "name": "",
          "type": "bool"
        }
      ],
      "stateMutability": "view",
      "type": "function"
    },
    {
      "inputs": [
        {
          "internalType": "uint16",
          "name": "rate",
          "type": "uint16"
        }
      ],
      "name": "provideLiquidity",
      "outputs": [
        {
          "internalType": "bool",
          "name": "",
          "type": "bool"
        }
      ],
      "stateMutability": "nonpayable",
      "type": "function"
    },
    {
      "inputs": [],
      "name": "removeLiquidity",
      "outputs": [
        {
          "internalType": "bool",
          "name": "",
          "type": "bool"
        }
      ],
      "stateMutability": "nonpayable",
      "type": "function"
    },
    {
      "inputs": [],
      "name": "roleManager",
      "outputs": [
        {
          "internalType": "contract IRoleBase",
          "name": "",
          "type": "address"
        }
      ],
      "stateMutability": "view",
      "type": "function"
    },
    {
      "inputs": [],
      "name": "safeFactory",
      "outputs": [
        {
          "internalType": "contract ISafeFactory",
          "name": "",
          "type": "address"
        }
      ],
      "stateMutability": "view",
      "type": "function"
    },
    {
      "inputs": [
        {
          "internalType": "uint256",
          "name": "_minLiquidity",
          "type": "uint256"
        }
      ],
      "name": "setMinimumLiquidity",
      "outputs": [],
      "stateMutability": "nonpayable",
      "type": "function"
    },
    {
      "inputs": [
        {
          "internalType": "address",
          "name": "newManager",
          "type": "address"
        }
      ],
      "name": "setRoleManager",
      "outputs": [
        {
          "internalType": "bool",
          "name": "",
          "type": "bool"
        }
      ],
      "stateMutability": "nonpayable",
      "type": "function"
    },
    {
      "inputs": [
        {
          "internalType": "address",
          "name": "provider",
          "type": "address"
        }
      ],
      "name": "slots",
      "outputs": [
        {
          "internalType": "uint256",
          "name": "id",
          "type": "uint256"
        },
        {
          "internalType": "bool",
          "name": "hasIndex",
          "type": "bool"
        }
      ],
      "stateMutability": "view",
      "type": "function"
    },
    {
      "inputs": [],
      "name": "unpause",
      "outputs": [],
      "stateMutability": "nonpayable",
      "type": "function"
    }
  ],
  "transactionHash": "0x66ad775a3bb5b069dc4c04767fcff0873f961e98f2410b89a6292e038e28686e",
  "args": [
    "0x16f0512caA28DA6a890589819Fb70815DFd1206E",
    "0x79dF2FCc7DfDdc0C85Cc1f82B1f631b4b9D994B0",
    "0x874069Fa1Eb16D44d622F2e0Ca25eeA172369bC1",
    "0xa00E598D0c6c2Ab62E74B1282c9Efd9d2010F47A",
    "0xB868518D5E0dC52A74301e24763312840B2CdB2d"
  ],
  "numDeployments": 7,
  "solcInputHash": "42db8ebf251f385d0f8e47a8d1c5a23d",
  "bytecode": "0x6101006040523480156200001257600080fd5b5060405162001a8e38038062001a8e833981016040819052620000359162000246565b600080546001600160a01b0319166001600160a01b038616179055818385838383838380826000805460ff60a01b19169055506001600160a01b0390811660805260a051811690851603620000c35760408051808201909152601581527f5f61737365744d616e61676572206973207a65726f00000000000000000000006020820152620000c390620001e6565b60c0516001600160a01b0316836001600160a01b0316036200011e5760408051808201909152601281527f5f626173654173736574206973207a65726f000000000000000000000000000060208201526200011e90620001e6565b50506001600160a01b0391821660a052811660c0528216620001795760408051808201909152601481527f5f726f6c654d616e61676572206973207a65726f00000000000000000000000060208201526200017990620001e6565b5050600160035550506001600160a01b038516620001d05760408051808201909152601881527f5f666c6578706f6f6c466163746f7279206973207a65726f00000000000000006020820152620001d090620001e6565b505050506001600160a01b031660e05262000317565b8051156200022d57806040517fcc861063000000000000000000000000000000000000000000000000000000008152600401620002249190620002c6565b60405180910390fd5b50565b6001600160a01b03811681146200022d57600080fd5b600080600080600060a086880312156200025f57600080fd5b85516200026c8162000230565b60208701519095506200027f8162000230565b6040870151909450620002928162000230565b6060870151909350620002a58162000230565b6080870151909250620002b88162000230565b809150509295509295909350565b60006020808352835180602085015260005b81811015620002f657858101830151858201604001528201620002d8565b506000604082860101526040601f19601f8301168501019250505092915050565b60805160a05160c05160e05161171a6200037460003960008181610228015261089a015260008181610279015281816103f001528181610745015261116001526000818161020101526111b601526000610139015261171a6000f3fe608060405234801561001057600080fd5b50600436106100ff5760003560e01c80638456cb5911610097578063c9f8437c11610066578063c9f8437c14610261578063cdf456e114610274578063edc922a91461029b578063f1d588c5146102b057600080fd5b80638456cb59146101f457806394217ad1146101fc5780639e32d7d114610223578063b56cf0111461024a57600080fd5b80633f4ba83a116100d35780633f4ba83a146101af578063468758f5146101b75780635c975abb146101da57806367b9a286146101ec57600080fd5b8062435da514610104578063131e7e1c14610134578063282567b41461015b5780633930142714610170575b600080fd5b600054610117906001600160a01b031681565b6040516001600160a01b0390911681526020015b60405180910390f35b6101177f000000000000000000000000000000000000000000000000000000000000000081565b61016e610169366004611395565b6102c3565b005b61019a61017e3660046113ae565b6005602052600090815260409020805460019091015460ff1682565b6040805192835290151560208301520161012b565b61016e610307565b6101ca6101c53660046113de565b610364565b604051901515815260200161012b565b600054600160a01b900460ff166101ca565b6101ca6106b3565b61016e6107ba565b6101177f000000000000000000000000000000000000000000000000000000000000000081565b6101177f000000000000000000000000000000000000000000000000000000000000000081565b61025360025481565b60405190815260200161012b565b6101ca61026f366004611418565b610805565b6101177f000000000000000000000000000000000000000000000000000000000000000081565b6102a3610996565b60405161012b9190611571565b6101ca6102be3660046113ae565b610a49565b6102cb610a76565b6002548103610302576103026040518060400160405280600d81526020016c506172616d2069732073616d6560981b815250610af5565b600255565b61030f610a76565b610317610b20565b6000805460ff60a01b191690557f5db9ee0a495bf2e6ff9c91a7834c1ba4fdd244a5e8aa4e537bd38aeae4b073aa335b6040516001600160a01b03909116815260200160405180910390a1565b600061036e610b4c565b61ffff828116106103a6576103a66040518060400160405280600c81526020016b496e76616c6964207261746560a01b815250610af5565b336000818152600560209081526040808320815180830183528154815260019091015460ff16151581840152815180830190925283825291810183905260025491929091610419907f00000000000000000000000000000000000000000000000000000000000000009086903090610b77565b905082602001516105ce57600480548452600160208086018281526001600160a01b0388811660008181526005855260408082208b5181559451948701805460ff191695151595909517909455835160c0810185528a51815280860189815261ffff8f16958201958652606082018381526080830194855260a083018c81528a54998a018b559990935290517f8a35acfbc15ff81a39ae7d344fd709f28e8600b4aa8c65c6b64bfe7fe36bd19b600790980297880155517f8a35acfbc15ff81a39ae7d344fd709f28e8600b4aa8c65c6b64bfe7fe36bd19c87015592517f8a35acfbc15ff81a39ae7d344fd709f28e8600b4aa8c65c6b64bfe7fe36bd19d86015591517f8a35acfbc15ff81a39ae7d344fd709f28e8600b4aa8c65c6b64bfe7fe36bd19e85015590517f8a35acfbc15ff81a39ae7d344fd709f28e8600b4aa8c65c6b64bfe7fe36bd19f840180546001600160a01b03191691909216179055915180517f8a35acfbc15ff81a39ae7d344fd709f28e8600b4aa8c65c6b64bfe7fe36bd1a0830155909101517f8a35acfbc15ff81a39ae7d344fd709f28e8600b4aa8c65c6b64bfe7fe36bd1a190910155610601565b8060048460000151815481106105e6576105e6611584565b60009182526020909120600160079092020101805490910190555b7f0a528f81d4ce06395729238fd3358a726bef29566b10db382cf88e62fb39185b600484600001518154811061063957610639611584565b906000526020600020906007020160405161069f91908154815260018201546020820152600282015460408201526003820154606082015260048201546001600160a01b03166080820152600582015460a082015260069091015460c082015260e00190565b60405180910390a150600195945050505050565b60006106bd610b4c565b6106c5610c6d565b60008060006106d2610c97565b925092509250826020015160000361071657610716604051806040016040528060118152602001704e6f7468696e6720746f2072656d6f766560781b815250610af5565b60006004838154811061072b5761072b611584565b90600052602060002090600702016001018190555061076f7f0000000000000000000000000000000000000000000000000000000000000000828560200151610da1565b7f1e62e0ceb04999bb91501874d5b75964403c0e7e81111f35d45d188ac9bba4118360405161079e919061159a565b60405180910390a1600193505050506107b76001600355565b90565b6107c2610a76565b6107ca610b4c565b6000805460ff60a01b1916600160a01b1790557f62e78cea01bee320cd4e420270b5ea74000d11b0c9f74754ebdbfc544b05a2586103473390565b600061080f610b4c565b8251600003610846576108466040518060400160405280600d81526020016c4c69737420697320656d70747960981b815250610af5565b8160000361087c5761087c6040518060400160405280600d81526020016c04c6f616e20616d74206973203609c1b815250610af5565b60006108888484610e79565b604051632ef3946f60e01b81529091507f00000000000000000000000000000000000000000000000000000000000000006001600160a01b031690632ef3946f906108db908490339088906004016115a8565b6020604051808303816000875af11580156108fa573d6000803e3d6000fd5b505050506040513d601f19601f8201168201806040525081019061091e91906115d6565b610951576109516040518060400160405280600e81526020016d119858dd1bdc9e48195c9c9bd95960921b815250610af5565b7febdbff8e38cffc3e7a007be6cd1b611012beb1c67223a2fb5ec524704ce41e8881336040516109829291906115f8565b60405180910390a160019150505b92915050565b60606004805480602002602001604051908101604052809291908181526020016000905b82821015610a405760008481526020908190206040805160c0810182526007860290920180548352600180820154848601526002820154848401526003820154606085015260048201546001600160a01b031660808501528251808401909352600582015483526006909101548285015260a083019190915290835290920191016109ba565b50505050905090565b6000610a53610a76565b600080546001600160a01b0319166001600160a01b038416179055506001919050565b6000546001600160a01b031680610ab757610ab76040518060400160405280600f81526020016e4d616e61676572206973207a65726f60881b815250610af5565b610ac0336110ec565b610af257610af26040518060400160405280600d81526020016c1058d8d95cdcc819195b9a5959609a1b815250610af5565b50565b805115610af2578060405163cc86106360e01b8152600401610b179190611622565b60405180910390fd5b600054600160a01b900460ff16610b4a57604051638dfc202b60e01b815260040160405180910390fd5b565b600054600160a01b900460ff1615610b4a5760405163d93c066560e01b815260040160405180910390fd5b6000610b8485858461115b565b90506001600160a01b038316610b9c57610b9c611671565b6001600160a01b038516610bb257610bb2611671565b8015610c65576040516323b872dd60e01b81526001600160a01b0385811660048301528481166024830152604482018390528616906323b872dd906064016020604051808303816000875af1158015610c0f573d6000803e3d6000fd5b505050506040513d601f19601f82011682018060405250810190610c3391906115d6565b610c6557610c656040518060400160405280600d81526020016c151c9e11995c8819985a5b1959609a1b815250610af5565b949350505050565b600260035403610c9057604051633ee5aeb560e01b815260040160405180910390fd5b6002600355565b610c9f61133c565b3360008181526005602090815260408083208151808301909252805482526001015460ff16151591810182905291929190610d0b57610d0b604051806040016040528060168152602001752ab9b2b91034b9903737ba103090383937bb34b232b960511b815250610af5565b8060000151925060048381548110610d2557610d25611584565b60009182526020918290206040805160c0810182526007909302909101805483526001810154838501526002810154838301526003810154606084015260048101546001600160a01b03166080840152815180830190925260058101548252600601549281019290925260a08101919091529492935090919050565b6001600160a01b038216610db757610db7611671565b6001600160a01b038316610dcd57610dcd611671565b60405163095ea7b360e01b81526001600160a01b0383811660048301526024820183905284169063095ea7b3906044016020604051808303816000875af1158015610e1c573d6000803e3d6000fd5b505050506040513d601f19601f82011682018060405250810190610e4091906115d6565b610e7457610e746040518060400160405280600f81526020016e105c1c1c9bdd985b0811985a5b1959608a1b815250610af5565b505050565b8151606090829060008167ffffffffffffffff811115610e9b57610e9b611402565b604051908082528060200260200182016040528015610ed457816020015b610ec161133c565b815260200190600190039081610eb95790505b50905060005b828110156110bb576000878281518110610ef657610ef6611584565b602002602001015190506004805490508110610f4257610f4260405180604001604052806015815260200174125b9d985b1a59081cdb1bdd0819195d1958dd1959605a1b815250610af5565b600060048281548110610f5757610f57611584565b60009182526020918290206040805160c08101825260079093029091018054835260018101548385019081526002820154848401526003820154606085015260048201546001600160a01b031660808501528251808401909352600582015483526006909101549382019390935260a08201529051909150861161100d578581602001510360048381548110610fef57610fef611584565b90600052602060002090600702016001018190555060009550611041565b80602001518603955060006004838154811061102b5761102b611584565b9060005260206000209060070201600101819055505b60006004838154811061105657611056611584565b9060005260206000209060070201600101549050808260200181815161107c9190611687565b9052508451829086908690811061109557611095611584565b6020026020010181905250866000036110b0575050506110bb565b505050600101610eda565b5082156110e3576110e36040518060600160405280602381526020016116c260239139610af5565b95945050505050565b60008054604051633f784de560e11b81526001600160a01b03848116600483015290911690637ef09bca90602401602060405180830381865afa158015611137573d6000803e3d6000fd5b505050506040513d601f19601f8201168201806040525081019061099091906115d6565b6000837f00000000000000000000000000000000000000000000000000000000000000006001600160a01b0316816001600160a01b03161461125757604051634df48c7360e11b81526001600160a01b0382811660048301527f00000000000000000000000000000000000000000000000000000000000000001690639be918e690602401602060405180830381865afa1580156111fd573d6000803e3d6000fd5b505050506040513d601f19601f8201168201806040525081019061122191906115d6565b6112575761125760405180604001604052806011815260200170155b9cdd5c1c1bdc9d195908105cdcd95d607a1b815250610af5565b6001600160a01b03851661126d5761126d611671565b6001600160a01b03841661128357611283611671565b604051636eb1769f60e11b81526001600160a01b03858116600483015230602483015286169063dd62ed3e90604401602060405180830381865afa1580156112cf573d6000803e3d6000fd5b505050506040513d601f19601f820116820180604052508101906112f391906116a8565b915082821015611334576113346040518060400160405280601681526020017556616c75652065786365656420616c6c6f77616e636560501b815250610af5565b509392505050565b6040518060c001604052806000815260200160008152602001600081526020016000815260200160006001600160a01b03168152602001611390604051806040016040528060008152602001600081525090565b905290565b6000602082840312156113a757600080fd5b5035919050565b6000602082840312156113c057600080fd5b81356001600160a01b03811681146113d757600080fd5b9392505050565b6000602082840312156113f057600080fd5b813561ffff811681146113d757600080fd5b634e487b7160e01b600052604160045260246000fd5b6000806040838503121561142b57600080fd5b823567ffffffffffffffff8082111561144357600080fd5b818501915085601f83011261145757600080fd5b813560208282111561146b5761146b611402565b8160051b604051601f19603f8301168101818110868211171561149057611490611402565b6040529283528183019350848101820192898411156114ae57600080fd5b948201945b838610156114cc578535855294820194938201936114b3565b9997909101359750505050505050565b8051825260208101516020830152604081015160408301526060810151606083015260018060a01b03608082015116608083015260a0810151805160a0840152602081015160c0840152505050565b60008151808452602080850194506020840160005b83811015611566576115538783516114dc565b60e0969096019590820190600101611540565b509495945050505050565b6020815260006113d7602083018461152b565b634e487b7160e01b600052603260045260246000fd5b60e0810161099082846114dc565b6060815260006115bb606083018661152b565b6001600160a01b039490941660208301525060400152919050565b6000602082840312156115e857600080fd5b815180151581146113d757600080fd5b60408152600061160b604083018561152b565b905060018060a01b03831660208301529392505050565b60006020808352835180602085015260005b8181101561165057858101830151858201604001528201611634565b506000604082860101526040601f19601f8301168501019250505092915050565b634e487b7160e01b600052600160045260246000fd5b8181038181111561099057634e487b7160e01b600052601160045260246000fd5b6000602082840312156116ba57600080fd5b505191905056fe4c6f616e20657863656564206167677265676174652070726f7669646572732062616ca26469706673582212208ee4db9c55dc52a052af9f575bfe82501e4dc3a3e8ba23d47f248a2e8c2000fb64736f6c63430008180033",
  "devdoc": {
    "author": "Simplifi (Bobeu)",
    "errors": {
      "EnforcedPause()": [
        {
          "details": "The operation failed because the contract is paused."
        }
      ],
      "ExpectedPause()": [
        {
          "details": "The operation failed because the contract is not paused."
        }
      ],
      "ReentrancyGuardReentrantCall()": [
        {
          "details": "Unauthorized reentrant call."
        }
      ]
    },
    "events": {
      "Paused(address)": {
        "details": "Emitted when the pause is triggered by `account`."
      },
      "Unpaused(address)": {
        "details": "Emitted when the pause is lifted by `account`."
      }
    },
    "kind": "dev",
    "methods": {
      "borrow(uint256[],uint256)": {
        "details": "Users can borrow from liquidity providers to finance a Flexpool",
        "params": {
          "amount": ": Amount user wish to borrow.",
          "providersSlots": ": Selected providers' slots are required "
        }
      },
      "constructor": {
        "params": {
          "_assetManager": ": Asset Manager contract.",
          "_baseAsset": ": Base asset to use for contribution e.g cUSD.",
          "_roleManager": ": RoleBase manager contract."
        }
      },
      "pause()": {
        "details": "Triggers stopped state. Requirements: Only owner role can call. - The contract must not be paused."
      },
      "paused()": {
        "details": "Returns true if the contract is paused, and false otherwise."
      },
      "provideLiquidity(uint16)": {
        "details": "Utility for provide liquidity",
        "params": {
          "rate": ": Interest rate the provider is willing to charge.         We choose a base value (numerator as 10000) repesenting a 100% of input value. This means if Alice wish to set    her interest rate to 0.05% for instance, she only need to multiply it by 100 i.e 0.05 * 100 = 5. Her input will be 5.    Since Solidity do not accept decimals as input, in our context, the minimum value to parse is '0' indicating    zero interest rate. If user wish to set interest at least, the minimum value will be 1 reprensenting 0.01%.   The minimum interest rate to set is 0.01% if interest must be set at least.   To reiterate, raw interest must be multiplied by 100 before giving as input. "
        }
      },
      "removeLiquidity()": {
        "details": "Remove liquidity."
      },
      "setMinimumLiquidity(uint256)": {
        "details": "Set minimum liquidity. ",
        "params": {
          "_minLiquidity": ": Minimum liquidity"
        }
      },
      "setRoleManager(address)": {
        "params": {
          "newManager": ": New manager address"
        }
      },
      "unpause()": {
        "details": "Returns to normal state. Requirements: - Only owner role can call. - The contract must be paused."
      }
    },
    "stateVariables": {
      "slots": {
        "details": "Mapping of providers to their position in the providers list"
      }
    },
    "title": "Providers",
    "version": 1
  },
  "userdoc": {
    "kind": "user",
    "methods": {
      "constructor": {
        "notice": "============= Constructor ================At construction, we initialized the providers array slot 0 with an empty provider data. This is so we can reuse the slot in the future such as reseting a provider's data or ensuring  that providers with zero index are restricted from calling certain functions."
      },
      "provideLiquidity(uint16)": {
        "notice": "User must approve this contract with the liquidiy amount prior to this call."
      },
      "removeLiquidity()": {
        "notice": "Liquidity can be removed anytime provided the balance exceeds zero"
      },
      "setMinimumLiquidity(uint256)": {
        "notice": "Only accounts with rolebearer access are allowed"
      },
      "setRoleManager(address)": {
        "notice": "Set Role manager"
      },
      "slots(address)": {
        "notice": "Slot '0' is reserved"
      }
    },
    "notice": "Deployable Providers contract is a general liquidity pool purposely for funding Flexpools. Contributors that cannot afford unit contributions can access providers pool to source for funds.  Loans accessed in this pool are not withdrawable by the borrower. Since there is a direct relationship between the Providers contract and the Flexpool's, borrowed funds are moved straight to the Flexpool contract and registered on behalf of the contributor. With this contract, you can perform the following actions: - Provider liquidity. - Remove liquidity - Borrow to finance Flexpool - Get the list of providers",
    "version": 1
  },
  "storageLayout": {
    "storage": [
      {
        "astId": 1005,
        "contract": "contracts/standalone/celo/Providers.sol:Providers",
        "label": "roleManager",
        "offset": 0,
        "slot": "0",
        "type": "t_contract(IRoleBase)574"
      },
      {
        "astId": 1116,
        "contract": "contracts/standalone/celo/Providers.sol:Providers",
        "label": "_paused",
        "offset": 20,
        "slot": "0",
        "type": "t_bool"
      },
      {
        "astId": 1253,
        "contract": "contracts/standalone/celo/Providers.sol:Providers",
        "label": "safes",
        "offset": 0,
        "slot": "1",
        "type": "t_mapping(t_uint256,t_address)"
      },
      {
        "astId": 921,
        "contract": "contracts/standalone/celo/Providers.sol:Providers",
        "label": "minimumLiquidity",
        "offset": 0,
        "slot": "2",
        "type": "t_uint256"
      },
      {
        "astId": 10,
        "contract": "contracts/standalone/celo/Providers.sol:Providers",
        "label": "_status",
        "offset": 0,
        "slot": "3",
        "type": "t_uint256"
      },
      {
        "astId": 1349,
        "contract": "contracts/standalone/celo/Providers.sol:Providers",
        "label": "providers",
        "offset": 0,
        "slot": "4",
        "type": "t_array(t_struct(Provider)222_storage)dyn_storage"
      },
      {
        "astId": 1355,
        "contract": "contracts/standalone/celo/Providers.sol:Providers",
        "label": "slots",
        "offset": 0,
        "slot": "5",
        "type": "t_mapping(t_address,t_struct(Data)1342_storage)"
      }
    ],
    "types": {
      "t_address": {
        "encoding": "inplace",
        "label": "address",
        "numberOfBytes": "20"
      },
      "t_array(t_struct(Provider)222_storage)dyn_storage": {
        "base": "t_struct(Provider)222_storage",
        "encoding": "dynamic_array",
        "label": "struct Common.Provider[]",
        "numberOfBytes": "32"
      },
      "t_bool": {
        "encoding": "inplace",
        "label": "bool",
        "numberOfBytes": "1"
      },
      "t_contract(IRoleBase)574": {
        "encoding": "inplace",
        "label": "contract IRoleBase",
        "numberOfBytes": "20"
      },
      "t_mapping(t_address,t_struct(Data)1342_storage)": {
        "encoding": "mapping",
        "key": "t_address",
        "label": "mapping(address => struct Providers.Data)",
        "numberOfBytes": "32",
        "value": "t_struct(Data)1342_storage"
      },
      "t_mapping(t_uint256,t_address)": {
        "encoding": "mapping",
        "key": "t_uint256",
        "label": "mapping(uint256 => address)",
        "numberOfBytes": "32",
        "value": "t_address"
      },
      "t_struct(Data)1342_storage": {
        "encoding": "inplace",
        "label": "struct Providers.Data",
        "members": [
          {
            "astId": 1339,
            "contract": "contracts/standalone/celo/Providers.sol:Providers",
            "label": "id",
            "offset": 0,
            "slot": "0",
            "type": "t_uint256"
          },
          {
            "astId": 1341,
            "contract": "contracts/standalone/celo/Providers.sol:Providers",
            "label": "hasIndex",
            "offset": 0,
            "slot": "1",
            "type": "t_bool"
          }
        ],
        "numberOfBytes": "64"
      },
      "t_struct(Interest)176_storage": {
        "encoding": "inplace",
        "label": "struct Common.Interest",
        "members": [
          {
            "astId": 173,
            "contract": "contracts/standalone/celo/Providers.sol:Providers",
            "label": "fullInterest",
            "offset": 0,
            "slot": "0",
            "type": "t_uint256"
          },
          {
            "astId": 175,
            "contract": "contracts/standalone/celo/Providers.sol:Providers",
            "label": "intPerSec",
            "offset": 0,
            "slot": "1",
            "type": "t_uint256"
          }
        ],
        "numberOfBytes": "64"
      },
      "t_struct(Provider)222_storage": {
        "encoding": "inplace",
        "label": "struct Common.Provider",
        "members": [
          {
            "astId": 210,
            "contract": "contracts/standalone/celo/Providers.sol:Providers",
            "label": "slot",
            "offset": 0,
            "slot": "0",
            "type": "t_uint256"
          },
          {
            "astId": 212,
            "contract": "contracts/standalone/celo/Providers.sol:Providers",
            "label": "amount",
            "offset": 0,
            "slot": "1",
            "type": "t_uint256"
          },
          {
            "astId": 214,
            "contract": "contracts/standalone/celo/Providers.sol:Providers",
            "label": "rate",
            "offset": 0,
            "slot": "2",
            "type": "t_uint256"
          },
          {
            "astId": 216,
            "contract": "contracts/standalone/celo/Providers.sol:Providers",
            "label": "earnStartDate",
            "offset": 0,
            "slot": "3",
            "type": "t_uint256"
          },
          {
            "astId": 218,
            "contract": "contracts/standalone/celo/Providers.sol:Providers",
            "label": "account",
            "offset": 0,
            "slot": "4",
            "type": "t_address"
          },
          {
            "astId": 221,
            "contract": "contracts/standalone/celo/Providers.sol:Providers",
            "label": "accruals",
            "offset": 0,
            "slot": "5",
            "type": "t_struct(Interest)176_storage"
          }
        ],
        "numberOfBytes": "224"
      },
      "t_uint256": {
        "encoding": "inplace",
        "label": "uint256",
        "numberOfBytes": "32"
      }
    }
  }
}