{
  "address": "0x12dFb47DA38787d9c80c3680dc73bc347Ca3fcCB",
  "abi": [
    {
      "inputs": [
        {
          "internalType": "contract IOwnerShip",
          "name": "_ownershipManager",
          "type": "address"
        }
      ],
      "stateMutability": "nonpayable",
      "type": "constructor"
    },
    {
      "inputs": [
        {
          "internalType": "address",
          "name": "target",
          "type": "address"
        }
      ],
      "name": "AddressEmptyCode",
      "type": "error"
    },
    {
      "inputs": [
        {
          "internalType": "address",
          "name": "account",
          "type": "address"
        }
      ],
      "name": "AddressInsufficientBalance",
      "type": "error"
    },
    {
      "inputs": [],
      "name": "FailedInnerCall",
      "type": "error"
    },
    {
      "inputs": [],
      "name": "ManagerAddressIsZero",
      "type": "error"
    },
    {
      "inputs": [],
      "name": "NotPermittedToCall",
      "type": "error"
    },
    {
      "inputs": [
        {
          "internalType": "address[]",
          "name": "accounts",
          "type": "address[]"
        },
        {
          "internalType": "uint256[]",
          "name": "amounts",
          "type": "uint256[]"
        }
      ],
      "name": "batchTransfer",
      "outputs": [],
      "stateMutability": "nonpayable",
      "type": "function"
    },
    {
      "inputs": [
        {
          "internalType": "address",
          "name": "_routeTo",
          "type": "address"
        },
        {
          "internalType": "uint256",
          "name": "amount",
          "type": "uint256"
        }
      ],
      "name": "lockToken",
      "outputs": [],
      "stateMutability": "nonpayable",
      "type": "function"
    },
    {
      "inputs": [],
      "name": "name",
      "outputs": [
        {
          "internalType": "string",
          "name": "",
          "type": "string"
        }
      ],
      "stateMutability": "pure",
      "type": "function"
    },
    {
      "inputs": [],
      "name": "ownershipManager",
      "outputs": [
        {
          "internalType": "contract IOwnerShip",
          "name": "",
          "type": "address"
        }
      ],
      "stateMutability": "view",
      "type": "function"
    },
    {
      "inputs": [
        {
          "internalType": "address",
          "name": "newManager",
          "type": "address"
        }
      ],
      "name": "setOwnershipManager",
      "outputs": [
        {
          "internalType": "bool",
          "name": "",
          "type": "bool"
        }
      ],
      "stateMutability": "nonpayable",
      "type": "function"
    },
    {
      "inputs": [
        {
          "internalType": "contract IERC20",
          "name": "newToken",
          "type": "address"
        }
      ],
      "name": "setToken",
      "outputs": [],
      "stateMutability": "nonpayable",
      "type": "function"
    },
    {
      "inputs": [],
      "name": "token",
      "outputs": [
        {
          "internalType": "contract IERC20",
          "name": "",
          "type": "address"
        }
      ],
      "stateMutability": "view",
      "type": "function"
    },
    {
      "inputs": [
        {
          "internalType": "address",
          "name": "account",
          "type": "address"
        },
        {
          "internalType": "uint256",
          "name": "amount",
          "type": "uint256"
        }
      ],
      "name": "transferToken",
      "outputs": [],
      "stateMutability": "nonpayable",
      "type": "function"
    },
    {
      "inputs": [
        {
          "internalType": "uint256",
          "name": "amount",
          "type": "uint256"
        }
      ],
      "name": "unlockToken",
      "outputs": [],
      "stateMutability": "nonpayable",
      "type": "function"
    },
    {
      "stateMutability": "payable",
      "type": "receive"
    }
  ],
  "transactionHash": "0xa175a3dd8c3b53c79178f61051f269defa8e4d4c79b3abde4598fa4f2661b5ee",
  "args": [
    "0xF5aE8bE0B39FA81A89C410d0D764C692d368758f"
  ],
  "numDeployments": 1,
  "solcInputHash": "f780c2f11c4ccd0f85c921954ca3f88d",
  "bytecode": "0x608060405234801561001057600080fd5b50604051610e4f380380610e4f83398101604081905261002f91610050565b600080546001600160a01b0319166001600160a01b03831617905550610080565b60006020828403121561006257600080fd5b81516001600160a01b038116811461007957600080fd5b9392505050565b610dc08061008f6000396000f3fe60806040526004361061008a5760003560e01c806361737d621161005957806361737d621461016757806388d695b214610197578063b88a3915146101b7578063dd2e0ac0146101ef578063fc0c546a1461020f57600080fd5b806306fdde03146100c65780631072cbea14610105578063144fa6d71461012757806317be3fa51461014757600080fd5b366100c15760405162461bcd60e51b81526020600482015260026024820152614e4160f01b60448201526064015b60405180910390fd5b600080fd5b3480156100d257600080fd5b5060408051808201825260078152665245534552564560c81b602082015290516100fc9190610a82565b60405180910390f35b34801561011157600080fd5b50610125610120366004610aca565b61022f565b005b34801561013357600080fd5b50610125610142366004610af6565b61030a565b34801561015357600080fd5b50610125610162366004610aca565b6103fe565b34801561017357600080fd5b50610187610182366004610af6565b6104d4565b60405190151581526020016100fc565b3480156101a357600080fd5b506101256101b2366004610bed565b6105b8565b3480156101c357600080fd5b506000546101d7906001600160a01b031681565b6040516001600160a01b0390911681526020016100fc565b3480156101fb57600080fd5b5061012561020a366004610caf565b61068e565b34801561021b57600080fd5b506001546101d7906001600160a01b031681565b6000546001600160a01b03168061025957604051637e70a7e360e01b815260040160405180910390fd5b6001600160a01b038116632f54bf6e336040516001600160e01b031960e084901b1681526001600160a01b039091166004820152602401602060405180830381865afa1580156102ad573d6000803e3d6000fd5b505050506040513d601f19601f820116820180604052508101906102d19190610cc8565b6102ee576040516315ed864b60e21b815260040160405180910390fd5b600154610305906001600160a01b03168484610767565b505050565b6000546001600160a01b03168061033457604051637e70a7e360e01b815260040160405180910390fd5b6001600160a01b038116632f54bf6e336040516001600160e01b031960e084901b1681526001600160a01b039091166004820152602401602060405180830381865afa158015610388573d6000803e3d6000fd5b505050506040513d601f19601f820116820180604052508101906103ac9190610cc8565b6103c9576040516315ed864b60e21b815260040160405180910390fd5b6103db826001600160a01b03166107ca565b50600180546001600160a01b0319166001600160a01b0392909216919091179055565b6000546001600160a01b03168061042857604051637e70a7e360e01b815260040160405180910390fd5b6001600160a01b038116632f54bf6e336040516001600160e01b031960e084901b1681526001600160a01b039091166004820152602401602060405180830381865afa15801561047c573d6000803e3d6000fd5b505050506040513d601f19601f820116820180604052508101906104a09190610cc8565b6104bd576040516315ed864b60e21b815260040160405180910390fd5b600154610305906001600160a01b03168484610823565b600080546001600160a01b0316806104ff57604051637e70a7e360e01b815260040160405180910390fd5b6001600160a01b038116632f54bf6e336040516001600160e01b031960e084901b1681526001600160a01b039091166004820152602401602060405180830381865afa158015610553573d6000803e3d6000fd5b505050506040513d601f19601f820116820180604052508101906105779190610cc8565b610594576040516315ed864b60e21b815260040160405180910390fd5b600080546001600160a01b0319166001600160a01b03851617905550600192915050565b6000546001600160a01b0316806105e257604051637e70a7e360e01b815260040160405180910390fd5b6001600160a01b038116632f54bf6e336040516001600160e01b031960e084901b1681526001600160a01b039091166004820152602401602060405180830381865afa158015610636573d6000803e3d6000fd5b505050506040513d601f19601f8201168201806040525081019061065a9190610cc8565b610677576040516315ed864b60e21b815260040160405180910390fd5b600154610305906001600160a01b03168484610853565b6000546001600160a01b0316806106b857604051637e70a7e360e01b815260040160405180910390fd5b6001600160a01b038116632f54bf6e336040516001600160e01b031960e084901b1681526001600160a01b039091166004820152602401602060405180830381865afa15801561070c573d6000803e3d6000fd5b505050506040513d601f19601f820116820180604052508101906107309190610cc8565b61074d576040516315ed864b60e21b815260040160405180910390fd5b600154610763906001600160a01b031683610872565b5050565b6040516001600160a01b03831660248201526044810182905261030590849063a9059cbb60e01b906064015b60408051601f198184030181529190526020810180516001600160e01b03166001600160e01b031990931692909217909152610891565b6001600160a01b0381166108205760405162461bcd60e51b815260206004820152601b60248201527f4c69623a20546172676574206973207a65726f2061646472657373000000000060448201526064016100b8565b50565b6040516001600160a01b0383166024820152604481018290526103059084906317be3fa560e01b90606401610793565b6103058363c52c159360e01b8484604051602401610793929190610cea565b6107638263dd2e0ac060e01b8360405160240161079391815260200190565b60006108a66001600160a01b03841683610926565b90508051600014806108c75750808060200190518101906108c79190610cc8565b6103055760405162461bcd60e51b815260206004820152602a60248201527f5361666545524332303a204552433230206f7065726174696f6e20646964206e6044820152691bdd081cdd58d8d9595960b21b60648201526084016100b8565b60606109348383600061093b565b9392505050565b606030318211156109615760405163cd78605960e01b81523060048201526024016100b8565b600080856001600160a01b0316848660405161097d9190610d6e565b60006040518083038185875af1925050503d80600081146109ba576040519150601f19603f3d011682016040523d82523d6000602084013e6109bf565b606091505b50915091506109cf8683836109d9565b9695505050505050565b6060826109ee576109e982610a35565b610934565b8151158015610a0557506001600160a01b0384163b155b15610a2e57604051639996b31560e01b81526001600160a01b03851660048201526024016100b8565b5080610934565b805115610a455780518082602001fd5b604051630a12f52160e11b815260040160405180910390fd5b60005b83811015610a79578181015183820152602001610a61565b50506000910152565b6020815260008251806020840152610aa1816040850160208701610a5e565b601f01601f19169190910160400192915050565b6001600160a01b038116811461082057600080fd5b60008060408385031215610add57600080fd5b8235610ae881610ab5565b946020939093013593505050565b600060208284031215610b0857600080fd5b813561093481610ab5565b634e487b7160e01b600052604160045260246000fd5b604051601f8201601f1916810167ffffffffffffffff81118282101715610b5257610b52610b13565b604052919050565b600067ffffffffffffffff821115610b7457610b74610b13565b5060051b60200190565b600082601f830112610b8f57600080fd5b81356020610ba4610b9f83610b5a565b610b29565b8083825260208201915060208460051b870101935086841115610bc657600080fd5b602086015b84811015610be25780358352918301918301610bcb565b509695505050505050565b60008060408385031215610c0057600080fd5b823567ffffffffffffffff80821115610c1857600080fd5b818501915085601f830112610c2c57600080fd5b81356020610c3c610b9f83610b5a565b82815260059290921b84018101918181019089841115610c5b57600080fd5b948201945b83861015610c82578535610c7381610ab5565b82529482019490820190610c60565b96505086013592505080821115610c9857600080fd5b50610ca585828601610b7e565b9150509250929050565b600060208284031215610cc157600080fd5b5035919050565b600060208284031215610cda57600080fd5b8151801515811461093457600080fd5b604080825283519082018190526000906020906060840190828701845b82811015610d2c5781516001600160a01b031684529284019290840190600101610d07565b5050508381038285015284518082528583019183019060005b81811015610d6157835183529284019291840191600101610d45565b5090979650505050505050565b60008251610d80818460208701610a5e565b919091019291505056fea2646970667358221220c1306a8ebfb892c49d0984b44ba1e7669da05275682c7e0c16113942a86993f964736f6c63430008180033",
  "devdoc": {
    "details": "Total supply is minted to this contract and is controlled by an owner address that should be a multisig account.",
    "errors": {
      "AddressEmptyCode(address)": [
        {
          "details": "There's no code at `target` (it is not a contract)."
        }
      ],
      "AddressInsufficientBalance(address)": [
        {
          "details": "The ETH balance of the account is not enough to perform the operation."
        }
      ],
      "FailedInnerCall()": [
        {
          "details": "A call to an address target failed. The target may have reverted."
        }
      ]
    },
    "kind": "dev",
    "methods": {
      "batchTransfer(address[],uint256[])": {
        "details": "Batch tranfer: Sends token to many addresses"
      },
      "lockToken(address,uint256)": {
        "details": "Locks certain amount i.e Move from private ledger to the regular balance"
      },
      "setOwnershipManager(address)": {
        "params": {
          "newManager": ": New manager address"
        }
      },
      "transferToken(address,uint256)": {
        "details": "Transfer Token to @param account : Token recipient"
      },
      "unlockToken(uint256)": {
        "details": "Unlocks certain amount i.e Move from private ledger to the regular balance"
      }
    },
    "title": "Reserve",
    "version": 1
  },
  "userdoc": {
    "kind": "user",
    "methods": {
      "setOwnershipManager(address)": {
        "notice": "Set Ownership manager"
      }
    },
    "version": 1
  },
  "storageLayout": {
    "storage": [
      {
        "astId": 2443,
        "contract": "contracts/implementations/token/Reserve.sol:Reserve",
        "label": "ownershipManager",
        "offset": 0,
        "slot": "0",
        "type": "t_contract(IOwnerShip)3542"
      },
      {
        "astId": 7643,
        "contract": "contracts/implementations/token/Reserve.sol:Reserve",
        "label": "token",
        "offset": 0,
        "slot": "1",
        "type": "t_contract(IERC20)3240"
      }
    ],
    "types": {
      "t_contract(IERC20)3240": {
        "encoding": "inplace",
        "label": "contract IERC20",
        "numberOfBytes": "20"
      },
      "t_contract(IOwnerShip)3542": {
        "encoding": "inplace",
        "label": "contract IOwnerShip",
        "numberOfBytes": "20"
      }
    }
  }
}