{
  "address": "0xbdAE8eB1417979E6a95c74BB771bFBb5C52ff27a",
  "abi": [
    {
      "inputs": [
        {
          "internalType": "contract IOwnerShip",
          "name": "_ownershipManager",
          "type": "address"
        },
        {
          "internalType": "contract IERC20",
          "name": "_collateralToken",
          "type": "address"
        }
      ],
      "stateMutability": "nonpayable",
      "type": "constructor"
    },
    {
      "inputs": [],
      "name": "AlreadySignedUp",
      "type": "error"
    },
    {
      "inputs": [
        {
          "internalType": "address",
          "name": "spender",
          "type": "address"
        },
        {
          "internalType": "uint256",
          "name": "allowance",
          "type": "uint256"
        },
        {
          "internalType": "uint256",
          "name": "needed",
          "type": "uint256"
        }
      ],
      "name": "ERC20InsufficientAllowance",
      "type": "error"
    },
    {
      "inputs": [
        {
          "internalType": "address",
          "name": "sender",
          "type": "address"
        },
        {
          "internalType": "uint256",
          "name": "balance",
          "type": "uint256"
        },
        {
          "internalType": "uint256",
          "name": "needed",
          "type": "uint256"
        }
      ],
      "name": "ERC20InsufficientBalance",
      "type": "error"
    },
    {
      "inputs": [
        {
          "internalType": "address",
          "name": "approver",
          "type": "address"
        }
      ],
      "name": "ERC20InvalidApprover",
      "type": "error"
    },
    {
      "inputs": [
        {
          "internalType": "address",
          "name": "receiver",
          "type": "address"
        }
      ],
      "name": "ERC20InvalidReceiver",
      "type": "error"
    },
    {
      "inputs": [
        {
          "internalType": "address",
          "name": "sender",
          "type": "address"
        }
      ],
      "name": "ERC20InvalidSender",
      "type": "error"
    },
    {
      "inputs": [
        {
          "internalType": "address",
          "name": "spender",
          "type": "address"
        }
      ],
      "name": "ERC20InvalidSpender",
      "type": "error"
    },
    {
      "inputs": [],
      "name": "ManagerAddressIsZero",
      "type": "error"
    },
    {
      "inputs": [],
      "name": "NotPermittedToCall",
      "type": "error"
    },
    {
      "anonymous": false,
      "inputs": [
        {
          "indexed": true,
          "internalType": "address",
          "name": "owner",
          "type": "address"
        },
        {
          "indexed": true,
          "internalType": "address",
          "name": "spender",
          "type": "address"
        },
        {
          "indexed": false,
          "internalType": "uint256",
          "name": "value",
          "type": "uint256"
        }
      ],
      "name": "Approval",
      "type": "event"
    },
    {
      "anonymous": false,
      "inputs": [
        {
          "indexed": true,
          "internalType": "address",
          "name": "from",
          "type": "address"
        },
        {
          "indexed": true,
          "internalType": "address",
          "name": "to",
          "type": "address"
        },
        {
          "indexed": false,
          "internalType": "uint256",
          "name": "value",
          "type": "uint256"
        }
      ],
      "name": "Transfer",
      "type": "event"
    },
    {
      "inputs": [
        {
          "internalType": "address",
          "name": "owner",
          "type": "address"
        },
        {
          "internalType": "address",
          "name": "spender",
          "type": "address"
        }
      ],
      "name": "allowance",
      "outputs": [
        {
          "internalType": "uint256",
          "name": "",
          "type": "uint256"
        }
      ],
      "stateMutability": "view",
      "type": "function"
    },
    {
      "inputs": [
        {
          "internalType": "address",
          "name": "spender",
          "type": "address"
        },
        {
          "internalType": "uint256",
          "name": "value",
          "type": "uint256"
        }
      ],
      "name": "approve",
      "outputs": [
        {
          "internalType": "bool",
          "name": "",
          "type": "bool"
        }
      ],
      "stateMutability": "nonpayable",
      "type": "function"
    },
    {
      "inputs": [
        {
          "internalType": "address[]",
          "name": "targets",
          "type": "address[]"
        }
      ],
      "name": "approveTester",
      "outputs": [],
      "stateMutability": "nonpayable",
      "type": "function"
    },
    {
      "inputs": [
        {
          "internalType": "address",
          "name": "account",
          "type": "address"
        }
      ],
      "name": "balanceOf",
      "outputs": [
        {
          "internalType": "uint256",
          "name": "",
          "type": "uint256"
        }
      ],
      "stateMutability": "view",
      "type": "function"
    },
    {
      "inputs": [],
      "name": "claimTestTokens",
      "outputs": [
        {
          "internalType": "bool",
          "name": "",
          "type": "bool"
        }
      ],
      "stateMutability": "nonpayable",
      "type": "function"
    },
    {
      "inputs": [],
      "name": "collateralToken",
      "outputs": [
        {
          "internalType": "contract IERC20",
          "name": "",
          "type": "address"
        }
      ],
      "stateMutability": "view",
      "type": "function"
    },
    {
      "inputs": [],
      "name": "decimals",
      "outputs": [
        {
          "internalType": "uint8",
          "name": "",
          "type": "uint8"
        }
      ],
      "stateMutability": "view",
      "type": "function"
    },
    {
      "inputs": [
        {
          "internalType": "address",
          "name": "",
          "type": "address"
        }
      ],
      "name": "indexes",
      "outputs": [
        {
          "internalType": "bool",
          "name": "isSignedUp",
          "type": "bool"
        },
        {
          "internalType": "bool",
          "name": "isApproved",
          "type": "bool"
        }
      ],
      "stateMutability": "view",
      "type": "function"
    },
    {
      "inputs": [],
      "name": "joinTestnet",
      "outputs": [
        {
          "internalType": "bool",
          "name": "",
          "type": "bool"
        }
      ],
      "stateMutability": "nonpayable",
      "type": "function"
    },
    {
      "inputs": [
        {
          "internalType": "address[]",
          "name": "tos",
          "type": "address[]"
        }
      ],
      "name": "mintBatch",
      "outputs": [],
      "stateMutability": "nonpayable",
      "type": "function"
    },
    {
      "inputs": [],
      "name": "name",
      "outputs": [
        {
          "internalType": "string",
          "name": "",
          "type": "string"
        }
      ],
      "stateMutability": "view",
      "type": "function"
    },
    {
      "inputs": [],
      "name": "ownershipManager",
      "outputs": [
        {
          "internalType": "contract IOwnerShip",
          "name": "",
          "type": "address"
        }
      ],
      "stateMutability": "view",
      "type": "function"
    },
    {
      "inputs": [
        {
          "internalType": "address",
          "name": "newManager",
          "type": "address"
        }
      ],
      "name": "setOwnershipManager",
      "outputs": [
        {
          "internalType": "bool",
          "name": "",
          "type": "bool"
        }
      ],
      "stateMutability": "nonpayable",
      "type": "function"
    },
    {
      "inputs": [],
      "name": "symbol",
      "outputs": [
        {
          "internalType": "string",
          "name": "",
          "type": "string"
        }
      ],
      "stateMutability": "view",
      "type": "function"
    },
    {
      "inputs": [
        {
          "internalType": "uint256",
          "name": "",
          "type": "uint256"
        }
      ],
      "name": "testers",
      "outputs": [
        {
          "internalType": "address",
          "name": "",
          "type": "address"
        }
      ],
      "stateMutability": "view",
      "type": "function"
    },
    {
      "inputs": [],
      "name": "totalSupply",
      "outputs": [
        {
          "internalType": "uint256",
          "name": "",
          "type": "uint256"
        }
      ],
      "stateMutability": "view",
      "type": "function"
    },
    {
      "inputs": [
        {
          "internalType": "address",
          "name": "to",
          "type": "address"
        },
        {
          "internalType": "uint256",
          "name": "value",
          "type": "uint256"
        }
      ],
      "name": "transfer",
      "outputs": [
        {
          "internalType": "bool",
          "name": "",
          "type": "bool"
        }
      ],
      "stateMutability": "nonpayable",
      "type": "function"
    },
    {
      "inputs": [
        {
          "internalType": "address",
          "name": "from",
          "type": "address"
        },
        {
          "internalType": "address",
          "name": "to",
          "type": "address"
        },
        {
          "internalType": "uint256",
          "name": "value",
          "type": "uint256"
        }
      ],
      "name": "transferFrom",
      "outputs": [
        {
          "internalType": "bool",
          "name": "",
          "type": "bool"
        }
      ],
      "stateMutability": "nonpayable",
      "type": "function"
    }
  ],
  "transactionHash": "0x129d7f1a9f960e411d9c071691d3dc7078b2b0b7dc4a023f85e336903dfc15bd",
  "args": [
    "0xF5aE8bE0B39FA81A89C410d0D764C692d368758f",
    "0x90395731cb1DE69f4DF80208c572EedbaE84986a"
  ],
  "numDeployments": 1,
  "solcInputHash": "e0e0dbebb426e54c80846e4e197ef37e",
  "bytecode": "0x60806040523480156200001157600080fd5b5060405162001740380380620017408339810160408190526200003491620004a8565b6040518060400160405280600f81526020017f54657374204261736520417373657400000000000000000000000000000000008152506040518060400160405280600481526020017f544253440000000000000000000000000000000000000000000000000000000081525083620000b281620001fe60201b60201c565b506004620000c18382620005c0565b506005620000d08282620005c0565b5050506001600160a01b03811662000149576040517f08c379a000000000000000000000000000000000000000000000000000000000815260206004820152601860248201527f436f6c6c61746572616c20746f6b656e206973207a65726f000000000000000060448201526064015b60405180910390fd5b6001600160a01b038216620001bb576040517f08c379a000000000000000000000000000000000000000000000000000000000815260206004820152601d60248201527f4f776e6572736869704d616e616765722061646472206973207a65726f000000604482015260640162000140565b600780546001600160a01b0319166001600160a01b038316179055620001ec3369152d02c7e14af680000062000220565b620001f662000277565b5050620006cd565b600080546001600160a01b0319166001600160a01b0392909216919091179055565b6001600160a01b03821662000265576040517fec442f050000000000000000000000000000000000000000000000000000000081526000600482015260240162000140565b620002736000838362000346565b5050565b3360009081526008602090815260409182902082518084019093525460ff808216151580855261010090920416151591830191909152620003115750336000818152600860205260408120805460ff191660019081179091556006805491820181559091527ff652222313e28459528d920b65115c16c04f3efc82aaedc97be59f3f377c0d3f0180546001600160a01b0319169091179055565b6040517f4740f26d00000000000000000000000000000000000000000000000000000000815260040160405180910390fd5b50565b6001600160a01b038316620003755780600360008282546200036991906200068c565b90915550620004029050565b6001600160a01b03831660009081526001602052604090205481811015620003e3576040517fe450d38c0000000000000000000000000000000000000000000000000000000081526001600160a01b0385166004820152602481018290526044810183905260640162000140565b6001600160a01b03841660009081526001602052604090209082900390555b6001600160a01b03821662000420576003805482900390556200043f565b6001600160a01b03821660009081526001602052604090208054820190555b816001600160a01b0316836001600160a01b03167fddf252ad1be2c89b69c2b068fc378daa952ba7f163c4a11628f55a4df523b3ef836040516200048591815260200190565b60405180910390a3505050565b6001600160a01b03811681146200034357600080fd5b60008060408385031215620004bc57600080fd5b8251620004c98162000492565b6020840151909250620004dc8162000492565b809150509250929050565b7f4e487b7100000000000000000000000000000000000000000000000000000000600052604160045260246000fd5b600181811c908216806200052b57607f821691505b60208210810362000565577f4e487b7100000000000000000000000000000000000000000000000000000000600052602260045260246000fd5b50919050565b601f821115620005bb576000816000526020600020601f850160051c81016020861015620005965750805b601f850160051c820191505b81811015620005b757828155600101620005a2565b5050505b505050565b81516001600160401b03811115620005dc57620005dc620004e7565b620005f481620005ed845462000516565b846200056b565b602080601f8311600181146200062c5760008415620006135750858301515b600019600386901b1c1916600185901b178555620005b7565b600085815260208120601f198616915b828110156200065d578886015182559484019460019091019084016200063c565b50858210156200067c5787850151600019600388901b60f8161c191681555b5050505050600190811b01905550565b80820180821115620006c7577f4e487b7100000000000000000000000000000000000000000000000000000000600052601160045260246000fd5b92915050565b61106380620006dd6000396000f3fe608060405234801561001057600080fd5b50600436106101165760003560e01c806361737d62116100a2578063a2edf17311610071578063a2edf1731461024f578063a9059cbb1461027a578063b2016bd41461028d578063b88a3915146102a0578063dd62ed3e146102b357600080fd5b806361737d62146101f857806370a082311461020b578063927f59ba1461023457806395d89b411461024757600080fd5b806323b872dd116100e957806323b872dd146101765780632d2e387f146101895780632db78d9314610191578063313ce567146101d45780633d05746d146101e357600080fd5b806306fdde031461011b578063095ea7b31461013957806310f00ae11461015c57806318160ddd14610164575b600080fd5b6101236102ec565b6040516101309190610d4e565b60405180910390f35b61014c610147366004610db9565b61037e565b6040519015158152602001610130565b61014c610398565b6003545b604051908152602001610130565b61014c610184366004610de3565b6103a9565b61014c6103cd565b6101bd61019f366004610e1f565b60086020526000908152604090205460ff8082169161010090041682565b604080519215158352901515602083015201610130565b60405160128152602001610130565b6101f66101f1366004610e57565b6103d7565b005b61014c610206366004610e1f565b61054b565b610168610219366004610e1f565b6001600160a01b031660009081526001602052604090205490565b6101f6610242366004610e57565b610631565b610123610726565b61026261025d366004610f1c565b610735565b6040516001600160a01b039091168152602001610130565b61014c610288366004610db9565b61075f565b600754610262906001600160a01b031681565b600054610262906001600160a01b031681565b6101686102c1366004610f35565b6001600160a01b03918216600090815260026020908152604080832093909416825291909152205490565b6060600480546102fb90610f68565b80601f016020809104026020016040519081016040528092919081815260200182805461032790610f68565b80156103745780601f1061034957610100808354040283529160200191610374565b820191906000526020600020905b81548152906001019060200180831161035757829003601f168201915b5050505050905090565b60003361038c81858561076d565b60019150505b92915050565b60006103a33361077a565b50600190565b6000336103b785828561098c565b6103c2858585610a04565b506001949350505050565b60006103a3610a63565b6000546001600160a01b03168061040157604051637e70a7e360e01b815260040160405180910390fd5b6001600160a01b038116632f54bf6e336040516001600160e01b031960e084901b1681526001600160a01b039091166004820152602401602060405180830381865afa158015610455573d6000803e3d6000fd5b505050506040513d601f19601f820116820180604052508101906104799190610f9c565b610496576040516315ed864b60e21b815260040160405180910390fd5b60005b82518110156105465760008382815181106104b6576104b6610fbe565b6020908102919091018101516001600160a01b03811660009081526008835260409081902081518083019092525460ff8082161580158085526101009093049091161515948301949094529193509161051157508060200151155b1561053c576001600160a01b0382166000908152600860205260409020805461ff0019166101001790555b5050600101610499565b505050565b600080546001600160a01b03168061057657604051637e70a7e360e01b815260040160405180910390fd5b6001600160a01b038116632f54bf6e336040516001600160e01b031960e084901b1681526001600160a01b039091166004820152602401602060405180830381865afa1580156105ca573d6000803e3d6000fd5b505050506040513d601f19601f820116820180604052508101906105ee9190610f9c565b61060b576040516315ed864b60e21b815260040160405180910390fd5b600080546001600160a01b0319166001600160a01b038516179055600191505b50919050565b6000546001600160a01b03168061065b57604051637e70a7e360e01b815260040160405180910390fd5b6001600160a01b038116632f54bf6e336040516001600160e01b031960e084901b1681526001600160a01b039091166004820152602401602060405180830381865afa1580156106af573d6000803e3d6000fd5b505050506040513d601f19601f820116820180604052508101906106d39190610f9c565b6106f0576040516315ed864b60e21b815260040160405180910390fd5b60005b82518110156105465761071e83828151811061071157610711610fbe565b602002602001015161077a565b6001016106f3565b6060600580546102fb90610f68565b6006818154811061074557600080fd5b6000918252602090912001546001600160a01b0316905081565b60003361038c818585610a04565b6105468383836001610b15565b6001600160a01b038116600090815260086020526040902054610100900460ff166107db5760405162461bcd60e51b815260206004820152600c60248201526b139bdd08185c1c1c9bdd995960a21b60448201526064015b60405180910390fd5b69010f0cf064dd5920000060006107f3826004610fea565b9050610814836001600160a01b031660009081526001602052604090205490565b600003610825576108258383610bea565b6007546040516370a0823160e01b81526001600160a01b038581166004830152909116906370a0823190602401602060405180830381865afa15801561086f573d6000803e3d6000fd5b505050506040513d601f19601f820116820180604052508101906108939190611001565b15801561090a57506007546040516370a0823160e01b815230600482015282916001600160a01b0316906370a0823190602401602060405180830381865afa1580156108e3573d6000803e3d6000fd5b505050506040513d601f19601f820116820180604052508101906109079190611001565b10155b156105465760075460405163a9059cbb60e01b81526001600160a01b038581166004830152602482018490529091169063a9059cbb906044016020604051808303816000875af1158015610962573d6000803e3d6000fd5b505050506040513d601f19601f820116820180604052508101906109869190610f9c565b50505050565b6001600160a01b03838116600090815260026020908152604080832093861683529290522054600019811461098657818110156109f557604051637dc7a0d960e11b81526001600160a01b038416600482015260248101829052604481018390526064016107d2565b61098684848484036000610b15565b6001600160a01b038316610a2e57604051634b637e8f60e11b8152600060048201526024016107d2565b6001600160a01b038216610a585760405163ec442f0560e01b8152600060048201526024016107d2565b610546838383610c24565b3360009081526008602090815260409182902082518084019093525460ff808216151580855261010090920416151591830191909152610afc5750336000818152600860205260408120805460ff191660019081179091556006805491820181559091527ff652222313e28459528d920b65115c16c04f3efc82aaedc97be59f3f377c0d3f0180546001600160a01b0319169091179055565b604051634740f26d60e01b815260040160405180910390fd5b6001600160a01b038416610b3f5760405163e602df0560e01b8152600060048201526024016107d2565b6001600160a01b038316610b6957604051634a1406b160e11b8152600060048201526024016107d2565b6001600160a01b038085166000908152600260209081526040808320938716835292905220829055801561098657826001600160a01b0316846001600160a01b03167f8c5be1e5ebec7d5bd14f71427d1e84f3dd0314c0f7b2291e5b200ac8c7c3b92584604051610bdc91815260200190565b60405180910390a350505050565b6001600160a01b038216610c145760405163ec442f0560e01b8152600060048201526024016107d2565b610c2060008383610c24565b5050565b6001600160a01b038316610c4f578060036000828254610c44919061101a565b90915550610cc19050565b6001600160a01b03831660009081526001602052604090205481811015610ca25760405163391434e360e21b81526001600160a01b038516600482015260248101829052604481018390526064016107d2565b6001600160a01b03841660009081526001602052604090209082900390555b6001600160a01b038216610cdd57600380548290039055610cfc565b6001600160a01b03821660009081526001602052604090208054820190555b816001600160a01b0316836001600160a01b03167fddf252ad1be2c89b69c2b068fc378daa952ba7f163c4a11628f55a4df523b3ef83604051610d4191815260200190565b60405180910390a3505050565b60006020808352835180602085015260005b81811015610d7c57858101830151858201604001528201610d60565b506000604082860101526040601f19601f8301168501019250505092915050565b80356001600160a01b0381168114610db457600080fd5b919050565b60008060408385031215610dcc57600080fd5b610dd583610d9d565b946020939093013593505050565b600080600060608486031215610df857600080fd5b610e0184610d9d565b9250610e0f60208501610d9d565b9150604084013590509250925092565b600060208284031215610e3157600080fd5b610e3a82610d9d565b9392505050565b634e487b7160e01b600052604160045260246000fd5b60006020808385031215610e6a57600080fd5b823567ffffffffffffffff80821115610e8257600080fd5b818501915085601f830112610e9657600080fd5b813581811115610ea857610ea8610e41565b8060051b604051601f19603f83011681018181108582111715610ecd57610ecd610e41565b604052918252848201925083810185019188831115610eeb57600080fd5b938501935b82851015610f1057610f0185610d9d565b84529385019392850192610ef0565b98975050505050505050565b600060208284031215610f2e57600080fd5b5035919050565b60008060408385031215610f4857600080fd5b610f5183610d9d565b9150610f5f60208401610d9d565b90509250929050565b600181811c90821680610f7c57607f821691505b60208210810361062b57634e487b7160e01b600052602260045260246000fd5b600060208284031215610fae57600080fd5b81518015158114610e3a57600080fd5b634e487b7160e01b600052603260045260246000fd5b634e487b7160e01b600052601160045260246000fd5b808202811582820484141761039257610392610fd4565b60006020828403121561101357600080fd5b5051919050565b8082018082111561039257610392610fd456fea264697066735822122042f575559f53991de652980225b8a7d693d46303049e75bce6f2d1e7e7c38f8c64736f6c63430008180033",
  "devdoc": {
    "errors": {
      "ERC20InsufficientAllowance(address,uint256,uint256)": [
        {
          "details": "Indicates a failure with the `spender`s `allowance`. Used in transfers.",
          "params": {
            "allowance": "Amount of tokens a `spender` is allowed to operate with.",
            "needed": "Minimum amount required to perform a transfer.",
            "spender": "Address that may be allowed to operate on tokens without being their owner."
          }
        }
      ],
      "ERC20InsufficientBalance(address,uint256,uint256)": [
        {
          "details": "Indicates an error related to the current `balance` of a `sender`. Used in transfers.",
          "params": {
            "balance": "Current balance for the interacting account.",
            "needed": "Minimum amount required to perform a transfer.",
            "sender": "Address whose tokens are being transferred."
          }
        }
      ],
      "ERC20InvalidApprover(address)": [
        {
          "details": "Indicates a failure with the `approver` of a token to be approved. Used in approvals.",
          "params": {
            "approver": "Address initiating an approval operation."
          }
        }
      ],
      "ERC20InvalidReceiver(address)": [
        {
          "details": "Indicates a failure with the token `receiver`. Used in transfers.",
          "params": {
            "receiver": "Address to which tokens are being transferred."
          }
        }
      ],
      "ERC20InvalidSender(address)": [
        {
          "details": "Indicates a failure with the token `sender`. Used in transfers.",
          "params": {
            "sender": "Address whose tokens are being transferred."
          }
        }
      ],
      "ERC20InvalidSpender(address)": [
        {
          "details": "Indicates a failure with the `spender` to be approved. Used in approvals.",
          "params": {
            "spender": "Address that may be allowed to operate on tokens without being their owner."
          }
        }
      ]
    },
    "events": {
      "Approval(address,address,uint256)": {
        "details": "Emitted when the allowance of a `spender` for an `owner` is set by a call to {approve}. `value` is the new allowance."
      },
      "Transfer(address,address,uint256)": {
        "details": "Emitted when `value` tokens are moved from one account (`from`) to another (`to`). Note that `value` may be zero."
      }
    },
    "kind": "dev",
    "methods": {
      "allowance(address,address)": {
        "details": "See {IERC20-allowance}."
      },
      "approve(address,uint256)": {
        "details": "See {IERC20-approve}. NOTE: If `value` is the maximum `uint256`, the allowance is not updated on `transferFrom`. This is semantically equivalent to an infinite approval. Requirements: - `spender` cannot be the zero address."
      },
      "approveTester(address[])": {
        "details": "Owner accounts can approve testers",
        "params": {
          "targets": ": List of accounts to approve "
        }
      },
      "balanceOf(address)": {
        "details": "See {IERC20-balanceOf}."
      },
      "decimals()": {
        "details": "Returns the number of decimals used to get its user representation. For example, if `decimals` equals `2`, a balance of `505` tokens should be displayed to a user as `5.05` (`505 / 10 ** 2`). Tokens usually opt for a value of 18, imitating the relationship between Ether and Wei. This is the default value returned by this function, unless it's overridden. NOTE: This information is only used for _display_ purposes: it in no way affects any of the arithmetic of the contract, including {IERC20-balanceOf} and {IERC20-transfer}."
      },
      "joinTestnet()": {
        "details": "Register users for testnet participation"
      },
      "mintBatch(address[])": {
        "details": "Assigned owner account (s) can send test tokens to multiple users provided they're  registered and approved.",
        "params": {
          "tos": ": A list of recipients"
        }
      },
      "name()": {
        "details": "Returns the name of the token."
      },
      "setOwnershipManager(address)": {
        "params": {
          "newManager": ": New manager address"
        }
      },
      "symbol()": {
        "details": "Returns the symbol of the token, usually a shorter version of the name."
      },
      "totalSupply()": {
        "details": "See {IERC20-totalSupply}."
      },
      "transfer(address,uint256)": {
        "details": "See {IERC20-transfer}. Requirements: - `to` cannot be the zero address. - the caller must have a balance of at least `value`."
      },
      "transferFrom(address,address,uint256)": {
        "details": "See {IERC20-transferFrom}. Emits an {Approval} event indicating the updated allowance. This is not required by the EIP. See the note at the beginning of {ERC20}. NOTE: Does not update the allowance if the current allowance is the maximum `uint256`. Requirements: - `from` and `to` cannot be the zero address. - `from` must have a balance of at least `value`. - the caller must have allowance for ``from``'s tokens of at least `value`."
      }
    },
    "version": 1
  },
  "userdoc": {
    "kind": "user",
    "methods": {
      "mintBatch(address[])": {
        "notice": "Sender must have ownership right or access"
      },
      "setOwnershipManager(address)": {
        "notice": "Set Ownership manager"
      }
    },
    "version": 1
  },
  "storageLayout": {
    "storage": [
      {
        "astId": 2338,
        "contract": "contracts/implementations/TestBaseAsset.sol:TestBaseAsset",
        "label": "ownershipManager",
        "offset": 0,
        "slot": "0",
        "type": "t_contract(IOwnerShip)3439"
      },
      {
        "astId": 159,
        "contract": "contracts/implementations/TestBaseAsset.sol:TestBaseAsset",
        "label": "_balances",
        "offset": 0,
        "slot": "1",
        "type": "t_mapping(t_address,t_uint256)"
      },
      {
        "astId": 165,
        "contract": "contracts/implementations/TestBaseAsset.sol:TestBaseAsset",
        "label": "_allowances",
        "offset": 0,
        "slot": "2",
        "type": "t_mapping(t_address,t_mapping(t_address,t_uint256))"
      },
      {
        "astId": 167,
        "contract": "contracts/implementations/TestBaseAsset.sol:TestBaseAsset",
        "label": "_totalSupply",
        "offset": 0,
        "slot": "3",
        "type": "t_uint256"
      },
      {
        "astId": 169,
        "contract": "contracts/implementations/TestBaseAsset.sol:TestBaseAsset",
        "label": "_name",
        "offset": 0,
        "slot": "4",
        "type": "t_string_storage"
      },
      {
        "astId": 171,
        "contract": "contracts/implementations/TestBaseAsset.sol:TestBaseAsset",
        "label": "_symbol",
        "offset": 0,
        "slot": "5",
        "type": "t_string_storage"
      },
      {
        "astId": 4072,
        "contract": "contracts/implementations/TestBaseAsset.sol:TestBaseAsset",
        "label": "testers",
        "offset": 0,
        "slot": "6",
        "type": "t_array(t_address)dyn_storage"
      },
      {
        "astId": 4075,
        "contract": "contracts/implementations/TestBaseAsset.sol:TestBaseAsset",
        "label": "collateralToken",
        "offset": 0,
        "slot": "7",
        "type": "t_contract(IERC20)3137"
      },
      {
        "astId": 4080,
        "contract": "contracts/implementations/TestBaseAsset.sol:TestBaseAsset",
        "label": "indexes",
        "offset": 0,
        "slot": "8",
        "type": "t_mapping(t_address,t_struct(Tester)4069_storage)"
      }
    ],
    "types": {
      "t_address": {
        "encoding": "inplace",
        "label": "address",
        "numberOfBytes": "20"
      },
      "t_array(t_address)dyn_storage": {
        "base": "t_address",
        "encoding": "dynamic_array",
        "label": "address[]",
        "numberOfBytes": "32"
      },
      "t_bool": {
        "encoding": "inplace",
        "label": "bool",
        "numberOfBytes": "1"
      },
      "t_contract(IERC20)3137": {
        "encoding": "inplace",
        "label": "contract IERC20",
        "numberOfBytes": "20"
      },
      "t_contract(IOwnerShip)3439": {
        "encoding": "inplace",
        "label": "contract IOwnerShip",
        "numberOfBytes": "20"
      },
      "t_mapping(t_address,t_mapping(t_address,t_uint256))": {
        "encoding": "mapping",
        "key": "t_address",
        "label": "mapping(address => mapping(address => uint256))",
        "numberOfBytes": "32",
        "value": "t_mapping(t_address,t_uint256)"
      },
      "t_mapping(t_address,t_struct(Tester)4069_storage)": {
        "encoding": "mapping",
        "key": "t_address",
        "label": "mapping(address => struct TestBaseAsset.Tester)",
        "numberOfBytes": "32",
        "value": "t_struct(Tester)4069_storage"
      },
      "t_mapping(t_address,t_uint256)": {
        "encoding": "mapping",
        "key": "t_address",
        "label": "mapping(address => uint256)",
        "numberOfBytes": "32",
        "value": "t_uint256"
      },
      "t_string_storage": {
        "encoding": "bytes",
        "label": "string",
        "numberOfBytes": "32"
      },
      "t_struct(Tester)4069_storage": {
        "encoding": "inplace",
        "label": "struct TestBaseAsset.Tester",
        "members": [
          {
            "astId": 4066,
            "contract": "contracts/implementations/TestBaseAsset.sol:TestBaseAsset",
            "label": "isSignedUp",
            "offset": 0,
            "slot": "0",
            "type": "t_bool"
          },
          {
            "astId": 4068,
            "contract": "contracts/implementations/TestBaseAsset.sol:TestBaseAsset",
            "label": "isApproved",
            "offset": 1,
            "slot": "0",
            "type": "t_bool"
          }
        ],
        "numberOfBytes": "32"
      },
      "t_uint256": {
        "encoding": "inplace",
        "label": "uint256",
        "numberOfBytes": "32"
      }
    }
  }
}