{
  "address": "0xB417BD4eB45A35Dd46f68C9549D4c55F2033E32F",
  "abi": [
    {
      "inputs": [
        {
          "internalType": "address[]",
          "name": "collateralAssets",
          "type": "address[]"
        },
        {
          "internalType": "contract IRoleBase",
          "name": "_roleManager",
          "type": "address"
        },
        {
          "components": [
            {
              "internalType": "string",
              "name": "pair",
              "type": "string"
            },
            {
              "internalType": "address",
              "name": "oracleAddress",
              "type": "address"
            },
            {
              "internalType": "uint128",
              "name": "latestPrice",
              "type": "uint128"
            },
            {
              "internalType": "uint128",
              "name": "timestampOflatestPrice",
              "type": "uint128"
            },
            {
              "internalType": "uint8",
              "name": "decimals",
              "type": "uint8"
            }
          ],
          "internalType": "struct IPriceOracle.PriceData[]",
          "name": "oracleData",
          "type": "tuple[]"
        }
      ],
      "stateMutability": "nonpayable",
      "type": "constructor"
    },
    {
      "inputs": [
        {
          "internalType": "string",
          "name": "errorMsg",
          "type": "string"
        }
      ],
      "name": "ErrorOccurred",
      "type": "error"
    },
    {
      "inputs": [],
      "name": "getDefaultSupportedCollateralAsset",
      "outputs": [
        {
          "internalType": "address",
          "name": "",
          "type": "address"
        }
      ],
      "stateMutability": "view",
      "type": "function"
    },
    {
      "inputs": [
        {
          "internalType": "address",
          "name": "asset",
          "type": "address"
        }
      ],
      "name": "getPriceQuote",
      "outputs": [
        {
          "internalType": "uint128",
          "name": "price",
          "type": "uint128"
        },
        {
          "internalType": "bool",
          "name": "inTime",
          "type": "bool"
        },
        {
          "internalType": "uint8",
          "name": "",
          "type": "uint8"
        }
      ],
      "stateMutability": "view",
      "type": "function"
    },
    {
      "inputs": [],
      "name": "getSupportedAssets",
      "outputs": [
        {
          "components": [
            {
              "internalType": "address",
              "name": "id",
              "type": "address"
            },
            {
              "internalType": "string",
              "name": "name",
              "type": "string"
            },
            {
              "internalType": "string",
              "name": "symbol",
              "type": "string"
            }
          ],
          "internalType": "struct ISupportedAsset.SupportedAsset[]",
          "name": "_assets",
          "type": "tuple[]"
        }
      ],
      "stateMutability": "view",
      "type": "function"
    },
    {
      "inputs": [
        {
          "internalType": "address",
          "name": "_asset",
          "type": "address"
        }
      ],
      "name": "isSupportedAsset",
      "outputs": [
        {
          "internalType": "bool",
          "name": "",
          "type": "bool"
        }
      ],
      "stateMutability": "view",
      "type": "function"
    },
    {
      "inputs": [
        {
          "internalType": "address",
          "name": "",
          "type": "address"
        }
      ],
      "name": "listed",
      "outputs": [
        {
          "internalType": "bool",
          "name": "",
          "type": "bool"
        }
      ],
      "stateMutability": "view",
      "type": "function"
    },
    {
      "inputs": [],
      "name": "maxTimePassed",
      "outputs": [
        {
          "internalType": "uint128",
          "name": "",
          "type": "uint128"
        }
      ],
      "stateMutability": "view",
      "type": "function"
    },
    {
      "inputs": [],
      "name": "roleManager",
      "outputs": [
        {
          "internalType": "contract IRoleBase",
          "name": "",
          "type": "address"
        }
      ],
      "stateMutability": "view",
      "type": "function"
    },
    {
      "inputs": [
        {
          "internalType": "uint128",
          "name": "newMaxTimePass",
          "type": "uint128"
        }
      ],
      "name": "setMaxTimePass",
      "outputs": [
        {
          "internalType": "bool",
          "name": "",
          "type": "bool"
        }
      ],
      "stateMutability": "nonpayable",
      "type": "function"
    },
    {
      "inputs": [
        {
          "internalType": "address",
          "name": "newManager",
          "type": "address"
        }
      ],
      "name": "setRoleManager",
      "outputs": [
        {
          "internalType": "bool",
          "name": "",
          "type": "bool"
        }
      ],
      "stateMutability": "nonpayable",
      "type": "function"
    },
    {
      "inputs": [
        {
          "internalType": "address",
          "name": "_asset",
          "type": "address"
        }
      ],
      "name": "supportAsset",
      "outputs": [],
      "stateMutability": "nonpayable",
      "type": "function"
    },
    {
      "inputs": [
        {
          "internalType": "address",
          "name": "newAsset",
          "type": "address"
        }
      ],
      "name": "unsupportAsset",
      "outputs": [],
      "stateMutability": "nonpayable",
      "type": "function"
    },
    {
      "inputs": [
        {
          "internalType": "address",
          "name": "asset",
          "type": "address"
        }
      ],
      "name": "updatePriceFeed",
      "outputs": [],
      "stateMutability": "nonpayable",
      "type": "function"
    }
  ],
  "transactionHash": "0xf4234e77bc1b5567036df87c043407175225d1add9218cf6e3d6a08128e55ed6",
  "args": [
    [
      "0xFc9685ecaf3063002E97595A5Fe0D037a9d8A75B",
      "0x152238bc1a9498464CA6ad055C4dcD33D495Be64"
    ],
    "0x16884C8C6a494527f4541007A46239218e76F661",
    [
      {
        "latestPrice": "0",
        "timestampOflatestPrice": "0",
        "oracleAddress": "0x022F9dCC73C5Fb43F2b4eF2EF9ad3eDD1D853946",
        "pair": "SIMPL/USD",
        "decimals": 18
      },
      {
        "latestPrice": "0",
        "timestampOflatestPrice": "0",
        "oracleAddress": "0x0568fD19986748cEfF3301e55c0eb1E729E0Ab7e",
        "pair": "CELO/USD",
        "decimals": 8
      }
    ]
  ],
  "numDeployments": 3,
  "solcInputHash": "89370d9a8b41c6d99998d35c26e63e2c",
  "bytecode": "0x60806040523480156200001157600080fd5b506040516200199338038062001993833981016040819052620000349162000706565b600080546001600160a01b0319166001600160a01b038416179055828260005b8251811015620000cb5760006001600160a01b03168382815181106200007e576200007e620007ea565b60200260200101516001600160a01b031614620000c257620000c2838281518110620000ae57620000ae620007ea565b60200260200101516200025860201b60201c565b60010162000054565b5050600180546001600160801b031916607817905550805183511462000151576040517f08c379a000000000000000000000000000000000000000000000000000000000815260206004820152601d60248201527f4f7261636c65206b65797320262076616c756573206d69736d61746368000000604482015260640160405180910390fd5b60005b83518110156200024e576000848281518110620001755762000175620007ea565b60200260200101519050828281518110620001945762000194620007ea565b6020908102919091018101516001600160a01b03831660009081526005909252604090912081518190620001c99082620008c3565b506020820151600180830180546001600160a01b039093166001600160a01b031990931692909217909155604083015160608401516001600160801b039081167001000000000000000000000000000000000291161760028301556080909201516003909101805460ff90921660ff1990921691909117905591909101905062000154565b50505050620009cf565b6001600160a01b03811660009081526004602052604090205460ff166200040a576001600160a01b0381166000818152600460208181526040808420805460ff19166001179055805160608101825285815281517f06fdde03000000000000000000000000000000000000000000000000000000008152915160029691959386019491936306fdde039380840193919291908290030181865afa15801562000304573d6000803e3d6000fd5b505050506040513d6000823e601f3d908101601f191682016040526200032e91908101906200098f565b8152602001836001600160a01b03166395d89b416040518163ffffffff1660e01b8152600401600060405180830381865afa15801562000372573d6000803e3d6000fd5b505050506040513d6000823e601f3d908101601f191682016040526200039c91908101906200098f565b90528154600180820184556000938452602093849020835160039093020180546001600160a01b0319166001600160a01b03909316929092178255928201519192909190820190620003ef9082620008c3565b5060408201516002820190620004069082620008c3565b5050505b6001600160a01b03811660009081526003602052604090205460ff166200044f576001600160a01b0381166000908152600360205260409020805460ff191660011790555b50565b7f4e487b7100000000000000000000000000000000000000000000000000000000600052604160045260246000fd5b60405160a081016001600160401b0381118282101715620004a657620004a662000452565b60405290565b604051601f8201601f191681016001600160401b0381118282101715620004d757620004d762000452565b604052919050565b60006001600160401b03821115620004fb57620004fb62000452565b5060051b60200190565b6001600160a01b03811681146200044f57600080fd5b8051620005288162000505565b919050565b600082601f8301126200053f57600080fd5b81516001600160401b038111156200055b576200055b62000452565b602062000571601f8301601f19168201620004ac565b82815285828487010111156200058657600080fd5b60005b83811015620005a657858101830151828201840152820162000589565b506000928101909101919091529392505050565b80516001600160801b03811681146200052857600080fd5b600082601f830112620005e457600080fd5b81516020620005fd620005f783620004df565b620004ac565b82815260059290921b840181019181810190868411156200061d57600080fd5b8286015b84811015620006fb5780516001600160401b0380821115620006435760008081fd5b9088019060a0828b03601f19018113156200065e5760008081fd5b6200066862000481565b87840151838111156200067b5760008081fd5b6200068b8d8a838801016200052d565b8252506040925082840151620006a18162000505565b818901526060620006b4858201620005ba565b8483015260809350620006c9848601620005ba565b90820152928101519260ff84168414620006e557600091508182fd5b9182019290925284525091830191830162000621565b509695505050505050565b6000806000606084860312156200071c57600080fd5b83516001600160401b03808211156200073457600080fd5b818601915086601f8301126200074957600080fd5b815160206200075c620005f783620004df565b82815260059290921b8401810191818101908a8411156200077c57600080fd5b948201945b83861015620007a7578551620007978162000505565b8252948201949082019062000781565b9750620007b890508882016200051b565b955050506040860151915080821115620007d157600080fd5b50620007e086828701620005d2565b9150509250925092565b7f4e487b7100000000000000000000000000000000000000000000000000000000600052603260045260246000fd5b600181811c908216806200082e57607f821691505b60208210810362000868577f4e487b7100000000000000000000000000000000000000000000000000000000600052602260045260246000fd5b50919050565b601f821115620008be576000816000526020600020601f850160051c81016020861015620008995750805b601f850160051c820191505b81811015620008ba57828155600101620008a5565b5050505b505050565b81516001600160401b03811115620008df57620008df62000452565b620008f781620008f0845462000819565b846200086e565b602080601f8311600181146200092f5760008415620009165750858301515b600019600386901b1c1916600185901b178555620008ba565b600085815260208120601f198616915b8281101562000960578886015182559484019460019091019084016200093f565b50858210156200097f5787850151600019600388901b60f8161c191681555b5050505050600190811b01905550565b600060208284031215620009a257600080fd5b81516001600160401b03811115620009b957600080fd5b620009c7848285016200052d565b949350505050565b610fb480620009df6000396000f3fe608060405234801561001057600080fd5b50600436106100b35760003560e01c80638fbdf193116100715780638fbdf1931461017657806395877f78146101b15780639be918e6146101c4578063d0eb2d80146101d7578063e5406dbf146101ea578063f1d588c5146101ff57600080fd5b8062435da5146100b85780634cd55c2d146100e857806364138230146100fd57806369687512146101305780636f0220cd14610143578063739c13db1461016e575b600080fd5b6000546100cb906001600160a01b031681565b6040516001600160a01b0390911681526020015b60405180910390f35b6100fb6100f6366004610b3d565b610212565b005b61012061010b366004610b3d565b60046020526000908152604090205460ff1681565b60405190151581526020016100df565b6100fb61013e366004610b3d565b610226565b600154610156906001600160801b031681565b6040516001600160801b0390911681526020016100df565b6100cb61024f565b610189610184366004610b3d565b610284565b604080516001600160801b039094168452911515602084015260ff16908201526060016100df565b6100fb6101bf366004610b3d565b6103b3565b6101206101d2366004610b3d565b6103c8565b6101206101e5366004610b6d565b6103eb565b6101f2610420565b6040516100df9190610be6565b61012061020d366004610b3d565b6105b9565b61021a6105e6565b61022381610662565b50565b61022e6105e6565b6001600160a01b03166000908152600360205260409020805460ff19169055565b6000600260008154811061026557610265610c84565b60009182526020909120600390910201546001600160a01b0316919050565b6001600160a01b038116600090815260056020526040808220815160a081019092528054839283928392829082906102bb90610c9a565b80601f01602080910402602001604051908101604052809291908181526020018280546102e790610c9a565b80156103345780601f1061030957610100808354040283529160200191610334565b820191906000526020600020905b81548152906001019060200180831161031757829003601f168201915b505050918352505060018201546001600160a01b0316602082015260028201546001600160801b03808216604080850191909152600160801b9092041660608084019190915260039093015460ff1660809092019190915282015190820151919250906103a090610836565b6080929092015190969195509350915050565b6103bb6105e6565b6103c48161085b565b5050565b6001600160a01b03811660009081526003602052604081205460ff165b92915050565b60006103f56105e6565b50600180546fffffffffffffffffffffffffffffffff19166001600160801b0383161781555b919050565b60606002805480602002602001604051908101604052809291908181526020016000905b828210156105b057600084815260209081902060408051606081019091526003850290910180546001600160a01b03168252600181018054929391929184019161048d90610c9a565b80601f01602080910402602001604051908101604052809291908181526020018280546104b990610c9a565b80156105065780601f106104db57610100808354040283529160200191610506565b820191906000526020600020905b8154815290600101906020018083116104e957829003601f168201915b5050505050815260200160028201805461051f90610c9a565b80601f016020809104026020016040519081016040528092919081815260200182805461054b90610c9a565b80156105985780601f1061056d57610100808354040283529160200191610598565b820191906000526020600020905b81548152906001019060200180831161057b57829003601f168201915b50505050508152505081526020019060010190610444565b50505050905090565b60006105c36105e6565b600080546001600160a01b0319166001600160a01b038416179055506001919050565b6000546001600160a01b031680610627576106276040518060400160405280600f81526020016e4d616e61676572206973207a65726f60881b81525061095f565b6106303361098a565b610223576102236040518060400160405280600d81526020016c1058d8d95cdcc819195b9a5959609a1b81525061095f565b6001600160a01b03811660009081526004602052604090205460ff166107f0576001600160a01b0381166000818152600460208181526040808420805460ff19166001179055805160608101825285815281516306fdde0360e01b8152915160029691959386019491936306fdde039380840193919291908290030181865afa1580156106f3573d6000803e3d6000fd5b505050506040513d6000823e601f3d908101601f1916820160405261071b9190810190610cea565b8152602001836001600160a01b03166395d89b416040518163ffffffff1660e01b8152600401600060405180830381865afa15801561075e573d6000803e3d6000fd5b505050506040513d6000823e601f3d908101601f191682016040526107869190810190610cea565b90528154600180820184556000938452602093849020835160039093020180546001600160a01b0319166001600160a01b039093169290921782559282015191929091908201906107d79082610de8565b50604082015160028201906107ec9082610de8565b5050505b6001600160a01b03811660009081526003602052604090205460ff16610223576001600160a01b0381166000908152600360205260409020805460ff1916600117905550565b6001546000906001600160801b039081169061085490841642610ea8565b1092915050565b6001600160a01b038116600090815260056020526040808220815160a0810190925280546103e592859290918290829061089490610c9a565b80601f01602080910402602001604051908101604052809291908181526020018280546108c090610c9a565b801561090d5780601f106108e25761010080835404028352916020019161090d565b820191906000526020600020905b8154815290600101906020018083116108f057829003601f168201915b505050918352505060018201546001600160a01b0316602082015260028201546001600160801b038082166040840152600160801b90910416606082015260039091015460ff166080909101526109f9565b805115610223578060405163cc86106360e01b81526004016109819190610ec9565b60405180910390fd5b60008054604051633f784de560e11b81526001600160a01b03848116600483015290911690637ef09bca90602401602060405180830381865afa1580156109d5573d6000803e3d6000fd5b505050506040513d601f19601f820116820180604052508101906103e59190610edc565b60006001600160a01b038316610a1157610a11610efe565b60008083602001516001600160a01b031663feaf968c6040518163ffffffff1660e01b815260040160a060405180830381865afa158015610a56573d6000803e3d6000fd5b505050506040513d601f19601f82011682018060405250810190610a7a9190610f2e565b506001600160801b038084166040808b019190915290821660608a01526001600160a01b038a166000908152600560205220885193965090945087935091829150610ac59082610de8565b5060208201516001820180546001600160a01b039092166001600160a01b031990921691909117905560408083015160608401516001600160801b03908116600160801b0291161760028301556080909201516003909101805460ff90921660ff199092169190911790559390930151949350505050565b600060208284031215610b4f57600080fd5b81356001600160a01b0381168114610b6657600080fd5b9392505050565b600060208284031215610b7f57600080fd5b81356001600160801b0381168114610b6657600080fd5b60005b83811015610bb1578181015183820152602001610b99565b50506000910152565b60008151808452610bd2816020860160208601610b96565b601f01601f19169290920160200192915050565b600060208083018184528085518083526040925060408601915060408160051b87010184880160005b83811015610c7657888303603f19018552815180516001600160a01b0316845287810151606089860181905290610c4882870182610bba565b91505087820151915084810388860152610c628183610bba565b968901969450505090860190600101610c0f565b509098975050505050505050565b634e487b7160e01b600052603260045260246000fd5b600181811c90821680610cae57607f821691505b602082108103610cce57634e487b7160e01b600052602260045260246000fd5b50919050565b634e487b7160e01b600052604160045260246000fd5b600060208284031215610cfc57600080fd5b815167ffffffffffffffff80821115610d1457600080fd5b818401915084601f830112610d2857600080fd5b815181811115610d3a57610d3a610cd4565b604051601f8201601f19908116603f01168101908382118183101715610d6257610d62610cd4565b81604052828152876020848701011115610d7b57600080fd5b610d8c836020830160208801610b96565b979650505050505050565b601f821115610de3576000816000526020600020601f850160051c81016020861015610dc05750805b601f850160051c820191505b81811015610ddf57828155600101610dcc565b5050505b505050565b815167ffffffffffffffff811115610e0257610e02610cd4565b610e1681610e108454610c9a565b84610d97565b602080601f831160018114610e4b5760008415610e335750858301515b600019600386901b1c1916600185901b178555610ddf565b600085815260208120601f198616915b82811015610e7a57888601518255948401946001909101908401610e5b565b5085821015610e985787850151600019600388901b60f8161c191681555b5050505050600190811b01905550565b818103818111156103e557634e487b7160e01b600052601160045260246000fd5b602081526000610b666020830184610bba565b600060208284031215610eee57600080fd5b81518015158114610b6657600080fd5b634e487b7160e01b600052600160045260246000fd5b805169ffffffffffffffffffff8116811461041b57600080fd5b600080600080600060a08688031215610f4657600080fd5b610f4f86610f14565b9450602086015193506040860151925060608601519150610f7260808701610f14565b9050929550929590935056fea2646970667358221220b13ce125a087b6b9f5a94b3f5713c4884a4811ce68521ec72a06e5b8fdf37edc64736f6c63430008180033",
  "devdoc": {
    "kind": "dev",
    "methods": {
      "constructor": {
        "params": {
          "_roleManager": ": Role manager contract",
          "collateralAssets": ": Supported assets",
          "oracleData": ": Celo oracle data: optional "
        }
      },
      "getPriceQuote(address)": {
        "details": "Get price data into external contracts",
        "params": {
          "asset": ": Asset for which to fetch price. "
        }
      },
      "getSupportedAssets()": {
        "details": "Returns a list of supported assets"
      },
      "isSupportedAsset(address)": {
        "details": "Check if an asset is supported"
      },
      "setMaxTimePass(uint128)": {
        "details": "Update the maxTimePass",
        "params": {
          "newMaxTimePass": ": New maxTime"
        }
      },
      "setRoleManager(address)": {
        "params": {
          "newManager": ": New manager address"
        }
      },
      "supportAsset(address)": {
        "details": "Support a new asset Note: OnlyRoleBase action",
        "params": {
          "_asset": ": Asset to add to list of supported asset"
        }
      },
      "unsupportAsset(address)": {
        "details": "Unsupports an asset Note: Only-owner action",
        "params": {
          "newAsset": ": Removes an asset from the list of supported asset"
        }
      },
      "updatePriceFeed(address)": {
        "details": "Get price data into external contracts",
        "params": {
          "asset": ": Asset for which to fetch price."
        }
      }
    },
    "version": 1
  },
  "userdoc": {
    "kind": "user",
    "methods": {
      "constructor": {
        "notice": "Ensure the length of collateralAssets matches that of celoOracleData."
      },
      "setRoleManager(address)": {
        "notice": "Set Role manager"
      },
      "updatePriceFeed(address)": {
        "notice": "Only permitted account can update the price feed"
      }
    },
    "version": 1
  },
  "storageLayout": {
    "storage": [
      {
        "astId": 3914,
        "contract": "contracts/standalone/oracles/CeloSupportedAssetManager.sol:CeloSupportedAssetManager",
        "label": "roleManager",
        "offset": 0,
        "slot": "0",
        "type": "t_contract(IRoleBase)1087"
      },
      {
        "astId": 5055,
        "contract": "contracts/standalone/oracles/CeloSupportedAssetManager.sol:CeloSupportedAssetManager",
        "label": "maxTimePassed",
        "offset": 0,
        "slot": "1",
        "type": "t_uint128"
      },
      {
        "astId": 5059,
        "contract": "contracts/standalone/oracles/CeloSupportedAssetManager.sol:CeloSupportedAssetManager",
        "label": "assets",
        "offset": 0,
        "slot": "2",
        "type": "t_array(t_struct(SupportedAsset)1198_storage)dyn_storage"
      },
      {
        "astId": 5064,
        "contract": "contracts/standalone/oracles/CeloSupportedAssetManager.sol:CeloSupportedAssetManager",
        "label": "supportedAssets",
        "offset": 0,
        "slot": "3",
        "type": "t_mapping(t_address,t_bool)"
      },
      {
        "astId": 5068,
        "contract": "contracts/standalone/oracles/CeloSupportedAssetManager.sol:CeloSupportedAssetManager",
        "label": "listed",
        "offset": 0,
        "slot": "4",
        "type": "t_mapping(t_address,t_bool)"
      },
      {
        "astId": 6564,
        "contract": "contracts/standalone/oracles/CeloSupportedAssetManager.sol:CeloSupportedAssetManager",
        "label": "data",
        "offset": 0,
        "slot": "5",
        "type": "t_mapping(t_address,t_struct(PriceData)1032_storage)"
      }
    ],
    "types": {
      "t_address": {
        "encoding": "inplace",
        "label": "address",
        "numberOfBytes": "20"
      },
      "t_array(t_struct(SupportedAsset)1198_storage)dyn_storage": {
        "base": "t_struct(SupportedAsset)1198_storage",
        "encoding": "dynamic_array",
        "label": "struct ISupportedAsset.SupportedAsset[]",
        "numberOfBytes": "32"
      },
      "t_bool": {
        "encoding": "inplace",
        "label": "bool",
        "numberOfBytes": "1"
      },
      "t_contract(IRoleBase)1087": {
        "encoding": "inplace",
        "label": "contract IRoleBase",
        "numberOfBytes": "20"
      },
      "t_mapping(t_address,t_bool)": {
        "encoding": "mapping",
        "key": "t_address",
        "label": "mapping(address => bool)",
        "numberOfBytes": "32",
        "value": "t_bool"
      },
      "t_mapping(t_address,t_struct(PriceData)1032_storage)": {
        "encoding": "mapping",
        "key": "t_address",
        "label": "mapping(address => struct IPriceOracle.PriceData)",
        "numberOfBytes": "32",
        "value": "t_struct(PriceData)1032_storage"
      },
      "t_string_storage": {
        "encoding": "bytes",
        "label": "string",
        "numberOfBytes": "32"
      },
      "t_struct(PriceData)1032_storage": {
        "encoding": "inplace",
        "label": "struct IPriceOracle.PriceData",
        "members": [
          {
            "astId": 1023,
            "contract": "contracts/standalone/oracles/CeloSupportedAssetManager.sol:CeloSupportedAssetManager",
            "label": "pair",
            "offset": 0,
            "slot": "0",
            "type": "t_string_storage"
          },
          {
            "astId": 1025,
            "contract": "contracts/standalone/oracles/CeloSupportedAssetManager.sol:CeloSupportedAssetManager",
            "label": "oracleAddress",
            "offset": 0,
            "slot": "1",
            "type": "t_address"
          },
          {
            "astId": 1027,
            "contract": "contracts/standalone/oracles/CeloSupportedAssetManager.sol:CeloSupportedAssetManager",
            "label": "latestPrice",
            "offset": 0,
            "slot": "2",
            "type": "t_uint128"
          },
          {
            "astId": 1029,
            "contract": "contracts/standalone/oracles/CeloSupportedAssetManager.sol:CeloSupportedAssetManager",
            "label": "timestampOflatestPrice",
            "offset": 16,
            "slot": "2",
            "type": "t_uint128"
          },
          {
            "astId": 1031,
            "contract": "contracts/standalone/oracles/CeloSupportedAssetManager.sol:CeloSupportedAssetManager",
            "label": "decimals",
            "offset": 0,
            "slot": "3",
            "type": "t_uint8"
          }
        ],
        "numberOfBytes": "128"
      },
      "t_struct(SupportedAsset)1198_storage": {
        "encoding": "inplace",
        "label": "struct ISupportedAsset.SupportedAsset",
        "members": [
          {
            "astId": 1193,
            "contract": "contracts/standalone/oracles/CeloSupportedAssetManager.sol:CeloSupportedAssetManager",
            "label": "id",
            "offset": 0,
            "slot": "0",
            "type": "t_address"
          },
          {
            "astId": 1195,
            "contract": "contracts/standalone/oracles/CeloSupportedAssetManager.sol:CeloSupportedAssetManager",
            "label": "name",
            "offset": 0,
            "slot": "1",
            "type": "t_string_storage"
          },
          {
            "astId": 1197,
            "contract": "contracts/standalone/oracles/CeloSupportedAssetManager.sol:CeloSupportedAssetManager",
            "label": "symbol",
            "offset": 0,
            "slot": "2",
            "type": "t_string_storage"
          }
        ],
        "numberOfBytes": "96"
      },
      "t_uint128": {
        "encoding": "inplace",
        "label": "uint128",
        "numberOfBytes": "16"
      },
      "t_uint8": {
        "encoding": "inplace",
        "label": "uint8",
        "numberOfBytes": "1"
      }
    }
  }
}