{
  "address": "0x38fC92b96f1c4920FbA7aae7bB954f5d20cC4D3a",
  "abi": [
    {
      "inputs": [
        {
          "internalType": "uint16",
          "name": "serviceRate",
          "type": "uint16"
        },
        {
          "internalType": "address",
          "name": "feeTo",
          "type": "address"
        },
        {
          "internalType": "contract IAssetClass",
          "name": "assetClass",
          "type": "address"
        },
        {
          "internalType": "address",
          "name": "bankFactory",
          "type": "address"
        },
        {
          "internalType": "contract IOwnerShip",
          "name": "ownerShipManager",
          "type": "address"
        },
        {
          "internalType": "address",
          "name": "diaOracleAddress",
          "type": "address"
        },
        {
          "internalType": "contract IERC20",
          "name": "colToken",
          "type": "address"
        }
      ],
      "stateMutability": "nonpayable",
      "type": "constructor"
    },
    {
      "inputs": [],
      "name": "AllMemberIsPaid",
      "type": "error"
    },
    {
      "inputs": [],
      "name": "AmountLowerThanMinimumContribution",
      "type": "error"
    },
    {
      "inputs": [],
      "name": "CancellationNotAllowed",
      "type": "error"
    },
    {
      "inputs": [
        {
          "internalType": "uint24",
          "name": "ccr",
          "type": "uint24"
        }
      ],
      "name": "CollateralCoverageCannotGoBelow_100",
      "type": "error"
    },
    {
      "inputs": [],
      "name": "CollateralCoverageCannotGoBelow_100",
      "type": "error"
    },
    {
      "inputs": [],
      "name": "CurrentReceiverIsNotADefaulter",
      "type": "error"
    },
    {
      "inputs": [],
      "name": "EnforcedPause",
      "type": "error"
    },
    {
      "inputs": [],
      "name": "ExpectedPause",
      "type": "error"
    },
    {
      "inputs": [],
      "name": "InsufficientAllowance",
      "type": "error"
    },
    {
      "inputs": [],
      "name": "InsufficientFund",
      "type": "error"
    },
    {
      "inputs": [],
      "name": "ManagerAddressIsZero",
      "type": "error"
    },
    {
      "inputs": [],
      "name": "MinimumParticipantIsTwo",
      "type": "error"
    },
    {
      "inputs": [],
      "name": "NoDebtFound",
      "type": "error"
    },
    {
      "inputs": [],
      "name": "NotAMember",
      "type": "error"
    },
    {
      "inputs": [],
      "name": "NotPermittedToCall",
      "type": "error"
    },
    {
      "inputs": [],
      "name": "OnlyAdminIsAllowed",
      "type": "error"
    },
    {
      "inputs": [],
      "name": "OracleAddressIsZero",
      "type": "error"
    },
    {
      "inputs": [],
      "name": "OwnershipManagerIsNotSet",
      "type": "error"
    },
    {
      "inputs": [],
      "name": "PoolIsFilled",
      "type": "error"
    },
    {
      "inputs": [],
      "name": "PoolNotComplete",
      "type": "error"
    },
    {
      "inputs": [],
      "name": "QuorumIsInvalid",
      "type": "error"
    },
    {
      "inputs": [],
      "name": "SafeAddupFailed",
      "type": "error"
    },
    {
      "inputs": [],
      "name": "TransferFailed",
      "type": "error"
    },
    {
      "inputs": [],
      "name": "TurnTimeHasNotPassed",
      "type": "error"
    },
    {
      "inputs": [
        {
          "internalType": "address",
          "name": "",
          "type": "address"
        }
      ],
      "name": "UnSupportedAsset",
      "type": "error"
    },
    {
      "inputs": [],
      "name": "UnitIsTaken",
      "type": "error"
    },
    {
      "inputs": [],
      "name": "UserDoesNotHaveAccess",
      "type": "error"
    },
    {
      "anonymous": false,
      "inputs": [
        {
          "indexed": false,
          "internalType": "uint256",
          "name": "epochId",
          "type": "uint256"
        }
      ],
      "name": "Cancellation",
      "type": "event"
    },
    {
      "anonymous": false,
      "inputs": [
        {
          "components": [
            {
              "components": [
                {
                  "internalType": "uint256",
                  "name": "quorum",
                  "type": "uint256"
                },
                {
                  "internalType": "uint256",
                  "name": "selector",
                  "type": "uint256"
                },
                {
                  "internalType": "uint256",
                  "name": "colCoverage",
                  "type": "uint256"
                },
                {
                  "internalType": "uint256",
                  "name": "duration",
                  "type": "uint256"
                },
                {
                  "internalType": "uint256",
                  "name": "intRate",
                  "type": "uint256"
                },
                {
                  "internalType": "uint256",
                  "name": "cSlot",
                  "type": "uint256"
                },
                {
                  "internalType": "uint256",
                  "name": "allGh",
                  "type": "uint256"
                },
                {
                  "internalType": "uint256",
                  "name": "userCount",
                  "type": "uint256"
                }
              ],
              "internalType": "struct Common.LInt",
              "name": "lInt",
              "type": "tuple"
            },
            {
              "components": [
                {
                  "internalType": "uint256",
                  "name": "unit",
                  "type": "uint256"
                },
                {
                  "internalType": "uint256",
                  "name": "currentPool",
                  "type": "uint256"
                },
                {
                  "internalType": "uint256",
                  "name": "recordId",
                  "type": "uint256"
                },
                {
                  "internalType": "uint256",
                  "name": "unitId",
                  "type": "uint256"
                }
              ],
              "internalType": "struct Common.BigInt",
              "name": "bigInt",
              "type": "tuple"
            },
            {
              "components": [
                {
                  "internalType": "address",
                  "name": "asset",
                  "type": "address"
                },
                {
                  "internalType": "address",
                  "name": "lastPaid",
                  "type": "address"
                },
                {
                  "internalType": "address",
                  "name": "bank",
                  "type": "address"
                },
                {
                  "internalType": "address",
                  "name": "admin",
                  "type": "address"
                }
              ],
              "internalType": "struct Common.Addresses",
              "name": "addrs",
              "type": "tuple"
            },
            {
              "internalType": "enum Common.Router",
              "name": "router",
              "type": "uint8"
            },
            {
              "internalType": "enum Common.Stage",
              "name": "stage",
              "type": "uint8"
            },
            {
              "components": [
                {
                  "internalType": "uint256",
                  "name": "fullInterest",
                  "type": "uint256"
                },
                {
                  "internalType": "uint256",
                  "name": "intPerSec",
                  "type": "uint256"
                },
                {
                  "internalType": "uint256",
                  "name": "intPerChoiceOfDur",
                  "type": "uint256"
                }
              ],
              "internalType": "struct Common.Interest",
              "name": "interest",
              "type": "tuple"
            },
            {
              "internalType": "enum Common.Status",
              "name": "status",
              "type": "uint8"
            }
          ],
          "indexed": false,
          "internalType": "struct Common.Pool",
          "name": "",
          "type": "tuple"
        }
      ],
      "name": "GetFinanced",
      "type": "event"
    },
    {
      "anonymous": false,
      "inputs": [
        {
          "components": [
            {
              "components": [
                {
                  "internalType": "uint256",
                  "name": "quorum",
                  "type": "uint256"
                },
                {
                  "internalType": "uint256",
                  "name": "selector",
                  "type": "uint256"
                },
                {
                  "internalType": "uint256",
                  "name": "colCoverage",
                  "type": "uint256"
                },
                {
                  "internalType": "uint256",
                  "name": "duration",
                  "type": "uint256"
                },
                {
                  "internalType": "uint256",
                  "name": "intRate",
                  "type": "uint256"
                },
                {
                  "internalType": "uint256",
                  "name": "cSlot",
                  "type": "uint256"
                },
                {
                  "internalType": "uint256",
                  "name": "allGh",
                  "type": "uint256"
                },
                {
                  "internalType": "uint256",
                  "name": "userCount",
                  "type": "uint256"
                }
              ],
              "internalType": "struct Common.LInt",
              "name": "lInt",
              "type": "tuple"
            },
            {
              "components": [
                {
                  "internalType": "uint256",
                  "name": "unit",
                  "type": "uint256"
                },
                {
                  "internalType": "uint256",
                  "name": "currentPool",
                  "type": "uint256"
                },
                {
                  "internalType": "uint256",
                  "name": "recordId",
                  "type": "uint256"
                },
                {
                  "internalType": "uint256",
                  "name": "unitId",
                  "type": "uint256"
                }
              ],
              "internalType": "struct Common.BigInt",
              "name": "bigInt",
              "type": "tuple"
            },
            {
              "components": [
                {
                  "internalType": "address",
                  "name": "asset",
                  "type": "address"
                },
                {
                  "internalType": "address",
                  "name": "lastPaid",
                  "type": "address"
                },
                {
                  "internalType": "address",
                  "name": "bank",
                  "type": "address"
                },
                {
                  "internalType": "address",
                  "name": "admin",
                  "type": "address"
                }
              ],
              "internalType": "struct Common.Addresses",
              "name": "addrs",
              "type": "tuple"
            },
            {
              "internalType": "enum Common.Router",
              "name": "router",
              "type": "uint8"
            },
            {
              "internalType": "enum Common.Stage",
              "name": "stage",
              "type": "uint8"
            },
            {
              "components": [
                {
                  "internalType": "uint256",
                  "name": "fullInterest",
                  "type": "uint256"
                },
                {
                  "internalType": "uint256",
                  "name": "intPerSec",
                  "type": "uint256"
                },
                {
                  "internalType": "uint256",
                  "name": "intPerChoiceOfDur",
                  "type": "uint256"
                }
              ],
              "internalType": "struct Common.Interest",
              "name": "interest",
              "type": "tuple"
            },
            {
              "internalType": "enum Common.Status",
              "name": "status",
              "type": "uint8"
            }
          ],
          "indexed": false,
          "internalType": "struct Common.Pool",
          "name": "",
          "type": "tuple"
        }
      ],
      "name": "Liquidated",
      "type": "event"
    },
    {
      "anonymous": false,
      "inputs": [
        {
          "components": [
            {
              "components": [
                {
                  "internalType": "uint256",
                  "name": "quorum",
                  "type": "uint256"
                },
                {
                  "internalType": "uint256",
                  "name": "selector",
                  "type": "uint256"
                },
                {
                  "internalType": "uint256",
                  "name": "colCoverage",
                  "type": "uint256"
                },
                {
                  "internalType": "uint256",
                  "name": "duration",
                  "type": "uint256"
                },
                {
                  "internalType": "uint256",
                  "name": "intRate",
                  "type": "uint256"
                },
                {
                  "internalType": "uint256",
                  "name": "cSlot",
                  "type": "uint256"
                },
                {
                  "internalType": "uint256",
                  "name": "allGh",
                  "type": "uint256"
                },
                {
                  "internalType": "uint256",
                  "name": "userCount",
                  "type": "uint256"
                }
              ],
              "internalType": "struct Common.LInt",
              "name": "lInt",
              "type": "tuple"
            },
            {
              "components": [
                {
                  "internalType": "uint256",
                  "name": "unit",
                  "type": "uint256"
                },
                {
                  "internalType": "uint256",
                  "name": "currentPool",
                  "type": "uint256"
                },
                {
                  "internalType": "uint256",
                  "name": "recordId",
                  "type": "uint256"
                },
                {
                  "internalType": "uint256",
                  "name": "unitId",
                  "type": "uint256"
                }
              ],
              "internalType": "struct Common.BigInt",
              "name": "bigInt",
              "type": "tuple"
            },
            {
              "components": [
                {
                  "internalType": "address",
                  "name": "asset",
                  "type": "address"
                },
                {
                  "internalType": "address",
                  "name": "lastPaid",
                  "type": "address"
                },
                {
                  "internalType": "address",
                  "name": "bank",
                  "type": "address"
                },
                {
                  "internalType": "address",
                  "name": "admin",
                  "type": "address"
                }
              ],
              "internalType": "struct Common.Addresses",
              "name": "addrs",
              "type": "tuple"
            },
            {
              "internalType": "enum Common.Router",
              "name": "router",
              "type": "uint8"
            },
            {
              "internalType": "enum Common.Stage",
              "name": "stage",
              "type": "uint8"
            },
            {
              "components": [
                {
                  "internalType": "uint256",
                  "name": "fullInterest",
                  "type": "uint256"
                },
                {
                  "internalType": "uint256",
                  "name": "intPerSec",
                  "type": "uint256"
                },
                {
                  "internalType": "uint256",
                  "name": "intPerChoiceOfDur",
                  "type": "uint256"
                }
              ],
              "internalType": "struct Common.Interest",
              "name": "interest",
              "type": "tuple"
            },
            {
              "internalType": "enum Common.Status",
              "name": "status",
              "type": "uint8"
            }
          ],
          "indexed": false,
          "internalType": "struct Common.Pool",
          "name": "",
          "type": "tuple"
        }
      ],
      "name": "NewContributorAdded",
      "type": "event"
    },
    {
      "anonymous": false,
      "inputs": [
        {
          "indexed": false,
          "internalType": "address",
          "name": "account",
          "type": "address"
        }
      ],
      "name": "Paused",
      "type": "event"
    },
    {
      "anonymous": false,
      "inputs": [
        {
          "components": [
            {
              "components": [
                {
                  "internalType": "uint256",
                  "name": "quorum",
                  "type": "uint256"
                },
                {
                  "internalType": "uint256",
                  "name": "selector",
                  "type": "uint256"
                },
                {
                  "internalType": "uint256",
                  "name": "colCoverage",
                  "type": "uint256"
                },
                {
                  "internalType": "uint256",
                  "name": "duration",
                  "type": "uint256"
                },
                {
                  "internalType": "uint256",
                  "name": "intRate",
                  "type": "uint256"
                },
                {
                  "internalType": "uint256",
                  "name": "cSlot",
                  "type": "uint256"
                },
                {
                  "internalType": "uint256",
                  "name": "allGh",
                  "type": "uint256"
                },
                {
                  "internalType": "uint256",
                  "name": "userCount",
                  "type": "uint256"
                }
              ],
              "internalType": "struct Common.LInt",
              "name": "lInt",
              "type": "tuple"
            },
            {
              "components": [
                {
                  "internalType": "uint256",
                  "name": "unit",
                  "type": "uint256"
                },
                {
                  "internalType": "uint256",
                  "name": "currentPool",
                  "type": "uint256"
                },
                {
                  "internalType": "uint256",
                  "name": "recordId",
                  "type": "uint256"
                },
                {
                  "internalType": "uint256",
                  "name": "unitId",
                  "type": "uint256"
                }
              ],
              "internalType": "struct Common.BigInt",
              "name": "bigInt",
              "type": "tuple"
            },
            {
              "components": [
                {
                  "internalType": "address",
                  "name": "asset",
                  "type": "address"
                },
                {
                  "internalType": "address",
                  "name": "lastPaid",
                  "type": "address"
                },
                {
                  "internalType": "address",
                  "name": "bank",
                  "type": "address"
                },
                {
                  "internalType": "address",
                  "name": "admin",
                  "type": "address"
                }
              ],
              "internalType": "struct Common.Addresses",
              "name": "addrs",
              "type": "tuple"
            },
            {
              "internalType": "enum Common.Router",
              "name": "router",
              "type": "uint8"
            },
            {
              "internalType": "enum Common.Stage",
              "name": "stage",
              "type": "uint8"
            },
            {
              "components": [
                {
                  "internalType": "uint256",
                  "name": "fullInterest",
                  "type": "uint256"
                },
                {
                  "internalType": "uint256",
                  "name": "intPerSec",
                  "type": "uint256"
                },
                {
                  "internalType": "uint256",
                  "name": "intPerChoiceOfDur",
                  "type": "uint256"
                }
              ],
              "internalType": "struct Common.Interest",
              "name": "interest",
              "type": "tuple"
            },
            {
              "internalType": "enum Common.Status",
              "name": "status",
              "type": "uint8"
            }
          ],
          "indexed": false,
          "internalType": "struct Common.Pool",
          "name": "",
          "type": "tuple"
        }
      ],
      "name": "Payback",
      "type": "event"
    },
    {
      "anonymous": false,
      "inputs": [
        {
          "components": [
            {
              "components": [
                {
                  "internalType": "uint256",
                  "name": "quorum",
                  "type": "uint256"
                },
                {
                  "internalType": "uint256",
                  "name": "selector",
                  "type": "uint256"
                },
                {
                  "internalType": "uint256",
                  "name": "colCoverage",
                  "type": "uint256"
                },
                {
                  "internalType": "uint256",
                  "name": "duration",
                  "type": "uint256"
                },
                {
                  "internalType": "uint256",
                  "name": "intRate",
                  "type": "uint256"
                },
                {
                  "internalType": "uint256",
                  "name": "cSlot",
                  "type": "uint256"
                },
                {
                  "internalType": "uint256",
                  "name": "allGh",
                  "type": "uint256"
                },
                {
                  "internalType": "uint256",
                  "name": "userCount",
                  "type": "uint256"
                }
              ],
              "internalType": "struct Common.LInt",
              "name": "lInt",
              "type": "tuple"
            },
            {
              "components": [
                {
                  "internalType": "uint256",
                  "name": "unit",
                  "type": "uint256"
                },
                {
                  "internalType": "uint256",
                  "name": "currentPool",
                  "type": "uint256"
                },
                {
                  "internalType": "uint256",
                  "name": "recordId",
                  "type": "uint256"
                },
                {
                  "internalType": "uint256",
                  "name": "unitId",
                  "type": "uint256"
                }
              ],
              "internalType": "struct Common.BigInt",
              "name": "bigInt",
              "type": "tuple"
            },
            {
              "components": [
                {
                  "internalType": "address",
                  "name": "asset",
                  "type": "address"
                },
                {
                  "internalType": "address",
                  "name": "lastPaid",
                  "type": "address"
                },
                {
                  "internalType": "address",
                  "name": "bank",
                  "type": "address"
                },
                {
                  "internalType": "address",
                  "name": "admin",
                  "type": "address"
                }
              ],
              "internalType": "struct Common.Addresses",
              "name": "addrs",
              "type": "tuple"
            },
            {
              "internalType": "enum Common.Router",
              "name": "router",
              "type": "uint8"
            },
            {
              "internalType": "enum Common.Stage",
              "name": "stage",
              "type": "uint8"
            },
            {
              "components": [
                {
                  "internalType": "uint256",
                  "name": "fullInterest",
                  "type": "uint256"
                },
                {
                  "internalType": "uint256",
                  "name": "intPerSec",
                  "type": "uint256"
                },
                {
                  "internalType": "uint256",
                  "name": "intPerChoiceOfDur",
                  "type": "uint256"
                }
              ],
              "internalType": "struct Common.Interest",
              "name": "interest",
              "type": "tuple"
            },
            {
              "internalType": "enum Common.Status",
              "name": "status",
              "type": "uint8"
            }
          ],
          "indexed": false,
          "internalType": "struct Common.Pool",
          "name": "",
          "type": "tuple"
        }
      ],
      "name": "PoolCreated",
      "type": "event"
    },
    {
      "anonymous": false,
      "inputs": [
        {
          "indexed": false,
          "internalType": "address",
          "name": "account",
          "type": "address"
        }
      ],
      "name": "Unpaused",
      "type": "event"
    },
    {
      "inputs": [],
      "name": "analytics",
      "outputs": [
        {
          "internalType": "uint256",
          "name": "tvlCollateral",
          "type": "uint256"
        },
        {
          "internalType": "uint256",
          "name": "tvlBase",
          "type": "uint256"
        },
        {
          "internalType": "uint256",
          "name": "totalPermissioned",
          "type": "uint256"
        },
        {
          "internalType": "uint256",
          "name": "totalPermissionless",
          "type": "uint256"
        }
      ],
      "stateMutability": "view",
      "type": "function"
    },
    {
      "inputs": [
        {
          "internalType": "uint16",
          "name": "intRate",
          "type": "uint16"
        },
        {
          "internalType": "uint16",
          "name": "durationInHours",
          "type": "uint16"
        },
        {
          "internalType": "uint24",
          "name": "colCoverage",
          "type": "uint24"
        },
        {
          "internalType": "uint256",
          "name": "unitLiquidity",
          "type": "uint256"
        },
        {
          "internalType": "address",
          "name": "asset",
          "type": "address"
        },
        {
          "internalType": "address[]",
          "name": "contributors",
          "type": "address[]"
        }
      ],
      "name": "createPermissionedPool",
      "outputs": [
        {
          "internalType": "bool",
          "name": "",
          "type": "bool"
        }
      ],
      "stateMutability": "nonpayable",
      "type": "function"
    },
    {
      "inputs": [
        {
          "internalType": "uint16",
          "name": "intRate",
          "type": "uint16"
        },
        {
          "internalType": "uint8",
          "name": "quorum",
          "type": "uint8"
        },
        {
          "internalType": "uint16",
          "name": "durationInHours",
          "type": "uint16"
        },
        {
          "internalType": "uint24",
          "name": "colCoverage",
          "type": "uint24"
        },
        {
          "internalType": "uint256",
          "name": "unitLiquidity",
          "type": "uint256"
        },
        {
          "internalType": "address",
          "name": "asset",
          "type": "address"
        }
      ],
      "name": "createPermissionlessPool",
      "outputs": [
        {
          "internalType": "bool",
          "name": "",
          "type": "bool"
        }
      ],
      "stateMutability": "nonpayable",
      "type": "function"
    },
    {
      "inputs": [],
      "name": "diaOracleAddress",
      "outputs": [
        {
          "internalType": "address",
          "name": "",
          "type": "address"
        }
      ],
      "stateMutability": "view",
      "type": "function"
    },
    {
      "inputs": [
        {
          "internalType": "uint256",
          "name": "unit",
          "type": "uint256"
        }
      ],
      "name": "enquireLiquidation",
      "outputs": [
        {
          "components": [
            {
              "internalType": "uint256",
              "name": "durOfChoice",
              "type": "uint256"
            },
            {
              "internalType": "uint256",
              "name": "paybackTime",
              "type": "uint256"
            },
            {
              "internalType": "uint256",
              "name": "turnStartTime",
              "type": "uint256"
            },
            {
              "internalType": "uint256",
              "name": "getFinanceTime",
              "type": "uint256"
            },
            {
              "internalType": "uint256",
              "name": "loan",
              "type": "uint256"
            },
            {
              "internalType": "uint256",
              "name": "colBals",
              "type": "uint256"
            },
            {
              "internalType": "address",
              "name": "id",
              "type": "address"
            },
            {
              "internalType": "bool",
              "name": "sentQuota",
              "type": "bool"
            },
            {
              "internalType": "uint256",
              "name": "interestPaid",
              "type": "uint256"
            }
          ],
          "internalType": "struct Common.Contributor",
          "name": "",
          "type": "tuple"
        },
        {
          "internalType": "bool",
          "name": "",
          "type": "bool"
        },
        {
          "internalType": "uint256",
          "name": "",
          "type": "uint256"
        },
        {
          "components": [
            {
              "internalType": "uint256",
              "name": "value",
              "type": "uint256"
            },
            {
              "internalType": "bool",
              "name": "isMember",
              "type": "bool"
            },
            {
              "internalType": "bool",
              "name": "isAdmin",
              "type": "bool"
            }
          ],
          "internalType": "struct Common.Slot",
          "name": "",
          "type": "tuple"
        },
        {
          "internalType": "address",
          "name": "",
          "type": "address"
        }
      ],
      "stateMutability": "view",
      "type": "function"
    },
    {
      "inputs": [
        {
          "internalType": "uint256",
          "name": "unit",
          "type": "uint256"
        }
      ],
      "name": "getCollaterlQuote",
      "outputs": [
        {
          "internalType": "uint256",
          "name": "collateral",
          "type": "uint256"
        },
        {
          "internalType": "uint24",
          "name": "colCoverage",
          "type": "uint24"
        }
      ],
      "stateMutability": "view",
      "type": "function"
    },
    {
      "inputs": [
        {
          "internalType": "uint256",
          "name": "unit",
          "type": "uint256"
        },
        {
          "internalType": "address",
          "name": "target",
          "type": "address"
        }
      ],
      "name": "getCurrentDebt",
      "outputs": [
        {
          "internalType": "uint256",
          "name": "",
          "type": "uint256"
        }
      ],
      "stateMutability": "view",
      "type": "function"
    },
    {
      "inputs": [],
      "name": "getEpoches",
      "outputs": [
        {
          "internalType": "uint256",
          "name": "",
          "type": "uint256"
        }
      ],
      "stateMutability": "view",
      "type": "function"
    },
    {
      "inputs": [],
      "name": "getFactoryData",
      "outputs": [
        {
          "components": [
            {
              "components": [
                {
                  "internalType": "uint256",
                  "name": "tvlCollateral",
                  "type": "uint256"
                },
                {
                  "internalType": "uint256",
                  "name": "tvlBase",
                  "type": "uint256"
                },
                {
                  "internalType": "uint256",
                  "name": "totalPermissioned",
                  "type": "uint256"
                },
                {
                  "internalType": "uint256",
                  "name": "totalPermissionless",
                  "type": "uint256"
                }
              ],
              "internalType": "struct IFactory.Analytics",
              "name": "analytics",
              "type": "tuple"
            },
            {
              "components": [
                {
                  "internalType": "address",
                  "name": "feeTo",
                  "type": "address"
                },
                {
                  "internalType": "contract IAssetClass",
                  "name": "assetAdmin",
                  "type": "address"
                },
                {
                  "internalType": "uint16",
                  "name": "makerRate",
                  "type": "uint16"
                },
                {
                  "internalType": "address",
                  "name": "safeFactory",
                  "type": "address"
                },
                {
                  "internalType": "contract IERC20",
                  "name": "collateralToken",
                  "type": "address"
                }
              ],
              "internalType": "struct IFactory.ContractData",
              "name": "contractData",
              "type": "tuple"
            },
            {
              "internalType": "uint256",
              "name": "currentEpoches",
              "type": "uint256"
            },
            {
              "internalType": "uint256",
              "name": "recordEpoches",
              "type": "uint256"
            }
          ],
          "internalType": "struct IFactory.ViewFactoryData",
          "name": "",
          "type": "tuple"
        }
      ],
      "stateMutability": "view",
      "type": "function"
    },
    {
      "inputs": [
        {
          "internalType": "uint256",
          "name": "unit",
          "type": "uint256"
        },
        {
          "internalType": "uint8",
          "name": "daysOfUseInHr",
          "type": "uint8"
        }
      ],
      "name": "getFinance",
      "outputs": [
        {
          "internalType": "bool",
          "name": "",
          "type": "bool"
        }
      ],
      "stateMutability": "nonpayable",
      "type": "function"
    },
    {
      "inputs": [
        {
          "internalType": "address",
          "name": "user",
          "type": "address"
        }
      ],
      "name": "getPoint",
      "outputs": [
        {
          "components": [
            {
              "internalType": "uint256",
              "name": "contributor",
              "type": "uint256"
            },
            {
              "internalType": "uint256",
              "name": "creator",
              "type": "uint256"
            }
          ],
          "internalType": "struct Common.Point",
          "name": "point",
          "type": "tuple"
        }
      ],
      "stateMutability": "view",
      "type": "function"
    },
    {
      "inputs": [
        {
          "internalType": "uint256",
          "name": "unitId",
          "type": "uint256"
        }
      ],
      "name": "getPoolData",
      "outputs": [
        {
          "components": [
            {
              "components": [
                {
                  "components": [
                    {
                      "internalType": "uint256",
                      "name": "quorum",
                      "type": "uint256"
                    },
                    {
                      "internalType": "uint256",
                      "name": "selector",
                      "type": "uint256"
                    },
                    {
                      "internalType": "uint256",
                      "name": "colCoverage",
                      "type": "uint256"
                    },
                    {
                      "internalType": "uint256",
                      "name": "duration",
                      "type": "uint256"
                    },
                    {
                      "internalType": "uint256",
                      "name": "intRate",
                      "type": "uint256"
                    },
                    {
                      "internalType": "uint256",
                      "name": "cSlot",
                      "type": "uint256"
                    },
                    {
                      "internalType": "uint256",
                      "name": "allGh",
                      "type": "uint256"
                    },
                    {
                      "internalType": "uint256",
                      "name": "userCount",
                      "type": "uint256"
                    }
                  ],
                  "internalType": "struct Common.LInt",
                  "name": "lInt",
                  "type": "tuple"
                },
                {
                  "components": [
                    {
                      "internalType": "uint256",
                      "name": "unit",
                      "type": "uint256"
                    },
                    {
                      "internalType": "uint256",
                      "name": "currentPool",
                      "type": "uint256"
                    },
                    {
                      "internalType": "uint256",
                      "name": "recordId",
                      "type": "uint256"
                    },
                    {
                      "internalType": "uint256",
                      "name": "unitId",
                      "type": "uint256"
                    }
                  ],
                  "internalType": "struct Common.BigInt",
                  "name": "bigInt",
                  "type": "tuple"
                },
                {
                  "components": [
                    {
                      "internalType": "address",
                      "name": "asset",
                      "type": "address"
                    },
                    {
                      "internalType": "address",
                      "name": "lastPaid",
                      "type": "address"
                    },
                    {
                      "internalType": "address",
                      "name": "bank",
                      "type": "address"
                    },
                    {
                      "internalType": "address",
                      "name": "admin",
                      "type": "address"
                    }
                  ],
                  "internalType": "struct Common.Addresses",
                  "name": "addrs",
                  "type": "tuple"
                },
                {
                  "internalType": "enum Common.Router",
                  "name": "router",
                  "type": "uint8"
                },
                {
                  "internalType": "enum Common.Stage",
                  "name": "stage",
                  "type": "uint8"
                },
                {
                  "components": [
                    {
                      "internalType": "uint256",
                      "name": "fullInterest",
                      "type": "uint256"
                    },
                    {
                      "internalType": "uint256",
                      "name": "intPerSec",
                      "type": "uint256"
                    },
                    {
                      "internalType": "uint256",
                      "name": "intPerChoiceOfDur",
                      "type": "uint256"
                    }
                  ],
                  "internalType": "struct Common.Interest",
                  "name": "interest",
                  "type": "tuple"
                },
                {
                  "internalType": "enum Common.Status",
                  "name": "status",
                  "type": "uint8"
                }
              ],
              "internalType": "struct Common.Pool",
              "name": "pool",
              "type": "tuple"
            },
            {
              "components": [
                {
                  "internalType": "uint256",
                  "name": "durOfChoice",
                  "type": "uint256"
                },
                {
                  "internalType": "uint256",
                  "name": "paybackTime",
                  "type": "uint256"
                },
                {
                  "internalType": "uint256",
                  "name": "turnStartTime",
                  "type": "uint256"
                },
                {
                  "internalType": "uint256",
                  "name": "getFinanceTime",
                  "type": "uint256"
                },
                {
                  "internalType": "uint256",
                  "name": "loan",
                  "type": "uint256"
                },
                {
                  "internalType": "uint256",
                  "name": "colBals",
                  "type": "uint256"
                },
                {
                  "internalType": "address",
                  "name": "id",
                  "type": "address"
                },
                {
                  "internalType": "bool",
                  "name": "sentQuota",
                  "type": "bool"
                },
                {
                  "internalType": "uint256",
                  "name": "interestPaid",
                  "type": "uint256"
                }
              ],
              "internalType": "struct Common.Contributor[]",
              "name": "cData",
              "type": "tuple[]"
            }
          ],
          "internalType": "struct Common.ReadDataReturnValue",
          "name": "",
          "type": "tuple"
        }
      ],
      "stateMutability": "view",
      "type": "function"
    },
    {
      "inputs": [
        {
          "internalType": "uint256",
          "name": "unit",
          "type": "uint256"
        },
        {
          "internalType": "address",
          "name": "user",
          "type": "address"
        }
      ],
      "name": "getProfile",
      "outputs": [
        {
          "components": [
            {
              "internalType": "uint256",
              "name": "durOfChoice",
              "type": "uint256"
            },
            {
              "internalType": "uint256",
              "name": "paybackTime",
              "type": "uint256"
            },
            {
              "internalType": "uint256",
              "name": "turnStartTime",
              "type": "uint256"
            },
            {
              "internalType": "uint256",
              "name": "getFinanceTime",
              "type": "uint256"
            },
            {
              "internalType": "uint256",
              "name": "loan",
              "type": "uint256"
            },
            {
              "internalType": "uint256",
              "name": "colBals",
              "type": "uint256"
            },
            {
              "internalType": "address",
              "name": "id",
              "type": "address"
            },
            {
              "internalType": "bool",
              "name": "sentQuota",
              "type": "bool"
            },
            {
              "internalType": "uint256",
              "name": "interestPaid",
              "type": "uint256"
            }
          ],
          "internalType": "struct Common.Contributor",
          "name": "",
          "type": "tuple"
        }
      ],
      "stateMutability": "view",
      "type": "function"
    },
    {
      "inputs": [
        {
          "internalType": "uint256",
          "name": "rId",
          "type": "uint256"
        }
      ],
      "name": "getRecord",
      "outputs": [
        {
          "components": [
            {
              "components": [
                {
                  "components": [
                    {
                      "internalType": "uint256",
                      "name": "quorum",
                      "type": "uint256"
                    },
                    {
                      "internalType": "uint256",
                      "name": "selector",
                      "type": "uint256"
                    },
                    {
                      "internalType": "uint256",
                      "name": "colCoverage",
                      "type": "uint256"
                    },
                    {
                      "internalType": "uint256",
                      "name": "duration",
                      "type": "uint256"
                    },
                    {
                      "internalType": "uint256",
                      "name": "intRate",
                      "type": "uint256"
                    },
                    {
                      "internalType": "uint256",
                      "name": "cSlot",
                      "type": "uint256"
                    },
                    {
                      "internalType": "uint256",
                      "name": "allGh",
                      "type": "uint256"
                    },
                    {
                      "internalType": "uint256",
                      "name": "userCount",
                      "type": "uint256"
                    }
                  ],
                  "internalType": "struct Common.LInt",
                  "name": "lInt",
                  "type": "tuple"
                },
                {
                  "components": [
                    {
                      "internalType": "uint256",
                      "name": "unit",
                      "type": "uint256"
                    },
                    {
                      "internalType": "uint256",
                      "name": "currentPool",
                      "type": "uint256"
                    },
                    {
                      "internalType": "uint256",
                      "name": "recordId",
                      "type": "uint256"
                    },
                    {
                      "internalType": "uint256",
                      "name": "unitId",
                      "type": "uint256"
                    }
                  ],
                  "internalType": "struct Common.BigInt",
                  "name": "bigInt",
                  "type": "tuple"
                },
                {
                  "components": [
                    {
                      "internalType": "address",
                      "name": "asset",
                      "type": "address"
                    },
                    {
                      "internalType": "address",
                      "name": "lastPaid",
                      "type": "address"
                    },
                    {
                      "internalType": "address",
                      "name": "bank",
                      "type": "address"
                    },
                    {
                      "internalType": "address",
                      "name": "admin",
                      "type": "address"
                    }
                  ],
                  "internalType": "struct Common.Addresses",
                  "name": "addrs",
                  "type": "tuple"
                },
                {
                  "internalType": "enum Common.Router",
                  "name": "router",
                  "type": "uint8"
                },
                {
                  "internalType": "enum Common.Stage",
                  "name": "stage",
                  "type": "uint8"
                },
                {
                  "components": [
                    {
                      "internalType": "uint256",
                      "name": "fullInterest",
                      "type": "uint256"
                    },
                    {
                      "internalType": "uint256",
                      "name": "intPerSec",
                      "type": "uint256"
                    },
                    {
                      "internalType": "uint256",
                      "name": "intPerChoiceOfDur",
                      "type": "uint256"
                    }
                  ],
                  "internalType": "struct Common.Interest",
                  "name": "interest",
                  "type": "tuple"
                },
                {
                  "internalType": "enum Common.Status",
                  "name": "status",
                  "type": "uint8"
                }
              ],
              "internalType": "struct Common.Pool",
              "name": "pool",
              "type": "tuple"
            },
            {
              "components": [
                {
                  "internalType": "uint256",
                  "name": "durOfChoice",
                  "type": "uint256"
                },
                {
                  "internalType": "uint256",
                  "name": "paybackTime",
                  "type": "uint256"
                },
                {
                  "internalType": "uint256",
                  "name": "turnStartTime",
                  "type": "uint256"
                },
                {
                  "internalType": "uint256",
                  "name": "getFinanceTime",
                  "type": "uint256"
                },
                {
                  "internalType": "uint256",
                  "name": "loan",
                  "type": "uint256"
                },
                {
                  "internalType": "uint256",
                  "name": "colBals",
                  "type": "uint256"
                },
                {
                  "internalType": "address",
                  "name": "id",
                  "type": "address"
                },
                {
                  "internalType": "bool",
                  "name": "sentQuota",
                  "type": "bool"
                },
                {
                  "internalType": "uint256",
                  "name": "interestPaid",
                  "type": "uint256"
                }
              ],
              "internalType": "struct Common.Contributor[]",
              "name": "cData",
              "type": "tuple[]"
            }
          ],
          "internalType": "struct Common.ReadDataReturnValue",
          "name": "",
          "type": "tuple"
        }
      ],
      "stateMutability": "view",
      "type": "function"
    },
    {
      "inputs": [],
      "name": "getRecordEpoches",
      "outputs": [
        {
          "internalType": "uint256",
          "name": "",
          "type": "uint256"
        }
      ],
      "stateMutability": "view",
      "type": "function"
    },
    {
      "inputs": [
        {
          "internalType": "uint256",
          "name": "unit",
          "type": "uint256"
        }
      ],
      "name": "getRouter",
      "outputs": [
        {
          "internalType": "string",
          "name": "",
          "type": "string"
        }
      ],
      "stateMutability": "view",
      "type": "function"
    },
    {
      "inputs": [
        {
          "internalType": "address",
          "name": "user",
          "type": "address"
        },
        {
          "internalType": "uint256",
          "name": "unit",
          "type": "uint256"
        }
      ],
      "name": "getSlot",
      "outputs": [
        {
          "components": [
            {
              "internalType": "uint256",
              "name": "value",
              "type": "uint256"
            },
            {
              "internalType": "bool",
              "name": "isMember",
              "type": "bool"
            },
            {
              "internalType": "bool",
              "name": "isAdmin",
              "type": "bool"
            }
          ],
          "internalType": "struct Common.Slot",
          "name": "",
          "type": "tuple"
        }
      ],
      "stateMutability": "view",
      "type": "function"
    },
    {
      "inputs": [
        {
          "internalType": "uint256",
          "name": "unit",
          "type": "uint256"
        }
      ],
      "name": "joinAPool",
      "outputs": [
        {
          "internalType": "bool",
          "name": "",
          "type": "bool"
        }
      ],
      "stateMutability": "nonpayable",
      "type": "function"
    },
    {
      "inputs": [
        {
          "internalType": "uint256",
          "name": "unit",
          "type": "uint256"
        }
      ],
      "name": "liquidate",
      "outputs": [
        {
          "internalType": "bool",
          "name": "",
          "type": "bool"
        }
      ],
      "stateMutability": "nonpayable",
      "type": "function"
    },
    {
      "inputs": [],
      "name": "ownershipManager",
      "outputs": [
        {
          "internalType": "contract IOwnerShip",
          "name": "",
          "type": "address"
        }
      ],
      "stateMutability": "view",
      "type": "function"
    },
    {
      "inputs": [],
      "name": "pause",
      "outputs": [],
      "stateMutability": "nonpayable",
      "type": "function"
    },
    {
      "inputs": [],
      "name": "paused",
      "outputs": [
        {
          "internalType": "bool",
          "name": "",
          "type": "bool"
        }
      ],
      "stateMutability": "view",
      "type": "function"
    },
    {
      "inputs": [
        {
          "internalType": "uint256",
          "name": "unit",
          "type": "uint256"
        }
      ],
      "name": "payback",
      "outputs": [
        {
          "internalType": "bool",
          "name": "",
          "type": "bool"
        }
      ],
      "stateMutability": "nonpayable",
      "type": "function"
    },
    {
      "inputs": [
        {
          "internalType": "uint16",
          "name": "serviceRate",
          "type": "uint16"
        },
        {
          "internalType": "address",
          "name": "feeTo",
          "type": "address"
        },
        {
          "internalType": "contract IAssetClass",
          "name": "assetClass",
          "type": "address"
        },
        {
          "internalType": "address",
          "name": "strategyManager",
          "type": "address"
        },
        {
          "internalType": "contract IERC20",
          "name": "colToken",
          "type": "address"
        }
      ],
      "name": "performSetUp",
      "outputs": [],
      "stateMutability": "nonpayable",
      "type": "function"
    },
    {
      "inputs": [
        {
          "internalType": "uint256",
          "name": "unit",
          "type": "uint256"
        }
      ],
      "name": "removeLiquidityPool",
      "outputs": [
        {
          "internalType": "bool",
          "name": "",
          "type": "bool"
        }
      ],
      "stateMutability": "nonpayable",
      "type": "function"
    },
    {
      "inputs": [
        {
          "internalType": "uint256",
          "name": "",
          "type": "uint256"
        }
      ],
      "name": "routers",
      "outputs": [
        {
          "internalType": "enum Common.Router",
          "name": "",
          "type": "uint8"
        }
      ],
      "stateMutability": "view",
      "type": "function"
    },
    {
      "inputs": [
        {
          "internalType": "contract IAssetClass",
          "name": "assetAdmin",
          "type": "address"
        },
        {
          "internalType": "address",
          "name": "feeTo",
          "type": "address"
        },
        {
          "internalType": "uint16",
          "name": "makerRate",
          "type": "uint16"
        },
        {
          "internalType": "address",
          "name": "safeFactory",
          "type": "address"
        },
        {
          "internalType": "contract IERC20",
          "name": "colToken",
          "type": "address"
        }
      ],
      "name": "setContractData",
      "outputs": [
        {
          "internalType": "bool",
          "name": "",
          "type": "bool"
        }
      ],
      "stateMutability": "nonpayable",
      "type": "function"
    },
    {
      "inputs": [
        {
          "internalType": "address",
          "name": "newOracleAddr",
          "type": "address"
        }
      ],
      "name": "setOracleAddress",
      "outputs": [],
      "stateMutability": "nonpayable",
      "type": "function"
    },
    {
      "inputs": [
        {
          "internalType": "address",
          "name": "newManager",
          "type": "address"
        }
      ],
      "name": "setOwnershipManager",
      "outputs": [
        {
          "internalType": "bool",
          "name": "",
          "type": "bool"
        }
      ],
      "stateMutability": "nonpayable",
      "type": "function"
    },
    {
      "inputs": [],
      "name": "unpause",
      "outputs": [],
      "stateMutability": "nonpayable",
      "type": "function"
    },
    {
      "stateMutability": "payable",
      "type": "receive"
    }
  ],
  "transactionHash": "0x5010cdc7f4517e476b50f18ac717e4aa0798200d00d046bcadbc7b3d9029a555",
  "args": [
    10,
    "0xD7c271d20c9E323336bFC843AEb8deC23B346352",
    "0x1F215D7f412cF6e0DAE025d40875e74c8F8CCd97",
    "0x027e6f6B495593F9C3E0B8c041a30EC9335318c8",
    "0xF5aE8bE0B39FA81A89C410d0D764C692d368758f",
    "0x0000000000000000000000000000000000000000",
    "0x69Fed46F7Ec9EcDB37020afB5B0fE6f756199b38"
  ],
  "numDeployments": 2,
  "solcInputHash": "228b6c39fe69b484419db29febdecc43",
  "bytecode": "0x60806040523480156200001157600080fd5b5060405162005a2338038062005a238339810160408190526200003491620001cd565b600080546001600160a81b0319166001600160a01b0385161790558686868686868662000065878787878562000099565b50601280546001600160a01b0319166001600160a01b0392909216919091179055506200027e9a5050505050505050505050565b620000aa60018486888686620000b2565b505050505050565b60006001600160a01b03861615620000e2576004870180546001600160a01b0319166001600160a01b0388161790555b6001600160a01b0383161562000110576005870180546001600160a01b0319166001600160a01b0385161790555b6001600160a01b038216156200013e576006870180546001600160a01b0319166001600160a01b0384161790555b6001600160a01b038516156200016c576003870180546001600160a01b0319166001600160a01b0387161790555b61ffff8481161015620001a75760048701805461ffff60a01b19167401000000000000000000000000000000000000000061ffff8716021790555b5060019695505050505050565b6001600160a01b0381168114620001ca57600080fd5b50565b600080600080600080600060e0888a031215620001e957600080fd5b875161ffff81168114620001fc57600080fd5b60208901519097506200020f81620001b4565b60408901519096506200022281620001b4565b60608901519095506200023581620001b4565b60808901519094506200024881620001b4565b60a08901519093506200025b81620001b4565b60c08901519092506200026e81620001b4565b8091505092959891949750929550565b615795806200028e6000396000f3fe6080604052600436106101d15760003560e01c806380d5ac8a116100f7578063b88a391511610095578063ec2e4fe011610064578063ec2e4fe0146106ca578063ed4c6cd8146106ea578063f09734ec14610717578063fdcd674f1461073757600080fd5b8063b88a39151461064a578063be24cff81461066a578063c4933c501461068a578063d21c87ad146106aa57600080fd5b8063a4424cf4116100d1578063a4424cf4146105bd578063a7393476146105ea578063a846c2fd1461060a578063b404763f1461062a57600080fd5b806380d5ac8a146104c75780638456cb591461050a5780639e6fbfd31461051f57600080fd5b80634c69c00f1161016f57806361737d621161013e57806361737d621461042157806371d5501b146104415780637b3ce215146104565780637d07db3c1461048f57600080fd5b80634c69c00f1461036a5780634e9c11181461038a5780634ff531b6146103c75780635c975abb1461040257600080fd5b806323508188116101ab57806323508188146102e55780633f4ba83a146103085780633fd979271461031d578063415f12401461034a57600080fd5b806303e9e6091461024e578063184e495f146102845780631a055c1a146102b457600080fd5b36610249576605543df729c000341115610247576004546040516000916001600160a01b03169034908381818185875af1925050503d8060008114610232576040519150601f19603f3d011682016040523d82523d6000602084013e610237565b606091505b505090508061024557600080fd5b505b005b600080fd5b34801561025a57600080fd5b5061026e610269366004614d69565b610757565b60405161027b9190614f8e565b60405180910390f35b34801561029057600080fd5b506102a461029f366004614d69565b610770565b604051901515815260200161027b565b3480156102c057600080fd5b506102d46102cf366004614d69565b6107a9565b60405161027b959493929190614fbd565b3480156102f157600080fd5b506102fa6107ee565b60405190815260200161027b565b34801561031457600080fd5b506102476107ff565b34801561032957600080fd5b5061033d610338366004615036565b610914565b60405161027b9190615066565b34801561035657600080fd5b506102a4610365366004614d69565b61092f565b34801561037657600080fd5b50610247610385366004615075565b6109ea565b34801561039657600080fd5b506103ba6103a5366004614d69565b60136020526000908152604090205460ff1681565b60405161027b9190615092565b3480156103d357600080fd5b506103e76103e2366004615075565b610af3565b6040805182518152602092830151928101929092520161027b565b34801561040e57600080fd5b50600054600160a01b900460ff166102a4565b34801561042d57600080fd5b506102a461043c366004615075565b610b46565b34801561044d57600080fd5b506102fa610c2a565b34801561046257600080fd5b50610476610471366004614d69565b610c36565b6040805192835262ffffff90911660208301520161027b565b34801561049b57600080fd5b506012546104af906001600160a01b031681565b6040516001600160a01b03909116815260200161027b565b3480156104d357600080fd5b50600e54600f546010546011546104ea9392919084565b60408051948552602085019390935291830152606082015260800161027b565b34801561051657600080fd5b50610247610c98565b34801561052b57600080fd5b50610534610d9a565b60408051825180518252602080820151818401528184015183850152606091820151828401528085015180516001600160a01b0390811660808087019190915292820151811660a08601528186015161ffff1660c086015281840151811660e086015291015116610100830152918301516101208201529101516101408201526101600161027b565b3480156105c957600080fd5b506105dd6105d8366004614d69565b610e4a565b60405161027b91906150a5565b3480156105f657600080fd5b506102a4610605366004615128565b610ec9565b34801561061657600080fd5b506102a4610625366004614d69565b610f75565b34801561063657600080fd5b506102a461064536600461519b565b611055565b34801561065657600080fd5b506000546104af906001600160a01b031681565b34801561067657600080fd5b506102a4610685366004614d69565b61111d565b34801561069657600080fd5b506102a46106a53660046151d6565b611156565b3480156106b657600080fd5b5061026e6106c5366004614d69565b611172565b3480156106d657600080fd5b506102476106e53660046152ea565b611185565b3480156106f657600080fd5b5061070a610705366004615359565b611259565b60405161027b9190615385565b34801561072357600080fd5b506102fa610732366004615036565b6112da565b34801561074357600080fd5b506102a46107523660046153aa565b6112f0565b61075f614b6d565b61076a6001836113ca565b92915050565b60006107a0828260008581526013602052604090205460ff16600181111561079a5761079a614d82565b14611667565b50600192915050565b6107b1614b8d565b60408051606081018252600080825260208201819052918101829052819060006107dc6001876116cb565b939a9299509097509550909350915050565b60006107fa60016117c8565b905090565b6000546001600160a01b03168061082957604051637e70a7e360e01b815260040160405180910390fd5b6001600160a01b038116632f54bf6e336040516001600160e01b031960e084901b1681526001600160a01b039091166004820152602401602060405180830381865afa15801561087d573d6000803e3d6000fd5b505050506040513d601f19601f820116820180604052508101906108a191906153eb565b6108be576040516315ed864b60e21b815260040160405180910390fd5b6108c66117d5565b6000805460ff60a01b191690557f5db9ee0a495bf2e6ff9c91a7834c1ba4fdd244a5e8aa4e537bd38aeae4b073aa335b6040516001600160a01b03909116815260200160405180910390a150565b61091c614b8d565b61092860018385611801565b9392505050565b6000610939611827565b60008080610948600186611852565b9250925092507fbc3a7721b7691bfe23be3611a1dd9ab1a24010955070ade0440701b254f0e6f68160405161097d919061540d565b60405180910390a160408051608081018252600e54808252600f5460105493830193909352601154606083015291850160208201529083116109c157805183900381525b8051600e556020810151600f55604081015160105560600151601155506001925050505b919050565b6000546001600160a01b031680610a1457604051637e70a7e360e01b815260040160405180910390fd5b6001600160a01b038116632f54bf6e336040516001600160e01b031960e084901b1681526001600160a01b039091166004820152602401602060405180830381865afa158015610a68573d6000803e3d6000fd5b505050506040513d601f19601f82011682018060405250810190610a8c91906153eb565b610aa9576040516315ed864b60e21b815260040160405180910390fd5b6001600160a01b038216610ad057604051632e279bc160e11b815260040160405180910390fd5b50601280546001600160a01b0319166001600160a01b0392909216919091179055565b604080518082018252600080825260208083018290528351808501855282815281018290526001600160a01b0385168252600c81529083902083518085019094528054845260010154908301529061076a565b600080546001600160a01b031680610b7157604051637e70a7e360e01b815260040160405180910390fd5b6001600160a01b038116632f54bf6e336040516001600160e01b031960e084901b1681526001600160a01b039091166004820152602401602060405180830381865afa158015610bc5573d6000803e3d6000fd5b505050506040513d601f19601f82011682018060405250810190610be991906153eb565b610c06576040516315ed864b60e21b815260040160405180910390fd5b600080546001600160a01b0319166001600160a01b03851617905550600192915050565b60006107fa600161198e565b60008080610c45600185611998565b5180518051602083015151604090920151929350610c8892910290610c68611b73565b6012546001600160a01b031615610c80576008611c23565b60125b611c23565b9051604001519094909350915050565b6000546001600160a01b031680610cc257604051637e70a7e360e01b815260040160405180910390fd5b6001600160a01b038116632f54bf6e336040516001600160e01b031960e084901b1681526001600160a01b039091166004820152602401602060405180830381865afa158015610d16573d6000803e3d6000fd5b505050506040513d601f19601f82011682018060405250810190610d3a91906153eb565b610d57576040516315ed864b60e21b815260040160405180910390fd5b610d5f611827565b6000805460ff60a01b1916600160a01b1790557f62e78cea01bee320cd4e420270b5ea74000d11b0c9f74754ebdbfc544b05a2586108f63390565b610da2614be4565b6040805161010081018252600e546080808301918252600f5460a08085019190915260105460c085015260115460e0850152918352835191820184526004546001600160a01b039081168352600554808216602080860191909152600160a01b90910461ffff16848701526006548216606085015260075490911691830191909152820152908101610e34600161198e565b8152602001610e4360016117c8565b9052919050565b60606000808381526013602052604090205460ff166001811115610e7057610e70614d82565b14610e9f576040518060400160405280600c81526020016b141154935254d4d253d3915160a21b81525061076a565b505060408051808201909152600e81526d5045524d495353494f4e4c45535360901b602082015290565b60408051600180825281830190925260009182918291602080830190803683370190505090503381600081518110610f0357610f0361541c565b60200260200101906001600160a01b031690816001600160a01b0316815250508160136000610f388c8c8c8c8c8c8a8c611c59565b81526020810191909152604001600020805460ff191660018381811115610f6157610f61614d82565b021790555060019998505050505050505050565b6000610f7f611827565b6000806000610fb26040518060400160405280878152602001610f9f3390565b6001600160a01b03169052600190611ee8565b60408051608081018252600e54808252600f54601054938301939093526011546060830152918501602082015293965091945092508311610ff557805183900381525b8051600e556020810151600f556040808201516010556060820151601155517fbc3a7721b7691bfe23be3611a1dd9ab1a24010955070ade0440701b254f0e6f69061104190849061540d565b60405180910390a150600195945050505050565b600061105f611827565b6000808061107560018760ff8816611b73611f0d565b60408051608081018252600e54600f546020830181905260105493830193909352601154606083015283018152939650919450925083116110bc5760208101805184900390525b8051600e556020810151600f556040808201516010556060820151601155517fcd56bf5044338ae4374c6a2f7badcd77e197d2aedcbc10c9286dd565c45c5a9e9061110890869061540d565b60405180910390a15060019695505050505050565b6000611127611827565b61076a82600160008581526013602052604090205460ff16600181111561115057611150614d82565b14612132565b805160009060019081601384610f388c858d8d8d8d8d8a611c59565b61117a614b6d565b61076a60018361219e565b6000546001600160a01b0316806111af57604051637e70a7e360e01b815260040160405180910390fd5b6001600160a01b038116632f54bf6e336040516001600160e01b031960e084901b1681526001600160a01b039091166004820152602401602060405180830381865afa158015611203573d6000803e3d6000fd5b505050506040513d601f19601f8201168201806040525081019061122791906153eb565b611244576040516315ed864b60e21b815260040160405180910390fd5b61125186868686866122b9565b505050505050565b6040805160608082018352600080835260208084018290528385018290528451808401865282815280820183905285018290526001600160a01b0387168252600d815284822086835281529084902084519283018552805483526001015460ff80821615159284019290925261010090041615159281019290925290610928565b60006112e8600184846122c8565b519392505050565b600080546001600160a01b03168061131b57604051637e70a7e360e01b815260040160405180910390fd5b6001600160a01b038116632f54bf6e336040516001600160e01b031960e084901b1681526001600160a01b039091166004820152602401602060405180830381865afa15801561136f573d6000803e3d6000fd5b505050506040513d601f19601f8201168201806040525081019061139391906153eb565b6113b0576040516315ed864b60e21b815260040160405180910390fd5b6113bf6001888888888861234f565b979650505050505050565b6113d2614b6d565b60008281526009808501602090815260409283902083516101e081018552815460e08201908152600180840154610100840152600284015461012084015260038401546101408401526004840154610160840152600584015461018084015260068401546101a084015260078401546101c0840152908252855160808082018852600885015482529584015481860152600a84015481880152600b8401546060808301919091528386019190915286519586018752600c8401546001600160a01b039081168752600d850154811695870195909552600e840154851686880152600f84015490941685850152948101939093526010810154929390929184019160ff16908111156114e5576114e5614d82565b60018111156114f6576114f6614d82565b81526020016010820160019054906101000a900460ff16600581111561151e5761151e614d82565b600581111561152f5761152f614d82565b815260408051606081018252601184015481526012840154602082810191909152601385015482840152830152601483015491019060ff16600181111561157857611578614d82565b600181111561158957611589614d82565b9052508082525160a001516000908152600784016020908152604080832080548251818502810185019093528083529193909284015b8282101561165857600084815260209081902060408051610120810182526008860290920180548352600180820154848601526002820154928401929092526003810154606084015260048101546080840152600581015460a084015260068101546001600160a01b03811660c0850152600160a01b900460ff16151560e08401526007015461010083015290835290920191016115bf565b50505050602082015292915050565b6000611671611827565b600f5483811061168257838103600f555b61168e6001858561243b565b6040518481527f79d50744e568d2dcbac1c613dc0f174be90b0121dbc73682de80b3c4ebc5d1e79060200160405180910390a15060019392505050565b6116d3614b8d565b6040805160608101825260008082526020820181905291810182905281906000806116fe8888611998565b60000151905060006117198989846040015160200151612588565b905080602001516117274290565b11156117ad578061173661271d565b600001516117498b8b8b60c001516122c8565b5160c0840180516001600160a01b03166000908152600c8e01602090815260408083208f8452825291829020925182516060810184528454815260019094015460ff80821615159386019390935261010090049091161515918301919091526117b3565b86868686865b939d929c50909a509850909650945050505050565b600061076a826002015490565b600054600160a01b900460ff166117ff57604051638dfc202b60e01b815260040160405180910390fd5b565b611809614b8d565b611814848385612777565b61181f848385612588565b949350505050565b600054600160a01b900460ff16156117ff5760405163d93c066560e01b815260040160405180910390fd5b60008061185d614c5c565b60008060008061186d89896116cb565b945094505093509350826118945760405163c358323960e01b815260040160405180910390fd5b336118a08a8a836127ab565b6001600160a01b03811660c08601526040805160a081018252868152602081018590526118fa918c919081016118d6838e611998565b515160a001518152602081018d90526001600160a01b0385166040909101526127fe565b6001600160a01b038281166000908152600c8c01602090815260408083208d845282528083208381556001908101805461ffff1916905560088f018352818420548452600a8f01835292819020600d0180546001600160a01b031916948616948517905580518082019091528c81529081019290925261197c918c9185612914565b97509750975050505050509250925092565b600061076a825490565b6119a0614d49565b6000828152600880850160209081526040808420548583018190528452600a80880183529381902081516101e081018352815460e08201908152600180840154610100840152600284015461012084015260038401546101408401526004840154610160840152600584015461018084015260068401546101a084015260078401546101c08401529082528351608080820186529684015481526009840154818701529683015487850152600b8301546060808901919091528286019790975283519586018452600c8301546001600160a01b039081168752600d840154811695870195909552600e830154851686850152600f83015490941685870152918201939093526010830154909384019160ff90911690811115611ac457611ac4614d82565b6001811115611ad557611ad5614d82565b81526020016010820160019054906101000a900460ff166005811115611afd57611afd614d82565b6005811115611b0e57611b0e614d82565b815260408051606081018252601184015481526012840154602082810191909152601385015482840152830152601483015491019060ff166001811115611b5757611b57614d82565b6001811115611b6857611b68614d82565b905250815292915050565b6012546000906001600160a01b031615611c15576012546040516304b01c2560e51b81526020600482015260076024820152661611924bd554d160ca1b60448201526000916001600160a01b03169063960384a0906064016040805180830381865afa158015611be7573d6000803e3d6000fd5b505050506040513d601f19601f82011682018060405250810190611c0b9190615449565b509150611c209050565b50678ac7230489e800005b90565b604080518082019091526001600160801b038316815260ff82166020820152600090611c50908587612ee7565b95945050505050565b6000611c63611827565b600554604051634df48c7360e11b81526001600160a01b03808716600483015286921690639be918e690602401602060405180830381865afa158015611cad573d6000803e3d6000fd5b505050506040513d601f19601f82011682018060405250810190611cd191906153eb565b611cfe57604051631e26fa1d60e11b81526001600160a01b03821660048201526024015b60405180910390fd5b600080846001811115611d1357611d13614d82565b1490508015611d455760018a60ff1611611d40576040516303b24cd160e61b815260040160405180910390fd5b611d67565b6001855111611d67576040516303b24cd160e61b815260040160405180910390fd5b604080516101408101825261ffff808e16825260ff8d16602080840191909152908c168284015262ffffff8b1660608084019190915260808084018c905260a084018a90526001600160a01b038b1660c0850152600060e08501819052610100850181905261012085015284518082018652600e548152600f54818501908152601054828801526011549382019390935285519182019095528451815290519293929091820190611e19908c90615492565b815260200184611e38576040830151611e33906001615492565b611e3e565b82604001515b815260200184611e52578260600151611e62565b6060830151611e62906001615492565b90528051600e556020810151600f556040810151601055606001516011557f834672b7774dd978c0233e122215a606b7d6606f3ee3e730f9a5f93ecbb65a918315611eb757611eb2600184612f72565b611ec2565b611ec2600184613008565b604051611ecf919061540d565b60405180910390a150969b9a5050505050505050505050565b600080611ef3614c5c565b611f008585600080612914565b9250925092509250925092565b611f15614c5c565b600080611f228787613162565b611f2c8787611998565b6000015192508260200151602001519150611f75836080015160016040518060400160405280601081526020016f426f72726f77206e6f7420726561647960801b8152506131ee565b8251805160c09091015103611f9d5760405163d77e83a360e01b815260040160405180910390fd5b611fa68361321d565b805151602082015151919450611fbc919061323f565b8360200151602001511015611fe457604051634cc7670160e11b815260040160405180910390fd5b6120bf876040518060e00160405280611ffc8961324b565b62ffffff1681526020018a6007016000886000015160a0015181526020019081526020016000208760000151602001518154811061203c5761203c61541c565b6000918252602091829020600660089092020101546001600160a01b031682528181018b90528781018051606090810151604085015260048e01549151909201519190920191612098919061ffff600160a01b9091041661325d565b81526020016120a98863ffffffff16565b6001600160801b03168152602001869052613269565b909350905042835160a00151600090815260078901602090815260409091208551909101516120f0906001906154a5565b815481106121005761210061541c565b9060005260206000209060080201600301819055506121288784856020015160600151613635565b9450945094915050565b600f8054830190556040805180820190915282815281151560208201526000907f17bd4e441358595ded437fad3d483942c03500a9d5967335a3fc25947dc2d16090612180906001906137c9565b60405161218d919061540d565b60405180910390a150600192915050565b6121a6614b6d565b6000828152600a808501602090815260409283902083516101e081018552815460e08201908152600180840154610100840152600284015461012084015260038401546101408401526004840154610160840152600584015461018084015260068401546101a084015260078401546101c0840152908252855160808082018852600885015482526009850154828701529584015481880152600b8401546060808301919091528386019190915286519586018752600c8401546001600160a01b039081168752600d850154811695870195909552600e840154851686880152600f84015490941685850152948101939093526010810154929390929184019160ff16908111156114e5576114e5614d82565b6112516001848688868661234f565b604080518082019091526000808252602082015260006122e88585611998565b5160a00151602001519050612301600c86018486613a08565b5160208301526000612314868686612588565b9050612343612338612331836040015161232b4290565b90613a70565b849061323f565b608083015190613a7c565b83525090949350505050565b60006001600160a01b0386161561237e576004870180546001600160a01b0319166001600160a01b0388161790555b6001600160a01b038316156123ab576005870180546001600160a01b0319166001600160a01b0385161790555b6001600160a01b038216156123d8576006870180546001600160a01b0319166001600160a01b0384161790555b6001600160a01b03851615612405576003870180546001600160a01b0319166001600160a01b0387161790555b61ffff848116101561242e5760048701805461ffff60a01b1916600160a01b61ffff8716021790555b5060019695505050505050565b6124458383613162565b60006124518484611998565b51905033612460858583613a88565b82156124a257815160e001516001108061247f5750815160e001516001115b1561249d57604051637aac61fb60e11b815260040160405180910390fd5b6124cc565b602080830151805191015111156124cc57604051637aac61fb60e11b815260040160405180910390fd5b600460808301526124ef856124e18185613ad6565b846020015160600151613635565b6040828101518082015190516020850151805190840151935163bb16369f60e01b81526001600160a01b038681166004830152928316602482015260448101919091526064810193909352169063bb16369f906084016020604051808303816000875af1158015612564573d6000803e3d6000fd5b505050506040513d601f19601f8201168201806040525081019061125191906153eb565b612590614b8d565b6001600160a01b0382166000908152600c850160209081526040808320868452825280832081516060810183528154815260019091015460ff8082161515948301949094526101009004909216151590820152906125ee8686611998565b515160a001516000818152600788016020526040902054909150156126bd576000818152600787016020526040902082518154811061262f5761262f61541c565b600091825260209182902060408051610120810182526008909302909101805483526001810154938301939093526002830154908201526003820154606082015260048201546080820152600582015460a082015260068201546001600160a01b03811660c083015260ff600160a01b90910416151560e08201526007909101546101008201529250612714565b60405180610120016040528060008152602001600081526020016000815260200160008152602001600081526020016000815260200160006001600160a01b03168152602001600015158152602001600081525092505b50509392505050565b6040805160a081018252600080825260208201819052918101829052606081018290526080810191909152506040805160a08101825260018082526000602083018190529282018390526060820152608081019190915290565b61278583600c018284613a08565b602001516127a6576040516305031d1160e31b815260040160405180910390fd5b505050565b6127a66040518060400160405280601881526020017f5573657220697320616c72656164792061206d656d62657200000000000000008152506127f285600c018486613a08565b60200151151590613e38565b8051604080830151600090815260078501602090815291902090830151518154811061282c5761282c61541c565b6000918252602080832084516008909302019182558381015160018084019190915560408086015160028501556060808701516003860155608080880151600487015560a0880151600587015560c088015160068701805460e08b01511515600160a01b026001600160a81b03199091166001600160a01b03938416171790556101009889015160079097019690965588850151908901519095168652600c9098018352808520969097015184529481529185902081518155918101519190930180549390940151151590910261ff00199115159190911661ffff1990921691909117179055565b60008061291f614c5c565b61292d878760000151613162565b61293b878760000151611998565b60000151905060006129568888600001518960200151612588565b905061299182608001516002604051806040016040528060118152602001705061796261636b206e6f7420726561647960781b8152506131ee565b60006129a68989600001518a602001516122c8565b51905060008190036129cb57604051633c74e66760e01b815260040160405180910390fd5b816080015194508160a0015193506129e282613e58565b9150612a0189600b0189602001516129f861271d565b60200151613e72565b6000612a148451805160c0909101511490565b905080612b7357612a2484613ee4565b9350612a31846001613f0a565b935042845160a00151600090815260078c016020908152604090912086519091015181548110612a6357612a6361541c565b906000526020600020906008020160010181905550612a9c8a858c60080160008d60000151815260200190815260200160002054613635565b828a6007016000866000015160a001518152602001908152602001600020612ad08c600c018c602001518d60000151613a08565b5181548110612ae157612ae161541c565b6000918252602091829020835160089092020190815590820151600182015560408201516002820155606082015160038201556080820151600482015560a0820151600582015560c082015160068201805460e08501511515600160a01b026001600160a81b03199091166001600160a01b039093169290921791909117905561010090910151600790910155612c78565b612b7e846005613f0a565b9350828a6007016000866000015160a001518152602001908152602001600020612bb48c600c018c602001518d60000151613a08565b5181548110612bc557612bc561541c565b6000918252602091829020835160089092020190815590820151600182015560408201516002820155606082015160038201556080820151600482015560a0820151600582015560c082015160068201805460e08501511515600160a01b026001600160a81b03199091166001600160a01b039093169290921791909117905561010090910151600790910155612c788a612c608187613ad6565b8b51600090815260088e016020526040902054613635565b6020808a015160068c0154865160a00151600090815260078e0184526040808220805482518188028101880190935280835294956001600160a01b0390941694929391929091849084015b82821015612d5c57600084815260209081902060408051610120810182526008860290920180548352600180820154848601526002820154928401929092526003810154606084015260048101546080840152600581015460a084015260068101546001600160a01b03811660c0850152600160a01b900460ff16151560e0840152600701546101008301529083529092019101612cc3565b505050506020880151604090810151818a015180519083015192516370a0823160e01b81526001600160a01b0393841660048201529394508e938e9360009216906370a0823190602401602060405180830381865afa158015612dc3573d6000803e3d6000fd5b505050506040513d601f19601f82011682018060405250810190612de791906154b8565b9050612e05878c60400151600001518b8e6040015160400151613f69565b506040808c0180518201518251610140810184526001600160a01b038b81168252925151831660208201528084018d9052606081018590528b1515608082015260a0810189905287151560c082015286831660e08201526101008101869052898316610120820152925163fae34f7f60e01b815291169163fae34f7f91612e8f91906004016154d1565b6020604051808303816000875af1158015612eae573d6000803e3d6000fd5b505050506040513d601f19601f82011682018060405250810190612ed291906153eb565b50505050505050505050509450945094915050565b6000606462ffffff8416811115612f105760405162e41c4b60e31b815260040160405180910390fd5b6000612f2262ffffff8616606461323f565b90506000612f5887600001516001600160801b0316612f528960200151600a612f4b9190615688565b889061323f565b90614098565b90506113bf612710612f528365ffffffffffff861661323f565b612f7a614c5c565b6000612f8461271d565b905060008360a00151600081518110612f9f57612f9f61541c565b602090810291909101015160808501516005870154919250600091612fcd91906001600160a01b03166140a4565b9050612fdd86868385600061412a565b805160a001516020820151518551929650612fff9289929190869080806142b5565b50505092915050565b613010614c5c565b600061301a61271d565b6080840151600586015491925060009161303d91906001600160a01b03166140a4565b604083015190915060ff165b8460a0015151811015612fff5760008560a00151828151811061306e5761306e61541c565b60200260200101519050836040015160ff1682036130bb5761309487878584600161412a565b805160a0015160208201515186519297506130b6928a929190859080806142b5565b613159565b6131186040518060400160405280601381526020017241646d696e2073706f7474656420747769636560681b8152508660400151606001516001600160a01b0316836001600160a01b0316141515156144ea90919063ffffffff16565b61314387866000015160a0015187602001516000015184886020015189600001518a602001516142b5565b61315587866020015160000151611998565b5194505b50600101613049565b600081815260088301602052604090205480151580156131a9575060016000828152600a8501602052604090206014015460ff1660018111156131a7576131a7614d82565b145b6127a65760405162461bcd60e51b8152602060048201526016602482015275105b5bdd5b9d081b9bdd081a5b9a5d1a585b1a5e995960521b6044820152606401611cf5565b6127a68183600581111561320457613204614d82565b85600581111561321657613216614d82565b14906144ea565b613225614c5c565b815160c00180519061323682615697565b90525090919050565b600061092882846156b0565b600061076a61ffff8316610e1061323f565b60006109288383614509565b613271614c5c565b6020820151604083015160009190829061328d90879084612588565b90508060400151610e106132a19190615492565b42111561334c5760208501516001600160a01b0316336001600160a01b031614613347573391506132d786866040015184612777565b613344866040518060c001604052806132f88a600c01878b60400151613a08565b815260200188602001516001600160a01b03168152602001856001600160a01b03168152602001886040015181526020018860c001516000015160a001518152602001848152506145b0565b90505b613382565b60c08101516001600160a01b0316336001600160a01b031614613382576040516328c3314560e11b815260040160405180910390fd5b60c0850151602080820151810151915160409081015160a089015160068b0154835163313ce56760e01b815293516134109695939492936001600160a01b039092169263313ce5679260048083019391928290030181865afa1580156133ec573d6000803e3d6000fd5b505050506040513d601f19601f82011682018060405250810190610c8391906156c7565b60c086018051604001516001600160a01b03851660209182015290515101805191945061343c82615697565b905250600686015460c0860151604090810151015161346a9184916001600160a01b03909116908690613f69565b506000604051806101200160405280876000015162ffffff1681526020016134a2886000015162ffffff1661349c4290565b90613a7c565b81526040848101516020808401919091526060808701518385015260c08b015180840151808501519051918401519384015160808e015194860151955163353a1a5160e21b81526001600160a01b038c81166004830152938416602482015260448101919091526064810194909452608484018b905260a48401949094529301929091169063d4e869449060c4016020604051808303816000875af115801561354f573d6000803e3d6000fd5b505050506040513d601f19601f8201168201806040525081019061357391906154b8565b8152602001858152602001846001600160a01b031681526020018360e0015115158152602001600081525090506135f7876040518060a001604052808481526020016135c78b600c01888c60400151613a08565b815260c08a01515160a0015160208201526040808b0151908201526001600160a01b0387166060909101526127fe565b60c0860151600260809091015261360c61271d565b6040015160ff168660c001516020015160200181815250508560c0015194505050509250929050565b6000818152600a84810160209081526040928390208551805182558083015160018084019190915581860151600284015560608083015160038501556080830151600485015560a0830151600585015560c0830151600685015560e09092015160078401558784015180516008850155808501516009850155808701519584019590955593810151600b830155868501518051600c840180546001600160a01b03199081166001600160a01b039384161790915594820151600d85018054871691831691909117905595810151600e840180548616918816919091179055810151600f830180549094169516949094179091559184015160108301805486949360ff1990911690838181111561374d5761374d614d82565b0217905550608082015160108201805461ff00191661010083600581111561377757613777614d82565b021790555060a0820151805160118301556020810151601283015560400151601382015560c082015160148201805460ff1916600183818111156137bd576137bd614d82565b02179055505050505050565b6137d1614c5c565b60006137db61271d565b90506137eb848460000151613162565b6137f9848460000151611998565b519150600033905061383f836080015160006040518060400160405280601681526020017521b0b73737ba1030b2321031b7b73a3934b13aba37b960511b8152506131ee565b8360200151156138c05761385885856000015183612777565b8151835160a0015160009081526007870160205260409020855161388290600c8901908590613a08565b51815481106138935761389361541c565b906000526020600020906008020160060160146101000a81548160ff02191690831515021790555061392b565b8251805160e090910151106138e857604051632ee094d560e11b815260040160405180910390fd5b6138f7858560000151836127ab565b825160a0015184516020840151845161391993899390929091869190806142b5565b613927858560000151611998565b5192505b602080840151805191018051613942908390615492565b90525060208401516139559084906146cc565b156139ad5742835160a00151600090815260078701602090815260409091208551909101518154811061398a5761398a61541c565b9060005260206000209060080201600201819055506139aa836001613f0a565b92505b6139d181846040015160000151856020015160000151866040015160400151613f69565b506139ed8360400151604001518285602001516040015161470d565b613a008584856020015160600151613635565b505092915050565b6040805160608082018352600080835260208084018290529284018190526001600160a01b039590951685529481528184209284529182529182902082519384018352805484526001015460ff80821615159285019290925261010090041615159082015290565b600061092882846154a5565b60006109288284615492565b6001600160a01b0381166000908152600c840160209081526040808320858452909152902060010154610100900460ff166127a6576040516376e699bd60e01b815260040160405180910390fd5b613ade614c5c565b6000808052600a808501602090815260409283902083516101e081018552815460e08201908152600180840154610100840152600284015461012084015260038401546101408401526004840154610160840152600584015461018084015260068401546101a084015260078401546101c0840152908252855160808082018852600885015482526009850154828701529584015481880152600b8401546060808301919091528386019190915286519586018752600c8401546001600160a01b039081168752600d850154811695870195909552600e840154851686880152600f84015490941685850152948101939093526010810154929390929184019160ff1690811115613bf157613bf1614d82565b6001811115613c0257613c02614d82565b81526020016010820160019054906101000a900460ff166005811115613c2a57613c2a614d82565b6005811115613c3b57613c3b614d82565b815260408051606081018252601184015481526012840154602082810191909152601385015482840152830152601483015491019060ff166001811115613c8457613c84614d82565b6001811115613c9557613c95614d82565b90525060208381018051604090810151600090815260098881018552908290208751805182558086015160018084019190915581850151600284015560608083015160038501556080830151600485015560a0830151600585015560c0830151600685015560e0909201516007840155945180516008840155808701519383019390935582840151600a83015591820151600b820155828801518051600c830180546001600160a01b03199081166001600160a01b039384161790915596820151600d84018054891691831691909117905593810151600e830180548816918616919091179055820151600f820180549096169316929092179093559185015160108301805494955086949192909160ff1916908381811115613dba57613dba614d82565b0217905550608082015160108201805461ff001916610100836005811115613de457613de4614d82565b021790555060a0820151805160118301556020810151601283015560400151601382015560c082015160148201805460ff191660018381811115613e2a57613e2a614d82565b021790555090505092915050565b8082156127a65760405162461bcd60e51b8152600401611cf591906150a5565b613e60614b8d565b5060006080820181905260a082015290565b80613eab576001600160a01b0382166000908152602084905260408120805460029290613ea0908490615492565b925050819055613ede565b6001600160a01b0382166000908152602084905260408120600101805460059290613ed7908490615492565b9250508190555b50505050565b613eec614c5c565b815151602083015151613efe9161323f565b60208084015101525090565b613f12614c5c565b6006826005811115613f2657613f26614d82565b60ff1610613f3657613f366156e4565b60808301826005811115613f4c57613f4c614d82565b90816005811115613f5f57613f5f614d82565b9052509192915050565b604051636eb1769f60e11b81526001600160a01b0385811660048301523060248301526000919085169063dd62ed3e90604401602060405180830381865afa158015613fb9573d6000803e3d6000fd5b505050506040513d601f19601f82011682018060405250810190613fdd91906154b8565b905082811015614000576040516313be252b60e01b815260040160405180910390fd5b6040516323b872dd60e01b81526001600160a01b0386811660048301528381166024830152604482018590528516906323b872dd906064016020604051808303816000875af1158015614057573d6000803e3d6000fd5b505050506040513d601f19601f8201168201806040525081019061407b91906153eb565b61181f576040516312171d8360e31b815260040160405180910390fd5b600061092882846156fa565b60405163e487862760e01b8152600481018390526000906001600160a01b0383169063e4878627906024016020604051808303816000875af11580156140ee573d6000803e3d6000fd5b505050506040513d601f19601f82011682018060405250810190614112919061571c565b90506001600160a01b03811661076a5761076a6156e4565b614132614c5c565b600061413c61271d565b905061418f816040015160ff16876040015161ffff16116102d0886040015161ffff1611156040518060400160405280601081526020016f24b73b30b634b210323ab930ba34b7b760811b815250614780565b6141a187600b01858360000151613e72565b6141b18760010180546001019055565b6141bb87876147a9565b9550856101200151156141e157604051633606b6db60e21b815260040160405180910390fd5b6141ed87878786614899565b91506141ff8783886101000151613635565b60e08601516040516320d46be760e11b81526001600160a01b0386811660048301526024820192909252908616906341a8d7ce906044016020604051808303816000875af1158015614255573d6000803e3d6000fd5b505050506040513d601f19601f8201168201806040525081019061427991906153eb565b614296576040516369d45e6f60e01b815260040160405180910390fd5b6142aa848760c00151886080015188613f69565b505095945050505050565b60008760070160008881526020019081526020016000208054905090508760070160008881526020019081526020016000206001816001815401808255809150500390600052602060002090505060405180606001604052808260ff168152602001841515815260200185151581525088600c016000876001600160a01b03166001600160a01b0316815260200190815260200160002060008881526020019081526020016000206000820151816000015560208201518160010160006101000a81548160ff02191690831515021790555060408201518160010160016101000a81548160ff021916908315150217905550905050604051806101200160405280600081526020016000815260200160008152602001600081526020016000815260200160008152602001866001600160a01b03168152602001831515815260200160008152508860070160008981526020019081526020016000208260ff16815481106144255761442561541c565b60009182526020808320845160089384029091019081558482015160018201556040808601516002830155606086015160038301556080860151600483015560a0860151600583015560c086015160068301805460e08901511515600160a01b026001600160a81b03199091166001600160a01b0390931692909217919091179055610100909501516007918201558a8452918c01815283832054808452600a8d01909152928220018054916144da83615697565b9190505550505050505050505050565b80826127a65760405162461bcd60e51b8152600401611cf591906150a5565b600061271061ffff8316158061451d575083155b1561452c57600091505061076a565b61456961ffff80168461ffff161060405180604001604052806011815260200170496e746572657374206f766572666c6f7760781b8152506144ea565b6145918161ffff16851160405180606001604052806026815260200161573a602691396144ea565b61181f8161ffff16612f528561ffff168761323f90919063ffffffff16565b6145b8614b8d565b60006145d084600c0184604001518560600151613a08565b90506145e58484606001518560400151612588565b915082604001518360a0015160c001906001600160a01b031690816001600160a01b03168152505082602001518260c001906001600160a01b031690816001600160a01b031681525050614674846040518060a00160405280858152602001848152602001866080015181526020018660600151815260200186602001516001600160a01b03168152506127fe565b6146c1846040518060a001604052808660a00151815260200186600001518152602001866080015181526020018660600151815260200186604001516001600160a01b03168152506127fe565b505060a00151919050565b81515160208301515160009182916146e39161323f565b905082156146fb57836020015160200151811461181f565b50509051805160e09091015114919050565b6040516320d46be760e11b81526001600160a01b038381166004830152602482018390528416906341a8d7ce906044016020604051808303816000875af115801561475c573d6000803e3d6000fd5b505050506040513d601f19601f82011682018060405250810190613ede91906153eb565b82801561478a5750815b8190613ede5760405162461bcd60e51b8152600401611cf591906150a5565b604080516101408101825260008082526020820181905291810182905260608082018390526080820183905260a082015260c0810182905260e0810182905261010081018290526101208101919091526080820151600090815260088401602052604090205461010083018190526148425782546001018084556101008301819052608083015160009081526008850160205260409020555b60016101008301516000908152600a8501602052604090206014015460ff16600181111561487257614872614d82565b146101208301526148896002840180546001019055565b600283015460e083015250919050565b6148a1614c5c565b60006148b0856040015161324b565b90506148ed86866148e58860000151856148de8b6020015160ff168c6080015161323f90919063ffffffff16565b91906148f7565b8785886149dc565b9695505050505050565b61491b60405180606001604052806000815260200160008152602001600081525090565b61493f60405180606001604052806000815260200160008152602001600081525090565b62278d0062ffffff841611156149a55760405162461bcd60e51b815260206004820152602560248201527f5574696c733a2046756c6c447572206f72204475724f6643686f696365206f6560448201526472666c6f7760d81b6064820152608401611cf5565b6149af8585614509565b8082521561181f5780516149cf9062ffffff851690612f5290600161323f565b6020820152949350505050565b6149e4614c5c565b60006149ee61271d565b905060006149fd896001015490565b9050604051806101000160405280896020015160ff168152602001836040015160ff168152602001896060015162ffffff1681526020018662ffffff168152602001896000015161ffff168152602001828152602001836040015160ff168152602001846000015160e001518152508360000181905250604051806080016040528089608001518152602001896080015181526020018960e001518152602001896101000151815250836020018190525060405180608001604052808960c001516001600160a01b0316815260200183608001516001600160a01b03168152602001876001600160a01b031681526020018960a00151600081518110614b0557614b0561541c565b60209081029190910101516001600160a01b03169052604084015260608301846001811115614b3657614b36614d82565b90816001811115614b4957614b49614d82565b905250505060a08101949094525050600160c0830152506000608082015292915050565b6040518060400160405280614b80614c5c565b8152602001606081525090565b60405180610120016040528060008152602001600081526020016000815260200160008152602001600081526020016000815260200160006001600160a01b03168152602001600015158152602001600081525090565b6040518060800160405280614c1a6040518060800160405280600081526020016000815260200160008152602001600081525090565b81526040805160a08101825260008082526020828101829052928201819052606082018190526080820152910190815260200160008152602001600081525090565b6040518060e00160405280614caf60405180610100016040528060008152602001600081526020016000815260200160008152602001600081526020016000815260200160008152602001600081525090565b8152602001614cdf6040518060800160405280600081526020016000815260200160008152602001600081525090565b81526040805160808101825260008082526020828101829052928201819052606082015291019081526020016000815260200160008152602001614d3d60405180606001604052806000815260200160008152602001600081525090565b81526020016000905290565b6040518060400160405280614d5c614c5c565b8152602001600081525090565b600060208284031215614d7b57600080fd5b5035919050565b634e487b7160e01b600052602160045260246000fd5b60028110614da857614da8614d82565b50565b614db481614d98565b9052565b60068110614db457614db4614d82565b8051805183526020810151602084015260408101516040840152606081015160608401526080810151608084015260a081015160a084015260c081015160c084015260e081015160e0840152506020810151614e49610100840182805182526020810151602083015260408101516040830152606081015160608301525050565b5060408181015180516001600160a01b03908116610180860152602082015181166101a08601529181015182166101c08501526060908101519091166101e0840152810151614e9c610200840182614dab565b506080810151614eb0610220840182614db8565b5060a0810151805161024084015260208101516102608401526040015161028083015260c08101516127a66102a0840182614dab565b805182526020808201519083015260408082015190830152606080820151908301526080808201519083015260a0808201519083015260c0808201516001600160a01b03169083015260e08082015115159083015261010090810151910152565b60008151808452602080850194506020840160005b83811015614f8357614f6f878351614ee6565b610120969096019590820190600101614f5c565b509495945050505050565b60208152614fa0602082018351614dc8565b60208201516102e08281015260009061181f610300840182614f47565b6101e08101614fcc8288614ee6565b94151561012082015261014081019390935281516101608401526020820151151561018084015260409091015115156101a08301526001600160a01b03166101c090910152919050565b6001600160a01b0381168114614da857600080fd5b80356109e581615016565b6000806040838503121561504957600080fd5b82359150602083013561505b81615016565b809150509250929050565b610120810161076a8284614ee6565b60006020828403121561508757600080fd5b813561092881615016565b6020810161509f83614d98565b91905290565b60006020808352835180602085015260005b818110156150d3578581018301518582016040015282016150b7565b506000604082860101526040601f19601f8301168501019250505092915050565b803561ffff811681146109e557600080fd5b60ff81168114614da857600080fd5b803562ffffff811681146109e557600080fd5b60008060008060008060c0878903121561514157600080fd5b61514a876150f4565b9550602087013561515a81615106565b9450615168604088016150f4565b935061517660608801615115565b92506080870135915060a087013561518d81615016565b809150509295509295509295565b600080604083850312156151ae57600080fd5b82359150602083013561505b81615106565b634e487b7160e01b600052604160045260246000fd5b60008060008060008060c087890312156151ef57600080fd5b6151f8876150f4565b955060206152078189016150f4565b955061521560408901615115565b945060608801359350608088013561522c81615016565b925060a088013567ffffffffffffffff8082111561524957600080fd5b818a0191508a601f83011261525d57600080fd5b81358181111561526f5761526f6151c0565b8060051b604051601f19603f83011681018181108582111715615294576152946151c0565b60405291825284820192508381018501918d8311156152b257600080fd5b938501935b828510156152d7576152c88561502b565b845293850193928501926152b7565b8096505050505050509295509295509295565b600080600080600060a0868803121561530257600080fd5b61530b866150f4565b9450602086013561531b81615016565b9350604086013561532b81615016565b9250606086013561533b81615016565b9150608086013561534b81615016565b809150509295509295909350565b6000806040838503121561536c57600080fd5b823561537781615016565b946020939093013593505050565b815181526020808301511515908201526040808301511515908201526060810161076a565b600080600080600060a086880312156153c257600080fd5b85356153cd81615016565b945060208601356153dd81615016565b935061532b604087016150f4565b6000602082840312156153fd57600080fd5b8151801515811461092857600080fd5b6102c0810161076a8284614dc8565b634e487b7160e01b600052603260045260246000fd5b80516001600160801b03811681146109e557600080fd5b6000806040838503121561545c57600080fd5b61546583615432565b915061547360208401615432565b90509250929050565b634e487b7160e01b600052601160045260246000fd5b8082018082111561076a5761076a61547c565b8181038181111561076a5761076a61547c565b6000602082840312156154ca57600080fd5b5051919050565b602081526154eb6020820183516001600160a01b03169052565b6000602083015161550760408401826001600160a01b03169052565b506040830151606083015260608301516080830152608083015161552f60a084018215159052565b5060a08301516101408060c085015261554c610160850183614f47565b915060c085015161556160e086018215159052565b5060e085015161010061557e818701836001600160a01b03169052565b86015161012086810191909152909501516001600160a01b031693019290925250919050565b600181815b808511156155df5781600019048211156155c5576155c561547c565b808516156155d257918102915b93841c93908002906155a9565b509250929050565b6000826155f65750600161076a565b816156035750600061076a565b816001811461561957600281146156235761563f565b600191505061076a565b60ff8411156156345761563461547c565b50506001821b61076a565b5060208310610133831016604e8410600b8410161715615662575081810a61076a565b61566c83836155a4565b80600019048211156156805761568061547c565b029392505050565b600061092860ff8416836155e7565b6000600182016156a9576156a961547c565b5060010190565b808202811582820484141761076a5761076a61547c565b6000602082840312156156d957600080fd5b815161092881615106565b634e487b7160e01b600052600160045260246000fd5b60008261571757634e487b7160e01b600052601260045260246000fd5b500490565b60006020828403121561572e57600080fd5b81516109288161501656fe5072696e636970616c2073686f756c642062652067726561746572207468616e203130303030a2646970667358221220d3831d4cc4f5a3347189cd91fc019f2b064d900ef32146f578210faca358ba2b64736f6c63430008180033",
  "devdoc": {
    "author": "Simplifinance - Written by Isaac Jesse (https://github.com/bobeu)  A protocol for short-term lending and borrowing services through a peer-funding mechanism, with an auto-AI yield dashboard. This is a structure where liquidity providers are also the borrowers. Two currencies are used:        - Native currency/Platform/Base currency e.g Celo, XFI, ETH, etc. This is the currency used as collateral.        - Stable coin e.g cUSD, xUSD, USDT etc. This is the base currency use for contribution.",
    "errors": {
      "EnforcedPause()": [
        {
          "details": "The operation failed because the contract is paused."
        }
      ],
      "ExpectedPause()": [
        {
          "details": "The operation failed because the contract is not paused."
        }
      ]
    },
    "events": {
      "Paused(address)": {
        "details": "Emitted when the pause is triggered by `account`."
      },
      "Unpaused(address)": {
        "details": "Emitted when the pause is lifted by `account`."
      }
    },
    "kind": "dev",
    "methods": {
      "constructor": {
        "details": "Initializes state variables.",
        "params": {
          "assetClass": ": Asset manager contract.",
          "bankFactory": ": BankFactory contract.",
          "feeTo": ": Account to receive fees.",
          "ownerShipManager": ": Accessibility manager contract",
          "serviceRate": ": Platform fee in %"
        }
      },
      "createPermissionedPool(uint16,uint16,uint24,uint256,address,address[])": {
        "details": "Create permissioned pool See AbstractFactory.sol "
      },
      "createPermissionlessPool(uint16,uint8,uint16,uint24,uint256,address)": {
        "details": "Create permissionless See AbstractFactory.sol"
      },
      "enquireLiquidation(uint256)": {
        "details": "See FactoryLib.enquireLiquidation"
      },
      "getCollaterlQuote(uint256)": {
        "details": "Returns collaterl quote for the epoch.",
        "params": {
          "unit": ": EpochId"
        },
        "returns": {
          "colCoverage": "Collateral coverage",
          "collateral": "Collateral"
        }
      },
      "getCurrentDebt(uint256,address)": {
        "params": {
          "target": ": Target user.",
          "unit": ": Epoch Id"
        }
      },
      "getEpoches()": {
        "details": "Return current epoch.  This is also total epoches generated to date "
      },
      "getFinance(uint256,uint8)": {
        "details": "Providers borrow from their pool provided the citeria are met.",
        "params": {
          "daysOfUseInHr": ": The time in hours the borrower wishes to retain the loan before paying back.",
          "unit": ": Epoh Id user wants to borrow from. "
        }
      },
      "getPoolData(uint256)": {
        "details": "Returns a single pool for 'unit'",
        "params": {
          "unitId": ": Contribution Id."
        }
      },
      "getProfile(uint256,address)": {
        "details": "Returns the profile of user",
        "params": {
          "unit": ": unit contribution",
          "user": ": User"
        }
      },
      "getRecord(uint256)": {
        "details": "Return past pools using unitId. @notice The correct unitId must be parsed."
      },
      "getRecordEpoches()": {
        "details": "Returns epoches"
      },
      "getRouter(uint256)": {
        "details": "Return the router for an unit."
      },
      "joinAPool(uint256)": {
        "details": "See AbstractFactory.sol "
      },
      "liquidate(uint256)": {
        "details": "Liquidate defaulter. Note: The expected repayment time for last paid contributor must have passed. See FactoryLib.liquidate() for more details.",
        "params": {
          "unit": ": Epoch Id"
        }
      },
      "pause()": {
        "details": "Triggers stopped state. Requirements: Only owner role can call. - The contract must not be paused."
      },
      "paused()": {
        "details": "Returns true if the contract is paused, and false otherwise."
      },
      "payback(uint256)": {
        "details": "Return borrowed fund.",
        "params": {
          "unit": ": Contribution See FactoryLib.payback()."
        }
      },
      "performSetUp(uint16,address,address,address,address)": {
        "details": "See _setUp() for doc."
      },
      "removeLiquidityPool(uint256)": {
        "details": "Remove liquidity pool",
        "params": {
          "unit": ": Epoch/Poool id"
        }
      },
      "setContractData(address,address,uint16,address,address)": {
        "details": "Set state variables.",
        "params": {
          "assetAdmin": ": AssetAdmin contract.",
          "feeTo": ": Fee receiver.",
          "makerRate": ": fee in %. - Only-owner function."
        }
      },
      "setOwnershipManager(address)": {
        "params": {
          "newManager": ": New manager address"
        }
      },
      "unpause()": {
        "details": "Returns to normal state. Requirements: - Only owner role can call. - The contract must be paused."
      }
    },
    "title": "Factory",
    "version": 1
  },
  "userdoc": {
    "kind": "user",
    "methods": {
      "getCurrentDebt(uint256,address)": {
        "notice": "Returns the current debt of target user."
      },
      "getFinance(uint256,uint8)": {
        "notice": "Users can be members of multiple epoches. This enlarges the volume of funds they can access.  - This is a payable function since borrowers are required to stake XFI before they can access funds in epoches. - The contract must be in a usable state i.e not paused. - For the selected epoch, the getFinance() must already be unlocked. Unlocking  is automated soon as the required quorum for the epoch is achieved i.e the  numbers of providers equals the set quorum."
      },
      "setOwnershipManager(address)": {
        "notice": "Set Ownership manager"
      }
    },
    "version": 1
  },
  "storageLayout": {
    "storage": [
      {
        "astId": 2446,
        "contract": "contracts/implementations/Factory.sol:Factory",
        "label": "ownershipManager",
        "offset": 0,
        "slot": "0",
        "type": "t_contract(IOwnerShip)3545"
      },
      {
        "astId": 2533,
        "contract": "contracts/implementations/Factory.sol:Factory",
        "label": "_paused",
        "offset": 20,
        "slot": "0",
        "type": "t_bool"
      },
      {
        "astId": 1596,
        "contract": "contracts/implementations/Factory.sol:Factory",
        "label": "data",
        "offset": 0,
        "slot": "1",
        "type": "t_struct(Data)7864_storage"
      },
      {
        "astId": 1599,
        "contract": "contracts/implementations/Factory.sol:Factory",
        "label": "analytics",
        "offset": 0,
        "slot": "14",
        "type": "t_struct(Analytics)3495_storage"
      },
      {
        "astId": 2430,
        "contract": "contracts/implementations/Factory.sol:Factory",
        "label": "diaOracleAddress",
        "offset": 0,
        "slot": "18",
        "type": "t_address"
      },
      {
        "astId": 3731,
        "contract": "contracts/implementations/Factory.sol:Factory",
        "label": "routers",
        "offset": 0,
        "slot": "19",
        "type": "t_mapping(t_uint256,t_enum(Router)2671)"
      }
    ],
    "types": {
      "t_address": {
        "encoding": "inplace",
        "label": "address",
        "numberOfBytes": "20"
      },
      "t_array(t_struct(Contributor)2718_storage)dyn_storage": {
        "base": "t_struct(Contributor)2718_storage",
        "encoding": "dynamic_array",
        "label": "struct Common.Contributor[]",
        "numberOfBytes": "32"
      },
      "t_bool": {
        "encoding": "inplace",
        "label": "bool",
        "numberOfBytes": "1"
      },
      "t_contract(IAssetClass)2970": {
        "encoding": "inplace",
        "label": "contract IAssetClass",
        "numberOfBytes": "20"
      },
      "t_contract(IERC20)3245": {
        "encoding": "inplace",
        "label": "contract IERC20",
        "numberOfBytes": "20"
      },
      "t_contract(IOwnerShip)3545": {
        "encoding": "inplace",
        "label": "contract IOwnerShip",
        "numberOfBytes": "20"
      },
      "t_enum(Router)2671": {
        "encoding": "inplace",
        "label": "enum Common.Router",
        "numberOfBytes": "1"
      },
      "t_enum(Stage)2665": {
        "encoding": "inplace",
        "label": "enum Common.Stage",
        "numberOfBytes": "1"
      },
      "t_enum(Status)2668": {
        "encoding": "inplace",
        "label": "enum Common.Status",
        "numberOfBytes": "1"
      },
      "t_mapping(t_address,t_mapping(t_uint256,t_struct(Slot)2873_storage))": {
        "encoding": "mapping",
        "key": "t_address",
        "label": "mapping(address => mapping(uint256 => struct Common.Slot))",
        "numberOfBytes": "32",
        "value": "t_mapping(t_uint256,t_struct(Slot)2873_storage)"
      },
      "t_mapping(t_address,t_struct(Point)2698_storage)": {
        "encoding": "mapping",
        "key": "t_address",
        "label": "mapping(address => struct Common.Point)",
        "numberOfBytes": "32",
        "value": "t_struct(Point)2698_storage"
      },
      "t_mapping(t_uint256,t_array(t_struct(Contributor)2718_storage)dyn_storage)": {
        "encoding": "mapping",
        "key": "t_uint256",
        "label": "mapping(uint256 => struct Common.Contributor[])",
        "numberOfBytes": "32",
        "value": "t_array(t_struct(Contributor)2718_storage)dyn_storage"
      },
      "t_mapping(t_uint256,t_enum(Router)2671)": {
        "encoding": "mapping",
        "key": "t_uint256",
        "label": "mapping(uint256 => enum Common.Router)",
        "numberOfBytes": "32",
        "value": "t_enum(Router)2671"
      },
      "t_mapping(t_uint256,t_struct(Pool)2693_storage)": {
        "encoding": "mapping",
        "key": "t_uint256",
        "label": "mapping(uint256 => struct Common.Pool)",
        "numberOfBytes": "32",
        "value": "t_struct(Pool)2693_storage"
      },
      "t_mapping(t_uint256,t_struct(Slot)2873_storage)": {
        "encoding": "mapping",
        "key": "t_uint256",
        "label": "mapping(uint256 => struct Common.Slot)",
        "numberOfBytes": "32",
        "value": "t_struct(Slot)2873_storage"
      },
      "t_mapping(t_uint256,t_uint256)": {
        "encoding": "mapping",
        "key": "t_uint256",
        "label": "mapping(uint256 => uint256)",
        "numberOfBytes": "32",
        "value": "t_uint256"
      },
      "t_struct(Addresses)2811_storage": {
        "encoding": "inplace",
        "label": "struct Common.Addresses",
        "members": [
          {
            "astId": 2804,
            "contract": "contracts/implementations/Factory.sol:Factory",
            "label": "asset",
            "offset": 0,
            "slot": "0",
            "type": "t_address"
          },
          {
            "astId": 2806,
            "contract": "contracts/implementations/Factory.sol:Factory",
            "label": "lastPaid",
            "offset": 0,
            "slot": "1",
            "type": "t_address"
          },
          {
            "astId": 2808,
            "contract": "contracts/implementations/Factory.sol:Factory",
            "label": "bank",
            "offset": 0,
            "slot": "2",
            "type": "t_address"
          },
          {
            "astId": 2810,
            "contract": "contracts/implementations/Factory.sol:Factory",
            "label": "admin",
            "offset": 0,
            "slot": "3",
            "type": "t_address"
          }
        ],
        "numberOfBytes": "128"
      },
      "t_struct(Analytics)3495_storage": {
        "encoding": "inplace",
        "label": "struct IFactory.Analytics",
        "members": [
          {
            "astId": 3488,
            "contract": "contracts/implementations/Factory.sol:Factory",
            "label": "tvlCollateral",
            "offset": 0,
            "slot": "0",
            "type": "t_uint256"
          },
          {
            "astId": 3490,
            "contract": "contracts/implementations/Factory.sol:Factory",
            "label": "tvlBase",
            "offset": 0,
            "slot": "1",
            "type": "t_uint256"
          },
          {
            "astId": 3492,
            "contract": "contracts/implementations/Factory.sol:Factory",
            "label": "totalPermissioned",
            "offset": 0,
            "slot": "2",
            "type": "t_uint256"
          },
          {
            "astId": 3494,
            "contract": "contracts/implementations/Factory.sol:Factory",
            "label": "totalPermissionless",
            "offset": 0,
            "slot": "3",
            "type": "t_uint256"
          }
        ],
        "numberOfBytes": "128"
      },
      "t_struct(BigInt)2783_storage": {
        "encoding": "inplace",
        "label": "struct Common.BigInt",
        "members": [
          {
            "astId": 2776,
            "contract": "contracts/implementations/Factory.sol:Factory",
            "label": "unit",
            "offset": 0,
            "slot": "0",
            "type": "t_uint256"
          },
          {
            "astId": 2778,
            "contract": "contracts/implementations/Factory.sol:Factory",
            "label": "currentPool",
            "offset": 0,
            "slot": "1",
            "type": "t_uint256"
          },
          {
            "astId": 2780,
            "contract": "contracts/implementations/Factory.sol:Factory",
            "label": "recordId",
            "offset": 0,
            "slot": "2",
            "type": "t_uint256"
          },
          {
            "astId": 2782,
            "contract": "contracts/implementations/Factory.sol:Factory",
            "label": "unitId",
            "offset": 0,
            "slot": "3",
            "type": "t_uint256"
          }
        ],
        "numberOfBytes": "128"
      },
      "t_struct(ContractData)3486_storage": {
        "encoding": "inplace",
        "label": "struct IFactory.ContractData",
        "members": [
          {
            "astId": 3475,
            "contract": "contracts/implementations/Factory.sol:Factory",
            "label": "feeTo",
            "offset": 0,
            "slot": "0",
            "type": "t_address"
          },
          {
            "astId": 3478,
            "contract": "contracts/implementations/Factory.sol:Factory",
            "label": "assetAdmin",
            "offset": 0,
            "slot": "1",
            "type": "t_contract(IAssetClass)2970"
          },
          {
            "astId": 3480,
            "contract": "contracts/implementations/Factory.sol:Factory",
            "label": "makerRate",
            "offset": 20,
            "slot": "1",
            "type": "t_uint16"
          },
          {
            "astId": 3482,
            "contract": "contracts/implementations/Factory.sol:Factory",
            "label": "safeFactory",
            "offset": 0,
            "slot": "2",
            "type": "t_address"
          },
          {
            "astId": 3485,
            "contract": "contracts/implementations/Factory.sol:Factory",
            "label": "collateralToken",
            "offset": 0,
            "slot": "3",
            "type": "t_contract(IERC20)3245"
          }
        ],
        "numberOfBytes": "128"
      },
      "t_struct(Contributor)2718_storage": {
        "encoding": "inplace",
        "label": "struct Common.Contributor",
        "members": [
          {
            "astId": 2701,
            "contract": "contracts/implementations/Factory.sol:Factory",
            "label": "durOfChoice",
            "offset": 0,
            "slot": "0",
            "type": "t_uint256"
          },
          {
            "astId": 2703,
            "contract": "contracts/implementations/Factory.sol:Factory",
            "label": "paybackTime",
            "offset": 0,
            "slot": "1",
            "type": "t_uint256"
          },
          {
            "astId": 2705,
            "contract": "contracts/implementations/Factory.sol:Factory",
            "label": "turnStartTime",
            "offset": 0,
            "slot": "2",
            "type": "t_uint256"
          },
          {
            "astId": 2707,
            "contract": "contracts/implementations/Factory.sol:Factory",
            "label": "getFinanceTime",
            "offset": 0,
            "slot": "3",
            "type": "t_uint256"
          },
          {
            "astId": 2709,
            "contract": "contracts/implementations/Factory.sol:Factory",
            "label": "loan",
            "offset": 0,
            "slot": "4",
            "type": "t_uint256"
          },
          {
            "astId": 2711,
            "contract": "contracts/implementations/Factory.sol:Factory",
            "label": "colBals",
            "offset": 0,
            "slot": "5",
            "type": "t_uint256"
          },
          {
            "astId": 2713,
            "contract": "contracts/implementations/Factory.sol:Factory",
            "label": "id",
            "offset": 0,
            "slot": "6",
            "type": "t_address"
          },
          {
            "astId": 2715,
            "contract": "contracts/implementations/Factory.sol:Factory",
            "label": "sentQuota",
            "offset": 20,
            "slot": "6",
            "type": "t_bool"
          },
          {
            "astId": 2717,
            "contract": "contracts/implementations/Factory.sol:Factory",
            "label": "interestPaid",
            "offset": 0,
            "slot": "7",
            "type": "t_uint256"
          }
        ],
        "numberOfBytes": "256"
      },
      "t_struct(Counter)1188_storage": {
        "encoding": "inplace",
        "label": "struct Counters.Counter",
        "members": [
          {
            "astId": 1187,
            "contract": "contracts/implementations/Factory.sol:Factory",
            "label": "_value",
            "offset": 0,
            "slot": "0",
            "type": "t_uint256"
          }
        ],
        "numberOfBytes": "32"
      },
      "t_struct(Data)7864_storage": {
        "encoding": "inplace",
        "label": "struct Data",
        "members": [
          {
            "astId": 7822,
            "contract": "contracts/implementations/Factory.sol:Factory",
            "label": "epoches",
            "offset": 0,
            "slot": "0",
            "type": "t_struct(Counter)1188_storage"
          },
          {
            "astId": 7825,
            "contract": "contracts/implementations/Factory.sol:Factory",
            "label": "cSlots",
            "offset": 0,
            "slot": "1",
            "type": "t_struct(Counter)1188_storage"
          },
          {
            "astId": 7828,
            "contract": "contracts/implementations/Factory.sol:Factory",
            "label": "pastEpoches",
            "offset": 0,
            "slot": "2",
            "type": "t_struct(Counter)1188_storage"
          },
          {
            "astId": 7831,
            "contract": "contracts/implementations/Factory.sol:Factory",
            "label": "pData",
            "offset": 0,
            "slot": "3",
            "type": "t_struct(ContractData)3486_storage"
          },
          {
            "astId": 7837,
            "contract": "contracts/implementations/Factory.sol:Factory",
            "label": "cData",
            "offset": 0,
            "slot": "7",
            "type": "t_mapping(t_uint256,t_array(t_struct(Contributor)2718_storage)dyn_storage)"
          },
          {
            "astId": 7841,
            "contract": "contracts/implementations/Factory.sol:Factory",
            "label": "indexes",
            "offset": 0,
            "slot": "8",
            "type": "t_mapping(t_uint256,t_uint256)"
          },
          {
            "astId": 7846,
            "contract": "contracts/implementations/Factory.sol:Factory",
            "label": "records",
            "offset": 0,
            "slot": "9",
            "type": "t_mapping(t_uint256,t_struct(Pool)2693_storage)"
          },
          {
            "astId": 7851,
            "contract": "contracts/implementations/Factory.sol:Factory",
            "label": "current",
            "offset": 0,
            "slot": "10",
            "type": "t_mapping(t_uint256,t_struct(Pool)2693_storage)"
          },
          {
            "astId": 7856,
            "contract": "contracts/implementations/Factory.sol:Factory",
            "label": "points",
            "offset": 0,
            "slot": "11",
            "type": "t_mapping(t_address,t_struct(Point)2698_storage)"
          },
          {
            "astId": 7863,
            "contract": "contracts/implementations/Factory.sol:Factory",
            "label": "slots",
            "offset": 0,
            "slot": "12",
            "type": "t_mapping(t_address,t_mapping(t_uint256,t_struct(Slot)2873_storage))"
          }
        ],
        "numberOfBytes": "416"
      },
      "t_struct(Interest)2833_storage": {
        "encoding": "inplace",
        "label": "struct Common.Interest",
        "members": [
          {
            "astId": 2828,
            "contract": "contracts/implementations/Factory.sol:Factory",
            "label": "fullInterest",
            "offset": 0,
            "slot": "0",
            "type": "t_uint256"
          },
          {
            "astId": 2830,
            "contract": "contracts/implementations/Factory.sol:Factory",
            "label": "intPerSec",
            "offset": 0,
            "slot": "1",
            "type": "t_uint256"
          },
          {
            "astId": 2832,
            "contract": "contracts/implementations/Factory.sol:Factory",
            "label": "intPerChoiceOfDur",
            "offset": 0,
            "slot": "2",
            "type": "t_uint256"
          }
        ],
        "numberOfBytes": "96"
      },
      "t_struct(LInt)2801_storage": {
        "encoding": "inplace",
        "label": "struct Common.LInt",
        "members": [
          {
            "astId": 2786,
            "contract": "contracts/implementations/Factory.sol:Factory",
            "label": "quorum",
            "offset": 0,
            "slot": "0",
            "type": "t_uint256"
          },
          {
            "astId": 2788,
            "contract": "contracts/implementations/Factory.sol:Factory",
            "label": "selector",
            "offset": 0,
            "slot": "1",
            "type": "t_uint256"
          },
          {
            "astId": 2790,
            "contract": "contracts/implementations/Factory.sol:Factory",
            "label": "colCoverage",
            "offset": 0,
            "slot": "2",
            "type": "t_uint256"
          },
          {
            "astId": 2792,
            "contract": "contracts/implementations/Factory.sol:Factory",
            "label": "duration",
            "offset": 0,
            "slot": "3",
            "type": "t_uint256"
          },
          {
            "astId": 2794,
            "contract": "contracts/implementations/Factory.sol:Factory",
            "label": "intRate",
            "offset": 0,
            "slot": "4",
            "type": "t_uint256"
          },
          {
            "astId": 2796,
            "contract": "contracts/implementations/Factory.sol:Factory",
            "label": "cSlot",
            "offset": 0,
            "slot": "5",
            "type": "t_uint256"
          },
          {
            "astId": 2798,
            "contract": "contracts/implementations/Factory.sol:Factory",
            "label": "allGh",
            "offset": 0,
            "slot": "6",
            "type": "t_uint256"
          },
          {
            "astId": 2800,
            "contract": "contracts/implementations/Factory.sol:Factory",
            "label": "userCount",
            "offset": 0,
            "slot": "7",
            "type": "t_uint256"
          }
        ],
        "numberOfBytes": "256"
      },
      "t_struct(Point)2698_storage": {
        "encoding": "inplace",
        "label": "struct Common.Point",
        "members": [
          {
            "astId": 2695,
            "contract": "contracts/implementations/Factory.sol:Factory",
            "label": "contributor",
            "offset": 0,
            "slot": "0",
            "type": "t_uint256"
          },
          {
            "astId": 2697,
            "contract": "contracts/implementations/Factory.sol:Factory",
            "label": "creator",
            "offset": 0,
            "slot": "1",
            "type": "t_uint256"
          }
        ],
        "numberOfBytes": "64"
      },
      "t_struct(Pool)2693_storage": {
        "encoding": "inplace",
        "label": "struct Common.Pool",
        "members": [
          {
            "astId": 2674,
            "contract": "contracts/implementations/Factory.sol:Factory",
            "label": "lInt",
            "offset": 0,
            "slot": "0",
            "type": "t_struct(LInt)2801_storage"
          },
          {
            "astId": 2677,
            "contract": "contracts/implementations/Factory.sol:Factory",
            "label": "bigInt",
            "offset": 0,
            "slot": "8",
            "type": "t_struct(BigInt)2783_storage"
          },
          {
            "astId": 2680,
            "contract": "contracts/implementations/Factory.sol:Factory",
            "label": "addrs",
            "offset": 0,
            "slot": "12",
            "type": "t_struct(Addresses)2811_storage"
          },
          {
            "astId": 2683,
            "contract": "contracts/implementations/Factory.sol:Factory",
            "label": "router",
            "offset": 0,
            "slot": "16",
            "type": "t_enum(Router)2671"
          },
          {
            "astId": 2686,
            "contract": "contracts/implementations/Factory.sol:Factory",
            "label": "stage",
            "offset": 1,
            "slot": "16",
            "type": "t_enum(Stage)2665"
          },
          {
            "astId": 2689,
            "contract": "contracts/implementations/Factory.sol:Factory",
            "label": "interest",
            "offset": 0,
            "slot": "17",
            "type": "t_struct(Interest)2833_storage"
          },
          {
            "astId": 2692,
            "contract": "contracts/implementations/Factory.sol:Factory",
            "label": "status",
            "offset": 0,
            "slot": "20",
            "type": "t_enum(Status)2668"
          }
        ],
        "numberOfBytes": "672"
      },
      "t_struct(Slot)2873_storage": {
        "encoding": "inplace",
        "label": "struct Common.Slot",
        "members": [
          {
            "astId": 2868,
            "contract": "contracts/implementations/Factory.sol:Factory",
            "label": "value",
            "offset": 0,
            "slot": "0",
            "type": "t_uint256"
          },
          {
            "astId": 2870,
            "contract": "contracts/implementations/Factory.sol:Factory",
            "label": "isMember",
            "offset": 0,
            "slot": "1",
            "type": "t_bool"
          },
          {
            "astId": 2872,
            "contract": "contracts/implementations/Factory.sol:Factory",
            "label": "isAdmin",
            "offset": 1,
            "slot": "1",
            "type": "t_bool"
          }
        ],
        "numberOfBytes": "64"
      },
      "t_uint16": {
        "encoding": "inplace",
        "label": "uint16",
        "numberOfBytes": "2"
      },
      "t_uint256": {
        "encoding": "inplace",
        "label": "uint256",
        "numberOfBytes": "32"
      }
    }
  }
}