{
  "address": "0x66ECA3234F0Aec3D69252B3c3CEA27916cfF0511",
  "abi": [
    {
      "inputs": [
        {
          "internalType": "address",
          "name": "_feeTo",
          "type": "address"
        },
        {
          "internalType": "uint16",
          "name": "_makerRate",
          "type": "uint16"
        },
        {
          "internalType": "address",
          "name": "_diaOracleAddress",
          "type": "address"
        },
        {
          "internalType": "contract IRoleBase",
          "name": "_roleManager",
          "type": "address"
        },
        {
          "internalType": "contract ISupportedAsset",
          "name": "_assetManager",
          "type": "address"
        },
        {
          "internalType": "contract IERC20",
          "name": "_baseAsset",
          "type": "address"
        },
        {
          "internalType": "contract IPoint",
          "name": "_pointFactory",
          "type": "address"
        },
        {
          "internalType": "contract ISafeFactory",
          "name": "_safeFactory",
          "type": "address"
        }
      ],
      "stateMutability": "nonpayable",
      "type": "constructor"
    },
    {
      "inputs": [],
      "name": "EnforcedPause",
      "type": "error"
    },
    {
      "inputs": [
        {
          "internalType": "string",
          "name": "errorMsg",
          "type": "string"
        }
      ],
      "name": "ErrorOccurred",
      "type": "error"
    },
    {
      "inputs": [],
      "name": "ExpectedPause",
      "type": "error"
    },
    {
      "anonymous": false,
      "inputs": [
        {
          "indexed": false,
          "internalType": "uint256",
          "name": "unit",
          "type": "uint256"
        }
      ],
      "name": "Cancellation",
      "type": "event"
    },
    {
      "anonymous": false,
      "inputs": [
        {
          "components": [
            {
              "components": [
                {
                  "internalType": "uint8",
                  "name": "maxQuorum",
                  "type": "uint8"
                },
                {
                  "internalType": "uint8",
                  "name": "selector",
                  "type": "uint8"
                },
                {
                  "internalType": "uint24",
                  "name": "colCoverage",
                  "type": "uint24"
                },
                {
                  "internalType": "uint32",
                  "name": "duration",
                  "type": "uint32"
                },
                {
                  "internalType": "uint8",
                  "name": "allGh",
                  "type": "uint8"
                },
                {
                  "internalType": "uint8",
                  "name": "userCount",
                  "type": "uint8"
                }
              ],
              "internalType": "struct Common.Low",
              "name": "low",
              "type": "tuple"
            },
            {
              "components": [
                {
                  "internalType": "uint256",
                  "name": "unit",
                  "type": "uint256"
                },
                {
                  "internalType": "uint256",
                  "name": "currentPool",
                  "type": "uint256"
                },
                {
                  "internalType": "uint96",
                  "name": "recordId",
                  "type": "uint96"
                },
                {
                  "internalType": "uint96",
                  "name": "unitId",
                  "type": "uint96"
                }
              ],
              "internalType": "struct Common.Big",
              "name": "big",
              "type": "tuple"
            },
            {
              "components": [
                {
                  "internalType": "contract IERC20",
                  "name": "colAsset",
                  "type": "address"
                },
                {
                  "internalType": "address",
                  "name": "lastPaid",
                  "type": "address"
                },
                {
                  "internalType": "address",
                  "name": "safe",
                  "type": "address"
                },
                {
                  "internalType": "address",
                  "name": "admin",
                  "type": "address"
                }
              ],
              "internalType": "struct Common.Addresses",
              "name": "addrs",
              "type": "tuple"
            },
            {
              "internalType": "enum Common.Router",
              "name": "router",
              "type": "uint8"
            },
            {
              "internalType": "enum Common.Stage",
              "name": "stage",
              "type": "uint8"
            },
            {
              "internalType": "enum Common.Status",
              "name": "status",
              "type": "uint8"
            }
          ],
          "indexed": false,
          "internalType": "struct Common.Pool",
          "name": "",
          "type": "tuple"
        }
      ],
      "name": "GetFinanced",
      "type": "event"
    },
    {
      "anonymous": false,
      "inputs": [
        {
          "components": [
            {
              "components": [
                {
                  "internalType": "uint8",
                  "name": "maxQuorum",
                  "type": "uint8"
                },
                {
                  "internalType": "uint8",
                  "name": "selector",
                  "type": "uint8"
                },
                {
                  "internalType": "uint24",
                  "name": "colCoverage",
                  "type": "uint24"
                },
                {
                  "internalType": "uint32",
                  "name": "duration",
                  "type": "uint32"
                },
                {
                  "internalType": "uint8",
                  "name": "allGh",
                  "type": "uint8"
                },
                {
                  "internalType": "uint8",
                  "name": "userCount",
                  "type": "uint8"
                }
              ],
              "internalType": "struct Common.Low",
              "name": "low",
              "type": "tuple"
            },
            {
              "components": [
                {
                  "internalType": "uint256",
                  "name": "unit",
                  "type": "uint256"
                },
                {
                  "internalType": "uint256",
                  "name": "currentPool",
                  "type": "uint256"
                },
                {
                  "internalType": "uint96",
                  "name": "recordId",
                  "type": "uint96"
                },
                {
                  "internalType": "uint96",
                  "name": "unitId",
                  "type": "uint96"
                }
              ],
              "internalType": "struct Common.Big",
              "name": "big",
              "type": "tuple"
            },
            {
              "components": [
                {
                  "internalType": "contract IERC20",
                  "name": "colAsset",
                  "type": "address"
                },
                {
                  "internalType": "address",
                  "name": "lastPaid",
                  "type": "address"
                },
                {
                  "internalType": "address",
                  "name": "safe",
                  "type": "address"
                },
                {
                  "internalType": "address",
                  "name": "admin",
                  "type": "address"
                }
              ],
              "internalType": "struct Common.Addresses",
              "name": "addrs",
              "type": "tuple"
            },
            {
              "internalType": "enum Common.Router",
              "name": "router",
              "type": "uint8"
            },
            {
              "internalType": "enum Common.Stage",
              "name": "stage",
              "type": "uint8"
            },
            {
              "internalType": "enum Common.Status",
              "name": "status",
              "type": "uint8"
            }
          ],
          "indexed": false,
          "internalType": "struct Common.Pool",
          "name": "",
          "type": "tuple"
        }
      ],
      "name": "Liquidated",
      "type": "event"
    },
    {
      "anonymous": false,
      "inputs": [
        {
          "components": [
            {
              "components": [
                {
                  "internalType": "uint8",
                  "name": "maxQuorum",
                  "type": "uint8"
                },
                {
                  "internalType": "uint8",
                  "name": "selector",
                  "type": "uint8"
                },
                {
                  "internalType": "uint24",
                  "name": "colCoverage",
                  "type": "uint24"
                },
                {
                  "internalType": "uint32",
                  "name": "duration",
                  "type": "uint32"
                },
                {
                  "internalType": "uint8",
                  "name": "allGh",
                  "type": "uint8"
                },
                {
                  "internalType": "uint8",
                  "name": "userCount",
                  "type": "uint8"
                }
              ],
              "internalType": "struct Common.Low",
              "name": "low",
              "type": "tuple"
            },
            {
              "components": [
                {
                  "internalType": "uint256",
                  "name": "unit",
                  "type": "uint256"
                },
                {
                  "internalType": "uint256",
                  "name": "currentPool",
                  "type": "uint256"
                },
                {
                  "internalType": "uint96",
                  "name": "recordId",
                  "type": "uint96"
                },
                {
                  "internalType": "uint96",
                  "name": "unitId",
                  "type": "uint96"
                }
              ],
              "internalType": "struct Common.Big",
              "name": "big",
              "type": "tuple"
            },
            {
              "components": [
                {
                  "internalType": "contract IERC20",
                  "name": "colAsset",
                  "type": "address"
                },
                {
                  "internalType": "address",
                  "name": "lastPaid",
                  "type": "address"
                },
                {
                  "internalType": "address",
                  "name": "safe",
                  "type": "address"
                },
                {
                  "internalType": "address",
                  "name": "admin",
                  "type": "address"
                }
              ],
              "internalType": "struct Common.Addresses",
              "name": "addrs",
              "type": "tuple"
            },
            {
              "internalType": "enum Common.Router",
              "name": "router",
              "type": "uint8"
            },
            {
              "internalType": "enum Common.Stage",
              "name": "stage",
              "type": "uint8"
            },
            {
              "internalType": "enum Common.Status",
              "name": "status",
              "type": "uint8"
            }
          ],
          "indexed": false,
          "internalType": "struct Common.Pool",
          "name": "",
          "type": "tuple"
        }
      ],
      "name": "NewContributorAdded",
      "type": "event"
    },
    {
      "anonymous": false,
      "inputs": [
        {
          "indexed": false,
          "internalType": "address",
          "name": "account",
          "type": "address"
        }
      ],
      "name": "Paused",
      "type": "event"
    },
    {
      "anonymous": false,
      "inputs": [
        {
          "components": [
            {
              "components": [
                {
                  "internalType": "uint8",
                  "name": "maxQuorum",
                  "type": "uint8"
                },
                {
                  "internalType": "uint8",
                  "name": "selector",
                  "type": "uint8"
                },
                {
                  "internalType": "uint24",
                  "name": "colCoverage",
                  "type": "uint24"
                },
                {
                  "internalType": "uint32",
                  "name": "duration",
                  "type": "uint32"
                },
                {
                  "internalType": "uint8",
                  "name": "allGh",
                  "type": "uint8"
                },
                {
                  "internalType": "uint8",
                  "name": "userCount",
                  "type": "uint8"
                }
              ],
              "internalType": "struct Common.Low",
              "name": "low",
              "type": "tuple"
            },
            {
              "components": [
                {
                  "internalType": "uint256",
                  "name": "unit",
                  "type": "uint256"
                },
                {
                  "internalType": "uint256",
                  "name": "currentPool",
                  "type": "uint256"
                },
                {
                  "internalType": "uint96",
                  "name": "recordId",
                  "type": "uint96"
                },
                {
                  "internalType": "uint96",
                  "name": "unitId",
                  "type": "uint96"
                }
              ],
              "internalType": "struct Common.Big",
              "name": "big",
              "type": "tuple"
            },
            {
              "components": [
                {
                  "internalType": "contract IERC20",
                  "name": "colAsset",
                  "type": "address"
                },
                {
                  "internalType": "address",
                  "name": "lastPaid",
                  "type": "address"
                },
                {
                  "internalType": "address",
                  "name": "safe",
                  "type": "address"
                },
                {
                  "internalType": "address",
                  "name": "admin",
                  "type": "address"
                }
              ],
              "internalType": "struct Common.Addresses",
              "name": "addrs",
              "type": "tuple"
            },
            {
              "internalType": "enum Common.Router",
              "name": "router",
              "type": "uint8"
            },
            {
              "internalType": "enum Common.Stage",
              "name": "stage",
              "type": "uint8"
            },
            {
              "internalType": "enum Common.Status",
              "name": "status",
              "type": "uint8"
            }
          ],
          "indexed": false,
          "internalType": "struct Common.Pool",
          "name": "",
          "type": "tuple"
        }
      ],
      "name": "Payback",
      "type": "event"
    },
    {
      "anonymous": false,
      "inputs": [
        {
          "components": [
            {
              "components": [
                {
                  "internalType": "uint8",
                  "name": "maxQuorum",
                  "type": "uint8"
                },
                {
                  "internalType": "uint8",
                  "name": "selector",
                  "type": "uint8"
                },
                {
                  "internalType": "uint24",
                  "name": "colCoverage",
                  "type": "uint24"
                },
                {
                  "internalType": "uint32",
                  "name": "duration",
                  "type": "uint32"
                },
                {
                  "internalType": "uint8",
                  "name": "allGh",
                  "type": "uint8"
                },
                {
                  "internalType": "uint8",
                  "name": "userCount",
                  "type": "uint8"
                }
              ],
              "internalType": "struct Common.Low",
              "name": "low",
              "type": "tuple"
            },
            {
              "components": [
                {
                  "internalType": "uint256",
                  "name": "unit",
                  "type": "uint256"
                },
                {
                  "internalType": "uint256",
                  "name": "currentPool",
                  "type": "uint256"
                },
                {
                  "internalType": "uint96",
                  "name": "recordId",
                  "type": "uint96"
                },
                {
                  "internalType": "uint96",
                  "name": "unitId",
                  "type": "uint96"
                }
              ],
              "internalType": "struct Common.Big",
              "name": "big",
              "type": "tuple"
            },
            {
              "components": [
                {
                  "internalType": "contract IERC20",
                  "name": "colAsset",
                  "type": "address"
                },
                {
                  "internalType": "address",
                  "name": "lastPaid",
                  "type": "address"
                },
                {
                  "internalType": "address",
                  "name": "safe",
                  "type": "address"
                },
                {
                  "internalType": "address",
                  "name": "admin",
                  "type": "address"
                }
              ],
              "internalType": "struct Common.Addresses",
              "name": "addrs",
              "type": "tuple"
            },
            {
              "internalType": "enum Common.Router",
              "name": "router",
              "type": "uint8"
            },
            {
              "internalType": "enum Common.Stage",
              "name": "stage",
              "type": "uint8"
            },
            {
              "internalType": "enum Common.Status",
              "name": "status",
              "type": "uint8"
            }
          ],
          "indexed": false,
          "internalType": "struct Common.Pool",
          "name": "",
          "type": "tuple"
        }
      ],
      "name": "PoolCreated",
      "type": "event"
    },
    {
      "anonymous": false,
      "inputs": [
        {
          "components": [
            {
              "components": [
                {
                  "internalType": "uint8",
                  "name": "maxQuorum",
                  "type": "uint8"
                },
                {
                  "internalType": "uint8",
                  "name": "selector",
                  "type": "uint8"
                },
                {
                  "internalType": "uint24",
                  "name": "colCoverage",
                  "type": "uint24"
                },
                {
                  "internalType": "uint32",
                  "name": "duration",
                  "type": "uint32"
                },
                {
                  "internalType": "uint8",
                  "name": "allGh",
                  "type": "uint8"
                },
                {
                  "internalType": "uint8",
                  "name": "userCount",
                  "type": "uint8"
                }
              ],
              "internalType": "struct Common.Low",
              "name": "low",
              "type": "tuple"
            },
            {
              "components": [
                {
                  "internalType": "uint256",
                  "name": "unit",
                  "type": "uint256"
                },
                {
                  "internalType": "uint256",
                  "name": "currentPool",
                  "type": "uint256"
                },
                {
                  "internalType": "uint96",
                  "name": "recordId",
                  "type": "uint96"
                },
                {
                  "internalType": "uint96",
                  "name": "unitId",
                  "type": "uint96"
                }
              ],
              "internalType": "struct Common.Big",
              "name": "big",
              "type": "tuple"
            },
            {
              "components": [
                {
                  "internalType": "contract IERC20",
                  "name": "colAsset",
                  "type": "address"
                },
                {
                  "internalType": "address",
                  "name": "lastPaid",
                  "type": "address"
                },
                {
                  "internalType": "address",
                  "name": "safe",
                  "type": "address"
                },
                {
                  "internalType": "address",
                  "name": "admin",
                  "type": "address"
                }
              ],
              "internalType": "struct Common.Addresses",
              "name": "addrs",
              "type": "tuple"
            },
            {
              "internalType": "enum Common.Router",
              "name": "router",
              "type": "uint8"
            },
            {
              "internalType": "enum Common.Stage",
              "name": "stage",
              "type": "uint8"
            },
            {
              "internalType": "enum Common.Status",
              "name": "status",
              "type": "uint8"
            }
          ],
          "indexed": false,
          "internalType": "struct Common.Pool",
          "name": "",
          "type": "tuple"
        }
      ],
      "name": "PoolEdited",
      "type": "event"
    },
    {
      "anonymous": false,
      "inputs": [
        {
          "indexed": false,
          "internalType": "address",
          "name": "account",
          "type": "address"
        }
      ],
      "name": "Unpaused",
      "type": "event"
    },
    {
      "inputs": [],
      "name": "activateReward",
      "outputs": [
        {
          "internalType": "bool",
          "name": "",
          "type": "bool"
        }
      ],
      "stateMutability": "nonpayable",
      "type": "function"
    },
    {
      "inputs": [],
      "name": "analytics",
      "outputs": [
        {
          "internalType": "uint256",
          "name": "tvlCollateral",
          "type": "uint256"
        },
        {
          "internalType": "uint256",
          "name": "tvlBase",
          "type": "uint256"
        },
        {
          "internalType": "uint256",
          "name": "totalPermissioned",
          "type": "uint256"
        },
        {
          "internalType": "uint256",
          "name": "totalPermissionless",
          "type": "uint256"
        }
      ],
      "stateMutability": "view",
      "type": "function"
    },
    {
      "inputs": [],
      "name": "assetManager",
      "outputs": [
        {
          "internalType": "contract ISupportedAsset",
          "name": "",
          "type": "address"
        }
      ],
      "stateMutability": "view",
      "type": "function"
    },
    {
      "inputs": [],
      "name": "awardPoint",
      "outputs": [
        {
          "internalType": "bool",
          "name": "",
          "type": "bool"
        }
      ],
      "stateMutability": "view",
      "type": "function"
    },
    {
      "inputs": [],
      "name": "baseAsset",
      "outputs": [
        {
          "internalType": "contract IERC20",
          "name": "",
          "type": "address"
        }
      ],
      "stateMutability": "view",
      "type": "function"
    },
    {
      "inputs": [
        {
          "internalType": "uint256",
          "name": "unit",
          "type": "uint256"
        }
      ],
      "name": "closePool",
      "outputs": [
        {
          "internalType": "bool",
          "name": "",
          "type": "bool"
        }
      ],
      "stateMutability": "nonpayable",
      "type": "function"
    },
    {
      "inputs": [
        {
          "internalType": "uint256",
          "name": "unit",
          "type": "uint256"
        }
      ],
      "name": "contribute",
      "outputs": [
        {
          "internalType": "bool",
          "name": "",
          "type": "bool"
        }
      ],
      "stateMutability": "nonpayable",
      "type": "function"
    },
    {
      "inputs": [
        {
          "components": [
            {
              "internalType": "uint256",
              "name": "slot",
              "type": "uint256"
            },
            {
              "internalType": "uint256",
              "name": "amount",
              "type": "uint256"
            },
            {
              "internalType": "uint256",
              "name": "rate",
              "type": "uint256"
            },
            {
              "internalType": "uint256",
              "name": "earnStartDate",
              "type": "uint256"
            },
            {
              "internalType": "address",
              "name": "account",
              "type": "address"
            },
            {
              "components": [
                {
                  "internalType": "uint256",
                  "name": "fullInterest",
                  "type": "uint256"
                },
                {
                  "internalType": "uint256",
                  "name": "intPerSec",
                  "type": "uint256"
                }
              ],
              "internalType": "struct Common.Interest",
              "name": "accruals",
              "type": "tuple"
            }
          ],
          "internalType": "struct Common.Provider[]",
          "name": "providers",
          "type": "tuple[]"
        },
        {
          "internalType": "address",
          "name": "borrower",
          "type": "address"
        },
        {
          "internalType": "uint256",
          "name": "unit",
          "type": "uint256"
        }
      ],
      "name": "contributeThroughProvider",
      "outputs": [
        {
          "internalType": "bool",
          "name": "",
          "type": "bool"
        }
      ],
      "stateMutability": "nonpayable",
      "type": "function"
    },
    {
      "inputs": [
        {
          "internalType": "address[]",
          "name": "users",
          "type": "address[]"
        },
        {
          "internalType": "uint256",
          "name": "unit",
          "type": "uint256"
        },
        {
          "internalType": "uint8",
          "name": "maxQuorum",
          "type": "uint8"
        },
        {
          "internalType": "uint16",
          "name": "durationInHours",
          "type": "uint16"
        },
        {
          "internalType": "uint24",
          "name": "colCoverage",
          "type": "uint24"
        },
        {
          "internalType": "bool",
          "name": "isPermissionless",
          "type": "bool"
        },
        {
          "internalType": "contract IERC20",
          "name": "colAsset",
          "type": "address"
        }
      ],
      "name": "createPool",
      "outputs": [
        {
          "internalType": "bool",
          "name": "",
          "type": "bool"
        }
      ],
      "stateMutability": "nonpayable",
      "type": "function"
    },
    {
      "inputs": [],
      "name": "deactivateReward",
      "outputs": [
        {
          "internalType": "bool",
          "name": "",
          "type": "bool"
        }
      ],
      "stateMutability": "nonpayable",
      "type": "function"
    },
    {
      "inputs": [],
      "name": "diaOracleAddress",
      "outputs": [
        {
          "internalType": "address",
          "name": "",
          "type": "address"
        }
      ],
      "stateMutability": "view",
      "type": "function"
    },
    {
      "inputs": [
        {
          "internalType": "uint256",
          "name": "unit",
          "type": "uint256"
        },
        {
          "internalType": "uint8",
          "name": "maxQuorum",
          "type": "uint8"
        },
        {
          "internalType": "uint16",
          "name": "durationInHours",
          "type": "uint16"
        },
        {
          "internalType": "uint24",
          "name": "colCoverage",
          "type": "uint24"
        }
      ],
      "name": "editPool",
      "outputs": [
        {
          "internalType": "bool",
          "name": "",
          "type": "bool"
        }
      ],
      "stateMutability": "nonpayable",
      "type": "function"
    },
    {
      "inputs": [
        {
          "internalType": "uint256",
          "name": "unit",
          "type": "uint256"
        }
      ],
      "name": "enquireLiquidation",
      "outputs": [
        {
          "components": [
            {
              "internalType": "uint32",
              "name": "paybackTime",
              "type": "uint32"
            },
            {
              "internalType": "uint32",
              "name": "turnStartTime",
              "type": "uint32"
            },
            {
              "internalType": "uint32",
              "name": "getFinanceTime",
              "type": "uint32"
            },
            {
              "internalType": "uint256",
              "name": "loan",
              "type": "uint256"
            },
            {
              "internalType": "uint256",
              "name": "colBals",
              "type": "uint256"
            },
            {
              "internalType": "address",
              "name": "id",
              "type": "address"
            },
            {
              "internalType": "bool",
              "name": "sentQuota",
              "type": "bool"
            }
          ],
          "internalType": "struct Common.Contributor",
          "name": "profile",
          "type": "tuple"
        },
        {
          "internalType": "bool",
          "name": "defaulter",
          "type": "bool"
        },
        {
          "components": [
            {
              "internalType": "uint256",
              "name": "value",
              "type": "uint256"
            },
            {
              "internalType": "bool",
              "name": "isMember",
              "type": "bool"
            },
            {
              "internalType": "bool",
              "name": "isAdmin",
              "type": "bool"
            }
          ],
          "internalType": "struct Common.Slot",
          "name": "slot",
          "type": "tuple"
        }
      ],
      "stateMutability": "view",
      "type": "function"
    },
    {
      "inputs": [],
      "name": "feeTo",
      "outputs": [
        {
          "internalType": "address",
          "name": "",
          "type": "address"
        }
      ],
      "stateMutability": "view",
      "type": "function"
    },
    {
      "inputs": [
        {
          "internalType": "uint256",
          "name": "unit",
          "type": "uint256"
        }
      ],
      "name": "getCollateralQuote",
      "outputs": [
        {
          "internalType": "uint256",
          "name": "collateral",
          "type": "uint256"
        },
        {
          "internalType": "uint24",
          "name": "colCoverage",
          "type": "uint24"
        }
      ],
      "stateMutability": "view",
      "type": "function"
    },
    {
      "inputs": [
        {
          "internalType": "address",
          "name": "target",
          "type": "address"
        },
        {
          "internalType": "uint96",
          "name": "recordId",
          "type": "uint96"
        }
      ],
      "name": "getContributorProviders",
      "outputs": [
        {
          "components": [
            {
              "internalType": "uint256",
              "name": "slot",
              "type": "uint256"
            },
            {
              "internalType": "uint256",
              "name": "amount",
              "type": "uint256"
            },
            {
              "internalType": "uint256",
              "name": "rate",
              "type": "uint256"
            },
            {
              "internalType": "uint256",
              "name": "earnStartDate",
              "type": "uint256"
            },
            {
              "internalType": "address",
              "name": "account",
              "type": "address"
            },
            {
              "components": [
                {
                  "internalType": "uint256",
                  "name": "fullInterest",
                  "type": "uint256"
                },
                {
                  "internalType": "uint256",
                  "name": "intPerSec",
                  "type": "uint256"
                }
              ],
              "internalType": "struct Common.Interest",
              "name": "accruals",
              "type": "tuple"
            }
          ],
          "internalType": "struct Common.Provider[]",
          "name": "result",
          "type": "tuple[]"
        }
      ],
      "stateMutability": "view",
      "type": "function"
    },
    {
      "inputs": [
        {
          "internalType": "uint256",
          "name": "unit",
          "type": "uint256"
        }
      ],
      "name": "getCurrentDebt",
      "outputs": [
        {
          "internalType": "uint256",
          "name": "debt",
          "type": "uint256"
        }
      ],
      "stateMutability": "view",
      "type": "function"
    },
    {
      "inputs": [],
      "name": "getFactoryData",
      "outputs": [
        {
          "components": [
            {
              "components": [
                {
                  "internalType": "uint256",
                  "name": "tvlCollateral",
                  "type": "uint256"
                },
                {
                  "internalType": "uint256",
                  "name": "tvlBase",
                  "type": "uint256"
                },
                {
                  "internalType": "uint256",
                  "name": "totalPermissioned",
                  "type": "uint256"
                },
                {
                  "internalType": "uint256",
                  "name": "totalPermissionless",
                  "type": "uint256"
                }
              ],
              "internalType": "struct Common.Analytics",
              "name": "analytics",
              "type": "tuple"
            },
            {
              "internalType": "uint16",
              "name": "makerRate",
              "type": "uint16"
            },
            {
              "internalType": "uint256",
              "name": "currentEpoches",
              "type": "uint256"
            },
            {
              "internalType": "uint256",
              "name": "recordEpoches",
              "type": "uint256"
            }
          ],
          "internalType": "struct Common.ViewFactoryData",
          "name": "data",
          "type": "tuple"
        }
      ],
      "stateMutability": "view",
      "type": "function"
    },
    {
      "inputs": [
        {
          "internalType": "uint256",
          "name": "unit",
          "type": "uint256"
        }
      ],
      "name": "getFinance",
      "outputs": [
        {
          "internalType": "bool",
          "name": "",
          "type": "bool"
        }
      ],
      "stateMutability": "nonpayable",
      "type": "function"
    },
    {
      "inputs": [
        {
          "internalType": "uint96",
          "name": "unitId",
          "type": "uint96"
        }
      ],
      "name": "getPoolData",
      "outputs": [
        {
          "components": [
            {
              "components": [
                {
                  "components": [
                    {
                      "internalType": "uint8",
                      "name": "maxQuorum",
                      "type": "uint8"
                    },
                    {
                      "internalType": "uint8",
                      "name": "selector",
                      "type": "uint8"
                    },
                    {
                      "internalType": "uint24",
                      "name": "colCoverage",
                      "type": "uint24"
                    },
                    {
                      "internalType": "uint32",
                      "name": "duration",
                      "type": "uint32"
                    },
                    {
                      "internalType": "uint8",
                      "name": "allGh",
                      "type": "uint8"
                    },
                    {
                      "internalType": "uint8",
                      "name": "userCount",
                      "type": "uint8"
                    }
                  ],
                  "internalType": "struct Common.Low",
                  "name": "low",
                  "type": "tuple"
                },
                {
                  "components": [
                    {
                      "internalType": "uint256",
                      "name": "unit",
                      "type": "uint256"
                    },
                    {
                      "internalType": "uint256",
                      "name": "currentPool",
                      "type": "uint256"
                    },
                    {
                      "internalType": "uint96",
                      "name": "recordId",
                      "type": "uint96"
                    },
                    {
                      "internalType": "uint96",
                      "name": "unitId",
                      "type": "uint96"
                    }
                  ],
                  "internalType": "struct Common.Big",
                  "name": "big",
                  "type": "tuple"
                },
                {
                  "components": [
                    {
                      "internalType": "contract IERC20",
                      "name": "colAsset",
                      "type": "address"
                    },
                    {
                      "internalType": "address",
                      "name": "lastPaid",
                      "type": "address"
                    },
                    {
                      "internalType": "address",
                      "name": "safe",
                      "type": "address"
                    },
                    {
                      "internalType": "address",
                      "name": "admin",
                      "type": "address"
                    }
                  ],
                  "internalType": "struct Common.Addresses",
                  "name": "addrs",
                  "type": "tuple"
                },
                {
                  "internalType": "enum Common.Router",
                  "name": "router",
                  "type": "uint8"
                },
                {
                  "internalType": "enum Common.Stage",
                  "name": "stage",
                  "type": "uint8"
                },
                {
                  "internalType": "enum Common.Status",
                  "name": "status",
                  "type": "uint8"
                }
              ],
              "internalType": "struct Common.Pool",
              "name": "pool",
              "type": "tuple"
            },
            {
              "components": [
                {
                  "components": [
                    {
                      "internalType": "uint32",
                      "name": "paybackTime",
                      "type": "uint32"
                    },
                    {
                      "internalType": "uint32",
                      "name": "turnStartTime",
                      "type": "uint32"
                    },
                    {
                      "internalType": "uint32",
                      "name": "getFinanceTime",
                      "type": "uint32"
                    },
                    {
                      "internalType": "uint256",
                      "name": "loan",
                      "type": "uint256"
                    },
                    {
                      "internalType": "uint256",
                      "name": "colBals",
                      "type": "uint256"
                    },
                    {
                      "internalType": "address",
                      "name": "id",
                      "type": "address"
                    },
                    {
                      "internalType": "bool",
                      "name": "sentQuota",
                      "type": "bool"
                    }
                  ],
                  "internalType": "struct Common.Contributor",
                  "name": "profile",
                  "type": "tuple"
                },
                {
                  "components": [
                    {
                      "internalType": "uint256",
                      "name": "value",
                      "type": "uint256"
                    },
                    {
                      "internalType": "bool",
                      "name": "isMember",
                      "type": "bool"
                    },
                    {
                      "internalType": "bool",
                      "name": "isAdmin",
                      "type": "bool"
                    }
                  ],
                  "internalType": "struct Common.Slot",
                  "name": "slot",
                  "type": "tuple"
                },
                {
                  "components": [
                    {
                      "internalType": "uint256",
                      "name": "slot",
                      "type": "uint256"
                    },
                    {
                      "internalType": "uint256",
                      "name": "amount",
                      "type": "uint256"
                    },
                    {
                      "internalType": "uint256",
                      "name": "rate",
                      "type": "uint256"
                    },
                    {
                      "internalType": "uint256",
                      "name": "earnStartDate",
                      "type": "uint256"
                    },
                    {
                      "internalType": "address",
                      "name": "account",
                      "type": "address"
                    },
                    {
                      "components": [
                        {
                          "internalType": "uint256",
                          "name": "fullInterest",
                          "type": "uint256"
                        },
                        {
                          "internalType": "uint256",
                          "name": "intPerSec",
                          "type": "uint256"
                        }
                      ],
                      "internalType": "struct Common.Interest",
                      "name": "accruals",
                      "type": "tuple"
                    }
                  ],
                  "internalType": "struct Common.Provider[]",
                  "name": "providers",
                  "type": "tuple[]"
                }
              ],
              "internalType": "struct Common.ContributorReturnValue[]",
              "name": "cData",
              "type": "tuple[]"
            }
          ],
          "internalType": "struct Common.ReadPoolDataReturnValue",
          "name": "result",
          "type": "tuple"
        }
      ],
      "stateMutability": "view",
      "type": "function"
    },
    {
      "inputs": [
        {
          "internalType": "uint96",
          "name": "recordId",
          "type": "uint96"
        }
      ],
      "name": "getPoolRecord",
      "outputs": [
        {
          "components": [
            {
              "components": [
                {
                  "components": [
                    {
                      "internalType": "uint8",
                      "name": "maxQuorum",
                      "type": "uint8"
                    },
                    {
                      "internalType": "uint8",
                      "name": "selector",
                      "type": "uint8"
                    },
                    {
                      "internalType": "uint24",
                      "name": "colCoverage",
                      "type": "uint24"
                    },
                    {
                      "internalType": "uint32",
                      "name": "duration",
                      "type": "uint32"
                    },
                    {
                      "internalType": "uint8",
                      "name": "allGh",
                      "type": "uint8"
                    },
                    {
                      "internalType": "uint8",
                      "name": "userCount",
                      "type": "uint8"
                    }
                  ],
                  "internalType": "struct Common.Low",
                  "name": "low",
                  "type": "tuple"
                },
                {
                  "components": [
                    {
                      "internalType": "uint256",
                      "name": "unit",
                      "type": "uint256"
                    },
                    {
                      "internalType": "uint256",
                      "name": "currentPool",
                      "type": "uint256"
                    },
                    {
                      "internalType": "uint96",
                      "name": "recordId",
                      "type": "uint96"
                    },
                    {
                      "internalType": "uint96",
                      "name": "unitId",
                      "type": "uint96"
                    }
                  ],
                  "internalType": "struct Common.Big",
                  "name": "big",
                  "type": "tuple"
                },
                {
                  "components": [
                    {
                      "internalType": "contract IERC20",
                      "name": "colAsset",
                      "type": "address"
                    },
                    {
                      "internalType": "address",
                      "name": "lastPaid",
                      "type": "address"
                    },
                    {
                      "internalType": "address",
                      "name": "safe",
                      "type": "address"
                    },
                    {
                      "internalType": "address",
                      "name": "admin",
                      "type": "address"
                    }
                  ],
                  "internalType": "struct Common.Addresses",
                  "name": "addrs",
                  "type": "tuple"
                },
                {
                  "internalType": "enum Common.Router",
                  "name": "router",
                  "type": "uint8"
                },
                {
                  "internalType": "enum Common.Stage",
                  "name": "stage",
                  "type": "uint8"
                },
                {
                  "internalType": "enum Common.Status",
                  "name": "status",
                  "type": "uint8"
                }
              ],
              "internalType": "struct Common.Pool",
              "name": "pool",
              "type": "tuple"
            },
            {
              "components": [
                {
                  "components": [
                    {
                      "internalType": "uint32",
                      "name": "paybackTime",
                      "type": "uint32"
                    },
                    {
                      "internalType": "uint32",
                      "name": "turnStartTime",
                      "type": "uint32"
                    },
                    {
                      "internalType": "uint32",
                      "name": "getFinanceTime",
                      "type": "uint32"
                    },
                    {
                      "internalType": "uint256",
                      "name": "loan",
                      "type": "uint256"
                    },
                    {
                      "internalType": "uint256",
                      "name": "colBals",
                      "type": "uint256"
                    },
                    {
                      "internalType": "address",
                      "name": "id",
                      "type": "address"
                    },
                    {
                      "internalType": "bool",
                      "name": "sentQuota",
                      "type": "bool"
                    }
                  ],
                  "internalType": "struct Common.Contributor",
                  "name": "profile",
                  "type": "tuple"
                },
                {
                  "components": [
                    {
                      "internalType": "uint256",
                      "name": "value",
                      "type": "uint256"
                    },
                    {
                      "internalType": "bool",
                      "name": "isMember",
                      "type": "bool"
                    },
                    {
                      "internalType": "bool",
                      "name": "isAdmin",
                      "type": "bool"
                    }
                  ],
                  "internalType": "struct Common.Slot",
                  "name": "slot",
                  "type": "tuple"
                },
                {
                  "components": [
                    {
                      "internalType": "uint256",
                      "name": "slot",
                      "type": "uint256"
                    },
                    {
                      "internalType": "uint256",
                      "name": "amount",
                      "type": "uint256"
                    },
                    {
                      "internalType": "uint256",
                      "name": "rate",
                      "type": "uint256"
                    },
                    {
                      "internalType": "uint256",
                      "name": "earnStartDate",
                      "type": "uint256"
                    },
                    {
                      "internalType": "address",
                      "name": "account",
                      "type": "address"
                    },
                    {
                      "components": [
                        {
                          "internalType": "uint256",
                          "name": "fullInterest",
                          "type": "uint256"
                        },
                        {
                          "internalType": "uint256",
                          "name": "intPerSec",
                          "type": "uint256"
                        }
                      ],
                      "internalType": "struct Common.Interest",
                      "name": "accruals",
                      "type": "tuple"
                    }
                  ],
                  "internalType": "struct Common.Provider[]",
                  "name": "providers",
                  "type": "tuple[]"
                }
              ],
              "internalType": "struct Common.ContributorReturnValue[]",
              "name": "cData",
              "type": "tuple[]"
            }
          ],
          "internalType": "struct Common.ReadPoolDataReturnValue",
          "name": "result",
          "type": "tuple"
        }
      ],
      "stateMutability": "view",
      "type": "function"
    },
    {
      "inputs": [
        {
          "internalType": "uint256",
          "name": "unit",
          "type": "uint256"
        },
        {
          "internalType": "address",
          "name": "target",
          "type": "address"
        }
      ],
      "name": "getProfile",
      "outputs": [
        {
          "components": [
            {
              "components": [
                {
                  "internalType": "uint32",
                  "name": "paybackTime",
                  "type": "uint32"
                },
                {
                  "internalType": "uint32",
                  "name": "turnStartTime",
                  "type": "uint32"
                },
                {
                  "internalType": "uint32",
                  "name": "getFinanceTime",
                  "type": "uint32"
                },
                {
                  "internalType": "uint256",
                  "name": "loan",
                  "type": "uint256"
                },
                {
                  "internalType": "uint256",
                  "name": "colBals",
                  "type": "uint256"
                },
                {
                  "internalType": "address",
                  "name": "id",
                  "type": "address"
                },
                {
                  "internalType": "bool",
                  "name": "sentQuota",
                  "type": "bool"
                }
              ],
              "internalType": "struct Common.Contributor",
              "name": "profile",
              "type": "tuple"
            },
            {
              "components": [
                {
                  "internalType": "uint256",
                  "name": "value",
                  "type": "uint256"
                },
                {
                  "internalType": "bool",
                  "name": "isMember",
                  "type": "bool"
                },
                {
                  "internalType": "bool",
                  "name": "isAdmin",
                  "type": "bool"
                }
              ],
              "internalType": "struct Common.Slot",
              "name": "slot",
              "type": "tuple"
            },
            {
              "components": [
                {
                  "internalType": "uint256",
                  "name": "slot",
                  "type": "uint256"
                },
                {
                  "internalType": "uint256",
                  "name": "amount",
                  "type": "uint256"
                },
                {
                  "internalType": "uint256",
                  "name": "rate",
                  "type": "uint256"
                },
                {
                  "internalType": "uint256",
                  "name": "earnStartDate",
                  "type": "uint256"
                },
                {
                  "internalType": "address",
                  "name": "account",
                  "type": "address"
                },
                {
                  "components": [
                    {
                      "internalType": "uint256",
                      "name": "fullInterest",
                      "type": "uint256"
                    },
                    {
                      "internalType": "uint256",
                      "name": "intPerSec",
                      "type": "uint256"
                    }
                  ],
                  "internalType": "struct Common.Interest",
                  "name": "accruals",
                  "type": "tuple"
                }
              ],
              "internalType": "struct Common.Provider[]",
              "name": "providers",
              "type": "tuple[]"
            }
          ],
          "internalType": "struct Common.ContributorReturnValue",
          "name": "",
          "type": "tuple"
        }
      ],
      "stateMutability": "view",
      "type": "function"
    },
    {
      "inputs": [
        {
          "internalType": "address",
          "name": "target",
          "type": "address"
        },
        {
          "internalType": "uint256",
          "name": "unit",
          "type": "uint256"
        }
      ],
      "name": "getSlot",
      "outputs": [
        {
          "components": [
            {
              "internalType": "uint256",
              "name": "value",
              "type": "uint256"
            },
            {
              "internalType": "bool",
              "name": "isMember",
              "type": "bool"
            },
            {
              "internalType": "bool",
              "name": "isAdmin",
              "type": "bool"
            }
          ],
          "internalType": "struct Common.Slot",
          "name": "",
          "type": "tuple"
        }
      ],
      "stateMutability": "view",
      "type": "function"
    },
    {
      "inputs": [
        {
          "internalType": "uint256",
          "name": "unit",
          "type": "uint256"
        }
      ],
      "name": "isPoolAvailable",
      "outputs": [
        {
          "internalType": "bool",
          "name": "",
          "type": "bool"
        }
      ],
      "stateMutability": "view",
      "type": "function"
    },
    {
      "inputs": [
        {
          "internalType": "uint256",
          "name": "unit",
          "type": "uint256"
        }
      ],
      "name": "liquidate",
      "outputs": [
        {
          "internalType": "bool",
          "name": "",
          "type": "bool"
        }
      ],
      "stateMutability": "nonpayable",
      "type": "function"
    },
    {
      "inputs": [],
      "name": "makerRate",
      "outputs": [
        {
          "internalType": "uint256",
          "name": "",
          "type": "uint256"
        }
      ],
      "stateMutability": "view",
      "type": "function"
    },
    {
      "inputs": [],
      "name": "pause",
      "outputs": [],
      "stateMutability": "nonpayable",
      "type": "function"
    },
    {
      "inputs": [],
      "name": "paused",
      "outputs": [
        {
          "internalType": "bool",
          "name": "",
          "type": "bool"
        }
      ],
      "stateMutability": "view",
      "type": "function"
    },
    {
      "inputs": [
        {
          "internalType": "uint256",
          "name": "unit",
          "type": "uint256"
        }
      ],
      "name": "payback",
      "outputs": [
        {
          "internalType": "bool",
          "name": "",
          "type": "bool"
        }
      ],
      "stateMutability": "nonpayable",
      "type": "function"
    },
    {
      "inputs": [],
      "name": "pointFactory",
      "outputs": [
        {
          "internalType": "contract IPoint",
          "name": "",
          "type": "address"
        }
      ],
      "stateMutability": "view",
      "type": "function"
    },
    {
      "inputs": [],
      "name": "roleManager",
      "outputs": [
        {
          "internalType": "contract IRoleBase",
          "name": "",
          "type": "address"
        }
      ],
      "stateMutability": "view",
      "type": "function"
    },
    {
      "inputs": [],
      "name": "safeFactory",
      "outputs": [
        {
          "internalType": "contract ISafeFactory",
          "name": "",
          "type": "address"
        }
      ],
      "stateMutability": "view",
      "type": "function"
    },
    {
      "inputs": [
        {
          "internalType": "address",
          "name": "_feeTo",
          "type": "address"
        },
        {
          "internalType": "uint16",
          "name": "_makerRate",
          "type": "uint16"
        }
      ],
      "name": "setFeeOrMakerRate",
      "outputs": [
        {
          "internalType": "bool",
          "name": "",
          "type": "bool"
        }
      ],
      "stateMutability": "nonpayable",
      "type": "function"
    },
    {
      "inputs": [
        {
          "internalType": "contract IERC20",
          "name": "collateralAsset",
          "type": "address"
        },
        {
          "internalType": "string",
          "name": "pair",
          "type": "string"
        }
      ],
      "name": "setPair",
      "outputs": [
        {
          "internalType": "bool",
          "name": "",
          "type": "bool"
        }
      ],
      "stateMutability": "nonpayable",
      "type": "function"
    },
    {
      "inputs": [
        {
          "internalType": "address",
          "name": "newManager",
          "type": "address"
        }
      ],
      "name": "setRoleManager",
      "outputs": [
        {
          "internalType": "bool",
          "name": "",
          "type": "bool"
        }
      ],
      "stateMutability": "nonpayable",
      "type": "function"
    },
    {
      "inputs": [],
      "name": "unpause",
      "outputs": [],
      "stateMutability": "nonpayable",
      "type": "function"
    }
  ],
  "transactionHash": "0x88cd1e4a3a2b9c21a5425b424974e370ba26d9849714c8c2ff6f091dcfe9b46b",
  "args": [
    "0xD7c271d20c9E323336bFC843AEb8deC23B346352",
    10,
    "0x0000000000000000000000000000000000000000",
    "0x79dF2FCc7DfDdc0C85Cc1f82B1f631b4b9D994B0",
    "0xa00E598D0c6c2Ab62E74B1282c9Efd9d2010F47A",
    "0x874069Fa1Eb16D44d622F2e0Ca25eeA172369bC1",
    "0x5aD28E7E90DAfB40468FCa3F19B4771e33C795B5",
    "0x52Efc8EDcceC2282e0B9bf68586e2Daad6021Be7"
  ],
  "numDeployments": 7,
  "solcInputHash": "7811d27111de705315b36a0620ad1986",
  "bytecode": "0x6101206040523480156200001257600080fd5b50604051620064c3380380620064c3833981016040819052620000359162000341565b600680546001600160a01b0319166001600160a01b038716179055878787878787878785848685858585858585858583828488888582828786848382848380826006805460ff60a01b19169055506001600160a01b0390811660805260a051811690851603620000de5760408051808201909152601581527f5f61737365744d616e61676572206973207a65726f00000000000000000000006020820152620000de90620002e1565b60c0516001600160a01b0316836001600160a01b031603620001395760408051808201909152601281527f5f626173654173736574206973207a65726f000000000000000000000000000060208201526200013990620002e1565b50506001600160a01b0391821660a052811660c05294851660e0525050509086169050620001a05760408051808201909152601581527f49506f696e74466163746f7279206973207a65726f00000000000000000000006020820152620001a090620002e1565b6001600960006101000a81548160ff021916908315150217905550846001600160a01b0316610100816001600160a01b031681525050505050505050505050505050505050505050600c60009054906101000a90046001600160a01b03166001600160a01b0316886001600160a01b031603620002565760408051808201909152600f81527f5f666565546f20697320656d707479000000000000000000000000000000000060208201526200025690620002e1565b61271061ffff88161115620002a45760408051808201909152601281527f496e76616c6964206d616b6572207261746500000000000000000000000000006020820152620002a490620002e1565b5050600c80546001600160a01b0319166001600160a01b03979097169690961790955550505061ffff16600d555062000459975050505050505050565b8051156200032857806040517fcc8610630000000000000000000000000000000000000000000000000000000081526004016200031f919062000408565b60405180910390fd5b50565b6001600160a01b03811681146200032857600080fd5b600080600080600080600080610100898b0312156200035f57600080fd5b88516200036c816200032b565b60208a015190985061ffff811681146200038557600080fd5b60408a015190975062000398816200032b565b60608a0151909650620003ab816200032b565b60808a0151909550620003be816200032b565b60a08a0151909450620003d1816200032b565b60c08a0151909350620003e4816200032b565b60e08a0151909250620003f7816200032b565b809150509295985092959890939650565b60006020808352835180602085015260005b8181101562000438578581018301518582016040015282016200041a565b506000604082860101526040601f19601f8301168501019250505092915050565b60805160a05160c05160e05161010051615fa062000523600039600081816104f2015281816123ad01526124430152600081816103b40152818161318e015281816147a001526147e701526000818161052c01528181610937015281816110e40152818161155201528181612e0e01528181612e8001528181612ee4015281816138a6015281816143ba01526148e5015260008181610426015281816115a801528181611fd6015281816138fc015261493b0152600081816102680152614f040152615fa06000f3fe608060405234801561001057600080fd5b506004361061021b5760003560e01c806380d5ac8a11610125578063c93c74e3116100ad578063e95b110d1161007c578063e95b110d14610581578063e962916814610589578063ed4c6cd81461059c578063f1d588c5146105bc578063f8e497dc146105cf57600080fd5b8063c93c74e314610514578063cdf456e114610527578063d9cc5ed01461054e578063e07098231461056e57600080fd5b80639d672294116100f45780639d672294146104485780639e6fbfd314610474578063a846c2fd146104c7578063c1cbbca7146104da578063c61778e9146104ed57600080fd5b806380d5ac8a146103d65780638456cb591461040c5780638b3c53cb1461041457806394217ad11461042157600080fd5b80633fd97927116101a857806358f0bd6d1161017757806358f0bd6d1461036457806359d2f32b146103775780635c975abb1461038a5780636d0406fd1461039c5780637d07db3c146103af57600080fd5b80633fd9792714610315578063415f124014610335578063435daefc14610348578063553c305a1461035157600080fd5b80631a055c1a116101ef5780631a055c1a146102ab57806321c05300146102cd5780632ef3946f146102e557806337de615f146102f85780633f4ba83a1461030b57600080fd5b8062435da514610220578063017e7e5814610250578063131e7e1c1461026357806313c8e60d1461028a575b600080fd5b600654610233906001600160a01b031681565b6040516001600160a01b0390911681526020015b60405180910390f35b600c54610233906001600160a01b031681565b6102337f000000000000000000000000000000000000000000000000000000000000000081565b61029d610298366004615231565b6105ef565b604051908152602001610247565b6102be6102b9366004615231565b610601565b604051610247939291906152a4565b6102d561063b565b6040519015158152602001610247565b6102d56102f3366004615397565b610695565b6102d5610306366004615231565b610768565b610313610a3a565b005b6103286103233660046154d4565b610a97565b60405161024791906155df565b6102d5610343366004615231565b610ab2565b61029d600d5481565b6102d561035f366004615231565b610beb565b6102d5610372366004615628565b610c13565b6102d5610385366004615675565b610db1565b600654600160a01b900460ff166102d5565b6102d56103aa366004615231565b610e32565b6102337f000000000000000000000000000000000000000000000000000000000000000081565b600e54600f546010546011546103ec9392919084565b604080519485526020850193909352918301526060820152608001610247565b610313611266565b6009546102d59060ff1681565b6102337f000000000000000000000000000000000000000000000000000000000000000081565b61045b610456366004615231565b6112b1565b6040805192835262ffffff909116602083015201610247565b61047c6112c6565b604080518251805182526020808201518184015281840151838501526060918201518284015284015161ffff1660808301529183015160a082015291015160c082015260e001610247565b6102d56104d5366004615231565b611332565b6102d56104e8366004615231565b6113a4565b6102337f000000000000000000000000000000000000000000000000000000000000000081565b6102d56105223660046156c3565b611439565b6102337f000000000000000000000000000000000000000000000000000000000000000081565b61056161055c3660046157a8565b61152c565b604051610247919061591a565b6102d561057c366004615998565b611545565b6102d56116e8565b6105616105973660046157a8565b61173f565b6105af6105aa366004615a40565b611753565b6040516102479190615a6c565b6102d56105ca366004615a91565b61177a565b6105e26105dd366004615aae565b6117a7565b6040516102479190615ada565b60006105fa826117b3565b5092915050565b610609614f91565b6040805160608101825260008082526020820181905291810182905261062e84611a21565b9250925092509193909250565b6000610645611ae9565b60095460ff1615610681576106816040518060400160405280601081526020016f5265776172642069732061637469766560801b815250611b68565b506009805460ff1916600190811790915590565b600061069f611ae9565b6106a7611b93565b6106af614fcd565b6106b883610beb565b610722576106c583611bc0565b90506106d2838583611be9565b90506106e681602001516060015182611d76565b7f03d06435b835aed8e31056998d82805968e80861808275303d222099b83e61e0816040516107159190615b23565b60405180910390a161072f565b61072c8484611f74565b90505b61074285858360200151604001516120d6565b61075b83600080600187866020015160200151146121b0565b60019150505b9392505050565b6000610772611b93565b8161077c8161231a565b6107b1576107b16040518060400160405280601081526020016f556e697420697320696e41637469766560801b815250611b68565b60006107bc84611bc0565b60408101516060015190915033906001600160a01b03168114610817576108176040518060400160405280601981526020017f4f6e6c792041646d696e2063616e20636c6f736520706f6f6c00000000000000815250611b68565b6000600183606001516002811115610831576108316157c3565b1490508015610889576001836000015160a0015160ff161115610884576108846040518060400160405280601581526020017410d85b98d95b1b185d1a5bdb88191a5cd8589b1959605a1b815250611b68565b6108d0565b602080840151805191015111156108d0576108d06040518060400160405280601581526020017410d85b98d95b1b185d1a5bdb88191a5cd8589b1959605a1b815250611b68565b6108df82600060056001612362565b600360808401526108ef836124ff565b60208301515161090590600060038460016121b0565b6040838101518101516020850151805190830151925163bb16369f60e01b81526001600160a01b0386811660048301527f00000000000000000000000000000000000000000000000000000000000000008116602483015260448201929092526001600160601b039093166064840152169063bb16369f906084016020604051808303816000875af115801561099f573d6000803e3d6000fd5b505050506040513d601f19601f820116820180604052508101906109c39190615b32565b6109f8576109f86040518060400160405280601081526020016f14d859994818d85b1b0819985a5b195960821b815250611b68565b6040518681527f79d50744e568d2dcbac1c613dc0f174be90b0121dbc73682de80b3c4ebc5d1e7906020015b60405180910390a1600194505050505b50919050565b610a42611ae9565b610a4a6127d8565b6006805460ff60a01b191690557f5db9ee0a495bf2e6ff9c91a7834c1ba4fdd244a5e8aa4e537bd38aeae4b073aa335b6040516001600160a01b03909116815260200160405180910390a1565b610a9f615074565b610aa98284612802565b90505b92915050565b6000610abc611b93565b6000806000610aca85611a21565b92509250925081610b0357610b036040518060400160405280600d81526020016c139bdd08191959985d5b1d1959609a1b815250611b68565b33610b0e81876128ee565b610b2f81610b1b88611bc0565b6020015160400151848760a001518a612934565b8360a001516001600160a01b0316816001600160a01b031603610b5457610b54615b4f565b610b5e8187612b05565b6000806000610b74898560018a60a00151612b59565b91945092509050610ba38282600260015b87606001516002811115610b9b57610b9b6157c3565b1460006121b0565b7f2f5bbba2897c0da2732c0b1eec00e0d12fe536c653a8575198092bed62561a7c83604051610bd29190615b23565b60405180910390a160019750505050505050505b919050565b600080610bf783611bc0565b60a001516001811115610c0c57610c0c6157c3565b1492915050565b600084610c1f8161231a565b610c5457610c546040518060400160405280601081526020016f556e697420697320696e41637469766560801b815250611b68565b610c5c611b93565b6000610c6787611bc0565b905060008160400151606001516001600160a01b0316610c843390565b6001600160a01b031614610cbe57610cbe6040518060400160405280600b81526020016a139bdd08105b1b1bddd95960aa1b815250611b68565b5080515161ffff610e108702169060ff908116908816118015610ce3575060ff878116105b15610cf157815160ff881690525b6102d08661ffff1611158015610d1a575081600001516060015163ffffffff168163ffffffff16115b15610d2f57815163ffffffff82166060909101525b81600001516040015162ffffff168562ffffff161115610d5857815162ffffff86166040909101525b610d6a82602001516060015183611d76565b7f136b0bab8d4b28df6bdf26f270fde904c2c696b6bf243dde423642fff1df24b382604051610d999190615b23565b60405180910390a16001935050505b50949350505050565b6000610dbb611ae9565b600c546001600160a01b03848116911614801590610de157506001600160a01b03831615155b15610e0257600c80546001600160a01b0319166001600160a01b0385161790555b60008261ffff16118015610e1b575061271061ffff8316105b15610e295761ffff8216600d555b50600192915050565b600081610e3e8161231a565b610e7357610e736040518060400160405280601081526020016f556e697420697320696e41637469766560801b815250611b68565b610e7b611b93565b610e87338460006130db565b6000610e9284613124565b5090506000610ea085611bc0565b90506000610eb6868360000151602001516131e1565b9050600182608001516004811115610ed057610ed06157c3565b14610f0657610f066040518060400160405280601081526020016f426f72726f77206e6f7420726561647960801b815250611b68565b8151805160809091015160ff918216911603610f4857610f486040518060400160405280600b81526020016a115c1bd8da08195b99195960aa1b815250611b68565b815151602080840151805191015160ff909216021115610f9757610f9760405180604001604052806014815260200173506f6f6c2066756e6420696e636f6d706c65746560601b815250611b68565b8060200151610e100163ffffffff16610fad4290565b63ffffffff161115610ff35760a08101516001600160a01b0316336001600160a01b031614610fee57610feb8633610fe5338a6132b3565b84613321565b90505b611046565b60a08101516001600160a01b0316336001600160a01b03161461104657611046604051806040016040528060158152602001745475726e54696d6520686173206e6f74207061737360581b815250611b68565b8151608001805160ff60019182011690915260a082015160408401516001600160a01b039091166020918201528084015101516110969185908086606001516002811115610b9b57610b9b6157c3565b6110b68260400151600001518260a00151846040015160400151866133bc565b50604080830151015160a08201516020808501510151600d546001600160a01b039093169263d4e8694492917f00000000000000000000000000000000000000000000000000000000000000009161110f9082906134c5565b602088015160409081015190516001600160e01b031960e088901b1681526001600160a01b03958616600482015294909316602485015260448401919091526064830152608482018790526001600160601b031660a482015260c4016020604051808303816000875af115801561118a573d6000803e3d6000fd5b505050506040513d601f19601f820116820180604052508101906111ae9190615b32565b6111e3576111e36040518060400160405280601081526020016f14d859994818d85b1b0819985a5b195960821b815250611b68565b6111ee8284836134d1565b80925081935050506112258183602001516040015161121d8560400151602001518660200151600001516132b3565b516000613755565b61123782602001516060015183611d76565b7fe34571ffc6f937a259747d53f9fab8d617fd8a80c8cc077638061beead4d3ff882604051610a249190615b23565b61126e611ae9565b611276611b93565b6006805460ff60a01b1916600160a01b1790557f62e78cea01bee320cd4e420270b5ea74000d11b0c9f74754ebdbfc544b05a258610a7a3390565b6000806112bd83613124565b91509150915091565b6112ce6150b5565b60408051608081018252600e548152600f546020808301919091526010549282019290925260115460608201528252600d5461ffff169082015261131061384d565b6001600160601b031660408201526000546001600160601b0316606082015290565b600061133c611b93565b6000808061134d8533600080612b59565b91945092509050611362828260026001610b85565b7f2f5bbba2897c0da2732c0b1eec00e0d12fe536c653a8575198092bed62561a7c836040516113919190615b23565b60405180910390a1506001949350505050565b60006113ae611b93565b60006113b983611bc0565b90506113c6833383611be9565b90506113da81602001516060015182611d76565b6113f983600080600185606001516002811115610b9b57610b9b6157c3565b7f03d06435b835aed8e31056998d82805968e80861808275303d222099b83e61e0816040516114289190615b23565b60405180910390a150600192915050565b6000611443611b93565b600061149e8a8a80806020026020016040519081016040528093929190818152602001838360200280828437600092019190915250611485925061235e915050565b8a8a8a8a8a611495576002611498565b60015b8a61385d565b90506114d68a8a60008181106114b6576114b6615b65565b90506020020160208101906114cb9190615a91565b600060056000612362565b6114e5886000808760016121b0565b7fb161ed253087c33a1ed470e454d38c38a1b3cf735f6387e8755f5c85ec1496c1816040516115149190615b23565b60405180910390a15060019998505050505050505050565b61153461510a565b610aac61154083613c39565b613df3565b600061154f611ae9565b827f00000000000000000000000000000000000000000000000000000000000000006001600160a01b0316816001600160a01b03161461164957604051634df48c7360e11b81526001600160a01b0382811660048301527f00000000000000000000000000000000000000000000000000000000000000001690639be918e690602401602060405180830381865afa1580156115ef573d6000803e3d6000fd5b505050506040513d601f19601f820116820180604052508101906116139190615b32565b6116495761164960405180604001604052806011815260200170155b9cdd5c1c1bdc9d195908105cdcd95d607a1b815250611b68565b825160000361167f5761167f6040518060400160405280600c81526020016b24b73b30b634b2103830b4b960a11b815250611b68565b6001600160a01b0384166116bb576116bb6040518060400160405280600d81526020016c4173736574206973207a65726f60981b815250611b68565b6001600160a01b03841660009081526008602052604090206116dd8482615bf7565b506001949350505050565b60006116f2611ae9565b60095460ff1661172f5761172f6040518060400160405280601281526020017152657761726420697320696e41637469766560701b815250611b68565b506009805460ff19169055600190565b61174761510a565b610aac61154083613fb4565b6040805160608101825260008082526020820181905291810191909152610aa983836132b3565b6000611784611ae9565b600680546001600160a01b0319166001600160a01b038416179055506001919050565b6060610aa983836140e5565b60006117bd614fcd565b6117c683611bc0565b6040810151602001519091506001600160a01b03166117e7576117e7615b4f565b6020808201516040908101516001600160601b03166000908152600a835281812080548351818602810186019094528084529193909190849084015b828210156118b85760008481526020908190206040805160e08101825260048602909201805463ffffffff8082168552600160201b8204811685870152600160401b90910416918301919091526001808201546060840152600282015460808401526003909101546001600160a01b03811660a0840152600160a01b900460ff16151560c08301529083529092019101611823565b505050509050600081511115611a1b5760005b8151811015611a195760006118fd8383815181106118eb576118eb615b65565b602002602001015160a0015187612802565b90508360400151602001516001600160a01b0316816000015160a001516001600160a01b03160361193b578051606001516119389086615ccd565b94505b60408101515115611a105760005b816040015151811015611a0e5760008260400151828151811061196e5761196e615b65565b6020026020010151905080606001516119844290565b63ffffffff161115611a05578560400151602001516001600160a01b0316836000015160a001516001600160a01b0316036119d95760608101514263ffffffff16038160a00151602001510287019650611a05565b60608101514263ffffffff160360028260a0015160200151816119fe576119fe615ce0565b0402870196505b50600101611949565b505b506001016118cb565b505b50915091565b611a29614f91565b604080516060810182526000808252602082018190529181018290526000611a5085611bc0565b6040810151602001519091506001600160a01b0316611a7157611a71615b4f565b6000611a8582604001516020015187612802565b80515190915063ffffffff164263ffffffff161115611ae057806000015160a001516001600160a01b03168260400151602001516001600160a01b031614611acf57611acf615b4f565b805160208201519095506001945092505b50509193909250565b6006546001600160a01b031680611b2a57611b2a6040518060400160405280600f81526020016e4d616e61676572206973207a65726f60881b815250611b68565b611b33336141c0565b611b6557611b656040518060400160405280600d81526020016c1058d8d95cdcc819195b9a5959609a1b815250611b68565b50565b805115611b65578060405163cc86106360e01b8152600401611b8a9190615cf6565b60405180910390fd5b600654600160a01b900460ff1615611bbe5760405163d93c066560e01b815260040160405180910390fd5b565b611bc8614fcd565b600082815260046020526040902054610aac906001600160601b0316613c39565b611bf1614fcd565b83611bfb8161231a565b611c3057611c306040518060400160405280601081526020016f556e697420697320696e41637469766560801b815250611b68565b600083608001516004811115611c4857611c486157c3565b14611c7b57611c7b6040518060400160405280600d81526020016c496e76616c696420737461676560981b815250611b68565b611c83615074565b6020848101518051910180519091019052835160a001805160010160ff169052600284606001516002811115611cbb57611cbb6157c3565b03611ce757611ccc858760006130db565b611cd68587612802565b8051600160c0909101529050611d04565b611cf185876128ee565b611d01848787600060018061422f565b90505b611d2581600001518560200151604001518360200151600001516000613755565b611d4784600286606001516002811115611d4157611d416157c3565b146142c3565b15611d6057611d58600087426142fb565b600160808501525b839250611d6d85856143b5565b50509392505050565b6001600160601b038083166000908152600360208181526040928390208551805182548285015183880151606080860151608087015160a09097015160ff908116600160501b0260ff60501b19988216600160481b029890981661ffff60481b1963ffffffff909316600160281b0268ffffffff00000000001962ffffff90961662010000029590951668ffffffffffffff0000199683166101000261ffff19909816929098169190911795909517939093169490941717161791909117825582870151805160018085019190915581850151600280860191909155828801519685018054938501518a16600160601b026001600160c01b03199094169790991696909617919091179096558487015180516004840180546001600160a01b039283166001600160a01b03199182161790915594820151600585018054918316918716919091179055958101516006840180549188169186169190911790558101516007830180549190961693169290921790935584015160088301805486959293919260ff1991909116918490811115611f1357611f136157c3565b0217905550608082015160088201805461ff001916610100836004811115611f3d57611f3d6157c3565b021790555060a082015160088201805462ff0000191662010000836001811115611f6957611f696157c3565b021790555050505050565b611f7c614fcd565b604080516001808252818301909252600091602080830190803683370190505090508381600081518110611fb257611fb2615b65565b60200260200101906001600160a01b031690816001600160a01b03168152505060007f00000000000000000000000000000000000000000000000000000000000000006001600160a01b031663739c13db6040518163ffffffff1660e01b8152600401602060405180830381865afa158015612032573d6000803e3d6000fd5b505050506040513d601f19601f820116820180604052508101906120569190615d45565b905061206c82868660026048607860018861385d565b92506120978260008151811061208457612084615b65565b6020026020010151600060056000612362565b7fb161ed253087c33a1ed470e454d38c38a1b3cf735f6387e8755f5c85ec1496c1836040516120c69190615b23565b60405180910390a1505092915050565b60005b83518110156121aa576001600160601b0382166000908152600b602090815260408083206001600160a01b03871684529091529020845185908390811061212257612122615b65565b60209081029190910181015182546001808201855560009485529383902082516007909202019081558183015181850155604082015160028201556060820151600382015560808201516004820180546001600160a01b0319166001600160a01b0390921691909117905560a0909101518051600583015590910151600690910155016120d9565b50505050565b60408051608081018252600e548152600f54602082015260105491810191909152601154606082015260008460048111156121ed576121ed6157c3565b0361222e5760208101805187019052811561222957826122195760408101805160010190819052612227565b606081018051600101908190525b505b6122f7565b6001846004811115612242576122426157c3565b03612269578581602001511061225e5760208101805187900390525b8051850181526122f7565b600284600481111561227d5761227d6157c3565b036122a1578051851161229257805185900381525b602081018051870190526122f7565b81156122e05782156122c9576060810151156122c4576060810180516000190190525b6122e0565b6040810151156122e0576040810180516000190190525b858160200151106122f75760208101805187900390525b8051600e556020810151600f556040810151601055606001516011555050505050565b6000818152600460209081526040808320546001600160601b03168352600390915281206008015460019062010000900460ff1681811115610c0c57610c0c6157c3565b3390565b6040805160808101825260ff80861682528416602082015260009181018290526001600160a01b03861660608201528261242c57604051639c04622360e01b81526001600160a01b037f00000000000000000000000000000000000000000000000000000000000000001690639c046223906123e49089908590600401615d62565b6020604051808303816000875af1158015612403573d6000803e3d6000fd5b505050506040513d601f19601f820116820180604052508101906124279190615b32565b6124bd565b604051630c03b9c960e21b81526001600160a01b037f0000000000000000000000000000000000000000000000000000000000000000169063300ee7249061247a9089908590600401615d62565b6020604051808303816000875af1158015612499573d6000803e3d6000fd5b505050506040513d601f19601f820116820180604052508101906124bd9190615b32565b9150816124f7576124f760405180604001604052806012815260200171141bda5b9d08185dd85c990819985a5b195960721b815250611b68565b505050505050565b60008080526003602090815260408051610180810182527f3617319a054d772f909f7c479a2cebe5066e836a939412e32403c99029b92eff805460ff80821660c08501908152610100808404831660e087015262ffffff620100008504169086015263ffffffff600160281b840416610120860152600160481b83048216610140860152600160501b90920481166101608501529083528351608080820186527f3617319a054d772f909f7c479a2cebe5066e836a939412e32403c99029b92f005482527f3617319a054d772f909f7c479a2cebe5066e836a939412e32403c99029b92f0154828801527f3617319a054d772f909f7c479a2cebe5066e836a939412e32403c99029b92f02546001600160601b0381811684890152600160601b9091041660608084019190915285880192909252855190810186527f3617319a054d772f909f7c479a2cebe5066e836a939412e32403c99029b92f03546001600160a01b0390811682527f3617319a054d772f909f7c479a2cebe5066e836a939412e32403c99029b92f04548116978201979097527f3617319a054d772f909f7c479a2cebe5066e836a939412e32403c99029b92f05548716818701527f3617319a054d772f909f7c479a2cebe5066e836a939412e32403c99029b92f065490961686820152938301949094527f3617319a054d772f909f7c479a2cebe5066e836a939412e32403c99029b92f075491939092840191166002811115612727576127276157c3565b6002811115612738576127386157c3565b81526020016008820160019054906101000a900460ff166004811115612760576127606157c3565b6004811115612771576127716157c3565b81526020016008820160029054906101000a900460ff166001811115612799576127996157c3565b60018111156127aa576127aa6157c3565b8152505090506127c282602001516060015182611d76565b6127d4826020015160400151836144b2565b5050565b600654600160a01b900460ff16611bbe57604051638dfc202b60e01b815260040160405180910390fd5b61280a615074565b600061281583614649565b905061282184846132b3565b60208084019182526001600160601b0383166000908152600a909152604090209051518154811061285457612854615b65565b60009182526020918290206040805160e0810182526004909302909101805463ffffffff8082168552600160201b8204811695850195909552600160401b90049093169082015260018201546060820152600282015460808201526003909101546001600160a01b03811660a083015260ff600160a01b90910416151560c082015282526128e284826140e5565b60408301525092915050565b6128f882826132b3565b60200151156127d4576127d46040518060400160405280601281526020017113595b58995c881b9bdd08185b1b1bddd95960721b815250611b68565b6001600160601b0384166000908152600b602090815260408083206001600160a01b0386168452825280832080548251818502810185019093528083529192909190849084015b82821015612a015760008481526020908190206040805160c0810182526007860290920180548352600180820154848601526002820154848401526003820154606085015260048201546001600160a01b031660808501528251808401909352600582015483526006909101548285015260a0830191909152908352909201910161297b565b505050509050600081511115612a88576001600160601b0385166000908152600b602090815260408083206001600160a01b038781168552925280832091891683529091208154612a52929061511d565b506001600160601b0385166000908152600b602090815260408083206001600160a01b03871684529091528120612a88916151cb565b6001600160601b0385166000908152600a6020526040902084518154889291908110612ab657612ab6615b65565b906000526020600020906004020160030160006101000a8154816001600160a01b0302191690836001600160a01b03160217905550612af88683866000614662565b6124f78383866001614662565b8160036000612b1384611bc0565b602090810151606001516001600160601b0316825281019190915260400160002060050180546001600160a01b0319166001600160a01b03929092169190911790555050565b612b61614fcd565b60008086612b6e8161231a565b612ba357612ba36040518060400160405280601081526020016f556e697420697320696e41637469766560801b815250611b68565b612bac886117b3565b945092506000839003612be757612be76040518060400160405280600d81526020016c139bc81919589d08199bdd5b99609a1b815250611b68565b6000612bfb8560400151602001518a6132b3565b516020808701516040908101516001600160601b03166000908152600a90925281208054929350909183908110612c3457612c34615b65565b9060005260206000209060040201600101819055506000600a60008760200151604001516001600160601b03166001600160601b031681526020019081526020016000208281548110612c8957612c89615b65565b6000918252602090912060026004909202010155426020808701516040908101516001600160601b03166000908152600a9092529020805483908110612cd157612cd1615b65565b60009182526020909120600490910201805463ffffffff191663ffffffff9290921691909117905560095460ff1615612d1a57612d1a8560400151602001516002600080612362565b84516080810151905160ff918216911603612d445760046080860152612d3f856124ff565b612de4565b426020808701516040908101516001600160601b03166000908152600a835220875190910151815460ff909116908110612d8057612d80615b65565b6000918252602091829020600490910201805467ffffffff000000001916600160201b63ffffffff949094169390930292909217909155600160808701528551518682018051805160ff90931690920291909201525160600151612de49086611d76565b60408581015181015190516370a0823160e01b81526001600160a01b0391821660048201526000917f000000000000000000000000000000000000000000000000000000000000000016906370a0823190602401602060405180830381865afa158015612e55573d6000803e3d6000fd5b505050506040513d601f19601f82011682018060405250810190612e799190615da4565b9050612eaf7f00000000000000000000000000000000000000000000000000000000000000008a886040015160400151886133bc565b508560400151604001516001600160a01b031663397c39bd6040518061014001604052808c6001600160a01b031681526020017f00000000000000000000000000000000000000000000000000000000000000006001600160a01b0316815260200188815260200184815260200189600001516080015160ff168a600001516000015160ff161415158152602001600a60008b60200151604001516001600160601b03166001600160601b03168152602001908152602001600020805480602002602001604051908101604052809291908181526020016000905b8282101561301f5760008481526020908190206040805160e08101825260048602909201805463ffffffff8082168552600160201b8204811685870152600160401b90910416918301919091526001808201546060840152600282015460808401526003909101546001600160a01b03811660a0840152600160a01b900460ff16151560c08301529083529092019101612f8a565b5050505081526020018b151581526020018a6001600160a01b031681526020018960200151604001516001600160601b031681526020018960400151600001516001600160a01b03168152508c6040518363ffffffff1660e01b8152600401613089929190615e03565b6020604051808303816000875af11580156130a8573d6000803e3d6000fd5b505050506040513d601f19601f820116820180604052508101906130cc9190615da4565b93505050509450945094915050565b8061311f576130ea83836132b3565b6020015161311f5761311f6040518060400160405280600c81526020016b2737ba10309036b2b6b132b960a11b815250611b68565b505050565b600080600061313284611bc0565b60208101515190915015611a1b576131d181600001516040015182600001516000015160ff1683602001516000015102604051806040016040528061317e8660400151600001516146ed565b6001600160801b031681526020017f00000000000000000000000000000000000000000000000000000000000000006001600160a01b0316156131c25760086131c5565b60125b60ff1690529190614876565b9051604001519094909350915050565b6131e9614f91565b600a60006131f685614649565b6001600160601b03166001600160601b031681526020019081526020016000208260ff168154811061322a5761322a615b65565b60009182526020918290206040805160e0810182526004909302909101805463ffffffff8082168552600160201b8204811695850195909552600160401b90049093169082015260018201546060820152600282015460808201526003909101546001600160a01b03811660a083015260ff600160a01b90910416151560c08201529392505050565b6040805160608082018352600080835260208084018290529284018190526001600160a01b03959095168552600582528285209385529281529281902081519283018252805483526001015460ff808216151594840194909452610100900490921615159181019190915290565b613329614f91565b613335848660006130db565b600061334086614649565b9050600061334e86886132b3565b905061335a8688612802565b51925061336a8688876000614662565b61337b8460a0015188836000614662565b6001600160a01b03861660a080860182905284015284516133a190859084906000613755565b6133b2838383600001516000613755565b5050949350505050565b6000806001600160a01b03851633146133d557336133d7565b845b90506133e48682856148e0565b91506001600160a01b0386161580159061340657506001600160a01b03841615155b61341257613412615b4f565b8115610da8576040516323b872dd60e01b81526001600160a01b0382811660048301528581166024830152604482018490528716906323b872dd906064016020604051808303816000875af115801561346f573d6000803e3d6000fd5b505050506040513d601f19601f820116820180604052508101906134939190615b32565b610da857610da86040518060400160405280600d81526020016c151c9e11995c8819985a5b1959609a1b815250611b68565b6000610aa98383614ac1565b6134d9614fcd565b6134e1614f91565b84516020018051906134f282615ee4565b60ff16905250845160600151420163ffffffff16835260808301849052602085810180518201516060860152516040908101516001600160601b03166000908152600b8352818120828901518401516001600160a01b03168252835281812080548351818602810186019094528084529193909190849084015b828210156135f25760008481526020908190206040805160c0810182526007860290920180548352600180820154848601526002820154848401526003820154606085015260048201546001600160a01b031660808501528251808401909352600582015483526006909101548285015260a0830191909152908352909201910161356c565b50505050905060005b8151811015613739576020878101516040908101516001600160601b03166000908152600b8352818120828b01518401516001600160a01b031682529092529020805463ffffffff421691908390811061365757613657615b65565b9060005260206000209060070201600301819055506136c382828151811061368157613681615b65565b6020026020010151604001518860000151606001518484815181106136a8576136a8615b65565b602002602001015160200151614b6f9092919063ffffffff16565b6020808901516040908101516001600160601b03166000908152600b8352818120828c01518401516001600160a01b03168252909252902080548390811061370d5761370d615b65565b6000918252602091829020835160056007909302909101918201559101516006909101556001016135fb565b5050505060208381015160009101526002608084015291929050565b61375d614f91565b81613768578461376a565b805b6001600160601b0385166000908152600a60205260409020805460ff861690811061379757613797615b65565b60009182526020918290208351600490920201805492840151604085015163ffffffff908116600160401b026bffffffff000000000000000019928216600160201b0267ffffffffffffffff1990961691909416179390931792909216178155606082015160018201556080820151600282015560a08201516003909101805460c0909301511515600160a01b026001600160a81b03199093166001600160a01b03909216919091179190911790555050505050565b600061385860025490565b905090565b613865614fcd565b8661386f8161231a565b156138a3576138a36040518060400160405280600e81526020016d556e69742069732061637469766560901b815250611b68565b827f00000000000000000000000000000000000000000000000000000000000000006001600160a01b0316816001600160a01b03161461399d57604051634df48c7360e11b81526001600160a01b0382811660048301527f00000000000000000000000000000000000000000000000000000000000000001690639be918e690602401602060405180830381865afa158015613943573d6000803e3d6000fd5b505050506040513d601f19601f820116820180604052508101906139679190615b32565b61399d5761399d60405180604001604052806011815260200170155b9cdd5c1c1bdc9d195908105cdcd95d607a1b815250611b68565b61ffff871615806139b357506102d08761ffff16115b156139e9576139e96040518060400160405280601081526020016f24b73b30b634b210323ab930ba34b7b760811b815250611b68565b60018560028111156139fd576139fd6157c3565b03613a8c5760018b511180613a1157508a51155b15613a4c57613a4c60405180604001604052806015815260200174115e1c1958dd080c481a5d195b481a5b881b1a5cdd605a1b815250611b68565b896001600160a01b03168b600081518110613a6957613a69615b65565b60200260200101516001600160a01b031614613a8757613a87615b4f565b613b3a565b60028b511015613ad457613ad46040518060400160405280601881526020017f4c69737420746f6f206c6f7720666f7220726f75746572320000000000000000815250611b68565b8a600081518110613ae757613ae7615b65565b60200260200101516001600160a01b03168a6001600160a01b031614613b3a57613b3a6040518060400160405280601281526020017114d95b99195c881b9bdd081a5b881b1a5cdd60721b815250611b68565b600080613b468b614bd2565b91509150613bec6040518061012001604052808d8152602001846001600160601b03168152602001836001600160601b031681526020018c60ff1681526020018a62ffffff168152602001886001600160a01b031681526020018b61ffff1681526020018f600081518110613bbd57613bbd615b65565b60200260200101516001600160a01b03168152602001896002811115613be557613be56157c3565b9052614c2c565b9450613bf98b8e87614d80565b9450613c058286611d76565b613c298d600081518110613c1b57613c1b615b65565b6020026020010151866143b5565b5050505098975050505050505050565b613c41614fcd565b6001600160601b03808316600090815260036020818152604092839020835161018081018552815460ff80821660c08401908152610100808404831660e086015262ffffff620100008504169085015263ffffffff600160281b840416610120850152600160481b83048216610140850152600160501b9092048116610160840152908252855160808082018852600185015482526002808601548388015296850154808a16838a0152600160601b9004909816606080830191909152838601919091528651978801875260048401546001600160a01b03908116895260058501548116958901959095526006840154851688880152600784015490941687850152948101959095526008810154909391850192911690811115613d6757613d676157c3565b6002811115613d7857613d786157c3565b81526020016008820160019054906101000a900460ff166004811115613da057613da06157c3565b6004811115613db157613db16157c3565b81526020016008820160029054906101000a900460ff166001811115613dd957613dd96157c3565b6001811115613dea57613dea6157c3565b90525092915050565b613dfb61510a565b8181526020808301516040908101516001600160601b03166000908152600a835281812080548351818602810186019094528084529193909190849084015b82821015613ecf5760008481526020908190206040805160e08101825260048602909201805463ffffffff8082168552600160201b8204811685870152600160401b90910416918301919091526001808201546060840152600282015460808401526003909101546001600160a01b03811660a0840152600160a01b900460ff16151560c08301529083529092019101613e3a565b5050505090506000815167ffffffffffffffff811115613ef157613ef16152e4565b604051908082528060200260200182016040528015613f2a57816020015b613f17615074565b815260200190600190039081613f0f5790505b508351602001515190915015613fad5760005b8251811015613fa4576000838281518110613f5a57613f5a615b65565b602002602001015160a001519050613f7e8186600001516020015160000151612802565b838381518110613f9057613f90615b65565b602090810291909101015250600101613f3d565b50602083018190525b5050919050565b613fbc614fcd565b6001600160601b03808316600090815260016020818152604092839020835161018081018552815460ff80821660c08401908152610100808404831660e086015262ffffff620100008504169085015263ffffffff600160281b840416610120850152600160481b83048216610140850152600160501b9092048116610160840152908252855160808082018852958401548152600280850154828701526003850154808a16838a0152600160601b9004909816606080830191909152838601919091528651958601875260048401546001600160a01b03908116875260058501548116958701959095526006840154851686880152600784015490941685850152948101939093526008810154929490939185019290911690811115613d6757613d676157c3565b6001600160601b0381166000908152600b602090815260408083206001600160a01b03861684528252808320805482518185028101850190935280835260609492939192909184015b828210156141b45760008481526020908190206040805160c0810182526007860290920180548352600180820154848601526002820154848401526003820154606085015260048201546001600160a01b031660808501528251808401909352600582015483526006909101548285015260a0830191909152908352909201910161412e565b50505050905092915050565b600654604051633f784de560e11b81526001600160a01b0383811660048301526000921690637ef09bca90602401602060405180830381865afa15801561420b573d6000803e3d6000fd5b505050506040513d601f19601f82011682018060405250810190610aac9190615b32565b614237615074565b6020808801516040908101516001600160601b03166000908152600a83522054908201805191909152515161427190869088908787614eb6565b6020968701516040908101516001600160601b03166000908152600a90985287208054600101815590965285516001600160a01b0390941660a0909401939093525050825190151560c0909101525090565b600081156142e557825151602080850151805191015160ff9092160214610aa9565b505051805160a09091015160ff91821691161490565b60006001600160a01b0384166143335761431483611bc0565b516020015160ff16905061432883826131e1565b60a001519350614341565b61433d84846132b3565b5190505b81600a600061434f86614649565b6001600160601b03166001600160601b03168152602001908152602001600020828154811061438057614380615b65565b906000526020600020906004020160000160046101000a81548163ffffffff021916908363ffffffff16021790555050505050565b6143f17f0000000000000000000000000000000000000000000000000000000000000000838360400151604001518460200151600001516133bc565b50604080820151810151602083015182015191516320d46be760e11b81526001600160a01b0385811660048301526001600160601b0390931660248201529116906341a8d7ce906044016020604051808303816000875af115801561445a573d6000803e3d6000fd5b505050506040513d601f19601f8201168201806040525081019061447e9190615b32565b6127d4576127d46040518060400160405280600f81526020016e105919081d5cd95c8819985a5b1959608a1b815250611b68565b6001600160601b038083166000908152600160208181526040928390208551805182548285015183880151606080860151608087015160a09097015160ff908116600160501b0260ff60501b19988216600160481b029890981661ffff60481b1963ffffffff909316600160281b0268ffffffff00000000001962ffffff90961662010000029590951668ffffffffffffff0000199683166101000261ffff199098169290981691909117959095179390931694909417171617919091178255828701518051838601558084015160028085019190915581870151600385018054938501518a16600160601b026001600160c01b03199094169190991617919091179096558487015180516004840180546001600160a01b039283166001600160a01b03199182161790915594820151600585018054918316918716919091179055958101516006840180549188169186169190911790558101516007830180549190961693169290921790935584015160088301805486959293919260ff199190911691908490811115611f1357611f136157c3565b600061465482611bc0565b602001516040015192915050565b60408051606081018252600080825260208201819052918101919091528161468a578261468c565b805b6001600160a01b0395909516600090815260056020908152604080832096835295815290859020865181559086015160019091018054959096015161ffff1990951690151561ff001916176101009415159490940293909317909355505050565b6001600160a01b0381166000908152600860205260408120805482919061471390615b7b565b80601f016020809104026020016040519081016040528092919081815260200182805461473f90615b7b565b801561478c5780601f106147615761010080835404028352916020019161478c565b820191906000526020600020905b81548152906001019060200180831161476f57829003601f168201915b5050505050905060006001600160a01b03167f00000000000000000000000000000000000000000000000000000000000000006001600160a01b031614614866576040516304b01c2560e51b81526000906001600160a01b037f0000000000000000000000000000000000000000000000000000000000000000169063960384a09061481c908590600401615cf6565b6040805180830381865afa158015614838573d6000803e3d6000fd5b505050506040513d601f19601f8201168201806040525081019061485c9190615f1a565b509250610a349050565b50678ac7230489e8000092915050565b60008262ffffff1660000361488d57506000610761565b60008360640262ffffff169050600085600001516001600160801b0316866020015160ff16600a0a8502816148c4576148c4615ce0565b04905061271065ffffffffffff83168202049695505050505050565b6000837f00000000000000000000000000000000000000000000000000000000000000006001600160a01b0316816001600160a01b0316146149dc57604051634df48c7360e11b81526001600160a01b0382811660048301527f00000000000000000000000000000000000000000000000000000000000000001690639be918e690602401602060405180830381865afa158015614982573d6000803e3d6000fd5b505050506040513d601f19601f820116820180604052508101906149a69190615b32565b6149dc576149dc60405180604001604052806011815260200170155b9cdd5c1c1bdc9d195908105cdcd95d607a1b815250611b68565b6001600160a01b0385166149f2576149f2615b4f565b6001600160a01b038416614a0857614a08615b4f565b604051636eb1769f60e11b81526001600160a01b03858116600483015230602483015286169063dd62ed3e90604401602060405180830381865afa158015614a54573d6000803e3d6000fd5b505050506040513d601f19601f82011682018060405250810190614a789190615da4565b915082821015614ab957614ab96040518060400160405280601681526020017556616c75652065786365656420616c6c6f77616e636560501b815250611b68565b509392505050565b600061271061ffff83161580614ad5575083155b15614ae4576000915050610aac565b61ffff83811610614b2157614b2160405180604001604052806011815260200170496e746572657374206f766572666c6f7760781b815250611b68565b8061ffff168411614b4d57614b4d604051806060016040528060268152602001615f4560269139611b68565b8061ffff168361ffff16850281614b6657614b66615ce0565b04949350505050565b604080518082019091526000808252602082015262278d0063ffffffff83161115614b9c57614b9c615b4f565b614ba68484614ac1565b8082521561076157805163ffffffff83169081614bc557614bc5615ce0565b0460208201529392505050565b600080614be3600280546001019055565b600254600084815260046020526040902080546bffffffffffffffffffffffff19166001600160601b0383161790559150614c25600080546001810190915590565b9050915091565b614c34614fcd565b6040518060c00160405280836060015160ff168152602001600060ff168152602001836080015162ffffff1681526020018360c0015161ffff16610e100263ffffffff168152602001600060ff168152602001600160ff1681525081600001819052506040518060800160405280836000015181526020018360000151815260200183604001516001600160601b0316815260200183602001516001600160601b0316815250816020018190525060405180608001604052808360a001516001600160a01b0316815260200160006001600160a01b03168152602001614d1d8460000151614eeb565b6001600160a01b03908116825260e085015116602090910152604082015261010082015160608201906002811115614d5757614d576157c3565b90816002811115614d6a57614d6a6157c3565b905250600160a082015260006080820152919050565b614d88614fcd565b60005b8351811015614ead57614d9c615074565b81600003614dd457614dcd8487878581518110614dbb57614dbb615b65565b6020026020010151600180600161422f565b9050614e83565b848281518110614de657614de6615b65565b60200260200101516001600160a01b031685600081518110614e0a57614e0a615b65565b60200260200101516001600160a01b031603614e5657614e566040518060400160405280601581526020017443726561746f722073706f7474656420747769636560581b815250611b68565b614e808487878581518110614e6d57614e6d615b65565b602002602001015160006001600061422f565b90505b614ea481600001518560200151604001518360200151600001516000613755565b50600101614d8b565b50909392505050565b614ee4858560405180606001604052808760ff16815260200185151581526020018615158152506000614662565b5050505050565b60405163f72be56960e01b8152600481018290526000907f00000000000000000000000000000000000000000000000000000000000000006001600160a01b03169063f72be569906024016020604051808303816000875af1158015614f55573d6000803e3d6000fd5b505050506040513d601f19601f82011682018060405250810190614f799190615d45565b90506001600160a01b038116610be657610be6615b4f565b6040805160e081018252600080825260208201819052918101829052606081018290526080810182905260a0810182905260c081019190915290565b604080516101808101909152600060c0820181815260e083018290526101008301829052610120830182905261014083018290526101608301919091528190815260408051608081018252600080825260208281018290529282018190526060820152910190815260408051608081018252600080825260208281018290529282018190526060820152910190815260200160008152602001600081526020016000905290565b6040518060600160405280615087614f91565b81526040805160608101825260008082526020828101829052928201529101905b8152602001606081525090565b60405180608001604052806150eb6040518060800160405280600081526020016000815260200160008152602001600081525090565b8152602001600061ffff16815260200160008152602001600081525090565b60405180604001604052806150a8614fcd565b8280548282559060005260206000209060070281019282156151bb5760005260206000209160070282015b828111156151bb578254825560018084015490830155600280840154908301556003808401549083015560048084015490830180546001600160a01b0319166001600160a01b03909216919091179055600580840154908301556006808401549083015560079283019290910190615148565b506151c79291506151e8565b5090565b5080546000825560070290600052602060002090810190611b6591905b5b808211156151c75760008082556001820181905560028201819055600382018190556004820180546001600160a01b03191690556005820181905560068201556007016151e9565b60006020828403121561524357600080fd5b5035919050565b63ffffffff80825116835280602083015116602084015280604083015116604084015250606081015160608301526080810151608083015260018060a01b0360a08201511660a083015260c0810151151560c08301525050565b61016081016152b3828661524a565b92151560e0820152815161010082015260208201511515610120820152604090910151151561014090910152919050565b634e487b7160e01b600052604160045260246000fd5b60405160c0810167ffffffffffffffff8111828210171561531d5761531d6152e4565b60405290565b6040805190810167ffffffffffffffff8111828210171561531d5761531d6152e4565b604051601f8201601f1916810167ffffffffffffffff8111828210171561536f5761536f6152e4565b604052919050565b6001600160a01b0381168114611b6557600080fd5b8035610be681615377565b600080600060608085870312156153ad57600080fd5b843567ffffffffffffffff808211156153c557600080fd5b818701915087601f8301126153d957600080fd5b81356020828211156153ed576153ed6152e4565b6153fb818360051b01615346565b828152818101935060e092830285018201928b84111561541a57600080fd5b948201945b838610156154b157858c03818112156154385760008081fd5b6154406152fa565b87358152848801358582015260408089013581830152898901358a8301526080808a013561546d81615377565b9083015260a0609f1984018213156154855760008081fd5b61548d615323565b8a820135815260c08b0135888201529083015250865250948501949382019361541f565b5097506154bf89820161538c565b96505050505050604084013590509250925092565b600080604083850312156154e757600080fd5b8235915060208301356154f981615377565b809150509250929050565b805182526020808201518184015260408083015190840152606080830151908401526080808301516001600160a01b03169084015260a091820151805192840192909252015160c082015260e00190565b600061016080840161556885855161524a565b602084810151805160e088015280820151151561010088015260409081015115156101208801528501516101408701939093528251918290526101808601928101916000905b808210156155d3576155c1858551615504565b945082840193506001820191506155ae565b50929695505050505050565b602081526000610aa96020830184615555565b803560ff81168114610be657600080fd5b803561ffff81168114610be657600080fd5b803562ffffff81168114610be657600080fd5b6000806000806080858703121561563e57600080fd5b8435935061564e602086016155f2565b925061565c60408601615603565b915061566a60608601615615565b905092959194509250565b6000806040838503121561568857600080fd5b823561569381615377565b91506156a160208401615603565b90509250929050565b8015158114611b6557600080fd5b8035610be6816156aa565b60008060008060008060008060e0898b0312156156df57600080fd5b883567ffffffffffffffff808211156156f757600080fd5b818b0191508b601f83011261570b57600080fd5b81358181111561571a57600080fd5b8c60208260051b850101111561572f57600080fd5b60209283019a50985050890135955061574a60408a016155f2565b945061575860608a01615603565b935061576660808a01615615565b925061577460a08a016156b8565b915061578260c08a0161538c565b90509295985092959890939650565b80356001600160601b0381168114610be657600080fd5b6000602082840312156157ba57600080fd5b610aa982615791565b634e487b7160e01b600052602160045260246000fd5b600381106157e9576157e96157c3565b9052565b600581106157e9576157e96157c3565b600281106157e9576157e96157c3565b805160ff815116835260ff602082015116602084015262ffffff604082015116604084015263ffffffff606082015116606084015260ff608082015116608084015260ff60a08201511660a084015250602081015161589f60c0840182805182526020810151602083015260408101516001600160601b03808216604085015280606084015116606085015250505050565b5060408181015180516001600160a01b03908116610140860152602082015181166101608601529181015182166101808501526060908101519091166101a08401528101516158f26101c08401826157d9565b5060808101516159066101e08401826157ed565b5060a081015161311f6102008401826157fd565b600060208083526102608301615933828501865161580d565b8185015161024085810152805191829052610280600583901b8601810192918401919086019060005b8181101561598b5761027f19888603018352615979858551615555565b9450928501929185019160010161595c565b5092979650505050505050565b600080604083850312156159ab57600080fd5b82356159b681615377565b915060208381013567ffffffffffffffff808211156159d457600080fd5b818601915086601f8301126159e857600080fd5b8135818111156159fa576159fa6152e4565b615a0c601f8201601f19168501615346565b91508082528784828501011115615a2257600080fd5b80848401858401376000848284010152508093505050509250929050565b60008060408385031215615a5357600080fd5b8235615a5e81615377565b946020939093013593505050565b8151815260208083015115159082015260408083015115159082015260608101610aac565b600060208284031215615aa357600080fd5b813561076181615377565b60008060408385031215615ac157600080fd5b8235615acc81615377565b91506156a160208401615791565b6020808252825182820181905260009190848201906040850190845b81811015615b1757615b09838551615504565b938501939250600101615af6565b50909695505050505050565b6102208101610aac828461580d565b600060208284031215615b4457600080fd5b8151610761816156aa565b634e487b7160e01b600052600160045260246000fd5b634e487b7160e01b600052603260045260246000fd5b600181811c90821680615b8f57607f821691505b602082108103610a3457634e487b7160e01b600052602260045260246000fd5b601f82111561311f576000816000526020600020601f850160051c81016020861015615bd85750805b601f850160051c820191505b818110156124f757828155600101615be4565b815167ffffffffffffffff811115615c1157615c116152e4565b615c2581615c1f8454615b7b565b84615baf565b602080601f831160018114615c5a5760008415615c425750858301515b600019600386901b1c1916600185901b1785556124f7565b600085815260208120601f198616915b82811015615c8957888601518255948401946001909101908401615c6a565b5085821015615ca75787850151600019600388901b60f8161c191681555b5050505050600190811b01905550565b634e487b7160e01b600052601160045260246000fd5b80820180821115610aac57610aac615cb7565b634e487b7160e01b600052601260045260246000fd5b60006020808352835180602085015260005b81811015615d2457858101830151858201604001528201615d08565b506000604082860101526040601f19601f8301168501019250505092915050565b600060208284031215615d5757600080fd5b815161076181615377565b6001600160a01b039283168152815160208083019190915282015160408083019190915282015160608083019190915290910151909116608082015260a00190565b600060208284031215615db657600080fd5b5051919050565b60008151808452602080850194506020840160005b83811015615df857615de587835161524a565b60e0969096019590820190600101615dd2565b509495945050505050565b60408152615e1d6040820184516001600160a01b03169052565b60006020840151615e3960608401826001600160a01b03169052565b5060408401516080830152606084015160a08301526080840151615e6160c084018215159052565b5060a08401516101408060e0850152615e7e610180850183615dbd565b915060c0860151610100615e958187018315159052565b60e08801519150610120615eb3818801846001600160a01b03169052565b908801516001600160601b0316928601929092525094909401516001600160a01b0316610160830152506020015290565b600060ff821660ff8103615efa57615efa615cb7565b60010192915050565b80516001600160801b0381168114610be657600080fd5b60008060408385031215615f2d57600080fd5b615f3683615f03565b91506156a160208401615f0356fe5072696e636970616c2073686f756c642062652067726561746572207468616e203130303030a2646970667358221220b652ba2b0ee6b56fcf457596f1a8e2a02c5fd5cad97f738bf04aaec1ba9197ea64736f6c63430008180033",
  "devdoc": {
    "author": "Simplifi (Bobeu)",
    "errors": {
      "EnforcedPause()": [
        {
          "details": "The operation failed because the contract is paused."
        }
      ],
      "ExpectedPause()": [
        {
          "details": "The operation failed because the contract is not paused."
        }
      ]
    },
    "events": {
      "Paused(address)": {
        "details": "Emitted when the pause is triggered by `account`."
      },
      "Unpaused(address)": {
        "details": "Emitted when the pause is lifted by `account`."
      }
    },
    "kind": "dev",
    "methods": {
      "activateReward()": {
        "details": "Activate reward"
      },
      "closePool(uint256)": {
        "details": "Cancels a pool. Only pool with one contributor can be close.",
        "params": {
          "unit": ": Unit contribution."
        }
      },
      "constructor": {
        "params": {
          "_assetManager": ": Asset manager contract",
          "_baseAsset": ": ERC20 compatible asset to use as base contribution",
          "_feeTo": ": Fee receiver",
          "_pointFactory": ": Platform fee",
          "_roleManager": ": Role manager contract"
        }
      },
      "contribute(uint256)": {
        "details": "Add a contributor to a poool",
        "params": {
          "": ": Unit contribution"
        }
      },
      "contributeThroughProvider((uint256,uint256,uint256,uint256,address,(uint256,uint256))[],address,uint256)": {
        "details": "Contributors can join a pool through a provider is they wish to borrow to finance the unit contribution.      If the unit is not taken, we add them to the pool otherwise a new pool will be launched.",
        "params": {
          "borrower": ": Account address of the borrower",
          "providers": ": List of providers that lend to the borrower",
          "unit": ": Amount borrowed will automatically be the unit contribution"
        }
      },
      "createPool(address[],uint256,uint8,uint16,uint24,bool,address)": {
        "details": "Create a pool internally",
        "params": {
          "colAsset": ": An ERC20-compatible asset to use as collateral currency ",
          "colCoverage": ": Ration of collateral coverage or index required as cover for loan",
          "durationInHours": ": Maximum duration in hours each borrower can retain the loan",
          "isPermissionless": ": Whether to create a permissionless or permissioned pool.",
          "maxQuorum": ": Maximum number of contributors that can participate",
          "unit": ": Unit contribution",
          "users": ": List of participating accounts"
        }
      },
      "deactivateReward()": {
        "details": "Deactivate reward"
      },
      "editPool(uint256,uint8,uint16,uint24)": {
        "details": "Edit pool information",
        "params": {
          "colCoverage": ": Collateral coverage or ratio.",
          "durationInHours": ": Number of time in hours each contributor can retain the loan",
          "maxQuorum": ": Number of expected participants",
          "unit": ": Unit contribution"
        }
      },
      "enquireLiquidation(uint256)": {
        "details": "Check liquidation opportunity in the pool",
        "params": {
          "unit": ": Unit contribution"
        }
      },
      "getCollateralQuote(uint256)": {
        "details": "Returns amount of collateral required in a pool.",
        "params": {
          "unit": ": EpochId"
        },
        "returns": {
          "colCoverage": "Collateral coverage",
          "collateral": "Collateral"
        }
      },
      "getContributorProviders(address,uint96)": {
        "details": "Return providers associated with the target account",
        "params": {
          "recordId": ": Record id",
          "target": ": Target account"
        }
      },
      "getCurrentDebt(uint256)": {
        "params": {
          "unit": ": Unit contribution"
        }
      },
      "getFactoryData()": {
        "details": "Return contract data "
      },
      "getFinance(uint256)": {
        "details": "Get finance",
        "params": {
          "unit": ": Unit contribution"
        },
        "returns": {
          "_0": "bool : Success or Failure"
        }
      },
      "getPoolData(uint96)": {
        "details": "Return past pools using unitId. ",
        "params": {
          "unitId": ": UnitId "
        }
      },
      "getPoolRecord(uint96)": {
        "details": "Return past pools using unitId. ",
        "params": {
          "recordId": ": Record Id"
        }
      },
      "getProfile(uint256,address)": {
        "details": "Returns the profile of target",
        "params": {
          "target": ": User",
          "unit": ": unit contribution"
        }
      },
      "isPoolAvailable(uint256)": {
        "details": "Get pool from storage",
        "params": {
          "unit": ": Unit contribution"
        }
      },
      "liquidate(uint256)": {
        "details": "Liquidates a borrower if they have defaulted in repaying their loan. - If the current beneficiary defaults, they're liquidated. - Their collateral balances is forwarded to the liquidator. Liquidator also takes the full  responsibilities of the providers if any. - Liquidator must not be a participant in pool at `unitId. We use this  to avoid fatal error in storage.",
        "params": {
          "unit": ": Unit contribution."
        }
      },
      "pause()": {
        "details": "Triggers stopped state. Requirements: Only owner role can call. - The contract must not be paused."
      },
      "paused()": {
        "details": "Returns true if the contract is paused, and false otherwise."
      },
      "payback(uint256)": {
        "details": "Payback. For detailed documentation, see _payback",
        "params": {
          "unit": ": Unit contribution"
        }
      },
      "setFeeOrMakerRate(address,uint16)": {
        "details": "Set fee or maker rate. The status of the value parsed determines which to update.",
        "params": {
          "_feeTo": ": Fee receiving account. ",
          "_makerRate": ": Platform fee (in %)"
        }
      },
      "setPair(address,string)": {
        "details": "Map collateral asset to their corresponding pair for price retrieval",
        "params": {
          "collateralAsset": ": ERC20 compatible asset",
          "pair": ": Price pair e.g cUSD/USDT"
        }
      },
      "setRoleManager(address)": {
        "params": {
          "newManager": ": New manager address"
        }
      },
      "unpause()": {
        "details": "Returns to normal state. Requirements: - Only owner role can call. - The contract must be paused."
      }
    },
    "title": "FlexpoolFactory",
    "version": 1
  },
  "userdoc": {
    "kind": "user",
    "methods": {
      "closePool(uint256)": {
        "notice": ": Only the creator of a pool can close it provided the number of contributors does not exceed one."
      },
      "constructor": {
        "notice": "================ Constructor =============="
      },
      "contributeThroughProvider((uint256,uint256,uint256,uint256,address,(uint256,uint256))[],address,uint256)": {
        "notice": "By default, maxQuorum is set to 2 using this method. Users can immediately change the quorum to desired value otherwise it will not be possible if another contributor joins to complete the quorum. - durationInHrs is set to 72 hours by default. - colCoverage is set to 120 by default. Only accounts with the roleBearer are allowed i.e Ex. Providers contract If an user is contributing via the provider, we ensure the privacy of permissioned group is preserved."
      },
      "createPool(address[],uint256,uint8,uint16,uint24,bool,address)": {
        "notice": "users list should be a list of participating accounts if it is permissioned including the creator being the first on the list. But the list can be empty if it is permissionless."
      },
      "getCurrentDebt(uint256)": {
        "notice": "Returns the current debt of target user."
      },
      "getFinance(uint256)": {
        "notice": ": To get finance, the unit contribution must be active. In the event the expected contributor failed to  call, we swap their profile for the current msg.sender provided the grace period of 1hr has passed."
      },
      "getPoolData(uint96)": {
        "notice": "For every unit contribution, the unit Id is unique to another and does not change"
      },
      "getPoolRecord(uint96)": {
        "notice": "The correct unitId must be parsed. The record id can be obtained by iterating over the past epoches. Using the record Id associated with the current pool will return empty pool but may not return empty contributors."
      },
      "setFeeOrMakerRate(address,uint16)": {
        "notice": ": For detailed doc on setting maker rate, see Utils.sol._getPercentage()"
      },
      "setPair(address,string)": {
        "notice": "Collateral asset must be supported"
      },
      "setRoleManager(address)": {
        "notice": "Set Role manager"
      }
    },
    "notice": "Deployable FlexpoolFactory contract that enables peer-funding. Participants of each pool are referred to  contributors. There is no limit to the amount that can be contributed except for zer0 value. Users can single-handedly run a pool (where anyone is free to participate) or collectively with friends and family or peer operate a permissioned pool  where participation is restricted to the preset members only. Users can use providers strategy to finance their quota if they can't afford the unit contribution. They can select multiple providers if the provider balance cannot the amount they wish to borrow. If this is the case, the selected providers are  entitled to earn interest on the amount they provide. When paying back, the contributor will repay the full loan with interest but halved for other contributors.  ",
    "version": 1
  },
  "storageLayout": {
    "storage": [
      {
        "astId": 3886,
        "contract": "contracts/standalone/celo/FlexpoolFactory.sol:FlexpoolFactory",
        "label": "pastEpoches",
        "offset": 0,
        "slot": "0",
        "type": "t_struct(Counter)362_storage"
      },
      {
        "astId": 3891,
        "contract": "contracts/standalone/celo/FlexpoolFactory.sol:FlexpoolFactory",
        "label": "records",
        "offset": 0,
        "slot": "1",
        "type": "t_mapping(t_uint96,t_struct(Pool)503_storage)"
      },
      {
        "astId": 3334,
        "contract": "contracts/standalone/celo/FlexpoolFactory.sol:FlexpoolFactory",
        "label": "epoches",
        "offset": 0,
        "slot": "2",
        "type": "t_struct(Counter)362_storage"
      },
      {
        "astId": 3339,
        "contract": "contracts/standalone/celo/FlexpoolFactory.sol:FlexpoolFactory",
        "label": "pools",
        "offset": 0,
        "slot": "3",
        "type": "t_mapping(t_uint96,t_struct(Pool)503_storage)"
      },
      {
        "astId": 3344,
        "contract": "contracts/standalone/celo/FlexpoolFactory.sol:FlexpoolFactory",
        "label": "indexes",
        "offset": 0,
        "slot": "4",
        "type": "t_mapping(t_uint256,t_uint96)"
      },
      {
        "astId": 4918,
        "contract": "contracts/standalone/celo/FlexpoolFactory.sol:FlexpoolFactory",
        "label": "slots",
        "offset": 0,
        "slot": "5",
        "type": "t_mapping(t_address,t_mapping(t_uint256,t_struct(Slot)617_storage))"
      },
      {
        "astId": 3772,
        "contract": "contracts/standalone/celo/FlexpoolFactory.sol:FlexpoolFactory",
        "label": "roleManager",
        "offset": 0,
        "slot": "6",
        "type": "t_contract(IRoleBase)988"
      },
      {
        "astId": 3967,
        "contract": "contracts/standalone/celo/FlexpoolFactory.sol:FlexpoolFactory",
        "label": "_paused",
        "offset": 20,
        "slot": "6",
        "type": "t_bool"
      },
      {
        "astId": 4862,
        "contract": "contracts/standalone/celo/FlexpoolFactory.sol:FlexpoolFactory",
        "label": "safes",
        "offset": 0,
        "slot": "7",
        "type": "t_mapping(t_uint256,t_address)"
      },
      {
        "astId": 4721,
        "contract": "contracts/standalone/celo/FlexpoolFactory.sol:FlexpoolFactory",
        "label": "pairs",
        "offset": 0,
        "slot": "8",
        "type": "t_mapping(t_contract(IERC20)858,t_string_storage)"
      },
      {
        "astId": 1397,
        "contract": "contracts/standalone/celo/FlexpoolFactory.sol:FlexpoolFactory",
        "label": "awardPoint",
        "offset": 0,
        "slot": "9",
        "type": "t_bool"
      },
      {
        "astId": 1585,
        "contract": "contracts/standalone/celo/FlexpoolFactory.sol:FlexpoolFactory",
        "label": "contributors",
        "offset": 0,
        "slot": "10",
        "type": "t_mapping(t_uint96,t_array(t_struct(Contributor)566_storage)dyn_storage)"
      },
      {
        "astId": 1594,
        "contract": "contracts/standalone/celo/FlexpoolFactory.sol:FlexpoolFactory",
        "label": "unitProviders",
        "offset": 0,
        "slot": "11",
        "type": "t_mapping(t_uint96,t_mapping(t_address,t_array(t_struct(Provider)585_storage)dyn_storage))"
      },
      {
        "astId": 3639,
        "contract": "contracts/standalone/celo/FlexpoolFactory.sol:FlexpoolFactory",
        "label": "feeTo",
        "offset": 0,
        "slot": "12",
        "type": "t_address"
      },
      {
        "astId": 3641,
        "contract": "contracts/standalone/celo/FlexpoolFactory.sol:FlexpoolFactory",
        "label": "makerRate",
        "offset": 0,
        "slot": "13",
        "type": "t_uint256"
      },
      {
        "astId": 5044,
        "contract": "contracts/standalone/celo/FlexpoolFactory.sol:FlexpoolFactory",
        "label": "analytics",
        "offset": 0,
        "slot": "14",
        "type": "t_struct(Analytics)663_storage"
      }
    ],
    "types": {
      "t_address": {
        "encoding": "inplace",
        "label": "address",
        "numberOfBytes": "20"
      },
      "t_array(t_struct(Contributor)566_storage)dyn_storage": {
        "base": "t_struct(Contributor)566_storage",
        "encoding": "dynamic_array",
        "label": "struct Common.Contributor[]",
        "numberOfBytes": "32"
      },
      "t_array(t_struct(Provider)585_storage)dyn_storage": {
        "base": "t_struct(Provider)585_storage",
        "encoding": "dynamic_array",
        "label": "struct Common.Provider[]",
        "numberOfBytes": "32"
      },
      "t_bool": {
        "encoding": "inplace",
        "label": "bool",
        "numberOfBytes": "1"
      },
      "t_contract(IERC20)858": {
        "encoding": "inplace",
        "label": "contract IERC20",
        "numberOfBytes": "20"
      },
      "t_contract(IRoleBase)988": {
        "encoding": "inplace",
        "label": "contract IRoleBase",
        "numberOfBytes": "20"
      },
      "t_enum(Router)484": {
        "encoding": "inplace",
        "label": "enum Common.Router",
        "numberOfBytes": "1"
      },
      "t_enum(Stage)474": {
        "encoding": "inplace",
        "label": "enum Common.Stage",
        "numberOfBytes": "1"
      },
      "t_enum(Status)477": {
        "encoding": "inplace",
        "label": "enum Common.Status",
        "numberOfBytes": "1"
      },
      "t_mapping(t_address,t_array(t_struct(Provider)585_storage)dyn_storage)": {
        "encoding": "mapping",
        "key": "t_address",
        "label": "mapping(address => struct Common.Provider[])",
        "numberOfBytes": "32",
        "value": "t_array(t_struct(Provider)585_storage)dyn_storage"
      },
      "t_mapping(t_address,t_mapping(t_uint256,t_struct(Slot)617_storage))": {
        "encoding": "mapping",
        "key": "t_address",
        "label": "mapping(address => mapping(uint256 => struct Common.Slot))",
        "numberOfBytes": "32",
        "value": "t_mapping(t_uint256,t_struct(Slot)617_storage)"
      },
      "t_mapping(t_contract(IERC20)858,t_string_storage)": {
        "encoding": "mapping",
        "key": "t_contract(IERC20)858",
        "label": "mapping(contract IERC20 => string)",
        "numberOfBytes": "32",
        "value": "t_string_storage"
      },
      "t_mapping(t_uint256,t_address)": {
        "encoding": "mapping",
        "key": "t_uint256",
        "label": "mapping(uint256 => address)",
        "numberOfBytes": "32",
        "value": "t_address"
      },
      "t_mapping(t_uint256,t_struct(Slot)617_storage)": {
        "encoding": "mapping",
        "key": "t_uint256",
        "label": "mapping(uint256 => struct Common.Slot)",
        "numberOfBytes": "32",
        "value": "t_struct(Slot)617_storage"
      },
      "t_mapping(t_uint256,t_uint96)": {
        "encoding": "mapping",
        "key": "t_uint256",
        "label": "mapping(uint256 => uint96)",
        "numberOfBytes": "32",
        "value": "t_uint96"
      },
      "t_mapping(t_uint96,t_array(t_struct(Contributor)566_storage)dyn_storage)": {
        "encoding": "mapping",
        "key": "t_uint96",
        "label": "mapping(uint96 => struct Common.Contributor[])",
        "numberOfBytes": "32",
        "value": "t_array(t_struct(Contributor)566_storage)dyn_storage"
      },
      "t_mapping(t_uint96,t_mapping(t_address,t_array(t_struct(Provider)585_storage)dyn_storage))": {
        "encoding": "mapping",
        "key": "t_uint96",
        "label": "mapping(uint96 => mapping(address => struct Common.Provider[]))",
        "numberOfBytes": "32",
        "value": "t_mapping(t_address,t_array(t_struct(Provider)585_storage)dyn_storage)"
      },
      "t_mapping(t_uint96,t_struct(Pool)503_storage)": {
        "encoding": "mapping",
        "key": "t_uint96",
        "label": "mapping(uint96 => struct Common.Pool)",
        "numberOfBytes": "32",
        "value": "t_struct(Pool)503_storage"
      },
      "t_string_storage": {
        "encoding": "bytes",
        "label": "string",
        "numberOfBytes": "32"
      },
      "t_struct(Addresses)550_storage": {
        "encoding": "inplace",
        "label": "struct Common.Addresses",
        "members": [
          {
            "astId": 543,
            "contract": "contracts/standalone/celo/FlexpoolFactory.sol:FlexpoolFactory",
            "label": "colAsset",
            "offset": 0,
            "slot": "0",
            "type": "t_contract(IERC20)858"
          },
          {
            "astId": 545,
            "contract": "contracts/standalone/celo/FlexpoolFactory.sol:FlexpoolFactory",
            "label": "lastPaid",
            "offset": 0,
            "slot": "1",
            "type": "t_address"
          },
          {
            "astId": 547,
            "contract": "contracts/standalone/celo/FlexpoolFactory.sol:FlexpoolFactory",
            "label": "safe",
            "offset": 0,
            "slot": "2",
            "type": "t_address"
          },
          {
            "astId": 549,
            "contract": "contracts/standalone/celo/FlexpoolFactory.sol:FlexpoolFactory",
            "label": "admin",
            "offset": 0,
            "slot": "3",
            "type": "t_address"
          }
        ],
        "numberOfBytes": "128"
      },
      "t_struct(Analytics)663_storage": {
        "encoding": "inplace",
        "label": "struct Common.Analytics",
        "members": [
          {
            "astId": 656,
            "contract": "contracts/standalone/celo/FlexpoolFactory.sol:FlexpoolFactory",
            "label": "tvlCollateral",
            "offset": 0,
            "slot": "0",
            "type": "t_uint256"
          },
          {
            "astId": 658,
            "contract": "contracts/standalone/celo/FlexpoolFactory.sol:FlexpoolFactory",
            "label": "tvlBase",
            "offset": 0,
            "slot": "1",
            "type": "t_uint256"
          },
          {
            "astId": 660,
            "contract": "contracts/standalone/celo/FlexpoolFactory.sol:FlexpoolFactory",
            "label": "totalPermissioned",
            "offset": 0,
            "slot": "2",
            "type": "t_uint256"
          },
          {
            "astId": 662,
            "contract": "contracts/standalone/celo/FlexpoolFactory.sol:FlexpoolFactory",
            "label": "totalPermissionless",
            "offset": 0,
            "slot": "3",
            "type": "t_uint256"
          }
        ],
        "numberOfBytes": "128"
      },
      "t_struct(Big)525_storage": {
        "encoding": "inplace",
        "label": "struct Common.Big",
        "members": [
          {
            "astId": 518,
            "contract": "contracts/standalone/celo/FlexpoolFactory.sol:FlexpoolFactory",
            "label": "unit",
            "offset": 0,
            "slot": "0",
            "type": "t_uint256"
          },
          {
            "astId": 520,
            "contract": "contracts/standalone/celo/FlexpoolFactory.sol:FlexpoolFactory",
            "label": "currentPool",
            "offset": 0,
            "slot": "1",
            "type": "t_uint256"
          },
          {
            "astId": 522,
            "contract": "contracts/standalone/celo/FlexpoolFactory.sol:FlexpoolFactory",
            "label": "recordId",
            "offset": 0,
            "slot": "2",
            "type": "t_uint96"
          },
          {
            "astId": 524,
            "contract": "contracts/standalone/celo/FlexpoolFactory.sol:FlexpoolFactory",
            "label": "unitId",
            "offset": 12,
            "slot": "2",
            "type": "t_uint96"
          }
        ],
        "numberOfBytes": "96"
      },
      "t_struct(Contributor)566_storage": {
        "encoding": "inplace",
        "label": "struct Common.Contributor",
        "members": [
          {
            "astId": 553,
            "contract": "contracts/standalone/celo/FlexpoolFactory.sol:FlexpoolFactory",
            "label": "paybackTime",
            "offset": 0,
            "slot": "0",
            "type": "t_uint32"
          },
          {
            "astId": 555,
            "contract": "contracts/standalone/celo/FlexpoolFactory.sol:FlexpoolFactory",
            "label": "turnStartTime",
            "offset": 4,
            "slot": "0",
            "type": "t_uint32"
          },
          {
            "astId": 557,
            "contract": "contracts/standalone/celo/FlexpoolFactory.sol:FlexpoolFactory",
            "label": "getFinanceTime",
            "offset": 8,
            "slot": "0",
            "type": "t_uint32"
          },
          {
            "astId": 559,
            "contract": "contracts/standalone/celo/FlexpoolFactory.sol:FlexpoolFactory",
            "label": "loan",
            "offset": 0,
            "slot": "1",
            "type": "t_uint256"
          },
          {
            "astId": 561,
            "contract": "contracts/standalone/celo/FlexpoolFactory.sol:FlexpoolFactory",
            "label": "colBals",
            "offset": 0,
            "slot": "2",
            "type": "t_uint256"
          },
          {
            "astId": 563,
            "contract": "contracts/standalone/celo/FlexpoolFactory.sol:FlexpoolFactory",
            "label": "id",
            "offset": 0,
            "slot": "3",
            "type": "t_address"
          },
          {
            "astId": 565,
            "contract": "contracts/standalone/celo/FlexpoolFactory.sol:FlexpoolFactory",
            "label": "sentQuota",
            "offset": 20,
            "slot": "3",
            "type": "t_bool"
          }
        ],
        "numberOfBytes": "128"
      },
      "t_struct(Counter)362_storage": {
        "encoding": "inplace",
        "label": "struct Counters.Counter",
        "members": [
          {
            "astId": 361,
            "contract": "contracts/standalone/celo/FlexpoolFactory.sol:FlexpoolFactory",
            "label": "_value",
            "offset": 0,
            "slot": "0",
            "type": "t_uint256"
          }
        ],
        "numberOfBytes": "32"
      },
      "t_struct(Interest)539_storage": {
        "encoding": "inplace",
        "label": "struct Common.Interest",
        "members": [
          {
            "astId": 536,
            "contract": "contracts/standalone/celo/FlexpoolFactory.sol:FlexpoolFactory",
            "label": "fullInterest",
            "offset": 0,
            "slot": "0",
            "type": "t_uint256"
          },
          {
            "astId": 538,
            "contract": "contracts/standalone/celo/FlexpoolFactory.sol:FlexpoolFactory",
            "label": "intPerSec",
            "offset": 0,
            "slot": "1",
            "type": "t_uint256"
          }
        ],
        "numberOfBytes": "64"
      },
      "t_struct(Low)516_storage": {
        "encoding": "inplace",
        "label": "struct Common.Low",
        "members": [
          {
            "astId": 505,
            "contract": "contracts/standalone/celo/FlexpoolFactory.sol:FlexpoolFactory",
            "label": "maxQuorum",
            "offset": 0,
            "slot": "0",
            "type": "t_uint8"
          },
          {
            "astId": 507,
            "contract": "contracts/standalone/celo/FlexpoolFactory.sol:FlexpoolFactory",
            "label": "selector",
            "offset": 1,
            "slot": "0",
            "type": "t_uint8"
          },
          {
            "astId": 509,
            "contract": "contracts/standalone/celo/FlexpoolFactory.sol:FlexpoolFactory",
            "label": "colCoverage",
            "offset": 2,
            "slot": "0",
            "type": "t_uint24"
          },
          {
            "astId": 511,
            "contract": "contracts/standalone/celo/FlexpoolFactory.sol:FlexpoolFactory",
            "label": "duration",
            "offset": 5,
            "slot": "0",
            "type": "t_uint32"
          },
          {
            "astId": 513,
            "contract": "contracts/standalone/celo/FlexpoolFactory.sol:FlexpoolFactory",
            "label": "allGh",
            "offset": 9,
            "slot": "0",
            "type": "t_uint8"
          },
          {
            "astId": 515,
            "contract": "contracts/standalone/celo/FlexpoolFactory.sol:FlexpoolFactory",
            "label": "userCount",
            "offset": 10,
            "slot": "0",
            "type": "t_uint8"
          }
        ],
        "numberOfBytes": "32"
      },
      "t_struct(Pool)503_storage": {
        "encoding": "inplace",
        "label": "struct Common.Pool",
        "members": [
          {
            "astId": 487,
            "contract": "contracts/standalone/celo/FlexpoolFactory.sol:FlexpoolFactory",
            "label": "low",
            "offset": 0,
            "slot": "0",
            "type": "t_struct(Low)516_storage"
          },
          {
            "astId": 490,
            "contract": "contracts/standalone/celo/FlexpoolFactory.sol:FlexpoolFactory",
            "label": "big",
            "offset": 0,
            "slot": "1",
            "type": "t_struct(Big)525_storage"
          },
          {
            "astId": 493,
            "contract": "contracts/standalone/celo/FlexpoolFactory.sol:FlexpoolFactory",
            "label": "addrs",
            "offset": 0,
            "slot": "4",
            "type": "t_struct(Addresses)550_storage"
          },
          {
            "astId": 496,
            "contract": "contracts/standalone/celo/FlexpoolFactory.sol:FlexpoolFactory",
            "label": "router",
            "offset": 0,
            "slot": "8",
            "type": "t_enum(Router)484"
          },
          {
            "astId": 499,
            "contract": "contracts/standalone/celo/FlexpoolFactory.sol:FlexpoolFactory",
            "label": "stage",
            "offset": 1,
            "slot": "8",
            "type": "t_enum(Stage)474"
          },
          {
            "astId": 502,
            "contract": "contracts/standalone/celo/FlexpoolFactory.sol:FlexpoolFactory",
            "label": "status",
            "offset": 2,
            "slot": "8",
            "type": "t_enum(Status)477"
          }
        ],
        "numberOfBytes": "288"
      },
      "t_struct(Provider)585_storage": {
        "encoding": "inplace",
        "label": "struct Common.Provider",
        "members": [
          {
            "astId": 573,
            "contract": "contracts/standalone/celo/FlexpoolFactory.sol:FlexpoolFactory",
            "label": "slot",
            "offset": 0,
            "slot": "0",
            "type": "t_uint256"
          },
          {
            "astId": 575,
            "contract": "contracts/standalone/celo/FlexpoolFactory.sol:FlexpoolFactory",
            "label": "amount",
            "offset": 0,
            "slot": "1",
            "type": "t_uint256"
          },
          {
            "astId": 577,
            "contract": "contracts/standalone/celo/FlexpoolFactory.sol:FlexpoolFactory",
            "label": "rate",
            "offset": 0,
            "slot": "2",
            "type": "t_uint256"
          },
          {
            "astId": 579,
            "contract": "contracts/standalone/celo/FlexpoolFactory.sol:FlexpoolFactory",
            "label": "earnStartDate",
            "offset": 0,
            "slot": "3",
            "type": "t_uint256"
          },
          {
            "astId": 581,
            "contract": "contracts/standalone/celo/FlexpoolFactory.sol:FlexpoolFactory",
            "label": "account",
            "offset": 0,
            "slot": "4",
            "type": "t_address"
          },
          {
            "astId": 584,
            "contract": "contracts/standalone/celo/FlexpoolFactory.sol:FlexpoolFactory",
            "label": "accruals",
            "offset": 0,
            "slot": "5",
            "type": "t_struct(Interest)539_storage"
          }
        ],
        "numberOfBytes": "224"
      },
      "t_struct(Slot)617_storage": {
        "encoding": "inplace",
        "label": "struct Common.Slot",
        "members": [
          {
            "astId": 612,
            "contract": "contracts/standalone/celo/FlexpoolFactory.sol:FlexpoolFactory",
            "label": "value",
            "offset": 0,
            "slot": "0",
            "type": "t_uint256"
          },
          {
            "astId": 614,
            "contract": "contracts/standalone/celo/FlexpoolFactory.sol:FlexpoolFactory",
            "label": "isMember",
            "offset": 0,
            "slot": "1",
            "type": "t_bool"
          },
          {
            "astId": 616,
            "contract": "contracts/standalone/celo/FlexpoolFactory.sol:FlexpoolFactory",
            "label": "isAdmin",
            "offset": 1,
            "slot": "1",
            "type": "t_bool"
          }
        ],
        "numberOfBytes": "64"
      },
      "t_uint24": {
        "encoding": "inplace",
        "label": "uint24",
        "numberOfBytes": "3"
      },
      "t_uint256": {
        "encoding": "inplace",
        "label": "uint256",
        "numberOfBytes": "32"
      },
      "t_uint32": {
        "encoding": "inplace",
        "label": "uint32",
        "numberOfBytes": "4"
      },
      "t_uint8": {
        "encoding": "inplace",
        "label": "uint8",
        "numberOfBytes": "1"
      },
      "t_uint96": {
        "encoding": "inplace",
        "label": "uint96",
        "numberOfBytes": "12"
      }
    }
  }
}