{
  "address": "0x33d68F8298e01Ab9CA9813A89a8193d2C87D956d",
  "abi": [
    {
      "inputs": [
        {
          "internalType": "address",
          "name": "_feeTo",
          "type": "address"
        },
        {
          "internalType": "uint16",
          "name": "_makerRate",
          "type": "uint16"
        },
        {
          "internalType": "address",
          "name": "_diaOracleAddress",
          "type": "address"
        },
        {
          "internalType": "contract IRoleBase",
          "name": "_roleManager",
          "type": "address"
        },
        {
          "internalType": "contract ISupportedAsset",
          "name": "_assetManager",
          "type": "address"
        },
        {
          "internalType": "contract IERC20",
          "name": "_baseAsset",
          "type": "address"
        },
        {
          "internalType": "contract IPoint",
          "name": "_pointFactory",
          "type": "address"
        },
        {
          "internalType": "contract ISafeFactory",
          "name": "_safeFactory",
          "type": "address"
        }
      ],
      "stateMutability": "nonpayable",
      "type": "constructor"
    },
    {
      "inputs": [],
      "name": "EnforcedPause",
      "type": "error"
    },
    {
      "inputs": [
        {
          "internalType": "string",
          "name": "errorMsg",
          "type": "string"
        }
      ],
      "name": "ErrorOccurred",
      "type": "error"
    },
    {
      "inputs": [],
      "name": "ExpectedPause",
      "type": "error"
    },
    {
      "anonymous": false,
      "inputs": [
        {
          "indexed": false,
          "internalType": "uint256",
          "name": "unit",
          "type": "uint256"
        }
      ],
      "name": "Cancellation",
      "type": "event"
    },
    {
      "anonymous": false,
      "inputs": [
        {
          "components": [
            {
              "components": [
                {
                  "internalType": "uint8",
                  "name": "maxQuorum",
                  "type": "uint8"
                },
                {
                  "internalType": "uint8",
                  "name": "selector",
                  "type": "uint8"
                },
                {
                  "internalType": "uint24",
                  "name": "colCoverage",
                  "type": "uint24"
                },
                {
                  "internalType": "uint32",
                  "name": "duration",
                  "type": "uint32"
                },
                {
                  "internalType": "uint8",
                  "name": "allGh",
                  "type": "uint8"
                },
                {
                  "internalType": "uint8",
                  "name": "userCount",
                  "type": "uint8"
                }
              ],
              "internalType": "struct Common.Low",
              "name": "low",
              "type": "tuple"
            },
            {
              "components": [
                {
                  "internalType": "uint256",
                  "name": "unit",
                  "type": "uint256"
                },
                {
                  "internalType": "uint256",
                  "name": "currentPool",
                  "type": "uint256"
                },
                {
                  "internalType": "uint96",
                  "name": "recordId",
                  "type": "uint96"
                },
                {
                  "internalType": "uint96",
                  "name": "unitId",
                  "type": "uint96"
                }
              ],
              "internalType": "struct Common.Big",
              "name": "big",
              "type": "tuple"
            },
            {
              "components": [
                {
                  "internalType": "contract IERC20",
                  "name": "colAsset",
                  "type": "address"
                },
                {
                  "internalType": "address",
                  "name": "lastPaid",
                  "type": "address"
                },
                {
                  "internalType": "address",
                  "name": "safe",
                  "type": "address"
                },
                {
                  "internalType": "address",
                  "name": "admin",
                  "type": "address"
                }
              ],
              "internalType": "struct Common.Addresses",
              "name": "addrs",
              "type": "tuple"
            },
            {
              "internalType": "enum Common.Router",
              "name": "router",
              "type": "uint8"
            },
            {
              "internalType": "enum Common.Stage",
              "name": "stage",
              "type": "uint8"
            },
            {
              "internalType": "enum Common.Status",
              "name": "status",
              "type": "uint8"
            }
          ],
          "indexed": false,
          "internalType": "struct Common.Pool",
          "name": "",
          "type": "tuple"
        }
      ],
      "name": "GetFinanced",
      "type": "event"
    },
    {
      "anonymous": false,
      "inputs": [
        {
          "components": [
            {
              "components": [
                {
                  "internalType": "uint8",
                  "name": "maxQuorum",
                  "type": "uint8"
                },
                {
                  "internalType": "uint8",
                  "name": "selector",
                  "type": "uint8"
                },
                {
                  "internalType": "uint24",
                  "name": "colCoverage",
                  "type": "uint24"
                },
                {
                  "internalType": "uint32",
                  "name": "duration",
                  "type": "uint32"
                },
                {
                  "internalType": "uint8",
                  "name": "allGh",
                  "type": "uint8"
                },
                {
                  "internalType": "uint8",
                  "name": "userCount",
                  "type": "uint8"
                }
              ],
              "internalType": "struct Common.Low",
              "name": "low",
              "type": "tuple"
            },
            {
              "components": [
                {
                  "internalType": "uint256",
                  "name": "unit",
                  "type": "uint256"
                },
                {
                  "internalType": "uint256",
                  "name": "currentPool",
                  "type": "uint256"
                },
                {
                  "internalType": "uint96",
                  "name": "recordId",
                  "type": "uint96"
                },
                {
                  "internalType": "uint96",
                  "name": "unitId",
                  "type": "uint96"
                }
              ],
              "internalType": "struct Common.Big",
              "name": "big",
              "type": "tuple"
            },
            {
              "components": [
                {
                  "internalType": "contract IERC20",
                  "name": "colAsset",
                  "type": "address"
                },
                {
                  "internalType": "address",
                  "name": "lastPaid",
                  "type": "address"
                },
                {
                  "internalType": "address",
                  "name": "safe",
                  "type": "address"
                },
                {
                  "internalType": "address",
                  "name": "admin",
                  "type": "address"
                }
              ],
              "internalType": "struct Common.Addresses",
              "name": "addrs",
              "type": "tuple"
            },
            {
              "internalType": "enum Common.Router",
              "name": "router",
              "type": "uint8"
            },
            {
              "internalType": "enum Common.Stage",
              "name": "stage",
              "type": "uint8"
            },
            {
              "internalType": "enum Common.Status",
              "name": "status",
              "type": "uint8"
            }
          ],
          "indexed": false,
          "internalType": "struct Common.Pool",
          "name": "",
          "type": "tuple"
        }
      ],
      "name": "Liquidated",
      "type": "event"
    },
    {
      "anonymous": false,
      "inputs": [
        {
          "components": [
            {
              "components": [
                {
                  "internalType": "uint8",
                  "name": "maxQuorum",
                  "type": "uint8"
                },
                {
                  "internalType": "uint8",
                  "name": "selector",
                  "type": "uint8"
                },
                {
                  "internalType": "uint24",
                  "name": "colCoverage",
                  "type": "uint24"
                },
                {
                  "internalType": "uint32",
                  "name": "duration",
                  "type": "uint32"
                },
                {
                  "internalType": "uint8",
                  "name": "allGh",
                  "type": "uint8"
                },
                {
                  "internalType": "uint8",
                  "name": "userCount",
                  "type": "uint8"
                }
              ],
              "internalType": "struct Common.Low",
              "name": "low",
              "type": "tuple"
            },
            {
              "components": [
                {
                  "internalType": "uint256",
                  "name": "unit",
                  "type": "uint256"
                },
                {
                  "internalType": "uint256",
                  "name": "currentPool",
                  "type": "uint256"
                },
                {
                  "internalType": "uint96",
                  "name": "recordId",
                  "type": "uint96"
                },
                {
                  "internalType": "uint96",
                  "name": "unitId",
                  "type": "uint96"
                }
              ],
              "internalType": "struct Common.Big",
              "name": "big",
              "type": "tuple"
            },
            {
              "components": [
                {
                  "internalType": "contract IERC20",
                  "name": "colAsset",
                  "type": "address"
                },
                {
                  "internalType": "address",
                  "name": "lastPaid",
                  "type": "address"
                },
                {
                  "internalType": "address",
                  "name": "safe",
                  "type": "address"
                },
                {
                  "internalType": "address",
                  "name": "admin",
                  "type": "address"
                }
              ],
              "internalType": "struct Common.Addresses",
              "name": "addrs",
              "type": "tuple"
            },
            {
              "internalType": "enum Common.Router",
              "name": "router",
              "type": "uint8"
            },
            {
              "internalType": "enum Common.Stage",
              "name": "stage",
              "type": "uint8"
            },
            {
              "internalType": "enum Common.Status",
              "name": "status",
              "type": "uint8"
            }
          ],
          "indexed": false,
          "internalType": "struct Common.Pool",
          "name": "",
          "type": "tuple"
        }
      ],
      "name": "NewContributorAdded",
      "type": "event"
    },
    {
      "anonymous": false,
      "inputs": [
        {
          "indexed": false,
          "internalType": "address",
          "name": "account",
          "type": "address"
        }
      ],
      "name": "Paused",
      "type": "event"
    },
    {
      "anonymous": false,
      "inputs": [
        {
          "components": [
            {
              "components": [
                {
                  "internalType": "uint8",
                  "name": "maxQuorum",
                  "type": "uint8"
                },
                {
                  "internalType": "uint8",
                  "name": "selector",
                  "type": "uint8"
                },
                {
                  "internalType": "uint24",
                  "name": "colCoverage",
                  "type": "uint24"
                },
                {
                  "internalType": "uint32",
                  "name": "duration",
                  "type": "uint32"
                },
                {
                  "internalType": "uint8",
                  "name": "allGh",
                  "type": "uint8"
                },
                {
                  "internalType": "uint8",
                  "name": "userCount",
                  "type": "uint8"
                }
              ],
              "internalType": "struct Common.Low",
              "name": "low",
              "type": "tuple"
            },
            {
              "components": [
                {
                  "internalType": "uint256",
                  "name": "unit",
                  "type": "uint256"
                },
                {
                  "internalType": "uint256",
                  "name": "currentPool",
                  "type": "uint256"
                },
                {
                  "internalType": "uint96",
                  "name": "recordId",
                  "type": "uint96"
                },
                {
                  "internalType": "uint96",
                  "name": "unitId",
                  "type": "uint96"
                }
              ],
              "internalType": "struct Common.Big",
              "name": "big",
              "type": "tuple"
            },
            {
              "components": [
                {
                  "internalType": "contract IERC20",
                  "name": "colAsset",
                  "type": "address"
                },
                {
                  "internalType": "address",
                  "name": "lastPaid",
                  "type": "address"
                },
                {
                  "internalType": "address",
                  "name": "safe",
                  "type": "address"
                },
                {
                  "internalType": "address",
                  "name": "admin",
                  "type": "address"
                }
              ],
              "internalType": "struct Common.Addresses",
              "name": "addrs",
              "type": "tuple"
            },
            {
              "internalType": "enum Common.Router",
              "name": "router",
              "type": "uint8"
            },
            {
              "internalType": "enum Common.Stage",
              "name": "stage",
              "type": "uint8"
            },
            {
              "internalType": "enum Common.Status",
              "name": "status",
              "type": "uint8"
            }
          ],
          "indexed": false,
          "internalType": "struct Common.Pool",
          "name": "",
          "type": "tuple"
        }
      ],
      "name": "Payback",
      "type": "event"
    },
    {
      "anonymous": false,
      "inputs": [
        {
          "components": [
            {
              "components": [
                {
                  "internalType": "uint8",
                  "name": "maxQuorum",
                  "type": "uint8"
                },
                {
                  "internalType": "uint8",
                  "name": "selector",
                  "type": "uint8"
                },
                {
                  "internalType": "uint24",
                  "name": "colCoverage",
                  "type": "uint24"
                },
                {
                  "internalType": "uint32",
                  "name": "duration",
                  "type": "uint32"
                },
                {
                  "internalType": "uint8",
                  "name": "allGh",
                  "type": "uint8"
                },
                {
                  "internalType": "uint8",
                  "name": "userCount",
                  "type": "uint8"
                }
              ],
              "internalType": "struct Common.Low",
              "name": "low",
              "type": "tuple"
            },
            {
              "components": [
                {
                  "internalType": "uint256",
                  "name": "unit",
                  "type": "uint256"
                },
                {
                  "internalType": "uint256",
                  "name": "currentPool",
                  "type": "uint256"
                },
                {
                  "internalType": "uint96",
                  "name": "recordId",
                  "type": "uint96"
                },
                {
                  "internalType": "uint96",
                  "name": "unitId",
                  "type": "uint96"
                }
              ],
              "internalType": "struct Common.Big",
              "name": "big",
              "type": "tuple"
            },
            {
              "components": [
                {
                  "internalType": "contract IERC20",
                  "name": "colAsset",
                  "type": "address"
                },
                {
                  "internalType": "address",
                  "name": "lastPaid",
                  "type": "address"
                },
                {
                  "internalType": "address",
                  "name": "safe",
                  "type": "address"
                },
                {
                  "internalType": "address",
                  "name": "admin",
                  "type": "address"
                }
              ],
              "internalType": "struct Common.Addresses",
              "name": "addrs",
              "type": "tuple"
            },
            {
              "internalType": "enum Common.Router",
              "name": "router",
              "type": "uint8"
            },
            {
              "internalType": "enum Common.Stage",
              "name": "stage",
              "type": "uint8"
            },
            {
              "internalType": "enum Common.Status",
              "name": "status",
              "type": "uint8"
            }
          ],
          "indexed": false,
          "internalType": "struct Common.Pool",
          "name": "",
          "type": "tuple"
        }
      ],
      "name": "PoolCreated",
      "type": "event"
    },
    {
      "anonymous": false,
      "inputs": [
        {
          "components": [
            {
              "components": [
                {
                  "internalType": "uint8",
                  "name": "maxQuorum",
                  "type": "uint8"
                },
                {
                  "internalType": "uint8",
                  "name": "selector",
                  "type": "uint8"
                },
                {
                  "internalType": "uint24",
                  "name": "colCoverage",
                  "type": "uint24"
                },
                {
                  "internalType": "uint32",
                  "name": "duration",
                  "type": "uint32"
                },
                {
                  "internalType": "uint8",
                  "name": "allGh",
                  "type": "uint8"
                },
                {
                  "internalType": "uint8",
                  "name": "userCount",
                  "type": "uint8"
                }
              ],
              "internalType": "struct Common.Low",
              "name": "low",
              "type": "tuple"
            },
            {
              "components": [
                {
                  "internalType": "uint256",
                  "name": "unit",
                  "type": "uint256"
                },
                {
                  "internalType": "uint256",
                  "name": "currentPool",
                  "type": "uint256"
                },
                {
                  "internalType": "uint96",
                  "name": "recordId",
                  "type": "uint96"
                },
                {
                  "internalType": "uint96",
                  "name": "unitId",
                  "type": "uint96"
                }
              ],
              "internalType": "struct Common.Big",
              "name": "big",
              "type": "tuple"
            },
            {
              "components": [
                {
                  "internalType": "contract IERC20",
                  "name": "colAsset",
                  "type": "address"
                },
                {
                  "internalType": "address",
                  "name": "lastPaid",
                  "type": "address"
                },
                {
                  "internalType": "address",
                  "name": "safe",
                  "type": "address"
                },
                {
                  "internalType": "address",
                  "name": "admin",
                  "type": "address"
                }
              ],
              "internalType": "struct Common.Addresses",
              "name": "addrs",
              "type": "tuple"
            },
            {
              "internalType": "enum Common.Router",
              "name": "router",
              "type": "uint8"
            },
            {
              "internalType": "enum Common.Stage",
              "name": "stage",
              "type": "uint8"
            },
            {
              "internalType": "enum Common.Status",
              "name": "status",
              "type": "uint8"
            }
          ],
          "indexed": false,
          "internalType": "struct Common.Pool",
          "name": "",
          "type": "tuple"
        }
      ],
      "name": "PoolEdited",
      "type": "event"
    },
    {
      "anonymous": false,
      "inputs": [
        {
          "indexed": false,
          "internalType": "address",
          "name": "account",
          "type": "address"
        }
      ],
      "name": "Unpaused",
      "type": "event"
    },
    {
      "inputs": [],
      "name": "activateReward",
      "outputs": [
        {
          "internalType": "bool",
          "name": "",
          "type": "bool"
        }
      ],
      "stateMutability": "nonpayable",
      "type": "function"
    },
    {
      "inputs": [],
      "name": "analytics",
      "outputs": [
        {
          "internalType": "uint256",
          "name": "tvlCollateral",
          "type": "uint256"
        },
        {
          "internalType": "uint256",
          "name": "tvlBase",
          "type": "uint256"
        },
        {
          "internalType": "uint256",
          "name": "totalPermissioned",
          "type": "uint256"
        },
        {
          "internalType": "uint256",
          "name": "totalPermissionless",
          "type": "uint256"
        }
      ],
      "stateMutability": "view",
      "type": "function"
    },
    {
      "inputs": [],
      "name": "assetManager",
      "outputs": [
        {
          "internalType": "contract ISupportedAsset",
          "name": "",
          "type": "address"
        }
      ],
      "stateMutability": "view",
      "type": "function"
    },
    {
      "inputs": [],
      "name": "awardPoint",
      "outputs": [
        {
          "internalType": "bool",
          "name": "",
          "type": "bool"
        }
      ],
      "stateMutability": "view",
      "type": "function"
    },
    {
      "inputs": [],
      "name": "baseAsset",
      "outputs": [
        {
          "internalType": "contract IERC20",
          "name": "",
          "type": "address"
        }
      ],
      "stateMutability": "view",
      "type": "function"
    },
    {
      "inputs": [
        {
          "internalType": "uint256",
          "name": "unit",
          "type": "uint256"
        }
      ],
      "name": "closePool",
      "outputs": [
        {
          "internalType": "bool",
          "name": "",
          "type": "bool"
        }
      ],
      "stateMutability": "nonpayable",
      "type": "function"
    },
    {
      "inputs": [
        {
          "internalType": "uint256",
          "name": "unit",
          "type": "uint256"
        }
      ],
      "name": "contribute",
      "outputs": [
        {
          "internalType": "bool",
          "name": "",
          "type": "bool"
        }
      ],
      "stateMutability": "nonpayable",
      "type": "function"
    },
    {
      "inputs": [
        {
          "components": [
            {
              "internalType": "uint256",
              "name": "slot",
              "type": "uint256"
            },
            {
              "internalType": "uint256",
              "name": "amount",
              "type": "uint256"
            },
            {
              "internalType": "uint256",
              "name": "rate",
              "type": "uint256"
            },
            {
              "internalType": "uint256",
              "name": "earnStartDate",
              "type": "uint256"
            },
            {
              "internalType": "address",
              "name": "account",
              "type": "address"
            },
            {
              "components": [
                {
                  "internalType": "uint256",
                  "name": "fullInterest",
                  "type": "uint256"
                },
                {
                  "internalType": "uint256",
                  "name": "intPerSec",
                  "type": "uint256"
                }
              ],
              "internalType": "struct Common.Interest",
              "name": "accruals",
              "type": "tuple"
            }
          ],
          "internalType": "struct Common.Provider[]",
          "name": "providers",
          "type": "tuple[]"
        },
        {
          "internalType": "address",
          "name": "borrower",
          "type": "address"
        },
        {
          "internalType": "uint256",
          "name": "unit",
          "type": "uint256"
        }
      ],
      "name": "contributeThroughProvider",
      "outputs": [
        {
          "internalType": "bool",
          "name": "",
          "type": "bool"
        }
      ],
      "stateMutability": "nonpayable",
      "type": "function"
    },
    {
      "inputs": [
        {
          "internalType": "address[]",
          "name": "users",
          "type": "address[]"
        },
        {
          "internalType": "uint256",
          "name": "unit",
          "type": "uint256"
        },
        {
          "internalType": "uint8",
          "name": "maxQuorum",
          "type": "uint8"
        },
        {
          "internalType": "uint16",
          "name": "durationInHours",
          "type": "uint16"
        },
        {
          "internalType": "uint24",
          "name": "colCoverage",
          "type": "uint24"
        },
        {
          "internalType": "bool",
          "name": "isPermissionless",
          "type": "bool"
        },
        {
          "internalType": "contract IERC20",
          "name": "colAsset",
          "type": "address"
        }
      ],
      "name": "createPool",
      "outputs": [
        {
          "internalType": "bool",
          "name": "",
          "type": "bool"
        }
      ],
      "stateMutability": "nonpayable",
      "type": "function"
    },
    {
      "inputs": [],
      "name": "deactivateReward",
      "outputs": [
        {
          "internalType": "bool",
          "name": "",
          "type": "bool"
        }
      ],
      "stateMutability": "nonpayable",
      "type": "function"
    },
    {
      "inputs": [],
      "name": "diaOracleAddress",
      "outputs": [
        {
          "internalType": "address",
          "name": "",
          "type": "address"
        }
      ],
      "stateMutability": "view",
      "type": "function"
    },
    {
      "inputs": [
        {
          "internalType": "uint256",
          "name": "unit",
          "type": "uint256"
        },
        {
          "internalType": "uint8",
          "name": "maxQuorum",
          "type": "uint8"
        },
        {
          "internalType": "uint16",
          "name": "durationInHours",
          "type": "uint16"
        },
        {
          "internalType": "uint24",
          "name": "colCoverage",
          "type": "uint24"
        }
      ],
      "name": "editPool",
      "outputs": [
        {
          "internalType": "bool",
          "name": "",
          "type": "bool"
        }
      ],
      "stateMutability": "nonpayable",
      "type": "function"
    },
    {
      "inputs": [
        {
          "internalType": "uint256",
          "name": "unit",
          "type": "uint256"
        }
      ],
      "name": "enquireLiquidation",
      "outputs": [
        {
          "components": [
            {
              "internalType": "uint32",
              "name": "paybackTime",
              "type": "uint32"
            },
            {
              "internalType": "uint32",
              "name": "turnStartTime",
              "type": "uint32"
            },
            {
              "internalType": "uint32",
              "name": "getFinanceTime",
              "type": "uint32"
            },
            {
              "internalType": "uint256",
              "name": "loan",
              "type": "uint256"
            },
            {
              "internalType": "uint256",
              "name": "colBals",
              "type": "uint256"
            },
            {
              "internalType": "address",
              "name": "id",
              "type": "address"
            },
            {
              "internalType": "bool",
              "name": "sentQuota",
              "type": "bool"
            }
          ],
          "internalType": "struct Common.Contributor",
          "name": "profile",
          "type": "tuple"
        },
        {
          "internalType": "bool",
          "name": "defaulter",
          "type": "bool"
        },
        {
          "components": [
            {
              "internalType": "uint256",
              "name": "value",
              "type": "uint256"
            },
            {
              "internalType": "bool",
              "name": "isMember",
              "type": "bool"
            },
            {
              "internalType": "bool",
              "name": "isAdmin",
              "type": "bool"
            }
          ],
          "internalType": "struct Common.Slot",
          "name": "slot",
          "type": "tuple"
        }
      ],
      "stateMutability": "view",
      "type": "function"
    },
    {
      "inputs": [],
      "name": "feeTo",
      "outputs": [
        {
          "internalType": "address",
          "name": "",
          "type": "address"
        }
      ],
      "stateMutability": "view",
      "type": "function"
    },
    {
      "inputs": [
        {
          "internalType": "uint256",
          "name": "unit",
          "type": "uint256"
        }
      ],
      "name": "getCollateralQuote",
      "outputs": [
        {
          "internalType": "uint256",
          "name": "collateral",
          "type": "uint256"
        },
        {
          "internalType": "uint24",
          "name": "colCoverage",
          "type": "uint24"
        }
      ],
      "stateMutability": "view",
      "type": "function"
    },
    {
      "inputs": [
        {
          "internalType": "address",
          "name": "target",
          "type": "address"
        },
        {
          "internalType": "uint96",
          "name": "recordId",
          "type": "uint96"
        }
      ],
      "name": "getContributorProviders",
      "outputs": [
        {
          "components": [
            {
              "internalType": "uint256",
              "name": "slot",
              "type": "uint256"
            },
            {
              "internalType": "uint256",
              "name": "amount",
              "type": "uint256"
            },
            {
              "internalType": "uint256",
              "name": "rate",
              "type": "uint256"
            },
            {
              "internalType": "uint256",
              "name": "earnStartDate",
              "type": "uint256"
            },
            {
              "internalType": "address",
              "name": "account",
              "type": "address"
            },
            {
              "components": [
                {
                  "internalType": "uint256",
                  "name": "fullInterest",
                  "type": "uint256"
                },
                {
                  "internalType": "uint256",
                  "name": "intPerSec",
                  "type": "uint256"
                }
              ],
              "internalType": "struct Common.Interest",
              "name": "accruals",
              "type": "tuple"
            }
          ],
          "internalType": "struct Common.Provider[]",
          "name": "result",
          "type": "tuple[]"
        }
      ],
      "stateMutability": "view",
      "type": "function"
    },
    {
      "inputs": [
        {
          "internalType": "uint256",
          "name": "unit",
          "type": "uint256"
        }
      ],
      "name": "getCurrentDebt",
      "outputs": [
        {
          "internalType": "uint256",
          "name": "debt",
          "type": "uint256"
        }
      ],
      "stateMutability": "view",
      "type": "function"
    },
    {
      "inputs": [],
      "name": "getEpoches",
      "outputs": [
        {
          "internalType": "uint96",
          "name": "",
          "type": "uint96"
        }
      ],
      "stateMutability": "view",
      "type": "function"
    },
    {
      "inputs": [],
      "name": "getFactoryData",
      "outputs": [
        {
          "components": [
            {
              "components": [
                {
                  "internalType": "uint256",
                  "name": "tvlCollateral",
                  "type": "uint256"
                },
                {
                  "internalType": "uint256",
                  "name": "tvlBase",
                  "type": "uint256"
                },
                {
                  "internalType": "uint256",
                  "name": "totalPermissioned",
                  "type": "uint256"
                },
                {
                  "internalType": "uint256",
                  "name": "totalPermissionless",
                  "type": "uint256"
                }
              ],
              "internalType": "struct Common.Analytics",
              "name": "analytics",
              "type": "tuple"
            },
            {
              "internalType": "uint16",
              "name": "makerRate",
              "type": "uint16"
            },
            {
              "internalType": "uint256",
              "name": "currentEpoches",
              "type": "uint256"
            },
            {
              "internalType": "uint256",
              "name": "recordEpoches",
              "type": "uint256"
            }
          ],
          "internalType": "struct Common.ViewFactoryData",
          "name": "data",
          "type": "tuple"
        }
      ],
      "stateMutability": "view",
      "type": "function"
    },
    {
      "inputs": [
        {
          "internalType": "uint256",
          "name": "unit",
          "type": "uint256"
        }
      ],
      "name": "getFinance",
      "outputs": [
        {
          "internalType": "bool",
          "name": "",
          "type": "bool"
        }
      ],
      "stateMutability": "nonpayable",
      "type": "function"
    },
    {
      "inputs": [],
      "name": "getPastEpoches",
      "outputs": [
        {
          "internalType": "uint96",
          "name": "",
          "type": "uint96"
        }
      ],
      "stateMutability": "view",
      "type": "function"
    },
    {
      "inputs": [
        {
          "internalType": "uint256",
          "name": "unit",
          "type": "uint256"
        }
      ],
      "name": "getPoolData",
      "outputs": [
        {
          "components": [
            {
              "components": [
                {
                  "components": [
                    {
                      "internalType": "uint8",
                      "name": "maxQuorum",
                      "type": "uint8"
                    },
                    {
                      "internalType": "uint8",
                      "name": "selector",
                      "type": "uint8"
                    },
                    {
                      "internalType": "uint24",
                      "name": "colCoverage",
                      "type": "uint24"
                    },
                    {
                      "internalType": "uint32",
                      "name": "duration",
                      "type": "uint32"
                    },
                    {
                      "internalType": "uint8",
                      "name": "allGh",
                      "type": "uint8"
                    },
                    {
                      "internalType": "uint8",
                      "name": "userCount",
                      "type": "uint8"
                    }
                  ],
                  "internalType": "struct Common.Low",
                  "name": "low",
                  "type": "tuple"
                },
                {
                  "components": [
                    {
                      "internalType": "uint256",
                      "name": "unit",
                      "type": "uint256"
                    },
                    {
                      "internalType": "uint256",
                      "name": "currentPool",
                      "type": "uint256"
                    },
                    {
                      "internalType": "uint96",
                      "name": "recordId",
                      "type": "uint96"
                    },
                    {
                      "internalType": "uint96",
                      "name": "unitId",
                      "type": "uint96"
                    }
                  ],
                  "internalType": "struct Common.Big",
                  "name": "big",
                  "type": "tuple"
                },
                {
                  "components": [
                    {
                      "internalType": "contract IERC20",
                      "name": "colAsset",
                      "type": "address"
                    },
                    {
                      "internalType": "address",
                      "name": "lastPaid",
                      "type": "address"
                    },
                    {
                      "internalType": "address",
                      "name": "safe",
                      "type": "address"
                    },
                    {
                      "internalType": "address",
                      "name": "admin",
                      "type": "address"
                    }
                  ],
                  "internalType": "struct Common.Addresses",
                  "name": "addrs",
                  "type": "tuple"
                },
                {
                  "internalType": "enum Common.Router",
                  "name": "router",
                  "type": "uint8"
                },
                {
                  "internalType": "enum Common.Stage",
                  "name": "stage",
                  "type": "uint8"
                },
                {
                  "internalType": "enum Common.Status",
                  "name": "status",
                  "type": "uint8"
                }
              ],
              "internalType": "struct Common.Pool",
              "name": "pool",
              "type": "tuple"
            },
            {
              "components": [
                {
                  "internalType": "uint32",
                  "name": "paybackTime",
                  "type": "uint32"
                },
                {
                  "internalType": "uint32",
                  "name": "turnStartTime",
                  "type": "uint32"
                },
                {
                  "internalType": "uint32",
                  "name": "getFinanceTime",
                  "type": "uint32"
                },
                {
                  "internalType": "uint256",
                  "name": "loan",
                  "type": "uint256"
                },
                {
                  "internalType": "uint256",
                  "name": "colBals",
                  "type": "uint256"
                },
                {
                  "internalType": "address",
                  "name": "id",
                  "type": "address"
                },
                {
                  "internalType": "bool",
                  "name": "sentQuota",
                  "type": "bool"
                }
              ],
              "internalType": "struct Common.Contributor[]",
              "name": "cData",
              "type": "tuple[]"
            }
          ],
          "internalType": "struct Common.ReadDataReturnValue",
          "name": "result",
          "type": "tuple"
        }
      ],
      "stateMutability": "view",
      "type": "function"
    },
    {
      "inputs": [
        {
          "internalType": "uint96",
          "name": "recordId",
          "type": "uint96"
        }
      ],
      "name": "getPoolRecord",
      "outputs": [
        {
          "components": [
            {
              "components": [
                {
                  "components": [
                    {
                      "internalType": "uint8",
                      "name": "maxQuorum",
                      "type": "uint8"
                    },
                    {
                      "internalType": "uint8",
                      "name": "selector",
                      "type": "uint8"
                    },
                    {
                      "internalType": "uint24",
                      "name": "colCoverage",
                      "type": "uint24"
                    },
                    {
                      "internalType": "uint32",
                      "name": "duration",
                      "type": "uint32"
                    },
                    {
                      "internalType": "uint8",
                      "name": "allGh",
                      "type": "uint8"
                    },
                    {
                      "internalType": "uint8",
                      "name": "userCount",
                      "type": "uint8"
                    }
                  ],
                  "internalType": "struct Common.Low",
                  "name": "low",
                  "type": "tuple"
                },
                {
                  "components": [
                    {
                      "internalType": "uint256",
                      "name": "unit",
                      "type": "uint256"
                    },
                    {
                      "internalType": "uint256",
                      "name": "currentPool",
                      "type": "uint256"
                    },
                    {
                      "internalType": "uint96",
                      "name": "recordId",
                      "type": "uint96"
                    },
                    {
                      "internalType": "uint96",
                      "name": "unitId",
                      "type": "uint96"
                    }
                  ],
                  "internalType": "struct Common.Big",
                  "name": "big",
                  "type": "tuple"
                },
                {
                  "components": [
                    {
                      "internalType": "contract IERC20",
                      "name": "colAsset",
                      "type": "address"
                    },
                    {
                      "internalType": "address",
                      "name": "lastPaid",
                      "type": "address"
                    },
                    {
                      "internalType": "address",
                      "name": "safe",
                      "type": "address"
                    },
                    {
                      "internalType": "address",
                      "name": "admin",
                      "type": "address"
                    }
                  ],
                  "internalType": "struct Common.Addresses",
                  "name": "addrs",
                  "type": "tuple"
                },
                {
                  "internalType": "enum Common.Router",
                  "name": "router",
                  "type": "uint8"
                },
                {
                  "internalType": "enum Common.Stage",
                  "name": "stage",
                  "type": "uint8"
                },
                {
                  "internalType": "enum Common.Status",
                  "name": "status",
                  "type": "uint8"
                }
              ],
              "internalType": "struct Common.Pool",
              "name": "pool",
              "type": "tuple"
            },
            {
              "components": [
                {
                  "internalType": "uint32",
                  "name": "paybackTime",
                  "type": "uint32"
                },
                {
                  "internalType": "uint32",
                  "name": "turnStartTime",
                  "type": "uint32"
                },
                {
                  "internalType": "uint32",
                  "name": "getFinanceTime",
                  "type": "uint32"
                },
                {
                  "internalType": "uint256",
                  "name": "loan",
                  "type": "uint256"
                },
                {
                  "internalType": "uint256",
                  "name": "colBals",
                  "type": "uint256"
                },
                {
                  "internalType": "address",
                  "name": "id",
                  "type": "address"
                },
                {
                  "internalType": "bool",
                  "name": "sentQuota",
                  "type": "bool"
                }
              ],
              "internalType": "struct Common.Contributor[]",
              "name": "cData",
              "type": "tuple[]"
            }
          ],
          "internalType": "struct Common.ReadDataReturnValue",
          "name": "result",
          "type": "tuple"
        }
      ],
      "stateMutability": "view",
      "type": "function"
    },
    {
      "inputs": [
        {
          "internalType": "uint256",
          "name": "unit",
          "type": "uint256"
        },
        {
          "internalType": "address",
          "name": "target",
          "type": "address"
        }
      ],
      "name": "getProfile",
      "outputs": [
        {
          "components": [
            {
              "components": [
                {
                  "internalType": "uint32",
                  "name": "paybackTime",
                  "type": "uint32"
                },
                {
                  "internalType": "uint32",
                  "name": "turnStartTime",
                  "type": "uint32"
                },
                {
                  "internalType": "uint32",
                  "name": "getFinanceTime",
                  "type": "uint32"
                },
                {
                  "internalType": "uint256",
                  "name": "loan",
                  "type": "uint256"
                },
                {
                  "internalType": "uint256",
                  "name": "colBals",
                  "type": "uint256"
                },
                {
                  "internalType": "address",
                  "name": "id",
                  "type": "address"
                },
                {
                  "internalType": "bool",
                  "name": "sentQuota",
                  "type": "bool"
                }
              ],
              "internalType": "struct Common.Contributor",
              "name": "profile",
              "type": "tuple"
            },
            {
              "internalType": "uint8",
              "name": "slot",
              "type": "uint8"
            },
            {
              "components": [
                {
                  "internalType": "uint256",
                  "name": "slot",
                  "type": "uint256"
                },
                {
                  "internalType": "uint256",
                  "name": "amount",
                  "type": "uint256"
                },
                {
                  "internalType": "uint256",
                  "name": "rate",
                  "type": "uint256"
                },
                {
                  "internalType": "uint256",
                  "name": "earnStartDate",
                  "type": "uint256"
                },
                {
                  "internalType": "address",
                  "name": "account",
                  "type": "address"
                },
                {
                  "components": [
                    {
                      "internalType": "uint256",
                      "name": "fullInterest",
                      "type": "uint256"
                    },
                    {
                      "internalType": "uint256",
                      "name": "intPerSec",
                      "type": "uint256"
                    }
                  ],
                  "internalType": "struct Common.Interest",
                  "name": "accruals",
                  "type": "tuple"
                }
              ],
              "internalType": "struct Common.Provider[]",
              "name": "providers",
              "type": "tuple[]"
            }
          ],
          "internalType": "struct Common.ContributorReturnValue",
          "name": "",
          "type": "tuple"
        }
      ],
      "stateMutability": "view",
      "type": "function"
    },
    {
      "inputs": [
        {
          "internalType": "address",
          "name": "target",
          "type": "address"
        },
        {
          "internalType": "uint256",
          "name": "unit",
          "type": "uint256"
        }
      ],
      "name": "getSlot",
      "outputs": [
        {
          "components": [
            {
              "internalType": "uint256",
              "name": "value",
              "type": "uint256"
            },
            {
              "internalType": "bool",
              "name": "isMember",
              "type": "bool"
            },
            {
              "internalType": "bool",
              "name": "isAdmin",
              "type": "bool"
            }
          ],
          "internalType": "struct Common.Slot",
          "name": "",
          "type": "tuple"
        }
      ],
      "stateMutability": "view",
      "type": "function"
    },
    {
      "inputs": [
        {
          "internalType": "uint256",
          "name": "unit",
          "type": "uint256"
        }
      ],
      "name": "isPoolAvailable",
      "outputs": [
        {
          "internalType": "bool",
          "name": "",
          "type": "bool"
        }
      ],
      "stateMutability": "view",
      "type": "function"
    },
    {
      "inputs": [
        {
          "internalType": "uint256",
          "name": "unit",
          "type": "uint256"
        }
      ],
      "name": "liquidate",
      "outputs": [
        {
          "internalType": "bool",
          "name": "",
          "type": "bool"
        }
      ],
      "stateMutability": "nonpayable",
      "type": "function"
    },
    {
      "inputs": [],
      "name": "makerRate",
      "outputs": [
        {
          "internalType": "uint256",
          "name": "",
          "type": "uint256"
        }
      ],
      "stateMutability": "view",
      "type": "function"
    },
    {
      "inputs": [],
      "name": "pause",
      "outputs": [],
      "stateMutability": "nonpayable",
      "type": "function"
    },
    {
      "inputs": [],
      "name": "paused",
      "outputs": [
        {
          "internalType": "bool",
          "name": "",
          "type": "bool"
        }
      ],
      "stateMutability": "view",
      "type": "function"
    },
    {
      "inputs": [
        {
          "internalType": "uint256",
          "name": "unit",
          "type": "uint256"
        }
      ],
      "name": "payback",
      "outputs": [
        {
          "internalType": "bool",
          "name": "",
          "type": "bool"
        }
      ],
      "stateMutability": "nonpayable",
      "type": "function"
    },
    {
      "inputs": [],
      "name": "pointFactory",
      "outputs": [
        {
          "internalType": "contract IPoint",
          "name": "",
          "type": "address"
        }
      ],
      "stateMutability": "view",
      "type": "function"
    },
    {
      "inputs": [],
      "name": "roleManager",
      "outputs": [
        {
          "internalType": "contract IRoleBase",
          "name": "",
          "type": "address"
        }
      ],
      "stateMutability": "view",
      "type": "function"
    },
    {
      "inputs": [],
      "name": "safeFactory",
      "outputs": [
        {
          "internalType": "contract ISafeFactory",
          "name": "",
          "type": "address"
        }
      ],
      "stateMutability": "view",
      "type": "function"
    },
    {
      "inputs": [
        {
          "internalType": "address",
          "name": "_feeTo",
          "type": "address"
        },
        {
          "internalType": "uint16",
          "name": "_makerRate",
          "type": "uint16"
        }
      ],
      "name": "setFeeOrMakerRate",
      "outputs": [
        {
          "internalType": "bool",
          "name": "",
          "type": "bool"
        }
      ],
      "stateMutability": "nonpayable",
      "type": "function"
    },
    {
      "inputs": [
        {
          "internalType": "contract IERC20",
          "name": "collateralAsset",
          "type": "address"
        },
        {
          "internalType": "string",
          "name": "pair",
          "type": "string"
        }
      ],
      "name": "setPair",
      "outputs": [
        {
          "internalType": "bool",
          "name": "",
          "type": "bool"
        }
      ],
      "stateMutability": "nonpayable",
      "type": "function"
    },
    {
      "inputs": [
        {
          "internalType": "address",
          "name": "newManager",
          "type": "address"
        }
      ],
      "name": "setRoleManager",
      "outputs": [
        {
          "internalType": "bool",
          "name": "",
          "type": "bool"
        }
      ],
      "stateMutability": "nonpayable",
      "type": "function"
    },
    {
      "inputs": [],
      "name": "unpause",
      "outputs": [],
      "stateMutability": "nonpayable",
      "type": "function"
    }
  ],
  "transactionHash": "0xedf4a176184e299bbf88b3290d5dd4fd5cfed48e85286a6dc9c620327b0ea0e3",
  "args": [
    "0xD7c271d20c9E323336bFC843AEb8deC23B346352",
    10,
    "0x0000000000000000000000000000000000000000",
    "0x79dF2FCc7DfDdc0C85Cc1f82B1f631b4b9D994B0",
    "0x8a7a88e6Af8F2A2966D0E46E09fc46E3c3943551",
    "0x874069Fa1Eb16D44d622F2e0Ca25eeA172369bC1",
    "0x3E900B33381d24CcF0187fF891818Fe418d414C3",
    "0x7Ca7293Ce89284684Fff30F1FA76f4FFcCDeD142"
  ],
  "numDeployments": 2,
  "solcInputHash": "47cc29b7df7d125fd7e33bc185e05dc2",
  "bytecode": "0x6101206040523480156200001257600080fd5b506040516200635638038062006356833981016040819052620000359162000341565b600680546001600160a01b0319166001600160a01b038716179055878787878787878785848685858585858585858583828488888582828786848382848380826006805460ff60a01b19169055506001600160a01b0390811660805260a051811690851603620000de5760408051808201909152601581527f5f61737365744d616e61676572206973207a65726f00000000000000000000006020820152620000de90620002e1565b60c0516001600160a01b0316836001600160a01b031603620001395760408051808201909152601281527f5f626173654173736574206973207a65726f000000000000000000000000000060208201526200013990620002e1565b50506001600160a01b0391821660a052811660c05294851660e0525050509086169050620001a05760408051808201909152601581527f49506f696e74466163746f7279206973207a65726f00000000000000000000006020820152620001a090620002e1565b6001600960006101000a81548160ff021916908315150217905550846001600160a01b0316610100816001600160a01b031681525050505050505050505050505050505050505050600c60009054906101000a90046001600160a01b03166001600160a01b0316886001600160a01b031603620002565760408051808201909152600f81527f5f666565546f20697320656d707479000000000000000000000000000000000060208201526200025690620002e1565b61271061ffff88161115620002a45760408051808201909152601281527f496e76616c6964206d616b6572207261746500000000000000000000000000006020820152620002a490620002e1565b5050600c80546001600160a01b0319166001600160a01b03979097169690961790955550505061ffff16600d555062000459975050505050505050565b8051156200032857806040517fcc8610630000000000000000000000000000000000000000000000000000000081526004016200031f919062000408565b60405180910390fd5b50565b6001600160a01b03811681146200032857600080fd5b600080600080600080600080610100898b0312156200035f57600080fd5b88516200036c816200032b565b60208a015190985061ffff811681146200038557600080fd5b60408a015190975062000398816200032b565b60608a0151909650620003ab816200032b565b60808a0151909550620003be816200032b565b60a08a0151909450620003d1816200032b565b60c08a0151909350620003e4816200032b565b60e08a0151909250620003f7816200032b565b809150509295985092959890939650565b60006020808352835180602085015260005b8181101562000438578581018301518582016040015282016200041a565b506000604082860101526040601f19601f8301168501019250505092915050565b60805160a05160c05160e05161010051615e33620005236000396000818161052c0152818161285001526128fe0152600081816103ee0152818161387b015281816149ed0152614a3401526000818161056601528181610a5801528181611218015281816117900152818161245e015281816134fb0152818161356d015281816135d1015281816143320152614b3201526000818161046001528181610763015281816117e6015281816124b40152614b8801526000818161027e0152614e6d0152615e336000f3fe608060405234801561001057600080fd5b50600436106102315760003560e01c80637d07db3c11610130578063c61778e9116100b8578063e95b110d1161007c578063e95b110d146105bb578063e9629168146105c3578063ed4c6cd8146105d6578063f1d588c5146105f6578063f8e497dc1461060957600080fd5b8063c61778e914610527578063c93c74e31461054e578063cdf456e114610561578063d21c87ad14610588578063e0709823146105a857600080fd5b806394217ad1116100ff57806394217ad11461045b5780639d672294146104825780639e6fbfd3146104ae578063a846c2fd14610501578063c1cbbca71461051457600080fd5b80637d07db3c146103e957806380d5ac8a146104105780638456cb59146104465780638b3c53cb1461044e57600080fd5b80633fd97927116101be57806359d2f32b1161018257806359d2f32b1461038d5780635c975abb146103a05780635f7b1a2d146103b25780636d0406fd146103ce57806371d5501b146103e157600080fd5b80633fd979271461032b578063415f12401461034b578063435daefc1461035e578063553c305a1461036757806358f0bd6d1461037a57600080fd5b80631a055c1a116102055780631a055c1a146102c157806321c05300146102e35780632ef3946f146102fb57806337de615f1461030e5780633f4ba83a1461032157600080fd5b8062435da514610236578063017e7e5814610266578063131e7e1c1461027957806313c8e60d146102a0575b600080fd5b600654610249906001600160a01b031681565b6040516001600160a01b0390911681526020015b60405180910390f35b600c54610249906001600160a01b031681565b6102497f000000000000000000000000000000000000000000000000000000000000000081565b6102b36102ae36600461518d565b610629565b60405190815260200161025d565b6102d46102cf36600461518d565b61063b565b60405161025d93929190615200565b6102eb610675565b604051901515815260200161025d565b6102eb6103093660046152f1565b6106cf565b6102eb61031c36600461518d565b61088c565b610329610b5b565b005b61033e61033936600461542e565b610bb8565b60405161025d91906154af565b6102eb61035936600461518d565b610bd3565b6102b3600d5481565b6102eb61037536600461518d565b610d1b565b6102eb61038836600461555c565b610d43565b6102eb61039b3660046155a9565b610edf565b600654600160a01b900460ff166102eb565b6000545b6040516001600160601b03909116815260200161025d565b6102eb6103dc36600461518d565b610f65565b6103b661139a565b6102497f000000000000000000000000000000000000000000000000000000000000000081565b600e54600f546010546011546104269392919084565b60408051948552602085019390935291830152606082015260800161025d565b6103296113a4565b6009546102eb9060ff1681565b6102497f000000000000000000000000000000000000000000000000000000000000000081565b61049561049036600461518d565b6113ef565b6040805192835262ffffff90911660208301520161025d565b6104b6611404565b604080518251805182526020808201518184015281840151838501526060918201518284015284015161ffff1660808301529183015160a082015291015160c082015260e00161025d565b6102eb61050f36600461518d565b611470565b6102eb61052236600461518d565b6114f3565b6102497f000000000000000000000000000000000000000000000000000000000000000081565b6102eb61055c3660046155f7565b611587565b6102497f000000000000000000000000000000000000000000000000000000000000000081565b61059b61059636600461518d565b611678565b60405161025d9190615852565b6102eb6105b6366004615881565b611783565b6102eb611926565b61059b6105d1366004615940565b61197d565b6105e96105e436600461595b565b611a5f565b60405161025d9190615987565b6102eb6106043660046159ac565b611a86565b61061c6106173660046159c9565b611ab3565b60405161025d91906159f5565b600061063482611abf565b5092915050565b610643614efa565b6040805160608101825260008082526020820181905291810182905261066884611d2d565b9250925092509193909250565b600061067f611df9565b60095460ff16156106bb576106bb6040518060400160405280601081526020016f5265776172642069732061637469766560801b815250611e78565b506009805460ff1916600190811790915590565b60006106d9611df9565b6106e1611ea3565b6106e9614f36565b6106f283610d1b565b1561075d5761070083611ed0565b905061070d838583612097565b905061072181602001516060015182612221565b7f03d06435b835aed8e31056998d82805968e80861808275303d222099b83e61e0816040516107509190615a3e565b60405180910390a161085e565b606060007f00000000000000000000000000000000000000000000000000000000000000006001600160a01b031663739c13db6040518163ffffffff1660e01b8152600401602060405180830381865afa1580156107bf573d6000803e3d6000fd5b505050506040513d601f19601f820116820180604052508101906107e39190615a4d565b90506107f9828787600260486078600088612415565b92506108248260008151811061081157610811615a6a565b60200260200101516000600560006127f1565b7fb161ed253087c33a1ed470e454d38c38a1b3cf735f6387e8755f5c85ec1496c1836040516108539190615a3e565b60405180910390a150505b61087185858360200151604001516129af565b61087f836000806001612a89565b60019150505b9392505050565b6000610896611ea3565b816108a081612bac565b6108d5576108d56040518060400160405280601081526020016f556e697420697320696e41637469766560801b815250611e78565b60006108e084611ed0565b60408101516060015190915033906001600160a01b0316811461093b5761093b6040518060400160405280601981526020017f4f6e6c792041646d696e2063616e20636c6f736520706f6f6c00000000000000815250611e78565b60008083606001516001811115610954576109546156c5565b14905080156109ac576001836000015160a0015160ff1611156109a7576109a76040518060400160405280601581526020017410d85b98d95b1b185d1a5bdb88191a5cd8589b1959605a1b815250611e78565b6109f3565b602080840151805191015111156109f3576109f36040518060400160405280601581526020017410d85b98d95b1b185d1a5bdb88191a5cd8589b1959605a1b815250611e78565b610a02826000600560016127f1565b60036080840152610a1283612bf4565b602083015151610a26906000600384612a89565b6040838101518101516020850151805190830151925163bb16369f60e01b81526001600160a01b0386811660048301527f00000000000000000000000000000000000000000000000000000000000000008116602483015260448201929092526001600160601b039093166064840152169063bb16369f906084016020604051808303816000875af1158015610ac0573d6000803e3d6000fd5b505050506040513d601f19601f82011682018060405250810190610ae49190615a80565b610b1957610b196040518060400160405280601081526020016f14d859994818d85b1b0819985a5b195960821b815250611e78565b6040518681527f79d50744e568d2dcbac1c613dc0f174be90b0121dbc73682de80b3c4ebc5d1e7906020015b60405180910390a1600194505050505b50919050565b610b63611df9565b610b6b612ecd565b6006805460ff60a01b191690557f5db9ee0a495bf2e6ff9c91a7834c1ba4fdd244a5e8aa4e537bd38aeae4b073aa335b6040516001600160a01b03909116815260200160405180910390a1565b610bc0614fdd565b610bca8284612ef7565b90505b92915050565b6000610bdd611ea3565b6000806000610beb85611d2d565b92509250925081610c2457610c246040518060400160405280600d81526020016c139bdd08191959985d5b1d1959609a1b815250611e78565b33610c2f8187612fec565b610c5081610c3c88611ed0565b6020015160400151848760a001518a613032565b8360a001516001600160a01b0316816001600160a01b031603610c7557610c75615a9d565b610c7f8187613203565b6000806000610c95898560018a60a00151613257565b925092509250610cad83602001516060015184612221565b610cd38282600260005b87606001516001811115610ccd57610ccd6156c5565b14612a89565b7f2f5bbba2897c0da2732c0b1eec00e0d12fe536c653a8575198092bed62561a7c83604051610d029190615a3e565b60405180910390a160019750505050505050505b919050565b600080610d2783611ed0565b60a001516001811115610d3c57610d3c6156c5565b1492915050565b600084610d4f81612bac565b610d8457610d846040518060400160405280601081526020016f556e697420697320696e41637469766560801b815250611e78565b610d8c611ea3565b6000610d9787611ed0565b905060008160400151606001516001600160a01b0316610db43390565b6001600160a01b031614610dee57610dee6040518060400160405280600b81526020016a139bdd08105b1b1bddd95960aa1b815250611e78565b5080515161ffff610e108702169060ff908116908816118015610e13575060ff878116105b15610e2157815160ff881690525b6102d08661ffff1611158015610e4a575081600001516060015163ffffffff168163ffffffff16115b15610e5f57815163ffffffff82166060909101525b81600001516040015162ffffff168562ffffff161115610e8857815162ffffff86166040909101525b610e9a82602001516060015183612221565b7f136b0bab8d4b28df6bdf26f270fde904c2c696b6bf243dde423642fff1df24b382604051610ec99190615a3e565b60405180910390a1506001979650505050505050565b6000610ee9611df9565b600c546001600160a01b03848116911614801590610f0f57506001600160a01b03831615155b15610f3057600c80546001600160a01b0319166001600160a01b0385161790555b60008261ffff16118015610f49575061271061ffff8316105b15610f575761ffff8216600d555b50600192915050565b905090565b600081610f7181612bac565b610fa657610fa66040518060400160405280601081526020016f556e697420697320696e41637469766560801b815250611e78565b610fae611ea3565b610fba338460006137c8565b6000610fc584613811565b5090506000610fd385611ed0565b90506000610fe9868360000151602001516138ce565b9050600182608001516004811115611003576110036156c5565b14611039576110396040518060400160405280601081526020016f426f72726f77206e6f7420726561647960801b815250611e78565b8151805160809091015160ff91821691160361107b5761107b6040518060400160405280600b81526020016a115c1bd8da08195b99195960aa1b815250611e78565b815151602080840151805191015160ff9092160211156110ca576110ca60405180604001604052806014815260200173506f6f6c2066756e6420696e636f6d706c65746560601b815250611e78565b8060200151610e100163ffffffff166110e04290565b63ffffffff1611156111265760a08101516001600160a01b0316336001600160a01b0316146111215761111e8633611118338a6139a0565b84613a0e565b90505b611179565b60a08101516001600160a01b0316336001600160a01b03161461117957611179604051806040016040528060158152602001745475726e54696d6520686173206e6f74207061737360581b815250611e78565b8151608001805160ff60019182011690915260a082015160408401516001600160a01b039091166020918201528084015101516111ca918590600086606001516001811115610ccd57610ccd6156c5565b6111ea8260400151600001518260a0015184604001516040015186613aa9565b50604080830151015160a08201516020808501510151600d546001600160a01b039093169263d4e8694492917f000000000000000000000000000000000000000000000000000000000000000091611243908290613b9f565b602088015160409081015190516001600160e01b031960e088901b1681526001600160a01b03958616600482015294909316602485015260448401919091526064830152608482018790526001600160601b031660a482015260c4016020604051808303816000875af11580156112be573d6000803e3d6000fd5b505050506040513d601f19601f820116820180604052508101906112e29190615a80565b611317576113176040518060400160405280601081526020016f14d859994818d85b1b0819985a5b195960821b815250611e78565b611322828483613bab565b8092508193505050611359818360200151604001516113518560400151602001518660200151600001516139a0565b516000613e2f565b61136b82602001516060015183612221565b7fe34571ffc6f937a259747d53f9fab8d617fd8a80c8cc077638061beead4d3ff882604051610b459190615a3e565b6000610f60613f27565b6113ac611df9565b6113b4611ea3565b6006805460ff60a01b1916600160a01b1790557f62e78cea01bee320cd4e420270b5ea74000d11b0c9f74754ebdbfc544b05a258610b9b3390565b6000806113fb83613811565b91509150915091565b61140c615004565b60408051608081018252600e548152600f546020808301919091526010549282019290925260115460608201528252600d5461ffff169082015261144e613f27565b6001600160601b031660408201526000546001600160601b0316606082015290565b600061147a611ea3565b6000808061148b8533600080613257565b9250925092506114a383602001516060015184612221565b6114b1828260026000610cb7565b7f2f5bbba2897c0da2732c0b1eec00e0d12fe536c653a8575198092bed62561a7c836040516114e09190615a3e565b60405180910390a1506001949350505050565b60006114fd611ea3565b600061150883611ed0565b9050611515833383612097565b905061152981602001516060015182612221565b611547836000808085606001516001811115610ccd57610ccd6156c5565b7f03d06435b835aed8e31056998d82805968e80861808275303d222099b83e61e0816040516115769190615a3e565b60405180910390a150600192915050565b6000611591611ea3565b60006115ec8a8a808060200260200160405190810160405280939291908181526020018383602002808284376000920191909152506115d39250612bf0915050565b8a8a8a8a8a6115e35760016115e6565b60005b8a612415565b90506116248a8a600081811061160457611604615a6a565b905060200201602081019061161991906159ac565b6000600560006127f1565b6116318860008087612a89565b7fb161ed253087c33a1ed470e454d38c38a1b3cf735f6387e8755f5c85ec1496c1816040516116609190615a3e565b60405180910390a15060019998505050505050505050565b611680615059565b600a600061168d84611ed0565b60200151604001516001600160601b03166001600160601b03168152602001908152602001600020805480602002602001604051908101604052809291908181526020016000905b8282101561176a5760008481526020908190206040805160e08101825260048602909201805463ffffffff8082168552600160201b8204811685870152600160401b90910416918301919091526001808201546060840152600282015460808401526003909101546001600160a01b03811660a0840152600160a01b900460ff16151560c083015290835290920191016116d5565b50505050602082015261177c82611ed0565b8152919050565b600061178d611df9565b827f00000000000000000000000000000000000000000000000000000000000000006001600160a01b0316816001600160a01b03161461188757604051634df48c7360e11b81526001600160a01b0382811660048301527f00000000000000000000000000000000000000000000000000000000000000001690639be918e690602401602060405180830381865afa15801561182d573d6000803e3d6000fd5b505050506040513d601f19601f820116820180604052508101906118519190615a80565b6118875761188760405180604001604052806011815260200170155b9cdd5c1c1bdc9d195908105cdcd95d607a1b815250611e78565b82516000036118bd576118bd6040518060400160405280600c81526020016b24b73b30b634b2103830b4b960a11b815250611e78565b6001600160a01b0384166118f9576118f96040518060400160405280600d81526020016c4173736574206973207a65726f60981b815250611e78565b6001600160a01b038416600090815260086020526040902061191b8482615b2f565b506001949350505050565b6000611930611df9565b60095460ff1661196d5761196d6040518060400160405280601281526020017152657761726420697320696e41637469766560701b815250611e78565b506009805460ff19169055600190565b611985615059565b6001600160601b0382166000908152600a6020908152604080832080548251818502810185019093528083529193909284015b82821015611a4d5760008481526020908190206040805160e08101825260048602909201805463ffffffff8082168552600160201b8204811685870152600160401b90910416918301919091526001808201546060840152600282015460808401526003909101546001600160a01b03811660a0840152600160a01b900460ff16151560c083015290835290920191016119b8565b50505050602082015261177c82613f32565b6040805160608101825260008082526020820181905291810191909152610bca83836139a0565b6000611a90611df9565b600680546001600160a01b0319166001600160a01b038416179055506001919050565b6060610bca838361405f565b6000611ac9614f36565b611ad283611ed0565b6040810151602001519091506001600160a01b0316611af357611af3615a9d565b6020808201516040908101516001600160601b03166000908152600a835281812080548351818602810186019094528084529193909190849084015b82821015611bc45760008481526020908190206040805160e08101825260048602909201805463ffffffff8082168552600160201b8204811685870152600160401b90910416918301919091526001808201546060840152600282015460808401526003909101546001600160a01b03811660a0840152600160a01b900460ff16151560c08301529083529092019101611b2f565b505050509050600081511115611d275760005b8151811015611d25576000611c09838381518110611bf757611bf7615a6a565b602002602001015160a0015187612ef7565b90508360400151602001516001600160a01b0316816000015160a001516001600160a01b031603611c4757805160600151611c449086615c05565b94505b60408101515115611d1c5760005b816040015151811015611d1a57600082604001518281518110611c7a57611c7a615a6a565b602002602001015190508060600151611c904290565b63ffffffff161115611d11578560400151602001516001600160a01b0316836000015160a001516001600160a01b031603611ce55760608101514263ffffffff16038160a00151602001510287019650611d11565b60608101514263ffffffff160360028260a001516020015181611d0a57611d0a615c18565b0402870196505b50600101611c55565b505b50600101611bd7565b505b50915091565b611d35614efa565b604080516060810182526000808252602082018190529181018290526000611d5c85611ed0565b6040810151602001519091506001600160a01b0316611d7d57611d7d615a9d565b6000611d9182604001516020015187612ef7565b51805190915063ffffffff164263ffffffff161115611df0578060a001516001600160a01b03168260400151602001516001600160a01b031614611dd757611dd7615a9d565b806001611de88360a00151896139a0565b919650945092505b50509193909250565b6006546001600160a01b031680611e3a57611e3a6040518060400160405280600f81526020016e4d616e61676572206973207a65726f60881b815250611e78565b611e433361413a565b611e7557611e756040518060400160405280600d81526020016c1058d8d95cdcc819195b9a5959609a1b815250611e78565b50565b805115611e75578060405163cc86106360e01b8152600401611e9a9190615c2e565b60405180910390fd5b600654600160a01b900460ff1615611ece5760405163d93c066560e01b815260040160405180910390fd5b565b611ed8614f36565b6000828152600460208181526040808420546001600160601b039081168552600380845294829020825161018081018452815460ff80821660c08401908152610100808404831660e086015262010000840462ffffff1690850152600160281b830463ffffffff16610120850152600160481b83048216610140850152600160501b909204811661016084015290825284516080808201875260018086015483526002860154838a01529985015480871683890152600160601b90049095166060808301919091528388019190915285519485018652968301546001600160a01b0390811685526005840154811696850196909652600683015486168486015260078301549095168387015292830191909152600881015491949093850192919091169081111561200b5761200b6156c5565b600181111561201c5761201c6156c5565b81526020016008820160019054906101000a900460ff166004811115612044576120446156c5565b6004811115612055576120556156c5565b81526020016008820160029054906101000a900460ff16600181111561207d5761207d6156c5565b600181111561208e5761208e6156c5565b90525092915050565b61209f614f36565b836120a981612bac565b6120de576120de6040518060400160405280601081526020016f556e697420697320696e41637469766560801b815250611e78565b6000836080015160048111156120f6576120f66156c5565b14612129576121296040518060400160405280600d81526020016c496e76616c696420737461676560981b815250611e78565b612131614fdd565b6020808501518051910180519091019052835160a001805160ff6001918201169091528460600151600181111561216a5761216a6156c5565b036121965761217b858760006137c8565b6121858587612ef7565b8051600160c09091015290506121b3565b6121a08587612fec565b6121b084878760006001806141a9565b90505b6121d0816000015185602001516040015183602001516000613e2f565b6121f2846001866060015160018111156121ec576121ec6156c5565b1461423b565b1561220b5761220360008742614273565b600160808501525b839250612218858561432d565b50509392505050565b6001600160601b038083166000908152600360208181526040928390208551805182548285015183880151606080860151608087015160a09097015160ff908116600160501b0260ff60501b19988216600160481b029890981661ffff60481b1963ffffffff909316600160281b0268ffffffff00000000001962ffffff90961662010000029590951668ffffffffffffff0000199683166101000261ffff199098169290981691909117959095179390931694909417171617919091178255828701518051600180850191909155818501516002850155818701519584018054928401518916600160601b026001600160c01b03199093169690981695909517179095558386015180516004830180546001600160a01b039283166001600160a01b03199182161790915593820151600584018054918316918616919091179055948101516006830180549187169185169190911790558501516007820180549190951692169190911790925591830151600882018054859460ff19919091169083818111156123b4576123b46156c5565b0217905550608082015160088201805461ff0019166101008360048111156123de576123de6156c5565b021790555060a082015160088201805462ff000019166201000083600181111561240a5761240a6156c5565b021790555050505050565b61241d614f36565b8661242781612bac565b1561245b5761245b6040518060400160405280600e81526020016d556e69742069732061637469766560901b815250611e78565b827f00000000000000000000000000000000000000000000000000000000000000006001600160a01b0316816001600160a01b03161461255557604051634df48c7360e11b81526001600160a01b0382811660048301527f00000000000000000000000000000000000000000000000000000000000000001690639be918e690602401602060405180830381865afa1580156124fb573d6000803e3d6000fd5b505050506040513d601f19601f8201168201806040525081019061251f9190615a80565b6125555761255560405180604001604052806011815260200170155b9cdd5c1c1bdc9d195908105cdcd95d607a1b815250611e78565b61ffff8716158061256b57506102d08761ffff16115b156125a1576125a16040518060400160405280601081526020016f24b73b30b634b210323ab930ba34b7b760811b815250611e78565b60008560018111156125b5576125b56156c5565b036126445760018b5111806125c957508a51155b156126045761260460405180604001604052806015815260200174115e1c1958dd080c481a5d195b481a5b881b1a5cdd605a1b815250611e78565b896001600160a01b03168b60008151811061262157612621615a6a565b60200260200101516001600160a01b03161461263f5761263f615a9d565b6126f2565b60028b51101561268c5761268c6040518060400160405280601881526020017f4c69737420746f6f206c6f7720666f7220726f75746572320000000000000000815250611e78565b8a60008151811061269f5761269f615a6a565b60200260200101516001600160a01b03168a6001600160a01b0316146126f2576126f26040518060400160405280601281526020017114d95b99195c881b9bdd081a5b881b1a5cdd60721b815250611e78565b6000806126fe8b61442a565b915091506127a46040518061012001604052808d8152602001846001600160601b03168152602001836001600160601b031681526020018c60ff1681526020018a62ffffff168152602001886001600160a01b031681526020018b61ffff1681526020018f60008151811061277557612775615a6a565b60200260200101516001600160a01b0316815260200189600181111561279d5761279d6156c5565b9052614484565b94506127b18b8e876145d8565b94506127bd8286612221565b6127e18d6000815181106127d3576127d3615a6a565b60200260200101518661432d565b5050505098975050505050505050565b6040805160608101825260ff8086168252841660208201526000918101829052826128c4576040805163dc5c143760e01b81526001600160a01b03888116600483015283516024830152602084015160448301529183015160648201527f00000000000000000000000000000000000000000000000000000000000000009091169063dc5c1437906084016020604051808303816000875af115801561289b573d6000803e3d6000fd5b505050506040513d601f19601f820116820180604052508101906128bf9190615a80565b61296d565b6040805163f7c8e59160e01b81526001600160a01b03888116600483015283516024830152602084015160448301529183015160648201527f00000000000000000000000000000000000000000000000000000000000000009091169063f7c8e591906084016020604051808303816000875af1158015612949573d6000803e3d6000fd5b505050506040513d601f19601f8201168201806040525081019061296d9190615a80565b9150816129a7576129a760405180604001604052806012815260200171141bda5b9d08185dd85c990819985a5b195960721b815250611e78565b505050505050565b60005b8351811015612a83576001600160601b0382166000908152600b602090815260408083206001600160a01b0387168452909152902084518590839081106129fb576129fb615a6a565b60209081029190910181015182546001808201855560009485529383902082516007909202019081558183015181850155604082015160028201556060820151600382015560808201516004820180546001600160a01b0319166001600160a01b0390921691909117905560a0909101518051600583015590910151600690910155016129b2565b50505050565b60408051608081018252600e548152600f5460208201526010549181019190915260115460608201526000836004811115612ac657612ac66156c5565b03612b00576020810180518601905281612aec5760408101805160010190819052612afa565b606081018051600101908190525b50612b8a565b6001836004811115612b1457612b146156c5565b03612b3b5784816020015110612b305760208101805186900390525b805184018152612b8a565b6002836004811115612b4f57612b4f6156c5565b03612b735780518411612b6457805184900381525b60208101805186019052612b8a565b84816020015110612b8a5760208101805186900390525b8051600e556020810151600f5560408101516010556060015160115550505050565b6000818152600460209081526040808320546001600160601b03168352600390915281206008015460019062010000900460ff1681811115610d3c57610d3c6156c5565b3390565b60008080526003602090815260408051610180810182527f3617319a054d772f909f7c479a2cebe5066e836a939412e32403c99029b92eff805460ff80821660c08501908152610100808404831660e087015262ffffff620100008504169086015263ffffffff600160281b840416610120860152600160481b83048216610140860152600160501b90920481166101608501529083528351608080820186527f3617319a054d772f909f7c479a2cebe5066e836a939412e32403c99029b92f005482527f3617319a054d772f909f7c479a2cebe5066e836a939412e32403c99029b92f0154828801527f3617319a054d772f909f7c479a2cebe5066e836a939412e32403c99029b92f02546001600160601b0381811684890152600160601b9091041660608084019190915285880192909252855190810186527f3617319a054d772f909f7c479a2cebe5066e836a939412e32403c99029b92f03546001600160a01b0390811682527f3617319a054d772f909f7c479a2cebe5066e836a939412e32403c99029b92f04548116978201979097527f3617319a054d772f909f7c479a2cebe5066e836a939412e32403c99029b92f05548716818701527f3617319a054d772f909f7c479a2cebe5066e836a939412e32403c99029b92f065490961686820152938301949094527f3617319a054d772f909f7c479a2cebe5066e836a939412e32403c99029b92f075491939092840191166001811115612e1c57612e1c6156c5565b6001811115612e2d57612e2d6156c5565b81526020016008820160019054906101000a900460ff166004811115612e5557612e556156c5565b6004811115612e6657612e666156c5565b81526020016008820160029054906101000a900460ff166001811115612e8e57612e8e6156c5565b6001811115612e9f57612e9f6156c5565b815250509050612eb782602001516060015182612221565b612ec98260200151604001518361470a565b5050565b600654600160a01b900460ff16611ece57604051638dfc202b60e01b815260040160405180910390fd5b612eff614fdd565b6000612f0a83614896565b9050612f1684846139a0565b5160ff90811660208085019182526001600160601b0384166000908152600a9091526040902090518154919216908110612f5257612f52615a6a565b60009182526020918290206040805160e0810182526004909302909101805463ffffffff8082168552600160201b8204811695850195909552600160401b90049093169082015260018201546060820152600282015460808201526003909101546001600160a01b03811660a083015260ff600160a01b90910416151560c08201528252612fe0848261405f565b60408301525092915050565b612ff682826139a0565b6020015115612ec957612ec96040518060400160405280601281526020017113595b58995c881b9bdd08185b1b1bddd95960721b815250611e78565b6001600160601b0384166000908152600b602090815260408083206001600160a01b0386168452825280832080548251818502810185019093528083529192909190849084015b828210156130ff5760008481526020908190206040805160c0810182526007860290920180548352600180820154848601526002820154848401526003820154606085015260048201546001600160a01b031660808501528251808401909352600582015483526006909101548285015260a08301919091529083529092019101613079565b505050509050600081511115613186576001600160601b0385166000908152600b602090815260408083206001600160a01b0387811685529252808320918916835290912081546131509290615079565b506001600160601b0385166000908152600b602090815260408083206001600160a01b0387168452909152812061318691615127565b6001600160601b0385166000908152600a60205260409020845181548892919081106131b4576131b4615a6a565b906000526020600020906004020160030160006101000a8154816001600160a01b0302191690836001600160a01b031602179055506131f686838660006148af565b6129a783838660016148af565b816003600061321184611ed0565b602090810151606001516001600160601b0316825281019190915260400160002060050180546001600160a01b0319166001600160a01b03929092169190911790555050565b61325f614f36565b6000808661326c81612bac565b6132a1576132a16040518060400160405280601081526020016f556e697420697320696e41637469766560801b815250611e78565b6132aa88611abf565b9450925060008390036132e5576132e56040518060400160405280600d81526020016c139bc81919589d08199bdd5b99609a1b815250611e78565b60006132f98560400151602001518a6139a0565b516020808701516040908101516001600160601b03166000908152600a9092528120805492935090918390811061333257613332615a6a565b9060005260206000209060040201600101819055506000600a60008760200151604001516001600160601b03166001600160601b03168152602001908152602001600020828154811061338757613387615a6a565b6000918252602090912060026004909202010155426020808701516040908101516001600160601b03166000908152600a90925290208054839081106133cf576133cf615a6a565b60009182526020909120600490910201805463ffffffff191663ffffffff9290921691909117905560095460ff16156134185761341885604001516020015160026000806127f1565b84516080810151905160ff918216911603613442576004608086015261343d85612bf4565b6134d1565b426020808701516040908101516001600160601b03166000908152600a835220875190910151815460ff90911690811061347e5761347e615a6a565b6000918252602091829020600490910201805467ffffffff000000001916600160201b63ffffffff9490941693909302929092179091556001608087015285515186820151805160ff9092169091029101525b60408581015181015190516370a0823160e01b81526001600160a01b0391821660048201526000917f000000000000000000000000000000000000000000000000000000000000000016906370a0823190602401602060405180830381865afa158015613542573d6000803e3d6000fd5b505050506040513d601f19601f820116820180604052508101906135669190615c7d565b905061359c7f00000000000000000000000000000000000000000000000000000000000000008a88604001516040015188613aa9565b508560400151604001516001600160a01b031663397c39bd6040518061014001604052808c6001600160a01b031681526020017f00000000000000000000000000000000000000000000000000000000000000006001600160a01b0316815260200188815260200184815260200189600001516080015160ff168a600001516000015160ff161415158152602001600a60008b60200151604001516001600160601b03166001600160601b03168152602001908152602001600020805480602002602001604051908101604052809291908181526020016000905b8282101561370c5760008481526020908190206040805160e08101825260048602909201805463ffffffff8082168552600160201b8204811685870152600160401b90910416918301919091526001808201546060840152600282015460808401526003909101546001600160a01b03811660a0840152600160a01b900460ff16151560c08301529083529092019101613677565b5050505081526020018b151581526020018a6001600160a01b031681526020018960200151604001516001600160601b031681526020018960400151600001516001600160a01b03168152508c6040518363ffffffff1660e01b8152600401613776929190615c96565b6020604051808303816000875af1158015613795573d6000803e3d6000fd5b505050506040513d601f19601f820116820180604052508101906137b99190615c7d565b93505050509450945094915050565b8061380c576137d783836139a0565b6020015161380c5761380c6040518060400160405280600c81526020016b2737ba10309036b2b6b132b960a11b815250611e78565b505050565b600080600061381f84611ed0565b60208101515190915015611d27576138be81600001516040015182600001516000015160ff1683602001516000015102604051806040016040528061386b86604001516000015161493a565b6001600160801b031681526020017f00000000000000000000000000000000000000000000000000000000000000006001600160a01b0316156138af5760086138b2565b60125b60ff1690529190614ac3565b9051604001519094909350915050565b6138d6614efa565b600a60006138e385614896565b6001600160601b03166001600160601b031681526020019081526020016000208260ff168154811061391757613917615a6a565b60009182526020918290206040805160e0810182526004909302909101805463ffffffff8082168552600160201b8204811695850195909552600160401b90049093169082015260018201546060820152600282015460808201526003909101546001600160a01b03811660a083015260ff600160a01b90910416151560c08201529392505050565b6040805160608082018352600080835260208084018290529284018190526001600160a01b03959095168552600582528285209385529281529281902081519283018252805483526001015460ff808216151594840194909452610100900490921615159181019190915290565b613a16614efa565b613a22848660006137c8565b6000613a2d86614896565b90506000613a3b86886139a0565b9050613a478688612ef7565b519250613a5786888760006148af565b613a688460a00151888360006148af565b6001600160a01b03861660a08086018290528401528451613a8e90859084906000613e2f565b613a9f838383600001516000613e2f565b5050949350505050565b6000613ab6858584614b2d565b90506001600160a01b038316613ace57613ace615a9d565b6001600160a01b038516613ae457613ae4615a9d565b8015613b97576040516323b872dd60e01b81526001600160a01b0385811660048301528481166024830152604482018390528616906323b872dd906064016020604051808303816000875af1158015613b41573d6000803e3d6000fd5b505050506040513d601f19601f82011682018060405250810190613b659190615a80565b613b9757613b976040518060400160405280600d81526020016c151c9e11995c8819985a5b1959609a1b815250611e78565b949350505050565b6000610bca8383614d0e565b613bb3614f36565b613bbb614efa565b8451602001805190613bcc82615d77565b60ff16905250845160600151420163ffffffff16835260808301849052602085810180518201516060860152516040908101516001600160601b03166000908152600b8352818120828901518401516001600160a01b03168252835281812080548351818602810186019094528084529193909190849084015b82821015613ccc5760008481526020908190206040805160c0810182526007860290920180548352600180820154848601526002820154848401526003820154606085015260048201546001600160a01b031660808501528251808401909352600582015483526006909101548285015260a08301919091529083529092019101613c46565b50505050905060005b8151811015613e13576020878101516040908101516001600160601b03166000908152600b8352818120828b01518401516001600160a01b031682529092529020805463ffffffff4216919083908110613d3157613d31615a6a565b906000526020600020906007020160030181905550613d9d828281518110613d5b57613d5b615a6a565b602002602001015160400151886000015160600151848481518110613d8257613d82615a6a565b602002602001015160200151614dbc9092919063ffffffff16565b6020808901516040908101516001600160601b03166000908152600b8352818120828c01518401516001600160a01b031682529092529020805483908110613de757613de7615a6a565b600091825260209182902083516005600790930290910191820155910151600690910155600101613cd5565b5050505060208381015160009101526002608084015291929050565b613e37614efa565b81613e425784613e44565b805b6001600160601b0385166000908152600a60205260409020805460ff8616908110613e7157613e71615a6a565b60009182526020918290208351600490920201805492840151604085015163ffffffff908116600160401b026bffffffff000000000000000019928216600160201b0267ffffffffffffffff1990961691909416179390931792909216178155606082015160018201556080820151600282015560a08201516003909101805460c0909301511515600160a01b026001600160a81b03199093166001600160a01b03909216919091179190911790555050505050565b6000610f6060025490565b613f3a614f36565b6001600160601b03808316600090815260016020818152604092839020835161018081018552815460ff80821660c08401908152610100808404831660e086015262ffffff620100008504169085015263ffffffff600160281b840416610120850152600160481b83048216610140850152600160501b90920481166101608401529082528551608080820188528487015482526002850154828701526003850154808a16838a0152600160601b9004909816606080830191909152838601919091528651978801875260048401546001600160a01b0390811689526005850154811695890195909552600684015485168888015260078401549094168785015294810195909552600881015490939185019291169081111561200b5761200b6156c5565b6001600160601b0381166000908152600b602090815260408083206001600160a01b03861684528252808320805482518185028101850190935280835260609492939192909184015b8282101561412e5760008481526020908190206040805160c0810182526007860290920180548352600180820154848601526002820154848401526003820154606085015260048201546001600160a01b031660808501528251808401909352600582015483526006909101548285015260a083019190915290835290920191016140a8565b50505050905092915050565b600654604051633f784de560e11b81526001600160a01b0383811660048301526000921690637ef09bca90602401602060405180830381865afa158015614185573d6000803e3d6000fd5b505050506040513d601f19601f82011682018060405250810190610bcd9190615a80565b6141b1614fdd565b6020808801516040908101516001600160601b03166000908152600a8352205460ff169082018190526141e990869088908787614e1f565b6020968701516040908101516001600160601b03166000908152600a90985287208054600101815590965285516001600160a01b0390941660a0909401939093525050825190151560c0909101525090565b6000811561425d57825151602080850151805191015160ff9092160214610bca565b505051805160a09091015160ff91821691161490565b60006001600160a01b0384166142ab5761428c83611ed0565b516020015160ff1690506142a083826138ce565b60a0015193506142b9565b6142b584846139a0565b5190505b81600a60006142c786614896565b6001600160601b03166001600160601b0316815260200190815260200160002082815481106142f8576142f8615a6a565b906000526020600020906004020160000160046101000a81548163ffffffff021916908363ffffffff16021790555050505050565b6143697f000000000000000000000000000000000000000000000000000000000000000083836040015160400151846020015160000151613aa9565b50604080820151810151602083015182015191516320d46be760e11b81526001600160a01b0385811660048301526001600160601b0390931660248201529116906341a8d7ce906044016020604051808303816000875af11580156143d2573d6000803e3d6000fd5b505050506040513d601f19601f820116820180604052508101906143f69190615a80565b612ec957612ec96040518060400160405280600f81526020016e105919081d5cd95c8819985a5b1959608a1b815250611e78565b60008061443b600280546001019055565b600254600084815260046020526040902080546bffffffffffffffffffffffff19166001600160601b038316179055915061447d600080546001810190915590565b9050915091565b61448c614f36565b6040518060c00160405280836060015160ff168152602001600060ff168152602001836080015162ffffff1681526020018360c0015161ffff16610e100263ffffffff168152602001600060ff168152602001600160ff1681525081600001819052506040518060800160405280836000015181526020018360000151815260200183604001516001600160601b0316815260200183602001516001600160601b0316815250816020018190525060405180608001604052808360a001516001600160a01b0316815260200160006001600160a01b031681526020016145758460000151614e54565b6001600160a01b03908116825260e0850151166020909101526040820152610100820151606082019060018111156145af576145af6156c5565b908160018111156145c2576145c26156c5565b905250600160a082015260006080820152919050565b6145e0614f36565b60005b8351811015614701576145f4614fdd565b8160000361462c57614625848787858151811061461357614613615a6a565b602002602001015160018060016141a9565b90506146db565b84828151811061463e5761463e615a6a565b60200260200101516001600160a01b03168560008151811061466257614662615a6a565b60200260200101516001600160a01b0316036146ae576146ae6040518060400160405280601581526020017443726561746f722073706f7474656420747769636560581b815250611e78565b6146d884878785815181106146c5576146c5615a6a565b60200260200101516000600160006141a9565b90505b6146f8816000015185602001516040015183602001516000613e2f565b506001016145e3565b50909392505050565b6001600160601b038083166000908152600160208181526040928390208551805182548285015183880151606080860151608087015160a09097015160ff908116600160501b0260ff60501b19988216600160481b029890981661ffff60481b1963ffffffff909316600160281b0268ffffffff00000000001962ffffff90961662010000029590951668ffffffffffffff0000199683166101000261ffff1990981692909816919091179590951793909316949094171716179190911782558287015180518386015580840151600284015580860151600384018054928401518916600160601b026001600160c01b03199093169190981617179095558386015180516004830180546001600160a01b039283166001600160a01b03199182161790915593820151600584018054918316918616919091179055948101516006830180549187169185169190911790558501516007820180549190951692169190911790925591830151600882018054859460ff19919091169083818111156123b4576123b46156c5565b60006148a182611ed0565b602001516040015192915050565b6040805160608101825260008082526020820181905291810191909152816148d757826148d9565b805b6001600160a01b0395909516600090815260056020908152604080832096835295815290859020865181559086015160019091018054959096015161ffff1990951690151561ff001916176101009415159490940293909317909355505050565b6001600160a01b0381166000908152600860205260408120805482919061496090615ab3565b80601f016020809104026020016040519081016040528092919081815260200182805461498c90615ab3565b80156149d95780601f106149ae576101008083540402835291602001916149d9565b820191906000526020600020905b8154815290600101906020018083116149bc57829003601f168201915b5050505050905060006001600160a01b03167f00000000000000000000000000000000000000000000000000000000000000006001600160a01b031614614ab3576040516304b01c2560e51b81526000906001600160a01b037f0000000000000000000000000000000000000000000000000000000000000000169063960384a090614a69908590600401615c2e565b6040805180830381865afa158015614a85573d6000803e3d6000fd5b505050506040513d601f19601f82011682018060405250810190614aa99190615dad565b509250610b559050565b50678ac7230489e8000092915050565b60008262ffffff16600003614ada57506000610885565b60008360640262ffffff169050600085600001516001600160801b0316866020015160ff16600a0a850281614b1157614b11615c18565b04905061271065ffffffffffff83168202049695505050505050565b6000837f00000000000000000000000000000000000000000000000000000000000000006001600160a01b0316816001600160a01b031614614c2957604051634df48c7360e11b81526001600160a01b0382811660048301527f00000000000000000000000000000000000000000000000000000000000000001690639be918e690602401602060405180830381865afa158015614bcf573d6000803e3d6000fd5b505050506040513d601f19601f82011682018060405250810190614bf39190615a80565b614c2957614c2960405180604001604052806011815260200170155b9cdd5c1c1bdc9d195908105cdcd95d607a1b815250611e78565b6001600160a01b038516614c3f57614c3f615a9d565b6001600160a01b038416614c5557614c55615a9d565b604051636eb1769f60e11b81526001600160a01b03858116600483015230602483015286169063dd62ed3e90604401602060405180830381865afa158015614ca1573d6000803e3d6000fd5b505050506040513d601f19601f82011682018060405250810190614cc59190615c7d565b915082821015614d0657614d066040518060400160405280601681526020017556616c75652065786365656420616c6c6f77616e636560501b815250611e78565b509392505050565b600061271061ffff83161580614d22575083155b15614d31576000915050610bcd565b61ffff83811610614d6e57614d6e60405180604001604052806011815260200170496e746572657374206f766572666c6f7760781b815250611e78565b8061ffff168411614d9a57614d9a604051806060016040528060268152602001615dd860269139611e78565b8061ffff168361ffff16850281614db357614db3615c18565b04949350505050565b604080518082019091526000808252602082015262278d0063ffffffff83161115614de957614de9615a9d565b614df38484614d0e565b8082521561088557805163ffffffff83169081614e1257614e12615c18565b0460208201529392505050565b614e4d858560405180606001604052808760ff168152602001851515815260200186151581525060006148af565b5050505050565b60405163f72be56960e01b8152600481018290526000907f00000000000000000000000000000000000000000000000000000000000000006001600160a01b03169063f72be569906024016020604051808303816000875af1158015614ebe573d6000803e3d6000fd5b505050506040513d601f19601f82011682018060405250810190614ee29190615a4d565b90506001600160a01b038116610d1657610d16615a9d565b6040805160e081018252600080825260208201819052918101829052606081018290526080810182905260a0810182905260c081019190915290565b604080516101808101909152600060c0820181815260e083018290526101008301829052610120830182905261014083018290526101608301919091528190815260408051608081018252600080825260208281018290529282018190526060820152910190815260408051608081018252600080825260208281018290529282018190526060820152910190815260200160008152602001600081526020016000905290565b6040518060600160405280614ff0614efa565b815260006020820152606060409091015290565b604051806080016040528061503a6040518060800160405280600081526020016000815260200160008152602001600081525090565b8152602001600061ffff16815260200160008152602001600081525090565b604051806040016040528061506c614f36565b8152602001606081525090565b8280548282559060005260206000209060070281019282156151175760005260206000209160070282015b82811115615117578254825560018084015490830155600280840154908301556003808401549083015560048084015490830180546001600160a01b0319166001600160a01b039092169190911790556005808401549083015560068084015490830155600792830192909101906150a4565b50615123929150615144565b5090565b5080546000825560070290600052602060002090810190611e7591905b5b808211156151235760008082556001820181905560028201819055600382018190556004820180546001600160a01b0319169055600582018190556006820155600701615145565b60006020828403121561519f57600080fd5b5035919050565b63ffffffff80825116835280602083015116602084015280604083015116604084015250606081015160608301526080810151608083015260018060a01b0360a08201511660a083015260c0810151151560c08301525050565b610160810161520f82866151a6565b83151560e083015282516101008301526020830151151561012083015260408301511515610140830152613b97565b634e487b7160e01b600052604160045260246000fd5b60405160c0810167ffffffffffffffff811182821017156152775761527761523e565b60405290565b6040805190810167ffffffffffffffff811182821017156152775761527761523e565b604051601f8201601f1916810167ffffffffffffffff811182821017156152c9576152c961523e565b604052919050565b6001600160a01b0381168114611e7557600080fd5b8035610d16816152d1565b6000806000606080858703121561530757600080fd5b843567ffffffffffffffff8082111561531f57600080fd5b818701915087601f83011261533357600080fd5b81356020828211156153475761534761523e565b615355818360051b016152a0565b828152818101935060e092830285018201928b84111561537457600080fd5b948201945b8386101561540b57858c03818112156153925760008081fd5b61539a615254565b87358152848801358582015260408089013581830152898901358a8301526080808a01356153c7816152d1565b9083015260a0609f1984018213156153df5760008081fd5b6153e761527d565b8a820135815260c08b01358882015290830152508652509485019493820193615379565b5097506154198982016152e6565b96505050505050604084013590509250925092565b6000806040838503121561544157600080fd5b823591506020830135615453816152d1565b809150509250929050565b805182526020808201518184015260408083015190840152606080830151908401526080808301516001600160a01b03169084015260a091820151805192840192909252015160c082015260e00190565b6000602080835261014083016154c96020850186516151a6565b60208581015160ff1661010086015260408601516101208087015280519283905201906000906101608601905b8083101561551b5761550982855161545e565b915084840193506001830192506154f6565b509695505050505050565b803560ff81168114610d1657600080fd5b803561ffff81168114610d1657600080fd5b803562ffffff81168114610d1657600080fd5b6000806000806080858703121561557257600080fd5b8435935061558260208601615526565b925061559060408601615537565b915061559e60608601615549565b905092959194509250565b600080604083850312156155bc57600080fd5b82356155c7816152d1565b91506155d560208401615537565b90509250929050565b8015158114611e7557600080fd5b8035610d16816155de565b60008060008060008060008060e0898b03121561561357600080fd5b883567ffffffffffffffff8082111561562b57600080fd5b818b0191508b601f83011261563f57600080fd5b81358181111561564e57600080fd5b8c60208260051b850101111561566357600080fd5b60209283019a50985050890135955061567e60408a01615526565b945061568c60608a01615537565b935061569a60808a01615549565b92506156a860a08a016155ec565b91506156b660c08a016152e6565b90509295985092959890939650565b634e487b7160e01b600052602160045260246000fd5b600281106156eb576156eb6156c5565b9052565b600581106156eb576156eb6156c5565b805160ff815116835260ff602082015116602084015262ffffff604082015116604084015263ffffffff606082015116606084015260ff608082015116608084015260ff60a08201511660a084015250602081015161579160c0840182805182526020810151602083015260408101516001600160601b03808216604085015280606084015116606085015250505050565b5060408181015180516001600160a01b03908116610140860152602082015181166101608601529181015182166101808501526060908101519091166101a08401528101516157e46101c08401826156db565b5060808101516157f86101e08401826156ef565b5060a081015161380c6102008401826156db565b60008151808452602080850194506020840160005b83811015615847576158348783516151a6565b60e0969096019590820190600101615821565b509495945050505050565b602081526158646020820183516156ff565b602082015161024082810152600090613b9761026084018261580c565b6000806040838503121561589457600080fd5b823561589f816152d1565b915060208381013567ffffffffffffffff808211156158bd57600080fd5b818601915086601f8301126158d157600080fd5b8135818111156158e3576158e361523e565b6158f5601f8201601f191685016152a0565b9150808252878482850101111561590b57600080fd5b80848401858401376000848284010152508093505050509250929050565b80356001600160601b0381168114610d1657600080fd5b60006020828403121561595257600080fd5b610bca82615929565b6000806040838503121561596e57600080fd5b8235615979816152d1565b946020939093013593505050565b8151815260208083015115159082015260408083015115159082015260608101610bcd565b6000602082840312156159be57600080fd5b8135610885816152d1565b600080604083850312156159dc57600080fd5b82356159e7816152d1565b91506155d560208401615929565b6020808252825182820181905260009190848201906040850190845b81811015615a3257615a2483855161545e565b938501939250600101615a11565b50909695505050505050565b6102208101610bcd82846156ff565b600060208284031215615a5f57600080fd5b8151610885816152d1565b634e487b7160e01b600052603260045260246000fd5b600060208284031215615a9257600080fd5b8151610885816155de565b634e487b7160e01b600052600160045260246000fd5b600181811c90821680615ac757607f821691505b602082108103610b5557634e487b7160e01b600052602260045260246000fd5b601f82111561380c576000816000526020600020601f850160051c81016020861015615b105750805b601f850160051c820191505b818110156129a757828155600101615b1c565b815167ffffffffffffffff811115615b4957615b4961523e565b615b5d81615b578454615ab3565b84615ae7565b602080601f831160018114615b925760008415615b7a5750858301515b600019600386901b1c1916600185901b1785556129a7565b600085815260208120601f198616915b82811015615bc157888601518255948401946001909101908401615ba2565b5085821015615bdf5787850151600019600388901b60f8161c191681555b5050505050600190811b01905550565b634e487b7160e01b600052601160045260246000fd5b80820180821115610bcd57610bcd615bef565b634e487b7160e01b600052601260045260246000fd5b60006020808352835180602085015260005b81811015615c5c57858101830151858201604001528201615c40565b506000604082860101526040601f19601f8301168501019250505092915050565b600060208284031215615c8f57600080fd5b5051919050565b60408152615cb06040820184516001600160a01b03169052565b60006020840151615ccc60608401826001600160a01b03169052565b5060408401516080830152606084015160a08301526080840151615cf460c084018215159052565b5060a08401516101408060e0850152615d1161018085018361580c565b915060c0860151610100615d288187018315159052565b60e08801519150610120615d46818801846001600160a01b03169052565b908801516001600160601b0316928601929092525094909401516001600160a01b0316610160830152506020015290565b600060ff821660ff8103615d8d57615d8d615bef565b60010192915050565b80516001600160801b0381168114610d1657600080fd5b60008060408385031215615dc057600080fd5b615dc983615d96565b91506155d560208401615d9656fe5072696e636970616c2073686f756c642062652067726561746572207468616e203130303030a26469706673582212203e4453aceb928c18f23887facbb242d9a1d4dae7c618ef1b51e5d6d134a6a7ca64736f6c63430008180033",
  "devdoc": {
    "author": "Simplifi (Bobeu)",
    "errors": {
      "EnforcedPause()": [
        {
          "details": "The operation failed because the contract is paused."
        }
      ],
      "ExpectedPause()": [
        {
          "details": "The operation failed because the contract is not paused."
        }
      ]
    },
    "events": {
      "Paused(address)": {
        "details": "Emitted when the pause is triggered by `account`."
      },
      "Unpaused(address)": {
        "details": "Emitted when the pause is lifted by `account`."
      }
    },
    "kind": "dev",
    "methods": {
      "activateReward()": {
        "details": "Activate reward"
      },
      "closePool(uint256)": {
        "details": "Cancels a pool. Only pool with one contributor can be close.",
        "params": {
          "unit": ": Unit contribution."
        }
      },
      "constructor": {
        "params": {
          "_assetManager": ": Asset manager contract",
          "_baseAsset": ": ERC20 compatible asset to use as base contribution",
          "_feeTo": ": Fee receiver",
          "_pointFactory": ": Platform fee",
          "_roleManager": ": Role manager contract"
        }
      },
      "contribute(uint256)": {
        "details": "Add a contributor to a poool",
        "params": {
          "": ": Unit contribution"
        }
      },
      "contributeThroughProvider((uint256,uint256,uint256,uint256,address,(uint256,uint256))[],address,uint256)": {
        "details": "Contributors can join a pool through a provider is they wish to borrow to finance the unit contribution.      If the unit is not taken, we add them to the pool otherwise a new pool will be launched.",
        "params": {
          "borrower": ": Account address of the borrower",
          "providers": ": List of providers that lend to the borrower",
          "unit": ": Amount borrowed will automatically be the unit contribution"
        }
      },
      "createPool(address[],uint256,uint8,uint16,uint24,bool,address)": {
        "details": "Create a pool internally",
        "params": {
          "colAsset": ": An ERC20-compatible asset to use as collateral currency ",
          "colCoverage": ": Ration of collateral coverage or index required as cover for loan",
          "durationInHours": ": Maximum duration in hours each borrower can retain the loan",
          "isPermissionless": ": Whether to create a permissionless or permissioned pool.",
          "maxQuorum": ": Maximum number of contributors that can participate",
          "unit": ": Unit contribution",
          "users": ": List of participating accounts"
        }
      },
      "deactivateReward()": {
        "details": "Deactivate reward"
      },
      "editPool(uint256,uint8,uint16,uint24)": {
        "details": "Edit pool information",
        "params": {
          "colCoverage": ": Collateral coverage or ratio.",
          "durationInHours": ": Number of time in hours each contributor can retain the loan",
          "maxQuorum": ": Number of expected participants",
          "unit": ": Unit contribution"
        }
      },
      "enquireLiquidation(uint256)": {
        "details": "Check liquidation opportunity in the pool",
        "params": {
          "unit": ": Unit contribution"
        }
      },
      "getCollateralQuote(uint256)": {
        "details": "Returns amount of collateral required in a pool.",
        "params": {
          "unit": ": EpochId"
        },
        "returns": {
          "colCoverage": "Collateral coverage",
          "collateral": "Collateral"
        }
      },
      "getContributorProviders(address,uint96)": {
        "details": "Return providers associated with the target account",
        "params": {
          "recordId": ": Record id",
          "target": ": Target account"
        }
      },
      "getCurrentDebt(uint256)": {
        "params": {
          "unit": ": Unit contribution"
        }
      },
      "getEpoches()": {
        "details": "Return Current epoches "
      },
      "getFactoryData()": {
        "details": "Return contract data "
      },
      "getFinance(uint256)": {
        "details": "Get finance",
        "params": {
          "unit": ": Unit contribution"
        },
        "returns": {
          "_0": "bool : Success or Failure"
        }
      },
      "getPastEpoches()": {
        "details": "Return Past epoches "
      },
      "getPoolData(uint256)": {
        "details": "Return past pools using unitId. ",
        "params": {
          "unit": ": UnitId "
        }
      },
      "getPoolRecord(uint96)": {
        "details": "Return past pools using unitId. ",
        "params": {
          "recordId": ": Record Id"
        }
      },
      "getProfile(uint256,address)": {
        "details": "Returns the profile of target",
        "params": {
          "target": ": User",
          "unit": ": unit contribution"
        }
      },
      "isPoolAvailable(uint256)": {
        "details": "Get pool from storage",
        "params": {
          "unit": ": Unit contribution"
        }
      },
      "liquidate(uint256)": {
        "details": "Liquidates a borrower if they have defaulted in repaying their loan. - If the current beneficiary defaults, they're liquidated. - Their collateral balances is forwarded to the liquidator. Liquidator also takes the full  responsibilities of the providers if any. - Liquidator must not be a participant in pool at `unitId. We use this  to avoid fatal error in storage.",
        "params": {
          "unit": ": Unit contribution."
        }
      },
      "pause()": {
        "details": "Triggers stopped state. Requirements: Only owner role can call. - The contract must not be paused."
      },
      "paused()": {
        "details": "Returns true if the contract is paused, and false otherwise."
      },
      "payback(uint256)": {
        "details": "Payback. For detailed documentation, see _payback",
        "params": {
          "unit": ": Unit contribution"
        }
      },
      "setFeeOrMakerRate(address,uint16)": {
        "details": "Set fee or maker rate. The status of the value parsed determines which to update.",
        "params": {
          "_feeTo": ": Fee receiving account. ",
          "_makerRate": ": Platform fee (in %)"
        }
      },
      "setPair(address,string)": {
        "details": "Map collateral asset to their corresponding pair for price retrieval",
        "params": {
          "collateralAsset": ": ERC20 compatible asset",
          "pair": ": Price pair e.g cUSD/USDT"
        }
      },
      "setRoleManager(address)": {
        "params": {
          "newManager": ": New manager address"
        }
      },
      "unpause()": {
        "details": "Returns to normal state. Requirements: - Only owner role can call. - The contract must be paused."
      }
    },
    "title": "FlexpoolFactory",
    "version": 1
  },
  "userdoc": {
    "kind": "user",
    "methods": {
      "closePool(uint256)": {
        "notice": ": Only the creator of a pool can close it provided the number of contributors does not exceed one."
      },
      "constructor": {
        "notice": "================ Constructor =============="
      },
      "contributeThroughProvider((uint256,uint256,uint256,uint256,address,(uint256,uint256))[],address,uint256)": {
        "notice": "By default, maxQuorum is set to 2 using this method. Users can immediately change the quorum to desired value otherwise it will not be possible if another contributor joins to complete the quorum. - durationInHrs is set to 72 hours by default. - colCoverage is set to 120 by default. Only accounts with the roleBearer are allowed i.e Ex. Providers contract"
      },
      "createPool(address[],uint256,uint8,uint16,uint24,bool,address)": {
        "notice": "users list should be a list of participating accounts if it is permissioned including the creator being the first on the list. But the list can be empty if it is permissionless."
      },
      "getCurrentDebt(uint256)": {
        "notice": "Returns the current debt of target user."
      },
      "getFinance(uint256)": {
        "notice": ": To get finance, the unit contribution must be active. In the event the expected contributor failed to  call, we swap their profile for the current msg.sender provided the grace period of 1hr has passed."
      },
      "getPoolData(uint256)": {
        "notice": "The correct unitId must be parsed. "
      },
      "getPoolRecord(uint96)": {
        "notice": "The correct unitId must be parsed. The record id can be obtained by iterating over the past epoches. Using the record Id associated with the current pool will return empty pool but may not return empty contributors."
      },
      "setFeeOrMakerRate(address,uint16)": {
        "notice": ": For detailed doc on setting maker rate, see Utils.sol._getPercentage()"
      },
      "setPair(address,string)": {
        "notice": "Collateral asset must be supported"
      },
      "setRoleManager(address)": {
        "notice": "Set Role manager"
      }
    },
    "notice": "Deployable FlexpoolFactory contract that enables peer-funding. Participants of each pool are referred to  contributors. There is no limit to the amount that can be contributed except for zer0 value. Users can single-handedly run a pool (where anyone is free to participate) or collectively with friends and family or peer operate a permissioned pool  where participation is restricted to the preset members only. Users can use providers strategy to finance their quota if they can't afford the unit contribution. They can select multiple providers if the provider balance cannot the amount they wish to borrow. If this is the case, the selected providers are  entitled to earn interest on the amount they provide. When paying back, the contributor will repay the full loan with interest but halved for other contributors.  ",
    "version": 1
  },
  "storageLayout": {
    "storage": [
      {
        "astId": 3769,
        "contract": "contracts/standalone/celo/FlexpoolFactory.sol:FlexpoolFactory",
        "label": "pastEpoches",
        "offset": 0,
        "slot": "0",
        "type": "t_struct(Counter)362_storage"
      },
      {
        "astId": 3774,
        "contract": "contracts/standalone/celo/FlexpoolFactory.sol:FlexpoolFactory",
        "label": "records",
        "offset": 0,
        "slot": "1",
        "type": "t_mapping(t_uint96,t_struct(Pool)502_storage)"
      },
      {
        "astId": 3235,
        "contract": "contracts/standalone/celo/FlexpoolFactory.sol:FlexpoolFactory",
        "label": "epoches",
        "offset": 0,
        "slot": "2",
        "type": "t_struct(Counter)362_storage"
      },
      {
        "astId": 3240,
        "contract": "contracts/standalone/celo/FlexpoolFactory.sol:FlexpoolFactory",
        "label": "pools",
        "offset": 0,
        "slot": "3",
        "type": "t_mapping(t_uint96,t_struct(Pool)502_storage)"
      },
      {
        "astId": 3245,
        "contract": "contracts/standalone/celo/FlexpoolFactory.sol:FlexpoolFactory",
        "label": "indexes",
        "offset": 0,
        "slot": "4",
        "type": "t_mapping(t_uint256,t_uint96)"
      },
      {
        "astId": 4813,
        "contract": "contracts/standalone/celo/FlexpoolFactory.sol:FlexpoolFactory",
        "label": "slots",
        "offset": 0,
        "slot": "5",
        "type": "t_mapping(t_address,t_mapping(t_uint256,t_struct(Slot)614_storage))"
      },
      {
        "astId": 3655,
        "contract": "contracts/standalone/celo/FlexpoolFactory.sol:FlexpoolFactory",
        "label": "roleManager",
        "offset": 0,
        "slot": "6",
        "type": "t_contract(IRoleBase)976"
      },
      {
        "astId": 3850,
        "contract": "contracts/standalone/celo/FlexpoolFactory.sol:FlexpoolFactory",
        "label": "_paused",
        "offset": 20,
        "slot": "6",
        "type": "t_bool"
      },
      {
        "astId": 4757,
        "contract": "contracts/standalone/celo/FlexpoolFactory.sol:FlexpoolFactory",
        "label": "safes",
        "offset": 0,
        "slot": "7",
        "type": "t_mapping(t_uint256,t_address)"
      },
      {
        "astId": 4616,
        "contract": "contracts/standalone/celo/FlexpoolFactory.sol:FlexpoolFactory",
        "label": "pairs",
        "offset": 0,
        "slot": "8",
        "type": "t_mapping(t_contract(IERC20)846,t_string_storage)"
      },
      {
        "astId": 1385,
        "contract": "contracts/standalone/celo/FlexpoolFactory.sol:FlexpoolFactory",
        "label": "awardPoint",
        "offset": 0,
        "slot": "9",
        "type": "t_bool"
      },
      {
        "astId": 1572,
        "contract": "contracts/standalone/celo/FlexpoolFactory.sol:FlexpoolFactory",
        "label": "contributors",
        "offset": 0,
        "slot": "10",
        "type": "t_mapping(t_uint96,t_array(t_struct(Contributor)563_storage)dyn_storage)"
      },
      {
        "astId": 1581,
        "contract": "contracts/standalone/celo/FlexpoolFactory.sol:FlexpoolFactory",
        "label": "unitProviders",
        "offset": 0,
        "slot": "11",
        "type": "t_mapping(t_uint96,t_mapping(t_address,t_array(t_struct(Provider)582_storage)dyn_storage))"
      },
      {
        "astId": 3522,
        "contract": "contracts/standalone/celo/FlexpoolFactory.sol:FlexpoolFactory",
        "label": "feeTo",
        "offset": 0,
        "slot": "12",
        "type": "t_address"
      },
      {
        "astId": 3524,
        "contract": "contracts/standalone/celo/FlexpoolFactory.sol:FlexpoolFactory",
        "label": "makerRate",
        "offset": 0,
        "slot": "13",
        "type": "t_uint256"
      },
      {
        "astId": 4939,
        "contract": "contracts/standalone/celo/FlexpoolFactory.sol:FlexpoolFactory",
        "label": "analytics",
        "offset": 0,
        "slot": "14",
        "type": "t_struct(Analytics)652_storage"
      }
    ],
    "types": {
      "t_address": {
        "encoding": "inplace",
        "label": "address",
        "numberOfBytes": "20"
      },
      "t_array(t_struct(Contributor)563_storage)dyn_storage": {
        "base": "t_struct(Contributor)563_storage",
        "encoding": "dynamic_array",
        "label": "struct Common.Contributor[]",
        "numberOfBytes": "32"
      },
      "t_array(t_struct(Provider)582_storage)dyn_storage": {
        "base": "t_struct(Provider)582_storage",
        "encoding": "dynamic_array",
        "label": "struct Common.Provider[]",
        "numberOfBytes": "32"
      },
      "t_bool": {
        "encoding": "inplace",
        "label": "bool",
        "numberOfBytes": "1"
      },
      "t_contract(IERC20)846": {
        "encoding": "inplace",
        "label": "contract IERC20",
        "numberOfBytes": "20"
      },
      "t_contract(IRoleBase)976": {
        "encoding": "inplace",
        "label": "contract IRoleBase",
        "numberOfBytes": "20"
      },
      "t_enum(Router)483": {
        "encoding": "inplace",
        "label": "enum Common.Router",
        "numberOfBytes": "1"
      },
      "t_enum(Stage)474": {
        "encoding": "inplace",
        "label": "enum Common.Stage",
        "numberOfBytes": "1"
      },
      "t_enum(Status)477": {
        "encoding": "inplace",
        "label": "enum Common.Status",
        "numberOfBytes": "1"
      },
      "t_mapping(t_address,t_array(t_struct(Provider)582_storage)dyn_storage)": {
        "encoding": "mapping",
        "key": "t_address",
        "label": "mapping(address => struct Common.Provider[])",
        "numberOfBytes": "32",
        "value": "t_array(t_struct(Provider)582_storage)dyn_storage"
      },
      "t_mapping(t_address,t_mapping(t_uint256,t_struct(Slot)614_storage))": {
        "encoding": "mapping",
        "key": "t_address",
        "label": "mapping(address => mapping(uint256 => struct Common.Slot))",
        "numberOfBytes": "32",
        "value": "t_mapping(t_uint256,t_struct(Slot)614_storage)"
      },
      "t_mapping(t_contract(IERC20)846,t_string_storage)": {
        "encoding": "mapping",
        "key": "t_contract(IERC20)846",
        "label": "mapping(contract IERC20 => string)",
        "numberOfBytes": "32",
        "value": "t_string_storage"
      },
      "t_mapping(t_uint256,t_address)": {
        "encoding": "mapping",
        "key": "t_uint256",
        "label": "mapping(uint256 => address)",
        "numberOfBytes": "32",
        "value": "t_address"
      },
      "t_mapping(t_uint256,t_struct(Slot)614_storage)": {
        "encoding": "mapping",
        "key": "t_uint256",
        "label": "mapping(uint256 => struct Common.Slot)",
        "numberOfBytes": "32",
        "value": "t_struct(Slot)614_storage"
      },
      "t_mapping(t_uint256,t_uint96)": {
        "encoding": "mapping",
        "key": "t_uint256",
        "label": "mapping(uint256 => uint96)",
        "numberOfBytes": "32",
        "value": "t_uint96"
      },
      "t_mapping(t_uint96,t_array(t_struct(Contributor)563_storage)dyn_storage)": {
        "encoding": "mapping",
        "key": "t_uint96",
        "label": "mapping(uint96 => struct Common.Contributor[])",
        "numberOfBytes": "32",
        "value": "t_array(t_struct(Contributor)563_storage)dyn_storage"
      },
      "t_mapping(t_uint96,t_mapping(t_address,t_array(t_struct(Provider)582_storage)dyn_storage))": {
        "encoding": "mapping",
        "key": "t_uint96",
        "label": "mapping(uint96 => mapping(address => struct Common.Provider[]))",
        "numberOfBytes": "32",
        "value": "t_mapping(t_address,t_array(t_struct(Provider)582_storage)dyn_storage)"
      },
      "t_mapping(t_uint96,t_struct(Pool)502_storage)": {
        "encoding": "mapping",
        "key": "t_uint96",
        "label": "mapping(uint96 => struct Common.Pool)",
        "numberOfBytes": "32",
        "value": "t_struct(Pool)502_storage"
      },
      "t_string_storage": {
        "encoding": "bytes",
        "label": "string",
        "numberOfBytes": "32"
      },
      "t_struct(Addresses)547_storage": {
        "encoding": "inplace",
        "label": "struct Common.Addresses",
        "members": [
          {
            "astId": 540,
            "contract": "contracts/standalone/celo/FlexpoolFactory.sol:FlexpoolFactory",
            "label": "colAsset",
            "offset": 0,
            "slot": "0",
            "type": "t_contract(IERC20)846"
          },
          {
            "astId": 542,
            "contract": "contracts/standalone/celo/FlexpoolFactory.sol:FlexpoolFactory",
            "label": "lastPaid",
            "offset": 0,
            "slot": "1",
            "type": "t_address"
          },
          {
            "astId": 544,
            "contract": "contracts/standalone/celo/FlexpoolFactory.sol:FlexpoolFactory",
            "label": "safe",
            "offset": 0,
            "slot": "2",
            "type": "t_address"
          },
          {
            "astId": 546,
            "contract": "contracts/standalone/celo/FlexpoolFactory.sol:FlexpoolFactory",
            "label": "admin",
            "offset": 0,
            "slot": "3",
            "type": "t_address"
          }
        ],
        "numberOfBytes": "128"
      },
      "t_struct(Analytics)652_storage": {
        "encoding": "inplace",
        "label": "struct Common.Analytics",
        "members": [
          {
            "astId": 645,
            "contract": "contracts/standalone/celo/FlexpoolFactory.sol:FlexpoolFactory",
            "label": "tvlCollateral",
            "offset": 0,
            "slot": "0",
            "type": "t_uint256"
          },
          {
            "astId": 647,
            "contract": "contracts/standalone/celo/FlexpoolFactory.sol:FlexpoolFactory",
            "label": "tvlBase",
            "offset": 0,
            "slot": "1",
            "type": "t_uint256"
          },
          {
            "astId": 649,
            "contract": "contracts/standalone/celo/FlexpoolFactory.sol:FlexpoolFactory",
            "label": "totalPermissioned",
            "offset": 0,
            "slot": "2",
            "type": "t_uint256"
          },
          {
            "astId": 651,
            "contract": "contracts/standalone/celo/FlexpoolFactory.sol:FlexpoolFactory",
            "label": "totalPermissionless",
            "offset": 0,
            "slot": "3",
            "type": "t_uint256"
          }
        ],
        "numberOfBytes": "128"
      },
      "t_struct(Big)524_storage": {
        "encoding": "inplace",
        "label": "struct Common.Big",
        "members": [
          {
            "astId": 517,
            "contract": "contracts/standalone/celo/FlexpoolFactory.sol:FlexpoolFactory",
            "label": "unit",
            "offset": 0,
            "slot": "0",
            "type": "t_uint256"
          },
          {
            "astId": 519,
            "contract": "contracts/standalone/celo/FlexpoolFactory.sol:FlexpoolFactory",
            "label": "currentPool",
            "offset": 0,
            "slot": "1",
            "type": "t_uint256"
          },
          {
            "astId": 521,
            "contract": "contracts/standalone/celo/FlexpoolFactory.sol:FlexpoolFactory",
            "label": "recordId",
            "offset": 0,
            "slot": "2",
            "type": "t_uint96"
          },
          {
            "astId": 523,
            "contract": "contracts/standalone/celo/FlexpoolFactory.sol:FlexpoolFactory",
            "label": "unitId",
            "offset": 12,
            "slot": "2",
            "type": "t_uint96"
          }
        ],
        "numberOfBytes": "96"
      },
      "t_struct(Contributor)563_storage": {
        "encoding": "inplace",
        "label": "struct Common.Contributor",
        "members": [
          {
            "astId": 550,
            "contract": "contracts/standalone/celo/FlexpoolFactory.sol:FlexpoolFactory",
            "label": "paybackTime",
            "offset": 0,
            "slot": "0",
            "type": "t_uint32"
          },
          {
            "astId": 552,
            "contract": "contracts/standalone/celo/FlexpoolFactory.sol:FlexpoolFactory",
            "label": "turnStartTime",
            "offset": 4,
            "slot": "0",
            "type": "t_uint32"
          },
          {
            "astId": 554,
            "contract": "contracts/standalone/celo/FlexpoolFactory.sol:FlexpoolFactory",
            "label": "getFinanceTime",
            "offset": 8,
            "slot": "0",
            "type": "t_uint32"
          },
          {
            "astId": 556,
            "contract": "contracts/standalone/celo/FlexpoolFactory.sol:FlexpoolFactory",
            "label": "loan",
            "offset": 0,
            "slot": "1",
            "type": "t_uint256"
          },
          {
            "astId": 558,
            "contract": "contracts/standalone/celo/FlexpoolFactory.sol:FlexpoolFactory",
            "label": "colBals",
            "offset": 0,
            "slot": "2",
            "type": "t_uint256"
          },
          {
            "astId": 560,
            "contract": "contracts/standalone/celo/FlexpoolFactory.sol:FlexpoolFactory",
            "label": "id",
            "offset": 0,
            "slot": "3",
            "type": "t_address"
          },
          {
            "astId": 562,
            "contract": "contracts/standalone/celo/FlexpoolFactory.sol:FlexpoolFactory",
            "label": "sentQuota",
            "offset": 20,
            "slot": "3",
            "type": "t_bool"
          }
        ],
        "numberOfBytes": "128"
      },
      "t_struct(Counter)362_storage": {
        "encoding": "inplace",
        "label": "struct Counters.Counter",
        "members": [
          {
            "astId": 361,
            "contract": "contracts/standalone/celo/FlexpoolFactory.sol:FlexpoolFactory",
            "label": "_value",
            "offset": 0,
            "slot": "0",
            "type": "t_uint256"
          }
        ],
        "numberOfBytes": "32"
      },
      "t_struct(Interest)536_storage": {
        "encoding": "inplace",
        "label": "struct Common.Interest",
        "members": [
          {
            "astId": 533,
            "contract": "contracts/standalone/celo/FlexpoolFactory.sol:FlexpoolFactory",
            "label": "fullInterest",
            "offset": 0,
            "slot": "0",
            "type": "t_uint256"
          },
          {
            "astId": 535,
            "contract": "contracts/standalone/celo/FlexpoolFactory.sol:FlexpoolFactory",
            "label": "intPerSec",
            "offset": 0,
            "slot": "1",
            "type": "t_uint256"
          }
        ],
        "numberOfBytes": "64"
      },
      "t_struct(Low)515_storage": {
        "encoding": "inplace",
        "label": "struct Common.Low",
        "members": [
          {
            "astId": 504,
            "contract": "contracts/standalone/celo/FlexpoolFactory.sol:FlexpoolFactory",
            "label": "maxQuorum",
            "offset": 0,
            "slot": "0",
            "type": "t_uint8"
          },
          {
            "astId": 506,
            "contract": "contracts/standalone/celo/FlexpoolFactory.sol:FlexpoolFactory",
            "label": "selector",
            "offset": 1,
            "slot": "0",
            "type": "t_uint8"
          },
          {
            "astId": 508,
            "contract": "contracts/standalone/celo/FlexpoolFactory.sol:FlexpoolFactory",
            "label": "colCoverage",
            "offset": 2,
            "slot": "0",
            "type": "t_uint24"
          },
          {
            "astId": 510,
            "contract": "contracts/standalone/celo/FlexpoolFactory.sol:FlexpoolFactory",
            "label": "duration",
            "offset": 5,
            "slot": "0",
            "type": "t_uint32"
          },
          {
            "astId": 512,
            "contract": "contracts/standalone/celo/FlexpoolFactory.sol:FlexpoolFactory",
            "label": "allGh",
            "offset": 9,
            "slot": "0",
            "type": "t_uint8"
          },
          {
            "astId": 514,
            "contract": "contracts/standalone/celo/FlexpoolFactory.sol:FlexpoolFactory",
            "label": "userCount",
            "offset": 10,
            "slot": "0",
            "type": "t_uint8"
          }
        ],
        "numberOfBytes": "32"
      },
      "t_struct(Pool)502_storage": {
        "encoding": "inplace",
        "label": "struct Common.Pool",
        "members": [
          {
            "astId": 486,
            "contract": "contracts/standalone/celo/FlexpoolFactory.sol:FlexpoolFactory",
            "label": "low",
            "offset": 0,
            "slot": "0",
            "type": "t_struct(Low)515_storage"
          },
          {
            "astId": 489,
            "contract": "contracts/standalone/celo/FlexpoolFactory.sol:FlexpoolFactory",
            "label": "big",
            "offset": 0,
            "slot": "1",
            "type": "t_struct(Big)524_storage"
          },
          {
            "astId": 492,
            "contract": "contracts/standalone/celo/FlexpoolFactory.sol:FlexpoolFactory",
            "label": "addrs",
            "offset": 0,
            "slot": "4",
            "type": "t_struct(Addresses)547_storage"
          },
          {
            "astId": 495,
            "contract": "contracts/standalone/celo/FlexpoolFactory.sol:FlexpoolFactory",
            "label": "router",
            "offset": 0,
            "slot": "8",
            "type": "t_enum(Router)483"
          },
          {
            "astId": 498,
            "contract": "contracts/standalone/celo/FlexpoolFactory.sol:FlexpoolFactory",
            "label": "stage",
            "offset": 1,
            "slot": "8",
            "type": "t_enum(Stage)474"
          },
          {
            "astId": 501,
            "contract": "contracts/standalone/celo/FlexpoolFactory.sol:FlexpoolFactory",
            "label": "status",
            "offset": 2,
            "slot": "8",
            "type": "t_enum(Status)477"
          }
        ],
        "numberOfBytes": "288"
      },
      "t_struct(Provider)582_storage": {
        "encoding": "inplace",
        "label": "struct Common.Provider",
        "members": [
          {
            "astId": 570,
            "contract": "contracts/standalone/celo/FlexpoolFactory.sol:FlexpoolFactory",
            "label": "slot",
            "offset": 0,
            "slot": "0",
            "type": "t_uint256"
          },
          {
            "astId": 572,
            "contract": "contracts/standalone/celo/FlexpoolFactory.sol:FlexpoolFactory",
            "label": "amount",
            "offset": 0,
            "slot": "1",
            "type": "t_uint256"
          },
          {
            "astId": 574,
            "contract": "contracts/standalone/celo/FlexpoolFactory.sol:FlexpoolFactory",
            "label": "rate",
            "offset": 0,
            "slot": "2",
            "type": "t_uint256"
          },
          {
            "astId": 576,
            "contract": "contracts/standalone/celo/FlexpoolFactory.sol:FlexpoolFactory",
            "label": "earnStartDate",
            "offset": 0,
            "slot": "3",
            "type": "t_uint256"
          },
          {
            "astId": 578,
            "contract": "contracts/standalone/celo/FlexpoolFactory.sol:FlexpoolFactory",
            "label": "account",
            "offset": 0,
            "slot": "4",
            "type": "t_address"
          },
          {
            "astId": 581,
            "contract": "contracts/standalone/celo/FlexpoolFactory.sol:FlexpoolFactory",
            "label": "accruals",
            "offset": 0,
            "slot": "5",
            "type": "t_struct(Interest)536_storage"
          }
        ],
        "numberOfBytes": "224"
      },
      "t_struct(Slot)614_storage": {
        "encoding": "inplace",
        "label": "struct Common.Slot",
        "members": [
          {
            "astId": 609,
            "contract": "contracts/standalone/celo/FlexpoolFactory.sol:FlexpoolFactory",
            "label": "value",
            "offset": 0,
            "slot": "0",
            "type": "t_uint256"
          },
          {
            "astId": 611,
            "contract": "contracts/standalone/celo/FlexpoolFactory.sol:FlexpoolFactory",
            "label": "isMember",
            "offset": 0,
            "slot": "1",
            "type": "t_bool"
          },
          {
            "astId": 613,
            "contract": "contracts/standalone/celo/FlexpoolFactory.sol:FlexpoolFactory",
            "label": "isAdmin",
            "offset": 1,
            "slot": "1",
            "type": "t_bool"
          }
        ],
        "numberOfBytes": "64"
      },
      "t_uint24": {
        "encoding": "inplace",
        "label": "uint24",
        "numberOfBytes": "3"
      },
      "t_uint256": {
        "encoding": "inplace",
        "label": "uint256",
        "numberOfBytes": "32"
      },
      "t_uint32": {
        "encoding": "inplace",
        "label": "uint32",
        "numberOfBytes": "4"
      },
      "t_uint8": {
        "encoding": "inplace",
        "label": "uint8",
        "numberOfBytes": "1"
      },
      "t_uint96": {
        "encoding": "inplace",
        "label": "uint96",
        "numberOfBytes": "12"
      }
    }
  }
}