{
  "address": "0x5b3d1a90717f6EDbD08b6c4aC8a6d900942BcAa6",
  "abi": [
    {
      "inputs": [
        {
          "internalType": "contract IRoleBase",
          "name": "_roleManager",
          "type": "address"
        }
      ],
      "stateMutability": "nonpayable",
      "type": "constructor"
    },
    {
      "inputs": [
        {
          "internalType": "string",
          "name": "errorMsg",
          "type": "string"
        }
      ],
      "name": "ErrorOccurred",
      "type": "error"
    },
    {
      "inputs": [
        {
          "internalType": "address",
          "name": "user",
          "type": "address"
        },
        {
          "internalType": "uint8",
          "name": "contributor",
          "type": "uint8"
        },
        {
          "internalType": "uint8",
          "name": "creator",
          "type": "uint8"
        },
        {
          "internalType": "uint8",
          "name": "referrals",
          "type": "uint8"
        }
      ],
      "name": "deductPoint",
      "outputs": [
        {
          "internalType": "bool",
          "name": "",
          "type": "bool"
        }
      ],
      "stateMutability": "nonpayable",
      "type": "function"
    },
    {
      "inputs": [],
      "name": "getPhase",
      "outputs": [
        {
          "internalType": "string",
          "name": "",
          "type": "string"
        }
      ],
      "stateMutability": "view",
      "type": "function"
    },
    {
      "inputs": [
        {
          "internalType": "address",
          "name": "user",
          "type": "address"
        },
        {
          "internalType": "uint8",
          "name": "_phase",
          "type": "uint8"
        }
      ],
      "name": "getPoint",
      "outputs": [
        {
          "components": [
            {
              "internalType": "uint256",
              "name": "contributor",
              "type": "uint256"
            },
            {
              "internalType": "uint256",
              "name": "creator",
              "type": "uint256"
            },
            {
              "internalType": "uint256",
              "name": "referrals",
              "type": "uint256"
            },
            {
              "internalType": "address",
              "name": "user",
              "type": "address"
            },
            {
              "internalType": "enum Common.Phase",
              "name": "phase",
              "type": "uint8"
            }
          ],
          "internalType": "struct Common.Point",
          "name": "",
          "type": "tuple"
        }
      ],
      "stateMutability": "view",
      "type": "function"
    },
    {
      "inputs": [],
      "name": "getPoints",
      "outputs": [
        {
          "components": [
            {
              "internalType": "string",
              "name": "key",
              "type": "string"
            },
            {
              "components": [
                {
                  "internalType": "uint256",
                  "name": "contributor",
                  "type": "uint256"
                },
                {
                  "internalType": "uint256",
                  "name": "creator",
                  "type": "uint256"
                },
                {
                  "internalType": "uint256",
                  "name": "referrals",
                  "type": "uint256"
                },
                {
                  "internalType": "address",
                  "name": "user",
                  "type": "address"
                },
                {
                  "internalType": "enum Common.Phase",
                  "name": "phase",
                  "type": "uint8"
                }
              ],
              "internalType": "struct Common.Point[]",
              "name": "value",
              "type": "tuple[]"
            }
          ],
          "internalType": "struct Common.PointsReturnValue[]",
          "name": "",
          "type": "tuple[]"
        }
      ],
      "stateMutability": "view",
      "type": "function"
    },
    {
      "inputs": [],
      "name": "phase",
      "outputs": [
        {
          "internalType": "enum Common.Phase",
          "name": "",
          "type": "uint8"
        }
      ],
      "stateMutability": "view",
      "type": "function"
    },
    {
      "inputs": [],
      "name": "registerToEarnPoints",
      "outputs": [],
      "stateMutability": "nonpayable",
      "type": "function"
    },
    {
      "inputs": [],
      "name": "roleManager",
      "outputs": [
        {
          "internalType": "contract IRoleBase",
          "name": "",
          "type": "address"
        }
      ],
      "stateMutability": "view",
      "type": "function"
    },
    {
      "inputs": [
        {
          "internalType": "address",
          "name": "user",
          "type": "address"
        },
        {
          "internalType": "uint8",
          "name": "contributor",
          "type": "uint8"
        },
        {
          "internalType": "uint8",
          "name": "creator",
          "type": "uint8"
        },
        {
          "internalType": "uint8",
          "name": "referrals",
          "type": "uint8"
        }
      ],
      "name": "setPoint",
      "outputs": [
        {
          "internalType": "bool",
          "name": "",
          "type": "bool"
        }
      ],
      "stateMutability": "nonpayable",
      "type": "function"
    },
    {
      "inputs": [
        {
          "internalType": "address",
          "name": "newManager",
          "type": "address"
        }
      ],
      "name": "setRoleManager",
      "outputs": [
        {
          "internalType": "bool",
          "name": "",
          "type": "bool"
        }
      ],
      "stateMutability": "nonpayable",
      "type": "function"
    },
    {
      "inputs": [],
      "name": "switchPhase",
      "outputs": [
        {
          "internalType": "bool",
          "name": "",
          "type": "bool"
        }
      ],
      "stateMutability": "nonpayable",
      "type": "function"
    }
  ],
  "transactionHash": "0x7f85db4ff4a9a4e477c9846e464574021d0c484c71d5844b843da32818e0a652",
  "args": [
    "0x79dF2FCc7DfDdc0C85Cc1f82B1f631b4b9D994B0"
  ],
  "numDeployments": 6,
  "solcInputHash": "c967811ea5a58e8a311453c5141ade6e",
  "bytecode": "0x608060405234801561001057600080fd5b506040516113c63803806113c683398101604081905261002f91610050565b600080546001600160a01b0319166001600160a01b03831617905550610080565b60006020828403121561006257600080fd5b81516001600160a01b038116811461007957600080fd5b9392505050565b6113378061008f6000396000f3fe608060405234801561001057600080fd5b506004361061009d5760003560e01c8063ab0eb62d11610066578063ab0eb62d14610132578063b1c9fe6e1461013a578063eced02801461015b578063f1d588c514610170578063f4b7095b1461018357600080fd5b8062435da5146100a257806354d6de1c146100d25780636bf2daaf146100f55780637116b987146100ff5780639d3fba6614610112575b600080fd5b6000546100b5906001600160a01b031681565b6040516001600160a01b0390911681526020015b60405180910390f35b6100e56100e036600461103f565b610198565b60405190151581526020016100c9565b6100fd610485565b005b6100e561010d36600461103f565b61067b565b610125610120366004611093565b610980565b6040516100c9919061113f565b6100e56109d4565b60005461014e90600160a01b900460ff1681565b6040516100c9919061114d565b610163610a91565b6040516100c991906111a1565b6100e561017e3660046111b4565b610ae3565b61018b610b11565b6040516100c991906111cf565b60006101a2610cca565b6001600160a01b0385166000908152600160208181526040928390208351808501909452805460ff1615801585529201549083015261047957600080546002908290600160a01b900460ff16828111156101fe576101fe6110c6565b600281111561020f5761020f6110c6565b815260200190815260200160002082602001518154811061023257610232611285565b90600052602060002090600402016040518060a00160405290816000820154815260200160018201548152602001600282015481526020016003820160009054906101000a90046001600160a01b03166001600160a01b03166001600160a01b031681526020016003820160149054906101000a900460ff1660028111156102bc576102bc6110c6565b60028111156102cd576102cd6110c6565b81525050905080606001516001600160a01b0316876001600160a01b0316146102f8576102f861129b565b60ff861615610375578560ff16816000015101600260008060149054906101000a900460ff16600281111561032f5761032f6110c6565b6002811115610340576103406110c6565b815260200190815260200160002083602001518154811061036357610363611285565b60009182526020909120600490910201555b60ff8516156103f6578460ff16816020015101600260008060149054906101000a900460ff1660028111156103ac576103ac6110c6565b60028111156103bd576103bd6110c6565b81526020019081526020016000208360200151815481106103e0576103e0611285565b9060005260206000209060040201600101819055505b60ff841615610477578360ff16816040015101600260008060149054906101000a900460ff16600281111561042d5761042d6110c6565b600281111561043e5761043e6110c6565b815260200190815260200160002083602001518154811061046157610461611285565b9060005260206000209060040201600201819055505b505b50600195945050505050565b6000805433808352600160208181526040948590208551808701909652805460ff90811615801588529190930154918601919091529193600160a01b9093041691906104fe576104fe60405180604001604052806012815260200171155cd95c881a5cc81c9959da5cdd195c995960721b815250610d49565b60018152600260008382811115610517576105176110c6565b6002811115610528576105286110c6565b815260208082019290925260409081016000908120548484019081526001600160a01b03871682526001938490529181208451815460ff1916901515178155915191909201556002908382811115610582576105826110c6565b6002811115610593576105936110c6565b81526020019081526020016000206040518060a00160405280600081526020016000815260200160058152602001856001600160a01b031681526020018460028111156105e2576105e26110c6565b9052815460018181018455600093845260209384902083516004909302019182559282015192810192909255604081015160028084019190915560608201516003840180546001600160a01b039092166001600160a01b031983168117825560808501519495949391926001600160a81b0319161790600160a01b90849081111561066f5761066f6110c6565b02179055505050505050565b6000610685610cca565b6001600160a01b03851660009081526001602081815260408084208151808301909252805460ff90811615801584529190940154928201929092529254600160a01b900490911690610973576000600260008360028111156106e9576106e96110c6565b60028111156106fa576106fa6110c6565b815260200190815260200160002083602001518154811061071d5761071d611285565b90600052602060002090600402016040518060a00160405290816000820154815260200160018201548152602001600282015481526020016003820160009054906101000a90046001600160a01b03166001600160a01b03166001600160a01b031681526020016003820160149054906101000a900460ff1660028111156107a7576107a76110c6565b60028111156107b8576107b86110c6565b81525050905080606001516001600160a01b0316886001600160a01b0316146107e3576107e361129b565b60008760ff161180156107f95750805160ff8816105b1561086157805160ff8816900360026000848281111561081b5761081b6110c6565b600281111561082c5761082c6110c6565b815260200190815260200160002084602001518154811061084f5761084f611285565b60009182526020909120600490910201555b60008660ff1611801561087a57508560ff168160200151115b156108e9578560ff168160200151036002600084600281111561089f5761089f6110c6565b60028111156108b0576108b06110c6565b81526020019081526020016000208460200151815481106108d3576108d3611285565b9060005260206000209060040201600101819055505b60008560ff1611801561090257508460ff168160400151115b15610971578460ff1681604001510360026000846002811115610927576109276110c6565b6002811115610938576109386110c6565b815260200190815260200160002084602001518154811061095b5761095b611285565b9060005260206000209060040201600201819055505b505b5060019695505050505050565b610988610fa8565b60038260ff16106109c1576109c16040518060400160405280600d81526020016c496e76616c696420706861736560981b815250610d49565b6109cb8383610d74565b90505b92915050565b60006109de610cca565b60008054600160a01b900460ff1660028111156109fd576109fd6110c6565b905060038160ff161015610a5657610a168160016112b1565b60ff166002811115610a2a57610a2a6110c6565b6000805460ff60a01b1916600160a01b836002811115610a4c57610a4c6110c6565b0217905550610a89565b610a896040518060400160405280601281526020017113585e081c1a185cd9481858da1a595d995960721b815250610d49565b600191505090565b6000805460609190600160a01b900460ff166002811115610ab457610ab46110c6565b90506000610ac0610eb9565b9050808260ff1660038110610ad757610ad7611285565b60200201519250505090565b6000610aed610cca565b600080546001600160a01b0319166001600160a01b0384161790555060015b919050565b60606000610b1d610eb9565b6040805160038082526080820190925291925060009190816020015b6040805180820190915260608082526020820152815260200190600190039081610b3957905050905060005b6003811015610cc3576040518060400160405280848360038110610b8b57610b8b611285565b6020020151815260200160026000846002811115610bab57610bab6110c6565b6002811115610bbc57610bbc6110c6565b6002811115610bcd57610bcd6110c6565b8152602001908152602001600020805480602002602001604051908101604052809291908181526020016000905b82821015610c975760008481526020908190206040805160a08101825260048602909201805483526001810154938301939093526002808401549183019190915260038301546001600160a01b03811660608401529192916080840191600160a01b90910460ff1690811115610c7357610c736110c6565b6002811115610c8457610c846110c6565b8152505081526020019060010190610bfb565b50505050815250828281518110610cb057610cb0611285565b6020908102919091010152600101610b65565b5092915050565b6000546001600160a01b031680610d0b57610d0b6040518060400160405280600f81526020016e4d616e61676572206973207a65726f60881b815250610d49565b610d1433610f39565b610d4657610d466040518060400160405280600d81526020016c1058d8d95cdcc819195b9a5959609a1b815250610d49565b50565b805115610d46578060405163cc86106360e01b8152600401610d6b91906111a1565b60405180910390fd5b610d7c610fa8565b6001600160a01b0383166000908152600160208181526040928390208351808501909452805460ff16158015855292015490830152610cc357600260008460ff166002811115610dce57610dce6110c6565b6002811115610ddf57610ddf6110c6565b6002811115610df057610df06110c6565b8152602001908152602001600020816020015181548110610e1357610e13611285565b90600052602060002090600402016040518060a00160405290816000820154815260200160018201548152602001600282015481526020016003820160009054906101000a90046001600160a01b03166001600160a01b03166001600160a01b031681526020016003820160149054906101000a900460ff166002811115610e9d57610e9d6110c6565b6002811115610eae57610eae6110c6565b905250949350505050565b610ec1610ff0565b6040518060600160405280604051806040016040528060048152602001636265746160e01b815250815260200160405180604001604052806005815260200164616c70686160d81b8152508152602001604051806040016040528060078152602001661b585a5b9b995d60ca1b815250815250905090565b60008054604051633f784de560e11b81526001600160a01b03848116600483015290911690637ef09bca90602401602060405180830381865afa158015610f84573d6000803e3d6000fd5b505050506040513d601f19601f820116820180604052508101906109ce91906112d8565b6040518060a0016040528060008152602001600081526020016000815260200160006001600160a01b0316815260200160006002811115610feb57610feb6110c6565b905290565b60405180606001604052806003905b6060815260200190600190039081610fff5790505090565b80356001600160a01b0381168114610b0c57600080fd5b803560ff81168114610b0c57600080fd5b6000806000806080858703121561105557600080fd5b61105e85611017565b935061106c6020860161102e565b925061107a6040860161102e565b91506110886060860161102e565b905092959194509250565b600080604083850312156110a657600080fd5b6110af83611017565b91506110bd6020840161102e565b90509250929050565b634e487b7160e01b600052602160045260246000fd5b600381106110fa57634e487b7160e01b600052602160045260246000fd5b9052565b80518252602081015160208301526040810151604083015260018060a01b036060820151166060830152608081015161113a60808401826110dc565b505050565b60a081016109ce82846110fe565b602081016109ce82846110dc565b6000815180845260005b8181101561118157602081850181015186830182015201611165565b506000602082860101526020601f19601f83011685010191505092915050565b6020815260006109cb602083018461115b565b6000602082840312156111c657600080fd5b6109cb82611017565b600060208083018184528085518083526040925060408601915060408160051b8701018488016000805b8481101561127657898403603f190186528251805188865261121d8987018261115b565b918a0151868303878c01528051808452908b01928592508b01905b808310156112615761124b8285516110fe565b60a0820191508b84019350600183019250611238565b50978a019795505050918701916001016111f9565b50919998505050505050505050565b634e487b7160e01b600052603260045260246000fd5b634e487b7160e01b600052600160045260246000fd5b60ff81811683821601908111156109ce57634e487b7160e01b600052601160045260246000fd5b6000602082840312156112ea57600080fd5b815180151581146112fa57600080fd5b939250505056fea264697066735822122097ecd31728298fe5a7b5d24074a188e86689242dac423019382bf0ab5d75f3ee64736f6c63430008180033",
  "devdoc": {
    "kind": "dev",
    "methods": {
      "deductPoint(address,uint8,uint8,uint8)": {
        "details": "Update points for the target user for the current phase if they are already initialized otherwise create a new spot for them. ",
        "params": {
          "contributor": ": Point for contributing;",
          "creator": ": Point earned as a pool creator",
          "referrals": ": Point earned from referrals system",
          "user": ": Unit contribution"
        }
      },
      "getPoint(address,uint8)": {
        "details": "Returns the point See _getPoint"
      },
      "registerToEarnPoints()": {
        "details": "Register user to earn points for the current phase"
      },
      "setPoint(address,uint8,uint8,uint8)": {
        "details": "Update points for the target user for the current phase if they are already initialized otherwise create a new spot for them. ",
        "params": {
          "contributor": ": Point for contributing;",
          "creator": ": Point earned as a pool creator",
          "referrals": ": Point earned from referrals system",
          "user": ": Unit contribution"
        }
      },
      "setRoleManager(address)": {
        "params": {
          "newManager": ": New manager address"
        }
      },
      "switchPhase()": {
        "details": "Move to the next phase. Only rolebearer function"
      }
    },
    "stateVariables": {
      "points": {
        "details": "Mapping showing users rewards for all phases"
      }
    },
    "version": 1
  },
  "userdoc": {
    "kind": "user",
    "methods": {
      "deductPoint(address,uint8,uint8,uint8)": {
        "notice": "Function will always use the current phase"
      },
      "registerToEarnPoints()": {
        "notice": "Users automatically earn free 5 points for signing up"
      },
      "setPoint(address,uint8,uint8,uint8)": {
        "notice": "Function will always use the current phase"
      },
      "setRoleManager(address)": {
        "notice": "Set Role manager"
      }
    },
    "version": 1
  },
  "storageLayout": {
    "storage": [
      {
        "astId": 3783,
        "contract": "contracts/standalone/Points.sol:Points",
        "label": "roleManager",
        "offset": 0,
        "slot": "0",
        "type": "t_contract(IRoleBase)1010"
      },
      {
        "astId": 5043,
        "contract": "contracts/standalone/Points.sol:Points",
        "label": "phase",
        "offset": 20,
        "slot": "0",
        "type": "t_enum(Phase)478"
      },
      {
        "astId": 5048,
        "contract": "contracts/standalone/Points.sol:Points",
        "label": "initializer",
        "offset": 0,
        "slot": "1",
        "type": "t_mapping(t_address,t_struct(Initializer)935_storage)"
      },
      {
        "astId": 5056,
        "contract": "contracts/standalone/Points.sol:Points",
        "label": "points",
        "offset": 0,
        "slot": "2",
        "type": "t_mapping(t_enum(Phase)478,t_array(t_struct(Point)541_storage)dyn_storage)"
      }
    ],
    "types": {
      "t_address": {
        "encoding": "inplace",
        "label": "address",
        "numberOfBytes": "20"
      },
      "t_array(t_struct(Point)541_storage)dyn_storage": {
        "base": "t_struct(Point)541_storage",
        "encoding": "dynamic_array",
        "label": "struct Common.Point[]",
        "numberOfBytes": "32"
      },
      "t_bool": {
        "encoding": "inplace",
        "label": "bool",
        "numberOfBytes": "1"
      },
      "t_contract(IRoleBase)1010": {
        "encoding": "inplace",
        "label": "contract IRoleBase",
        "numberOfBytes": "20"
      },
      "t_enum(Phase)478": {
        "encoding": "inplace",
        "label": "enum Common.Phase",
        "numberOfBytes": "1"
      },
      "t_mapping(t_address,t_struct(Initializer)935_storage)": {
        "encoding": "mapping",
        "key": "t_address",
        "label": "mapping(address => struct IPoint.Initializer)",
        "numberOfBytes": "32",
        "value": "t_struct(Initializer)935_storage"
      },
      "t_mapping(t_enum(Phase)478,t_array(t_struct(Point)541_storage)dyn_storage)": {
        "encoding": "mapping",
        "key": "t_enum(Phase)478",
        "label": "mapping(enum Common.Phase => struct Common.Point[])",
        "numberOfBytes": "32",
        "value": "t_array(t_struct(Point)541_storage)dyn_storage"
      },
      "t_struct(Initializer)935_storage": {
        "encoding": "inplace",
        "label": "struct IPoint.Initializer",
        "members": [
          {
            "astId": 932,
            "contract": "contracts/standalone/Points.sol:Points",
            "label": "isRegistered",
            "offset": 0,
            "slot": "0",
            "type": "t_bool"
          },
          {
            "astId": 934,
            "contract": "contracts/standalone/Points.sol:Points",
            "label": "location",
            "offset": 0,
            "slot": "1",
            "type": "t_uint256"
          }
        ],
        "numberOfBytes": "64"
      },
      "t_struct(Point)541_storage": {
        "encoding": "inplace",
        "label": "struct Common.Point",
        "members": [
          {
            "astId": 531,
            "contract": "contracts/standalone/Points.sol:Points",
            "label": "contributor",
            "offset": 0,
            "slot": "0",
            "type": "t_uint256"
          },
          {
            "astId": 533,
            "contract": "contracts/standalone/Points.sol:Points",
            "label": "creator",
            "offset": 0,
            "slot": "1",
            "type": "t_uint256"
          },
          {
            "astId": 535,
            "contract": "contracts/standalone/Points.sol:Points",
            "label": "referrals",
            "offset": 0,
            "slot": "2",
            "type": "t_uint256"
          },
          {
            "astId": 537,
            "contract": "contracts/standalone/Points.sol:Points",
            "label": "user",
            "offset": 0,
            "slot": "3",
            "type": "t_address"
          },
          {
            "astId": 540,
            "contract": "contracts/standalone/Points.sol:Points",
            "label": "phase",
            "offset": 20,
            "slot": "3",
            "type": "t_enum(Phase)478"
          }
        ],
        "numberOfBytes": "128"
      },
      "t_uint256": {
        "encoding": "inplace",
        "label": "uint256",
        "numberOfBytes": "32"
      }
    }
  }
}