{
  "address": "0xBEfE9A70f4AE058C445EC0A06269aB4aa4356b9F",
  "abi": [
    {
      "inputs": [
        {
          "internalType": "contract IRoleBase",
          "name": "_roleManager",
          "type": "address"
        }
      ],
      "stateMutability": "nonpayable",
      "type": "constructor"
    },
    {
      "inputs": [
        {
          "internalType": "string",
          "name": "errorMsg",
          "type": "string"
        }
      ],
      "name": "ErrorOccurred",
      "type": "error"
    },
    {
      "inputs": [
        {
          "internalType": "address",
          "name": "user",
          "type": "address"
        },
        {
          "internalType": "uint8",
          "name": "contributor",
          "type": "uint8"
        },
        {
          "internalType": "uint8",
          "name": "creator",
          "type": "uint8"
        },
        {
          "internalType": "uint8",
          "name": "referrals",
          "type": "uint8"
        }
      ],
      "name": "deductPoint",
      "outputs": [
        {
          "internalType": "bool",
          "name": "",
          "type": "bool"
        }
      ],
      "stateMutability": "nonpayable",
      "type": "function"
    },
    {
      "inputs": [],
      "name": "getPhase",
      "outputs": [
        {
          "internalType": "string",
          "name": "",
          "type": "string"
        }
      ],
      "stateMutability": "view",
      "type": "function"
    },
    {
      "inputs": [
        {
          "internalType": "address",
          "name": "user",
          "type": "address"
        },
        {
          "internalType": "uint8",
          "name": "_phase",
          "type": "uint8"
        }
      ],
      "name": "getPoint",
      "outputs": [
        {
          "components": [
            {
              "internalType": "uint256",
              "name": "contributor",
              "type": "uint256"
            },
            {
              "internalType": "uint256",
              "name": "creator",
              "type": "uint256"
            },
            {
              "internalType": "uint256",
              "name": "referrals",
              "type": "uint256"
            },
            {
              "internalType": "address",
              "name": "user",
              "type": "address"
            },
            {
              "internalType": "enum Common.Phase",
              "name": "phase",
              "type": "uint8"
            }
          ],
          "internalType": "struct Common.Point",
          "name": "",
          "type": "tuple"
        }
      ],
      "stateMutability": "view",
      "type": "function"
    },
    {
      "inputs": [],
      "name": "getPoints",
      "outputs": [
        {
          "components": [
            {
              "internalType": "string",
              "name": "key",
              "type": "string"
            },
            {
              "components": [
                {
                  "internalType": "uint256",
                  "name": "contributor",
                  "type": "uint256"
                },
                {
                  "internalType": "uint256",
                  "name": "creator",
                  "type": "uint256"
                },
                {
                  "internalType": "uint256",
                  "name": "referrals",
                  "type": "uint256"
                },
                {
                  "internalType": "address",
                  "name": "user",
                  "type": "address"
                },
                {
                  "internalType": "enum Common.Phase",
                  "name": "phase",
                  "type": "uint8"
                }
              ],
              "internalType": "struct Common.Point[]",
              "name": "value",
              "type": "tuple[]"
            }
          ],
          "internalType": "struct Common.PointsReturnValue[]",
          "name": "",
          "type": "tuple[]"
        }
      ],
      "stateMutability": "view",
      "type": "function"
    },
    {
      "inputs": [],
      "name": "phase",
      "outputs": [
        {
          "internalType": "enum Common.Phase",
          "name": "",
          "type": "uint8"
        }
      ],
      "stateMutability": "view",
      "type": "function"
    },
    {
      "inputs": [],
      "name": "registerToEarnPoints",
      "outputs": [],
      "stateMutability": "nonpayable",
      "type": "function"
    },
    {
      "inputs": [],
      "name": "roleManager",
      "outputs": [
        {
          "internalType": "contract IRoleBase",
          "name": "",
          "type": "address"
        }
      ],
      "stateMutability": "view",
      "type": "function"
    },
    {
      "inputs": [
        {
          "internalType": "address",
          "name": "user",
          "type": "address"
        },
        {
          "internalType": "uint8",
          "name": "contributor",
          "type": "uint8"
        },
        {
          "internalType": "uint8",
          "name": "creator",
          "type": "uint8"
        },
        {
          "internalType": "uint8",
          "name": "referrals",
          "type": "uint8"
        }
      ],
      "name": "setPoint",
      "outputs": [
        {
          "internalType": "bool",
          "name": "",
          "type": "bool"
        }
      ],
      "stateMutability": "nonpayable",
      "type": "function"
    },
    {
      "inputs": [
        {
          "internalType": "address",
          "name": "newManager",
          "type": "address"
        }
      ],
      "name": "setRoleManager",
      "outputs": [
        {
          "internalType": "bool",
          "name": "",
          "type": "bool"
        }
      ],
      "stateMutability": "nonpayable",
      "type": "function"
    },
    {
      "inputs": [],
      "name": "switchPhase",
      "outputs": [
        {
          "internalType": "bool",
          "name": "",
          "type": "bool"
        }
      ],
      "stateMutability": "nonpayable",
      "type": "function"
    }
  ],
  "transactionHash": "0xd00cff28eddd51fd403a117f165045f678c0fe361c8f1dde851da21e6a7353b5",
  "args": [
    "0x16884C8C6a494527f4541007A46239218e76F661"
  ],
  "numDeployments": 2,
  "solcInputHash": "9a7d367fb544331e7a1b23751866d184",
  "bytecode": "0x608060405234801561001057600080fd5b506040516113c83803806113c883398101604081905261002f91610050565b600080546001600160a01b0319166001600160a01b03831617905550610080565b60006020828403121561006257600080fd5b81516001600160a01b038116811461007957600080fd5b9392505050565b6113398061008f6000396000f3fe608060405234801561001057600080fd5b506004361061009d5760003560e01c8063ab0eb62d11610066578063ab0eb62d14610132578063b1c9fe6e1461013a578063eced02801461015b578063f1d588c514610170578063f4b7095b1461018357600080fd5b8062435da5146100a257806354d6de1c146100d25780636bf2daaf146100f55780637116b987146100ff5780639d3fba6614610112575b600080fd5b6000546100b5906001600160a01b031681565b6040516001600160a01b0390911681526020015b60405180910390f35b6100e56100e0366004611041565b610198565b60405190151581526020016100c9565b6100fd610486565b005b6100e561010d366004611041565b61067b565b610125610120366004611095565b610981565b6040516100c99190611141565b6100e56109d5565b60005461014e90600160a01b900460ff1681565b6040516100c9919061114f565b610163610a92565b6040516100c991906111a3565b6100e561017e3660046111b6565b610ae4565b61018b610b12565b6040516100c991906111d1565b60006101a2610ccc565b6001600160a01b0385166000908152600160208181526040928390208351808501909452805460ff1615801585529201549083015261047a57600080546002908290600160a01b900460ff1660018111156101ff576101ff6110c8565b6001811115610210576102106110c8565b815260200190815260200160002082602001518154811061023357610233611287565b90600052602060002090600402016040518060a00160405290816000820154815260200160018201548152602001600282015481526020016003820160009054906101000a90046001600160a01b03166001600160a01b03166001600160a01b031681526020016003820160149054906101000a900460ff1660018111156102bd576102bd6110c8565b60018111156102ce576102ce6110c8565b81525050905080606001516001600160a01b0316876001600160a01b0316146102f9576102f961129d565b60ff861615610376578560ff16816000015101600260008060149054906101000a900460ff166001811115610330576103306110c8565b6001811115610341576103416110c8565b815260200190815260200160002083602001518154811061036457610364611287565b60009182526020909120600490910201555b60ff8516156103f7578460ff16816020015101600260008060149054906101000a900460ff1660018111156103ad576103ad6110c8565b60018111156103be576103be6110c8565b81526020019081526020016000208360200151815481106103e1576103e1611287565b9060005260206000209060040201600101819055505b60ff841615610478578360ff16816040015101600260008060149054906101000a900460ff16600181111561042e5761042e6110c8565b600181111561043f5761043f6110c8565b815260200190815260200160002083602001518154811061046257610462611287565b9060005260206000209060040201600201819055505b505b50600195945050505050565b6000805433808352600160208181526040948590208551808701909652805460ff90811615801588529190930154918601919091529193600160a01b9093041691906104ff576104ff60405180604001604052806012815260200171155cd95c881a5cc81c9959da5cdd195c995960721b815250610d4b565b6001808252600290600090849081111561051b5761051b6110c8565b600181111561052c5761052c6110c8565b815260208082019290925260409081016000908120548484019081526001600160a01b03871682526001938490529181208451815460ff19169015151781559151918301919091556002918490811115610588576105886110c8565b6001811115610599576105996110c8565b81526020019081526020016000206040518060a00160405280600081526020016000815260200160058152602001856001600160a01b031681526020018460018111156105e8576105e86110c8565b90528154600181810184556000938452602093849020835160049093020191825592820151818401556040820151600282015560608201516003820180546001600160a01b039092166001600160a01b03198316811782556080850151949593949391926001600160a81b0319161790600160a01b90849081111561066f5761066f6110c8565b02179055505050505050565b6000610685610ccc565b6001600160a01b03851660009081526001602081815260408084208151808301909252805460ff90811615801584529190940154928201929092529254600160a01b900490911690610974576000600260008360018111156106e9576106e96110c8565b60018111156106fa576106fa6110c8565b815260200190815260200160002083602001518154811061071d5761071d611287565b90600052602060002090600402016040518060a00160405290816000820154815260200160018201548152602001600282015481526020016003820160009054906101000a90046001600160a01b03166001600160a01b03166001600160a01b031681526020016003820160149054906101000a900460ff1660018111156107a7576107a76110c8565b60018111156107b8576107b86110c8565b81525050905080606001516001600160a01b0316886001600160a01b0316146107e3576107e361129d565b60008760ff161180156107f95750805160ff8816105b1561086257805160ff881690036002600084600181111561081c5761081c6110c8565b600181111561082d5761082d6110c8565b815260200190815260200160002084602001518154811061085057610850611287565b60009182526020909120600490910201555b60008660ff1611801561087b57508560ff168160200151115b156108ea578560ff16816020015103600260008460018111156108a0576108a06110c8565b60018111156108b1576108b16110c8565b81526020019081526020016000208460200151815481106108d4576108d4611287565b9060005260206000209060040201600101819055505b60008560ff1611801561090357508460ff168160400151115b15610972578460ff1681604001510360026000846001811115610928576109286110c8565b6001811115610939576109396110c8565b815260200190815260200160002084602001518154811061095c5761095c611287565b9060005260206000209060040201600201819055505b505b5060019695505050505050565b610989610faa565b60038260ff16106109c2576109c26040518060400160405280600d81526020016c496e76616c696420706861736560981b815250610d4b565b6109cc8383610d76565b90505b92915050565b60006109df610ccc565b60008054600160a01b900460ff1660018111156109fe576109fe6110c8565b905060038160ff161015610a5757610a178160016112b3565b60ff166001811115610a2b57610a2b6110c8565b6000805460ff60a01b1916600160a01b836001811115610a4d57610a4d6110c8565b0217905550610a8a565b610a8a6040518060400160405280601281526020017113585e081c1a185cd9481858da1a595d995960721b815250610d4b565b600191505090565b6000805460609190600160a01b900460ff166001811115610ab557610ab56110c8565b90506000610ac1610ebb565b9050808260ff1660038110610ad857610ad8611287565b60200201519250505090565b6000610aee610ccc565b600080546001600160a01b0319166001600160a01b0384161790555060015b919050565b60606000610b1e610ebb565b6040805160038082526080820190925291925060009190816020015b6040805180820190915260608082526020820152815260200190600190039081610b3a57905050905060005b6003811015610cc5576040518060400160405280848360038110610b8c57610b8c611287565b6020020151815260200160026000846001811115610bac57610bac6110c8565b6001811115610bbd57610bbd6110c8565b6001811115610bce57610bce6110c8565b8152602001908152602001600020805480602002602001604051908101604052809291908181526020016000905b82821015610c995760008481526020908190206040805160a08101825260048602909201805483526001808201549484019490945260028101549183019190915260038101546001600160a01b0381166060840152919290916080840191600160a01b90910460ff1690811115610c7557610c756110c8565b6001811115610c8657610c866110c8565b8152505081526020019060010190610bfc565b50505050815250828281518110610cb257610cb2611287565b6020908102919091010152600101610b66565b5092915050565b6000546001600160a01b031680610d0d57610d0d6040518060400160405280600f81526020016e4d616e61676572206973207a65726f60881b815250610d4b565b610d1633610f3b565b610d4857610d486040518060400160405280600d81526020016c1058d8d95cdcc819195b9a5959609a1b815250610d4b565b50565b805115610d48578060405163cc86106360e01b8152600401610d6d91906111a3565b60405180910390fd5b610d7e610faa565b6001600160a01b0383166000908152600160208181526040928390208351808501909452805460ff16158015855292015490830152610cc557600260008460ff166001811115610dd057610dd06110c8565b6001811115610de157610de16110c8565b6001811115610df257610df26110c8565b8152602001908152602001600020816020015181548110610e1557610e15611287565b90600052602060002090600402016040518060a00160405290816000820154815260200160018201548152602001600282015481526020016003820160009054906101000a90046001600160a01b03166001600160a01b03166001600160a01b031681526020016003820160149054906101000a900460ff166001811115610e9f57610e9f6110c8565b6001811115610eb057610eb06110c8565b905250949350505050565b610ec3610ff2565b6040518060600160405280604051806040016040528060048152602001636265746160e01b815250815260200160405180604001604052806005815260200164616c70686160d81b8152508152602001604051806040016040528060078152602001661b585a5b9b995d60ca1b815250815250905090565b60008054604051633f784de560e11b81526001600160a01b03848116600483015290911690637ef09bca90602401602060405180830381865afa158015610f86573d6000803e3d6000fd5b505050506040513d601f19601f820116820180604052508101906109cf91906112da565b6040518060a0016040528060008152602001600081526020016000815260200160006001600160a01b0316815260200160006001811115610fed57610fed6110c8565b905290565b60405180606001604052806003905b60608152602001906001900390816110015790505090565b80356001600160a01b0381168114610b0d57600080fd5b803560ff81168114610b0d57600080fd5b6000806000806080858703121561105757600080fd5b61106085611019565b935061106e60208601611030565b925061107c60408601611030565b915061108a60608601611030565b905092959194509250565b600080604083850312156110a857600080fd5b6110b183611019565b91506110bf60208401611030565b90509250929050565b634e487b7160e01b600052602160045260246000fd5b600281106110fc57634e487b7160e01b600052602160045260246000fd5b9052565b80518252602081015160208301526040810151604083015260018060a01b036060820151166060830152608081015161113c60808401826110de565b505050565b60a081016109cf8284611100565b602081016109cf82846110de565b6000815180845260005b8181101561118357602081850181015186830182015201611167565b506000602082860101526020601f19601f83011685010191505092915050565b6020815260006109cc602083018461115d565b6000602082840312156111c857600080fd5b6109cc82611019565b600060208083018184528085518083526040925060408601915060408160051b8701018488016000805b8481101561127857898403603f190186528251805188865261121f8987018261115d565b918a0151868303878c01528051808452908b01928592508b01905b808310156112635761124d828551611100565b60a0820191508b8401935060018301925061123a565b50978a019795505050918701916001016111fb565b50919998505050505050505050565b634e487b7160e01b600052603260045260246000fd5b634e487b7160e01b600052600160045260246000fd5b60ff81811683821601908111156109cf57634e487b7160e01b600052601160045260246000fd5b6000602082840312156112ec57600080fd5b815180151581146112fc57600080fd5b939250505056fea264697066735822122031d1af4ac35d860d2297e65727d514c9ccea59746f623ab1ff21774ccfc2375e64736f6c63430008180033",
  "devdoc": {
    "kind": "dev",
    "methods": {
      "deductPoint(address,uint8,uint8,uint8)": {
        "details": "Update points for the target user for the current phase if they are already initialized otherwise create a new spot for them. ",
        "params": {
          "contributor": ": Point for contributing;",
          "creator": ": Point earned as a pool creator",
          "referrals": ": Point earned from referrals system",
          "user": ": Unit contribution"
        }
      },
      "getPoint(address,uint8)": {
        "details": "Returns the point See _getPoint"
      },
      "registerToEarnPoints()": {
        "details": "Register user to earn points for the current phase"
      },
      "setPoint(address,uint8,uint8,uint8)": {
        "details": "Update points for the target user for the current phase if they are already initialized otherwise create a new spot for them. ",
        "params": {
          "contributor": ": Point for contributing;",
          "creator": ": Point earned as a pool creator",
          "referrals": ": Point earned from referrals system",
          "user": ": Unit contribution"
        }
      },
      "setRoleManager(address)": {
        "params": {
          "newManager": ": New manager address"
        }
      },
      "switchPhase()": {
        "details": "Move to the next phase. Only rolebearer function"
      }
    },
    "stateVariables": {
      "points": {
        "details": "Mapping showing users rewards for all phases"
      }
    },
    "version": 1
  },
  "userdoc": {
    "kind": "user",
    "methods": {
      "deductPoint(address,uint8,uint8,uint8)": {
        "notice": "Function will always use the current phase"
      },
      "registerToEarnPoints()": {
        "notice": "Users automatically earn free 5 points for signing up"
      },
      "setPoint(address,uint8,uint8,uint8)": {
        "notice": "Function will always use the current phase"
      },
      "setRoleManager(address)": {
        "notice": "Set Role manager"
      }
    },
    "version": 1
  },
  "storageLayout": {
    "storage": [
      {
        "astId": 4095,
        "contract": "contracts/standalone/Points.sol:Points",
        "label": "roleManager",
        "offset": 0,
        "slot": "0",
        "type": "t_contract(IRoleBase)1191"
      },
      {
        "astId": 7483,
        "contract": "contracts/standalone/Points.sol:Points",
        "label": "phase",
        "offset": 20,
        "slot": "0",
        "type": "t_enum(Phase)631"
      },
      {
        "astId": 7488,
        "contract": "contracts/standalone/Points.sol:Points",
        "label": "initializer",
        "offset": 0,
        "slot": "1",
        "type": "t_mapping(t_address,t_struct(Initializer)1088_storage)"
      },
      {
        "astId": 7496,
        "contract": "contracts/standalone/Points.sol:Points",
        "label": "points",
        "offset": 0,
        "slot": "2",
        "type": "t_mapping(t_enum(Phase)631,t_array(t_struct(Point)694_storage)dyn_storage)"
      }
    ],
    "types": {
      "t_address": {
        "encoding": "inplace",
        "label": "address",
        "numberOfBytes": "20"
      },
      "t_array(t_struct(Point)694_storage)dyn_storage": {
        "base": "t_struct(Point)694_storage",
        "encoding": "dynamic_array",
        "label": "struct Common.Point[]",
        "numberOfBytes": "32"
      },
      "t_bool": {
        "encoding": "inplace",
        "label": "bool",
        "numberOfBytes": "1"
      },
      "t_contract(IRoleBase)1191": {
        "encoding": "inplace",
        "label": "contract IRoleBase",
        "numberOfBytes": "20"
      },
      "t_enum(Phase)631": {
        "encoding": "inplace",
        "label": "enum Common.Phase",
        "numberOfBytes": "1"
      },
      "t_mapping(t_address,t_struct(Initializer)1088_storage)": {
        "encoding": "mapping",
        "key": "t_address",
        "label": "mapping(address => struct IPoint.Initializer)",
        "numberOfBytes": "32",
        "value": "t_struct(Initializer)1088_storage"
      },
      "t_mapping(t_enum(Phase)631,t_array(t_struct(Point)694_storage)dyn_storage)": {
        "encoding": "mapping",
        "key": "t_enum(Phase)631",
        "label": "mapping(enum Common.Phase => struct Common.Point[])",
        "numberOfBytes": "32",
        "value": "t_array(t_struct(Point)694_storage)dyn_storage"
      },
      "t_struct(Initializer)1088_storage": {
        "encoding": "inplace",
        "label": "struct IPoint.Initializer",
        "members": [
          {
            "astId": 1085,
            "contract": "contracts/standalone/Points.sol:Points",
            "label": "isRegistered",
            "offset": 0,
            "slot": "0",
            "type": "t_bool"
          },
          {
            "astId": 1087,
            "contract": "contracts/standalone/Points.sol:Points",
            "label": "location",
            "offset": 0,
            "slot": "1",
            "type": "t_uint256"
          }
        ],
        "numberOfBytes": "64"
      },
      "t_struct(Point)694_storage": {
        "encoding": "inplace",
        "label": "struct Common.Point",
        "members": [
          {
            "astId": 684,
            "contract": "contracts/standalone/Points.sol:Points",
            "label": "contributor",
            "offset": 0,
            "slot": "0",
            "type": "t_uint256"
          },
          {
            "astId": 686,
            "contract": "contracts/standalone/Points.sol:Points",
            "label": "creator",
            "offset": 0,
            "slot": "1",
            "type": "t_uint256"
          },
          {
            "astId": 688,
            "contract": "contracts/standalone/Points.sol:Points",
            "label": "referrals",
            "offset": 0,
            "slot": "2",
            "type": "t_uint256"
          },
          {
            "astId": 690,
            "contract": "contracts/standalone/Points.sol:Points",
            "label": "user",
            "offset": 0,
            "slot": "3",
            "type": "t_address"
          },
          {
            "astId": 693,
            "contract": "contracts/standalone/Points.sol:Points",
            "label": "phase",
            "offset": 20,
            "slot": "3",
            "type": "t_enum(Phase)631"
          }
        ],
        "numberOfBytes": "128"
      },
      "t_uint256": {
        "encoding": "inplace",
        "label": "uint256",
        "numberOfBytes": "32"
      }
    }
  }
}