{
  "address": "0x803C0997623CF5bcb033cD03bA4B3E662aa843ed",
  "abi": [
    {
      "inputs": [
        {
          "internalType": "contract IRoleBase",
          "name": "_roleManager",
          "type": "address"
        }
      ],
      "stateMutability": "nonpayable",
      "type": "constructor"
    },
    {
      "inputs": [
        {
          "internalType": "string",
          "name": "errorMsg",
          "type": "string"
        }
      ],
      "name": "ErrorOccurred",
      "type": "error"
    },
    {
      "inputs": [
        {
          "internalType": "address",
          "name": "user",
          "type": "address"
        },
        {
          "components": [
            {
              "internalType": "uint256",
              "name": "contributor",
              "type": "uint256"
            },
            {
              "internalType": "uint256",
              "name": "creator",
              "type": "uint256"
            },
            {
              "internalType": "uint256",
              "name": "referrals",
              "type": "uint256"
            },
            {
              "internalType": "address",
              "name": "user",
              "type": "address"
            }
          ],
          "internalType": "struct Common.Point",
          "name": "_point",
          "type": "tuple"
        }
      ],
      "name": "deductPoint",
      "outputs": [
        {
          "internalType": "bool",
          "name": "",
          "type": "bool"
        }
      ],
      "stateMutability": "nonpayable",
      "type": "function"
    },
    {
      "inputs": [
        {
          "internalType": "address",
          "name": "user",
          "type": "address"
        }
      ],
      "name": "getPoint",
      "outputs": [
        {
          "components": [
            {
              "internalType": "uint256",
              "name": "contributor",
              "type": "uint256"
            },
            {
              "internalType": "uint256",
              "name": "creator",
              "type": "uint256"
            },
            {
              "internalType": "uint256",
              "name": "referrals",
              "type": "uint256"
            },
            {
              "internalType": "address",
              "name": "user",
              "type": "address"
            }
          ],
          "internalType": "struct Common.Point",
          "name": "",
          "type": "tuple"
        }
      ],
      "stateMutability": "view",
      "type": "function"
    },
    {
      "inputs": [],
      "name": "getPoints",
      "outputs": [
        {
          "components": [
            {
              "internalType": "uint256",
              "name": "contributor",
              "type": "uint256"
            },
            {
              "internalType": "uint256",
              "name": "creator",
              "type": "uint256"
            },
            {
              "internalType": "uint256",
              "name": "referrals",
              "type": "uint256"
            },
            {
              "internalType": "address",
              "name": "user",
              "type": "address"
            }
          ],
          "internalType": "struct Common.Point[]",
          "name": "_points",
          "type": "tuple[]"
        }
      ],
      "stateMutability": "view",
      "type": "function"
    },
    {
      "inputs": [],
      "name": "registerToEarnPoints",
      "outputs": [],
      "stateMutability": "nonpayable",
      "type": "function"
    },
    {
      "inputs": [],
      "name": "roleManager",
      "outputs": [
        {
          "internalType": "contract IRoleBase",
          "name": "",
          "type": "address"
        }
      ],
      "stateMutability": "view",
      "type": "function"
    },
    {
      "inputs": [
        {
          "internalType": "address",
          "name": "user",
          "type": "address"
        },
        {
          "components": [
            {
              "internalType": "uint256",
              "name": "contributor",
              "type": "uint256"
            },
            {
              "internalType": "uint256",
              "name": "creator",
              "type": "uint256"
            },
            {
              "internalType": "uint256",
              "name": "referrals",
              "type": "uint256"
            },
            {
              "internalType": "address",
              "name": "user",
              "type": "address"
            }
          ],
          "internalType": "struct Common.Point",
          "name": "_point",
          "type": "tuple"
        }
      ],
      "name": "setPoint",
      "outputs": [
        {
          "internalType": "bool",
          "name": "",
          "type": "bool"
        }
      ],
      "stateMutability": "nonpayable",
      "type": "function"
    },
    {
      "inputs": [
        {
          "internalType": "address",
          "name": "newManager",
          "type": "address"
        }
      ],
      "name": "setRoleManager",
      "outputs": [
        {
          "internalType": "bool",
          "name": "",
          "type": "bool"
        }
      ],
      "stateMutability": "nonpayable",
      "type": "function"
    }
  ],
  "transactionHash": "0x5d8f6c6f5e4dd66abceb474bfcfd3a1f0cd6b29357b8c65081402b89ddd4af6e",
  "args": [
    "0x79dF2FCc7DfDdc0C85Cc1f82B1f631b4b9D994B0"
  ],
  "numDeployments": 4,
  "solcInputHash": "3c7de07a98fca6e4e8f308c311e7a89b",
  "bytecode": "0x608060405234801561001057600080fd5b50604051610bc9380380610bc983398101604081905261002f91610050565b600080546001600160a01b0319166001600160a01b03831617905550610080565b60006020828403121561006257600080fd5b81516001600160a01b038116811461007957600080fd5b9392505050565b610b3a8061008f6000396000f3fe608060405234801561001057600080fd5b506004361061007c5760003560e01c80636bf2daaf1161005b5780636bf2daaf146100f45780639c046223146100fe578063f1d588c514610111578063f4b7095b1461012457600080fd5b8062435da514610081578063300ee724146100b15780634ff531b6146100d4575b600080fd5b600054610094906001600160a01b031681565b6040516001600160a01b0390911681526020015b60405180910390f35b6100c46100bf3660046108fd565b610139565b60405190151581526020016100a8565b6100e76100e236600461099c565b610307565b6040516100a891906109be565b6100fc610344565b005b6100c461010c3660046108fd565b6104c9565b6100c461011f36600461099c565b610638565b61012c610666565b6040516100a891906109f2565b60006101436106f0565b6001600160a01b0383166000908152600260209081526040918290208251808401909352805460ff161580158452600190910154918301919091526102fb576000600182602001518154811061019b5761019b610a67565b6000918252602091829020604080516080810182526004909302909101805483526001810154938301939093526002830154908201526003909101546001600160a01b0390811660608084018290528701519293509116146101ff576101ff610a7d565b835115801590610210575083518151115b15610249578360000151816000015103600183602001518154811061023757610237610a67565b60009182526020909120600490910201555b60008460200151118015610264575083602001518160200151115b156102a1578360200151816020015103600183602001518154811061028b5761028b610a67565b9060005260206000209060040201600101819055505b600084604001511180156102bc575083604001518160400151115b156102f957836040015181604001510360018360200151815481106102e3576102e3610a67565b9060005260206000209060040201600201819055505b505b60019150505b92915050565b61033b604051806080016040528060008152602001600081526020016000815260200160006001600160a01b031681525090565b6103018261076f565b336000818152600260209081526040918290208251808401909352805460ff161580158452600190910154918301919091526103ad576103ad60405180604001604052806012815260200171155cd95c881a5cc81c9959da5cdd195c995960721b81525061084c565b6001808252805460208084019182526001600160a01b0394851660008181526002835260408082209651875460ff19169015151787559351958501959095558251608081018452858152918201858152600593830193845260608301918252845480860186559490955290517fb10e2d527612073b26eecdfd717e6a320cf44b4afac2b0732d9fcbe2b7fa0cf660049094029384015592517fb10e2d527612073b26eecdfd717e6a320cf44b4afac2b0732d9fcbe2b7fa0cf7830155517fb10e2d527612073b26eecdfd717e6a320cf44b4afac2b0732d9fcbe2b7fa0cf882015590517fb10e2d527612073b26eecdfd717e6a320cf44b4afac2b0732d9fcbe2b7fa0cf990910180546001600160a01b03191691909216179055565b60006104d36106f0565b6001600160a01b0383166000908152600260209081526040918290208251808401909352805460ff161580158452600190910154918301919091526102fb576000600182602001518154811061052b5761052b610a67565b6000918252602091829020604080516080810182526004909302909101805483526001810154938301939093526002830154908201526003909101546001600160a01b03908116606080840182905287015192935091161461058f5761058f610a7d565b8351156105ca57836000015181600001510160018360200151815481106105b8576105b8610a67565b60009182526020909120600490910201555b60208401511561060c57836020015181602001510160018360200151815481106105f6576105f6610a67565b9060005260206000209060040201600101819055505b6040840151156102f957836040015181604001510160018360200151815481106102e3576102e3610a67565b60006106426106f0565b600080546001600160a01b0319166001600160a01b0384161790555060015b919050565b60606001805480602002602001604051908101604052809291908181526020016000905b828210156106e757600084815260209081902060408051608081018252600486029092018054835260018082015484860152600282015492840192909252600301546001600160a01b03166060830152908352909201910161068a565b50505050905090565b6000546001600160a01b031680610731576107316040518060400160405280600f81526020016e4d616e61676572206973207a65726f60881b81525061084c565b61073a33610877565b61076c5761076c6040518060400160405280600d81526020016c1058d8d95cdcc819195b9a5959609a1b81525061084c565b50565b6107a3604051806080016040528060008152602001600081526020016000815260200160006001600160a01b031681525090565b6001600160a01b0382166000908152600260209081526040918290208251808401909352805460ff161580158452600190910154918301919091526108465760018160200151815481106107f9576107f9610a67565b6000918252602091829020604080516080810182526004909302909101805483526001810154938301939093526002830154908201526003909101546001600160a01b0316606082015291505b50919050565b80511561076c578060405163cc86106360e01b815260040161086e9190610a93565b60405180910390fd5b60008054604051633f784de560e11b81526001600160a01b03848116600483015290911690637ef09bca90602401602060405180830381865afa1580156108c2573d6000803e3d6000fd5b505050506040513d601f19601f820116820180604052508101906103019190610ae2565b80356001600160a01b038116811461066157600080fd5b60008082840360a081121561091157600080fd5b61091a846108e6565b92506080601f198201121561092e57600080fd5b506040516080810181811067ffffffffffffffff8211171561096057634e487b7160e01b600052604160045260246000fd5b806040525060208401358152604084013560208201526060840135604082015261098c608085016108e6565b6060820152809150509250929050565b6000602082840312156109ae57600080fd5b6109b7826108e6565b9392505050565b8151815260208083015190820152604080830151908201526060808301516001600160a01b03169082015260808101610301565b6020808252825182820181905260009190848201906040850190845b81811015610a5b57610a488385518051825260208082015190830152604080820151908301526060908101516001600160a01b0316910152565b9284019260809290920191600101610a0e565b50909695505050505050565b634e487b7160e01b600052603260045260246000fd5b634e487b7160e01b600052600160045260246000fd5b60006020808352835180602085015260005b81811015610ac157858101830151858201604001528201610aa5565b506000604082860101526040601f19601f8301168501019250505092915050565b600060208284031215610af457600080fd5b815180151581146109b757600080fdfea264697066735822122063f8ef1d82afeccc9eee540f5b79bf1f46ef77c534e334b8108e54df4af3a56264736f6c63430008180033",
  "devdoc": {
    "kind": "dev",
    "methods": {
      "deductPoint(address,(uint256,uint256,uint256,address))": {
        "details": "Update points for the target user if they are already initialized otherwise create a new spot for them. ",
        "params": {
          "_point": ": Point struct containing essential data;",
          "user": ": Unit contribution"
        }
      },
      "getPoint(address)": {
        "details": "Returns the point See _getPoint"
      },
      "registerToEarnPoints()": {
        "details": "Register user to earn points"
      },
      "setPoint(address,(uint256,uint256,uint256,address))": {
        "details": "Update points for the target user if they are already initialized otherwise create a new spot for them. ",
        "params": {
          "_point": ": Point struct containing essential data;",
          "user": ": Unit contribution"
        }
      },
      "setRoleManager(address)": {
        "params": {
          "newManager": ": New manager address"
        }
      }
    },
    "version": 1
  },
  "userdoc": {
    "kind": "user",
    "methods": {
      "registerToEarnPoints()": {
        "notice": "Users automatically earn free 5 points for signing up"
      },
      "setRoleManager(address)": {
        "notice": "Set Role manager"
      }
    },
    "version": 1
  },
  "storageLayout": {
    "storage": [
      {
        "astId": 3899,
        "contract": "contracts/standalone/Points.sol:Points",
        "label": "roleManager",
        "offset": 0,
        "slot": "0",
        "type": "t_contract(IRoleBase)1095"
      },
      {
        "astId": 5940,
        "contract": "contracts/standalone/Points.sol:Points",
        "label": "points",
        "offset": 0,
        "slot": "1",
        "type": "t_array(t_struct(Point)641_storage)dyn_storage"
      },
      {
        "astId": 5945,
        "contract": "contracts/standalone/Points.sol:Points",
        "label": "initializer",
        "offset": 0,
        "slot": "2",
        "type": "t_mapping(t_address,t_struct(Initializer)1028_storage)"
      }
    ],
    "types": {
      "t_address": {
        "encoding": "inplace",
        "label": "address",
        "numberOfBytes": "20"
      },
      "t_array(t_struct(Point)641_storage)dyn_storage": {
        "base": "t_struct(Point)641_storage",
        "encoding": "dynamic_array",
        "label": "struct Common.Point[]",
        "numberOfBytes": "32"
      },
      "t_bool": {
        "encoding": "inplace",
        "label": "bool",
        "numberOfBytes": "1"
      },
      "t_contract(IRoleBase)1095": {
        "encoding": "inplace",
        "label": "contract IRoleBase",
        "numberOfBytes": "20"
      },
      "t_mapping(t_address,t_struct(Initializer)1028_storage)": {
        "encoding": "mapping",
        "key": "t_address",
        "label": "mapping(address => struct IPoint.Initializer)",
        "numberOfBytes": "32",
        "value": "t_struct(Initializer)1028_storage"
      },
      "t_struct(Initializer)1028_storage": {
        "encoding": "inplace",
        "label": "struct IPoint.Initializer",
        "members": [
          {
            "astId": 1025,
            "contract": "contracts/standalone/Points.sol:Points",
            "label": "isRegistered",
            "offset": 0,
            "slot": "0",
            "type": "t_bool"
          },
          {
            "astId": 1027,
            "contract": "contracts/standalone/Points.sol:Points",
            "label": "location",
            "offset": 0,
            "slot": "1",
            "type": "t_uint256"
          }
        ],
        "numberOfBytes": "64"
      },
      "t_struct(Point)641_storage": {
        "encoding": "inplace",
        "label": "struct Common.Point",
        "members": [
          {
            "astId": 634,
            "contract": "contracts/standalone/Points.sol:Points",
            "label": "contributor",
            "offset": 0,
            "slot": "0",
            "type": "t_uint256"
          },
          {
            "astId": 636,
            "contract": "contracts/standalone/Points.sol:Points",
            "label": "creator",
            "offset": 0,
            "slot": "1",
            "type": "t_uint256"
          },
          {
            "astId": 638,
            "contract": "contracts/standalone/Points.sol:Points",
            "label": "referrals",
            "offset": 0,
            "slot": "2",
            "type": "t_uint256"
          },
          {
            "astId": 640,
            "contract": "contracts/standalone/Points.sol:Points",
            "label": "user",
            "offset": 0,
            "slot": "3",
            "type": "t_address"
          }
        ],
        "numberOfBytes": "128"
      },
      "t_uint256": {
        "encoding": "inplace",
        "label": "uint256",
        "numberOfBytes": "32"
      }
    }
  }
}