{
  "address": "0xa398e5b7Ca6a9F87AE02AEC1B8060A92eF05eD49",
  "abi": [
    {
      "inputs": [
        {
          "internalType": "contract IRoleBase",
          "name": "_roleManager",
          "type": "address"
        },
        {
          "internalType": "address",
          "name": "_feeTo",
          "type": "address"
        }
      ],
      "stateMutability": "nonpayable",
      "type": "constructor"
    },
    {
      "inputs": [
        {
          "internalType": "string",
          "name": "errorMsg",
          "type": "string"
        }
      ],
      "name": "ErrorOccurred",
      "type": "error"
    },
    {
      "inputs": [],
      "name": "feeTo",
      "outputs": [
        {
          "internalType": "address",
          "name": "",
          "type": "address"
        }
      ],
      "stateMutability": "view",
      "type": "function"
    },
    {
      "inputs": [
        {
          "internalType": "uint256",
          "name": "unit",
          "type": "uint256"
        }
      ],
      "name": "getSafe",
      "outputs": [
        {
          "internalType": "address",
          "name": "",
          "type": "address"
        }
      ],
      "stateMutability": "view",
      "type": "function"
    },
    {
      "inputs": [
        {
          "internalType": "uint256",
          "name": "unit",
          "type": "uint256"
        }
      ],
      "name": "pingSafe",
      "outputs": [
        {
          "internalType": "address",
          "name": "_safe",
          "type": "address"
        }
      ],
      "stateMutability": "nonpayable",
      "type": "function"
    },
    {
      "inputs": [],
      "name": "roleManager",
      "outputs": [
        {
          "internalType": "contract IRoleBase",
          "name": "",
          "type": "address"
        }
      ],
      "stateMutability": "view",
      "type": "function"
    },
    {
      "inputs": [
        {
          "internalType": "address",
          "name": "newFeeTo",
          "type": "address"
        }
      ],
      "name": "setFeeTo",
      "outputs": [],
      "stateMutability": "nonpayable",
      "type": "function"
    },
    {
      "inputs": [
        {
          "internalType": "address",
          "name": "newManager",
          "type": "address"
        }
      ],
      "name": "setRoleManager",
      "outputs": [
        {
          "internalType": "bool",
          "name": "",
          "type": "bool"
        }
      ],
      "stateMutability": "nonpayable",
      "type": "function"
    },
    {
      "inputs": [],
      "name": "totalSafes",
      "outputs": [
        {
          "internalType": "uint256",
          "name": "",
          "type": "uint256"
        }
      ],
      "stateMutability": "view",
      "type": "function"
    },
    {
      "stateMutability": "payable",
      "type": "receive"
    }
  ],
  "transactionHash": "0x6ce58e98f7582ed7e52565c863f511eaf34c56597992bb242b1dd26b92ecb890",
  "args": [
    "0x16884C8C6a494527f4541007A46239218e76F661",
    "0xD7c271d20c9E323336bFC843AEb8deC23B346352"
  ],
  "numDeployments": 2,
  "solcInputHash": "9a7d367fb544331e7a1b23751866d184",
  "bytecode": "0x608060405234801561001057600080fd5b50604051611bfe380380611bfe83398101604081905261002f91610078565b600080546001600160a01b039384166001600160a01b031991821617909155600280549290931691161790556100b2565b6001600160a01b038116811461007557600080fd5b50565b6000806040838503121561008b57600080fd5b825161009681610060565b60208401519092506100a781610060565b809150509250929050565b611b3d806100c16000396000f3fe6080604052600436106100735760003560e01c806383d0f8d21161004e57806383d0f8d214610103578063f1d588c514610123578063f46901ed14610153578063f72be5691461017557600080fd5b8062435da514610082578063017e7e58146100bf5780632f823186146100df57600080fd5b3661007d57600080fd5b600080fd5b34801561008e57600080fd5b506000546100a2906001600160a01b031681565b6040516001600160a01b0390911681526020015b60405180910390f35b3480156100cb57600080fd5b506002546100a2906001600160a01b031681565b3480156100eb57600080fd5b506100f560015481565b6040519081526020016100b6565b34801561010f57600080fd5b506100a261011e366004610417565b610195565b34801561012f57600080fd5b5061014361013e366004610430565b6101b4565b60405190151581526020016100b6565b34801561015f57600080fd5b5061017361016e366004610430565b6101e1565b005b34801561018157600080fd5b506100a2610190366004610417565b61020b565b6000818152600360205260408120546001600160a01b03165b92915050565b60006101be610257565b600080546001600160a01b0319166001600160a01b038416179055506001919050565b6101e9610257565b600280546001600160a01b0319166001600160a01b0392909216919091179055565b6000610215610257565b6000828152600360205260409020546001600160a01b031661023a576101ae826102d6565b6000828152600360205260409020546001600160a01b03166101ae565b6000546001600160a01b031680610298576102986040518060400160405280600f81526020016e4d616e61676572206973207a65726f60881b815250610370565b6102a13361039b565b6102d3576102d36040518060400160405280600d81526020016c1058d8d95cdcc819195b9a5959609a1b815250610370565b50565b60018054600091826102e783610460565b90915550506000546002546040516001600160a01b03928316929091169061030e9061040a565b6001600160a01b03928316815291166020820152604001604051809103906000f080158015610341573d6000803e3d6000fd5b50600083815260036020526040902080546001600160a01b0319166001600160a01b0383161790559050919050565b8051156102d3578060405163cc86106360e01b81526004016103929190610487565b60405180910390fd5b60008054604051633f784de560e11b81526001600160a01b03848116600483015290911690637ef09bca90602401602060405180830381865afa1580156103e6573d6000803e3d6000fd5b505050506040513d601f19601f820116820180604052508101906101ae91906104d6565b61160f806104f983390190565b60006020828403121561042957600080fd5b5035919050565b60006020828403121561044257600080fd5b81356001600160a01b038116811461045957600080fd5b9392505050565b60006001820161048057634e487b7160e01b600052601160045260246000fd5b5060010190565b60006020808352835180602085015260005b818110156104b557858101830151858201604001528201610499565b506000604082860101526040601f19601f8301168501019250505092915050565b6000602082840312156104e857600080fd5b8151801515811461045957600080fdfe60a060405234801561001057600080fd5b5060405161160f38038061160f83398101604081905261002f91610078565b600080546001600160a01b0319166001600160a01b038416179055600180556001600160a01b0316608052506100b2565b6001600160a01b038116811461007557600080fd5b50565b6000806040838503121561008b57600080fd5b825161009681610060565b60208401519092506100a781610060565b809150509250929050565b60805161152e6100e16000396000818160a80152818161017a01528181610a9d0152610bb7015261152e6000f3fe60806040526004361061009f5760003560e01c806341a8d7ce1161006457806341a8d7ce146102425780634cd01af114610272578063b28132c714610306578063bb16369f1461031c578063d4e869441461033c578063f1d588c51461035c57600080fd5b8062435da51461012b578063017e7e5814610168578063154e343b1461019c578063397c39bd146101d75780633bc5de30146101f757600080fd5b366101265760007f00000000000000000000000000000000000000000000000000000000000000006001600160a01b03163460405160006040518083038185875af1925050503d8060008114610111576040519150601f19603f3d011682016040523d82523d6000602084013e610116565b606091505b505090508061012457600080fd5b005b600080fd5b34801561013757600080fd5b5060005461014b906001600160a01b031681565b6040516001600160a01b0390911681526020015b60405180910390f35b34801561017457600080fd5b5061014b7f000000000000000000000000000000000000000000000000000000000000000081565b3480156101a857600080fd5b506101c96101b7366004610ef7565b60076020526000908152604090205481565b60405190815260200161015f565b3480156101e357600080fd5b506101c96101f2366004611145565b61037c565b34801561020357600080fd5b5060408051808201825260008082526020918201528151808301835260025480825260035491830191825283519081529051918101919091520161015f565b34801561024e57600080fd5b5061026261025d36600461124e565b610601565b604051901515815260200161015f565b34801561027e57600080fd5b506102e961028d36600461124e565b60408051808201825260008082526020918201819052825180840184526001600160a01b03959095168082526005835283822085835283528382205460ff16151586528152600682528281209381529281529120549082015290565b60408051825115158152602092830151928101929092520161015f565b34801561031257600080fd5b506101c960045481565b34801561032857600080fd5b5061026261033736600461127a565b610628565b34801561034857600080fd5b506102626103573660046112c0565b6106bf565b34801561036857600080fd5b50610262610377366004610ef7565b6107b8565b60006103866107e6565b8260c0015161039657825161039c565b8260e001515b6101008401516001600160a01b03821660009081526005602090815260408083206001600160601b039094168084529390915290205460ff1661041357610413604051806040016040528060198152602001785573657220646f6573206e6f7420686176652061636365737360381b815250610865565b84516001600160a01b031660009081526006602090815260408083206101008901516001600160601b0316845290915290205460c0860151909350156104c35760e0850180516001600160a01b0390811660009081526006602081815260408084206101008c0180516001600160601b0390811687529184528286205488519097168652938352818520845182168652909252832092909255925192519195506104be929116610890565b6104df565b6104df85600001518661010001516001600160601b0316610890565b84516001600160a01b0390811660009081526006602090815260408083206101008a01516001600160601b03168452825280832083905580890180518a51909516845260079092529091209190915551600480548201905560608601516105469190611319565b60208601516040516370a0823160e01b81523060048201526001600160a01b03909116906370a0823190602401602060405180830381865afa158015610590573d6000803e3d6000fd5b505050506040513d601f19601f820116820180604052508101906105b4919061133a565b10156105c2576105c2611353565b6105d6856000015186610120015185610903565b8460800151156105f9576105f98560200151858761010001518860a001516109f6565b505092915050565b600061060b6107e6565b60028054600101905561061e8383610c79565b5060015b92915050565b60006106326107e6565b6001600160a01b03851660009081526005602090815260408083208584529091529020548590839060ff1661069b5761069b604051806040016040528060198152602001785573657220646f6573206e6f7420686176652061636365737360381b815250610865565b6106a6878787610903565b6106b08785610890565b600192505b5050949350505050565b6001600160a01b03861660009081526005602090815260408083208484529091528120548790839060ff1661072857610728604051806040016040528060198152602001785573657220646f6573206e6f7420686176652061636365737360381b815250610865565b6107306107e6565b6001600160a01b0388161580159061075057506001600160a01b03891615155b61075c5761075c611353565b6001600160a01b0389166000908152600660209081526040808320878452909152902085905586861561079d5760038054880190558681111561079d578690035b6107a88a8a83610903565b5060019998505050505050505050565b60006107c26107e6565b600080546001600160a01b0319166001600160a01b0384161790555060015b919050565b6000546001600160a01b031680610827576108276040518060400160405280600f81526020016e4d616e61676572206973207a65726f60881b815250610865565b61083033610cdd565b610862576108626040518060400160405280600d81526020016c1058d8d95cdcc819195b9a5959609a1b815250610865565b50565b805115610862578060405163cc86106360e01b81526004016108879190611369565b60405180910390fd5b6001600160a01b038216600090815260056020908152604080832084845290915290205460ff166108c3576108c3611353565b600254156108d657600280546000190190555b6001600160a01b03909116600090815260056020908152604080832093835292905220805460ff19169055565b604051636eb1769f60e11b81523060048201526001600160a01b0384811660248301526000919084169063dd62ed3e90604401602060405180830381865afa158015610953573d6000803e3d6000fd5b505050506040513d601f19601f82011682018060405250810190610977919061133a565b60405163095ea7b360e01b81526001600160a01b03868116600483015284830160248301529192509084169063095ea7b3906044016020604051808303816000875af11580156109cb573d6000803e3d6000fd5b505050506040513d601f19601f820116820180604052508101906109ef91906113b8565b5050505050565b6040516370a0823160e01b81523060048201526000906001600160a01b038616906370a0823190602401602060405180830381865afa158015610a3d573d6000803e3d6000fd5b505050506040513d601f19601f82011682018060405250810190610a61919061133a565b6003549091508115610c6c57600081118015610a7c57508082115b15610b5657600060035560405163a9059cbb60e01b81526001600160a01b037f00000000000000000000000000000000000000000000000000000000000000008116600483015260248201839052928290039287169063a9059cbb906044016020604051808303816000875af1158015610afa573d6000803e3d6000fd5b505050506040513d601f19601f82011682018060405250810190610b1e91906113b8565b610b5657610b5660405180604001604052806013815260200172119959481d1c985b9cd9995c8819985a5b1959606a1b815250610865565b8115610c6c5760005b8351811015610b9957610b8d848281518110610b7d57610b7d6113d5565b602002602001015187878a610d4c565b90920391600101610b5f565b508115610c6c5760405163a9059cbb60e01b81526001600160a01b037f0000000000000000000000000000000000000000000000000000000000000000811660048301526024820184905287169063a9059cbb906044016020604051808303816000875af1158015610c0f573d6000803e3d6000fd5b505050506040513d601f19601f82011682018060405250810190610c3391906113b8565b610c6c57610c6c604051806040016040528060148152602001731199594c881d1c985b9cd9995c8819985a5b195960621b815250610865565b5050600060025550505050565b6001600160a01b038216600090815260056020908152604080832084845290915290205460ff1615610cad57610cad611353565b6001600160a01b03909116600090815260056020908152604080832093835292905220805460ff19166001179055565b60008054604051633f784de560e11b81526001600160a01b03848116600483015290911690637ef09bca90602401602060405180830381865afa158015610d28573d6000803e3d6000fd5b505050506040513d601f19601f8201168201806040525081019061062291906113b8565b60a08401516001600160a01b0316600090815260076020526040812054813360a0880151604051633e3925f760e21b81526001600160a01b0391821660048201526001600160601b038816602482015291169063f8e497dc90604401600060405180830381865afa158015610dc5573d6000803e3d6000fd5b505050506040513d6000823e601f3d908101601f19168201604052610ded91908101906113eb565b805190915015610ec35760005b8151811015610eb9576000828281518110610e1757610e176113d5565b602002602001015160600151896000015163ffffffff1603838381518110610e4157610e416113d5565b602002602001015160a001516020015102838381518110610e6457610e646113d5565b60200260200101516020015101905080841015610e8357610e83611353565b8084039350610eb0838381518110610e9d57610e9d6113d5565b6020026020010151608001518783610903565b50600101610dfa565b50918101916106b5565b85830192506106b58760a001518588610903565b6001600160a01b038116811461086257600080fd5b80356107e181610ed7565b600060208284031215610f0957600080fd5b8135610f1481610ed7565b9392505050565b634e487b7160e01b600052604160045260246000fd5b60405160e0810167ffffffffffffffff81118282101715610f5457610f54610f1b565b60405290565b604051610140810167ffffffffffffffff81118282101715610f5457610f54610f1b565b60405160c0810167ffffffffffffffff81118282101715610f5457610f54610f1b565b6040805190810167ffffffffffffffff81118282101715610f5457610f54610f1b565b604051601f8201601f1916810167ffffffffffffffff81118282101715610fed57610fed610f1b565b604052919050565b801515811461086257600080fd5b80356107e181610ff5565b600067ffffffffffffffff82111561102857611028610f1b565b5060051b60200190565b803563ffffffff811681146107e157600080fd5b600082601f83011261105757600080fd5b8135602061106c6110678361100e565b610fc4565b82815260e0928302850182019282820191908785111561108b57600080fd5b8387015b858110156111215781818a0312156110a75760008081fd5b6110af610f31565b6110b882611032565b81526110c5868301611032565b8682015260406110d6818401611032565b90820152606082810135908201526080808301359082015260a0808301356110fd81610ed7565b9082015260c08281013561111081610ff5565b90820152845292840192810161108f565b5090979650505050505050565b80356001600160601b03811681146107e157600080fd5b6000806040838503121561115857600080fd5b823567ffffffffffffffff8082111561117057600080fd5b90840190610140828703121561118557600080fd5b61118d610f5a565b61119683610eec565b81526111a460208401610eec565b602082015260408301356040820152606083013560608201526111c960808401611003565b608082015260a0830135828111156111e057600080fd5b6111ec88828601611046565b60a0830152506111fe60c08401611003565b60c082015261120f60e08401610eec565b60e0820152610100915061122482840161112e565b828201526101209150611238828401610eec565b9181019190915295602094909401359450505050565b6000806040838503121561126157600080fd5b823561126c81610ed7565b946020939093013593505050565b6000806000806080858703121561129057600080fd5b843561129b81610ed7565b935060208501356112ab81610ed7565b93969395505050506040820135916060013590565b60008060008060008060c087890312156112d957600080fd5b86356112e481610ed7565b955060208701356112f481610ed7565b95989597505050506040840135936060810135936080820135935060a0909101359150565b8082018082111561062257634e487b7160e01b600052601160045260246000fd5b60006020828403121561134c57600080fd5b5051919050565b634e487b7160e01b600052600160045260246000fd5b60006020808352835180602085015260005b818110156113975785810183015185820160400152820161137b565b506000604082860101526040601f19601f8301168501019250505092915050565b6000602082840312156113ca57600080fd5b8151610f1481610ff5565b634e487b7160e01b600052603260045260246000fd5b600060208083850312156113fe57600080fd5b825167ffffffffffffffff81111561141557600080fd5b8301601f8101851361142657600080fd5b80516114346110678261100e565b81815260e0918202830184019184820191908884111561145357600080fd5b938501935b838510156114ec57848903818112156114715760008081fd5b611479610f7e565b86518152878701518882015260408088015181830152606080890151908301526080808901516114a881610ed7565b9083015260a0609f1984018213156114c05760008081fd5b6114c8610fa1565b89820151815260c08a01518b82015290830152508452509384019391850191611458565b5097965050505050505056fea26469706673582212203d1772ebbf986f7c12bd07d18b77b6008068324d6e15678a01f6bfc7eb6ca28a64736f6c63430008180033a2646970667358221220b98a19f61184f452140a019cdbfe94d33df3d09d81589d1b6124d2f35c8e55ab64736f6c63430008180033",
  "devdoc": {
    "kind": "dev",
    "methods": {
      "constructor": {
        "params": {
          "_feeTo": ": Fee receiver",
          "_roleManager": ": Role manager contract"
        }
      },
      "getSafe(uint256)": {
        "params": {
          "unit": ": Unit amount"
        }
      },
      "pingSafe(uint256)": {
        "details": "Create a new safe."
      },
      "setRoleManager(address)": {
        "params": {
          "newManager": ": New manager address"
        }
      }
    },
    "stateVariables": {
      "safeMap": {
        "details": "Mapping of unit contribution to safe."
      }
    },
    "title": "SafeFactory: A standalone contract that manages safe creation and retrieval,  deletion, read and write data.",
    "version": 1
  },
  "userdoc": {
    "kind": "user",
    "methods": {
      "constructor": {
        "notice": "=========== Constructor ==============="
      },
      "getSafe(uint256)": {
        "notice": "Returns then safe for 'unit'"
      },
      "pingSafe(uint256)": {
        "notice": "'unit' should not own a safe before now.          only address with owner permission can call."
      },
      "setRoleManager(address)": {
        "notice": "Set Role manager"
      }
    },
    "version": 1
  },
  "storageLayout": {
    "storage": [
      {
        "astId": 4095,
        "contract": "contracts/standalone/SafeFactory.sol:SafeFactory",
        "label": "roleManager",
        "offset": 0,
        "slot": "0",
        "type": "t_contract(IRoleBase)1191"
      },
      {
        "astId": 8554,
        "contract": "contracts/standalone/SafeFactory.sol:SafeFactory",
        "label": "totalSafes",
        "offset": 0,
        "slot": "1",
        "type": "t_uint256"
      },
      {
        "astId": 8556,
        "contract": "contracts/standalone/SafeFactory.sol:SafeFactory",
        "label": "feeTo",
        "offset": 0,
        "slot": "2",
        "type": "t_address"
      },
      {
        "astId": 8561,
        "contract": "contracts/standalone/SafeFactory.sol:SafeFactory",
        "label": "safeMap",
        "offset": 0,
        "slot": "3",
        "type": "t_mapping(t_uint256,t_address)"
      }
    ],
    "types": {
      "t_address": {
        "encoding": "inplace",
        "label": "address",
        "numberOfBytes": "20"
      },
      "t_contract(IRoleBase)1191": {
        "encoding": "inplace",
        "label": "contract IRoleBase",
        "numberOfBytes": "20"
      },
      "t_mapping(t_uint256,t_address)": {
        "encoding": "mapping",
        "key": "t_uint256",
        "label": "mapping(uint256 => address)",
        "numberOfBytes": "32",
        "value": "t_address"
      },
      "t_uint256": {
        "encoding": "inplace",
        "label": "uint256",
        "numberOfBytes": "32"
      }
    }
  }
}