{
  "address": "0x388463471656E23816337f37DfAA5DD3Fa02D378",
  "abi": [
    {
      "inputs": [
        {
          "internalType": "contract IOwnerShip",
          "name": "_ownershipManager",
          "type": "address"
        },
        {
          "internalType": "address[]",
          "name": "_signers",
          "type": "address[]"
        },
        {
          "internalType": "uint8",
          "name": "_quorum",
          "type": "uint8"
        }
      ],
      "stateMutability": "nonpayable",
      "type": "constructor"
    },
    {
      "inputs": [
        {
          "internalType": "address",
          "name": "target",
          "type": "address"
        }
      ],
      "name": "AddressEmptyCode",
      "type": "error"
    },
    {
      "inputs": [
        {
          "internalType": "address",
          "name": "account",
          "type": "address"
        }
      ],
      "name": "AddressInsufficientBalance",
      "type": "error"
    },
    {
      "inputs": [],
      "name": "AlreadySigned",
      "type": "error"
    },
    {
      "inputs": [],
      "name": "FailedInnerCall",
      "type": "error"
    },
    {
      "inputs": [
        {
          "internalType": "uint256",
          "name": "",
          "type": "uint256"
        }
      ],
      "name": "InsufficientBalance",
      "type": "error"
    },
    {
      "inputs": [
        {
          "internalType": "uint256",
          "name": "",
          "type": "uint256"
        }
      ],
      "name": "InvalidRequestId",
      "type": "error"
    },
    {
      "inputs": [],
      "name": "ManagerAddressIsZero",
      "type": "error"
    },
    {
      "inputs": [],
      "name": "NotPermittedToCall",
      "type": "error"
    },
    {
      "inputs": [],
      "name": "Pending",
      "type": "error"
    },
    {
      "inputs": [],
      "name": "PleaseLeaveAMinimumOfTwoSigners",
      "type": "error"
    },
    {
      "inputs": [],
      "name": "ReentrancyGuardReentrantCall",
      "type": "error"
    },
    {
      "anonymous": false,
      "inputs": [
        {
          "indexed": false,
          "internalType": "uint256",
          "name": "reqId",
          "type": "uint256"
        },
        {
          "indexed": false,
          "internalType": "address",
          "name": "from",
          "type": "address"
        }
      ],
      "name": "Requested",
      "type": "event"
    },
    {
      "anonymous": false,
      "inputs": [
        {
          "indexed": false,
          "internalType": "uint256",
          "name": "reqId",
          "type": "uint256"
        },
        {
          "indexed": false,
          "internalType": "address",
          "name": "from",
          "type": "address"
        }
      ],
      "name": "Signer",
      "type": "event"
    },
    {
      "anonymous": false,
      "inputs": [
        {
          "indexed": false,
          "internalType": "string",
          "name": "",
          "type": "string"
        }
      ],
      "name": "ThankYou",
      "type": "event"
    },
    {
      "inputs": [
        {
          "internalType": "uint256",
          "name": "reqId",
          "type": "uint256"
        }
      ],
      "name": "executeTransaction",
      "outputs": [],
      "stateMutability": "nonpayable",
      "type": "function"
    },
    {
      "inputs": [],
      "name": "getExecutors",
      "outputs": [
        {
          "internalType": "address[]",
          "name": "",
          "type": "address[]"
        }
      ],
      "stateMutability": "view",
      "type": "function"
    },
    {
      "inputs": [
        {
          "internalType": "uint256",
          "name": "reqId",
          "type": "uint256"
        }
      ],
      "name": "getTransactionRequest",
      "outputs": [
        {
          "components": [
            {
              "internalType": "uint256",
              "name": "amount",
              "type": "uint256"
            },
            {
              "internalType": "address",
              "name": "recipient",
              "type": "address"
            },
            {
              "internalType": "uint256",
              "name": "delay",
              "type": "uint256"
            },
            {
              "internalType": "address[]",
              "name": "executors",
              "type": "address[]"
            },
            {
              "internalType": "enum TokenDistributor.Status",
              "name": "status",
              "type": "uint8"
            },
            {
              "internalType": "enum TokenDistributor.Type",
              "name": "txType",
              "type": "uint8"
            },
            {
              "internalType": "uint256",
              "name": "expirationTime",
              "type": "uint256"
            },
            {
              "internalType": "uint256",
              "name": "id",
              "type": "uint256"
            }
          ],
          "internalType": "struct TokenDistributor.TransactionRequest",
          "name": "req",
          "type": "tuple"
        }
      ],
      "stateMutability": "view",
      "type": "function"
    },
    {
      "inputs": [],
      "name": "ownershipManager",
      "outputs": [
        {
          "internalType": "contract IOwnerShip",
          "name": "",
          "type": "address"
        }
      ],
      "stateMutability": "view",
      "type": "function"
    },
    {
      "inputs": [
        {
          "internalType": "address",
          "name": "_recipient",
          "type": "address"
        },
        {
          "internalType": "uint256",
          "name": "_amount",
          "type": "uint256"
        },
        {
          "internalType": "uint16",
          "name": "_delayInHours",
          "type": "uint16"
        },
        {
          "internalType": "uint8",
          "name": "_type",
          "type": "uint8"
        }
      ],
      "name": "proposeTransaction",
      "outputs": [],
      "stateMutability": "nonpayable",
      "type": "function"
    },
    {
      "inputs": [],
      "name": "quorum",
      "outputs": [
        {
          "internalType": "uint256",
          "name": "",
          "type": "uint256"
        }
      ],
      "stateMutability": "view",
      "type": "function"
    },
    {
      "inputs": [],
      "name": "requestIDs",
      "outputs": [
        {
          "internalType": "uint256",
          "name": "",
          "type": "uint256"
        }
      ],
      "stateMutability": "view",
      "type": "function"
    },
    {
      "inputs": [
        {
          "internalType": "address",
          "name": "newManager",
          "type": "address"
        }
      ],
      "name": "setOwnershipManager",
      "outputs": [
        {
          "internalType": "bool",
          "name": "",
          "type": "bool"
        }
      ],
      "stateMutability": "nonpayable",
      "type": "function"
    },
    {
      "inputs": [
        {
          "internalType": "contract IERC20",
          "name": "newToken",
          "type": "address"
        }
      ],
      "name": "setToken",
      "outputs": [],
      "stateMutability": "nonpayable",
      "type": "function"
    },
    {
      "inputs": [
        {
          "internalType": "uint256",
          "name": "reqId",
          "type": "uint256"
        }
      ],
      "name": "signTransaction",
      "outputs": [],
      "stateMutability": "nonpayable",
      "type": "function"
    },
    {
      "inputs": [
        {
          "internalType": "address",
          "name": "",
          "type": "address"
        },
        {
          "internalType": "uint256",
          "name": "",
          "type": "uint256"
        }
      ],
      "name": "signed",
      "outputs": [
        {
          "internalType": "bool",
          "name": "",
          "type": "bool"
        }
      ],
      "stateMutability": "view",
      "type": "function"
    },
    {
      "inputs": [
        {
          "internalType": "address",
          "name": "",
          "type": "address"
        }
      ],
      "name": "signers",
      "outputs": [
        {
          "internalType": "bool",
          "name": "",
          "type": "bool"
        }
      ],
      "stateMutability": "view",
      "type": "function"
    },
    {
      "inputs": [],
      "name": "token",
      "outputs": [
        {
          "internalType": "contract IERC20",
          "name": "",
          "type": "address"
        }
      ],
      "stateMutability": "view",
      "type": "function"
    },
    {
      "inputs": [],
      "name": "validExecutors",
      "outputs": [
        {
          "internalType": "uint256",
          "name": "",
          "type": "uint256"
        }
      ],
      "stateMutability": "view",
      "type": "function"
    },
    {
      "stateMutability": "payable",
      "type": "receive"
    }
  ],
  "transactionHash": "0xaefd2da6f7ce817d49bc03f82e37d194be248f6597a83eb8a8cc355e89953fcf",
  "args": [
    "0xF5aE8bE0B39FA81A89C410d0D764C692d368758f",
    [
      "0x16101742676EC066090da2cCf7e7380f917F9f0D",
      "0x85AbBd0605F9C725a1af6CA4Fb1fD4dC14dBD669",
      "0xef55Bc253297392F1a2295f5cE2478F401368c27",
      "0xD7c271d20c9E323336bFC843AEb8deC23B346352"
    ],
    2
  ],
  "numDeployments": 2,
  "solcInputHash": "5f1e8a95e254a465aae6cc5bc790d564",
  "bytecode": "0x60806040523480156200001157600080fd5b5060405162001fa938038062001fa9833981016040819052620000349162000355565b600080546001600160a01b0319166001600160a01b0385161790556001808055825160ff831660025590811180156200006f57506001600254115b62000101576040517f08c379a000000000000000000000000000000000000000000000000000000000815260206004820152602160248201527f4d696e696d756d206f662032207369676e65727320616e6420322071756f727560448201527f6d0000000000000000000000000000000000000000000000000000000000000060648201526084015b60405180910390fd5b8015620001665760005b81811015620001645760008482815181106200012b576200012b62000452565b602002602001015190506200014f816001600160a01b03166200017060201b60201c565b6200015a81620001e5565b506001016200010b565b505b50505050620004b0565b6001600160a01b038116620001e2576040517f08c379a000000000000000000000000000000000000000000000000000000000815260206004820152601b60248201527f4c69623a20546172676574206973207a65726f206164647265737300000000006044820152606401620000f8565b50565b6001600160a01b03811660009081526007602052604090205460ff16156200026a576040517f08c379a000000000000000000000000000000000000000000000000000000000815260206004820152601560248201527f4163636f756e7420616c726561647920657869737400000000000000000000006044820152606401620000f8565b6001600160a01b0381166000818152600760205260408120805460ff1916600190811790915560058054808301825592527f036b6384b5eca791c62761152d0c79bb0604c104a5fb6f4eb0703f3154bb3db090910180546001600160a01b031916909217909155600380548201905560025411620001e257620001e262000481565b6001600160a01b0381168114620001e257600080fd5b7f4e487b7100000000000000000000000000000000000000000000000000000000600052604160045260246000fd5b80516200033e81620002ec565b919050565b805160ff811681146200033e57600080fd5b6000806000606084860312156200036b57600080fd5b83516200037881620002ec565b602085810151919450906001600160401b03808211156200039857600080fd5b818701915087601f830112620003ad57600080fd5b815181811115620003c257620003c262000302565b8060051b604051601f19603f83011681018181108582111715620003ea57620003ea62000302565b60405291825284820192508381018501918a8311156200040957600080fd5b938501935b828510156200043257620004228562000331565b845293850193928501926200040e565b809750505050505050620004496040850162000343565b90509250925092565b7f4e487b7100000000000000000000000000000000000000000000000000000000600052603260045260246000fd5b7f4e487b7100000000000000000000000000000000000000000000000000000000600052600160045260246000fd5b611ae980620004c06000396000f3fe6080604052600436106100e15760003560e01c806394ddb9c81161007f578063ee22610b11610059578063ee22610b146102e1578063ef09e78f14610301578063fc0c546a14610323578063fe02be5d1461034357600080fd5b806394ddb9c814610266578063b88a39151461027c578063ca93ed78146102b457600080fd5b806324e5bfa7116100bb57806324e5bfa7146101ab5780635d9ec210146101f657806361737d6214610216578063736c0d5b1461023657600080fd5b80630ced977914610140578063144fa6d7146101625780631703a0181461018257600080fd5b3661013b577f239e6a6d3e08690a61fbe93c21ce607af4bb0ddff595243cb13a6a808d15c8d4604051610131906020808252600990820152685468616e6b20596f7560b81b604082015260600190565b60405180910390a1005b600080fd5b34801561014c57600080fd5b5061016061015b366004611741565b610359565b005b34801561016e57600080fd5b5061016061017d3660046117a1565b61058a565b34801561018e57600080fd5b5061019860025481565b6040519081526020015b60405180910390f35b3480156101b757600080fd5b506101e66101c63660046117be565b600860209081526000928352604080842090915290825290205460ff1681565b60405190151581526020016101a2565b34801561020257600080fd5b506101606102113660046117ea565b61067e565b34801561022257600080fd5b506101e66102313660046117a1565b610a4e565b34801561024257600080fd5b506101e66102513660046117a1565b60076020526000908152604090205460ff1681565b34801561027257600080fd5b5061019860045481565b34801561028857600080fd5b5060005461029c906001600160a01b031681565b6040516001600160a01b0390911681526020016101a2565b3480156102c057600080fd5b506102d46102cf3660046117ea565b610b32565b6040516101a2919061183b565b3480156102ed57600080fd5b506101606102fc3660046117ea565b610c9b565b34801561030d57600080fd5b506103166111ad565b6040516101a291906118fe565b34801561032f57600080fd5b5060095461029c906001600160a01b031681565b34801561034f57600080fd5b5061019860035481565b3360009081526007602052604090205460ff166103915760405162461bcd60e51b81526004016103889061194b565b60405180910390fd5b60058160ff16106103d75760405162461bcd60e51b815260206004820152601060248201526f24b73b30b634b21039b2b632b1ba37b960811b6044820152606401610388565b60006103e161120f565b905060058260ff16101561043b576001600160a01b03851661043b5760405162461bcd60e51b815260206004820152601360248201527220b9339418149034b9903d32b9379030b2323960691b6044820152606401610388565b6000818152600660205260409020848155600180820180546001600160a01b0319166001600160a01b0389161790556004909101805460ff1916828002179055508160ff16600481111561049157610491611803565b600082815260066020526040902060049081018054909161ff0019909116906101009084908111156104c5576104c5611803565b0217905550600081815260066020818152604080842092830185905567ffffffffffffffff621275004201166005840155610e1061ffff881602600284015560039092018054600181810183559185528285200180546001600160a01b0319163390811790915580855260088352838520868652835293839020805460ff19169091179055815184815290810183905281517ffda9ac54069bb066debdc05afc39e260f270fcfb0ce45a42e94b6615a4514fbc929181900390910190a1505050505050565b6000546001600160a01b0316806105b457604051637e70a7e360e01b815260040160405180910390fd5b6001600160a01b038116632f54bf6e336040516001600160e01b031960e084901b1681526001600160a01b039091166004820152602401602060405180830381865afa158015610608573d6000803e3d6000fd5b505050506040513d601f19601f8201168201806040525081019061062c9190611971565b610649576040516315ed864b60e21b815260040160405180910390fd5b61065b826001600160a01b031661122d565b50600980546001600160a01b0319166001600160a01b0392909216919091179055565b3360009081526007602052604090205460ff166106ad5760405162461bcd60e51b81526004016103889061194b565b80806000036106d2576040516364b4f07960e11b815260048101829052602401610388565b33600081815260086020908152604080832086845290915290205483919060ff16156107115760405163585eb56560e11b815260040160405180910390fd5b60008481526006602090815260408083208151610100810183528154815260018201546001600160a01b0316818501526002820154818401526003820180548451818702810187019095528085529194929360608601939092908301828280156107a457602002820191906000526020600020905b81546001600160a01b03168152600190910190602001808311610786575b505050918352505060048281015460209092019160ff16908111156107cb576107cb611803565b60048111156107dc576107dc611803565b81526020016004820160019054906101000a900460ff16600481111561080457610804611803565b600481111561081557610815611803565b81526020016005820154815260200160068201548152505090508060c0015161083b4290565b67ffffffffffffffff16118015610867575060018160800151600481111561086557610865611803565b145b156108915760046080820181905260008681526006602052604090208101805460ff191690911790555b6004816080015160048111156108a9576108a9611803565b14610a1d576108e881600160405180604001604052806016815260200175151c9e1b881b5d5cdd081899481a5b9a5d1a585d195960521b815250611286565b60608101515160025481106109325760405162461bcd60e51b815260206004820152601060248201526f5369676e65727320636f6d706c65746560801b6044820152606401610388565b60008681526006602090815260408083206003018054600180820183559185528385200180546001600160a01b03191633908117909155808552600884528285208b86529093529220805460ff19168317905560025490916109959084906119a9565b03610a1a576000878152600660205260409020600401805460ff19166002179055426109c490621275006119bc565b67ffffffffffffffff16600660008981526020019081526020016000206005018190555082604001516109f44290565b67ffffffffffffffff160160066000898152602001908152602001600020600201819055505b50505b506001600160a01b0316600090815260086020908152604080832093835292905220805460ff191660011790555050565b600080546001600160a01b031680610a7957604051637e70a7e360e01b815260040160405180910390fd5b6001600160a01b038116632f54bf6e336040516001600160e01b031960e084901b1681526001600160a01b039091166004820152602401602060405180830381865afa158015610acd573d6000803e3d6000fd5b505050506040513d601f19601f82011682018060405250810190610af19190611971565b610b0e576040516315ed864b60e21b815260040160405180910390fd5b600080546001600160a01b0319166001600160a01b03851617905550600192915050565b610b79604080516101008101825260008082526020820181905291810182905260608082015290608082019081526020016000815260200160008152602001600081525090565b6000828152600660209081526040918290208251610100810184528154815260018201546001600160a01b0316818401526002820154818501526003820180548551818602810186019096528086529194929360608601939290830182828015610c0c57602002820191906000526020600020905b81546001600160a01b03168152600190910190602001808311610bee575b505050918352505060048281015460209092019160ff1690811115610c3357610c33611803565b6004811115610c4457610c44611803565b81526020016004820160019054906101000a900460ff166004811115610c6c57610c6c611803565b6004811115610c7d57610c7d611803565b81526005820154602082015260069091015460409091015292915050565b3360009081526007602052604090205460ff16610cca5760405162461bcd60e51b81526004016103889061194b565b8080600003610cef576040516364b4f07960e11b815260048101829052602401610388565b610cf76112d4565b60008281526006602090815260408083208151610100810183528154815260018201546001600160a01b031681850152600282015481840152600382018054845181870281018701909552808552919492936060860193909290830182828015610d8a57602002820191906000526020600020905b81546001600160a01b03168152600190910190602001808311610d6c575b505050918352505060048281015460209092019160ff1690811115610db157610db1611803565b6004811115610dc257610dc2611803565b81526020016004820160019054906101000a900460ff166004811115610dea57610dea611803565b6004811115610dfb57610dfb611803565b81526020016005820154815260200160068201548152505090508060c00151610e214290565b67ffffffffffffffff16118015610e4d5750600281608001516004811115610e4b57610e4b611803565b145b15610e775760046080820181905260008481526006602052604090208101805460ff191690911790555b600481608001516004811115610e8f57610e8f611803565b1461119f57610ece81600260405180604001604052806016815260200175151c9e1b881b5d5cdd081899481a5b9a5d1a585d195960521b815250611286565b60408101514267ffffffffffffffff161015610efd576040516306df203960e41b815260040160405180910390fd5b60008381526006602052604081206004908101805460ff1916600317905560a083015190811115610f3057610f30611803565b03610f6e57600954610f4a906001600160a01b031661122d565b60208101518151600954610f69926001600160a01b03909116916112fe565b61119f565b60018160a001516004811115610f8657610f86611803565b0361106457610fa181602001516001600160a01b031661122d565b8051303190811015610fc957604051639266535160e01b815260048101829052602401610388565b602082015182516040516000926001600160a01b031691908381818185875af1925050503d8060008114611019576040519150601f19603f3d011682016040523d82523d6000602084013e61101e565b606091505b505090508061105d5760405162461bcd60e51b815260206004820152600b60248201526a151c9e1b8819985a5b195960aa1b6044820152606401610388565b505061119f565b60028160a00151600481111561107c5761107c611803565b036110a45761109781602001516001600160a01b031661122d565b610f698160200151611355565b60038160a0015160048111156110bc576110bc611803565b036110ea576110d781602001516001600160a01b031661122d565b610f698160200151826060015185611435565b60048160a00151600481111561110257611102611803565b0361119f57600354815111156111995760405162461bcd60e51b815260206004820152605060248201527f6177616974207369676e5472616e73616374696f6e287b7369676e65723a206460448201527f65706c6f7965722c207265717565737449643a2069642c20636f6e747261637460648201526f3a206469737472696275746f727d293b60801b608482015260a401610388565b80516002555b506111a960018055565b5050565b6060600580548060200260200160405190810160405280929190818152602001828054801561120557602002820191906000526020600020905b81546001600160a01b031681526001909101906020018083116111e7575b5050505050905090565b6004805460009182611220836119e4565b9190505550600454905090565b6001600160a01b0381166112835760405162461bcd60e51b815260206004820152601b60248201527f4c69623a20546172676574206973207a65726f206164647265737300000000006044820152606401610388565b50565b81600481111561129857611298611803565b836080015160048111156112ae576112ae611803565b1481906112ce5760405162461bcd60e51b81526004016103889190611a21565b50505050565b6002600154036112f757604051633ee5aeb560e01b815260040160405180910390fd5b6002600155565b604080516001600160a01b038416602482015260448082018490528251808303909101815260649091019091526020810180516001600160e01b031663a9059cbb60e01b179052611350908490611460565b505050565b6001600160a01b03811660009081526007602052604090205460ff16156113b65760405162461bcd60e51b81526020600482015260156024820152741058d8dbdd5b9d08185b1c9958591e48195e1a5cdd605a1b6044820152606401610388565b6001600160a01b0381166000818152600760205260408120805460ff1916600190811790915560058054808301825592527f036b6384b5eca791c62761152d0c79bb0604c104a5fb6f4eb0703f3154bb3db090910180546001600160a01b03191690921790915560038054820190556002541161128357611283611a54565b6001600160a01b0383166000908152600760205260409020805460ff191690556113508284836114f5565b60006114756001600160a01b038416836115f0565b90508051600014806114965750808060200190518101906114969190611971565b6113505760405162461bcd60e51b815260206004820152602a60248201527f5361666545524332303a204552433230206f7065726174696f6e20646964206e6044820152691bdd081cdd58d8d9595960b21b6064820152608401610388565b60005b83518110156112ce57600084828151811061151557611515611a6a565b60200260200101519050836001600160a01b0316816001600160a01b0316036115e757600260035411156115ce576003805490600061155383611a80565b9091555050600083815260066020526040812060030180548490811061157b5761157b611a6a565b9060005260206000200160006101000a8154816001600160a01b0302191690836001600160a01b031602179055506002805411156115c957600280549060006115c383611a80565b91905055505b6115e7565b604051637e49101560e11b815260040160405180910390fd5b506001016114f8565b60606115fe83836000611607565b90505b92915050565b6060303182111561162d5760405163cd78605960e01b8152306004820152602401610388565b600080856001600160a01b031684866040516116499190611a97565b60006040518083038185875af1925050503d8060008114611686576040519150601f19603f3d011682016040523d82523d6000602084013e61168b565b606091505b509150915061169b8683836116a7565b925050505b9392505050565b6060826116bc576116b782611703565b6116a0565b81511580156116d357506001600160a01b0384163b155b156116fc57604051639996b31560e01b81526001600160a01b0385166004820152602401610388565b50806116a0565b8051156117135780518082602001fd5b604051630a12f52160e11b815260040160405180910390fd5b6001600160a01b038116811461128357600080fd5b6000806000806080858703121561175757600080fd5b84356117628161172c565b935060208501359250604085013561ffff8116811461178057600080fd5b9150606085013560ff8116811461179657600080fd5b939692955090935050565b6000602082840312156117b357600080fd5b81356116a08161172c565b600080604083850312156117d157600080fd5b82356117dc8161172c565b946020939093013593505050565b6000602082840312156117fc57600080fd5b5035919050565b634e487b7160e01b600052602160045260246000fd5b6005811061183757634e487b7160e01b600052602160045260246000fd5b9052565b6000602080835261012083018451828501528185015160018060a01b0380821660408701526040870151606087015260608701519150610100806080880152838351808652610140890191508685019550600094505b808510156118b357855184168252948601946001949094019390860190611891565b50608089015195506118c860a0890187611819565b60a089015195506118dc60c0890187611819565b60c089015160e089015260e08901518289015280965050505050505092915050565b6020808252825182820181905260009190848201906040850190845b8181101561193f5783516001600160a01b03168352928401929184019160010161191a565b50909695505050505050565b6020808252600c908201526b2737ba10309039b4b3b732b960a11b604082015260600190565b60006020828403121561198357600080fd5b815180151581146116a057600080fd5b634e487b7160e01b600052601160045260246000fd5b8082018082111561160157611601611993565b67ffffffffffffffff8181168382160190808211156119dd576119dd611993565b5092915050565b6000600182016119f6576119f6611993565b5060010190565b60005b83811015611a18578181015183820152602001611a00565b50506000910152565b6020815260008251806020840152611a408160408501602087016119fd565b601f01601f19169190910160400192915050565b634e487b7160e01b600052600160045260246000fd5b634e487b7160e01b600052603260045260246000fd5b600081611a8f57611a8f611993565b506000190190565b60008251611aa98184602087016119fd565b919091019291505056fea26469706673582212207c9399687fca17bcc7298daf6d217bfbfe5871683ac98aa76d28c53d95f99acd64736f6c63430008180033",
  "devdoc": {
    "details": "Total supply is minted to this contract and is controlled by a set of addresses  acting hence TokenDistributor is multisig in nature.  To transfer any amount of token out of this contract, the following steps must be peformed:  - INITIATE TRXN: A request to transfer an amount must be made. An event is emitted       to extract the request Id. Request IDs are unique to another.  - SIGN TRXN: The predefined signers addresses will have to sign the transaction with       the given request Id. The number of signers needed to validate execution must match       `quorum` declared in the state variable.  - EXECUTE TRXN: Transactions can only be executed if the delay period has passed and are       are already signed.  Same functionalities can be used to add and remove a new signer, and change quorum. ",
    "errors": {
      "AddressEmptyCode(address)": [
        {
          "details": "There's no code at `target` (it is not a contract)."
        }
      ],
      "AddressInsufficientBalance(address)": [
        {
          "details": "The ETH balance of the account is not enough to perform the operation."
        }
      ],
      "FailedInnerCall()": [
        {
          "details": "A call to an address target failed. The target may have reverted."
        }
      ],
      "ReentrancyGuardReentrantCall()": [
        {
          "details": "Unauthorized reentrant call."
        }
      ]
    },
    "kind": "dev",
    "methods": {
      "executeTransaction(uint256)": {
        "details": "Executes pending transaction.",
        "params": {
          "reqId": ": Request Id Transaction must be pending in status. When moved to executed,  they have no way to be restored. Only signer accounts can call."
        }
      },
      "getTransactionRequest(uint256)": {
        "details": "Return request struct at the reqId ref."
      },
      "proposeTransaction(address,uint256,uint16,uint8)": {
        "details": "Initiate transaction.  This function can be invoked only by the authorized accounts as signers. The `_type` parameter is used to select the type of transaction  the caller want to perform - a more reason we restrict the `_type`  input to number between 0 and 5 otherwise we get out of bound error since enums work similar to arrays.",
        "params": {
          "_amount": ":         Amount to send as value (in token).",
          "_delayInHours": ":   If this flag is set to value greater than 0, execution of the proposed transaction will not succeed unless the  delay time has passed.",
          "_recipient": ":     An address to act as the beneficiary of this  transaction.",
          "_type": ":  The type of transaction to perform. Transction could be any of the following as set in the `Type` enum: ERC20 (0): Transfer ERC20 token. NATIVE (1): Transfer network asset such as ETH. ADDSIGNER (2): Add more signers to the list. REMOVESIGNER (3): Deactivate the `_recipient` address from as a signers.  SETQUORUM (4): Increase or decrease the number of signatories needed to execute a transaction. Note: By default, the caller is deemed to have signed the transaction."
        }
      },
      "setOwnershipManager(address)": {
        "params": {
          "newManager": ": New manager address"
        }
      },
      "signTransaction(uint256)": {
        "details": "Sign transactions",
        "params": {
          "reqId": ": Request Id. Note: Caller must be one of the signers"
        }
      }
    },
    "stateVariables": {
      "requestIDs": {
        "details": "Unique order ID mapped to each transfer request. Note: Two requests can not have same order ID. "
      },
      "requests": {
        "details": "Transfer orders. Mapping of Ids to Request Note: We assigned slot `0` to add and remove signer. i.e requests[0]."
      },
      "signed": {
        "details": "Signed requests Mapping of signer to request id to bool"
      },
      "signers": {
        "details": "Signers Mapping of address to bool"
      }
    },
    "title": "InitialTokenReceiver",
    "version": 1
  },
  "userdoc": {
    "kind": "user",
    "methods": {
      "quorum()": {
        "notice": "Number of signers require to execute a transfer"
      },
      "setOwnershipManager(address)": {
        "notice": "Set Ownership manager"
      }
    },
    "version": 1
  },
  "storageLayout": {
    "storage": [
      {
        "astId": 372,
        "contract": "contracts/implementations/token/TokenDistributor.sol:TokenDistributor",
        "label": "ownershipManager",
        "offset": 0,
        "slot": "0",
        "type": "t_contract(IOwnerShip)798"
      },
      {
        "astId": 299,
        "contract": "contracts/implementations/token/TokenDistributor.sol:TokenDistributor",
        "label": "_status",
        "offset": 0,
        "slot": "1",
        "type": "t_uint256"
      },
      {
        "astId": 2346,
        "contract": "contracts/implementations/token/TokenDistributor.sol:TokenDistributor",
        "label": "quorum",
        "offset": 0,
        "slot": "2",
        "type": "t_uint256"
      },
      {
        "astId": 2348,
        "contract": "contracts/implementations/token/TokenDistributor.sol:TokenDistributor",
        "label": "validExecutors",
        "offset": 0,
        "slot": "3",
        "type": "t_uint256"
      },
      {
        "astId": 2351,
        "contract": "contracts/implementations/token/TokenDistributor.sol:TokenDistributor",
        "label": "requestIDs",
        "offset": 0,
        "slot": "4",
        "type": "t_uint256"
      },
      {
        "astId": 2374,
        "contract": "contracts/implementations/token/TokenDistributor.sol:TokenDistributor",
        "label": "executors",
        "offset": 0,
        "slot": "5",
        "type": "t_array(t_address)dyn_storage"
      },
      {
        "astId": 2380,
        "contract": "contracts/implementations/token/TokenDistributor.sol:TokenDistributor",
        "label": "requests",
        "offset": 0,
        "slot": "6",
        "type": "t_mapping(t_uint256,t_struct(TransactionRequest)2371_storage)"
      },
      {
        "astId": 2385,
        "contract": "contracts/implementations/token/TokenDistributor.sol:TokenDistributor",
        "label": "signers",
        "offset": 0,
        "slot": "7",
        "type": "t_mapping(t_address,t_bool)"
      },
      {
        "astId": 2392,
        "contract": "contracts/implementations/token/TokenDistributor.sol:TokenDistributor",
        "label": "signed",
        "offset": 0,
        "slot": "8",
        "type": "t_mapping(t_address,t_mapping(t_uint256,t_bool))"
      },
      {
        "astId": 2395,
        "contract": "contracts/implementations/token/TokenDistributor.sol:TokenDistributor",
        "label": "token",
        "offset": 0,
        "slot": "9",
        "type": "t_contract(IERC20)738"
      }
    ],
    "types": {
      "t_address": {
        "encoding": "inplace",
        "label": "address",
        "numberOfBytes": "20"
      },
      "t_array(t_address)dyn_storage": {
        "base": "t_address",
        "encoding": "dynamic_array",
        "label": "address[]",
        "numberOfBytes": "32"
      },
      "t_bool": {
        "encoding": "inplace",
        "label": "bool",
        "numberOfBytes": "1"
      },
      "t_contract(IERC20)738": {
        "encoding": "inplace",
        "label": "contract IERC20",
        "numberOfBytes": "20"
      },
      "t_contract(IOwnerShip)798": {
        "encoding": "inplace",
        "label": "contract IOwnerShip",
        "numberOfBytes": "20"
      },
      "t_enum(Status)2336": {
        "encoding": "inplace",
        "label": "enum TokenDistributor.Status",
        "numberOfBytes": "1"
      },
      "t_enum(Type)2343": {
        "encoding": "inplace",
        "label": "enum TokenDistributor.Type",
        "numberOfBytes": "1"
      },
      "t_mapping(t_address,t_bool)": {
        "encoding": "mapping",
        "key": "t_address",
        "label": "mapping(address => bool)",
        "numberOfBytes": "32",
        "value": "t_bool"
      },
      "t_mapping(t_address,t_mapping(t_uint256,t_bool))": {
        "encoding": "mapping",
        "key": "t_address",
        "label": "mapping(address => mapping(uint256 => bool))",
        "numberOfBytes": "32",
        "value": "t_mapping(t_uint256,t_bool)"
      },
      "t_mapping(t_uint256,t_bool)": {
        "encoding": "mapping",
        "key": "t_uint256",
        "label": "mapping(uint256 => bool)",
        "numberOfBytes": "32",
        "value": "t_bool"
      },
      "t_mapping(t_uint256,t_struct(TransactionRequest)2371_storage)": {
        "encoding": "mapping",
        "key": "t_uint256",
        "label": "mapping(uint256 => struct TokenDistributor.TransactionRequest)",
        "numberOfBytes": "32",
        "value": "t_struct(TransactionRequest)2371_storage"
      },
      "t_struct(TransactionRequest)2371_storage": {
        "encoding": "inplace",
        "label": "struct TokenDistributor.TransactionRequest",
        "members": [
          {
            "astId": 2353,
            "contract": "contracts/implementations/token/TokenDistributor.sol:TokenDistributor",
            "label": "amount",
            "offset": 0,
            "slot": "0",
            "type": "t_uint256"
          },
          {
            "astId": 2355,
            "contract": "contracts/implementations/token/TokenDistributor.sol:TokenDistributor",
            "label": "recipient",
            "offset": 0,
            "slot": "1",
            "type": "t_address"
          },
          {
            "astId": 2357,
            "contract": "contracts/implementations/token/TokenDistributor.sol:TokenDistributor",
            "label": "delay",
            "offset": 0,
            "slot": "2",
            "type": "t_uint256"
          },
          {
            "astId": 2360,
            "contract": "contracts/implementations/token/TokenDistributor.sol:TokenDistributor",
            "label": "executors",
            "offset": 0,
            "slot": "3",
            "type": "t_array(t_address)dyn_storage"
          },
          {
            "astId": 2363,
            "contract": "contracts/implementations/token/TokenDistributor.sol:TokenDistributor",
            "label": "status",
            "offset": 0,
            "slot": "4",
            "type": "t_enum(Status)2336"
          },
          {
            "astId": 2366,
            "contract": "contracts/implementations/token/TokenDistributor.sol:TokenDistributor",
            "label": "txType",
            "offset": 1,
            "slot": "4",
            "type": "t_enum(Type)2343"
          },
          {
            "astId": 2368,
            "contract": "contracts/implementations/token/TokenDistributor.sol:TokenDistributor",
            "label": "expirationTime",
            "offset": 0,
            "slot": "5",
            "type": "t_uint256"
          },
          {
            "astId": 2370,
            "contract": "contracts/implementations/token/TokenDistributor.sol:TokenDistributor",
            "label": "id",
            "offset": 0,
            "slot": "6",
            "type": "t_uint256"
          }
        ],
        "numberOfBytes": "224"
      },
      "t_uint256": {
        "encoding": "inplace",
        "label": "uint256",
        "numberOfBytes": "32"
      }
    }
  }
}