{
  "address": "0xf3226E5bc32Ad476916C808198cFEBc5a154dD97",
  "abi": [
    {
      "inputs": [
        {
          "internalType": "address",
          "name": "_ownershipManager",
          "type": "address"
        }
      ],
      "stateMutability": "nonpayable",
      "type": "constructor"
    },
    {
      "inputs": [
        {
          "internalType": "address",
          "name": "",
          "type": "address"
        }
      ],
      "name": "ZeroAddress",
      "type": "error"
    },
    {
      "inputs": [
        {
          "internalType": "uint256",
          "name": "unit",
          "type": "uint256"
        }
      ],
      "name": "createBank",
      "outputs": [
        {
          "internalType": "address",
          "name": "_bank",
          "type": "address"
        }
      ],
      "stateMutability": "nonpayable",
      "type": "function"
    },
    {
      "inputs": [
        {
          "internalType": "uint256",
          "name": "unit",
          "type": "uint256"
        }
      ],
      "name": "getBank",
      "outputs": [
        {
          "internalType": "address",
          "name": "",
          "type": "address"
        }
      ],
      "stateMutability": "view",
      "type": "function"
    },
    {
      "inputs": [],
      "name": "ownershipManager",
      "outputs": [
        {
          "internalType": "address",
          "name": "",
          "type": "address"
        }
      ],
      "stateMutability": "view",
      "type": "function"
    },
    {
      "inputs": [
        {
          "internalType": "address",
          "name": "newManager",
          "type": "address"
        }
      ],
      "name": "setOwnershipManager",
      "outputs": [
        {
          "internalType": "bool",
          "name": "",
          "type": "bool"
        }
      ],
      "stateMutability": "nonpayable",
      "type": "function"
    },
    {
      "inputs": [],
      "name": "totalBanks",
      "outputs": [
        {
          "internalType": "uint256",
          "name": "",
          "type": "uint256"
        }
      ],
      "stateMutability": "view",
      "type": "function"
    },
    {
      "stateMutability": "payable",
      "type": "receive"
    }
  ],
  "transactionHash": "0xee0ac416139962bd6961fca895cbae380729765d9e018f1433e04bf7367bc24a",
  "args": [
    "0xe09e23F8a8032BB39326098802c970f9b48D726C"
  ],
  "numDeployments": 2,
  "solcInputHash": "fd6d05205091d6ce95274fb55e025faf",
  "bytecode": "0x608060405234801561001057600080fd5b50604051611f74380380611f7483398101604081905261002f91610050565b600080546001600160a01b0319166001600160a01b03831617905550610080565b60006020828403121561006257600080fd5b81516001600160a01b038116811461007957600080fd5b9392505050565b611ee58061008f6000396000f3fe60806040526004361061004e5760003560e01c806361737d621461005d578063b88a391514610092578063c3b95b1b146100ca578063e487862714610100578063f01cc0a61461012057600080fd5b3661005857600080fd5b600080fd5b34801561006957600080fd5b5061007d610078366004610488565b610144565b60405190151581526020015b60405180910390f35b34801561009e57600080fd5b506000546100b2906001600160a01b031681565b6040516001600160a01b039091168152602001610089565b3480156100d657600080fd5b506100b26100e53660046104b8565b6000908152600260205260409020546001600160a01b031690565b34801561010c57600080fd5b506100b261011b3660046104b8565b610299565b34801561012c57600080fd5b5061013660015481565b604051908152602001610089565b60408051808201909152601881527f4f6e6c794f776e65723a204e6f74207065726d697474656400000000000000006020820152600080549091906001600160a01b0316806101da5760405162461bcd60e51b815260206004820152601a60248201527f4f6e6c794f776e65723a204d616e61676572206e6f742073657400000000000060448201526064015b60405180910390fd5b6001600160a01b038116632f54bf6e336040516001600160e01b031960e084901b1681526001600160a01b039091166004820152602401602060405180830381865afa15801561022e573d6000803e3d6000fd5b505050506040513d601f19601f8201168201806040525081019061025291906104d1565b82906102715760405162461bcd60e51b81526004016101d191906104f3565b50600080546001600160a01b0319166001600160a01b038616179055600192505b5050919050565b6000604051806060016040528060278152602001611e89602791396000546001600160a01b03168061030d5760405162461bcd60e51b815260206004820152601a60248201527f4f6e6c794f776e65723a204d616e61676572206e6f742073657400000000000060448201526064016101d1565b6001600160a01b038116632f54bf6e336040516001600160e01b031960e084901b1681526001600160a01b039091166004820152602401602060405180830381865afa158015610361573d6000803e3d6000fd5b505050506040513d601f19601f8201168201806040525081019061038591906104d1565b82906103a45760405162461bcd60e51b81526004016101d191906104f3565b506000848152600260205260409020546001600160a01b03166103d1576103ca846103ef565b9250610292565b5050506000908152600260205260409020546001600160a01b031690565b600180546000918261040083610542565b90915550506000546040516001600160a01b03909116906104209061047b565b6001600160a01b039091168152602001604051809103906000f08015801561044c573d6000803e3d6000fd5b50600083815260026020526040902080546001600160a01b0319166001600160a01b0383161790559050919050565b61191f8061056a83390190565b60006020828403121561049a57600080fd5b81356001600160a01b03811681146104b157600080fd5b9392505050565b6000602082840312156104ca57600080fd5b5035919050565b6000602082840312156104e357600080fd5b815180151581146104b157600080fd5b60006020808352835180602085015260005b8181101561052157858101830151858201604001528201610505565b506000604082860101526040601f19601f8301168501019250505092915050565b60006001820161056257634e487b7160e01b600052601160045260246000fd5b506001019056fe608060405234801561001057600080fd5b5060405161191f38038061191f83398101604081905261002f91610054565b600080546001600160a01b0319166001600160a01b0383161790555060018055610084565b60006020828403121561006657600080fd5b81516001600160a01b038116811461007d57600080fd5b9392505050565b61188c806100936000396000f3fe6080604052600436106100a05760003560e01c806361737d621161006457806361737d62146101f757806383a7b08014610217578063b88a391514610238578063bad4a01f14610270578063bb16369f14610283578063c879c6d8146102a357600080fd5b80633bc5de301461010157806341a8d7ce1461014c5780634ba223441461016e5780634cd01af1146101815780636112fe2e146101c757600080fd5b366100fc5760405162461bcd60e51b815260206004820152602160248201527f506c656173652075736520746865206465706f73697428292066756e6374696f6044820152603760f91b60648201526084015b60405180910390fd5b600080fd5b34801561010d57600080fd5b50604080518082018252600080825260209182015281518083019092526002548252600354908201526040516101439190611349565b60405180910390f35b34801561015857600080fd5b5061016c61016736600461137c565b6102c3565b005b61016c61017c366004611433565b6103dd565b34801561018d57600080fd5b506101a161019c36600461137c565b610705565b604080518251151581526020928301518051848301529092015190820152606001610143565b3480156101d357600080fd5b506101e76101e23660046115f9565b610773565b6040519015158152602001610143565b34801561020357600080fd5b506101e7610212366004611612565b61095a565b61022a61022536600461162d565b610a78565b604051908152602001610143565b34801561024457600080fd5b50600054610258906001600160a01b031681565b6040516001600160a01b039091168152602001610143565b6101e761027e3660046115f9565b610cfd565b34801561028f57600080fd5b5061016c61029e366004611682565b610d11565b3480156102af57600080fd5b5061016c6102be3660046116c4565b610e19565b60408051808201909152601b81527f42616e6b202d2061646455703a204e6f74207065726d6974746564000000000060208201526000546001600160a01b0316806103205760405162461bcd60e51b81526004016100f3906116f7565b6001600160a01b038116632f54bf6e336040516001600160e01b031960e084901b1681526001600160a01b039091166004820152602401602060405180830381865afa158015610374573d6000803e3d6000fd5b505050506040513d601f19601f82011682018060405250810190610398919061172e565b82906103b75760405162461bcd60e51b81526004016100f3919061174b565b50600280549060006103c8836117b0565b91905055506103d7848461102b565b50505050565b60408051808201909152601381527210985b9ace88139bdd0814195c9b5a5d1d1959606a1b60208201526000546001600160a01b0316806104305760405162461bcd60e51b81526004016100f3906116f7565b6001600160a01b038116632f54bf6e336040516001600160e01b031960e084901b1681526001600160a01b039091166004820152602401602060405180830381865afa158015610484573d6000803e3d6000fd5b505050506040513d601f19601f820116820180604052508101906104a8919061172e565b82906104c75760405162461bcd60e51b81526004016100f3919061174b565b506104d289896117c9565b6040516370a0823160e01b81523060048201526001600160a01b038c16906370a0823190602401602060405180830381865afa158015610516573d6000803e3d6000fd5b505050506040513d601f19601f8201168201806040525081019061053a91906117dc565b1015610548576105486117f5565b6001600160a01b038b166000908152600560209081526040808320868452825291829020825180840190935280548352600101549082015285156106885760056000866001600160a01b03166001600160a01b03168152602001908152602001600020600085815260200190815260200160002060405180604001604052908160008201548152602001600182015481525050905060056000866001600160a01b03166001600160a01b0316815260200190815260200160002060008581526020019081526020016000206000808201600090556001820160009055505080600560008e6001600160a01b03166001600160a01b031681526020019081526020016000206000868152602001908152602001600020600082015181600001556020820151816001015590505061067e85856110ab565b6106888c8561102b565b6040518060400160405280600081526020016106b58360000151846020015161112790919063ffffffff16565b90526001600160a01b038d16600090815260056020908152604080832088845282529091208251815591015160019091015587156106f7576106f78b8861113a565b505050505050505050505050565b61070d611313565b506040805180820182526001600160a01b03841660008181526004602090815284822086835281528482205460ff161515845291815260058252838120858252825283902083518085019094528054845260010154838201528101919091525b92915050565b336000818152600460209081526040808320858452909152812054909190839060ff166107b35760405163442421a560e11b815260040160405180910390fd5b6002600154036108055760405162461bcd60e51b815260206004820152601f60248201527f5265656e7472616e637947756172643a207265656e7472616e742063616c6c0060448201526064016100f3565b600260019081553360008181526005602090815260408083208984528252808320815180830190925280548252909401549084018190529192913031910361086057604051636aecca6760e11b815260040160405180910390fd5b81516000036108a25761087383886110ab565b6001600160a01b03831660009081526005602090815260408083208a84529091528120818155600101556108ca565b6001600160a01b03831660009081526005602090815260408083208a84529091528120600101555b81602001518110156109105760405162461bcd60e51b815260206004820152600f60248201526e42616c616e636520416e6f6d616c7960881b60448201526064016100f3565b60208201516040516001600160a01b0385169180156108fc02916000818181858888f19350505050158015610949573d6000803e3d6000fd5b505060018080559695505050505050565b60408051808201909152601881527f4f6e6c794f776e65723a204e6f74207065726d697474656400000000000000006020820152600080549091906001600160a01b0316806109bb5760405162461bcd60e51b81526004016100f3906116f7565b6001600160a01b038116632f54bf6e336040516001600160e01b031960e084901b1681526001600160a01b039091166004820152602401602060405180830381865afa158015610a0f573d6000803e3d6000fd5b505050506040513d601f19601f82011682018060405250810190610a33919061172e565b8290610a525760405162461bcd60e51b81526004016100f3919061174b565b50600080546001600160a01b0319166001600160a01b0386161790555060019392505050565b60408051808201909152601381527210985b9ace88139bdd0814195c9b5a5d1d1959606a1b6020820152600080549091906001600160a01b031680610acf5760405162461bcd60e51b81526004016100f3906116f7565b6001600160a01b038116632f54bf6e336040516001600160e01b031960e084901b1681526001600160a01b039091166004820152602401602060405180830381865afa158015610b23573d6000803e3d6000fd5b505050506040513d601f19601f82011682018060405250810190610b47919061172e565b8290610b665760405162461bcd60e51b81526004016100f3919061174b565b506001600160a01b03881615801590610b8757506001600160a01b03891615155b610b9357610b936117f5565b6001600160a01b0389166000908152600560209081526040808320878452825280832081518083019092528054808352600190910154928201929092529190610bdc9034611127565b9050808711610c0757610bfd610bf28289611224565b602084015190611127565b6020830152610c93565b60208201518251600091610c2591610c1f9034611127565b90611127565b905087811015610c825760405162461bcd60e51b815260206004820152602260248201527f4167677265676174652062616c616e63657320697320696e73756666696369656044820152611b9d60f21b60648201526084016100f3565b610c8c8189611224565b6020840152505b508581526001600160a01b038a16600090815260056020908152604080832088845282529091208251815590820151600190910155878715610ce357600380548901905587891115610ce3578790035b610cee8b8b83611230565b50969998505050505050505050565b6000610d0934836112a3565b506001919050565b60408051808201909152601381527210985b9ace88139bdd081c195c9b5a5d1d1959606a1b60208201526000546001600160a01b031680610d645760405162461bcd60e51b81526004016100f3906116f7565b6001600160a01b038116632f54bf6e336040516001600160e01b031960e084901b1681526001600160a01b039091166004820152602401602060405180830381865afa158015610db8573d6000803e3d6000fd5b505050506040513d601f19601f82011682018060405250810190610ddc919061172e565b8290610dfb5760405162461bcd60e51b81526004016100f3919061174b565b50610e07868686611230565b610e1186846110ab565b505050505050565b600260015403610e6b5760405162461bcd60e51b815260206004820152601f60248201527f5265656e7472616e637947756172643a207265656e7472616e742063616c6c0060448201526064016100f3565b600260015560408051808201909152601381527210985b9ace88139bdd081c195c9b5a5d1d1959606a1b60208201526000546001600160a01b031680610ec35760405162461bcd60e51b81526004016100f3906116f7565b6001600160a01b038116632f54bf6e336040516001600160e01b031960e084901b1681526001600160a01b039091166004820152602401602060405180830381865afa158015610f17573d6000803e3d6000fd5b505050506040513d601f19601f82011682018060405250810190610f3b919061172e565b8290610f5a5760405162461bcd60e51b81526004016100f3919061174b565b506003546000819003610f8057604051630c5214e560e31b815260040160405180910390fd5b6001600160a01b038416610fa75760405163dc2e5e8d60e01b815260040160405180910390fd5b600060035560405163a9059cbb60e01b81526001600160a01b0386811660048301526024820183905285169063a9059cbb906044016020604051808303816000875af1158015610ffb573d6000803e3d6000fd5b505050506040513d601f19601f8201168201806040525081019061101f919061172e565b50506001805550505050565b6001600160a01b038216600090815260046020908152604080832084845290915290205460ff161561107b5760405163abb3a9f560e01b81526001600160a01b03831660048201526024016100f3565b6001600160a01b03909116600090815260046020908152604080832093835292905220805460ff19166001179055565b6001600160a01b038216600090815260046020908152604080832084845290915290205460ff166110fa57604051636d1a905760e01b81526001600160a01b03831660048201526024016100f3565b6001600160a01b03909116600090815260046020908152604080832093835292905220805460ff19169055565b600061113382846117c9565b9392505050565b6040516370a0823160e01b81523060048201526000906001600160a01b038416906370a0823190602401602060405180830381865afa158015611181573d6000803e3d6000fd5b505050506040513d601f19601f820116820180604052508101906111a591906117dc565b60035490915080821115611219576111bd818361180b565b91506111d383518361130790919063ffffffff16565b905060005b83518110156112175760008482815181106111f5576111f561181e565b602002602001015160c00151905061120e818785611230565b506001016111d8565b505b505060006002555050565b6000611133828461180b565b60405163095ea7b360e01b81526001600160a01b0384811660048301526024820183905283169063095ea7b3906044016020604051808303816000875af115801561127f573d6000803e3d6000fd5b505050506040513d601f19601f820116820180604052508101906103d7919061172e565b336000818152600460209081526040808320858452909152902054829060ff166112e05760405163442421a560e11b815260040160405180910390fd5b50503360009081526005602090815260408083209383529290522060010180549091019055565b60006111338284611834565b6040518060400160405280600015158152602001611344604051806040016040528060008152602001600081525090565b905290565b81518152602080830151908201526040810161076d565b80356001600160a01b038116811461137757600080fd5b919050565b6000806040838503121561138f57600080fd5b61139883611360565b946020939093013593505050565b80151581146113b457600080fd5b50565b8035611377816113a6565b634e487b7160e01b600052604160045260246000fd5b604051610100810167ffffffffffffffff811182821017156113fc576113fc6113c2565b60405290565b604051601f8201601f1916810167ffffffffffffffff8111828210171561142b5761142b6113c2565b604052919050565b60008060008060008060008060006101208a8c03121561145257600080fd5b61145b8a611360565b985061146960208b01611360565b975060408a0135965060608a0135955061148660808b01356113a6565b60808a0135945067ffffffffffffffff60a08b013511156114a657600080fd5b8a601f60a08c01358c0101126114bb57600080fd5b67ffffffffffffffff60a08b01358b013511156114da576114da6113c2565b6114f0602060a08c01358c013560051b01611402565b60a08b01358b0180358083526020808401939260089290921b909101018d101561151957600080fd5b602060a08d01358d01015b60a08d01358d01803560081b016020018110156115c357610100818f03121561154c57600080fd5b6115546113d8565b813581526020820135602082015260408201356040820152606082013560608201526080820135608082015260a082013560a082015261159660c08301611360565b60c08201526115a860e08301356113a6565b60e08281013590820152835260209092019161010001611524565b5094506115d4905060c08b016113b7565b92506115e260e08b01611360565b91506101008a013590509295985092959850929598565b60006020828403121561160b57600080fd5b5035919050565b60006020828403121561162457600080fd5b61113382611360565b60008060008060008060c0878903121561164657600080fd5b61164f87611360565b955061165d60208801611360565b95989597505050506040840135936060810135936080820135935060a0909101359150565b6000806000806080858703121561169857600080fd5b6116a185611360565b93506116af60208601611360565b93969395505050506040820135916060013590565b600080604083850312156116d757600080fd5b6116e083611360565b91506116ee60208401611360565b90509250929050565b6020808252601a908201527f4f6e6c794f776e65723a204d616e61676572206e6f7420736574000000000000604082015260600190565b60006020828403121561174057600080fd5b8151611133816113a6565b60006020808352835180602085015260005b818110156117795785810183015185820160400152820161175d565b506000604082860101526040601f19601f8301168501019250505092915050565b634e487b7160e01b600052601160045260246000fd5b6000600182016117c2576117c261179a565b5060010190565b8082018082111561076d5761076d61179a565b6000602082840312156117ee57600080fd5b5051919050565b634e487b7160e01b600052600160045260246000fd5b8181038181111561076d5761076d61179a565b634e487b7160e01b600052603260045260246000fd5b60008261185157634e487b7160e01b600052601260045260246000fd5b50049056fea2646970667358221220c343716e835d54031a8156e92ab8194f67ca36225759b1dd2e799968ce6621a364736f6c6343000818003342616e6b466163746f7279202d2063726561746542616e6b3a204e6f74207065726d6974746564a26469706673582212201ab475947fd6f98127acde1152a21c01e06f16cdaf98ca634d2130a9d44d280264736f6c63430008180033",
  "devdoc": {
    "kind": "dev",
    "methods": {
      "createBank(uint256)": {
        "details": "Create a new bank."
      },
      "getBank(uint256)": {
        "params": {
          "unit": ": Unit amount"
        }
      },
      "setOwnershipManager(address)": {
        "params": {
          "newManager": ": New manager address"
        }
      }
    },
    "stateVariables": {
      "bankMap": {
        "details": "Mapping of addresses to strategies. Also used as reverse map of strategies to status."
      }
    },
    "title": "SmartBankAdmin: A standalone contract that manages bank creation,  deletion, read and write data. Author: Simplifinance",
    "version": 1
  },
  "userdoc": {
    "kind": "user",
    "methods": {
      "createBank(uint256)": {
        "notice": "'unit' should not own a bank before now.          only address with owner permission can call."
      },
      "getBank(uint256)": {
        "notice": "Returns then bank for 'unit'"
      },
      "setOwnershipManager(address)": {
        "notice": "Set Ownership manager"
      }
    },
    "version": 1
  },
  "storageLayout": {
    "storage": [
      {
        "astId": 1739,
        "contract": "contracts/implementations/strategies/BankFactory.sol:BankFactory",
        "label": "ownershipManager",
        "offset": 0,
        "slot": "0",
        "type": "t_address"
      },
      {
        "astId": 4169,
        "contract": "contracts/implementations/strategies/BankFactory.sol:BankFactory",
        "label": "totalBanks",
        "offset": 0,
        "slot": "1",
        "type": "t_uint256"
      },
      {
        "astId": 4174,
        "contract": "contracts/implementations/strategies/BankFactory.sol:BankFactory",
        "label": "bankMap",
        "offset": 0,
        "slot": "2",
        "type": "t_mapping(t_uint256,t_address)"
      }
    ],
    "types": {
      "t_address": {
        "encoding": "inplace",
        "label": "address",
        "numberOfBytes": "20"
      },
      "t_mapping(t_uint256,t_address)": {
        "encoding": "mapping",
        "key": "t_uint256",
        "label": "mapping(uint256 => address)",
        "numberOfBytes": "32",
        "value": "t_address"
      },
      "t_uint256": {
        "encoding": "inplace",
        "label": "uint256",
        "numberOfBytes": "32"
      }
    }
  }
}