{
  "address": "0x10bE1f145aF23aa31cB591C38D942d98073Aa5b2",
  "abi": [
    {
      "inputs": [
        {
          "internalType": "address",
          "name": "_asset",
          "type": "address"
        },
        {
          "internalType": "address",
          "name": "_ownershipMgr",
          "type": "address"
        }
      ],
      "stateMutability": "nonpayable",
      "type": "constructor"
    },
    {
      "inputs": [],
      "name": "Locked",
      "type": "error"
    },
    {
      "inputs": [
        {
          "internalType": "address",
          "name": "",
          "type": "address"
        }
      ],
      "name": "UnSupportedAsset",
      "type": "error"
    },
    {
      "inputs": [],
      "name": "getSupportedAssets",
      "outputs": [
        {
          "internalType": "address[]",
          "name": "_assets",
          "type": "address[]"
        }
      ],
      "stateMutability": "view",
      "type": "function"
    },
    {
      "inputs": [
        {
          "internalType": "address",
          "name": "_asset",
          "type": "address"
        }
      ],
      "name": "isSupportedAsset",
      "outputs": [
        {
          "internalType": "bool",
          "name": "",
          "type": "bool"
        }
      ],
      "stateMutability": "view",
      "type": "function"
    },
    {
      "inputs": [
        {
          "internalType": "address",
          "name": "",
          "type": "address"
        }
      ],
      "name": "listed",
      "outputs": [
        {
          "internalType": "bool",
          "name": "",
          "type": "bool"
        }
      ],
      "stateMutability": "view",
      "type": "function"
    },
    {
      "inputs": [],
      "name": "ownershipManager",
      "outputs": [
        {
          "internalType": "address",
          "name": "",
          "type": "address"
        }
      ],
      "stateMutability": "view",
      "type": "function"
    },
    {
      "inputs": [
        {
          "internalType": "address",
          "name": "newManager",
          "type": "address"
        }
      ],
      "name": "setOwnershipManager",
      "outputs": [
        {
          "internalType": "bool",
          "name": "",
          "type": "bool"
        }
      ],
      "stateMutability": "nonpayable",
      "type": "function"
    },
    {
      "inputs": [
        {
          "internalType": "address",
          "name": "_asset",
          "type": "address"
        }
      ],
      "name": "supportAsset",
      "outputs": [],
      "stateMutability": "nonpayable",
      "type": "function"
    },
    {
      "inputs": [
        {
          "internalType": "address",
          "name": "newAsset",
          "type": "address"
        }
      ],
      "name": "unsupportAsset",
      "outputs": [],
      "stateMutability": "nonpayable",
      "type": "function"
    }
  ],
  "transactionHash": "0xfad356c4591f2ad8dd9f7896768941b1b6c28b431d1a859a897ae08a7c88062f",
  "args": [
    "0x4a3D97f27d9553865B0792238a3698D00F4aF09f",
    "0xe09e23F8a8032BB39326098802c970f9b48D726C"
  ],
  "numDeployments": 3,
  "solcInputHash": "5647fbbc14f240be38ba59bb3b597451",
  "bytecode": "0x608060405234801561001057600080fd5b5060405161092d38038061092d83398101604081905261002f916101b4565b600080546001600160a01b0319166001600160a01b0383161790556001600160a01b0382166100be576040517f08c379a000000000000000000000000000000000000000000000000000000000815260206004820152601560248201527f41737365742063616e6e6f7420626520656d7074790000000000000000000000604482015260640160405180910390fd5b6100c7826100ce565b50506101e7565b6001600160a01b03811660009081526003602052604090205460ff16610151576001600160a01b0381166000818152600360205260408120805460ff191660019081179091558054808201825591527fb10e2d527612073b26eecdfd717e6a320cf44b4afac2b0732d9fcbe2b7fa0cf60180546001600160a01b03191690911790555b6001600160a01b03811660009081526002602052604090205460ff16610195576001600160a01b0381166000908152600260205260409020805460ff191660011790555b50565b80516001600160a01b03811681146101af57600080fd5b919050565b600080604083850312156101c757600080fd5b6101d083610198565b91506101de60208401610198565b90509250929050565b610737806101f66000396000f3fe608060405234801561001057600080fd5b506004361061007d5760003560e01c8063696875121161005b57806369687512146100e25780639be918e6146100f5578063b88a391514610121578063e5406dbf1461014c57600080fd5b80634cd55c2d1461008257806361737d621461009757806364138230146100bf575b600080fd5b6100956100903660046105b4565b610161565b005b6100aa6100a53660046105b4565b610252565b60405190151581526020015b60405180910390f35b6100aa6100cd3660046105b4565b60036020526000908152604090205460ff1681565b6100956100f03660046105b4565b610370565b6100aa6101033660046105b4565b6001600160a01b031660009081526002602052604090205460ff1690565b600054610134906001600160a01b031681565b6040516001600160a01b0390911681526020016100b6565b610154610488565b6040516100b691906105e4565b6040518060600160405280602881526020016106da602891396000546001600160a01b0316806101ac5760405162461bcd60e51b81526004016101a390610631565b60405180910390fd5b6001600160a01b038116632f54bf6e336040516001600160e01b031960e084901b1681526001600160a01b039091166004820152602401602060405180830381865afa158015610200573d6000803e3d6000fd5b505050506040513d601f19601f820116820180604052508101906102249190610668565b82906102435760405162461bcd60e51b81526004016101a3919061068a565b5061024d836104ea565b505050565b60408051808201909152601881527f4f6e6c794f776e65723a204e6f74207065726d697474656400000000000000006020820152600080549091906001600160a01b0316806102b35760405162461bcd60e51b81526004016101a390610631565b6001600160a01b038116632f54bf6e336040516001600160e01b031960e084901b1681526001600160a01b039091166004820152602401602060405180830381865afa158015610307573d6000803e3d6000fd5b505050506040513d601f19601f8201168201806040525081019061032b9190610668565b829061034a5760405162461bcd60e51b81526004016101a3919061068a565b50600080546001600160a01b0319166001600160a01b0386161790555060019392505050565b60408051808201909152601981527f4173736574436c6173733a204e6f74207065726d69747465640000000000000060208201526000546001600160a01b0316806103cd5760405162461bcd60e51b81526004016101a390610631565b6001600160a01b038116632f54bf6e336040516001600160e01b031960e084901b1681526001600160a01b039091166004820152602401602060405180830381865afa158015610421573d6000803e3d6000fd5b505050506040513d601f19601f820116820180604052508101906104459190610668565b82906104645760405162461bcd60e51b81526004016101a3919061068a565b5050506001600160a01b03166000908152600260205260409020805460ff19169055565b606060018054806020026020016040519081016040528092919081815260200182805480156104e057602002820191906000526020600020905b81546001600160a01b031681526001909101906020018083116104c2575b5050505050905090565b6001600160a01b03811660009081526003602052604090205460ff1661056d576001600160a01b0381166000818152600360205260408120805460ff191660019081179091558054808201825591527fb10e2d527612073b26eecdfd717e6a320cf44b4afac2b0732d9fcbe2b7fa0cf60180546001600160a01b03191690911790555b6001600160a01b03811660009081526002602052604090205460ff166105b1576001600160a01b0381166000908152600260205260409020805460ff191660011790555b50565b6000602082840312156105c657600080fd5b81356001600160a01b03811681146105dd57600080fd5b9392505050565b6020808252825182820181905260009190848201906040850190845b818110156106255783516001600160a01b031683529284019291840191600101610600565b50909695505050505050565b6020808252601a908201527f4f6e6c794f776e65723a204d616e61676572206e6f7420736574000000000000604082015260600190565b60006020828403121561067a57600080fd5b815180151581146105dd57600080fd5b60006020808352835180602085015260005b818110156106b85785810183015185820160400152820161069c565b506000604082860101526040601f19601f830116850101925050509291505056fe4173736574436c617373202d20737570706f727441737365743a204e6f74207065726d6974746564a2646970667358221220dfcb62b5021a30e2c1c52a35e9f664251dcedf6fc7b8cc08eae60eac74399e3c64736f6c63430008180033",
  "devdoc": {
    "kind": "dev",
    "methods": {
      "constructor": {
        "details": "Initialize state variables",
        "params": {
          "_asset": ": Initial supported asset"
        }
      },
      "getSupportedAssets()": {
        "details": "Returns a list of supported assets"
      },
      "isSupportedAsset(address)": {
        "details": "Check if an asset is supported"
      },
      "setOwnershipManager(address)": {
        "params": {
          "newManager": ": New manager address"
        }
      },
      "supportAsset(address)": {
        "details": "Support a new asset Note: OnlyOwner action",
        "params": {
          "_asset": ": Asset to add to list of supported asset"
        }
      },
      "unsupportAsset(address)": {
        "details": "Unsupports an asset Note: Only-owner action",
        "params": {
          "newAsset": ": Removes an asset from the list of supported asset"
        }
      }
    },
    "stateVariables": {
      "supportedAssets": {
        "details": "Mapping assets address to bool i.e Assets must be contract account and must be supported"
      }
    },
    "version": 1
  },
  "userdoc": {
    "kind": "user",
    "methods": {
      "setOwnershipManager(address)": {
        "notice": "Set Ownership manager"
      }
    },
    "version": 1
  },
  "storageLayout": {
    "storage": [
      {
        "astId": 2494,
        "contract": "contracts/implementations/AssetClass.sol:AssetClass",
        "label": "ownershipManager",
        "offset": 0,
        "slot": "0",
        "type": "t_address"
      },
      {
        "astId": 3604,
        "contract": "contracts/implementations/AssetClass.sol:AssetClass",
        "label": "assets",
        "offset": 0,
        "slot": "1",
        "type": "t_array(t_address)dyn_storage"
      },
      {
        "astId": 3609,
        "contract": "contracts/implementations/AssetClass.sol:AssetClass",
        "label": "supportedAssets",
        "offset": 0,
        "slot": "2",
        "type": "t_mapping(t_address,t_bool)"
      },
      {
        "astId": 3613,
        "contract": "contracts/implementations/AssetClass.sol:AssetClass",
        "label": "listed",
        "offset": 0,
        "slot": "3",
        "type": "t_mapping(t_address,t_bool)"
      }
    ],
    "types": {
      "t_address": {
        "encoding": "inplace",
        "label": "address",
        "numberOfBytes": "20"
      },
      "t_array(t_address)dyn_storage": {
        "base": "t_address",
        "encoding": "dynamic_array",
        "label": "address[]",
        "numberOfBytes": "32"
      },
      "t_bool": {
        "encoding": "inplace",
        "label": "bool",
        "numberOfBytes": "1"
      },
      "t_mapping(t_address,t_bool)": {
        "encoding": "mapping",
        "key": "t_address",
        "label": "mapping(address => bool)",
        "numberOfBytes": "32",
        "value": "t_bool"
      }
    }
  }
}