{
  "address": "0x51dd3C3238222B5fd44b6B00C274146F83cF2651",
  "abi": [
    {
      "inputs": [
        {
          "internalType": "address",
          "name": "_ownershipManager",
          "type": "address"
        }
      ],
      "stateMutability": "nonpayable",
      "type": "constructor"
    },
    {
      "inputs": [
        {
          "internalType": "address",
          "name": "",
          "type": "address"
        }
      ],
      "name": "ZeroAddress",
      "type": "error"
    },
    {
      "inputs": [
        {
          "internalType": "uint256",
          "name": "unit",
          "type": "uint256"
        }
      ],
      "name": "createBank",
      "outputs": [
        {
          "internalType": "address",
          "name": "_bank",
          "type": "address"
        }
      ],
      "stateMutability": "nonpayable",
      "type": "function"
    },
    {
      "inputs": [
        {
          "internalType": "uint256",
          "name": "unit",
          "type": "uint256"
        }
      ],
      "name": "getBank",
      "outputs": [
        {
          "internalType": "address",
          "name": "",
          "type": "address"
        }
      ],
      "stateMutability": "view",
      "type": "function"
    },
    {
      "inputs": [],
      "name": "ownershipManager",
      "outputs": [
        {
          "internalType": "address",
          "name": "",
          "type": "address"
        }
      ],
      "stateMutability": "view",
      "type": "function"
    },
    {
      "inputs": [
        {
          "internalType": "address",
          "name": "newManager",
          "type": "address"
        }
      ],
      "name": "setOwnershipManager",
      "outputs": [
        {
          "internalType": "bool",
          "name": "",
          "type": "bool"
        }
      ],
      "stateMutability": "nonpayable",
      "type": "function"
    },
    {
      "inputs": [],
      "name": "totalBanks",
      "outputs": [
        {
          "internalType": "uint256",
          "name": "",
          "type": "uint256"
        }
      ],
      "stateMutability": "view",
      "type": "function"
    },
    {
      "stateMutability": "payable",
      "type": "receive"
    }
  ],
  "transactionHash": "0x01ce4c8474b520f857b374db5a103a66b7201f99340e8e511d2638f91acf606d",
  "args": [
    "0xe09e23F8a8032BB39326098802c970f9b48D726C"
  ],
  "numDeployments": 1,
  "solcInputHash": "df1d54a65997996193bca30bc8396eb2",
  "bytecode": "0x608060405234801561001057600080fd5b50604051611c60380380611c6083398101604081905261002f91610050565b600080546001600160a01b0319166001600160a01b03831617905550610080565b60006020828403121561006257600080fd5b81516001600160a01b038116811461007957600080fd5b9392505050565b611bd18061008f6000396000f3fe60806040526004361061004e5760003560e01c806361737d621461005d578063b88a391514610092578063c3b95b1b146100ca578063e487862714610100578063f01cc0a61461012057600080fd5b3661005857600080fd5b600080fd5b34801561006957600080fd5b5061007d610078366004610488565b610144565b60405190151581526020015b60405180910390f35b34801561009e57600080fd5b506000546100b2906001600160a01b031681565b6040516001600160a01b039091168152602001610089565b3480156100d657600080fd5b506100b26100e53660046104b8565b6000908152600260205260409020546001600160a01b031690565b34801561010c57600080fd5b506100b261011b3660046104b8565b610299565b34801561012c57600080fd5b5061013660015481565b604051908152602001610089565b60408051808201909152601881527f4f6e6c794f776e65723a204e6f74207065726d697474656400000000000000006020820152600080549091906001600160a01b0316806101da5760405162461bcd60e51b815260206004820152601a60248201527f4f6e6c794f776e65723a204d616e61676572206e6f742073657400000000000060448201526064015b60405180910390fd5b6001600160a01b038116632f54bf6e336040516001600160e01b031960e084901b1681526001600160a01b039091166004820152602401602060405180830381865afa15801561022e573d6000803e3d6000fd5b505050506040513d601f19601f8201168201806040525081019061025291906104d1565b82906102715760405162461bcd60e51b81526004016101d191906104f3565b50600080546001600160a01b0319166001600160a01b038616179055600192505b5050919050565b6000604051806060016040528060278152602001611b75602791396000546001600160a01b03168061030d5760405162461bcd60e51b815260206004820152601a60248201527f4f6e6c794f776e65723a204d616e61676572206e6f742073657400000000000060448201526064016101d1565b6001600160a01b038116632f54bf6e336040516001600160e01b031960e084901b1681526001600160a01b039091166004820152602401602060405180830381865afa158015610361573d6000803e3d6000fd5b505050506040513d601f19601f8201168201806040525081019061038591906104d1565b82906103a45760405162461bcd60e51b81526004016101d191906104f3565b506000848152600260205260409020546001600160a01b03166103d1576103ca846103ef565b9250610292565b5050506000908152600260205260409020546001600160a01b031690565b600180546000918261040083610542565b90915550506000546040516001600160a01b03909116906104209061047b565b6001600160a01b039091168152602001604051809103906000f08015801561044c573d6000803e3d6000fd5b50600083815260026020526040902080546001600160a01b0319166001600160a01b0383161790559050919050565b61160b8061056a83390190565b60006020828403121561049a57600080fd5b81356001600160a01b03811681146104b157600080fd5b9392505050565b6000602082840312156104ca57600080fd5b5035919050565b6000602082840312156104e357600080fd5b815180151581146104b157600080fd5b60006020808352835180602085015260005b8181101561052157858101830151858201604001528201610505565b506000604082860101526040601f19601f8301168501019250505092915050565b60006001820161056257634e487b7160e01b600052601160045260246000fd5b506001019056fe608060405234801561001057600080fd5b5060405161160b38038061160b83398101604081905261002f91610054565b600080546001600160a01b0319166001600160a01b0383161790555060018055610084565b60006020828403121561006657600080fd5b81516001600160a01b038116811461007d57600080fd5b9392505050565b611578806100936000396000f3fe6080604052600436106100a05760003560e01c80636a1cd688116100645780636a1cd688146101855780636f75814014610198578063ae7e6897146101a0578063b88a3915146101c1578063c879c6d8146101f9578063ffc9896b1461021957600080fd5b806330922dfd146100b55780633bc5de30146100d55780634eb43a851461012057806359c153be1461014057806361737d621461016557600080fd5b366100b0576100ae3461025f565b005b600080fd5b3480156100c157600080fd5b506100ae6100d03660046110d3565b6102ab565b3480156100e157600080fd5b5060408051808201825260008082526020918201528151808301909252600254825260035490820152604051610117919061110f565b60405180910390f35b34801561012c57600080fd5b506100ae61013b366004611126565b6102c4565b34801561014c57600080fd5b506101556103e0565b6040519015158152602001610117565b34801561017157600080fd5b50610155610180366004611126565b61059a565b6100ae6101933660046111ce565b6106b8565b610155610934565b6101b36101ae36600461135c565b610945565b604051908152602001610117565b3480156101cd57600080fd5b506000546101e1906001600160a01b031681565b6040516001600160a01b039091168152602001610117565b34801561020557600080fd5b506100ae6102143660046113a9565b610bb9565b34801561022557600080fd5b50610239610234366004611126565b610dcb565b604080518251151581526020928301518051848301529092015190820152606001610117565b3360008181526004602052604090205460ff1661028f5760405163442421a560e11b815260040160405180910390fd5b5033600090815260056020526040902060010180549091019055565b6102b6838383610e23565b6102bf83610e9c565b505050565b60408051808201909152601b81527f42616e6b202d2061646455703a204e6f74207065726d6974746564000000000060208201526000546001600160a01b03168061032a5760405162461bcd60e51b8152600401610321906113dc565b60405180910390fd5b6001600160a01b038116632f54bf6e336040516001600160e01b031960e084901b1681526001600160a01b039091166004820152602401602060405180830381865afa15801561037e573d6000803e3d6000fd5b505050506040513d601f19601f820116820180604052508101906103a29190611413565b82906103c15760405162461bcd60e51b81526004016103219190611437565b50600280549060006103d28361149c565b91905055506102bf83610f01565b3360008181526004602052604081205490919060ff166104135760405163442421a560e11b815260040160405180910390fd5b6002600154036104655760405162461bcd60e51b815260206004820152601f60248201527f5265656e7472616e637947756172643a207265656e7472616e742063616c6c006044820152606401610321565b6002600190815533600081815260056020908152604080832081518083019092528054825290940154908401819052919291303191036104b857604051636aecca6760e11b815260040160405180910390fd5b81516000036104ee576104ca83610e9c565b6001600160a01b03831660009081526005602052604081208181556001015561050b565b6001600160a01b0383166000908152600560205260408120600101555b81602001518110156105515760405162461bcd60e51b815260206004820152600f60248201526e42616c616e636520416e6f6d616c7960881b6044820152606401610321565b60208201516040516001600160a01b0385169180156108fc02916000818181858888f1935050505015801561058a573d6000803e3d6000fd5b5060019450505050506001805590565b60408051808201909152601881527f4f6e6c794f776e65723a204e6f74207065726d697474656400000000000000006020820152600080549091906001600160a01b0316806105fb5760405162461bcd60e51b8152600401610321906113dc565b6001600160a01b038116632f54bf6e336040516001600160e01b031960e084901b1681526001600160a01b039091166004820152602401602060405180830381865afa15801561064f573d6000803e3d6000fd5b505050506040513d601f19601f820116820180604052508101906106739190611413565b82906106925760405162461bcd60e51b81526004016103219190611437565b50600080546001600160a01b0319166001600160a01b0386161790555060019392505050565b60408051808201909152601381527210985b9ace88139bdd0814195c9b5a5d1d1959606a1b60208201526000546001600160a01b03168061070b5760405162461bcd60e51b8152600401610321906113dc565b6001600160a01b038116632f54bf6e336040516001600160e01b031960e084901b1681526001600160a01b039091166004820152602401602060405180830381865afa15801561075f573d6000803e3d6000fd5b505050506040513d601f19601f820116820180604052508101906107839190611413565b82906107a25760405162461bcd60e51b81526004016103219190611437565b506107ad88886114b5565b6040516370a0823160e01b81523060048201526001600160a01b038b16906370a0823190602401602060405180830381865afa1580156107f1573d6000803e3d6000fd5b505050506040513d601f19601f8201168201806040525081019061081591906114c8565b1015610823576108236114e1565b6001600160a01b038a16600090815260056020908152604091829020825180840190935280548352600101549082015284156108c057506001600160a01b038084166000908152600560208181526040808420815180830183528154815260018083018054838701908152969095529186905592859055948f1684529092208251815590519201919091556108b784610e9c565b6108c08b610f01565b6040518060400160405280600081526020016108ed83600001518460200151610f6a90919063ffffffff16565b90526001600160a01b038c166000908152600560209081526040909120825181559101516001909101558615610927576109278a87610f7f565b5050505050505050505050565b600061093f3461025f565b50600190565b60408051808201909152601381527210985b9ace88139bdd0814195c9b5a5d1d1959606a1b6020820152600080549091906001600160a01b03168061099c5760405162461bcd60e51b8152600401610321906113dc565b6001600160a01b038116632f54bf6e336040516001600160e01b031960e084901b1681526001600160a01b039091166004820152602401602060405180830381865afa1580156109f0573d6000803e3d6000fd5b505050506040513d601f19601f82011682018060405250810190610a149190611413565b8290610a335760405162461bcd60e51b81526004016103219190611437565b506001600160a01b03871615801590610a5457506001600160a01b03881615155b610a6057610a606114e1565b6001600160a01b038816600090815260056020908152604080832081518083019092528054808352600190910154928201929092529190610aa19034610f6a565b9050808611610acc57610ac2610ab78288611069565b602084015190610f6a565b6020830152610b58565b60208201518251600091610aea91610ae49034610f6a565b90610f6a565b905086811015610b475760405162461bcd60e51b815260206004820152602260248201527f4167677265676174652062616c616e63657320697320696e73756666696369656044820152611b9d60f21b6064820152608401610321565b610b518188611069565b6020840152505b508481526001600160a01b03891660009081526005602090815260409091208251815590820151600190910155868615610ba057600380548801905586881115610ba0578690035b610bab8a8a83610e23565b509598975050505050505050565b600260015403610c0b5760405162461bcd60e51b815260206004820152601f60248201527f5265656e7472616e637947756172643a207265656e7472616e742063616c6c006044820152606401610321565b600260015560408051808201909152601381527210985b9ace88139bdd081c195c9b5a5d1d1959606a1b60208201526000546001600160a01b031680610c635760405162461bcd60e51b8152600401610321906113dc565b6001600160a01b038116632f54bf6e336040516001600160e01b031960e084901b1681526001600160a01b039091166004820152602401602060405180830381865afa158015610cb7573d6000803e3d6000fd5b505050506040513d601f19601f82011682018060405250810190610cdb9190611413565b8290610cfa5760405162461bcd60e51b81526004016103219190611437565b506003546000819003610d2057604051630c5214e560e31b815260040160405180910390fd5b6001600160a01b038416610d475760405163dc2e5e8d60e01b815260040160405180910390fd5b600060035560405163a9059cbb60e01b81526001600160a01b0386811660048301526024820183905285169063a9059cbb906044016020604051808303816000875af1158015610d9b573d6000803e3d6000fd5b505050506040513d601f19601f82011682018060405250810190610dbf9190611413565b50506001805550505050565b610dd3611081565b506040805180820182526001600160a01b039092166000818152600460209081528382205460ff161515855291815260058252829020825180840190935280548352600101548282015282015290565b60405163095ea7b360e01b81526001600160a01b0384811660048301526024820183905283169063095ea7b3906044016020604051808303816000875af1158015610e72573d6000803e3d6000fd5b505050506040513d601f19601f82011682018060405250810190610e969190611413565b50505050565b6001600160a01b03811660009081526004602052604090205460ff16610ee057604051636d1a905760e01b81526001600160a01b0382166004820152602401610321565b6001600160a01b03166000908152600460205260409020805460ff19169055565b6001600160a01b03811660009081526004602052604090205460ff1615610f465760405163abb3a9f560e01b81526001600160a01b0382166004820152602401610321565b6001600160a01b03166000908152600460205260409020805460ff19166001179055565b6000610f7682846114b5565b90505b92915050565b6040516370a0823160e01b81523060048201526000906001600160a01b038416906370a0823190602401602060405180830381865afa158015610fc6573d6000803e3d6000fd5b505050506040513d601f19601f82011682018060405250810190610fea91906114c8565b6003549091508082111561105e5761100281836114f7565b915061101883518361107590919063ffffffff16565b905060005b835181101561105c57600084828151811061103a5761103a61150a565b602002602001015160c001519050611053818785610e23565b5060010161101d565b505b505060006002555050565b6000610f7682846114f7565b6000610f768284611520565b60405180604001604052806000151581526020016110b2604051806040016040528060008152602001600081525090565b905290565b80356001600160a01b03811681146110ce57600080fd5b919050565b6000806000606084860312156110e857600080fd5b6110f1846110b7565b92506110ff602085016110b7565b9150604084013590509250925092565b815181526020808301519082015260408101610f79565b60006020828403121561113857600080fd5b610f76826110b7565b801515811461114f57600080fd5b50565b80356110ce81611141565b634e487b7160e01b600052604160045260246000fd5b604051610100810167ffffffffffffffff811182821017156111975761119761115d565b60405290565b604051601f8201601f1916810167ffffffffffffffff811182821017156111c6576111c661115d565b604052919050565b600080600080600080600080610100898b0312156111eb57600080fd5b6111f4896110b7565b975061120260208a016110b7565b96506040890135955060608901359450608089013561122081611141565b935060a089013567ffffffffffffffff8082111561123d57600080fd5b818b0191508b601f83011261125157600080fd5b8135818111156112635761126361115d565b61127260208260051b0161119d565b91508181835260208301925060208260081b85010191508d82111561129657600080fd5b6020840193505b8184101561132d57610100848f0312156112b657600080fd5b6112be611173565b843581526020850135602082015260408501356040820152606085013560608201526080850135608082015260a085013560a082015261130060c086016110b7565b60c082015260e085013561131381611141565b60e08201528352610100939093019260209092019161129d565b955061133f9250505060c08a01611152565b915061134d60e08a016110b7565b90509295985092959890939650565b600080600080600060a0868803121561137457600080fd5b61137d866110b7565b945061138b602087016110b7565b94979496505050506040830135926060810135926080909101359150565b600080604083850312156113bc57600080fd5b6113c5836110b7565b91506113d3602084016110b7565b90509250929050565b6020808252601a908201527f4f6e6c794f776e65723a204d616e61676572206e6f7420736574000000000000604082015260600190565b60006020828403121561142557600080fd5b815161143081611141565b9392505050565b60006020808352835180602085015260005b8181101561146557858101830151858201604001528201611449565b506000604082860101526040601f19601f8301168501019250505092915050565b634e487b7160e01b600052601160045260246000fd5b6000600182016114ae576114ae611486565b5060010190565b80820180821115610f7957610f79611486565b6000602082840312156114da57600080fd5b5051919050565b634e487b7160e01b600052600160045260246000fd5b81810381811115610f7957610f79611486565b634e487b7160e01b600052603260045260246000fd5b60008261153d57634e487b7160e01b600052601260045260246000fd5b50049056fea2646970667358221220ee7d953161dd1952144acda0f2f5943f9d2985d10fcb076510396108ff9bb13764736f6c6343000818003342616e6b466163746f7279202d2063726561746542616e6b3a204e6f74207065726d6974746564a264697066735822122014dfa428237002b95681de8c4fd3345931830a9f27205070b2836fc54911807664736f6c63430008180033",
  "devdoc": {
    "kind": "dev",
    "methods": {
      "createBank(uint256)": {
        "details": "Create a new bank."
      },
      "getBank(uint256)": {
        "params": {
          "unit": ": Unit amount"
        }
      },
      "setOwnershipManager(address)": {
        "params": {
          "newManager": ": New manager address"
        }
      }
    },
    "stateVariables": {
      "bankMap": {
        "details": "Mapping of addresses to strategies. Also used as reverse map of strategies to status."
      }
    },
    "title": "SmartBankAdmin: A standalone contract that manages bank creation,  deletion, read and write data. Author: Simplifinance",
    "version": 1
  },
  "userdoc": {
    "kind": "user",
    "methods": {
      "createBank(uint256)": {
        "notice": "'unit' should not own a bank before now.          only address with owner permission can call."
      },
      "getBank(uint256)": {
        "notice": "Returns then bank for 'unit'"
      },
      "setOwnershipManager(address)": {
        "notice": "Set Ownership manager"
      }
    },
    "version": 1
  },
  "storageLayout": {
    "storage": [
      {
        "astId": 1702,
        "contract": "contracts/implementations/strategies/BankFactory.sol:BankFactory",
        "label": "ownershipManager",
        "offset": 0,
        "slot": "0",
        "type": "t_address"
      },
      {
        "astId": 4035,
        "contract": "contracts/implementations/strategies/BankFactory.sol:BankFactory",
        "label": "totalBanks",
        "offset": 0,
        "slot": "1",
        "type": "t_uint256"
      },
      {
        "astId": 4040,
        "contract": "contracts/implementations/strategies/BankFactory.sol:BankFactory",
        "label": "bankMap",
        "offset": 0,
        "slot": "2",
        "type": "t_mapping(t_uint256,t_address)"
      }
    ],
    "types": {
      "t_address": {
        "encoding": "inplace",
        "label": "address",
        "numberOfBytes": "20"
      },
      "t_mapping(t_uint256,t_address)": {
        "encoding": "mapping",
        "key": "t_uint256",
        "label": "mapping(uint256 => address)",
        "numberOfBytes": "32",
        "value": "t_address"
      },
      "t_uint256": {
        "encoding": "inplace",
        "label": "uint256",
        "numberOfBytes": "32"
      }
    }
  }
}