{
  "address": "0x82263AF611A7E1bb11aB15722d3Da5cD9B2a86B8",
  "abi": [
    {
      "inputs": [
        {
          "internalType": "uint16",
          "name": "serviceRate",
          "type": "uint16"
        },
        {
          "internalType": "uint256",
          "name": "minContribution",
          "type": "uint256"
        },
        {
          "internalType": "uint256",
          "name": "setUpFee",
          "type": "uint256"
        },
        {
          "internalType": "address",
          "name": "feeTo",
          "type": "address"
        },
        {
          "internalType": "address",
          "name": "assetClass",
          "type": "address"
        },
        {
          "internalType": "address",
          "name": "strategyManager",
          "type": "address"
        },
        {
          "internalType": "address",
          "name": "ownerShipManager",
          "type": "address"
        }
      ],
      "stateMutability": "nonpayable",
      "type": "constructor"
    },
    {
      "inputs": [],
      "name": "AllMemberIsPaid",
      "type": "error"
    },
    {
      "inputs": [
        {
          "internalType": "uint24",
          "name": "ccr",
          "type": "uint24"
        }
      ],
      "name": "CollateralCoverageCannotGoBelow_100",
      "type": "error"
    },
    {
      "inputs": [],
      "name": "EnforcedPause",
      "type": "error"
    },
    {
      "inputs": [],
      "name": "ExpectedPause",
      "type": "error"
    },
    {
      "inputs": [
        {
          "internalType": "enum Common.FuncTag",
          "name": "",
          "type": "uint8"
        }
      ],
      "name": "FunctionAlreadyLocked",
      "type": "error"
    },
    {
      "inputs": [
        {
          "internalType": "enum Common.FuncTag",
          "name": "",
          "type": "uint8"
        }
      ],
      "name": "FunctionAlreadyUnlocked",
      "type": "error"
    },
    {
      "inputs": [
        {
          "internalType": "uint8",
          "name": "",
          "type": "uint8"
        }
      ],
      "name": "FunctionNotCallable",
      "type": "error"
    },
    {
      "inputs": [
        {
          "internalType": "uint256",
          "name": "",
          "type": "uint256"
        }
      ],
      "name": "IndexOutOfBound",
      "type": "error"
    },
    {
      "inputs": [],
      "name": "InsufficientFund",
      "type": "error"
    },
    {
      "inputs": [],
      "name": "OwnershipManagerIsNotSet",
      "type": "error"
    },
    {
      "inputs": [],
      "name": "QuorumIsInvalid",
      "type": "error"
    },
    {
      "inputs": [],
      "name": "ReentrancyGuardReentrantCall",
      "type": "error"
    },
    {
      "inputs": [
        {
          "internalType": "address",
          "name": "",
          "type": "address"
        }
      ],
      "name": "UnSupportedAsset",
      "type": "error"
    },
    {
      "inputs": [],
      "name": "UpdateStrategyError",
      "type": "error"
    },
    {
      "anonymous": false,
      "inputs": [
        {
          "components": [
            {
              "components": [
                {
                  "components": [
                    {
                      "internalType": "uint256",
                      "name": "quorum",
                      "type": "uint256"
                    },
                    {
                      "internalType": "uint256",
                      "name": "selector",
                      "type": "uint256"
                    },
                    {
                      "internalType": "uint256",
                      "name": "colCoverage",
                      "type": "uint256"
                    },
                    {
                      "internalType": "uint256",
                      "name": "duration",
                      "type": "uint256"
                    },
                    {
                      "internalType": "uint256",
                      "name": "intRate",
                      "type": "uint256"
                    }
                  ],
                  "internalType": "struct Common.Uints",
                  "name": "uints",
                  "type": "tuple"
                },
                {
                  "components": [
                    {
                      "internalType": "uint256",
                      "name": "fullInterest",
                      "type": "uint256"
                    },
                    {
                      "internalType": "uint256",
                      "name": "intPerSec",
                      "type": "uint256"
                    },
                    {
                      "internalType": "uint256",
                      "name": "unit",
                      "type": "uint256"
                    },
                    {
                      "internalType": "uint256",
                      "name": "currentPool",
                      "type": "uint256"
                    },
                    {
                      "internalType": "uint256",
                      "name": "epochId",
                      "type": "uint256"
                    }
                  ],
                  "internalType": "struct Common.Uint256s",
                  "name": "uint256s",
                  "type": "tuple"
                },
                {
                  "components": [
                    {
                      "internalType": "address",
                      "name": "asset",
                      "type": "address"
                    },
                    {
                      "internalType": "address",
                      "name": "lastPaid",
                      "type": "address"
                    },
                    {
                      "internalType": "address",
                      "name": "strategy",
                      "type": "address"
                    },
                    {
                      "internalType": "address",
                      "name": "admin",
                      "type": "address"
                    }
                  ],
                  "internalType": "struct Common.Addresses",
                  "name": "addrs",
                  "type": "tuple"
                },
                {
                  "internalType": "uint256",
                  "name": "allGh",
                  "type": "uint256"
                },
                {
                  "internalType": "bool",
                  "name": "isPermissionless",
                  "type": "bool"
                }
              ],
              "internalType": "struct Common.Pool",
              "name": "pool",
              "type": "tuple"
            },
            {
              "components": [
                {
                  "internalType": "uint256",
                  "name": "durOfChoice",
                  "type": "uint256"
                },
                {
                  "internalType": "uint256",
                  "name": "expInterest",
                  "type": "uint256"
                },
                {
                  "internalType": "uint256",
                  "name": "payDate",
                  "type": "uint256"
                },
                {
                  "internalType": "uint256",
                  "name": "turnTime",
                  "type": "uint256"
                },
                {
                  "internalType": "uint256",
                  "name": "loan",
                  "type": "uint256"
                },
                {
                  "internalType": "uint256",
                  "name": "colBals",
                  "type": "uint256"
                },
                {
                  "internalType": "address",
                  "name": "id",
                  "type": "address"
                }
              ],
              "internalType": "struct Common.Contributor",
              "name": "contributor",
              "type": "tuple"
            },
            {
              "internalType": "uint256",
              "name": "epochId",
              "type": "uint256"
            },
            {
              "internalType": "uint16",
              "name": "spot",
              "type": "uint16"
            }
          ],
          "indexed": false,
          "internalType": "struct Common.CreatePoolReturnValue",
          "name": "",
          "type": "tuple"
        }
      ],
      "name": "BandCreated",
      "type": "event"
    },
    {
      "anonymous": false,
      "inputs": [
        {
          "indexed": false,
          "internalType": "uint256",
          "name": "epochId",
          "type": "uint256"
        }
      ],
      "name": "Cancellation",
      "type": "event"
    },
    {
      "anonymous": false,
      "inputs": [
        {
          "components": [
            {
              "internalType": "uint8",
              "name": "slot",
              "type": "uint8"
            },
            {
              "components": [
                {
                  "internalType": "bool",
                  "name": "admin",
                  "type": "bool"
                },
                {
                  "internalType": "bool",
                  "name": "member",
                  "type": "bool"
                }
              ],
              "internalType": "struct Common.Rank",
              "name": "rank",
              "type": "tuple"
            },
            {
              "components": [
                {
                  "internalType": "uint256",
                  "name": "durOfChoice",
                  "type": "uint256"
                },
                {
                  "internalType": "uint256",
                  "name": "expInterest",
                  "type": "uint256"
                },
                {
                  "internalType": "uint256",
                  "name": "payDate",
                  "type": "uint256"
                },
                {
                  "internalType": "uint256",
                  "name": "turnTime",
                  "type": "uint256"
                },
                {
                  "internalType": "uint256",
                  "name": "loan",
                  "type": "uint256"
                },
                {
                  "internalType": "uint256",
                  "name": "colBals",
                  "type": "uint256"
                },
                {
                  "internalType": "address",
                  "name": "id",
                  "type": "address"
                }
              ],
              "internalType": "struct Common.Contributor",
              "name": "cbData",
              "type": "tuple"
            },
            {
              "components": [
                {
                  "components": [
                    {
                      "internalType": "uint256",
                      "name": "quorum",
                      "type": "uint256"
                    },
                    {
                      "internalType": "uint256",
                      "name": "selector",
                      "type": "uint256"
                    },
                    {
                      "internalType": "uint256",
                      "name": "colCoverage",
                      "type": "uint256"
                    },
                    {
                      "internalType": "uint256",
                      "name": "duration",
                      "type": "uint256"
                    },
                    {
                      "internalType": "uint256",
                      "name": "intRate",
                      "type": "uint256"
                    }
                  ],
                  "internalType": "struct Common.Uints",
                  "name": "uints",
                  "type": "tuple"
                },
                {
                  "components": [
                    {
                      "internalType": "uint256",
                      "name": "fullInterest",
                      "type": "uint256"
                    },
                    {
                      "internalType": "uint256",
                      "name": "intPerSec",
                      "type": "uint256"
                    },
                    {
                      "internalType": "uint256",
                      "name": "unit",
                      "type": "uint256"
                    },
                    {
                      "internalType": "uint256",
                      "name": "currentPool",
                      "type": "uint256"
                    },
                    {
                      "internalType": "uint256",
                      "name": "epochId",
                      "type": "uint256"
                    }
                  ],
                  "internalType": "struct Common.Uint256s",
                  "name": "uint256s",
                  "type": "tuple"
                },
                {
                  "components": [
                    {
                      "internalType": "address",
                      "name": "asset",
                      "type": "address"
                    },
                    {
                      "internalType": "address",
                      "name": "lastPaid",
                      "type": "address"
                    },
                    {
                      "internalType": "address",
                      "name": "strategy",
                      "type": "address"
                    },
                    {
                      "internalType": "address",
                      "name": "admin",
                      "type": "address"
                    }
                  ],
                  "internalType": "struct Common.Addresses",
                  "name": "addrs",
                  "type": "tuple"
                },
                {
                  "internalType": "uint256",
                  "name": "allGh",
                  "type": "uint256"
                },
                {
                  "internalType": "bool",
                  "name": "isPermissionless",
                  "type": "bool"
                }
              ],
              "internalType": "struct Common.Pool",
              "name": "pool",
              "type": "tuple"
            }
          ],
          "indexed": false,
          "internalType": "struct Common.CommonEventData",
          "name": "",
          "type": "tuple"
        }
      ],
      "name": "GetFinanced",
      "type": "event"
    },
    {
      "anonymous": false,
      "inputs": [
        {
          "components": [
            {
              "internalType": "uint8",
              "name": "slot",
              "type": "uint8"
            },
            {
              "components": [
                {
                  "internalType": "bool",
                  "name": "admin",
                  "type": "bool"
                },
                {
                  "internalType": "bool",
                  "name": "member",
                  "type": "bool"
                }
              ],
              "internalType": "struct Common.Rank",
              "name": "rank",
              "type": "tuple"
            },
            {
              "components": [
                {
                  "internalType": "uint256",
                  "name": "durOfChoice",
                  "type": "uint256"
                },
                {
                  "internalType": "uint256",
                  "name": "expInterest",
                  "type": "uint256"
                },
                {
                  "internalType": "uint256",
                  "name": "payDate",
                  "type": "uint256"
                },
                {
                  "internalType": "uint256",
                  "name": "turnTime",
                  "type": "uint256"
                },
                {
                  "internalType": "uint256",
                  "name": "loan",
                  "type": "uint256"
                },
                {
                  "internalType": "uint256",
                  "name": "colBals",
                  "type": "uint256"
                },
                {
                  "internalType": "address",
                  "name": "id",
                  "type": "address"
                }
              ],
              "internalType": "struct Common.Contributor",
              "name": "cbData",
              "type": "tuple"
            },
            {
              "components": [
                {
                  "components": [
                    {
                      "internalType": "uint256",
                      "name": "quorum",
                      "type": "uint256"
                    },
                    {
                      "internalType": "uint256",
                      "name": "selector",
                      "type": "uint256"
                    },
                    {
                      "internalType": "uint256",
                      "name": "colCoverage",
                      "type": "uint256"
                    },
                    {
                      "internalType": "uint256",
                      "name": "duration",
                      "type": "uint256"
                    },
                    {
                      "internalType": "uint256",
                      "name": "intRate",
                      "type": "uint256"
                    }
                  ],
                  "internalType": "struct Common.Uints",
                  "name": "uints",
                  "type": "tuple"
                },
                {
                  "components": [
                    {
                      "internalType": "uint256",
                      "name": "fullInterest",
                      "type": "uint256"
                    },
                    {
                      "internalType": "uint256",
                      "name": "intPerSec",
                      "type": "uint256"
                    },
                    {
                      "internalType": "uint256",
                      "name": "unit",
                      "type": "uint256"
                    },
                    {
                      "internalType": "uint256",
                      "name": "currentPool",
                      "type": "uint256"
                    },
                    {
                      "internalType": "uint256",
                      "name": "epochId",
                      "type": "uint256"
                    }
                  ],
                  "internalType": "struct Common.Uint256s",
                  "name": "uint256s",
                  "type": "tuple"
                },
                {
                  "components": [
                    {
                      "internalType": "address",
                      "name": "asset",
                      "type": "address"
                    },
                    {
                      "internalType": "address",
                      "name": "lastPaid",
                      "type": "address"
                    },
                    {
                      "internalType": "address",
                      "name": "strategy",
                      "type": "address"
                    },
                    {
                      "internalType": "address",
                      "name": "admin",
                      "type": "address"
                    }
                  ],
                  "internalType": "struct Common.Addresses",
                  "name": "addrs",
                  "type": "tuple"
                },
                {
                  "internalType": "uint256",
                  "name": "allGh",
                  "type": "uint256"
                },
                {
                  "internalType": "bool",
                  "name": "isPermissionless",
                  "type": "bool"
                }
              ],
              "internalType": "struct Common.Pool",
              "name": "pool",
              "type": "tuple"
            }
          ],
          "indexed": false,
          "internalType": "struct Common.CommonEventData",
          "name": "",
          "type": "tuple"
        }
      ],
      "name": "Liquidated",
      "type": "event"
    },
    {
      "anonymous": false,
      "inputs": [
        {
          "components": [
            {
              "internalType": "uint8",
              "name": "slot",
              "type": "uint8"
            },
            {
              "components": [
                {
                  "internalType": "bool",
                  "name": "admin",
                  "type": "bool"
                },
                {
                  "internalType": "bool",
                  "name": "member",
                  "type": "bool"
                }
              ],
              "internalType": "struct Common.Rank",
              "name": "rank",
              "type": "tuple"
            },
            {
              "components": [
                {
                  "internalType": "uint256",
                  "name": "durOfChoice",
                  "type": "uint256"
                },
                {
                  "internalType": "uint256",
                  "name": "expInterest",
                  "type": "uint256"
                },
                {
                  "internalType": "uint256",
                  "name": "payDate",
                  "type": "uint256"
                },
                {
                  "internalType": "uint256",
                  "name": "turnTime",
                  "type": "uint256"
                },
                {
                  "internalType": "uint256",
                  "name": "loan",
                  "type": "uint256"
                },
                {
                  "internalType": "uint256",
                  "name": "colBals",
                  "type": "uint256"
                },
                {
                  "internalType": "address",
                  "name": "id",
                  "type": "address"
                }
              ],
              "internalType": "struct Common.Contributor",
              "name": "cbData",
              "type": "tuple"
            },
            {
              "components": [
                {
                  "components": [
                    {
                      "internalType": "uint256",
                      "name": "quorum",
                      "type": "uint256"
                    },
                    {
                      "internalType": "uint256",
                      "name": "selector",
                      "type": "uint256"
                    },
                    {
                      "internalType": "uint256",
                      "name": "colCoverage",
                      "type": "uint256"
                    },
                    {
                      "internalType": "uint256",
                      "name": "duration",
                      "type": "uint256"
                    },
                    {
                      "internalType": "uint256",
                      "name": "intRate",
                      "type": "uint256"
                    }
                  ],
                  "internalType": "struct Common.Uints",
                  "name": "uints",
                  "type": "tuple"
                },
                {
                  "components": [
                    {
                      "internalType": "uint256",
                      "name": "fullInterest",
                      "type": "uint256"
                    },
                    {
                      "internalType": "uint256",
                      "name": "intPerSec",
                      "type": "uint256"
                    },
                    {
                      "internalType": "uint256",
                      "name": "unit",
                      "type": "uint256"
                    },
                    {
                      "internalType": "uint256",
                      "name": "currentPool",
                      "type": "uint256"
                    },
                    {
                      "internalType": "uint256",
                      "name": "epochId",
                      "type": "uint256"
                    }
                  ],
                  "internalType": "struct Common.Uint256s",
                  "name": "uint256s",
                  "type": "tuple"
                },
                {
                  "components": [
                    {
                      "internalType": "address",
                      "name": "asset",
                      "type": "address"
                    },
                    {
                      "internalType": "address",
                      "name": "lastPaid",
                      "type": "address"
                    },
                    {
                      "internalType": "address",
                      "name": "strategy",
                      "type": "address"
                    },
                    {
                      "internalType": "address",
                      "name": "admin",
                      "type": "address"
                    }
                  ],
                  "internalType": "struct Common.Addresses",
                  "name": "addrs",
                  "type": "tuple"
                },
                {
                  "internalType": "uint256",
                  "name": "allGh",
                  "type": "uint256"
                },
                {
                  "internalType": "bool",
                  "name": "isPermissionless",
                  "type": "bool"
                }
              ],
              "internalType": "struct Common.Pool",
              "name": "pool",
              "type": "tuple"
            }
          ],
          "indexed": false,
          "internalType": "struct Common.CommonEventData",
          "name": "",
          "type": "tuple"
        }
      ],
      "name": "NewMemberAdded",
      "type": "event"
    },
    {
      "anonymous": false,
      "inputs": [
        {
          "indexed": false,
          "internalType": "address",
          "name": "account",
          "type": "address"
        }
      ],
      "name": "Paused",
      "type": "event"
    },
    {
      "anonymous": false,
      "inputs": [
        {
          "components": [
            {
              "internalType": "uint8",
              "name": "slot",
              "type": "uint8"
            },
            {
              "components": [
                {
                  "internalType": "bool",
                  "name": "admin",
                  "type": "bool"
                },
                {
                  "internalType": "bool",
                  "name": "member",
                  "type": "bool"
                }
              ],
              "internalType": "struct Common.Rank",
              "name": "rank",
              "type": "tuple"
            },
            {
              "components": [
                {
                  "internalType": "uint256",
                  "name": "durOfChoice",
                  "type": "uint256"
                },
                {
                  "internalType": "uint256",
                  "name": "expInterest",
                  "type": "uint256"
                },
                {
                  "internalType": "uint256",
                  "name": "payDate",
                  "type": "uint256"
                },
                {
                  "internalType": "uint256",
                  "name": "turnTime",
                  "type": "uint256"
                },
                {
                  "internalType": "uint256",
                  "name": "loan",
                  "type": "uint256"
                },
                {
                  "internalType": "uint256",
                  "name": "colBals",
                  "type": "uint256"
                },
                {
                  "internalType": "address",
                  "name": "id",
                  "type": "address"
                }
              ],
              "internalType": "struct Common.Contributor",
              "name": "cbData",
              "type": "tuple"
            },
            {
              "components": [
                {
                  "components": [
                    {
                      "internalType": "uint256",
                      "name": "quorum",
                      "type": "uint256"
                    },
                    {
                      "internalType": "uint256",
                      "name": "selector",
                      "type": "uint256"
                    },
                    {
                      "internalType": "uint256",
                      "name": "colCoverage",
                      "type": "uint256"
                    },
                    {
                      "internalType": "uint256",
                      "name": "duration",
                      "type": "uint256"
                    },
                    {
                      "internalType": "uint256",
                      "name": "intRate",
                      "type": "uint256"
                    }
                  ],
                  "internalType": "struct Common.Uints",
                  "name": "uints",
                  "type": "tuple"
                },
                {
                  "components": [
                    {
                      "internalType": "uint256",
                      "name": "fullInterest",
                      "type": "uint256"
                    },
                    {
                      "internalType": "uint256",
                      "name": "intPerSec",
                      "type": "uint256"
                    },
                    {
                      "internalType": "uint256",
                      "name": "unit",
                      "type": "uint256"
                    },
                    {
                      "internalType": "uint256",
                      "name": "currentPool",
                      "type": "uint256"
                    },
                    {
                      "internalType": "uint256",
                      "name": "epochId",
                      "type": "uint256"
                    }
                  ],
                  "internalType": "struct Common.Uint256s",
                  "name": "uint256s",
                  "type": "tuple"
                },
                {
                  "components": [
                    {
                      "internalType": "address",
                      "name": "asset",
                      "type": "address"
                    },
                    {
                      "internalType": "address",
                      "name": "lastPaid",
                      "type": "address"
                    },
                    {
                      "internalType": "address",
                      "name": "strategy",
                      "type": "address"
                    },
                    {
                      "internalType": "address",
                      "name": "admin",
                      "type": "address"
                    }
                  ],
                  "internalType": "struct Common.Addresses",
                  "name": "addrs",
                  "type": "tuple"
                },
                {
                  "internalType": "uint256",
                  "name": "allGh",
                  "type": "uint256"
                },
                {
                  "internalType": "bool",
                  "name": "isPermissionless",
                  "type": "bool"
                }
              ],
              "internalType": "struct Common.Pool",
              "name": "pool",
              "type": "tuple"
            }
          ],
          "indexed": false,
          "internalType": "struct Common.CommonEventData",
          "name": "",
          "type": "tuple"
        }
      ],
      "name": "Payback",
      "type": "event"
    },
    {
      "anonymous": false,
      "inputs": [
        {
          "indexed": true,
          "internalType": "address",
          "name": "",
          "type": "address"
        },
        {
          "indexed": true,
          "internalType": "address",
          "name": "",
          "type": "address"
        }
      ],
      "name": "Rekeyed",
      "type": "event"
    },
    {
      "anonymous": false,
      "inputs": [
        {
          "indexed": false,
          "internalType": "uint256",
          "name": "",
          "type": "uint256"
        },
        {
          "components": [
            {
              "components": [
                {
                  "internalType": "uint256",
                  "name": "quorum",
                  "type": "uint256"
                },
                {
                  "internalType": "uint256",
                  "name": "selector",
                  "type": "uint256"
                },
                {
                  "internalType": "uint256",
                  "name": "colCoverage",
                  "type": "uint256"
                },
                {
                  "internalType": "uint256",
                  "name": "duration",
                  "type": "uint256"
                },
                {
                  "internalType": "uint256",
                  "name": "intRate",
                  "type": "uint256"
                }
              ],
              "internalType": "struct Common.Uints",
              "name": "uints",
              "type": "tuple"
            },
            {
              "components": [
                {
                  "internalType": "uint256",
                  "name": "fullInterest",
                  "type": "uint256"
                },
                {
                  "internalType": "uint256",
                  "name": "intPerSec",
                  "type": "uint256"
                },
                {
                  "internalType": "uint256",
                  "name": "unit",
                  "type": "uint256"
                },
                {
                  "internalType": "uint256",
                  "name": "currentPool",
                  "type": "uint256"
                },
                {
                  "internalType": "uint256",
                  "name": "epochId",
                  "type": "uint256"
                }
              ],
              "internalType": "struct Common.Uint256s",
              "name": "uint256s",
              "type": "tuple"
            },
            {
              "components": [
                {
                  "internalType": "address",
                  "name": "asset",
                  "type": "address"
                },
                {
                  "internalType": "address",
                  "name": "lastPaid",
                  "type": "address"
                },
                {
                  "internalType": "address",
                  "name": "strategy",
                  "type": "address"
                },
                {
                  "internalType": "address",
                  "name": "admin",
                  "type": "address"
                }
              ],
              "internalType": "struct Common.Addresses",
              "name": "addrs",
              "type": "tuple"
            },
            {
              "internalType": "uint256",
              "name": "allGh",
              "type": "uint256"
            },
            {
              "internalType": "bool",
              "name": "isPermissionless",
              "type": "bool"
            }
          ],
          "indexed": false,
          "internalType": "struct Common.Pool",
          "name": "",
          "type": "tuple"
        }
      ],
      "name": "RoundUp",
      "type": "event"
    },
    {
      "anonymous": false,
      "inputs": [
        {
          "indexed": false,
          "internalType": "address",
          "name": "account",
          "type": "address"
        }
      ],
      "name": "Unpaused",
      "type": "event"
    },
    {
      "inputs": [
        {
          "internalType": "uint16",
          "name": "intRate",
          "type": "uint16"
        },
        {
          "internalType": "uint16",
          "name": "durationInHours",
          "type": "uint16"
        },
        {
          "internalType": "uint24",
          "name": "colCoverage",
          "type": "uint24"
        },
        {
          "internalType": "uint256",
          "name": "unitLiquidity",
          "type": "uint256"
        },
        {
          "internalType": "address",
          "name": "liquidAsset",
          "type": "address"
        },
        {
          "internalType": "address[]",
          "name": "contributors",
          "type": "address[]"
        }
      ],
      "name": "createPermissionedPool",
      "outputs": [
        {
          "internalType": "bool",
          "name": "",
          "type": "bool"
        }
      ],
      "stateMutability": "nonpayable",
      "type": "function"
    },
    {
      "inputs": [
        {
          "internalType": "uint16",
          "name": "intRate",
          "type": "uint16"
        },
        {
          "internalType": "uint8",
          "name": "quorum",
          "type": "uint8"
        },
        {
          "internalType": "uint16",
          "name": "durationInHours",
          "type": "uint16"
        },
        {
          "internalType": "uint24",
          "name": "colCoverage",
          "type": "uint24"
        },
        {
          "internalType": "uint256",
          "name": "unitLiquidity",
          "type": "uint256"
        },
        {
          "internalType": "address",
          "name": "liquidAsset",
          "type": "address"
        }
      ],
      "name": "createPermissionlessPool",
      "outputs": [
        {
          "internalType": "bool",
          "name": "",
          "type": "bool"
        }
      ],
      "stateMutability": "nonpayable",
      "type": "function"
    },
    {
      "inputs": [],
      "name": "creationFee",
      "outputs": [
        {
          "internalType": "uint256",
          "name": "",
          "type": "uint256"
        }
      ],
      "stateMutability": "view",
      "type": "function"
    },
    {
      "inputs": [
        {
          "internalType": "uint256",
          "name": "epochId",
          "type": "uint256"
        }
      ],
      "name": "enquireLiquidation",
      "outputs": [
        {
          "components": [
            {
              "internalType": "uint256",
              "name": "durOfChoice",
              "type": "uint256"
            },
            {
              "internalType": "uint256",
              "name": "expInterest",
              "type": "uint256"
            },
            {
              "internalType": "uint256",
              "name": "payDate",
              "type": "uint256"
            },
            {
              "internalType": "uint256",
              "name": "turnTime",
              "type": "uint256"
            },
            {
              "internalType": "uint256",
              "name": "loan",
              "type": "uint256"
            },
            {
              "internalType": "uint256",
              "name": "colBals",
              "type": "uint256"
            },
            {
              "internalType": "address",
              "name": "id",
              "type": "address"
            }
          ],
          "internalType": "struct Common.Contributor",
          "name": "",
          "type": "tuple"
        },
        {
          "internalType": "bool",
          "name": "",
          "type": "bool"
        },
        {
          "internalType": "uint256",
          "name": "",
          "type": "uint256"
        }
      ],
      "stateMutability": "view",
      "type": "function"
    },
    {
      "inputs": [],
      "name": "epoches",
      "outputs": [
        {
          "internalType": "uint256",
          "name": "",
          "type": "uint256"
        }
      ],
      "stateMutability": "view",
      "type": "function"
    },
    {
      "inputs": [
        {
          "internalType": "uint256",
          "name": "epochId",
          "type": "uint256"
        }
      ],
      "name": "getBalances",
      "outputs": [
        {
          "components": [
            {
              "internalType": "uint256",
              "name": "xfi",
              "type": "uint256"
            },
            {
              "internalType": "uint256",
              "name": "erc20",
              "type": "uint256"
            }
          ],
          "internalType": "struct Common.Balances",
          "name": "",
          "type": "tuple"
        }
      ],
      "stateMutability": "view",
      "type": "function"
    },
    {
      "inputs": [
        {
          "internalType": "uint256",
          "name": "epochId",
          "type": "uint256"
        }
      ],
      "name": "getCollaterlQuote",
      "outputs": [
        {
          "internalType": "uint256",
          "name": "collateral",
          "type": "uint256"
        },
        {
          "internalType": "uint24",
          "name": "colCoverage",
          "type": "uint24"
        }
      ],
      "stateMutability": "view",
      "type": "function"
    },
    {
      "inputs": [],
      "name": "getContractData",
      "outputs": [
        {
          "components": [
            {
              "internalType": "address",
              "name": "feeTo",
              "type": "address"
            },
            {
              "internalType": "address",
              "name": "assetAdmin",
              "type": "address"
            },
            {
              "internalType": "uint16",
              "name": "makerRate",
              "type": "uint16"
            },
            {
              "internalType": "address",
              "name": "strategyManager",
              "type": "address"
            }
          ],
          "internalType": "struct IFactory.ContractData",
          "name": "result",
          "type": "tuple"
        }
      ],
      "stateMutability": "view",
      "type": "function"
    },
    {
      "inputs": [
        {
          "internalType": "uint256",
          "name": "epochId",
          "type": "uint256"
        },
        {
          "internalType": "address",
          "name": "target",
          "type": "address"
        }
      ],
      "name": "getCurrentDebt",
      "outputs": [
        {
          "internalType": "uint256",
          "name": "",
          "type": "uint256"
        }
      ],
      "stateMutability": "view",
      "type": "function"
    },
    {
      "inputs": [
        {
          "internalType": "uint256",
          "name": "epochId",
          "type": "uint256"
        },
        {
          "internalType": "uint8",
          "name": "daysOfUseInHr",
          "type": "uint8"
        }
      ],
      "name": "getFinance",
      "outputs": [
        {
          "internalType": "bool",
          "name": "",
          "type": "bool"
        }
      ],
      "stateMutability": "payable",
      "type": "function"
    },
    {
      "inputs": [
        {
          "internalType": "uint256",
          "name": "epochId",
          "type": "uint256"
        }
      ],
      "name": "getPoolData",
      "outputs": [
        {
          "components": [
            {
              "components": [
                {
                  "internalType": "uint256",
                  "name": "quorum",
                  "type": "uint256"
                },
                {
                  "internalType": "uint256",
                  "name": "selector",
                  "type": "uint256"
                },
                {
                  "internalType": "uint256",
                  "name": "colCoverage",
                  "type": "uint256"
                },
                {
                  "internalType": "uint256",
                  "name": "duration",
                  "type": "uint256"
                },
                {
                  "internalType": "uint256",
                  "name": "intRate",
                  "type": "uint256"
                }
              ],
              "internalType": "struct Common.Uints",
              "name": "uints",
              "type": "tuple"
            },
            {
              "components": [
                {
                  "internalType": "uint256",
                  "name": "fullInterest",
                  "type": "uint256"
                },
                {
                  "internalType": "uint256",
                  "name": "intPerSec",
                  "type": "uint256"
                },
                {
                  "internalType": "uint256",
                  "name": "unit",
                  "type": "uint256"
                },
                {
                  "internalType": "uint256",
                  "name": "currentPool",
                  "type": "uint256"
                },
                {
                  "internalType": "uint256",
                  "name": "epochId",
                  "type": "uint256"
                }
              ],
              "internalType": "struct Common.Uint256s",
              "name": "uint256s",
              "type": "tuple"
            },
            {
              "components": [
                {
                  "internalType": "address",
                  "name": "asset",
                  "type": "address"
                },
                {
                  "internalType": "address",
                  "name": "lastPaid",
                  "type": "address"
                },
                {
                  "internalType": "address",
                  "name": "strategy",
                  "type": "address"
                },
                {
                  "internalType": "address",
                  "name": "admin",
                  "type": "address"
                }
              ],
              "internalType": "struct Common.Addresses",
              "name": "addrs",
              "type": "tuple"
            },
            {
              "internalType": "uint256",
              "name": "allGh",
              "type": "uint256"
            },
            {
              "internalType": "bool",
              "name": "isPermissionless",
              "type": "bool"
            }
          ],
          "internalType": "struct Common.Pool",
          "name": "",
          "type": "tuple"
        }
      ],
      "stateMutability": "view",
      "type": "function"
    },
    {
      "inputs": [],
      "name": "getPoolFromAllEpoches",
      "outputs": [
        {
          "components": [
            {
              "components": [
                {
                  "internalType": "uint256",
                  "name": "quorum",
                  "type": "uint256"
                },
                {
                  "internalType": "uint256",
                  "name": "selector",
                  "type": "uint256"
                },
                {
                  "internalType": "uint256",
                  "name": "colCoverage",
                  "type": "uint256"
                },
                {
                  "internalType": "uint256",
                  "name": "duration",
                  "type": "uint256"
                },
                {
                  "internalType": "uint256",
                  "name": "intRate",
                  "type": "uint256"
                }
              ],
              "internalType": "struct Common.Uints",
              "name": "uints",
              "type": "tuple"
            },
            {
              "components": [
                {
                  "internalType": "uint256",
                  "name": "fullInterest",
                  "type": "uint256"
                },
                {
                  "internalType": "uint256",
                  "name": "intPerSec",
                  "type": "uint256"
                },
                {
                  "internalType": "uint256",
                  "name": "unit",
                  "type": "uint256"
                },
                {
                  "internalType": "uint256",
                  "name": "currentPool",
                  "type": "uint256"
                },
                {
                  "internalType": "uint256",
                  "name": "epochId",
                  "type": "uint256"
                }
              ],
              "internalType": "struct Common.Uint256s",
              "name": "uint256s",
              "type": "tuple"
            },
            {
              "components": [
                {
                  "internalType": "address",
                  "name": "asset",
                  "type": "address"
                },
                {
                  "internalType": "address",
                  "name": "lastPaid",
                  "type": "address"
                },
                {
                  "internalType": "address",
                  "name": "strategy",
                  "type": "address"
                },
                {
                  "internalType": "address",
                  "name": "admin",
                  "type": "address"
                }
              ],
              "internalType": "struct Common.Addresses",
              "name": "addrs",
              "type": "tuple"
            },
            {
              "internalType": "uint256",
              "name": "allGh",
              "type": "uint256"
            },
            {
              "internalType": "bool",
              "name": "isPermissionless",
              "type": "bool"
            }
          ],
          "internalType": "struct Common.Pool[]",
          "name": "pools",
          "type": "tuple[]"
        }
      ],
      "stateMutability": "view",
      "type": "function"
    },
    {
      "inputs": [
        {
          "internalType": "uint256",
          "name": "epochId",
          "type": "uint256"
        },
        {
          "internalType": "address",
          "name": "user",
          "type": "address"
        }
      ],
      "name": "getProfile",
      "outputs": [
        {
          "components": [
            {
              "components": [
                {
                  "internalType": "uint256",
                  "name": "durOfChoice",
                  "type": "uint256"
                },
                {
                  "internalType": "uint256",
                  "name": "expInterest",
                  "type": "uint256"
                },
                {
                  "internalType": "uint256",
                  "name": "payDate",
                  "type": "uint256"
                },
                {
                  "internalType": "uint256",
                  "name": "turnTime",
                  "type": "uint256"
                },
                {
                  "internalType": "uint256",
                  "name": "loan",
                  "type": "uint256"
                },
                {
                  "internalType": "uint256",
                  "name": "colBals",
                  "type": "uint256"
                },
                {
                  "internalType": "address",
                  "name": "id",
                  "type": "address"
                }
              ],
              "internalType": "struct Common.Contributor",
              "name": "cData",
              "type": "tuple"
            },
            {
              "components": [
                {
                  "internalType": "bool",
                  "name": "admin",
                  "type": "bool"
                },
                {
                  "internalType": "bool",
                  "name": "member",
                  "type": "bool"
                }
              ],
              "internalType": "struct Common.Rank",
              "name": "rank",
              "type": "tuple"
            },
            {
              "internalType": "uint8",
              "name": "slot",
              "type": "uint8"
            }
          ],
          "internalType": "struct Common.ContributorData",
          "name": "",
          "type": "tuple"
        }
      ],
      "stateMutability": "view",
      "type": "function"
    },
    {
      "inputs": [
        {
          "internalType": "uint256",
          "name": "epochId",
          "type": "uint256"
        }
      ],
      "name": "getRouter",
      "outputs": [
        {
          "internalType": "string",
          "name": "",
          "type": "string"
        }
      ],
      "stateMutability": "view",
      "type": "function"
    },
    {
      "inputs": [
        {
          "internalType": "uint256",
          "name": "epochId",
          "type": "uint256"
        },
        {
          "internalType": "uint8",
          "name": "functionSelector",
          "type": "uint8"
        }
      ],
      "name": "isFunctionCallable",
      "outputs": [
        {
          "internalType": "string",
          "name": "_isCallable",
          "type": "string"
        }
      ],
      "stateMutability": "view",
      "type": "function"
    },
    {
      "inputs": [
        {
          "internalType": "uint256",
          "name": "epochId",
          "type": "uint256"
        }
      ],
      "name": "joinAPool",
      "outputs": [
        {
          "internalType": "bool",
          "name": "",
          "type": "bool"
        }
      ],
      "stateMutability": "nonpayable",
      "type": "function"
    },
    {
      "inputs": [
        {
          "internalType": "uint256",
          "name": "epochId",
          "type": "uint256"
        }
      ],
      "name": "liquidate",
      "outputs": [
        {
          "internalType": "bool",
          "name": "",
          "type": "bool"
        }
      ],
      "stateMutability": "nonpayable",
      "type": "function"
    },
    {
      "inputs": [],
      "name": "minContribution",
      "outputs": [
        {
          "internalType": "uint256",
          "name": "",
          "type": "uint256"
        }
      ],
      "stateMutability": "view",
      "type": "function"
    },
    {
      "inputs": [],
      "name": "ownershipManager",
      "outputs": [
        {
          "internalType": "address",
          "name": "",
          "type": "address"
        }
      ],
      "stateMutability": "view",
      "type": "function"
    },
    {
      "inputs": [],
      "name": "pause",
      "outputs": [],
      "stateMutability": "nonpayable",
      "type": "function"
    },
    {
      "inputs": [],
      "name": "paused",
      "outputs": [
        {
          "internalType": "bool",
          "name": "",
          "type": "bool"
        }
      ],
      "stateMutability": "view",
      "type": "function"
    },
    {
      "inputs": [
        {
          "internalType": "uint256",
          "name": "epochId",
          "type": "uint256"
        }
      ],
      "name": "payback",
      "outputs": [
        {
          "internalType": "bool",
          "name": "",
          "type": "bool"
        }
      ],
      "stateMutability": "nonpayable",
      "type": "function"
    },
    {
      "inputs": [
        {
          "internalType": "uint16",
          "name": "serviceRate",
          "type": "uint16"
        },
        {
          "internalType": "uint256",
          "name": "_minContribution",
          "type": "uint256"
        },
        {
          "internalType": "uint256",
          "name": "setUpFee",
          "type": "uint256"
        },
        {
          "internalType": "address",
          "name": "feeTo",
          "type": "address"
        },
        {
          "internalType": "address",
          "name": "assetClass",
          "type": "address"
        },
        {
          "internalType": "address",
          "name": "strategyManager",
          "type": "address"
        }
      ],
      "name": "performSetUp",
      "outputs": [],
      "stateMutability": "nonpayable",
      "type": "function"
    },
    {
      "inputs": [
        {
          "internalType": "uint256",
          "name": "",
          "type": "uint256"
        },
        {
          "internalType": "address",
          "name": "",
          "type": "address"
        }
      ],
      "name": "permits",
      "outputs": [
        {
          "internalType": "bool",
          "name": "",
          "type": "bool"
        }
      ],
      "stateMutability": "view",
      "type": "function"
    },
    {
      "inputs": [
        {
          "internalType": "uint256",
          "name": "epochId",
          "type": "uint256"
        }
      ],
      "name": "removeLiquidityPool",
      "outputs": [
        {
          "internalType": "bool",
          "name": "",
          "type": "bool"
        }
      ],
      "stateMutability": "nonpayable",
      "type": "function"
    },
    {
      "inputs": [
        {
          "internalType": "uint256",
          "name": "",
          "type": "uint256"
        }
      ],
      "name": "routers",
      "outputs": [
        {
          "internalType": "enum IFactory.Router",
          "name": "",
          "type": "uint8"
        }
      ],
      "stateMutability": "view",
      "type": "function"
    },
    {
      "inputs": [
        {
          "internalType": "address",
          "name": "feeTo",
          "type": "address"
        },
        {
          "internalType": "address",
          "name": "assetAdmin",
          "type": "address"
        },
        {
          "internalType": "uint16",
          "name": "serviceRate",
          "type": "uint16"
        },
        {
          "internalType": "uint256",
          "name": "_creationFee",
          "type": "uint256"
        }
      ],
      "name": "setContractData",
      "outputs": [
        {
          "internalType": "bool",
          "name": "",
          "type": "bool"
        }
      ],
      "stateMutability": "nonpayable",
      "type": "function"
    },
    {
      "inputs": [
        {
          "internalType": "uint256",
          "name": "minLiquidity",
          "type": "uint256"
        }
      ],
      "name": "setMinimumLiquidityPerProvider",
      "outputs": [],
      "stateMutability": "nonpayable",
      "type": "function"
    },
    {
      "inputs": [
        {
          "internalType": "address",
          "name": "newManager",
          "type": "address"
        }
      ],
      "name": "setOwnershipManager",
      "outputs": [
        {
          "internalType": "bool",
          "name": "",
          "type": "bool"
        }
      ],
      "stateMutability": "nonpayable",
      "type": "function"
    },
    {
      "inputs": [],
      "name": "unpause",
      "outputs": [],
      "stateMutability": "nonpayable",
      "type": "function"
    },
    {
      "inputs": [
        {
          "internalType": "uint256",
          "name": "epochId",
          "type": "uint256"
        }
      ],
      "name": "withdrawCollateral",
      "outputs": [
        {
          "internalType": "bool",
          "name": "",
          "type": "bool"
        }
      ],
      "stateMutability": "nonpayable",
      "type": "function"
    },
    {
      "inputs": [
        {
          "internalType": "uint256",
          "name": "value",
          "type": "uint256"
        }
      ],
      "name": "withdrawXFI",
      "outputs": [],
      "stateMutability": "nonpayable",
      "type": "function"
    },
    {
      "stateMutability": "payable",
      "type": "receive"
    }
  ],
  "transactionHash": "0xd0025d9c4e2c03e9a11da9033686523f82ef10f832a994110a2db8e045a408e8",
  "args": [
    10,
    1000000000000000,
    0,
    "0xD7c271d20c9E323336bFC843AEb8deC23B346352",
    "0x1a375D2aEF1370B306B4aCc9d930e3C2defaBF9c",
    "0x8B024493A376A38455d3caAfF2b7D77C3Bf9B2c6",
    "0xe09e23F8a8032BB39326098802c970f9b48D726C"
  ],
  "numDeployments": 3,
  "solcInputHash": "d2333d4e387f72548426130ecdc9f14f",
  "bytecode": "0x60806040523480156200001157600080fd5b506040516200521c3803806200521c833981016040819052620000349162000105565b600080546001600160a81b0319166001600160a01b039283161790556001600355600f95909555604080516080810182529386168085529286166020850181905261ffff90971690840181905294166060909201829052600480546001600160a01b0319908116909217905560058054740100000000000000000000000000000000000000009095026001600160b01b031990951690951793909317909355600680549092169092179055600e5562000191565b80516001600160a01b03811681146200010057600080fd5b919050565b600080600080600080600060e0888a0312156200012157600080fd5b875161ffff811681146200013457600080fd5b602089015160408a0151919850965094506200015360608901620000e8565b93506200016360808901620000e8565b92506200017360a08901620000e8565b91506200018360c08901620000e8565b905092959891949750929550565b61507b80620001a16000396000f3fe6080604052600436106101e75760003560e01c80639501a2b411610102578063b88a391511610095578063dce0b4e411610064578063dce0b4e4146106ba578063dde665b3146106d0578063f09734ec146106f0578063f6c8e2441461071057600080fd5b8063b88a391514610615578063be24cff81461064d578063c4933c501461066d578063d21c87ad1461068d57600080fd5b8063a846c2fd116100d1578063a846c2fd146105aa578063aaffadf3146105ca578063b404763f146105e0578063b45ea91c146105f357600080fd5b80639501a2b41461048b578063a4424cf4146104ab578063a68b91ab146104cb578063a73934761461058a57600080fd5b80634662ecbe1161017a5780636112fe2e116101495780636112fe2e146103fd57806361737d621461041d5780637b3ce2151461043d5780638456cb591461047657600080fd5b80634662ecbe14610343578063490adbaf146103665780634e9c1118146103a15780635c975abb146103de57600080fd5b80631d42e0d5116101b65780631d42e0d5146102b45780633f4ba83a146102e15780633fd97927146102f6578063415f12401461032357600080fd5b80630e22d318146101f3578063184e495f146102155780631a055c1a1461024a5780631c4df1f91461027957600080fd5b366101ee57005b600080fd5b3480156101ff57600080fd5b5061021361020e36600461466d565b610730565b005b34801561022157600080fd5b5061023561023036600461466d565b61081a565b60405190151581526020015b60405180910390f35b34801561025657600080fd5b5061026a61026536600461466d565b610860565b604051610241939291906146d0565b34801561028557600080fd5b50610235610294366004614719565b600160209081526000928352604080842090915290825290205460ff1681565b3480156102c057600080fd5b506102d46102cf36600461475a565b610890565b6040516102419190614786565b3480156102ed57600080fd5b5061021361092d565b34801561030257600080fd5b50610316610311366004614719565b610a79565b60405161024191906147d5565b34801561032f57600080fd5b5061023561033e36600461466d565b610a8d565b34801561034f57600080fd5b50610358610b18565b604051908152602001610241565b34801561037257600080fd5b5061038661038136600461466d565b610b3d565b60408051825181526020928301519281019290925201610241565b3480156103ad57600080fd5b506103d16103bc36600461466d565b60106020526000908152604090205460ff1681565b604051610241919061483b565b3480156103ea57600080fd5b50600054600160a01b900460ff16610235565b34801561040957600080fd5b5061023561041836600461466d565b610b6f565b34801561042957600080fd5b5061023561043836600461484e565b610c55565b34801561044957600080fd5b5061045d61045836600461466d565b610d73565b6040805192835262ffffff909116602083015201610241565b34801561048257600080fd5b50610213610dcd565b34801561049757600080fd5b506102136104a636600461466d565b610f05565b3480156104b757600080fd5b506102d46104c636600461466d565b6110d9565b3480156104d757600080fd5b5061054560408051608081018252600080825260208201819052918101829052606081019190915250604080516080810182526004546001600160a01b0390811682526005548082166020840152600160a01b900461ffff1692820192909252600654909116606082015290565b604051610241919081516001600160a01b03908116825260208084015182169083015260408084015161ffff1690830152606092830151169181019190915260800190565b34801561059657600080fd5b506102356105a5366004614890565b611165565b3480156105b657600080fd5b506102356105c536600461466d565b611211565b3480156105d657600080fd5b50610358600f5481565b6102356105ee36600461475a565b6112ce565b3480156105ff57600080fd5b5061060861138a565b60405161024191906149c7565b34801561062157600080fd5b50600054610635906001600160a01b031681565b6040516001600160a01b039091168152602001610241565b34801561065957600080fd5b5061023561066836600461466d565b61139b565b34801561067957600080fd5b50610235610688366004614a2c565b61140d565b34801561069957600080fd5b506106ad6106a836600461466d565b611429565b6040516102419190614b40565b3480156106c657600080fd5b50610358600e5481565b3480156106dc57600080fd5b506102136106eb366004614b4f565b611448565b3480156106fc57600080fd5b5061035861070b366004614719565b6115ad565b34801561071c57600080fd5b5061023561072b366004614baf565b6115d1565b604051806060016040528060368152602001614f7c603691396000546001600160a01b03168061077b5760405162461bcd60e51b815260040161077290614bfe565b60405180910390fd5b6001600160a01b038116632f54bf6e336040516001600160e01b031960e084901b1681526001600160a01b039091166004820152602401602060405180830381865afa1580156107cf573d6000803e3d6000fd5b505050506040513d601f19601f820116820180604052508101906107f39190614c35565b82906108125760405162461bcd60e51b81526004016107729190614786565b505050600f55565b6000816108286004826116d5565b610856836000808681526010602052604090205460ff16600181111561085057610850614815565b1461172b565b5060019392505050565b6108686144bc565b600080836108776004826116d5565b610882600486611791565b935093509350509193909250565b606060038260ff1611156108bc57604051631a5ab9f960e21b815260ff83166004820152602401610772565b6108da838360ff1660038111156108d5576108d5614815565b611810565b61090257604051806040016040528060068152602001651313d0d2d15160d21b815250610924565b6040518060400160405280600881526020016715539313d0d2d15160c21b8152505b90505b92915050565b60408051808201909152601f81527f5061757361626c653a204f6e6c794f776e65722063616e20756e70617573650060208201526000546001600160a01b03168061098a5760405162461bcd60e51b815260040161077290614bfe565b6001600160a01b038116632f54bf6e336040516001600160e01b031960e084901b1681526001600160a01b039091166004820152602401602060405180830381865afa1580156109de573d6000803e3d6000fd5b505050506040513d601f19601f82011682018060405250810190610a029190614c35565b8290610a215760405162461bcd60e51b81526004016107729190614786565b50610a2a61185d565b6000805460ff60a01b191690557f5db9ee0a495bf2e6ff9c91a7834c1ba4fdd244a5e8aa4e537bd38aeae4b073aa335b6040516001600160a01b03909116815260200160405180910390a15050565b610a81614502565b61092460048484611889565b6000610a97611964565b81610aa36004826116d5565b7f4074bcc038148d768bb857ba9b782a2b3549c7a81e4d2225b1fa313e9ab40445610afa604051806060016040528086815260200161198f8152602001611a4a815250611ad26004611b089092919063ffffffff16565b604051610b079190614c57565b60405180910390a150600192915050565b600d546000908015610b3457610b2f600182614cba565b610b37565b60005b91505090565b604080518082019091526000808252602082015281610b5d6004826116d5565b610b68600484611c62565b9392505050565b600081610b7d6004826116d5565b82600333610ba5565b604051634a7145f960e01b815260ff9091166004820152602401610772565b60008381526001602090815260408083206001600160a01b038516845290915290205460ff16610c175760405162461bcd60e51b815260206004820152601a60248201527f46756e6348616e646c65723a204e6f74205065726d69747465640000000000006044820152606401610772565b610c22600487611d1e565b6001945060035b826003811115610c3b57610c3b614815565b03610c4c57610c4c81846000611ad2565b50505050919050565b60408051808201909152601881527f4f6e6c794f776e65723a204e6f74207065726d697474656400000000000000006020820152600080549091906001600160a01b031680610cb65760405162461bcd60e51b815260040161077290614bfe565b6001600160a01b038116632f54bf6e336040516001600160e01b031960e084901b1681526001600160a01b039091166004820152602401602060405180830381865afa158015610d0a573d6000803e3d6000fd5b505050506040513d601f19601f82011682018060405250810190610d2e9190614c35565b8290610d4d5760405162461bcd60e51b81526004016107729190614786565b50600080546001600160a01b0319166001600160a01b0386161790555060019392505050565b60008082610d826004826116d5565b6000610d8f600486611e30565b9050610dbc8160200151606001516000836000015160400151610db76706f05b59d3b2000090565b611f41565b905160400151909350915050915091565b60408051808201909152601d81527f5061757361626c653a204f6e6c794f776e65722063616e20706175736500000060208201526000546001600160a01b031680610e2a5760405162461bcd60e51b815260040161077290614bfe565b6001600160a01b038116632f54bf6e336040516001600160e01b031960e084901b1681526001600160a01b039091166004820152602401602060405180830381865afa158015610e7e573d6000803e3d6000fd5b505050506040513d601f19601f82011682018060405250810190610ea29190614c35565b8290610ec15760405162461bcd60e51b81526004016107729190614786565b50610eca611964565b6000805460ff60a01b1916600160a01b1790557f62e78cea01bee320cd4e420270b5ea74000d11b0c9f74754ebdbfc544b05a258610a5a3390565b604051806060016040528060238152602001614fb2602391396000546001600160a01b031680610f475760405162461bcd60e51b815260040161077290614bfe565b6001600160a01b038116632f54bf6e336040516001600160e01b031960e084901b1681526001600160a01b039091166004820152602401602060405180830381865afa158015610f9b573d6000803e3d6000fd5b505050506040513d601f19601f82011682018060405250810190610fbf9190614c35565b8290610fde5760405162461bcd60e51b81526004016107729190614786565b50600083118015610ff0575030318311155b61103c5760405162461bcd60e51b815260206004820152601860248201527f56616c75652069732030207c7c20302062616c616c6e636500000000000000006044820152606401610772565b6004546040516000916001600160a01b03169085908381818185875af1925050503d8060008114611089576040519150601f19603f3d011682016040523d82523d6000602084013e61108e565b606091505b50509050806110d35760405162461bcd60e51b815260206004820152601160248201527015da5d1a191c985dd85b0811985a5b1959607a1b6044820152606401610772565b50505050565b6060816110e76004826116d5565b60008381526010602052604081205460ff16600181111561110a5761110a614815565b14611139576040518060400160405280600c81526020016b141154935254d4d253d3915160a21b815250610b68565b505060408051808201909152600e81526d5045524d495353494f4e4c45535360901b6020820152919050565b6040805160018082528183019092526000918291829160208083019080368337019050509050338160008151811061119f5761119f614ccd565b60200260200101906001600160a01b031690816001600160a01b03168152505081601060006111d48c8c8c8c8c8c8a8c611f5d565b81526020810191909152604001600020805460ff1916600183818111156111fd576111fd614815565b021790555060019998505050505050505050565b600061121b611964565b816112276004826116d5565b826002336112358383611810565b61124b57816003811115610b8657610b86614815565b7fe98fa365cb6401b5f825bbffe3c731fb23995035093682995822250cceef041c6112ae60405180608001604052808981526020016112873390565b6001600160a01b0316815261198f6020820152611a4a604090910152600490611ad261218f565b6040516112bb9190614c57565b60405180910390a1600194506003610c29565b60006112d8611964565b826112e46004826116d5565b836001336112f28383611810565b61130857816003811115610b8657610b86614815565b7f36713b5baef08bdb9cb56e6bedaa2e9a878c75f599770d308dd8d37f64e8f7836113426004893460ff8b1661198f611a4a611f3561242a565b60405161134f9190614c57565b60405180910390a160019450600382600381111561136f5761136f614815565b036113805761138081846000611ad2565b5050505092915050565b606061139660046125c3565b905090565b60006113a5611964565b816113b16004826116d5565b826000336113bf8383611810565b6113d557816003811115610b8657610b86614815565b61140486600160008981526010602052604090205460ff1660018111156113fe576113fe614815565b146126ff565b94506003610c29565b8051600090600190816010846111d48c858d8d8d8d8d8a611f5d565b611431614548565b8161143d6004826116d5565b610b68600484611e30565b604051806060016040528060248152602001614ffc602491396000546001600160a01b03168061148a5760405162461bcd60e51b815260040161077290614bfe565b6001600160a01b038116632f54bf6e336040516001600160e01b031960e084901b1681526001600160a01b039091166004820152602401602060405180830381865afa1580156114de573d6000803e3d6000fd5b505050506040513d601f19601f820116820180604052508101906115029190614c35565b82906115215760405162461bcd60e51b81526004016107729190614786565b50600f879055604080516080810182526001600160a01b038088168083528188166020840181905261ffff8d169484018590529187166060909301839052600480546001600160a01b03199081169092179055600580546001600160b01b031916909217600160a01b90940293909317905560068054909216179055600e8690555b5050505050505050565b6000826115bb6004826116d5565b6115c76004858561275c565b91505b5092915050565b6000604051806060016040528060278152602001614fd5602791396000546001600160a01b0316806116155760405162461bcd60e51b815260040161077290614bfe565b6001600160a01b038116632f54bf6e336040516001600160e01b031960e084901b1681526001600160a01b039091166004820152602401602060405180830381865afa158015611669573d6000803e3d6000fd5b505050506040513d601f19601f8201168201806040525081019061168d9190614c35565b82906116ac5760405162461bcd60e51b81526004016107729190614786565b50600e546000036116bd57600e8490555b6116ca60048789886127bc565b979650505050505050565b806116e1836009015490565b116117275760405162461bcd60e51b815260206004820152601660248201527522b837b1b41024b2103430b9903737ba103132b3b4b760511b6044820152606401610772565b5050565b6000611735611964565b826117416004826116d5565b61175360048585611ad261198f612848565b506040518481527f79d50744e568d2dcbac1c613dc0f174be90b0121dbc73682de80b3c4ebc5d1e79060200160405180910390a15060019392505050565b6117996144bc565b60008060006117a88686611e30565b905060006117bf8787846040015160200151611889565b5160408101519091504211156117f057806117d8612ac8565b600001516117eb89898560c0015161275c565b611800565b846117f9612ac8565b6020015160005b9199909850909650945050505050565b60008281526002602052604081208183600381111561183157611831614815565b600381111561184257611842614815565b815260208101919091526040016000205460ff169392505050565b600054600160a01b900460ff1661188757604051638dfc202b60e01b815260040160405180910390fd5b565b611891614502565b60006118a1856007018486612b22565b905060405180606001604052808660060160008781526020019081526020016000208360ff16815481106118d7576118d7614ccd565b60009182526020918290206040805160e0810182526007909302909101805483526001810154838501526002810154918301919091526003810154606083015260048101546080830152600581015460a0830152600601546001600160a01b031660c082015282520161194e600888018787612b49565b81526020018260ff168152509150509392505050565b600054600160a01b900460ff16156118875760405163d93c066560e01b815260040160405180910390fd5b6000828152600260205260408120908260038111156119b0576119b0614815565b60038111156119c1576119c1614815565b815260208101919091526040016000205460ff1615611a2f576000828152600260205260408120818360038111156119fb576119fb614815565b6003811115611a0c57611a0c614815565b81526020810191909152604001600020805460ff19169115159190911790555050565b8060405163eba0330960e01b81526004016107729190614ce3565b600082815260026020526040812090826003811115611a6b57611a6b614815565b6003811115611a7c57611a7c614815565b815260208101919091526040016000205460ff16611ab75760008281526002602052604081206001918360038111156119fb576119fb614815565b80604051630a9c14a160e21b81526004016107729190614ce3565b60009182526001602090815260408084206001600160a01b03959095168452939052919020805460ff1916911515919091179055565b611b106145f8565b600080611b21868660000151611791565b5091509150611b606040518060400160405280600d81526020016c2737ba103232b330bab63a32b960991b815250821515612ba290919063ffffffff16565b84513390611b7090889083612bc1565b50855160009081526004880160205260409020600b0180546001600160a01b0319166001600160a01b038316179055855160c0840151611c0e918991611bbb90600784019083612b22565b8951600090815260088c016020908152604080832060c08b01516001600160a01b0316845282529182902082518084019093525460ff808216151584526101009091041615159082015285908890612cbe565b6116ca87604051806080016040528089600001518152602001846001600160a01b03168152602001896020015167ffffffffffffffff168152602001896040015167ffffffffffffffff168152508761218f565b60408051808201909152600080825260208201526000611c828484611e30565b60408051808201825281830180518301516001600160a01b03908116318352905180519084015193516370a0823160e01b81529382166004850152939450909260208401929116906370a0823190602401602060405180830381865afa158015611cf0573d6000803e3d6000fd5b505050506040513d601f19601f82011682018060405250810190611d149190614cf7565b9052949350505050565b60008181526006830160205260408120339190611d3f600786018486612b22565b60ff1681548110611d5257611d52614ccd565b906000526020600020906007020160050181905550611d718383611e30565b6040908101518101519051627b8a6760e11b8152600481018490526001600160a01b0383811660248301529091169062f714ce906044016020604051808303816000875af1158015611dc7573d6000803e3d6000fd5b505050506040513d601f19601f82011682018060405250810190611deb9190614c35565b611e2b5760405162461bcd60e51b815260206004820152601160248201527015da5d1a191c985dd85b0819985a5b1959607a1b6044820152606401610772565b505050565b611e38614548565b50600090815260049182016020908152604091829020825161014081018452815460a0808301918252600184015460c0840152600284015460e084015260038401546101008401529583015461012083015281528351948501845260058201548552600682015485840152600782015485850152600882015460608087019190915260098301546080808801919091528285019690965284518087018652600a8401546001600160a01b039081168252600b850154811695820195909552600c840154851681870152600d8401549094168482015293810192909252600e81015492820192909252600f9091015460ff1615159181019190915290565b6706f05b59d3b2000090565b6000611f54846012858589841515612df4565b95945050505050565b6000611f67611964565b600554604051634df48c7360e11b81526001600160a01b03808716600483015286921690639be918e690602401602060405180830381865afa158015611fb1573d6000803e3d6000fd5b505050506040513d601f19601f82011682018060405250810190611fd59190614c35565b611ffd57604051631e26fa1d60e11b81526001600160a01b0382166004820152602401610772565b60008084600181111561201257612012614815565b1490508061206357600185511161205e5760405162461bcd60e51b815260206004820152601060248201526f4d696e206f662032206d656d6265727360801b6044820152606401610772565b6120b6565b60018a60ff16116120b65760405162461bcd60e51b815260206004820152601960248201527f526f757465723a2051756f72756d20697320696e76616c6964000000000000006044820152606401610772565b60006040518060e001604052808d61ffff1681526020018c60ff1681526020018b61ffff1681526020018a62ffffff168152602001898152602001878152602001886001600160a01b03168152509050600082156121215761211c600483611a4a612ebe565b612142565b60408051808201909152828152611a4a602082015261214290600490612fff565b90507f1a643fbdc06eeae35ab359b114521f1e3e9e6d28e6cbe54896827162fd1fdd78816040516121739190614d10565b60405180910390a1604001519c9b505050505050505050505050565b6121976145f8565b60006121a7858560000151611e30565b905060006121be868660000151876020015161275c565b604080518082019091526007815266139bc81919589d60ca1b60208201529091506121ec9082151590612ba2565b84516000908152600480880160209081526040808420815161014081018352815460a0808301918252600184015460c0840152600284015460e084015260038401546101008401529583015461012083015281528251948501835260058201548552600682015485850152600782015485840152600882015460608087019190915260098301546080808801919091528286019690965283518087018552600a8401546001600160a01b039081168252600b850154811696820196909652600c840154861681860152600d8401549095168582015292810193909352600e810154918301829052600f015460ff1615159282019290925251511490506122ff86600001516002886040015163ffffffff16565b8061233f576123158760040187600001516131a2565b61232c86600001516001886060015163ffffffff16565b825160200151865161233f9189916132bf565b61235e86602001518760000151612354612ac8565b5163ffffffff8916565b61237e8660200151846040015160000151848660400151604001516132fc565b604051806080016040528061239f8960070189602001518a60000151612b22565b60ff1681526020016123bd8960080189600001518a60200151612b49565b81526020016123d58989600001518a60200151611889565b6000015181526020016123ec898960000151611e30565b815250935061241f846040015160a00151876000015160008560008b6020015189604001516040015160008960006133c3565b505050509392505050565b6124326145f8565b6124418760018663ffffffff16565b6124508760028563ffffffff16565b600061245c8989611e30565b805151606082015191925090036124865760405163d77e83a360e01b815260040160405180910390fd5b6124938960040189613452565b6124f460405180604001604052806011815260200170506f6f6c206e6f7420636f6d706c65746560781b8152506124e383600001516000015184602001516040015161347890919063ffffffff16565b602084015160600151101590612ba2565b6125b6896040518060e0016040528061250c8a613484565b62ffffff1681526020018c60060160008d81526020019081526020016000208560000151602001518154811061254457612544614ccd565b6000918252602091829020600660079092020101546001600160a01b031682528181018d905260018e015490860151606001516040909201916125929161ffff600160a01b90910416613496565b81526020018a81526020016125a98763ffffffff16565b81526020018490526134a2565b9998505050505050505050565b606081600901805480602002602001604051908101604052809291908181526020016000905b828210156126f4576000848152602090819020604080516101408101825260108602909201805460a080850191825260018084015460c0870152600284015460e0870152600384015461010087015260048401546101208701529185528351908101845260058301548152600683015481870152600783015481850152600883015460608083019190915260098401546080808401919091528688019290925284518083018652600a8501546001600160a01b039081168252600b8601548116828a0152600c860154811682880152600d860154168183015294860194909452600e83015493850193909352600f9091015460ff1615159183019190915290835290920191016125e9565b505050509050919050565b60007f6ed82fcb42f0e90bc946acb8d93f6802a7fef5932dc40bbcfbebb94f0f336047610afa6040518060800160405280868152602001851515815260200161198f8152602001611a4a815250600461375690919063ffffffff16565b6000806127698585611e30565b90506000612778868686611889565b6000015190506127b26127a761279983606001516127934290565b90613902565b602080860151015190613478565b60808301519061390e565b9695505050505050565b60006001600160a01b038416156127eb576001850180546001600160a01b0319166001600160a01b0386161790555b6001600160a01b038316156128145784546001600160a01b0319166001600160a01b0384161785555b61ffff828116101561283d5760018501805461ffff60a01b1916600160a01b61ffff8516021790555b506001949350505050565b600985015460009085106128925760405162461bcd60e51b8152602060048201526011602482015270125b9d985b1a5908195c1bd8da081b1259607a1b6044820152606401610772565b600061289e8787611e30565b9050336128af60088901888361391a565b60006128b9612ac8565b9050861561293f57604080518082018252601f81527f466163746f72794c6962202d205075623a2043616e6e6f742063616e63656c0060208083019190915260008b815260068d01909152919091205461291891600190911490612ba2565b602080840151604090810151600090815260058c019092529020805460ff1916905561298b565b60408051808201825260208082527f466163746f72794c6962202d20507269763a2043616e6e6f742063616e63656c818301528501519182015160609092015161298b92101590612ba2565b8860090188815481106129a0576129a0614ccd565b600091825260208220601090910201818155600181018290556002810182905560038101829055600481018290556005810182905560068101829055600781018290556008810182905560098101829055600a810180546001600160a01b0319908116909155600b8201805482169055600c8201805482169055600d820180549091169055600e810191909155600f01805460ff19169055612a406144bc565b600089815260048b016020526040812055612a7060068b01828b612a6860078f018883612b22565b60ff16613983565b612a7f8960008863ffffffff16565b612a8f838a60018a63ffffffff16565b612ab98460200151604001518a6000806000888a604001516040015160008a6020015160016133c3565b50979998505050505050505050565b6040805160a081018252600080825260208201819052918101829052606081018290526080810191909152506040805160a08101825260018082526000602083018190529282018390526060820152608081019190915290565b6001600160a01b039091166000908152602092835260408082209282529190925290205490565b604080518082018252600080825260209182018190529384529384528083206001600160a01b039290921683529083529081902081518083019092525460ff808216151583526101009091041615159181019190915290565b8082611e2b5760405162461bcd60e51b81526004016107729190614786565b612bc96144bc565b60008381526006850160205260409020612be7600786018486612b22565b60ff1681548110612bfa57612bfa614ccd565b600091825260208083206040805160e081018252600794909402909101805484526001810154848401526002810154848301526003810154606085015260048101546080850152600581015460a0850152600601546001600160a01b0390811660c085015281518083018352601781527f436f6e7472696275746f722069732061206d656d6265720000000000000000008185015288865260088a0184528286209188168652925290922054909250610b689161010090910460ff16151590613a21565b6001600160a01b03831660c083015281612ce060068801828860ff8916613983565b6001600160a01b03848116600081815260078a01602090815260408083208b8452825280832060ff8b16905560088c01808352818420948452848352818420885181548a86015115156101000261ff00199215159290921661ffff1991821617919091179091558c855290835260c089015190951683529290522080549091169055612d6c8787611e30565b60409081015181015160c08501519151636d6ccde160e01b8152600481018990526001600160a01b0387811660248301529283166044820152911690636d6ccde1906064016020604051808303816000875af1158015612dd0573d6000803e3d6000fd5b505050506040513d601f19601f820116820180604052508101906115a39190614c35565b6000606462ffffff8616811115612e255760405163a371850b60e01b815262ffffff87166004820152602401610772565b6000612e3762ffffff88166064613478565b90506000612e5a87612e54612e4d8c600a614e3b565b8990613478565b90613a41565b9050612e74612710612e548365ffffffffffff8616613478565b93508415612eb157612eb1848b10156040518060400160405280601081526020016f496e73756666696369656e742058464960801b815250612ba2565b5050509695505050505050565b612ec661464d565b6000612ed0612ac8565b90506000612edd86613a4d565b905060008560a00151600081518110612ef857612ef8614ccd565b60209081029190910101516002880154909150600090612f229083906001600160a01b0316613a5a565b604080518082018252600c81526b105b5bdd5b9d08195e1a5cdd60a21b60208083019190915260808b0151600090815260058d019091529190912054919250612f709160ff16151590613a21565b83516080880151600090815260058a0160205260408120805460ff1916921515929092179091558451612fae908a908a908a90869088908a90613afb565b9050600080612fcc8b8960400151878a600001518b60000151613c72565b604080516080810182529586526020860191909152840196909652505060ff909316606084015250909695505050505050565b61300761464d565b6000613011612ac8565b9050600061301e85613a4d565b90506000846000015160a0015160008151811061303d5761303d614ccd565b602090810291909101015160028701549091506000906130679083906001600160a01b0316613a5a565b604085015190915060ff165b865160a001515181101561319757846040015160ff1681036130f75760006130ac8989600001518a6020015186888a8c60200151613afb565b90506000806130ca8b8a60400151888b600001518c60000151613c72565b604080516080810182529586526020860191909152840188905260ff1660608401525090965061318f9050565b6000876000015160a00151828151811061311357613113614ccd565b602002602001015190506131726040518060400160405280601381526020017241646d696e2073706f7474656420747769636560681b815250856001600160a01b0316836001600160a01b031614151515612ba290919063ffffffff16565b61318b8988604001518389602001518a60000151613c72565b5050505b600101613073565b505050505092915050565b60008181526020838152604091829020825161014081018452815460a0808301918252600184015460c0840152600284015460e08401526003840154610100840152600484015461012084015290825284519081018552600583015481526006830154818501526007830154818601526008830154606080830191909152600984015460808084019190915283860192835286518082018852600a8601546001600160a01b039081168252600b870154811697820197909752600c860154871681890152600d8601549096168683015283870195909552600e84015490830152600f9092015460ff1615159281019290925281515190519092015190916132a99190613478565b6000928352602093909352506040902060080155565b42600082815260068501602052604090208054849081106132e2576132e2614ccd565b906000526020600020906007020160030181905550505050565b6040516323b872dd60e01b81526001600160a01b0385811660048301528281166024830152604482018490528416906323b872dd906064016020604051808303816000875af1158015613353573d6000803e3d6000fd5b505050506040513d601f19601f820116820180604052508101906133779190614c35565b6110d35760405162461bcd60e51b815260206004820152601b60248201527f466163746f72794c69623a205472616e73666572206661696c656400000000006044820152606401610772565b6000846001600160a01b03166352784664888d8c8c8f8c8b8b8b6040518a63ffffffff1660e01b8152600401613400989796959493929190614e4a565b60206040518083038185885af115801561341e573d6000803e3d6000fd5b50505050506040513d601f19601f820116820180604052508101906134439190614cf7565b9b9a5050505050505050505050565b6000818152602083905260408120600e0180549161346f83614ea2565b91905055505050565b60006109248284614ebb565b600061092761ffff8316610e10613478565b60006109248383613da3565b6134aa6145f8565b60006134b4612ac8565b90506134c7846004018460400151613e4a565b602083015160408401516000906134e090879084611889565b60408082015160ff16865281519086015280516060015190915061350690610e10614ed2565b4211156135615760208501516001600160a01b0316336001600160a01b03161461355c5733915061353c86866040015184613e72565b506135568682604001518760200151858960400151613f5e565b60ff1684525b6135ba565b805160c001516001600160a01b0316336001600160a01b0316146135ba5760405162461bcd60e51b815260206004820152601060248201526f139bdd081d1a1948195e1c1958dd195960821b6044820152606401610772565b60c0850151602081015160600151608087015191516040015160a08801516135e3939190611f41565b50604085810180516000908152600489016020819052929020600b0180546001600160a01b0319166001600160a01b038616179055516136239190613fbf565b6040805160e08101909152855162ffffff16815260c086015180516080810151606091820151895160209485015190930151938501936136669390929190613fdc565b604001518152602001613689876000015162ffffff166136834290565b9061390e565b8152602001826000015160600151610e106136a49190614ed2565b81526020016136ff8760c0015160200151606001518860400151896060015160008b60800151898d60c0015160400151604001518f60000160000160009054906101000a90046001600160a01b03168d6020015160016133c3565b8152608087015160208201526001600160a01b03841660409182015285810182905286015185516137399260068a0192909160ff16613983565b613747868660400151611e30565b60608501525091949350505050565b61375e6145f8565b600061376e848460000151611e30565b9050600061377a612ac8565b905083602001511561379e57835161379490869033613e72565b604084015261380c565b815151845160009081526006870160205260409020546137e191116040518060400160405280600a815260200169141d5888199a5b1b195960b21b815250612ba2565b83516137ef90869033612bc1565b604084015283516138099086903360208501518551613c72565b50505b8160200151604001518560040160008660000151815260200190815260200160002060050160030160008282546138439190614ed2565b90915550508351600090613858908790611e30565b9050613863816140fd565b156138a95761387f85600001516000876040015163ffffffff16565b61389685600001516001876060015163ffffffff16565b80516020015185516138a99188916132bf565b6138c7336040808601518051602088015183015191909201516132fc565b6060840181905284516138df90600888019033612b49565b60208501526138f360078701338751612b22565b60ff1684525091949350505050565b60006109248284614cba565b60006109248284614ed2565b6000828152602084815260408083206001600160a01b038516845290915290205460ff16611e2b5760405162461bcd60e51b81526020600482015260166024820152752330b1ba37b93ca634b11d1027b7363c9030b236b4b760511b6044820152606401610772565b828460008481526020019081526020016000208261ffff16815481106139ab576139ab614ccd565b600091825260209182902083516007929092020190815590820151600182015560408201516002820155606082015160038201556080820151600482015560a0820151600582015560c090910151600690910180546001600160a01b0319166001600160a01b0390921691909117905550505050565b808215611e2b5760405162461bcd60e51b81526004016107729190614786565b60006109248284614efb565b6000610927826009015490565b6000613a66828461412b565b90506001600160a01b038116613ae557604051637316bcd160e01b81526001600160a01b038481166004830152831690637316bcd1906024016020604051808303816000875af1158015613abe573d6000803e3d6000fd5b505050506040513d601f19601f82011682018060405250810190613ae29190614f0f565b90505b6001600160a01b03811661092757610927614f2c565b613b03614548565b6000613b0d612ac8565b9050613b1d89858a848a88614199565b613b2c8460008963ffffffff16565b613b368985611e30565b9150613b4b86836040015160000151866143f7565b613b5f858960c001518a60800151896132fc565b6009808a0180546001808201835560009283526020928390208651805160109094029091019283558084015191830191909155604080820151600284015560608083015160038501556080928301516004850155848801518051600586015580860151600686015580830151600786015580820151600886015583015195840195909555808701518051600a850180546001600160a01b03199081166001600160a01b039384161790915595820151600b86018054881691831691909117905591810151600c850180548716918416919091179055850151600d8401805490951691161790925591840151600e830155830151600f909101805460ff191691151591909117905550979650505050505050565b6000613c7c6144bc565b60008681526006880160205260409020546001600160a01b038616600090815260078901602090815260408083208a8452909152902060ff8216905591506040805180820182528515158152841515602080830191825260008a815260088c0182528481206001600160a01b038b811680845291845286832095518654955161ffff1990961690151561ff00191617610100951515959095029490941790945560c086019384528a81526006808d0183528582208054600181810183559184529284902088516007909402019283559287015192820192909255938501516002850155606085015160038501556080850151600485015560a0850151600585015591519290910180546001600160a01b031916929091169190911790559550959350505050565b600061271061ffff83161580613db7575083155b15613dc6576000915050610927565b613e0361ffff80168461ffff161060405180604001604052806011815260200170496e746572657374206f766572666c6f7760781b815250612ba2565b613e2b8161ffff16851160405180606001604052806026815260200161502060269139612ba2565b6115c78161ffff16612e548561ffff168761347890919063ffffffff16565b613e52612ac8565b6040908101516000928352602093909352902060ff909116600890910155565b613e7a6144bc565b60008381526006850160205260409020613e98600786018486612b22565b60ff1681548110613eab57613eab614ccd565b600091825260208083206040805160e081018252600794909402909101805484526001810154848401526002810154848301526003810154606085015260048101546080850152600581015460a0850152600601546001600160a01b0390811660c085015281518083018352600c81526b2737ba10209026b2b6b132b960a11b8185015288865260088a0184528286209188168652925290922054909250610b689161010090910460ff16151590612ba2565b600080613f6c878486611889565b6040908101516001600160a01b03968716600090815260079099016020818152838b20878c528152838b2060ff938416905596909716895295855280882093885292909352509093209082169055919050565b600081815260208390526040812060010180549161346f83614ea2565b61400060405180606001604052806000815260200160008152602001600081525090565b61402460405180606001604052806000815260200160008152602001600081525090565b61409162278d0062ffffff86161180159061404c575061404a62ffffff8516603c614487565b155b8562ffffff168562ffffff1611158015614073575061407162ffffff8716603c614487565b155b604051806060016040528060258152602001614f5760259139614493565b61409b8686613da3565b80825215611f545780516140bb9062ffffff861690612e54906001613478565b602082015262ffffff808416908516116140d65780516140ef565b80516140ef9062ffffff80871691612e54918716613478565b604082015295945050505050565b80515160208201516040015160009182916141189190614ebb565b6020909301516060015190921492915050565b60405163f8806a1360e01b81526001600160a01b0382811660048301526000919084169063f8806a1390602401602060405180830381865afa158015614175573d6000803e3d6000fd5b505050506040513d601f19601f820116820180604052508101906109249190614f0f565b60006141a88560400151613484565b905060006141dc866000015183846141d48a6020015160ff168b6080015161347890919063ffffffff16565b929190613fdc565b90506040518060a001604052806040518060a00160405280896020015160ff168152602001886040015160ff168152602001896060015162ffffff1681526020018562ffffff168152602001896000015161ffff1681525081526020016040518060a00160405280846000015181526020018460200151815260200189608001518152602001896080015181526020018a815250815260200160405180608001604052808960c001516001600160a01b0316815260200188608001516001600160a01b03168152602001876001600160a01b031681526020018960a001516000815181106142cc576142cc614ccd565b6020908102919091018101516001600160a01b0390811690925291835260409889015160ff16838301529515159188019190915260009889526004998a01815297869020815180518255808a0151600183015580880151600283015560608082015160038401556080918201519b83019b909b55828a015180516005840155808b01516006840155808901516007840155808c015160088401558101516009830155828801518051600a840180546001600160a01b0319908116928a169290921790559a810151600b840180548d1691891691909117905597880151600c830180548c16918816919091179055968a0151600d82018054909a16951694909417909755505094840151600e8601555090910151600f909201805460ff19169215159290921790915550565b6040516301df211960e51b8152600481018290526001600160a01b038381166024830152841690633be42320906044016020604051808303816000875af1158015614446573d6000803e3d6000fd5b505050506040513d601f19601f8201168201806040525081019061446a9190614c35565b611e2b5760405163015cfd8160e31b815260040160405180910390fd5b60006109248284614f42565b82801561449d5750815b81906110d35760405162461bcd60e51b81526004016107729190614786565b6040518060e0016040528060008152602001600081526020016000815260200160008152602001600081526020016000815260200160006001600160a01b031681525090565b60405180606001604052806145156144bc565b815260200161453b60405180604001604052806000151581526020016000151581525090565b8152600060209091015290565b6040518060a001604052806145856040518060a0016040528060008152602001600081526020016000815260200160008152602001600081525090565b81526020016145bc6040518060a0016040528060008152602001600081526020016000815260200160008152602001600081525090565b8152604080516080810182526000808252602082810182905292820181905260608201529101905b815260006020820181905260409091015290565b6040518060800160405280600060ff16815260200161462e60405180604001604052806000151581526020016000151581525090565b815260200161463b6144bc565b8152602001614648614548565b905290565b6040518060800160405280614660614548565b81526020016145e46144bc565b60006020828403121561467f57600080fd5b5035919050565b805182526020808201519083015260408082015190830152606080820151908301526080808201519083015260a0808201519083015260c0908101516001600160a01b0316910152565b61012081016146df8286614686565b92151560e08201526101000152919050565b6001600160a01b038116811461470657600080fd5b50565b8035614714816146f1565b919050565b6000806040838503121561472c57600080fd5b82359150602083013561473e816146f1565b809150509250929050565b803560ff8116811461471457600080fd5b6000806040838503121561476d57600080fd5b8235915061477d60208401614749565b90509250929050565b60006020808352835180602085015260005b818110156147b457858101830151858201604001528201614798565b506000604082860101526040601f19601f8301168501019250505092915050565b6000610140820190506147e9828451614686565b6020838101518051151560e08501520151151561010083015260409092015160ff166101209091015290565b634e487b7160e01b600052602160045260246000fd5b6002811061470657614706614815565b602081016148488361482b565b91905290565b60006020828403121561486057600080fd5b8135610b68816146f1565b803561ffff8116811461471457600080fd5b803562ffffff8116811461471457600080fd5b60008060008060008060c087890312156148a957600080fd5b6148b28761486b565b95506148c060208801614749565b94506148ce6040880161486b565b93506148dc6060880161487d565b92506080870135915060a08701356148f3816146f1565b809150509295509295509295565b61493782825180518252602081015160208301526040810151604083015260608101516060830152608081015160808301525050565b602081810151805160a08501529081015160c0840152604081015160e0840152606081015161010084015260808101516101208401525060408181015180516001600160a01b03908116610140860152602082015181166101608601529181015182166101808501526060908101519091166101a08401528101516101c08301526080015115156101e090910152565b6020808252825182820181905260009190848201906040850190845b81811015614a0a576149f6838551614901565b9284019261020092909201916001016149e3565b50909695505050505050565b634e487b7160e01b600052604160045260246000fd5b60008060008060008060c08789031215614a4557600080fd5b614a4e8761486b565b95506020614a5d81890161486b565b9550614a6b6040890161487d565b9450606088013593506080880135614a82816146f1565b925060a088013567ffffffffffffffff80821115614a9f57600080fd5b818a0191508a601f830112614ab357600080fd5b813581811115614ac557614ac5614a16565b8060051b604051601f19603f83011681018181108582111715614aea57614aea614a16565b60405291825284820192508381018501918d831115614b0857600080fd5b938501935b82851015614b2d57614b1e85614709565b84529385019392850192614b0d565b8096505050505050509295509295509295565b61020081016109278284614901565b60008060008060008060c08789031215614b6857600080fd5b614b718761486b565b955060208701359450604087013593506060870135614b8f816146f1565b92506080870135614b9f816146f1565b915060a08701356148f3816146f1565b60008060008060808587031215614bc557600080fd5b8435614bd0816146f1565b93506020850135614be0816146f1565b9250614bee6040860161486b565b9396929550929360600135925050565b6020808252601a908201527f4f6e6c794f776e65723a204d616e61676572206e6f7420736574000000000000604082015260600190565b600060208284031215614c4757600080fd5b81518015158114610b6857600080fd5b815160ff16815260208083015180511515828401529081015115156040830152610340820190506040830151614c906060840182614686565b5060608301516115ca610140840182614901565b634e487b7160e01b600052601160045260246000fd5b8181038181111561092757610927614ca4565b634e487b7160e01b600052603260045260246000fd5b602081016004831061484857614848614815565b600060208284031215614d0957600080fd5b5051919050565b600061032082019050614d24828451614901565b6020830151614d37610200840182614686565b5060408301516102e083015260609092015161ffff166103009091015290565b600181815b80851115614d92578160001904821115614d7857614d78614ca4565b80851615614d8557918102915b93841c9390800290614d5c565b509250929050565b600082614da957506001610927565b81614db657506000610927565b8160018114614dcc5760028114614dd657614df2565b6001915050610927565b60ff841115614de757614de7614ca4565b50506001821b610927565b5060208310610133831016604e8410600b8410161715614e15575081810a610927565b614e1f8383614d57565b8060001904821115614e3357614e33614ca4565b029392505050565b600061092460ff841683614d9a565b8881526020810188905260408101879052606081018690526001600160a01b038581166080830152841660a082015282151560c08201526101008101614e8f8361482b565b8260e08301529998505050505050505050565b600060018201614eb457614eb4614ca4565b5060010190565b808202811582820484141761092757610927614ca4565b8082018082111561092757610927614ca4565b634e487b7160e01b600052601260045260246000fd5b600082614f0a57614f0a614ee5565b500490565b600060208284031215614f2157600080fd5b8151610b68816146f1565b634e487b7160e01b600052600160045260246000fd5b600082614f5157614f51614ee5565b50069056fe5574696c733a2046756c6c447572206f72204475724f6643686f696365206f6572666c6f77466163746f7279202d207365744d696e696d756d4c697175696469747950657250726f7669646572206e6f74207065726d6974746564466163746f7279202d207769746864726177584649206e6f74207065726d6974746564466163746f7279202d20736574436f6e747261637444617461206e6f74207065726d6974746564466163746f7279202d20706572666f726d5365745570206e6f74207065726d69747465645072696e636970616c2073686f756c642062652067726561746572207468616e203130303030a2646970667358221220172aea3e34dbd40e6b28432f0645b188a24d511bd5a9a31e846abda76626e69d64736f6c63430008180033",
  "libraries": {
    "FactoryLib": "0xe87a05c8f11999EDA2cfB10f347ca7da94D34e58"
  },
  "devdoc": {
    "author": "Simplifinance - (Bobeu) ",
    "errors": {
      "EnforcedPause()": [
        {
          "details": "The operation failed because the contract is paused."
        }
      ],
      "ExpectedPause()": [
        {
          "details": "The operation failed because the contract is not paused."
        }
      ],
      "ReentrancyGuardReentrantCall()": [
        {
          "details": "Unauthorized reentrant call."
        }
      ]
    },
    "events": {
      "Paused(address)": {
        "details": "Emitted when the pause is triggered by `account`."
      },
      "Unpaused(address)": {
        "details": "Emitted when the pause is lifted by `account`."
      }
    },
    "kind": "dev",
    "methods": {
      "constructor": {
        "details": "Initializes state variables.",
        "params": {
          "assetClass": ": Asset manager contract.",
          "feeTo": ": Account to receive fees.",
          "minContribution": ": Minimum contribution amount.",
          "ownerShipManager": ": Accessibility manager contract",
          "serviceRate": ": Platform fee in %",
          "setUpFee": ": Amount to charge for setting a liquidity pool.",
          "strategyManager": ": Strategy manager contract."
        }
      },
      "createPermissionedPool(uint16,uint16,uint24,uint256,address,address[])": {
        "details": "Create permissioned pool See AbstractFactory.sol "
      },
      "createPermissionlessPool(uint16,uint8,uint16,uint24,uint256,address)": {
        "details": "Create permissionless See AbstractFactory.sol"
      },
      "enquireLiquidation(uint256)": {
        "details": "See FactoryLib.enquireLiquidation"
      },
      "epoches()": {
        "details": "Return current epoch.  This is also total epoches generated to date "
      },
      "getBalances(uint256)": {
        "details": "Returns both ERC20 and Native balances locked in an epoch",
        "params": {
          "epochId": ": Epoch Id"
        }
      },
      "getCollaterlQuote(uint256)": {
        "details": "Returns collaterl quote for the epoch.",
        "params": {
          "epochId": ": EpochId"
        },
        "returns": {
          "colCoverage": "Collateral coverage",
          "collateral": "Collateral"
        }
      },
      "getCurrentDebt(uint256,address)": {
        "params": {
          "epochId": ": Epoch Id",
          "target": ": Target user."
        }
      },
      "getFinance(uint256,uint8)": {
        "details": "Providers borrow from their pool provided the citeria are met.",
        "params": {
          "daysOfUseInHr": ": The time in hours the borrower wishes to retain the loan before paying back.",
          "epochId": ": Epoh Id user wants to borrow from. "
        }
      },
      "getPoolData(uint256)": {
        "details": "Returns a single pool for 'epochId'",
        "params": {
          "epochId": ": Epoch id."
        }
      },
      "getPoolFromAllEpoches()": {
        "details": "Returns pool from all epoched array "
      },
      "getProfile(uint256,address)": {
        "details": "Returns the profile of user",
        "params": {
          "epochId": ": Epoch Id",
          "user": ": User"
        }
      },
      "getRouter(uint256)": {
        "details": "Return the router for an epochId. "
      },
      "isFunctionCallable(uint256,uint8)": {
        "details": "Checks if function is invokable at this time",
        "params": {
          "functionSelector": ": Functions in the Router contracts are mapped to unsigned integer uint8                          i.e JoinBand -> 0 etc. Total callable functions are 4 in number which is why                          functionSelector can not exceed 4. "
        }
      },
      "joinAPool(uint256)": {
        "details": "See AbstractFactory.sol "
      },
      "liquidate(uint256)": {
        "details": "Liquidate defaulter. Note: The expected repayment time for last paid contributor must have passed. See FactoryLib.liquidate() for more details.",
        "params": {
          "epochId": ": Epoch Id"
        }
      },
      "pause()": {
        "details": "Triggers stopped state. Requirements: Only owner role can call. - The contract must not be paused."
      },
      "paused()": {
        "details": "Returns true if the contract is paused, and false otherwise."
      },
      "payback(uint256)": {
        "details": "Return borrowed fund.",
        "params": {
          "epochId": ": Pool number. See FactoryLib.payback()."
        }
      },
      "performSetUp(uint16,uint256,uint256,address,address,address)": {
        "details": "See _setUp() for doc."
      },
      "removeLiquidityPool(uint256)": {
        "details": "Remove liquidity pool",
        "params": {
          "epochId": ": Epoch/Poool id"
        }
      },
      "setContractData(address,address,uint16,uint256)": {
        "details": "Set state variables.",
        "params": {
          "assetAdmin": ": AssetAdmin contract.",
          "feeTo": ": Fee receiver.",
          "serviceRate": ": fee in %. - Only-owner function."
        }
      },
      "setMinimumLiquidityPerProvider(uint256)": {
        "details": "Updates minimum liquidity of a pool.   Note: Only Owner function.",
        "params": {
          "minLiquidity": ": Minimum contribution."
        }
      },
      "setOwnershipManager(address)": {
        "params": {
          "newManager": ": New manager address"
        }
      },
      "unpause()": {
        "details": "Returns to normal state. Requirements: - Only owner role can call. - The contract must be paused."
      },
      "withdrawCollateral(uint256)": {
        "details": "Withdraws Collateral balance if any",
        "params": {
          "epochId": ": Epoch Id"
        }
      }
    },
    "title": "Factory : Main contract",
    "version": 1
  },
  "userdoc": {
    "kind": "user",
    "methods": {
      "getCurrentDebt(uint256,address)": {
        "notice": "Returns the current debt of target user."
      },
      "getFinance(uint256,uint8)": {
        "notice": "Users can be members of multiple epoches. This enlarges the volume of funds they can access.  - This is a payable function since borrowers are required to stake XFI before they can access funds in epoches. - The contract must be in a usable state i.e not paused. - For the selected epoch, the getFinance() must already be unlocked. Unlocking  is automated soon as the required quorum for the epoch is achieved i.e the  numbers of providers equals the set quorum."
      },
      "permits(uint256,address)": {
        "notice": "Mapping of epochId to permit Permit is used to give instructions to the child contract who can withdraw from an epoch. Only one provider can withdraw at a time in an apoch."
      },
      "setOwnershipManager(address)": {
        "notice": "Set Ownership manager"
      }
    },
    "notice": "  A multi p2p lending and borrowing structure where liquidity providers are borrowers. We bring together users form different  parts of the world to form a liquidity synergy, where the pooled fund moved round them from the first to the last on the list in form of borrowed fund.The permissionless model allows users to create liquidity pool for anyone to participate while the  permissioned structure restricts participation only to the known members known as band.",
    "version": 1
  },
  "storageLayout": {
    "storage": [
      {
        "astId": 1558,
        "contract": "contracts/implementations/Factory.sol:Factory",
        "label": "ownershipManager",
        "offset": 0,
        "slot": "0",
        "type": "t_address"
      },
      {
        "astId": 1638,
        "contract": "contracts/implementations/Factory.sol:Factory",
        "label": "_paused",
        "offset": 20,
        "slot": "0",
        "type": "t_bool"
      },
      {
        "astId": 7375,
        "contract": "contracts/implementations/Factory.sol:Factory",
        "label": "permits",
        "offset": 0,
        "slot": "1",
        "type": "t_mapping(t_uint256,t_mapping(t_address,t_bool))"
      },
      {
        "astId": 7383,
        "contract": "contracts/implementations/Factory.sol:Factory",
        "label": "locker",
        "offset": 0,
        "slot": "2",
        "type": "t_mapping(t_uint256,t_mapping(t_enum(FuncTag)1765,t_bool))"
      },
      {
        "astId": 367,
        "contract": "contracts/implementations/Factory.sol:Factory",
        "label": "_status",
        "offset": 0,
        "slot": "3",
        "type": "t_uint256"
      },
      {
        "astId": 838,
        "contract": "contracts/implementations/Factory.sol:Factory",
        "label": "data",
        "offset": 0,
        "slot": "4",
        "type": "t_struct(Data)3862_storage"
      },
      {
        "astId": 840,
        "contract": "contracts/implementations/Factory.sol:Factory",
        "label": "creationFee",
        "offset": 0,
        "slot": "14",
        "type": "t_uint256"
      },
      {
        "astId": 842,
        "contract": "contracts/implementations/Factory.sol:Factory",
        "label": "minContribution",
        "offset": 0,
        "slot": "15",
        "type": "t_uint256"
      },
      {
        "astId": 2732,
        "contract": "contracts/implementations/Factory.sol:Factory",
        "label": "routers",
        "offset": 0,
        "slot": "16",
        "type": "t_mapping(t_uint256,t_enum(Router)2260)"
      }
    ],
    "types": {
      "t_address": {
        "encoding": "inplace",
        "label": "address",
        "numberOfBytes": "20"
      },
      "t_array(t_struct(Contributor)1784_storage)dyn_storage": {
        "base": "t_struct(Contributor)1784_storage",
        "encoding": "dynamic_array",
        "label": "struct Common.Contributor[]",
        "numberOfBytes": "32"
      },
      "t_array(t_struct(Pool)1804_storage)dyn_storage": {
        "base": "t_struct(Pool)1804_storage",
        "encoding": "dynamic_array",
        "label": "struct Common.Pool[]",
        "numberOfBytes": "32"
      },
      "t_bool": {
        "encoding": "inplace",
        "label": "bool",
        "numberOfBytes": "1"
      },
      "t_enum(FuncTag)1765": {
        "encoding": "inplace",
        "label": "enum Common.FuncTag",
        "numberOfBytes": "1"
      },
      "t_enum(Router)2260": {
        "encoding": "inplace",
        "label": "enum IFactory.Router",
        "numberOfBytes": "1"
      },
      "t_mapping(t_address,t_bool)": {
        "encoding": "mapping",
        "key": "t_address",
        "label": "mapping(address => bool)",
        "numberOfBytes": "32",
        "value": "t_bool"
      },
      "t_mapping(t_address,t_mapping(t_uint256,t_uint256))": {
        "encoding": "mapping",
        "key": "t_address",
        "label": "mapping(address => mapping(uint256 => uint256))",
        "numberOfBytes": "32",
        "value": "t_mapping(t_uint256,t_uint256)"
      },
      "t_mapping(t_address,t_struct(Rank)1789_storage)": {
        "encoding": "mapping",
        "key": "t_address",
        "label": "mapping(address => struct Common.Rank)",
        "numberOfBytes": "32",
        "value": "t_struct(Rank)1789_storage"
      },
      "t_mapping(t_enum(FuncTag)1765,t_bool)": {
        "encoding": "mapping",
        "key": "t_enum(FuncTag)1765",
        "label": "mapping(enum Common.FuncTag => bool)",
        "numberOfBytes": "32",
        "value": "t_bool"
      },
      "t_mapping(t_uint256,t_array(t_struct(Contributor)1784_storage)dyn_storage)": {
        "encoding": "mapping",
        "key": "t_uint256",
        "label": "mapping(uint256 => struct Common.Contributor[])",
        "numberOfBytes": "32",
        "value": "t_array(t_struct(Contributor)1784_storage)dyn_storage"
      },
      "t_mapping(t_uint256,t_bool)": {
        "encoding": "mapping",
        "key": "t_uint256",
        "label": "mapping(uint256 => bool)",
        "numberOfBytes": "32",
        "value": "t_bool"
      },
      "t_mapping(t_uint256,t_enum(Router)2260)": {
        "encoding": "mapping",
        "key": "t_uint256",
        "label": "mapping(uint256 => enum IFactory.Router)",
        "numberOfBytes": "32",
        "value": "t_enum(Router)2260"
      },
      "t_mapping(t_uint256,t_mapping(t_address,t_bool))": {
        "encoding": "mapping",
        "key": "t_uint256",
        "label": "mapping(uint256 => mapping(address => bool))",
        "numberOfBytes": "32",
        "value": "t_mapping(t_address,t_bool)"
      },
      "t_mapping(t_uint256,t_mapping(t_address,t_struct(Rank)1789_storage))": {
        "encoding": "mapping",
        "key": "t_uint256",
        "label": "mapping(uint256 => mapping(address => struct Common.Rank))",
        "numberOfBytes": "32",
        "value": "t_mapping(t_address,t_struct(Rank)1789_storage)"
      },
      "t_mapping(t_uint256,t_mapping(t_enum(FuncTag)1765,t_bool))": {
        "encoding": "mapping",
        "key": "t_uint256",
        "label": "mapping(uint256 => mapping(enum Common.FuncTag => bool))",
        "numberOfBytes": "32",
        "value": "t_mapping(t_enum(FuncTag)1765,t_bool)"
      },
      "t_mapping(t_uint256,t_struct(Pool)1804_storage)": {
        "encoding": "mapping",
        "key": "t_uint256",
        "label": "mapping(uint256 => struct Common.Pool)",
        "numberOfBytes": "32",
        "value": "t_struct(Pool)1804_storage"
      },
      "t_mapping(t_uint256,t_uint256)": {
        "encoding": "mapping",
        "key": "t_uint256",
        "label": "mapping(uint256 => uint256)",
        "numberOfBytes": "32",
        "value": "t_uint256"
      },
      "t_struct(Addresses)1855_storage": {
        "encoding": "inplace",
        "label": "struct Common.Addresses",
        "members": [
          {
            "astId": 1848,
            "contract": "contracts/implementations/Factory.sol:Factory",
            "label": "asset",
            "offset": 0,
            "slot": "0",
            "type": "t_address"
          },
          {
            "astId": 1850,
            "contract": "contracts/implementations/Factory.sol:Factory",
            "label": "lastPaid",
            "offset": 0,
            "slot": "1",
            "type": "t_address"
          },
          {
            "astId": 1852,
            "contract": "contracts/implementations/Factory.sol:Factory",
            "label": "strategy",
            "offset": 0,
            "slot": "2",
            "type": "t_address"
          },
          {
            "astId": 1854,
            "contract": "contracts/implementations/Factory.sol:Factory",
            "label": "admin",
            "offset": 0,
            "slot": "3",
            "type": "t_address"
          }
        ],
        "numberOfBytes": "128"
      },
      "t_struct(ContractData)2400_storage": {
        "encoding": "inplace",
        "label": "struct IFactory.ContractData",
        "members": [
          {
            "astId": 2393,
            "contract": "contracts/implementations/Factory.sol:Factory",
            "label": "feeTo",
            "offset": 0,
            "slot": "0",
            "type": "t_address"
          },
          {
            "astId": 2395,
            "contract": "contracts/implementations/Factory.sol:Factory",
            "label": "assetAdmin",
            "offset": 0,
            "slot": "1",
            "type": "t_address"
          },
          {
            "astId": 2397,
            "contract": "contracts/implementations/Factory.sol:Factory",
            "label": "makerRate",
            "offset": 20,
            "slot": "1",
            "type": "t_uint16"
          },
          {
            "astId": 2399,
            "contract": "contracts/implementations/Factory.sol:Factory",
            "label": "strategyManager",
            "offset": 0,
            "slot": "2",
            "type": "t_address"
          }
        ],
        "numberOfBytes": "96"
      },
      "t_struct(Contributor)1784_storage": {
        "encoding": "inplace",
        "label": "struct Common.Contributor",
        "members": [
          {
            "astId": 1771,
            "contract": "contracts/implementations/Factory.sol:Factory",
            "label": "durOfChoice",
            "offset": 0,
            "slot": "0",
            "type": "t_uint256"
          },
          {
            "astId": 1773,
            "contract": "contracts/implementations/Factory.sol:Factory",
            "label": "expInterest",
            "offset": 0,
            "slot": "1",
            "type": "t_uint256"
          },
          {
            "astId": 1775,
            "contract": "contracts/implementations/Factory.sol:Factory",
            "label": "payDate",
            "offset": 0,
            "slot": "2",
            "type": "t_uint256"
          },
          {
            "astId": 1777,
            "contract": "contracts/implementations/Factory.sol:Factory",
            "label": "turnTime",
            "offset": 0,
            "slot": "3",
            "type": "t_uint256"
          },
          {
            "astId": 1779,
            "contract": "contracts/implementations/Factory.sol:Factory",
            "label": "loan",
            "offset": 0,
            "slot": "4",
            "type": "t_uint256"
          },
          {
            "astId": 1781,
            "contract": "contracts/implementations/Factory.sol:Factory",
            "label": "colBals",
            "offset": 0,
            "slot": "5",
            "type": "t_uint256"
          },
          {
            "astId": 1783,
            "contract": "contracts/implementations/Factory.sol:Factory",
            "label": "id",
            "offset": 0,
            "slot": "6",
            "type": "t_address"
          }
        ],
        "numberOfBytes": "224"
      },
      "t_struct(Counter)431_storage": {
        "encoding": "inplace",
        "label": "struct Counters.Counter",
        "members": [
          {
            "astId": 430,
            "contract": "contracts/implementations/Factory.sol:Factory",
            "label": "_value",
            "offset": 0,
            "slot": "0",
            "type": "t_uint256"
          }
        ],
        "numberOfBytes": "32"
      },
      "t_struct(Data)3862_storage": {
        "encoding": "inplace",
        "label": "struct Data",
        "members": [
          {
            "astId": 3821,
            "contract": "contracts/implementations/Factory.sol:Factory",
            "label": "pData",
            "offset": 0,
            "slot": "0",
            "type": "t_struct(ContractData)2400_storage"
          },
          {
            "astId": 3824,
            "contract": "contracts/implementations/Factory.sol:Factory",
            "label": "epoches",
            "offset": 0,
            "slot": "3",
            "type": "t_struct(Counter)431_storage"
          },
          {
            "astId": 3830,
            "contract": "contracts/implementations/Factory.sol:Factory",
            "label": "pools",
            "offset": 0,
            "slot": "4",
            "type": "t_mapping(t_uint256,t_struct(Pool)1804_storage)"
          },
          {
            "astId": 3835,
            "contract": "contracts/implementations/Factory.sol:Factory",
            "label": "amountExist",
            "offset": 0,
            "slot": "5",
            "type": "t_mapping(t_uint256,t_bool)"
          },
          {
            "astId": 3842,
            "contract": "contracts/implementations/Factory.sol:Factory",
            "label": "contributors",
            "offset": 0,
            "slot": "6",
            "type": "t_mapping(t_uint256,t_array(t_struct(Contributor)1784_storage)dyn_storage)"
          },
          {
            "astId": 3849,
            "contract": "contracts/implementations/Factory.sol:Factory",
            "label": "slots",
            "offset": 0,
            "slot": "7",
            "type": "t_mapping(t_address,t_mapping(t_uint256,t_uint256))"
          },
          {
            "astId": 3857,
            "contract": "contracts/implementations/Factory.sol:Factory",
            "label": "ranks",
            "offset": 0,
            "slot": "8",
            "type": "t_mapping(t_uint256,t_mapping(t_address,t_struct(Rank)1789_storage))"
          },
          {
            "astId": 3861,
            "contract": "contracts/implementations/Factory.sol:Factory",
            "label": "poolArr",
            "offset": 0,
            "slot": "9",
            "type": "t_array(t_struct(Pool)1804_storage)dyn_storage"
          }
        ],
        "numberOfBytes": "320"
      },
      "t_struct(Pool)1804_storage": {
        "encoding": "inplace",
        "label": "struct Common.Pool",
        "members": [
          {
            "astId": 1793,
            "contract": "contracts/implementations/Factory.sol:Factory",
            "label": "uints",
            "offset": 0,
            "slot": "0",
            "type": "t_struct(Uints)1845_storage"
          },
          {
            "astId": 1796,
            "contract": "contracts/implementations/Factory.sol:Factory",
            "label": "uint256s",
            "offset": 0,
            "slot": "5",
            "type": "t_struct(Uint256s)1833_storage"
          },
          {
            "astId": 1799,
            "contract": "contracts/implementations/Factory.sol:Factory",
            "label": "addrs",
            "offset": 0,
            "slot": "10",
            "type": "t_struct(Addresses)1855_storage"
          },
          {
            "astId": 1801,
            "contract": "contracts/implementations/Factory.sol:Factory",
            "label": "allGh",
            "offset": 0,
            "slot": "14",
            "type": "t_uint256"
          },
          {
            "astId": 1803,
            "contract": "contracts/implementations/Factory.sol:Factory",
            "label": "isPermissionless",
            "offset": 0,
            "slot": "15",
            "type": "t_bool"
          }
        ],
        "numberOfBytes": "512"
      },
      "t_struct(Rank)1789_storage": {
        "encoding": "inplace",
        "label": "struct Common.Rank",
        "members": [
          {
            "astId": 1786,
            "contract": "contracts/implementations/Factory.sol:Factory",
            "label": "admin",
            "offset": 0,
            "slot": "0",
            "type": "t_bool"
          },
          {
            "astId": 1788,
            "contract": "contracts/implementations/Factory.sol:Factory",
            "label": "member",
            "offset": 1,
            "slot": "0",
            "type": "t_bool"
          }
        ],
        "numberOfBytes": "32"
      },
      "t_struct(Uint256s)1833_storage": {
        "encoding": "inplace",
        "label": "struct Common.Uint256s",
        "members": [
          {
            "astId": 1824,
            "contract": "contracts/implementations/Factory.sol:Factory",
            "label": "fullInterest",
            "offset": 0,
            "slot": "0",
            "type": "t_uint256"
          },
          {
            "astId": 1826,
            "contract": "contracts/implementations/Factory.sol:Factory",
            "label": "intPerSec",
            "offset": 0,
            "slot": "1",
            "type": "t_uint256"
          },
          {
            "astId": 1828,
            "contract": "contracts/implementations/Factory.sol:Factory",
            "label": "unit",
            "offset": 0,
            "slot": "2",
            "type": "t_uint256"
          },
          {
            "astId": 1830,
            "contract": "contracts/implementations/Factory.sol:Factory",
            "label": "currentPool",
            "offset": 0,
            "slot": "3",
            "type": "t_uint256"
          },
          {
            "astId": 1832,
            "contract": "contracts/implementations/Factory.sol:Factory",
            "label": "epochId",
            "offset": 0,
            "slot": "4",
            "type": "t_uint256"
          }
        ],
        "numberOfBytes": "160"
      },
      "t_struct(Uints)1845_storage": {
        "encoding": "inplace",
        "label": "struct Common.Uints",
        "members": [
          {
            "astId": 1836,
            "contract": "contracts/implementations/Factory.sol:Factory",
            "label": "quorum",
            "offset": 0,
            "slot": "0",
            "type": "t_uint256"
          },
          {
            "astId": 1838,
            "contract": "contracts/implementations/Factory.sol:Factory",
            "label": "selector",
            "offset": 0,
            "slot": "1",
            "type": "t_uint256"
          },
          {
            "astId": 1840,
            "contract": "contracts/implementations/Factory.sol:Factory",
            "label": "colCoverage",
            "offset": 0,
            "slot": "2",
            "type": "t_uint256"
          },
          {
            "astId": 1842,
            "contract": "contracts/implementations/Factory.sol:Factory",
            "label": "duration",
            "offset": 0,
            "slot": "3",
            "type": "t_uint256"
          },
          {
            "astId": 1844,
            "contract": "contracts/implementations/Factory.sol:Factory",
            "label": "intRate",
            "offset": 0,
            "slot": "4",
            "type": "t_uint256"
          }
        ],
        "numberOfBytes": "160"
      },
      "t_uint16": {
        "encoding": "inplace",
        "label": "uint16",
        "numberOfBytes": "2"
      },
      "t_uint256": {
        "encoding": "inplace",
        "label": "uint256",
        "numberOfBytes": "32"
      }
    }
  }
}