{
  "address": "0x09472cBF305BF8323cb2E8DF79C942E76aeB38cd",
  "abi": [
    {
      "inputs": [
        {
          "internalType": "uint16",
          "name": "serviceRate",
          "type": "uint16"
        },
        {
          "internalType": "uint256",
          "name": "minContribution",
          "type": "uint256"
        },
        {
          "internalType": "uint256",
          "name": "setUpFee",
          "type": "uint256"
        },
        {
          "internalType": "address",
          "name": "feeTo",
          "type": "address"
        },
        {
          "internalType": "address",
          "name": "assetClass",
          "type": "address"
        },
        {
          "internalType": "address",
          "name": "strategyManager",
          "type": "address"
        },
        {
          "internalType": "address",
          "name": "ownerShipManager",
          "type": "address"
        }
      ],
      "stateMutability": "nonpayable",
      "type": "constructor"
    },
    {
      "inputs": [],
      "name": "AllMemberIsPaid",
      "type": "error"
    },
    {
      "inputs": [
        {
          "internalType": "uint24",
          "name": "ccr",
          "type": "uint24"
        }
      ],
      "name": "CollateralCoverageCannotGoBelow_100",
      "type": "error"
    },
    {
      "inputs": [],
      "name": "EnforcedPause",
      "type": "error"
    },
    {
      "inputs": [],
      "name": "ExpectedPause",
      "type": "error"
    },
    {
      "inputs": [],
      "name": "InsufficientFund",
      "type": "error"
    },
    {
      "inputs": [],
      "name": "OwnershipManagerIsNotSet",
      "type": "error"
    },
    {
      "inputs": [],
      "name": "QuorumIsInvalid",
      "type": "error"
    },
    {
      "inputs": [],
      "name": "ReentrancyGuardReentrantCall",
      "type": "error"
    },
    {
      "inputs": [
        {
          "internalType": "address",
          "name": "",
          "type": "address"
        }
      ],
      "name": "UnSupportedAsset",
      "type": "error"
    },
    {
      "inputs": [],
      "name": "UpdateStrategyError",
      "type": "error"
    },
    {
      "anonymous": false,
      "inputs": [
        {
          "components": [
            {
              "components": [
                {
                  "components": [
                    {
                      "internalType": "uint256",
                      "name": "_value",
                      "type": "uint256"
                    }
                  ],
                  "internalType": "struct Counters.Counter",
                  "name": "userCount",
                  "type": "tuple"
                },
                {
                  "components": [
                    {
                      "internalType": "uint256",
                      "name": "quorum",
                      "type": "uint256"
                    },
                    {
                      "internalType": "uint256",
                      "name": "selector",
                      "type": "uint256"
                    },
                    {
                      "internalType": "uint256",
                      "name": "colCoverage",
                      "type": "uint256"
                    },
                    {
                      "internalType": "uint256",
                      "name": "duration",
                      "type": "uint256"
                    },
                    {
                      "internalType": "uint256",
                      "name": "intRate",
                      "type": "uint256"
                    }
                  ],
                  "internalType": "struct Common.Uints",
                  "name": "uints",
                  "type": "tuple"
                },
                {
                  "components": [
                    {
                      "internalType": "uint256",
                      "name": "fullInterest",
                      "type": "uint256"
                    },
                    {
                      "internalType": "uint256",
                      "name": "intPerSec",
                      "type": "uint256"
                    },
                    {
                      "internalType": "uint256",
                      "name": "unit",
                      "type": "uint256"
                    },
                    {
                      "internalType": "uint256",
                      "name": "currentPool",
                      "type": "uint256"
                    },
                    {
                      "internalType": "uint256",
                      "name": "epochId",
                      "type": "uint256"
                    }
                  ],
                  "internalType": "struct Common.Uint256s",
                  "name": "uint256s",
                  "type": "tuple"
                },
                {
                  "components": [
                    {
                      "internalType": "address",
                      "name": "asset",
                      "type": "address"
                    },
                    {
                      "internalType": "address",
                      "name": "lastPaid",
                      "type": "address"
                    },
                    {
                      "internalType": "address",
                      "name": "strategy",
                      "type": "address"
                    },
                    {
                      "internalType": "address",
                      "name": "admin",
                      "type": "address"
                    }
                  ],
                  "internalType": "struct Common.Addresses",
                  "name": "addrs",
                  "type": "tuple"
                },
                {
                  "internalType": "uint256",
                  "name": "allGh",
                  "type": "uint256"
                },
                {
                  "internalType": "bool",
                  "name": "isPermissionless",
                  "type": "bool"
                },
                {
                  "components": [
                    {
                      "components": [
                        {
                          "internalType": "uint256",
                          "name": "durOfChoice",
                          "type": "uint256"
                        },
                        {
                          "internalType": "uint256",
                          "name": "expInterest",
                          "type": "uint256"
                        },
                        {
                          "internalType": "uint256",
                          "name": "payDate",
                          "type": "uint256"
                        },
                        {
                          "internalType": "uint256",
                          "name": "turnTime",
                          "type": "uint256"
                        },
                        {
                          "internalType": "uint256",
                          "name": "loan",
                          "type": "uint256"
                        },
                        {
                          "internalType": "uint256",
                          "name": "colBals",
                          "type": "uint256"
                        },
                        {
                          "internalType": "address",
                          "name": "id",
                          "type": "address"
                        },
                        {
                          "internalType": "bool",
                          "name": "sentQuota",
                          "type": "bool"
                        }
                      ],
                      "internalType": "struct Common.Contributor",
                      "name": "cData",
                      "type": "tuple"
                    },
                    {
                      "components": [
                        {
                          "internalType": "bool",
                          "name": "admin",
                          "type": "bool"
                        },
                        {
                          "internalType": "bool",
                          "name": "member",
                          "type": "bool"
                        }
                      ],
                      "internalType": "struct Common.Rank",
                      "name": "rank",
                      "type": "tuple"
                    },
                    {
                      "internalType": "uint8",
                      "name": "slot",
                      "type": "uint8"
                    }
                  ],
                  "internalType": "struct Common.ContributorData[]",
                  "name": "cData",
                  "type": "tuple[]"
                },
                {
                  "internalType": "enum Common.FuncTag",
                  "name": "stage",
                  "type": "uint8"
                }
              ],
              "internalType": "struct Common.Pool",
              "name": "pool",
              "type": "tuple"
            },
            {
              "components": [
                {
                  "components": [
                    {
                      "internalType": "uint256",
                      "name": "durOfChoice",
                      "type": "uint256"
                    },
                    {
                      "internalType": "uint256",
                      "name": "expInterest",
                      "type": "uint256"
                    },
                    {
                      "internalType": "uint256",
                      "name": "payDate",
                      "type": "uint256"
                    },
                    {
                      "internalType": "uint256",
                      "name": "turnTime",
                      "type": "uint256"
                    },
                    {
                      "internalType": "uint256",
                      "name": "loan",
                      "type": "uint256"
                    },
                    {
                      "internalType": "uint256",
                      "name": "colBals",
                      "type": "uint256"
                    },
                    {
                      "internalType": "address",
                      "name": "id",
                      "type": "address"
                    },
                    {
                      "internalType": "bool",
                      "name": "sentQuota",
                      "type": "bool"
                    }
                  ],
                  "internalType": "struct Common.Contributor",
                  "name": "cData",
                  "type": "tuple"
                },
                {
                  "components": [
                    {
                      "internalType": "bool",
                      "name": "admin",
                      "type": "bool"
                    },
                    {
                      "internalType": "bool",
                      "name": "member",
                      "type": "bool"
                    }
                  ],
                  "internalType": "struct Common.Rank",
                  "name": "rank",
                  "type": "tuple"
                },
                {
                  "internalType": "uint8",
                  "name": "slot",
                  "type": "uint8"
                }
              ],
              "internalType": "struct Common.ContributorData",
              "name": "cData",
              "type": "tuple"
            }
          ],
          "indexed": false,
          "internalType": "struct Common.CreatePoolReturnValue",
          "name": "",
          "type": "tuple"
        }
      ],
      "name": "BandCreated",
      "type": "event"
    },
    {
      "anonymous": false,
      "inputs": [
        {
          "indexed": false,
          "internalType": "uint256",
          "name": "epochId",
          "type": "uint256"
        }
      ],
      "name": "Cancellation",
      "type": "event"
    },
    {
      "anonymous": false,
      "inputs": [
        {
          "components": [
            {
              "components": [
                {
                  "components": [
                    {
                      "internalType": "uint256",
                      "name": "_value",
                      "type": "uint256"
                    }
                  ],
                  "internalType": "struct Counters.Counter",
                  "name": "userCount",
                  "type": "tuple"
                },
                {
                  "components": [
                    {
                      "internalType": "uint256",
                      "name": "quorum",
                      "type": "uint256"
                    },
                    {
                      "internalType": "uint256",
                      "name": "selector",
                      "type": "uint256"
                    },
                    {
                      "internalType": "uint256",
                      "name": "colCoverage",
                      "type": "uint256"
                    },
                    {
                      "internalType": "uint256",
                      "name": "duration",
                      "type": "uint256"
                    },
                    {
                      "internalType": "uint256",
                      "name": "intRate",
                      "type": "uint256"
                    }
                  ],
                  "internalType": "struct Common.Uints",
                  "name": "uints",
                  "type": "tuple"
                },
                {
                  "components": [
                    {
                      "internalType": "uint256",
                      "name": "fullInterest",
                      "type": "uint256"
                    },
                    {
                      "internalType": "uint256",
                      "name": "intPerSec",
                      "type": "uint256"
                    },
                    {
                      "internalType": "uint256",
                      "name": "unit",
                      "type": "uint256"
                    },
                    {
                      "internalType": "uint256",
                      "name": "currentPool",
                      "type": "uint256"
                    },
                    {
                      "internalType": "uint256",
                      "name": "epochId",
                      "type": "uint256"
                    }
                  ],
                  "internalType": "struct Common.Uint256s",
                  "name": "uint256s",
                  "type": "tuple"
                },
                {
                  "components": [
                    {
                      "internalType": "address",
                      "name": "asset",
                      "type": "address"
                    },
                    {
                      "internalType": "address",
                      "name": "lastPaid",
                      "type": "address"
                    },
                    {
                      "internalType": "address",
                      "name": "strategy",
                      "type": "address"
                    },
                    {
                      "internalType": "address",
                      "name": "admin",
                      "type": "address"
                    }
                  ],
                  "internalType": "struct Common.Addresses",
                  "name": "addrs",
                  "type": "tuple"
                },
                {
                  "internalType": "uint256",
                  "name": "allGh",
                  "type": "uint256"
                },
                {
                  "internalType": "bool",
                  "name": "isPermissionless",
                  "type": "bool"
                },
                {
                  "components": [
                    {
                      "components": [
                        {
                          "internalType": "uint256",
                          "name": "durOfChoice",
                          "type": "uint256"
                        },
                        {
                          "internalType": "uint256",
                          "name": "expInterest",
                          "type": "uint256"
                        },
                        {
                          "internalType": "uint256",
                          "name": "payDate",
                          "type": "uint256"
                        },
                        {
                          "internalType": "uint256",
                          "name": "turnTime",
                          "type": "uint256"
                        },
                        {
                          "internalType": "uint256",
                          "name": "loan",
                          "type": "uint256"
                        },
                        {
                          "internalType": "uint256",
                          "name": "colBals",
                          "type": "uint256"
                        },
                        {
                          "internalType": "address",
                          "name": "id",
                          "type": "address"
                        },
                        {
                          "internalType": "bool",
                          "name": "sentQuota",
                          "type": "bool"
                        }
                      ],
                      "internalType": "struct Common.Contributor",
                      "name": "cData",
                      "type": "tuple"
                    },
                    {
                      "components": [
                        {
                          "internalType": "bool",
                          "name": "admin",
                          "type": "bool"
                        },
                        {
                          "internalType": "bool",
                          "name": "member",
                          "type": "bool"
                        }
                      ],
                      "internalType": "struct Common.Rank",
                      "name": "rank",
                      "type": "tuple"
                    },
                    {
                      "internalType": "uint8",
                      "name": "slot",
                      "type": "uint8"
                    }
                  ],
                  "internalType": "struct Common.ContributorData[]",
                  "name": "cData",
                  "type": "tuple[]"
                },
                {
                  "internalType": "enum Common.FuncTag",
                  "name": "stage",
                  "type": "uint8"
                }
              ],
              "internalType": "struct Common.Pool",
              "name": "pool",
              "type": "tuple"
            }
          ],
          "indexed": false,
          "internalType": "struct Common.CommonEventData",
          "name": "",
          "type": "tuple"
        }
      ],
      "name": "GetFinanced",
      "type": "event"
    },
    {
      "anonymous": false,
      "inputs": [
        {
          "components": [
            {
              "components": [
                {
                  "components": [
                    {
                      "internalType": "uint256",
                      "name": "_value",
                      "type": "uint256"
                    }
                  ],
                  "internalType": "struct Counters.Counter",
                  "name": "userCount",
                  "type": "tuple"
                },
                {
                  "components": [
                    {
                      "internalType": "uint256",
                      "name": "quorum",
                      "type": "uint256"
                    },
                    {
                      "internalType": "uint256",
                      "name": "selector",
                      "type": "uint256"
                    },
                    {
                      "internalType": "uint256",
                      "name": "colCoverage",
                      "type": "uint256"
                    },
                    {
                      "internalType": "uint256",
                      "name": "duration",
                      "type": "uint256"
                    },
                    {
                      "internalType": "uint256",
                      "name": "intRate",
                      "type": "uint256"
                    }
                  ],
                  "internalType": "struct Common.Uints",
                  "name": "uints",
                  "type": "tuple"
                },
                {
                  "components": [
                    {
                      "internalType": "uint256",
                      "name": "fullInterest",
                      "type": "uint256"
                    },
                    {
                      "internalType": "uint256",
                      "name": "intPerSec",
                      "type": "uint256"
                    },
                    {
                      "internalType": "uint256",
                      "name": "unit",
                      "type": "uint256"
                    },
                    {
                      "internalType": "uint256",
                      "name": "currentPool",
                      "type": "uint256"
                    },
                    {
                      "internalType": "uint256",
                      "name": "epochId",
                      "type": "uint256"
                    }
                  ],
                  "internalType": "struct Common.Uint256s",
                  "name": "uint256s",
                  "type": "tuple"
                },
                {
                  "components": [
                    {
                      "internalType": "address",
                      "name": "asset",
                      "type": "address"
                    },
                    {
                      "internalType": "address",
                      "name": "lastPaid",
                      "type": "address"
                    },
                    {
                      "internalType": "address",
                      "name": "strategy",
                      "type": "address"
                    },
                    {
                      "internalType": "address",
                      "name": "admin",
                      "type": "address"
                    }
                  ],
                  "internalType": "struct Common.Addresses",
                  "name": "addrs",
                  "type": "tuple"
                },
                {
                  "internalType": "uint256",
                  "name": "allGh",
                  "type": "uint256"
                },
                {
                  "internalType": "bool",
                  "name": "isPermissionless",
                  "type": "bool"
                },
                {
                  "components": [
                    {
                      "components": [
                        {
                          "internalType": "uint256",
                          "name": "durOfChoice",
                          "type": "uint256"
                        },
                        {
                          "internalType": "uint256",
                          "name": "expInterest",
                          "type": "uint256"
                        },
                        {
                          "internalType": "uint256",
                          "name": "payDate",
                          "type": "uint256"
                        },
                        {
                          "internalType": "uint256",
                          "name": "turnTime",
                          "type": "uint256"
                        },
                        {
                          "internalType": "uint256",
                          "name": "loan",
                          "type": "uint256"
                        },
                        {
                          "internalType": "uint256",
                          "name": "colBals",
                          "type": "uint256"
                        },
                        {
                          "internalType": "address",
                          "name": "id",
                          "type": "address"
                        },
                        {
                          "internalType": "bool",
                          "name": "sentQuota",
                          "type": "bool"
                        }
                      ],
                      "internalType": "struct Common.Contributor",
                      "name": "cData",
                      "type": "tuple"
                    },
                    {
                      "components": [
                        {
                          "internalType": "bool",
                          "name": "admin",
                          "type": "bool"
                        },
                        {
                          "internalType": "bool",
                          "name": "member",
                          "type": "bool"
                        }
                      ],
                      "internalType": "struct Common.Rank",
                      "name": "rank",
                      "type": "tuple"
                    },
                    {
                      "internalType": "uint8",
                      "name": "slot",
                      "type": "uint8"
                    }
                  ],
                  "internalType": "struct Common.ContributorData[]",
                  "name": "cData",
                  "type": "tuple[]"
                },
                {
                  "internalType": "enum Common.FuncTag",
                  "name": "stage",
                  "type": "uint8"
                }
              ],
              "internalType": "struct Common.Pool",
              "name": "pool",
              "type": "tuple"
            }
          ],
          "indexed": false,
          "internalType": "struct Common.CommonEventData",
          "name": "",
          "type": "tuple"
        }
      ],
      "name": "Liquidated",
      "type": "event"
    },
    {
      "anonymous": false,
      "inputs": [
        {
          "components": [
            {
              "components": [
                {
                  "components": [
                    {
                      "internalType": "uint256",
                      "name": "_value",
                      "type": "uint256"
                    }
                  ],
                  "internalType": "struct Counters.Counter",
                  "name": "userCount",
                  "type": "tuple"
                },
                {
                  "components": [
                    {
                      "internalType": "uint256",
                      "name": "quorum",
                      "type": "uint256"
                    },
                    {
                      "internalType": "uint256",
                      "name": "selector",
                      "type": "uint256"
                    },
                    {
                      "internalType": "uint256",
                      "name": "colCoverage",
                      "type": "uint256"
                    },
                    {
                      "internalType": "uint256",
                      "name": "duration",
                      "type": "uint256"
                    },
                    {
                      "internalType": "uint256",
                      "name": "intRate",
                      "type": "uint256"
                    }
                  ],
                  "internalType": "struct Common.Uints",
                  "name": "uints",
                  "type": "tuple"
                },
                {
                  "components": [
                    {
                      "internalType": "uint256",
                      "name": "fullInterest",
                      "type": "uint256"
                    },
                    {
                      "internalType": "uint256",
                      "name": "intPerSec",
                      "type": "uint256"
                    },
                    {
                      "internalType": "uint256",
                      "name": "unit",
                      "type": "uint256"
                    },
                    {
                      "internalType": "uint256",
                      "name": "currentPool",
                      "type": "uint256"
                    },
                    {
                      "internalType": "uint256",
                      "name": "epochId",
                      "type": "uint256"
                    }
                  ],
                  "internalType": "struct Common.Uint256s",
                  "name": "uint256s",
                  "type": "tuple"
                },
                {
                  "components": [
                    {
                      "internalType": "address",
                      "name": "asset",
                      "type": "address"
                    },
                    {
                      "internalType": "address",
                      "name": "lastPaid",
                      "type": "address"
                    },
                    {
                      "internalType": "address",
                      "name": "strategy",
                      "type": "address"
                    },
                    {
                      "internalType": "address",
                      "name": "admin",
                      "type": "address"
                    }
                  ],
                  "internalType": "struct Common.Addresses",
                  "name": "addrs",
                  "type": "tuple"
                },
                {
                  "internalType": "uint256",
                  "name": "allGh",
                  "type": "uint256"
                },
                {
                  "internalType": "bool",
                  "name": "isPermissionless",
                  "type": "bool"
                },
                {
                  "components": [
                    {
                      "components": [
                        {
                          "internalType": "uint256",
                          "name": "durOfChoice",
                          "type": "uint256"
                        },
                        {
                          "internalType": "uint256",
                          "name": "expInterest",
                          "type": "uint256"
                        },
                        {
                          "internalType": "uint256",
                          "name": "payDate",
                          "type": "uint256"
                        },
                        {
                          "internalType": "uint256",
                          "name": "turnTime",
                          "type": "uint256"
                        },
                        {
                          "internalType": "uint256",
                          "name": "loan",
                          "type": "uint256"
                        },
                        {
                          "internalType": "uint256",
                          "name": "colBals",
                          "type": "uint256"
                        },
                        {
                          "internalType": "address",
                          "name": "id",
                          "type": "address"
                        },
                        {
                          "internalType": "bool",
                          "name": "sentQuota",
                          "type": "bool"
                        }
                      ],
                      "internalType": "struct Common.Contributor",
                      "name": "cData",
                      "type": "tuple"
                    },
                    {
                      "components": [
                        {
                          "internalType": "bool",
                          "name": "admin",
                          "type": "bool"
                        },
                        {
                          "internalType": "bool",
                          "name": "member",
                          "type": "bool"
                        }
                      ],
                      "internalType": "struct Common.Rank",
                      "name": "rank",
                      "type": "tuple"
                    },
                    {
                      "internalType": "uint8",
                      "name": "slot",
                      "type": "uint8"
                    }
                  ],
                  "internalType": "struct Common.ContributorData[]",
                  "name": "cData",
                  "type": "tuple[]"
                },
                {
                  "internalType": "enum Common.FuncTag",
                  "name": "stage",
                  "type": "uint8"
                }
              ],
              "internalType": "struct Common.Pool",
              "name": "pool",
              "type": "tuple"
            }
          ],
          "indexed": false,
          "internalType": "struct Common.CommonEventData",
          "name": "",
          "type": "tuple"
        }
      ],
      "name": "NewMemberAdded",
      "type": "event"
    },
    {
      "anonymous": false,
      "inputs": [
        {
          "indexed": false,
          "internalType": "address",
          "name": "account",
          "type": "address"
        }
      ],
      "name": "Paused",
      "type": "event"
    },
    {
      "anonymous": false,
      "inputs": [
        {
          "components": [
            {
              "components": [
                {
                  "components": [
                    {
                      "internalType": "uint256",
                      "name": "_value",
                      "type": "uint256"
                    }
                  ],
                  "internalType": "struct Counters.Counter",
                  "name": "userCount",
                  "type": "tuple"
                },
                {
                  "components": [
                    {
                      "internalType": "uint256",
                      "name": "quorum",
                      "type": "uint256"
                    },
                    {
                      "internalType": "uint256",
                      "name": "selector",
                      "type": "uint256"
                    },
                    {
                      "internalType": "uint256",
                      "name": "colCoverage",
                      "type": "uint256"
                    },
                    {
                      "internalType": "uint256",
                      "name": "duration",
                      "type": "uint256"
                    },
                    {
                      "internalType": "uint256",
                      "name": "intRate",
                      "type": "uint256"
                    }
                  ],
                  "internalType": "struct Common.Uints",
                  "name": "uints",
                  "type": "tuple"
                },
                {
                  "components": [
                    {
                      "internalType": "uint256",
                      "name": "fullInterest",
                      "type": "uint256"
                    },
                    {
                      "internalType": "uint256",
                      "name": "intPerSec",
                      "type": "uint256"
                    },
                    {
                      "internalType": "uint256",
                      "name": "unit",
                      "type": "uint256"
                    },
                    {
                      "internalType": "uint256",
                      "name": "currentPool",
                      "type": "uint256"
                    },
                    {
                      "internalType": "uint256",
                      "name": "epochId",
                      "type": "uint256"
                    }
                  ],
                  "internalType": "struct Common.Uint256s",
                  "name": "uint256s",
                  "type": "tuple"
                },
                {
                  "components": [
                    {
                      "internalType": "address",
                      "name": "asset",
                      "type": "address"
                    },
                    {
                      "internalType": "address",
                      "name": "lastPaid",
                      "type": "address"
                    },
                    {
                      "internalType": "address",
                      "name": "strategy",
                      "type": "address"
                    },
                    {
                      "internalType": "address",
                      "name": "admin",
                      "type": "address"
                    }
                  ],
                  "internalType": "struct Common.Addresses",
                  "name": "addrs",
                  "type": "tuple"
                },
                {
                  "internalType": "uint256",
                  "name": "allGh",
                  "type": "uint256"
                },
                {
                  "internalType": "bool",
                  "name": "isPermissionless",
                  "type": "bool"
                },
                {
                  "components": [
                    {
                      "components": [
                        {
                          "internalType": "uint256",
                          "name": "durOfChoice",
                          "type": "uint256"
                        },
                        {
                          "internalType": "uint256",
                          "name": "expInterest",
                          "type": "uint256"
                        },
                        {
                          "internalType": "uint256",
                          "name": "payDate",
                          "type": "uint256"
                        },
                        {
                          "internalType": "uint256",
                          "name": "turnTime",
                          "type": "uint256"
                        },
                        {
                          "internalType": "uint256",
                          "name": "loan",
                          "type": "uint256"
                        },
                        {
                          "internalType": "uint256",
                          "name": "colBals",
                          "type": "uint256"
                        },
                        {
                          "internalType": "address",
                          "name": "id",
                          "type": "address"
                        },
                        {
                          "internalType": "bool",
                          "name": "sentQuota",
                          "type": "bool"
                        }
                      ],
                      "internalType": "struct Common.Contributor",
                      "name": "cData",
                      "type": "tuple"
                    },
                    {
                      "components": [
                        {
                          "internalType": "bool",
                          "name": "admin",
                          "type": "bool"
                        },
                        {
                          "internalType": "bool",
                          "name": "member",
                          "type": "bool"
                        }
                      ],
                      "internalType": "struct Common.Rank",
                      "name": "rank",
                      "type": "tuple"
                    },
                    {
                      "internalType": "uint8",
                      "name": "slot",
                      "type": "uint8"
                    }
                  ],
                  "internalType": "struct Common.ContributorData[]",
                  "name": "cData",
                  "type": "tuple[]"
                },
                {
                  "internalType": "enum Common.FuncTag",
                  "name": "stage",
                  "type": "uint8"
                }
              ],
              "internalType": "struct Common.Pool",
              "name": "pool",
              "type": "tuple"
            }
          ],
          "indexed": false,
          "internalType": "struct Common.CommonEventData",
          "name": "",
          "type": "tuple"
        }
      ],
      "name": "Payback",
      "type": "event"
    },
    {
      "anonymous": false,
      "inputs": [
        {
          "indexed": true,
          "internalType": "address",
          "name": "",
          "type": "address"
        },
        {
          "indexed": true,
          "internalType": "address",
          "name": "",
          "type": "address"
        }
      ],
      "name": "Rekeyed",
      "type": "event"
    },
    {
      "anonymous": false,
      "inputs": [
        {
          "indexed": false,
          "internalType": "uint256",
          "name": "",
          "type": "uint256"
        },
        {
          "components": [
            {
              "components": [
                {
                  "internalType": "uint256",
                  "name": "_value",
                  "type": "uint256"
                }
              ],
              "internalType": "struct Counters.Counter",
              "name": "userCount",
              "type": "tuple"
            },
            {
              "components": [
                {
                  "internalType": "uint256",
                  "name": "quorum",
                  "type": "uint256"
                },
                {
                  "internalType": "uint256",
                  "name": "selector",
                  "type": "uint256"
                },
                {
                  "internalType": "uint256",
                  "name": "colCoverage",
                  "type": "uint256"
                },
                {
                  "internalType": "uint256",
                  "name": "duration",
                  "type": "uint256"
                },
                {
                  "internalType": "uint256",
                  "name": "intRate",
                  "type": "uint256"
                }
              ],
              "internalType": "struct Common.Uints",
              "name": "uints",
              "type": "tuple"
            },
            {
              "components": [
                {
                  "internalType": "uint256",
                  "name": "fullInterest",
                  "type": "uint256"
                },
                {
                  "internalType": "uint256",
                  "name": "intPerSec",
                  "type": "uint256"
                },
                {
                  "internalType": "uint256",
                  "name": "unit",
                  "type": "uint256"
                },
                {
                  "internalType": "uint256",
                  "name": "currentPool",
                  "type": "uint256"
                },
                {
                  "internalType": "uint256",
                  "name": "epochId",
                  "type": "uint256"
                }
              ],
              "internalType": "struct Common.Uint256s",
              "name": "uint256s",
              "type": "tuple"
            },
            {
              "components": [
                {
                  "internalType": "address",
                  "name": "asset",
                  "type": "address"
                },
                {
                  "internalType": "address",
                  "name": "lastPaid",
                  "type": "address"
                },
                {
                  "internalType": "address",
                  "name": "strategy",
                  "type": "address"
                },
                {
                  "internalType": "address",
                  "name": "admin",
                  "type": "address"
                }
              ],
              "internalType": "struct Common.Addresses",
              "name": "addrs",
              "type": "tuple"
            },
            {
              "internalType": "uint256",
              "name": "allGh",
              "type": "uint256"
            },
            {
              "internalType": "bool",
              "name": "isPermissionless",
              "type": "bool"
            },
            {
              "components": [
                {
                  "components": [
                    {
                      "internalType": "uint256",
                      "name": "durOfChoice",
                      "type": "uint256"
                    },
                    {
                      "internalType": "uint256",
                      "name": "expInterest",
                      "type": "uint256"
                    },
                    {
                      "internalType": "uint256",
                      "name": "payDate",
                      "type": "uint256"
                    },
                    {
                      "internalType": "uint256",
                      "name": "turnTime",
                      "type": "uint256"
                    },
                    {
                      "internalType": "uint256",
                      "name": "loan",
                      "type": "uint256"
                    },
                    {
                      "internalType": "uint256",
                      "name": "colBals",
                      "type": "uint256"
                    },
                    {
                      "internalType": "address",
                      "name": "id",
                      "type": "address"
                    },
                    {
                      "internalType": "bool",
                      "name": "sentQuota",
                      "type": "bool"
                    }
                  ],
                  "internalType": "struct Common.Contributor",
                  "name": "cData",
                  "type": "tuple"
                },
                {
                  "components": [
                    {
                      "internalType": "bool",
                      "name": "admin",
                      "type": "bool"
                    },
                    {
                      "internalType": "bool",
                      "name": "member",
                      "type": "bool"
                    }
                  ],
                  "internalType": "struct Common.Rank",
                  "name": "rank",
                  "type": "tuple"
                },
                {
                  "internalType": "uint8",
                  "name": "slot",
                  "type": "uint8"
                }
              ],
              "internalType": "struct Common.ContributorData[]",
              "name": "cData",
              "type": "tuple[]"
            },
            {
              "internalType": "enum Common.FuncTag",
              "name": "stage",
              "type": "uint8"
            }
          ],
          "indexed": false,
          "internalType": "struct Common.Pool",
          "name": "",
          "type": "tuple"
        }
      ],
      "name": "RoundUp",
      "type": "event"
    },
    {
      "anonymous": false,
      "inputs": [
        {
          "indexed": false,
          "internalType": "address",
          "name": "account",
          "type": "address"
        }
      ],
      "name": "Unpaused",
      "type": "event"
    },
    {
      "inputs": [
        {
          "internalType": "uint16",
          "name": "intRate",
          "type": "uint16"
        },
        {
          "internalType": "uint16",
          "name": "durationInHours",
          "type": "uint16"
        },
        {
          "internalType": "uint24",
          "name": "colCoverage",
          "type": "uint24"
        },
        {
          "internalType": "uint256",
          "name": "unitLiquidity",
          "type": "uint256"
        },
        {
          "internalType": "address",
          "name": "liquidAsset",
          "type": "address"
        },
        {
          "internalType": "address[]",
          "name": "contributors",
          "type": "address[]"
        }
      ],
      "name": "createPermissionedPool",
      "outputs": [
        {
          "internalType": "bool",
          "name": "",
          "type": "bool"
        }
      ],
      "stateMutability": "nonpayable",
      "type": "function"
    },
    {
      "inputs": [
        {
          "internalType": "uint16",
          "name": "intRate",
          "type": "uint16"
        },
        {
          "internalType": "uint8",
          "name": "quorum",
          "type": "uint8"
        },
        {
          "internalType": "uint16",
          "name": "durationInHours",
          "type": "uint16"
        },
        {
          "internalType": "uint24",
          "name": "colCoverage",
          "type": "uint24"
        },
        {
          "internalType": "uint256",
          "name": "unitLiquidity",
          "type": "uint256"
        },
        {
          "internalType": "address",
          "name": "liquidAsset",
          "type": "address"
        }
      ],
      "name": "createPermissionlessPool",
      "outputs": [
        {
          "internalType": "bool",
          "name": "",
          "type": "bool"
        }
      ],
      "stateMutability": "nonpayable",
      "type": "function"
    },
    {
      "inputs": [],
      "name": "creationFee",
      "outputs": [
        {
          "internalType": "uint256",
          "name": "",
          "type": "uint256"
        }
      ],
      "stateMutability": "view",
      "type": "function"
    },
    {
      "inputs": [
        {
          "internalType": "uint256",
          "name": "epochId",
          "type": "uint256"
        }
      ],
      "name": "enquireLiquidation",
      "outputs": [
        {
          "components": [
            {
              "components": [
                {
                  "internalType": "uint256",
                  "name": "durOfChoice",
                  "type": "uint256"
                },
                {
                  "internalType": "uint256",
                  "name": "expInterest",
                  "type": "uint256"
                },
                {
                  "internalType": "uint256",
                  "name": "payDate",
                  "type": "uint256"
                },
                {
                  "internalType": "uint256",
                  "name": "turnTime",
                  "type": "uint256"
                },
                {
                  "internalType": "uint256",
                  "name": "loan",
                  "type": "uint256"
                },
                {
                  "internalType": "uint256",
                  "name": "colBals",
                  "type": "uint256"
                },
                {
                  "internalType": "address",
                  "name": "id",
                  "type": "address"
                },
                {
                  "internalType": "bool",
                  "name": "sentQuota",
                  "type": "bool"
                }
              ],
              "internalType": "struct Common.Contributor",
              "name": "cData",
              "type": "tuple"
            },
            {
              "components": [
                {
                  "internalType": "bool",
                  "name": "admin",
                  "type": "bool"
                },
                {
                  "internalType": "bool",
                  "name": "member",
                  "type": "bool"
                }
              ],
              "internalType": "struct Common.Rank",
              "name": "rank",
              "type": "tuple"
            },
            {
              "internalType": "uint8",
              "name": "slot",
              "type": "uint8"
            }
          ],
          "internalType": "struct Common.ContributorData",
          "name": "",
          "type": "tuple"
        },
        {
          "internalType": "bool",
          "name": "",
          "type": "bool"
        },
        {
          "internalType": "uint256",
          "name": "",
          "type": "uint256"
        }
      ],
      "stateMutability": "view",
      "type": "function"
    },
    {
      "inputs": [],
      "name": "epoches",
      "outputs": [
        {
          "internalType": "uint256",
          "name": "",
          "type": "uint256"
        }
      ],
      "stateMutability": "view",
      "type": "function"
    },
    {
      "inputs": [
        {
          "internalType": "uint256",
          "name": "epochId",
          "type": "uint256"
        }
      ],
      "name": "getBalances",
      "outputs": [
        {
          "components": [
            {
              "internalType": "uint256",
              "name": "xfi",
              "type": "uint256"
            },
            {
              "internalType": "uint256",
              "name": "erc20",
              "type": "uint256"
            }
          ],
          "internalType": "struct Common.Balances",
          "name": "",
          "type": "tuple"
        }
      ],
      "stateMutability": "view",
      "type": "function"
    },
    {
      "inputs": [
        {
          "internalType": "uint256",
          "name": "epochId",
          "type": "uint256"
        }
      ],
      "name": "getCollaterlQuote",
      "outputs": [
        {
          "internalType": "uint256",
          "name": "collateral",
          "type": "uint256"
        },
        {
          "internalType": "uint24",
          "name": "colCoverage",
          "type": "uint24"
        }
      ],
      "stateMutability": "view",
      "type": "function"
    },
    {
      "inputs": [],
      "name": "getContractData",
      "outputs": [
        {
          "components": [
            {
              "internalType": "address",
              "name": "feeTo",
              "type": "address"
            },
            {
              "internalType": "address",
              "name": "assetAdmin",
              "type": "address"
            },
            {
              "internalType": "uint16",
              "name": "makerRate",
              "type": "uint16"
            },
            {
              "internalType": "address",
              "name": "strategyManager",
              "type": "address"
            }
          ],
          "internalType": "struct IFactory.ContractData",
          "name": "result",
          "type": "tuple"
        }
      ],
      "stateMutability": "view",
      "type": "function"
    },
    {
      "inputs": [
        {
          "internalType": "uint256",
          "name": "epochId",
          "type": "uint256"
        },
        {
          "internalType": "address",
          "name": "target",
          "type": "address"
        }
      ],
      "name": "getCurrentDebt",
      "outputs": [
        {
          "internalType": "uint256",
          "name": "",
          "type": "uint256"
        }
      ],
      "stateMutability": "view",
      "type": "function"
    },
    {
      "inputs": [
        {
          "internalType": "uint256",
          "name": "epochId",
          "type": "uint256"
        },
        {
          "internalType": "uint8",
          "name": "daysOfUseInHr",
          "type": "uint8"
        }
      ],
      "name": "getFinance",
      "outputs": [
        {
          "internalType": "bool",
          "name": "",
          "type": "bool"
        }
      ],
      "stateMutability": "payable",
      "type": "function"
    },
    {
      "inputs": [
        {
          "internalType": "uint256",
          "name": "epochId",
          "type": "uint256"
        }
      ],
      "name": "getPoolData",
      "outputs": [
        {
          "components": [
            {
              "components": [
                {
                  "internalType": "uint256",
                  "name": "_value",
                  "type": "uint256"
                }
              ],
              "internalType": "struct Counters.Counter",
              "name": "userCount",
              "type": "tuple"
            },
            {
              "components": [
                {
                  "internalType": "uint256",
                  "name": "quorum",
                  "type": "uint256"
                },
                {
                  "internalType": "uint256",
                  "name": "selector",
                  "type": "uint256"
                },
                {
                  "internalType": "uint256",
                  "name": "colCoverage",
                  "type": "uint256"
                },
                {
                  "internalType": "uint256",
                  "name": "duration",
                  "type": "uint256"
                },
                {
                  "internalType": "uint256",
                  "name": "intRate",
                  "type": "uint256"
                }
              ],
              "internalType": "struct Common.Uints",
              "name": "uints",
              "type": "tuple"
            },
            {
              "components": [
                {
                  "internalType": "uint256",
                  "name": "fullInterest",
                  "type": "uint256"
                },
                {
                  "internalType": "uint256",
                  "name": "intPerSec",
                  "type": "uint256"
                },
                {
                  "internalType": "uint256",
                  "name": "unit",
                  "type": "uint256"
                },
                {
                  "internalType": "uint256",
                  "name": "currentPool",
                  "type": "uint256"
                },
                {
                  "internalType": "uint256",
                  "name": "epochId",
                  "type": "uint256"
                }
              ],
              "internalType": "struct Common.Uint256s",
              "name": "uint256s",
              "type": "tuple"
            },
            {
              "components": [
                {
                  "internalType": "address",
                  "name": "asset",
                  "type": "address"
                },
                {
                  "internalType": "address",
                  "name": "lastPaid",
                  "type": "address"
                },
                {
                  "internalType": "address",
                  "name": "strategy",
                  "type": "address"
                },
                {
                  "internalType": "address",
                  "name": "admin",
                  "type": "address"
                }
              ],
              "internalType": "struct Common.Addresses",
              "name": "addrs",
              "type": "tuple"
            },
            {
              "internalType": "uint256",
              "name": "allGh",
              "type": "uint256"
            },
            {
              "internalType": "bool",
              "name": "isPermissionless",
              "type": "bool"
            },
            {
              "components": [
                {
                  "components": [
                    {
                      "internalType": "uint256",
                      "name": "durOfChoice",
                      "type": "uint256"
                    },
                    {
                      "internalType": "uint256",
                      "name": "expInterest",
                      "type": "uint256"
                    },
                    {
                      "internalType": "uint256",
                      "name": "payDate",
                      "type": "uint256"
                    },
                    {
                      "internalType": "uint256",
                      "name": "turnTime",
                      "type": "uint256"
                    },
                    {
                      "internalType": "uint256",
                      "name": "loan",
                      "type": "uint256"
                    },
                    {
                      "internalType": "uint256",
                      "name": "colBals",
                      "type": "uint256"
                    },
                    {
                      "internalType": "address",
                      "name": "id",
                      "type": "address"
                    },
                    {
                      "internalType": "bool",
                      "name": "sentQuota",
                      "type": "bool"
                    }
                  ],
                  "internalType": "struct Common.Contributor",
                  "name": "cData",
                  "type": "tuple"
                },
                {
                  "components": [
                    {
                      "internalType": "bool",
                      "name": "admin",
                      "type": "bool"
                    },
                    {
                      "internalType": "bool",
                      "name": "member",
                      "type": "bool"
                    }
                  ],
                  "internalType": "struct Common.Rank",
                  "name": "rank",
                  "type": "tuple"
                },
                {
                  "internalType": "uint8",
                  "name": "slot",
                  "type": "uint8"
                }
              ],
              "internalType": "struct Common.ContributorData[]",
              "name": "cData",
              "type": "tuple[]"
            },
            {
              "internalType": "enum Common.FuncTag",
              "name": "stage",
              "type": "uint8"
            }
          ],
          "internalType": "struct Common.Pool",
          "name": "",
          "type": "tuple"
        }
      ],
      "stateMutability": "view",
      "type": "function"
    },
    {
      "inputs": [],
      "name": "getPoolFromAllEpoches",
      "outputs": [
        {
          "components": [
            {
              "components": [
                {
                  "internalType": "uint256",
                  "name": "_value",
                  "type": "uint256"
                }
              ],
              "internalType": "struct Counters.Counter",
              "name": "userCount",
              "type": "tuple"
            },
            {
              "components": [
                {
                  "internalType": "uint256",
                  "name": "quorum",
                  "type": "uint256"
                },
                {
                  "internalType": "uint256",
                  "name": "selector",
                  "type": "uint256"
                },
                {
                  "internalType": "uint256",
                  "name": "colCoverage",
                  "type": "uint256"
                },
                {
                  "internalType": "uint256",
                  "name": "duration",
                  "type": "uint256"
                },
                {
                  "internalType": "uint256",
                  "name": "intRate",
                  "type": "uint256"
                }
              ],
              "internalType": "struct Common.Uints",
              "name": "uints",
              "type": "tuple"
            },
            {
              "components": [
                {
                  "internalType": "uint256",
                  "name": "fullInterest",
                  "type": "uint256"
                },
                {
                  "internalType": "uint256",
                  "name": "intPerSec",
                  "type": "uint256"
                },
                {
                  "internalType": "uint256",
                  "name": "unit",
                  "type": "uint256"
                },
                {
                  "internalType": "uint256",
                  "name": "currentPool",
                  "type": "uint256"
                },
                {
                  "internalType": "uint256",
                  "name": "epochId",
                  "type": "uint256"
                }
              ],
              "internalType": "struct Common.Uint256s",
              "name": "uint256s",
              "type": "tuple"
            },
            {
              "components": [
                {
                  "internalType": "address",
                  "name": "asset",
                  "type": "address"
                },
                {
                  "internalType": "address",
                  "name": "lastPaid",
                  "type": "address"
                },
                {
                  "internalType": "address",
                  "name": "strategy",
                  "type": "address"
                },
                {
                  "internalType": "address",
                  "name": "admin",
                  "type": "address"
                }
              ],
              "internalType": "struct Common.Addresses",
              "name": "addrs",
              "type": "tuple"
            },
            {
              "internalType": "uint256",
              "name": "allGh",
              "type": "uint256"
            },
            {
              "internalType": "bool",
              "name": "isPermissionless",
              "type": "bool"
            },
            {
              "components": [
                {
                  "components": [
                    {
                      "internalType": "uint256",
                      "name": "durOfChoice",
                      "type": "uint256"
                    },
                    {
                      "internalType": "uint256",
                      "name": "expInterest",
                      "type": "uint256"
                    },
                    {
                      "internalType": "uint256",
                      "name": "payDate",
                      "type": "uint256"
                    },
                    {
                      "internalType": "uint256",
                      "name": "turnTime",
                      "type": "uint256"
                    },
                    {
                      "internalType": "uint256",
                      "name": "loan",
                      "type": "uint256"
                    },
                    {
                      "internalType": "uint256",
                      "name": "colBals",
                      "type": "uint256"
                    },
                    {
                      "internalType": "address",
                      "name": "id",
                      "type": "address"
                    },
                    {
                      "internalType": "bool",
                      "name": "sentQuota",
                      "type": "bool"
                    }
                  ],
                  "internalType": "struct Common.Contributor",
                  "name": "cData",
                  "type": "tuple"
                },
                {
                  "components": [
                    {
                      "internalType": "bool",
                      "name": "admin",
                      "type": "bool"
                    },
                    {
                      "internalType": "bool",
                      "name": "member",
                      "type": "bool"
                    }
                  ],
                  "internalType": "struct Common.Rank",
                  "name": "rank",
                  "type": "tuple"
                },
                {
                  "internalType": "uint8",
                  "name": "slot",
                  "type": "uint8"
                }
              ],
              "internalType": "struct Common.ContributorData[]",
              "name": "cData",
              "type": "tuple[]"
            },
            {
              "internalType": "enum Common.FuncTag",
              "name": "stage",
              "type": "uint8"
            }
          ],
          "internalType": "struct Common.Pool[]",
          "name": "pools",
          "type": "tuple[]"
        }
      ],
      "stateMutability": "view",
      "type": "function"
    },
    {
      "inputs": [
        {
          "internalType": "uint256",
          "name": "epochId",
          "type": "uint256"
        },
        {
          "internalType": "address",
          "name": "user",
          "type": "address"
        }
      ],
      "name": "getProfile",
      "outputs": [
        {
          "components": [
            {
              "components": [
                {
                  "internalType": "uint256",
                  "name": "durOfChoice",
                  "type": "uint256"
                },
                {
                  "internalType": "uint256",
                  "name": "expInterest",
                  "type": "uint256"
                },
                {
                  "internalType": "uint256",
                  "name": "payDate",
                  "type": "uint256"
                },
                {
                  "internalType": "uint256",
                  "name": "turnTime",
                  "type": "uint256"
                },
                {
                  "internalType": "uint256",
                  "name": "loan",
                  "type": "uint256"
                },
                {
                  "internalType": "uint256",
                  "name": "colBals",
                  "type": "uint256"
                },
                {
                  "internalType": "address",
                  "name": "id",
                  "type": "address"
                },
                {
                  "internalType": "bool",
                  "name": "sentQuota",
                  "type": "bool"
                }
              ],
              "internalType": "struct Common.Contributor",
              "name": "cData",
              "type": "tuple"
            },
            {
              "components": [
                {
                  "internalType": "bool",
                  "name": "admin",
                  "type": "bool"
                },
                {
                  "internalType": "bool",
                  "name": "member",
                  "type": "bool"
                }
              ],
              "internalType": "struct Common.Rank",
              "name": "rank",
              "type": "tuple"
            },
            {
              "internalType": "uint8",
              "name": "slot",
              "type": "uint8"
            }
          ],
          "internalType": "struct Common.ContributorData",
          "name": "",
          "type": "tuple"
        }
      ],
      "stateMutability": "view",
      "type": "function"
    },
    {
      "inputs": [
        {
          "internalType": "uint256",
          "name": "epochId",
          "type": "uint256"
        }
      ],
      "name": "getRouter",
      "outputs": [
        {
          "internalType": "string",
          "name": "",
          "type": "string"
        }
      ],
      "stateMutability": "view",
      "type": "function"
    },
    {
      "inputs": [
        {
          "internalType": "uint256",
          "name": "epochId",
          "type": "uint256"
        }
      ],
      "name": "joinAPool",
      "outputs": [
        {
          "internalType": "bool",
          "name": "",
          "type": "bool"
        }
      ],
      "stateMutability": "nonpayable",
      "type": "function"
    },
    {
      "inputs": [
        {
          "internalType": "uint256",
          "name": "epochId",
          "type": "uint256"
        }
      ],
      "name": "liquidate",
      "outputs": [
        {
          "internalType": "bool",
          "name": "",
          "type": "bool"
        }
      ],
      "stateMutability": "nonpayable",
      "type": "function"
    },
    {
      "inputs": [],
      "name": "minContribution",
      "outputs": [
        {
          "internalType": "uint256",
          "name": "",
          "type": "uint256"
        }
      ],
      "stateMutability": "view",
      "type": "function"
    },
    {
      "inputs": [],
      "name": "ownershipManager",
      "outputs": [
        {
          "internalType": "address",
          "name": "",
          "type": "address"
        }
      ],
      "stateMutability": "view",
      "type": "function"
    },
    {
      "inputs": [],
      "name": "pause",
      "outputs": [],
      "stateMutability": "nonpayable",
      "type": "function"
    },
    {
      "inputs": [],
      "name": "paused",
      "outputs": [
        {
          "internalType": "bool",
          "name": "",
          "type": "bool"
        }
      ],
      "stateMutability": "view",
      "type": "function"
    },
    {
      "inputs": [
        {
          "internalType": "uint256",
          "name": "epochId",
          "type": "uint256"
        }
      ],
      "name": "payback",
      "outputs": [
        {
          "internalType": "bool",
          "name": "",
          "type": "bool"
        }
      ],
      "stateMutability": "nonpayable",
      "type": "function"
    },
    {
      "inputs": [
        {
          "internalType": "uint16",
          "name": "serviceRate",
          "type": "uint16"
        },
        {
          "internalType": "uint256",
          "name": "_minContribution",
          "type": "uint256"
        },
        {
          "internalType": "uint256",
          "name": "setUpFee",
          "type": "uint256"
        },
        {
          "internalType": "address",
          "name": "feeTo",
          "type": "address"
        },
        {
          "internalType": "address",
          "name": "assetClass",
          "type": "address"
        },
        {
          "internalType": "address",
          "name": "strategyManager",
          "type": "address"
        }
      ],
      "name": "performSetUp",
      "outputs": [],
      "stateMutability": "nonpayable",
      "type": "function"
    },
    {
      "inputs": [
        {
          "internalType": "uint256",
          "name": "",
          "type": "uint256"
        },
        {
          "internalType": "address",
          "name": "",
          "type": "address"
        }
      ],
      "name": "permits",
      "outputs": [
        {
          "internalType": "bool",
          "name": "",
          "type": "bool"
        }
      ],
      "stateMutability": "view",
      "type": "function"
    },
    {
      "inputs": [
        {
          "internalType": "uint256",
          "name": "epochId",
          "type": "uint256"
        }
      ],
      "name": "removeLiquidityPool",
      "outputs": [
        {
          "internalType": "bool",
          "name": "",
          "type": "bool"
        }
      ],
      "stateMutability": "nonpayable",
      "type": "function"
    },
    {
      "inputs": [
        {
          "internalType": "uint256",
          "name": "",
          "type": "uint256"
        }
      ],
      "name": "routers",
      "outputs": [
        {
          "internalType": "enum IFactory.Router",
          "name": "",
          "type": "uint8"
        }
      ],
      "stateMutability": "view",
      "type": "function"
    },
    {
      "inputs": [
        {
          "internalType": "address",
          "name": "feeTo",
          "type": "address"
        },
        {
          "internalType": "address",
          "name": "assetAdmin",
          "type": "address"
        },
        {
          "internalType": "uint16",
          "name": "serviceRate",
          "type": "uint16"
        },
        {
          "internalType": "uint256",
          "name": "_creationFee",
          "type": "uint256"
        }
      ],
      "name": "setContractData",
      "outputs": [
        {
          "internalType": "bool",
          "name": "",
          "type": "bool"
        }
      ],
      "stateMutability": "nonpayable",
      "type": "function"
    },
    {
      "inputs": [
        {
          "internalType": "uint256",
          "name": "minLiquidity",
          "type": "uint256"
        }
      ],
      "name": "setMinimumLiquidityPerProvider",
      "outputs": [],
      "stateMutability": "nonpayable",
      "type": "function"
    },
    {
      "inputs": [
        {
          "internalType": "address",
          "name": "newManager",
          "type": "address"
        }
      ],
      "name": "setOwnershipManager",
      "outputs": [
        {
          "internalType": "bool",
          "name": "",
          "type": "bool"
        }
      ],
      "stateMutability": "nonpayable",
      "type": "function"
    },
    {
      "inputs": [],
      "name": "unpause",
      "outputs": [],
      "stateMutability": "nonpayable",
      "type": "function"
    },
    {
      "inputs": [
        {
          "internalType": "uint256",
          "name": "epochId",
          "type": "uint256"
        }
      ],
      "name": "withdrawCollateral",
      "outputs": [
        {
          "internalType": "bool",
          "name": "",
          "type": "bool"
        }
      ],
      "stateMutability": "nonpayable",
      "type": "function"
    },
    {
      "inputs": [
        {
          "internalType": "uint256",
          "name": "value",
          "type": "uint256"
        }
      ],
      "name": "withdrawXFI",
      "outputs": [],
      "stateMutability": "nonpayable",
      "type": "function"
    },
    {
      "stateMutability": "payable",
      "type": "receive"
    }
  ],
  "transactionHash": "0x7ca3ec5dc7359aa8efc678b4bf03b33ef9aec03951d41763eaabfbcf9c189c1b",
  "args": [
    10,
    1000000000000000,
    0,
    "0xD7c271d20c9E323336bFC843AEb8deC23B346352",
    "0x1a375D2aEF1370B306B4aCc9d930e3C2defaBF9c",
    "0x0B097193b0B7a6bC240591351173540467f5f3d4",
    "0xe09e23F8a8032BB39326098802c970f9b48D726C"
  ],
  "numDeployments": 8,
  "solcInputHash": "4e977251fc340ade9728847bd065c455",
  "bytecode": "0x60806040523480156200001157600080fd5b5060405162005cb438038062005cb4833981016040819052620000349162000105565b600080546001600160a81b0319166001600160a01b039283161790556001600255600c95909555604080516080810182529386168085529286166020850181905261ffff90971690840181905294166060909201829052600380546001600160a01b0319908116909217905560048054740100000000000000000000000000000000000000009095026001600160b01b031990951690951793909317909355600580549092169092179055600b5562000191565b80516001600160a01b03811681146200010057600080fd5b919050565b600080600080600080600060e0888a0312156200012157600080fd5b875161ffff811681146200013457600080fd5b602089015160408a0151919850965094506200015360608901620000e8565b93506200016360808901620000e8565b92506200017360a08901620000e8565b91506200018360c08901620000e8565b905092959891949750929550565b615b1380620001a16000396000f3fe6080604052600436106101dc5760003560e01c80639501a2b411610102578063b88a391511610095578063dce0b4e411610064578063dce0b4e41461068f578063dde665b3146106a5578063f09734ec146106c5578063f6c8e244146106e557600080fd5b8063b88a3915146105ea578063be24cff814610622578063c4933c5014610642578063d21c87ad1461066257600080fd5b8063a846c2fd116100d1578063a846c2fd1461057f578063aaffadf31461059f578063b404763f146105b5578063b45ea91c146105c857600080fd5b80639501a2b414610453578063a4424cf414610473578063a68b91ab146104a0578063a73934761461055f57600080fd5b80634662ecbe1161017a5780636112fe2e116101495780636112fe2e146103c557806361737d62146103e55780637b3ce215146104055780638456cb591461043e57600080fd5b80634662ecbe1461030b578063490adbaf1461032e5780634e9c1118146103695780635c975abb146103a657600080fd5b80631c4df1f9116101b65780631c4df1f91461026e5780633f4ba83a146102a95780633fd97927146102be578063415f1240146102eb57600080fd5b80630e22d318146101e8578063184e495f1461020a5780631a055c1a1461023f57600080fd5b366101e357005b600080fd5b3480156101f457600080fd5b50610208610203366004615096565b610705565b005b34801561021657600080fd5b5061022a610225366004615096565b6107ef565b60405190151581526020015b60405180910390f35b34801561024b57600080fd5b5061025f61025a366004615096565b610835565b60405161023693929190615139565b34801561027a57600080fd5b5061022a61028936600461517e565b600160209081526000928352604080842090915290825290205460ff1681565b3480156102b557600080fd5b50610208610865565b3480156102ca57600080fd5b506102de6102d936600461517e565b6109b1565b60405161023691906151ae565b3480156102f757600080fd5b5061022a610306366004615096565b6109d9565b34801561031757600080fd5b50610320610a3c565b604051908152602001610236565b34801561033a57600080fd5b5061034e610349366004615096565b610a4d565b60408051825181526020928301519281019290925201610236565b34801561037557600080fd5b50610399610384366004615096565b600d6020526000908152604090205460ff1681565b60405161023691906151e3565b3480156103b257600080fd5b50600054600160a01b900460ff1661022a565b3480156103d157600080fd5b5061022a6103e0366004615096565b610a7f565b3480156103f157600080fd5b5061022a6104003660046151f6565b610b2c565b34801561041157600080fd5b50610425610420366004615096565b610c4a565b6040805192835262ffffff909116602083015201610236565b34801561044a57600080fd5b50610208610ca8565b34801561045f57600080fd5b5061020861046e366004615096565b610de0565b34801561047f57600080fd5b5061049361048e366004615096565b610fb4565b6040516102369190615213565b3480156104ac57600080fd5b5061051a60408051608081018252600080825260208201819052918101829052606081019190915250604080516080810182526003546001600160a01b0390811682526004548082166020840152600160a01b900461ffff1692820192909252600554909116606082015290565b604051610236919081516001600160a01b03908116825260208084015182169083015260408084015161ffff1690830152606092830151169181019190915260800190565b34801561056b57600080fd5b5061022a61057a366004615298565b611040565b34801561058b57600080fd5b5061022a61059a366004615096565b6110ec565b3480156105ab57600080fd5b50610320600c5481565b61022a6105c3366004615309565b611154565b3480156105d457600080fd5b506105dd6111bd565b60405161023691906154a1565b3480156105f657600080fd5b5060005461060a906001600160a01b031681565b6040516001600160a01b039091168152602001610236565b34801561062e57600080fd5b5061022a61063d366004615096565b6111c9565b34801561064e57600080fd5b5061022a61065d36600461551b565b61120e565b34801561066e57600080fd5b5061068261067d366004615096565b61122a565b604051610236919061562f565b34801561069b57600080fd5b50610320600b5481565b3480156106b157600080fd5b506102086106c0366004615642565b611249565b3480156106d157600080fd5b506103206106e036600461517e565b6113ad565b3480156106f157600080fd5b5061022a6107003660046156a2565b6113d0565b604051806060016040528060368152602001615a14603691396000546001600160a01b0316806107505760405162461bcd60e51b8152600401610747906156f1565b60405180910390fd5b6001600160a01b038116632f54bf6e336040516001600160e01b031960e084901b1681526001600160a01b039091166004820152602401602060405180830381865afa1580156107a4573d6000803e3d6000fd5b505050506040513d601f19601f820116820180604052508101906107c89190615728565b82906107e75760405162461bcd60e51b81526004016107479190615213565b505050600c55565b6000816107fd6003826114d4565b61082b83600080868152600d602052604090205460ff166001811115610825576108256151bd565b14611528565b5060019392505050565b61083d614f01565b6000808361084c6003826114d4565b61085760038661157e565b935093509350509193909250565b60408051808201909152601f81527f5061757361626c653a204f6e6c794f776e65722063616e20756e70617573650060208201526000546001600160a01b0316806108c25760405162461bcd60e51b8152600401610747906156f1565b6001600160a01b038116632f54bf6e336040516001600160e01b031960e084901b1681526001600160a01b039091166004820152602401602060405180830381865afa158015610916573d6000803e3d6000fd5b505050506040513d601f19601f8201168201806040525081019061093a9190615728565b82906109595760405162461bcd60e51b81526004016107479190615213565b5061096261160f565b6000805460ff60a01b191690557f5db9ee0a495bf2e6ff9c91a7834c1ba4fdd244a5e8aa4e537bd38aeae4b073aa335b6040516001600160a01b03909116815260200160405180910390a15050565b6109b9614f01565b826109c56003826114d4565b6109d16003848661163b565b949350505050565b60006109e361165e565b816109ef6003826114d4565b7f6331c76b8f9ca09cc047e142473bf42b132780412e8b8ca06d32cdeac1bebde5610a1e6003856116896116bf565b604051610a2b919061574a565b60405180910390a150600192915050565b6000610a4860036117c7565b905090565b604080518082019091526000808252602082015281610a6d6003826114d4565b610a786003846117da565b9392505050565b600081610a8d6003826114d4565b600083815260016020908152604080832033808552925290912054849160039160ff16610b085760405162461bcd60e51b815260206004820152602360248201527f46756e6348616e646c65723a204e6f205065726d697373696f6e2064657465636044820152621d195960ea1b6064820152608401610747565b610b13600387611893565b60019450610b2381846000611689565b50505050919050565b60408051808201909152601881527f4f6e6c794f776e65723a204e6f74207065726d697474656400000000000000006020820152600080549091906001600160a01b031680610b8d5760405162461bcd60e51b8152600401610747906156f1565b6001600160a01b038116632f54bf6e336040516001600160e01b031960e084901b1681526001600160a01b039091166004820152602401602060405180830381865afa158015610be1573d6000803e3d6000fd5b505050506040513d601f19601f82011682018060405250810190610c059190615728565b8290610c245760405162461bcd60e51b81526004016107479190615213565b50600080546001600160a01b0319166001600160a01b0386161790555060019392505050565b60008082610c596003826114d4565b6000610c666003866119bf565b9050610c938160400151606001516000836020015160400151610c8e678963dd8c2c5e000090565b611c19565b60209091015160400151909350915050915091565b60408051808201909152601d81527f5061757361626c653a204f6e6c794f776e65722063616e20706175736500000060208201526000546001600160a01b031680610d055760405162461bcd60e51b8152600401610747906156f1565b6001600160a01b038116632f54bf6e336040516001600160e01b031960e084901b1681526001600160a01b039091166004820152602401602060405180830381865afa158015610d59573d6000803e3d6000fd5b505050506040513d601f19601f82011682018060405250810190610d7d9190615728565b8290610d9c5760405162461bcd60e51b81526004016107479190615213565b50610da561165e565b6000805460ff60a01b1916600160a01b1790557f62e78cea01bee320cd4e420270b5ea74000d11b0c9f74754ebdbfc544b05a2586109923390565b604051806060016040528060238152602001615a4a602391396000546001600160a01b031680610e225760405162461bcd60e51b8152600401610747906156f1565b6001600160a01b038116632f54bf6e336040516001600160e01b031960e084901b1681526001600160a01b039091166004820152602401602060405180830381865afa158015610e76573d6000803e3d6000fd5b505050506040513d601f19601f82011682018060405250810190610e9a9190615728565b8290610eb95760405162461bcd60e51b81526004016107479190615213565b50600083118015610ecb575030318311155b610f175760405162461bcd60e51b815260206004820152601860248201527f56616c75652069732030207c7c20302062616c616c6e636500000000000000006044820152606401610747565b6003546040516000916001600160a01b03169085908381818185875af1925050503d8060008114610f64576040519150601f19603f3d011682016040523d82523d6000602084013e610f69565b606091505b5050905080610fae5760405162461bcd60e51b815260206004820152601160248201527015da5d1a191c985dd85b0811985a5b1959607a1b6044820152606401610747565b50505050565b606081610fc26003826114d4565b6000838152600d602052604081205460ff166001811115610fe557610fe56151bd565b14611014576040518060400160405280600c81526020016b141154935254d4d253d3915160a21b815250610a78565b505060408051808201909152600e81526d5045524d495353494f4e4c45535360901b6020820152919050565b6040805160018082528183019092526000918291829160208083019080368337019050509050338160008151811061107a5761107a615765565b60200260200101906001600160a01b031690816001600160a01b03168152505081600d60006110af8c8c8c8c8c8c8a8c611c35565b81526020810191909152604001600020805460ff1916600183818111156110d8576110d86151bd565b021790555060019998505050505050505050565b60006110f661165e565b816111026003826114d4565b7fe5b49c59ae8b1046a9026b4dcc4e120cbe3ebbb5cb271207dfa288693a2309f6610a1e604051806040016040528086815260200161113e3390565b6001600160a01b03169052600390611689611e58565b600061115e61165e565b8261116a6003826114d4565b7fdbc93f5bf07f6946972fcc72f7a6a64f00c4d3b954508053d62c3e6653a77e7e61119e6003863460ff8816611c0d612093565b6040516111ab919061574a565b60405180910390a15060019392505050565b6060610a486003612249565b60006111d361165e565b816111df6003826114d4565b610a788360016000868152600d602052604090205460ff166001811115611208576112086151bd565b146124ba565b805160009060019081600d846110af8c858d8d8d8d8d8a611c35565b611232614f92565b8161123e6003826114d4565b610a786003846119bf565b604051806060016040528060248152602001615a94602491396000546001600160a01b03168061128b5760405162461bcd60e51b8152600401610747906156f1565b6001600160a01b038116632f54bf6e336040516001600160e01b031960e084901b1681526001600160a01b039091166004820152602401602060405180830381865afa1580156112df573d6000803e3d6000fd5b505050506040513d601f19601f820116820180604052508101906113039190615728565b82906113225760405162461bcd60e51b81526004016107479190615213565b50600c879055604080516080810182526001600160a01b038088168083528188166020840181905261ffff8d169484018590529187166060909301839052600380546001600160a01b03199081169092179055600480546001600160b01b031916909217600160a01b90940293909317905560058054909216179055600b8690555050505050505050565b6000826113bb6003826114d4565b6113c760038585612507565b51949350505050565b6000604051806060016040528060278152602001615a6d602791396000546001600160a01b0316806114145760405162461bcd60e51b8152600401610747906156f1565b6001600160a01b038116632f54bf6e336040516001600160e01b031960e084901b1681526001600160a01b039091166004820152602401602060405180830381865afa158015611468573d6000803e3d6000fd5b505050506040513d601f19601f8201168201806040525081019061148c9190615728565b82906114ab5760405162461bcd60e51b81526004016107479190615213565b50600b546000036114bc57600b8490555b6114c96003878988612597565b979650505050505050565b6114dd826117c7565b81106115245760405162461bcd60e51b815260206004820152601660248201527522b837b1b41024b2103430b9903737ba103132b3b4b760511b6044820152606401610747565b5050565b600061153261165e565b8261153e6003826114d4565b61154d60038585611689612623565b506040518481527f79d50744e568d2dcbac1c613dc0f174be90b0121dbc73682de80b3c4ebc5d1e7906020016111ab565b611586614f01565b600080600061159586866119bf565b905060006115bc876115b3896006018560600151602001518a612821565b60ff1688612848565b8051604001519091504211156115ef57806115d561294d565b51825160c001516115e9908a908a90612507565b516115ff565b846115f861294d565b6020015160005b9199909850909650945050505050565b600054600160a01b900460ff1661163957604051638dfc202b60e01b815260040160405180910390fd5b565b611643614f01565b6109d184611655866006018686612821565b60ff1684612848565b600054600160a01b900460ff16156116395760405163d93c066560e01b815260040160405180910390fd5b60009182526001602090815260408084206001600160a01b03959095168452939052919020805460ff1916911515919091179055565b6116c7615063565b6000806116d4868661157e565b50915091506117136040518060400160405280600d81526020016c2737ba103232b330bab63a32b960991b8152508215156129a790919063ffffffff16565b3361171f8787836129c6565b8087600701878154811061173557611735615765565b60009182526020822060139190910201600c0180546001600160a01b0319166001600160a01b039390931692909217909155835160c0015161177c9060068a019089612821565b905061179388888385886000015160c00151612a93565b6117bb8860405180604001604052808a8152602001856001600160a01b031681525088611e58565b98975050505050505050565b60006117d4826003015490565b92915050565b604080518082019091526000808252602082015260006117fa84846119bf565b6060015160408051808201825281830180516001600160a01b039081163183528451915193516370a0823160e01b81529381166004850152939450909260208401929116906370a0823190602401602060405180830381865afa158015611865573d6000803e3d6000fd5b505050506040513d601f19601f82011682018060405250810190611889919061577b565b9052949350505050565b600033905060008360070183815481106118af576118af615765565b90600052602060002090601302016011016118ce856006018486612821565b60ff16815481106118e1576118e1615765565b60009182526020909120600560099092020101556118ff83836119bf565b606001516040908101519051627b8a6760e11b8152600481018490526001600160a01b0383811660248301529091169062f714ce906044016020604051808303816000875af1158015611956573d6000803e3d6000fd5b505050506040513d601f19601f8201168201806040525081019061197a9190615728565b6119ba5760405162461bcd60e51b815260206004820152601160248201527015da5d1a191c985dd85b0819985a5b1959607a1b6044820152606401610747565b505050565b6119c7614f92565b8260070182815481106119dc576119dc615765565b6000918252602080832060408051610120810182526013909402909101805461010085019081528452815160a080820184526001830154825260028301548286015260038301548285015260048301546060808401919091526005840154608080850191909152878701939093528451808301865260068501548152600785015481880152600885015481870152600985015481830152600a850154818501528786015284518084018652600b8501546001600160a01b039081168252600c860154811682890152600d860154811682880152600e860154168183015290870152600f83015491860191909152601082015460ff161515908501526011810180548351818602810186019094528084529495919460c08701949192909184015b82821015611bcc5760008481526020908190206040805161016081018252600986029092018054606084019081526001808301546080860152600283015460a0860152600383015460c0860152600483015460e086015260058301546101008087019190915260068401546001600160a01b03811661012088015260ff600160a01b90910481161515610140880152928652845180860186526007850154808516151582529190910483161515818801528587015260089092015416918301919091529083529092019101611afc565b50505090825250601282015460209091019060ff166004811115611bf257611bf26151bd565b6004811115611c0357611c036151bd565b9052509392505050565b678963dd8c2c5e000090565b6000611c2c846012858589841515612bc6565b95945050505050565b6000611c3f61165e565b60048054604051634df48c7360e11b81526001600160a01b0380881693820193909352869290911690639be918e690602401602060405180830381865afa158015611c8e573d6000803e3d6000fd5b505050506040513d601f19601f82011682018060405250810190611cb29190615728565b611cda57604051631e26fa1d60e11b81526001600160a01b0382166004820152602401610747565b600080846001811115611cef57611cef6151bd565b14905080611d40576001855111611d3b5760405162461bcd60e51b815260206004820152601060248201526f4d696e206f662032206d656d6265727360801b6044820152606401610747565b611d93565b60018a60ff1611611d935760405162461bcd60e51b815260206004820152601960248201527f526f757465723a2051756f72756d20697320696e76616c6964000000000000006044820152606401610747565b60006040518060e001604052808d61ffff1681526020018c60ff1681526020018b61ffff1681526020018a62ffffff168152602001898152602001878152602001886001600160a01b0316815250905060008215611dfb57611df6600383612c90565b611e06565b611e06600383612d99565b90507f9f863e268a0d18cc26555f1335b71f38bd64654c71f3abeec28fa25c8fc8f5a981604051611e379190615794565b60405180910390a15160400151608001519c9b505050505050505050505050565b611e60615063565b6000611e708585600001516119bf565b9050611eab8160e001516002604051806040016040528060118152602001705061796261636b206e6f7420726561647960781b815250612f14565b6000611ec08686600001518760200151612507565b604080518082019091526007815266139bc81919589d60ca1b60208201528151919250611eef911515906129a7565b6000611f02876007018760000151612f43565b905080611f4957611f1a876007018760000151613197565b611f2d876007018760000151600161341b565b611f44878460200151602001518860000151613489565b611f5c565b611f5c876007018760000151600461341b565b611f7b86602001518760000151611f7161294d565b5163ffffffff8916565b60208601516060840151518351611f939291906134da565b6020860151606084015180518451604090920151611fb29392906135a6565b611fc08787600001516119bf565b8460000181905250612088604051806101400160405280866000015160c00151856020015181518110611ff557611ff5615765565b60200260200101516000015160a0015181526020018860000151815260200160008152602001846000015181526020016000815260200188602001516001600160a01b031681526020018560600151604001516001600160a01b0316815260200160006001600160a01b03168152602001831515815260200160006001811115612081576120816151bd565b905261366d565b505050509392505050565b61209b615063565b60006120a787876119bf565b90506120e18160e0015160016040518060400160405280601081526020016f426f72726f77206e6f7420726561647960801b815250612f14565b60208101515160808201510361210a5760405163d77e83a360e01b815260040160405180910390fd5b6121178760070187613717565b61217860405180604001604052806011815260200170506f6f6c206e6f7420636f6d706c65746560781b81525061216783602001516000015184604001516040015161375090919063ffffffff16565b6040840151606001511015906129a7565b6114c9876040518060e001604052806121908861375c565b62ffffff1681526020018a6007018a815481106121af576121af615765565b9060005260206000209060130201601101856020015160200151815481106121d9576121d9615765565b6000918252602091829020600660099092020101546001600160a01b0316825281018a905260018b0154604086810151606001519201916122259161ffff600160a01b9091041661376e565b815260200188815260200161223c8763ffffffff16565b815260200184905261377a565b606081600701805480602002602001604051908101604052809291908181526020016000905b828210156124af5760008481526020808220604080516101208101825260138702909201805461010084019081528352815160a080820184526001830154825260028301548287015260038301548285015260048301546060808401919091526005840154608080850191909152868801939093528451808301865260068501548152600785015481890152600885015481870152600985015481830152600a850154818501528686015284518084018652600b8501546001600160a01b039081168252600c8601548116828a0152600d860154811682880152600e860154168183015290860152600f83015491850191909152601082015460ff161515908401526011810180548351818702810187019094528084529395919460c087019491929084015b828210156124655760008481526020908190206040805161016081018252600986029092018054606084019081526001808301546080860152600283015460a0860152600383015460c0860152600483015460e086015260058301546101008087019190915260068401546001600160a01b03811661012088015260ff600160a01b90910481161515610140880152928652845180860186526007850154808516151582529190910483161515818801528587015260089092015416918301919091529083529092019101612395565b50505090825250601282015460209091019060ff16600481111561248b5761248b6151bd565b600481111561249c5761249c6151bd565b815250508152602001906001019061226f565b505050509050919050565b60007f5a865fe8c80327e9cfdc12e1597f3cace81c345e16c2505a7baa93a4a7b66dd4610a1e60405180604001604052808681526020018515158152506003613b5890919063ffffffff16565b6040805180820190915260008082526020820152600061252785856119bf565b6040015160200151905061253f856006018486612821565b60ff166020830181905260009061255890879087612848565b60000151905061258b61258061257983606001516125734290565b90613e12565b8490613750565b608083015190613e1e565b83525090949350505050565b60006001600160a01b038416156125c6576001850180546001600160a01b0319166001600160a01b0386161790555b6001600160a01b038316156125ef5784546001600160a01b0319166001600160a01b0384161785555b61ffff82811610156126185760018501805461ffff60a01b1916600160a01b61ffff8516021790555b506001949350505050565b600061262f85856114d4565b600061263b86866119bf565b905033612649878783613e2a565b600061265361294d565b905085156126ed576126ca6040518060400160405280601f81526020017f466163746f72794c6962202d205075623a2043616e6e6f742063616e63656c008152506126c18a6007018a815481106126ac576126ac615765565b90600052602060002090601302016000015490565b600114906129a7565b604080840151810151600090815260058a0160205220805460ff1916905561273a565b60408051808201825260208082527f466163746f72794c6962202d20507269763a2043616e6e6f742063616e63656c90820152848201519182015160609092015161273a921015906129a7565b600088600701888154811061275157612751615765565b906000526020600020906013020160010160000181905550612779828860018863ffffffff16565b6127888860070188600461341b565b6128146040518061014001604052808560400151604001518152602001898152602001600081526020016000815260200160008152602001846001600160a01b031681526020018560600151604001516001600160a01b0316815260200160006001600160a01b03168152602001836020015115158152602001600180811115612081576120816151bd565b5095979650505050505050565b6001600160a01b039091166000908152602092835260408082209282529190925290205490565b612850614f01565b83600701828154811061286557612865615765565b9060005260206000209060130201601101838154811061288757612887615765565b60009182526020918290206040805161016081018252600990930290910180546060840190815260018201546080850152600282015460a0850152600382015460c0850152600482015460e085015260058201546101008086019190915260068301546001600160a01b03811661012087015260ff600160a01b9091048116151561014087015291855283518085018552600784015480841615158252919091048216151581870152948401949094526008015490921691810191909152949350505050565b6040805160a081018252600080825260208201819052918101829052606081018290526080810191909152506040805160a08101825260018082526000602083018190529282018390526060820152608081019190915290565b80826119ba5760405162461bcd60e51b81526004016107479190615213565b60006129d284846119bf565b905060006129e4856006018486612821565b905060ff811615612a2c5760405162461bcd60e51b815260206004820152600d60248201526c139bdd081c195c9b5a5d1d1959609a1b6044820152606401610747565b612a8c565b612a8c6040518060400160405280601681526020017541646d696e2063616e6e6f74206c697175696461746560501b8152508360600151606001516001600160a01b0316856001600160a01b0316141515156129a790919063ffffffff16565b5050505050565b81856007018581548110612aa957612aa9615765565b90600052602060002090601302016011018460ff1681548110612ace57612ace615765565b600091825260208083206006600990930201820180546001600160a01b039586166001600160a01b031990911617905585841683529088018082526040808420898552835280842060ff8916905593851683528152828220878352905290812055612b3985856119bf565b606001516040908101519051636d6ccde160e01b8152600481018690526001600160a01b038481166024830152838116604483015290911690636d6ccde1906064016020604051808303816000875af1158015612b9a573d6000803e3d6000fd5b505050506040513d601f19601f82011682018060405250810190612bbe9190615728565b505050505050565b6000606462ffffff8616811115612bf75760405163a371850b60e01b815262ffffff87166004820152602401610747565b6000612c0962ffffff88166064613750565b90506000612c2c87612c26612c1f8c600a6158c0565b8990613750565b90613ed2565b9050612c46612710612c268365ffffffffffff8616613750565b93508415612c8357612c83848b10156040518060400160405280601081526020016f496e73756666696369656e742058464960801b8152506129a7565b5050509695505050505050565b612c98615076565b6000612ca261294d565b905060008360a00151600081518110612cbd57612cbd615765565b60209081029190910101516002860154909150600090612ce79083906001600160a01b0316613ede565b604080518082018252600c81526b105b5bdd5b9d08195e1a5cdd60a21b6020808301919091526080890151600090815260058b019091529190912054919250612d359160ff16151590613f7f565b8251608086015160009081526005880160205260409020805460ff19169115159190911790558251612d6e908790879084908690613f9f565b80855260400151608001518351612d8a918891859080806140c6565b60208501525091949350505050565b612da1615076565b6000612dab61294d565b905060008360a00151600081518110612dc657612dc6615765565b60209081029190910101516002860154909150600090612df09083906001600160a01b0316613ede565b604084015190915060ff165b8560a0015151811015612f0a57836040015160ff168103612e4e57612e28878784868860200151613f9f565b80865260400151608001518451612e44918991869080806140c6565b6020860152612f02565b60008660a001518281518110612e6657612e66615765565b60200260200101519050612ec56040518060400160405280601381526020017241646d696e2073706f7474656420747769636560681b815250856001600160a01b0316836001600160a01b0316141515156129a790919063ffffffff16565b8551604001516080015160208601518651612ee7928b929091859190816140c6565b50612efe88876000015160400151608001516119bf565b8652505b600101612dfc565b5050505092915050565b6119ba81836004811115612f2a57612f2a6151bd565b856004811115612f3c57612f3c6151bd565b14906129a7565b600080838381548110612f5857612f58615765565b6000918252602080832060408051610120810182526013909402909101805461010085019081528452815160a080820184526001830154825260028301548286015260038301548285015260048301546060808401919091526005840154608080850191909152878701939093528451808301865260068501548152600785015481880152600885015481870152600985015481830152600a850154818501528786015284518084018652600b8501546001600160a01b039081168252600c860154811682890152600d860154811682880152600e860154168183015290870152600f83015491860191909152601082015460ff161515908501526011810180548351818602810186019094528084529495919460c08701949192909184015b828210156131485760008481526020908190206040805161016081018252600986029092018054606084019081526001808301546080860152600283015460a0860152600383015460c0860152600483015460e086015260058301546101008087019190915260068401546001600160a01b03811661012088015260ff600160a01b90910481161515610140880152928652845180860186526007850154808516151582529190910483161515818801528587015260089092015416918301919091529083529092019101613078565b50505090825250601282015460209091019060ff16600481111561316e5761316e6151bd565b600481111561317f5761317f6151bd565b90525060208101515160809091015114949350505050565b60008282815481106131ab576131ab615765565b6000918252602080832060408051610120810182526013909402909101805461010085019081528452815160a080820184526001830154825260028301548286015260038301548285015260048301546060808401919091526005840154608080850191909152878701939093528451808301865260068501548152600785015481880152600885015481870152600985015481830152600a850154818501528786015284518084018652600b8501546001600160a01b039081168252600c860154811682890152600d860154811682880152600e860154168183015290870152600f83015491860191909152601082015460ff161515908501526011810180548351818602810186019094528084529495919460c08701949192909184015b8282101561339b5760008481526020908190206040805161016081018252600986029092018054606084019081526001808301546080860152600283015460a0860152600383015460c0860152600483015460e086015260058301546101008087019190915260068401546001600160a01b03811661012088015260ff600160a01b909104811615156101408801529286528451808601865260078501548085161515825291909104831615158188015285870152600890920154169183019190915290835290920191016132cb565b50505090825250601282015460209091019060ff1660048111156133c1576133c16151bd565b60048111156133d2576133d26151bd565b90525060208101515160408083015101519192506133f09190613750565b83838154811061340257613402615765565b6000918252602090912060096013909202010155505050565b600581600481111561342f5761342f6151bd565b60ff161061343f5761343f6158cf565b8083838154811061345257613452615765565b60009182526020909120601260139092020101805460ff1916600183600481111561347f5761347f6151bd565b0217905550505050565b4283600701828154811061349f5761349f615765565b906000526020600020906013020160110183815481106134c1576134c1615765565b6000918252602090912060036009909202010155505050565b604051636eb1769f60e11b81526001600160a01b03848116600483015230602483015282919084169063dd62ed3e90604401602060405180830381865afa158015613529573d6000803e3d6000fd5b505050506040513d601f19601f8201168201806040525081019061354d919061577b565b10156119ba5760405162461bcd60e51b815260206004820152602260248201527f466163746f72794c69623a20496e73756666696369656e7420616c6c6f77616e604482015261636560f01b6064820152608401610747565b6040516323b872dd60e01b81526001600160a01b0385811660048301528281166024830152604482018490528416906323b872dd906064016020604051808303816000875af11580156135fd573d6000803e3d6000fd5b505050506040513d601f19601f820116820180604052508101906136219190615728565b610fae5760405162461bcd60e51b815260206004820152601b60248201527f466163746f72794c69623a205472616e73666572206661696c656400000000006044820152606401610747565b60008160c001516001600160a01b03166352784664836080015184600001518560400151866060015187602001518860a001518960e001518a61010001518b61012001516040518a63ffffffff1660e01b81526004016136d49897969594939291906158e5565b60206040518083038185885af11580156136f2573d6000803e3d6000fd5b50505050506040513d601f19601f820116820180604052508101906117d4919061577b565b81818154811061372957613729615765565b600091825260208220600f601390920201018054916137478361593d565b91905055505050565b6000610a788284615956565b60006117d461ffff8316610e10613750565b6000610a788383614173565b613782615063565b600061378c61294d565b905061379f84600701846040015161421a565b60008360200151905060006137d1866137c48860060188602001518960400151612821565b60ff168760400151612848565b8051606001519091506137e690610e1061596d565b42111561383e5760208501516001600160a01b0316336001600160a01b0316146138395733915061381c86866040015184614253565b613836868260400151876020015185896040015186614321565b90505b6138a4565b805160c001516001600160a01b0316336001600160a01b0316146138a45760405162461bcd60e51b815260206004820152601860248201527f5475726e2074696d6520686173206e6f742070617373656400000000000000006044820152606401610747565b6139166040518060400160405280601e81526020017f496e73756666696369656e7420436f6c6c61746572616c20696e2058464900008152506139098760c00151604001516060015188608001518960c0015160200151604001518a60a00151611c19565b60808801511015906129a7565b818660070186604001518154811061393057613930615765565b9060005260206000209060130201600b0160010160006101000a8154816001600160a01b0302191690836001600160a01b03160217905550613979866007018660400151614435565b613b2b8660070186604001518154811061399557613995615765565b9060005260206000209060130201601101604051806101000160405280886000015162ffffff168152602001613a008960c0015160200151608001518a60c0015160200151606001518b600001518c60c001516040015160600151614465909392919063ffffffff16565b604001518152602001613a23896000015162ffffff16613a1d4290565b90613e1e565b81526020018460000151606001518152602001613aed6040518061014001604052808b60c00151604001516060015181526020018b6040015181526020018b606001518152602001600081526020018b608001518152602001886001600160a01b031681526020018b60c0015160600151604001516001600160a01b031681526020018c60000160000160009054906101000a90046001600160a01b03166001600160a01b03168152602001896020015115158152602001600180811115612081576120816151bd565b815260200188608001518152602001856001600160a01b03168152602001846000015160e0015115158152508360200151846040015160ff16614586565b613b3e866007018660400151600261341b565b613b4c8686604001516119bf565b84525091949350505050565b613b60615063565b613b6e8383600001516119bf565b80825260e0015160408051808201909152601781527f416464204c6971756964697479206e6f742072656164790000000000000000006020820152613bb69190600090612f14565b6000613bc061294d565b9050826020015115613c60578251613bda90859033614253565b805183516007860180549091908110613bf557613bf5615765565b9060005260206000209060130201601101613c1b86600601613c143390565b8751612821565b60ff1681548110613c2e57613c2e615765565b600091825260209091206006600990920201018054911515600160a01b0260ff60a01b19909216919091179055613ce9565b815160200151518351600786018054613cc39392613c9a92918110613c8757613c87615765565b9060005260206000209060130201614691565b106040518060400160405280600a815260200169141d5888199a5b1b195960b21b8152506129a7565b8251613cd1908590336129c6565b8251613ce79085903360208501518551806140c6565b505b8160000151604001516040015184600701846000015181548110613d0f57613d0f615765565b90600052602060002090601302016006016003016000828254613d32919061596d565b90915550508251613d449085906119bf565b82528251600785018054613d7992908110613d6157613d61615765565b9060005260206000209060130201846020015161469b565b15613da857815160209081015101518351613d95918691613489565b613da8846007018460000151600161341b565b613dc3338351606081015151604091820151909101516134da565b613de63383516060810151805160409283015183015192909101519091906135a6565b613dfb338351606001516040015185516146de565b613e098484600001516119bf565b82525092915050565b6000610a788284615980565b6000610a78828461596d565b6000613e3a846006018385612821565b9050836007018381548110613e5157613e51615765565b90600052602060002090601302016011018160ff1681548110613e7657613e76615765565b600091825260209091206007600990920201015460ff16610fae5760405162461bcd60e51b81526020600482015260166024820152752330b1ba37b93ca634b11d1027b7363c9030b236b4b760511b6044820152606401610747565b6000610a7882846159a9565b6000613eea828461479d565b90506001600160a01b038116613f6957604051637316bcd160e01b81526001600160a01b038481166004830152831690637316bcd1906024016020604051808303816000875af1158015613f42573d6000803e3d6000fd5b505050506040513d601f19601f82011682018060405250810190613f6691906159bd565b90505b6001600160a01b0381166117d4576117d46158cf565b8082156119ba5760405162461bcd60e51b81526004016107479190615213565b613fa7614f92565b6000613fb161294d565b90506000613fbe8861480b565b90506140176040518060400160405280601781526020017f436f6c20636f76657261676520697320746f6f206c6f770000000000000000008152506064896060015162ffffff16101515156129a790919063ffffffff16565b614068826040015160ff16886040015161ffff16116102d0896040015161ffff1611156040518060400160405280601081526020016f24b73b30b634b210323ab930ba34b7b760811b81525061483b565b61407b858860c0015189608001516134da565b61408c886007018884898886614864565b61409688826119bf565b92506140a7868860c0015183614ca5565b6140bb858860c001518960800151896135a6565b505095945050505050565b6140ce614f01565b8660070186815481106140e3576140e3615765565b6000918252602082206011601390920201018054600101815581526007880180546141199190899081106126ac576126ac615765565b905061414d88600701888154811061413357614133615765565b906000526020600020906013020160000180546001019055565b6117bb888260405180604001604052808915158152602001881515815250898b88614d35565b600061271061ffff83161580614187575083155b156141965760009150506117d4565b6141d361ffff80168461ffff161060405180604001604052806011815260200170496e746572657374206f766572666c6f7760781b8152506129a7565b6141fb8161ffff168511604051806060016040528060268152602001615ab8602691396129a7565b6109d18161ffff16612c268561ffff168761375090919063ffffffff16565b61422261294d565b6040015160ff1682828154811061423b5761423b615765565b60009182526020909120600960139092020101555050565b600061425f84846119bf565b90506000614271856006018486612821565b905060ff8116156142c257612a276040518060400160405280600c81526020016b2737ba10309036b2b6b132b960a11b8152506142b2878460ff1688612848565b60209081015101511515906129a7565b612a8c6040518060400160405280601681526020017541646d696e2063616e6e6f74206c697175696461746560501b8152508360600151606001516001600160a01b0316856001600160a01b03161415156129a790919063ffffffff16565b614329614f01565b6143448761433b896006018787612821565b60ff1685612848565b8251606090810151825182015283516000910152600788018054919250614399918590811061437557614375615765565b9060005260206000209060130201601101826000015183602001518960ff16614586565b6143d98760070184815481106143b1576143b1615765565b906000526020600020906013020160110183600001518460200151846040015160ff16614586565b6040808201516001600160a01b03808816600090815260068b016020818152858320898452815285832060ff958616905592891682528083528482208883529092529290922090881690556114c990889061433b908787612821565b81818154811061444757614447615765565b6000918252602082206002601390920201018054916137478361593d565b61448960405180606001604052806000815260200160008152602001600081525090565b6144ad60405180606001604052806000815260200160008152602001600081525090565b61451a62278d0062ffffff8616118015906144d557506144d362ffffff8516603c614e12565b155b8562ffffff168562ffffff16111580156144fc57506144fa62ffffff8716603c614e12565b155b6040518060600160405280602581526020016159ef6025913961483b565b6145248686614173565b80825215611c2c5780516145449062ffffff861690612c26906001613750565b602082015262ffffff8084169085161161455f578051614578565b80516145789062ffffff80871691612c26918716613750565b604082015295945050505050565b60405180606001604052808481526020018381526020018260ff16815250848261ffff16815481106145ba576145ba615765565b6000918252602091829020835180516009939093029091019182558083015160018301556040808201516002840155606082015160038401556080820151600484015560a0820151600584015560c082015160068401805460e0909401516001600160a01b039092166001600160a81b031990941693909317600160a01b9115159190910217909155838301518051600784018054929095015161ffff1990921690151561ff0019161761010091151591909102179092559101516008909101805460ff191660ff90921691909117905550505050565b60006117d4825490565b6001820154600883015460009182916146b391613750565b905082156146c757600984015481146109d1565b60018401546146d585614691565b14949350505050565b6040516320d46be760e11b81526001600160a01b038481166004830152602482018390528316906341a8d7ce906044016020604051808303816000875af115801561472d573d6000803e3d6000fd5b505050506040513d601f19601f820116820180604052508101906147519190615728565b6119ba5760405162461bcd60e51b815260206004820152601e60248201527f416464696e67205573657220746f207374726174656779206661696c656400006044820152606401610747565b60405163f8806a1360e01b81526001600160a01b0382811660048301526000919084169063f8806a1390602401602060405180830381865afa1580156147e7573d6000803e3d6000fd5b505050506040513d601f19601f82011682018060405250810190610a7891906159bd565b60078101805460010181556000908152614824826117c7565b90506148368260030180546001019055565b919050565b8280156148455750815b8190610fae5760405162461bcd60e51b81526004016107479190615213565b6000614873866040015161375c565b905060006148a78760000151838461489f8b6020015160ff168c6080015161375090919063ffffffff16565b929190614465565b90506040518060a00160405280886020015160ff168152602001876040015160ff168152602001886060015162ffffff1681526020018362ffffff168152602001886000015161ffff1681525088848154811061490657614906615765565b906000526020600020906013020160010160008201518160000155602082015181600101556040820151816002015560608201518160030155608082015181600401559050506040518060a00160405280826000015181526020018260200151815260200188608001518152602001886080015181526020018481525088848154811061499557614995615765565b9060005260206000209060130201600601600082015181600001556020820151816001015560408201518160020155606082015181600301556080820151816004015590505060405180608001604052808860c001516001600160a01b0316815260200187608001516001600160a01b03168152602001866001600160a01b031681526020018860a00151600081518110614a3257614a32615765565b60200260200101516001600160a01b0316815250888481548110614a5857614a58615765565b6000918252602091829020835160139290920201600b810180546001600160a01b03199081166001600160a01b039485161790915592840151600c8201805485169184169190911790556040840151600d820180548516918416919091179055606090930151600e9093018054909216921691909117905587548490899085908110614ae657614ae6615765565b906000526020600020906013020160100160006101000a81548160ff021916908315150217905550878381548110614b2057614b20615765565b906000526020600020906013020160110160405180606001604052806040518061010001604052806000815260200160008152602001600081526020016000815260200160008152602001600081526020018b60a00151600081518110614b8957614b89615765565b6020908102919091018101516001600160a01b039081168352600092820183905292845260408051808201825260018082528184018190528684019190915294810183905286548086018855968352918190208551805160099098029091019687558082015194870194909455838201516002870155606084015160038701556080840151600487015560a0840151600587015560c084015160068701805460e0909601511515600160a01b026001600160a81b0319909616919094161793909317909155828201518051600786018054929094015115156101000261ff00199115159190911661ffff19909216919091171790915501516008909101805460ff9290921660ff19929092169190911790555050505050505050565b6040516301df211960e51b8152600481018290526001600160a01b038381166024830152841690633be42320906044016020604051808303816000875af1158015614cf4573d6000803e3d6000fd5b505050506040513d601f19601f82011682018060405250810190614d189190615728565b6119ba5760405163015cfd8160e31b815260040160405180910390fd5b614d3d614f01565b614d6e876007018481548110614d5557614d55615765565b9060005260206000209060130201601101878787614e1e565b6001600160a01b03841660009081526006880160209081526040808320868452909152902060ff8716905560078701805483919085908110614db257614db2615765565b90600052602060002090601302016011018760ff1681548110614dd757614dd7615765565b600091825260209091206006600990920201018054911515600160a01b0260ff60a01b199092169190911790556114c98760ff881685612848565b6000610a7882846159da565b82848460ff1681548110614e3457614e34615765565b906000526020600020906009020160080160006101000a81548160ff021916908360ff16021790555081848460ff1681548110614e7357614e73615765565b60009182526020918290208351600992909202016007018054939092015161ffff1990931690151561ff001916176101009215159290920291909117905583548190859060ff8616908110614eca57614eca615765565b6000918252602090912060099091020160060180546001600160a01b0319166001600160a01b039290921691909117905550505050565b6040518060600160405280614f5f60405180610100016040528060008152602001600081526020016000815260200160008152602001600081526020016000815260200160006001600160a01b031681526020016000151581525090565b8152602001614f8560405180604001604052806000151581526020016000151581525090565b8152600060209091015290565b6040805161012081019091526000610100820190815281908152602001614fe16040518060a0016040528060008152602001600081526020016000815260200160008152602001600081525090565b81526020016150186040518060a0016040528060008152602001600081526020016000815260200160008152602001600081525090565b8152604080516080810182526000808252602082810182905292820181905260608201529101908152600060208201819052604082018190526060808301526080909101905b905290565b604051806020016040528061505e614f92565b6040518060400160405280615089614f92565b815260200161505e614f01565b6000602082840312156150a857600080fd5b5035919050565b8051805183526020810151602084015260408101516040840152606081015160608401526080810151608084015260a081015160a084015260018060a01b0360c08201511660c084015260e0810151151560e08401525060208101516151276101008401828051151582526020908101511515910152565b506040015160ff166101409190910152565b6101a0810161514882866150af565b9215156101608201526101800152919050565b6001600160a01b038116811461517057600080fd5b50565b80356148368161515b565b6000806040838503121561519157600080fd5b8235915060208301356151a38161515b565b809150509250929050565b61016081016117d482846150af565b634e487b7160e01b600052602160045260246000fd5b60028110615170576151706151bd565b602081016151f0836151d3565b91905290565b60006020828403121561520857600080fd5b8135610a788161515b565b60006020808352835180602085015260005b8181101561524157858101830151858201604001528201615225565b506000604082860101526040601f19601f8301168501019250505092915050565b803561ffff8116811461483657600080fd5b803560ff8116811461483657600080fd5b803562ffffff8116811461483657600080fd5b60008060008060008060c087890312156152b157600080fd5b6152ba87615262565b95506152c860208801615274565b94506152d660408801615262565b93506152e460608801615285565b92506080870135915060a08701356152fb8161515b565b809150509295509295509295565b6000806040838503121561531c57600080fd5b8235915061532c60208401615274565b90509250929050565b60008151808452602080850194506020840160005b838110156153715761535d8783516150af565b61016096909601959082019060010161534a565b509495945050505050565b6005811061538c5761538c6151bd565b9052565b6000610260825151845260208301516153d7602086018280518252602081015160208301526040810151604083015260608101516060830152608081015160808301525050565b50604083810151805160c0870152602081015160e087015290810151610100860152606081015161012086015260808101516101408601525060608381015180516001600160a01b0390811661016088015260208201518116610180880152604082015181166101a0880152918101519091166101c08601525060808301516101e085015260a08301518015156102008601525060c08301518161022086015261548382860182615335565b91505060e083015161549961024086018261537c565b509392505050565b600060208083016020845280855180835260408601915060408160051b87010192506020870160005b828110156154f857603f198886030184526154e6858351615390565b945092850192908501906001016154ca565b5092979650505050505050565b634e487b7160e01b600052604160045260246000fd5b60008060008060008060c0878903121561553457600080fd5b61553d87615262565b9550602061554c818901615262565b955061555a60408901615285565b94506060880135935060808801356155718161515b565b925060a088013567ffffffffffffffff8082111561558e57600080fd5b818a0191508a601f8301126155a257600080fd5b8135818111156155b4576155b4615505565b8060051b604051601f19603f830116810181811085821117156155d9576155d9615505565b60405291825284820192508381018501918d8311156155f757600080fd5b938501935b8285101561561c5761560d85615173565b845293850193928501926155fc565b8096505050505050509295509295509295565b602081526000610a786020830184615390565b60008060008060008060c0878903121561565b57600080fd5b61566487615262565b9550602087013594506040870135935060608701356156828161515b565b925060808701356156928161515b565b915060a08701356152fb8161515b565b600080600080608085870312156156b857600080fd5b84356156c38161515b565b935060208501356156d38161515b565b92506156e160408601615262565b9396929550929360600135925050565b6020808252601a908201527f4f6e6c794f776e65723a204d616e61676572206e6f7420736574000000000000604082015260600190565b60006020828403121561573a57600080fd5b81518015158114610a7857600080fd5b60208152600082516020808401526109d16040840182615390565b634e487b7160e01b600052603260045260246000fd5b60006020828403121561578d57600080fd5b5051919050565b602081526000825161018060208401526157b26101a0840182615390565b9050602084015161549960408501826150af565b634e487b7160e01b600052601160045260246000fd5b600181815b808511156158175781600019048211156157fd576157fd6157c6565b8085161561580a57918102915b93841c93908002906157e1565b509250929050565b60008261582e575060016117d4565b8161583b575060006117d4565b8160018114615851576002811461585b57615877565b60019150506117d4565b60ff84111561586c5761586c6157c6565b50506001821b6117d4565b5060208310610133831016604e8410600b841016171561589a575081810a6117d4565b6158a483836157dc565b80600019048211156158b8576158b86157c6565b029392505050565b6000610a7860ff84168361581f565b634e487b7160e01b600052600160045260246000fd5b8881526020810188905260408101879052606081018690526001600160a01b038581166080830152841660a082015282151560c0820152610100810161592a836151d3565b8260e08301529998505050505050505050565b60006001820161594f5761594f6157c6565b5060010190565b80820281158282048414176117d4576117d46157c6565b808201808211156117d4576117d46157c6565b818103818111156117d4576117d46157c6565b634e487b7160e01b600052601260045260246000fd5b6000826159b8576159b8615993565b500490565b6000602082840312156159cf57600080fd5b8151610a788161515b565b6000826159e9576159e9615993565b50069056fe5574696c733a2046756c6c447572206f72204475724f6643686f696365206f6572666c6f77466163746f7279202d207365744d696e696d756d4c697175696469747950657250726f7669646572206e6f74207065726d6974746564466163746f7279202d207769746864726177584649206e6f74207065726d6974746564466163746f7279202d20736574436f6e747261637444617461206e6f74207065726d6974746564466163746f7279202d20706572666f726d5365745570206e6f74207065726d69747465645072696e636970616c2073686f756c642062652067726561746572207468616e203130303030a2646970667358221220537d5bb75006153782239c68161460a18a9fbf9d68fe9b5f1711e9dc03393c3d64736f6c63430008180033",
  "libraries": {
    "FactoryLib": "0x76685868B6c270d081450c488372E04F6db11494"
  },
  "devdoc": {
    "author": "Simplifinance - (Bobeu) ",
    "errors": {
      "EnforcedPause()": [
        {
          "details": "The operation failed because the contract is paused."
        }
      ],
      "ExpectedPause()": [
        {
          "details": "The operation failed because the contract is not paused."
        }
      ],
      "ReentrancyGuardReentrantCall()": [
        {
          "details": "Unauthorized reentrant call."
        }
      ]
    },
    "events": {
      "Paused(address)": {
        "details": "Emitted when the pause is triggered by `account`."
      },
      "Unpaused(address)": {
        "details": "Emitted when the pause is lifted by `account`."
      }
    },
    "kind": "dev",
    "methods": {
      "constructor": {
        "details": "Initializes state variables.",
        "params": {
          "assetClass": ": Asset manager contract.",
          "feeTo": ": Account to receive fees.",
          "minContribution": ": Minimum contribution amount.",
          "ownerShipManager": ": Accessibility manager contract",
          "serviceRate": ": Platform fee in %",
          "setUpFee": ": Amount to charge for setting a liquidity pool.",
          "strategyManager": ": Strategy manager contract."
        }
      },
      "createPermissionedPool(uint16,uint16,uint24,uint256,address,address[])": {
        "details": "Create permissioned pool See AbstractFactory.sol "
      },
      "createPermissionlessPool(uint16,uint8,uint16,uint24,uint256,address)": {
        "details": "Create permissionless See AbstractFactory.sol"
      },
      "enquireLiquidation(uint256)": {
        "details": "See FactoryLib.enquireLiquidation"
      },
      "epoches()": {
        "details": "Return current epoch.  This is also total epoches generated to date "
      },
      "getBalances(uint256)": {
        "details": "Returns both ERC20 and Native balances locked in an epoch",
        "params": {
          "epochId": ": Epoch Id"
        }
      },
      "getCollaterlQuote(uint256)": {
        "details": "Returns collaterl quote for the epoch.",
        "params": {
          "epochId": ": EpochId"
        },
        "returns": {
          "colCoverage": "Collateral coverage",
          "collateral": "Collateral"
        }
      },
      "getCurrentDebt(uint256,address)": {
        "params": {
          "epochId": ": Epoch Id",
          "target": ": Target user."
        }
      },
      "getFinance(uint256,uint8)": {
        "details": "Providers borrow from their pool provided the citeria are met.",
        "params": {
          "daysOfUseInHr": ": The time in hours the borrower wishes to retain the loan before paying back.",
          "epochId": ": Epoh Id user wants to borrow from. "
        }
      },
      "getPoolData(uint256)": {
        "details": "Returns a single pool for 'epochId'",
        "params": {
          "epochId": ": Epoch id."
        }
      },
      "getPoolFromAllEpoches()": {
        "details": "Returns pool from all epoched array "
      },
      "getProfile(uint256,address)": {
        "details": "Returns the profile of user",
        "params": {
          "epochId": ": Epoch Id",
          "user": ": User"
        }
      },
      "getRouter(uint256)": {
        "details": "Return the router for an epochId. "
      },
      "joinAPool(uint256)": {
        "details": "See AbstractFactory.sol "
      },
      "liquidate(uint256)": {
        "details": "Liquidate defaulter. Note: The expected repayment time for last paid contributor must have passed. See FactoryLib.liquidate() for more details.",
        "params": {
          "epochId": ": Epoch Id"
        }
      },
      "pause()": {
        "details": "Triggers stopped state. Requirements: Only owner role can call. - The contract must not be paused."
      },
      "paused()": {
        "details": "Returns true if the contract is paused, and false otherwise."
      },
      "payback(uint256)": {
        "details": "Return borrowed fund.",
        "params": {
          "epochId": ": Pool number. See FactoryLib.payback()."
        }
      },
      "performSetUp(uint16,uint256,uint256,address,address,address)": {
        "details": "See _setUp() for doc."
      },
      "removeLiquidityPool(uint256)": {
        "details": "Remove liquidity pool",
        "params": {
          "epochId": ": Epoch/Poool id"
        }
      },
      "setContractData(address,address,uint16,uint256)": {
        "details": "Set state variables.",
        "params": {
          "assetAdmin": ": AssetAdmin contract.",
          "feeTo": ": Fee receiver.",
          "serviceRate": ": fee in %. - Only-owner function."
        }
      },
      "setMinimumLiquidityPerProvider(uint256)": {
        "details": "Updates minimum liquidity of a pool.   Note: Only Owner function.",
        "params": {
          "minLiquidity": ": Minimum contribution."
        }
      },
      "setOwnershipManager(address)": {
        "params": {
          "newManager": ": New manager address"
        }
      },
      "unpause()": {
        "details": "Returns to normal state. Requirements: - Only owner role can call. - The contract must be paused."
      },
      "withdrawCollateral(uint256)": {
        "details": "Withdraws Collateral balance if any",
        "params": {
          "epochId": ": Epoch Id"
        }
      },
      "withdrawXFI(uint256)": {
        "details": "Withdraws XFI balances of this contract if any. OnlyOwner function",
        "params": {
          "value": ": Amount to withdraw"
        }
      }
    },
    "title": "Factory : Main contract",
    "version": 1
  },
  "userdoc": {
    "kind": "user",
    "methods": {
      "getCurrentDebt(uint256,address)": {
        "notice": "Returns the current debt of target user."
      },
      "getFinance(uint256,uint8)": {
        "notice": "Users can be members of multiple epoches. This enlarges the volume of funds they can access.  - This is a payable function since borrowers are required to stake XFI before they can access funds in epoches. - The contract must be in a usable state i.e not paused. - For the selected epoch, the getFinance() must already be unlocked. Unlocking  is automated soon as the required quorum for the epoch is achieved i.e the  numbers of providers equals the set quorum."
      },
      "permits(uint256,address)": {
        "notice": "Mapping of epochId to permit Permit is used to give instructions to the child contract who can withdraw from an epoch. Only one provider can withdraw at a time in an apoch."
      },
      "setOwnershipManager(address)": {
        "notice": "Set Ownership manager"
      }
    },
    "notice": "  A multi p2p lending and borrowing structure where liquidity providers are borrowers. We bring together users form different  parts of the world to form a liquidity synergy, where the pooled fund moved round them from the first to the last on the list in form of borrowed fund.The permissionless model allows users to create liquidity pool for anyone to participate while the  permissioned structure restricts participation only to the known members known as band.",
    "version": 1
  },
  "storageLayout": {
    "storage": [
      {
        "astId": 1529,
        "contract": "contracts/implementations/Factory.sol:Factory",
        "label": "ownershipManager",
        "offset": 0,
        "slot": "0",
        "type": "t_address"
      },
      {
        "astId": 1609,
        "contract": "contracts/implementations/Factory.sol:Factory",
        "label": "_paused",
        "offset": 20,
        "slot": "0",
        "type": "t_bool"
      },
      {
        "astId": 7437,
        "contract": "contracts/implementations/Factory.sol:Factory",
        "label": "permits",
        "offset": 0,
        "slot": "1",
        "type": "t_mapping(t_uint256,t_mapping(t_address,t_bool))"
      },
      {
        "astId": 367,
        "contract": "contracts/implementations/Factory.sol:Factory",
        "label": "_status",
        "offset": 0,
        "slot": "2",
        "type": "t_uint256"
      },
      {
        "astId": 838,
        "contract": "contracts/implementations/Factory.sol:Factory",
        "label": "data",
        "offset": 0,
        "slot": "3",
        "type": "t_struct(Data)3773_storage"
      },
      {
        "astId": 840,
        "contract": "contracts/implementations/Factory.sol:Factory",
        "label": "creationFee",
        "offset": 0,
        "slot": "11",
        "type": "t_uint256"
      },
      {
        "astId": 842,
        "contract": "contracts/implementations/Factory.sol:Factory",
        "label": "minContribution",
        "offset": 0,
        "slot": "12",
        "type": "t_uint256"
      },
      {
        "astId": 2663,
        "contract": "contracts/implementations/Factory.sol:Factory",
        "label": "routers",
        "offset": 0,
        "slot": "13",
        "type": "t_mapping(t_uint256,t_enum(Router)2191)"
      }
    ],
    "types": {
      "t_address": {
        "encoding": "inplace",
        "label": "address",
        "numberOfBytes": "20"
      },
      "t_array(t_struct(ContributorData)1894_storage)dyn_storage": {
        "base": "t_struct(ContributorData)1894_storage",
        "encoding": "dynamic_array",
        "label": "struct Common.ContributorData[]",
        "numberOfBytes": "32"
      },
      "t_array(t_struct(Pool)1790_storage)dyn_storage": {
        "base": "t_struct(Pool)1790_storage",
        "encoding": "dynamic_array",
        "label": "struct Common.Pool[]",
        "numberOfBytes": "32"
      },
      "t_bool": {
        "encoding": "inplace",
        "label": "bool",
        "numberOfBytes": "1"
      },
      "t_enum(FuncTag)1739": {
        "encoding": "inplace",
        "label": "enum Common.FuncTag",
        "numberOfBytes": "1"
      },
      "t_enum(Router)2191": {
        "encoding": "inplace",
        "label": "enum IFactory.Router",
        "numberOfBytes": "1"
      },
      "t_mapping(t_address,t_bool)": {
        "encoding": "mapping",
        "key": "t_address",
        "label": "mapping(address => bool)",
        "numberOfBytes": "32",
        "value": "t_bool"
      },
      "t_mapping(t_address,t_mapping(t_uint256,t_uint256))": {
        "encoding": "mapping",
        "key": "t_address",
        "label": "mapping(address => mapping(uint256 => uint256))",
        "numberOfBytes": "32",
        "value": "t_mapping(t_uint256,t_uint256)"
      },
      "t_mapping(t_uint256,t_bool)": {
        "encoding": "mapping",
        "key": "t_uint256",
        "label": "mapping(uint256 => bool)",
        "numberOfBytes": "32",
        "value": "t_bool"
      },
      "t_mapping(t_uint256,t_enum(Router)2191)": {
        "encoding": "mapping",
        "key": "t_uint256",
        "label": "mapping(uint256 => enum IFactory.Router)",
        "numberOfBytes": "32",
        "value": "t_enum(Router)2191"
      },
      "t_mapping(t_uint256,t_mapping(t_address,t_bool))": {
        "encoding": "mapping",
        "key": "t_uint256",
        "label": "mapping(uint256 => mapping(address => bool))",
        "numberOfBytes": "32",
        "value": "t_mapping(t_address,t_bool)"
      },
      "t_mapping(t_uint256,t_struct(Pool)1790_storage)": {
        "encoding": "mapping",
        "key": "t_uint256",
        "label": "mapping(uint256 => struct Common.Pool)",
        "numberOfBytes": "32",
        "value": "t_struct(Pool)1790_storage"
      },
      "t_mapping(t_uint256,t_uint256)": {
        "encoding": "mapping",
        "key": "t_uint256",
        "label": "mapping(uint256 => uint256)",
        "numberOfBytes": "32",
        "value": "t_uint256"
      },
      "t_struct(Addresses)1841_storage": {
        "encoding": "inplace",
        "label": "struct Common.Addresses",
        "members": [
          {
            "astId": 1834,
            "contract": "contracts/implementations/Factory.sol:Factory",
            "label": "asset",
            "offset": 0,
            "slot": "0",
            "type": "t_address"
          },
          {
            "astId": 1836,
            "contract": "contracts/implementations/Factory.sol:Factory",
            "label": "lastPaid",
            "offset": 0,
            "slot": "1",
            "type": "t_address"
          },
          {
            "astId": 1838,
            "contract": "contracts/implementations/Factory.sol:Factory",
            "label": "strategy",
            "offset": 0,
            "slot": "2",
            "type": "t_address"
          },
          {
            "astId": 1840,
            "contract": "contracts/implementations/Factory.sol:Factory",
            "label": "admin",
            "offset": 0,
            "slot": "3",
            "type": "t_address"
          }
        ],
        "numberOfBytes": "128"
      },
      "t_struct(ContractData)2331_storage": {
        "encoding": "inplace",
        "label": "struct IFactory.ContractData",
        "members": [
          {
            "astId": 2324,
            "contract": "contracts/implementations/Factory.sol:Factory",
            "label": "feeTo",
            "offset": 0,
            "slot": "0",
            "type": "t_address"
          },
          {
            "astId": 2326,
            "contract": "contracts/implementations/Factory.sol:Factory",
            "label": "assetAdmin",
            "offset": 0,
            "slot": "1",
            "type": "t_address"
          },
          {
            "astId": 2328,
            "contract": "contracts/implementations/Factory.sol:Factory",
            "label": "makerRate",
            "offset": 20,
            "slot": "1",
            "type": "t_uint16"
          },
          {
            "astId": 2330,
            "contract": "contracts/implementations/Factory.sol:Factory",
            "label": "strategyManager",
            "offset": 0,
            "slot": "2",
            "type": "t_address"
          }
        ],
        "numberOfBytes": "96"
      },
      "t_struct(Contributor)1760_storage": {
        "encoding": "inplace",
        "label": "struct Common.Contributor",
        "members": [
          {
            "astId": 1745,
            "contract": "contracts/implementations/Factory.sol:Factory",
            "label": "durOfChoice",
            "offset": 0,
            "slot": "0",
            "type": "t_uint256"
          },
          {
            "astId": 1747,
            "contract": "contracts/implementations/Factory.sol:Factory",
            "label": "expInterest",
            "offset": 0,
            "slot": "1",
            "type": "t_uint256"
          },
          {
            "astId": 1749,
            "contract": "contracts/implementations/Factory.sol:Factory",
            "label": "payDate",
            "offset": 0,
            "slot": "2",
            "type": "t_uint256"
          },
          {
            "astId": 1751,
            "contract": "contracts/implementations/Factory.sol:Factory",
            "label": "turnTime",
            "offset": 0,
            "slot": "3",
            "type": "t_uint256"
          },
          {
            "astId": 1753,
            "contract": "contracts/implementations/Factory.sol:Factory",
            "label": "loan",
            "offset": 0,
            "slot": "4",
            "type": "t_uint256"
          },
          {
            "astId": 1755,
            "contract": "contracts/implementations/Factory.sol:Factory",
            "label": "colBals",
            "offset": 0,
            "slot": "5",
            "type": "t_uint256"
          },
          {
            "astId": 1757,
            "contract": "contracts/implementations/Factory.sol:Factory",
            "label": "id",
            "offset": 0,
            "slot": "6",
            "type": "t_address"
          },
          {
            "astId": 1759,
            "contract": "contracts/implementations/Factory.sol:Factory",
            "label": "sentQuota",
            "offset": 20,
            "slot": "6",
            "type": "t_bool"
          }
        ],
        "numberOfBytes": "224"
      },
      "t_struct(ContributorData)1894_storage": {
        "encoding": "inplace",
        "label": "struct Common.ContributorData",
        "members": [
          {
            "astId": 1888,
            "contract": "contracts/implementations/Factory.sol:Factory",
            "label": "cData",
            "offset": 0,
            "slot": "0",
            "type": "t_struct(Contributor)1760_storage"
          },
          {
            "astId": 1891,
            "contract": "contracts/implementations/Factory.sol:Factory",
            "label": "rank",
            "offset": 0,
            "slot": "7",
            "type": "t_struct(Rank)1765_storage"
          },
          {
            "astId": 1893,
            "contract": "contracts/implementations/Factory.sol:Factory",
            "label": "slot",
            "offset": 0,
            "slot": "8",
            "type": "t_uint8"
          }
        ],
        "numberOfBytes": "288"
      },
      "t_struct(Counter)431_storage": {
        "encoding": "inplace",
        "label": "struct Counters.Counter",
        "members": [
          {
            "astId": 430,
            "contract": "contracts/implementations/Factory.sol:Factory",
            "label": "_value",
            "offset": 0,
            "slot": "0",
            "type": "t_uint256"
          }
        ],
        "numberOfBytes": "32"
      },
      "t_struct(Data)3773_storage": {
        "encoding": "inplace",
        "label": "struct Data",
        "members": [
          {
            "astId": 3747,
            "contract": "contracts/implementations/Factory.sol:Factory",
            "label": "pData",
            "offset": 0,
            "slot": "0",
            "type": "t_struct(ContractData)2331_storage"
          },
          {
            "astId": 3750,
            "contract": "contracts/implementations/Factory.sol:Factory",
            "label": "epoches",
            "offset": 0,
            "slot": "3",
            "type": "t_struct(Counter)431_storage"
          },
          {
            "astId": 3756,
            "contract": "contracts/implementations/Factory.sol:Factory",
            "label": "pools",
            "offset": 0,
            "slot": "4",
            "type": "t_mapping(t_uint256,t_struct(Pool)1790_storage)"
          },
          {
            "astId": 3761,
            "contract": "contracts/implementations/Factory.sol:Factory",
            "label": "amountExist",
            "offset": 0,
            "slot": "5",
            "type": "t_mapping(t_uint256,t_bool)"
          },
          {
            "astId": 3768,
            "contract": "contracts/implementations/Factory.sol:Factory",
            "label": "slots",
            "offset": 0,
            "slot": "6",
            "type": "t_mapping(t_address,t_mapping(t_uint256,t_uint256))"
          },
          {
            "astId": 3772,
            "contract": "contracts/implementations/Factory.sol:Factory",
            "label": "poolArr",
            "offset": 0,
            "slot": "7",
            "type": "t_array(t_struct(Pool)1790_storage)dyn_storage"
          }
        ],
        "numberOfBytes": "256"
      },
      "t_struct(Pool)1790_storage": {
        "encoding": "inplace",
        "label": "struct Common.Pool",
        "members": [
          {
            "astId": 1769,
            "contract": "contracts/implementations/Factory.sol:Factory",
            "label": "userCount",
            "offset": 0,
            "slot": "0",
            "type": "t_struct(Counter)431_storage"
          },
          {
            "astId": 1772,
            "contract": "contracts/implementations/Factory.sol:Factory",
            "label": "uints",
            "offset": 0,
            "slot": "1",
            "type": "t_struct(Uints)1831_storage"
          },
          {
            "astId": 1775,
            "contract": "contracts/implementations/Factory.sol:Factory",
            "label": "uint256s",
            "offset": 0,
            "slot": "6",
            "type": "t_struct(Uint256s)1819_storage"
          },
          {
            "astId": 1778,
            "contract": "contracts/implementations/Factory.sol:Factory",
            "label": "addrs",
            "offset": 0,
            "slot": "11",
            "type": "t_struct(Addresses)1841_storage"
          },
          {
            "astId": 1780,
            "contract": "contracts/implementations/Factory.sol:Factory",
            "label": "allGh",
            "offset": 0,
            "slot": "15",
            "type": "t_uint256"
          },
          {
            "astId": 1782,
            "contract": "contracts/implementations/Factory.sol:Factory",
            "label": "isPermissionless",
            "offset": 0,
            "slot": "16",
            "type": "t_bool"
          },
          {
            "astId": 1786,
            "contract": "contracts/implementations/Factory.sol:Factory",
            "label": "cData",
            "offset": 0,
            "slot": "17",
            "type": "t_array(t_struct(ContributorData)1894_storage)dyn_storage"
          },
          {
            "astId": 1789,
            "contract": "contracts/implementations/Factory.sol:Factory",
            "label": "stage",
            "offset": 0,
            "slot": "18",
            "type": "t_enum(FuncTag)1739"
          }
        ],
        "numberOfBytes": "608"
      },
      "t_struct(Rank)1765_storage": {
        "encoding": "inplace",
        "label": "struct Common.Rank",
        "members": [
          {
            "astId": 1762,
            "contract": "contracts/implementations/Factory.sol:Factory",
            "label": "admin",
            "offset": 0,
            "slot": "0",
            "type": "t_bool"
          },
          {
            "astId": 1764,
            "contract": "contracts/implementations/Factory.sol:Factory",
            "label": "member",
            "offset": 1,
            "slot": "0",
            "type": "t_bool"
          }
        ],
        "numberOfBytes": "32"
      },
      "t_struct(Uint256s)1819_storage": {
        "encoding": "inplace",
        "label": "struct Common.Uint256s",
        "members": [
          {
            "astId": 1810,
            "contract": "contracts/implementations/Factory.sol:Factory",
            "label": "fullInterest",
            "offset": 0,
            "slot": "0",
            "type": "t_uint256"
          },
          {
            "astId": 1812,
            "contract": "contracts/implementations/Factory.sol:Factory",
            "label": "intPerSec",
            "offset": 0,
            "slot": "1",
            "type": "t_uint256"
          },
          {
            "astId": 1814,
            "contract": "contracts/implementations/Factory.sol:Factory",
            "label": "unit",
            "offset": 0,
            "slot": "2",
            "type": "t_uint256"
          },
          {
            "astId": 1816,
            "contract": "contracts/implementations/Factory.sol:Factory",
            "label": "currentPool",
            "offset": 0,
            "slot": "3",
            "type": "t_uint256"
          },
          {
            "astId": 1818,
            "contract": "contracts/implementations/Factory.sol:Factory",
            "label": "epochId",
            "offset": 0,
            "slot": "4",
            "type": "t_uint256"
          }
        ],
        "numberOfBytes": "160"
      },
      "t_struct(Uints)1831_storage": {
        "encoding": "inplace",
        "label": "struct Common.Uints",
        "members": [
          {
            "astId": 1822,
            "contract": "contracts/implementations/Factory.sol:Factory",
            "label": "quorum",
            "offset": 0,
            "slot": "0",
            "type": "t_uint256"
          },
          {
            "astId": 1824,
            "contract": "contracts/implementations/Factory.sol:Factory",
            "label": "selector",
            "offset": 0,
            "slot": "1",
            "type": "t_uint256"
          },
          {
            "astId": 1826,
            "contract": "contracts/implementations/Factory.sol:Factory",
            "label": "colCoverage",
            "offset": 0,
            "slot": "2",
            "type": "t_uint256"
          },
          {
            "astId": 1828,
            "contract": "contracts/implementations/Factory.sol:Factory",
            "label": "duration",
            "offset": 0,
            "slot": "3",
            "type": "t_uint256"
          },
          {
            "astId": 1830,
            "contract": "contracts/implementations/Factory.sol:Factory",
            "label": "intRate",
            "offset": 0,
            "slot": "4",
            "type": "t_uint256"
          }
        ],
        "numberOfBytes": "160"
      },
      "t_uint16": {
        "encoding": "inplace",
        "label": "uint16",
        "numberOfBytes": "2"
      },
      "t_uint256": {
        "encoding": "inplace",
        "label": "uint256",
        "numberOfBytes": "32"
      },
      "t_uint8": {
        "encoding": "inplace",
        "label": "uint8",
        "numberOfBytes": "1"
      }
    }
  }
}