{
  "address": "0x73b4Ce8ad3D183F3CF2FC595b9F6398232e12f52",
  "abi": [
    {
      "inputs": [
        {
          "internalType": "address",
          "name": "attorney_",
          "type": "address"
        },
        {
          "internalType": "address",
          "name": "reserve_",
          "type": "address"
        },
        {
          "internalType": "address",
          "name": "initTokenReceiver",
          "type": "address"
        },
        {
          "internalType": "contract IOwnerShip",
          "name": "_ownershipMgr",
          "type": "address"
        }
      ],
      "stateMutability": "nonpayable",
      "type": "constructor"
    },
    {
      "inputs": [
        {
          "internalType": "address",
          "name": "",
          "type": "address"
        }
      ],
      "name": "AddressIsZero",
      "type": "error"
    },
    {
      "inputs": [],
      "name": "EnforcedPause",
      "type": "error"
    },
    {
      "inputs": [],
      "name": "ExpectedPause",
      "type": "error"
    },
    {
      "inputs": [],
      "name": "ManagerAddressIsZero",
      "type": "error"
    },
    {
      "inputs": [],
      "name": "NoPreviousLockDetected",
      "type": "error"
    },
    {
      "inputs": [],
      "name": "NotCallable",
      "type": "error"
    },
    {
      "inputs": [],
      "name": "NotPermittedToCall",
      "type": "error"
    },
    {
      "anonymous": false,
      "inputs": [
        {
          "indexed": true,
          "internalType": "address",
          "name": "owner",
          "type": "address"
        },
        {
          "indexed": true,
          "internalType": "address",
          "name": "spender",
          "type": "address"
        },
        {
          "indexed": false,
          "internalType": "uint256",
          "name": "value",
          "type": "uint256"
        }
      ],
      "name": "Approval",
      "type": "event"
    },
    {
      "anonymous": false,
      "inputs": [
        {
          "indexed": false,
          "internalType": "address",
          "name": "from",
          "type": "address"
        },
        {
          "indexed": false,
          "internalType": "uint256",
          "name": "amount",
          "type": "uint256"
        }
      ],
      "name": "Locked",
      "type": "event"
    },
    {
      "anonymous": false,
      "inputs": [
        {
          "indexed": false,
          "internalType": "address",
          "name": "account",
          "type": "address"
        }
      ],
      "name": "Paused",
      "type": "event"
    },
    {
      "anonymous": false,
      "inputs": [
        {
          "indexed": true,
          "internalType": "address",
          "name": "from",
          "type": "address"
        },
        {
          "indexed": true,
          "internalType": "address",
          "name": "to",
          "type": "address"
        },
        {
          "indexed": false,
          "internalType": "uint256",
          "name": "value",
          "type": "uint256"
        }
      ],
      "name": "Transfer",
      "type": "event"
    },
    {
      "anonymous": false,
      "inputs": [
        {
          "indexed": false,
          "internalType": "address",
          "name": "from",
          "type": "address"
        },
        {
          "indexed": false,
          "internalType": "uint256",
          "name": "amount",
          "type": "uint256"
        }
      ],
      "name": "UnLocked",
      "type": "event"
    },
    {
      "anonymous": false,
      "inputs": [
        {
          "indexed": false,
          "internalType": "address",
          "name": "account",
          "type": "address"
        }
      ],
      "name": "Unpaused",
      "type": "event"
    },
    {
      "inputs": [
        {
          "internalType": "address",
          "name": "who",
          "type": "address"
        }
      ],
      "name": "accountBalances",
      "outputs": [
        {
          "components": [
            {
              "internalType": "uint256",
              "name": "spendable",
              "type": "uint256"
            },
            {
              "components": [
                {
                  "internalType": "uint256",
                  "name": "value",
                  "type": "uint256"
                },
                {
                  "internalType": "address",
                  "name": "escapeTo",
                  "type": "address"
                }
              ],
              "internalType": "struct IERC20.Protected",
              "name": "locked",
              "type": "tuple"
            }
          ],
          "internalType": "struct IERC20.Balances",
          "name": "_bal",
          "type": "tuple"
        }
      ],
      "stateMutability": "view",
      "type": "function"
    },
    {
      "inputs": [
        {
          "internalType": "address",
          "name": "owner",
          "type": "address"
        },
        {
          "internalType": "address",
          "name": "spender",
          "type": "address"
        }
      ],
      "name": "allowance",
      "outputs": [
        {
          "internalType": "uint256",
          "name": "",
          "type": "uint256"
        }
      ],
      "stateMutability": "view",
      "type": "function"
    },
    {
      "inputs": [
        {
          "internalType": "address",
          "name": "spender",
          "type": "address"
        },
        {
          "internalType": "uint256",
          "name": "amount",
          "type": "uint256"
        }
      ],
      "name": "approve",
      "outputs": [
        {
          "internalType": "bool",
          "name": "",
          "type": "bool"
        }
      ],
      "stateMutability": "nonpayable",
      "type": "function"
    },
    {
      "inputs": [
        {
          "internalType": "address",
          "name": "account",
          "type": "address"
        }
      ],
      "name": "balanceOf",
      "outputs": [
        {
          "internalType": "uint256",
          "name": "_bal",
          "type": "uint256"
        }
      ],
      "stateMutability": "view",
      "type": "function"
    },
    {
      "inputs": [
        {
          "internalType": "uint256[]",
          "name": "amounts",
          "type": "uint256[]"
        },
        {
          "internalType": "address[]",
          "name": "accounts",
          "type": "address[]"
        }
      ],
      "name": "batchTransfer",
      "outputs": [
        {
          "internalType": "bool",
          "name": "",
          "type": "bool"
        }
      ],
      "stateMutability": "nonpayable",
      "type": "function"
    },
    {
      "inputs": [
        {
          "internalType": "uint256",
          "name": "amount",
          "type": "uint256"
        }
      ],
      "name": "burn",
      "outputs": [],
      "stateMutability": "nonpayable",
      "type": "function"
    },
    {
      "inputs": [],
      "name": "decimals",
      "outputs": [
        {
          "internalType": "uint8",
          "name": "",
          "type": "uint8"
        }
      ],
      "stateMutability": "view",
      "type": "function"
    },
    {
      "inputs": [
        {
          "internalType": "address",
          "name": "spender",
          "type": "address"
        },
        {
          "internalType": "uint256",
          "name": "subtractedValue",
          "type": "uint256"
        }
      ],
      "name": "decreaseAllowance",
      "outputs": [
        {
          "internalType": "bool",
          "name": "",
          "type": "bool"
        }
      ],
      "stateMutability": "nonpayable",
      "type": "function"
    },
    {
      "inputs": [],
      "name": "getAttorney",
      "outputs": [
        {
          "internalType": "address",
          "name": "_attorney",
          "type": "address"
        }
      ],
      "stateMutability": "view",
      "type": "function"
    },
    {
      "inputs": [
        {
          "internalType": "address",
          "name": "target",
          "type": "address"
        }
      ],
      "name": "getLockedInfo",
      "outputs": [
        {
          "components": [
            {
              "internalType": "uint256",
              "name": "value",
              "type": "uint256"
            },
            {
              "internalType": "address",
              "name": "escapeTo",
              "type": "address"
            }
          ],
          "internalType": "struct IERC20.Protected",
          "name": "_locked",
          "type": "tuple"
        }
      ],
      "stateMutability": "view",
      "type": "function"
    },
    {
      "inputs": [
        {
          "internalType": "address",
          "name": "spender",
          "type": "address"
        },
        {
          "internalType": "uint256",
          "name": "addedValue",
          "type": "uint256"
        }
      ],
      "name": "increaseAllowance",
      "outputs": [
        {
          "internalType": "bool",
          "name": "",
          "type": "bool"
        }
      ],
      "stateMutability": "nonpayable",
      "type": "function"
    },
    {
      "inputs": [
        {
          "internalType": "address",
          "name": "target",
          "type": "address"
        },
        {
          "internalType": "address",
          "name": "_routeTo",
          "type": "address"
        },
        {
          "internalType": "uint256",
          "name": "amount",
          "type": "uint256"
        }
      ],
      "name": "lockSpecial",
      "outputs": [
        {
          "internalType": "bool",
          "name": "",
          "type": "bool"
        }
      ],
      "stateMutability": "nonpayable",
      "type": "function"
    },
    {
      "inputs": [
        {
          "internalType": "address",
          "name": "_routeTo",
          "type": "address"
        },
        {
          "internalType": "uint256",
          "name": "amount",
          "type": "uint256"
        }
      ],
      "name": "lockToken",
      "outputs": [
        {
          "internalType": "bool",
          "name": "",
          "type": "bool"
        }
      ],
      "stateMutability": "nonpayable",
      "type": "function"
    },
    {
      "inputs": [],
      "name": "name",
      "outputs": [
        {
          "internalType": "string",
          "name": "",
          "type": "string"
        }
      ],
      "stateMutability": "view",
      "type": "function"
    },
    {
      "inputs": [],
      "name": "ownershipManager",
      "outputs": [
        {
          "internalType": "contract IOwnerShip",
          "name": "",
          "type": "address"
        }
      ],
      "stateMutability": "view",
      "type": "function"
    },
    {
      "inputs": [
        {
          "internalType": "address",
          "name": "accountToRetrieve",
          "type": "address"
        },
        {
          "components": [
            {
              "internalType": "uint256",
              "name": "spendable",
              "type": "uint256"
            },
            {
              "components": [
                {
                  "internalType": "uint256",
                  "name": "value",
                  "type": "uint256"
                },
                {
                  "internalType": "address",
                  "name": "escapeTo",
                  "type": "address"
                }
              ],
              "internalType": "struct IERC20.Protected",
              "name": "locked",
              "type": "tuple"
            }
          ],
          "internalType": "struct IERC20.Balances",
          "name": "_bal",
          "type": "tuple"
        }
      ],
      "name": "panicUnlock",
      "outputs": [
        {
          "internalType": "bool",
          "name": "feedback",
          "type": "bool"
        }
      ],
      "stateMutability": "nonpayable",
      "type": "function"
    },
    {
      "inputs": [],
      "name": "pause",
      "outputs": [],
      "stateMutability": "nonpayable",
      "type": "function"
    },
    {
      "inputs": [],
      "name": "paused",
      "outputs": [
        {
          "internalType": "bool",
          "name": "",
          "type": "bool"
        }
      ],
      "stateMutability": "view",
      "type": "function"
    },
    {
      "inputs": [
        {
          "internalType": "address",
          "name": "newAttorney",
          "type": "address"
        }
      ],
      "name": "setAttorney",
      "outputs": [],
      "stateMutability": "nonpayable",
      "type": "function"
    },
    {
      "inputs": [
        {
          "internalType": "address",
          "name": "newManager",
          "type": "address"
        }
      ],
      "name": "setOwnershipManager",
      "outputs": [
        {
          "internalType": "bool",
          "name": "",
          "type": "bool"
        }
      ],
      "stateMutability": "nonpayable",
      "type": "function"
    },
    {
      "inputs": [],
      "name": "symbol",
      "outputs": [
        {
          "internalType": "string",
          "name": "",
          "type": "string"
        }
      ],
      "stateMutability": "view",
      "type": "function"
    },
    {
      "inputs": [],
      "name": "totalSupply",
      "outputs": [
        {
          "internalType": "uint256",
          "name": "",
          "type": "uint256"
        }
      ],
      "stateMutability": "view",
      "type": "function"
    },
    {
      "inputs": [
        {
          "internalType": "address",
          "name": "to",
          "type": "address"
        },
        {
          "internalType": "uint256",
          "name": "amount",
          "type": "uint256"
        }
      ],
      "name": "transfer",
      "outputs": [
        {
          "internalType": "bool",
          "name": "",
          "type": "bool"
        }
      ],
      "stateMutability": "nonpayable",
      "type": "function"
    },
    {
      "inputs": [
        {
          "internalType": "address",
          "name": "from",
          "type": "address"
        },
        {
          "internalType": "address",
          "name": "to",
          "type": "address"
        },
        {
          "internalType": "uint256",
          "name": "amount",
          "type": "uint256"
        }
      ],
      "name": "transferFrom",
      "outputs": [
        {
          "internalType": "bool",
          "name": "",
          "type": "bool"
        }
      ],
      "stateMutability": "nonpayable",
      "type": "function"
    },
    {
      "inputs": [
        {
          "internalType": "uint256",
          "name": "amount",
          "type": "uint256"
        }
      ],
      "name": "unlockToken",
      "outputs": [
        {
          "internalType": "bool",
          "name": "",
          "type": "bool"
        }
      ],
      "stateMutability": "nonpayable",
      "type": "function"
    },
    {
      "inputs": [],
      "name": "unpause",
      "outputs": [],
      "stateMutability": "nonpayable",
      "type": "function"
    },
    {
      "stateMutability": "payable",
      "type": "receive"
    }
  ],
  "transactionHash": "0x9bb2e2b30079a4a1ff736cf491674a933130d1854874a7ec096f519df89b519e",
  "args": [
    "0xe3F9527da2412eB74E3BEa41a1cE4501C6b8566b",
    "0x982ea6Bb79a83217f7EA772b031974468404231b",
    "0xc6C6984F09c2f1815C23F8F3971A6d1945AE610C",
    "0x85f9819923B0C3B38516dbBb0156B93811e42DcE"
  ],
  "numDeployments": 1,
  "solcInputHash": "f780c2f11c4ccd0f85c921954ca3f88d",
  "bytecode": "0x60806040523480156200001157600080fd5b5060405162001fd938038062001fd98339810160408190526200003491620004f4565b600080546001600160a01b0319166001600160a01b038316179055838383836000805460ff60a01b19169055620000746001600160a01b038516620001d4565b6040805160a081018252601280825260006020808401918252845180860186529283527f53696d706c66696e616e636520546f6b656e0000000000000000000000000000838201528385019283528451808601909552600485527f54534654000000000000000000000000000000000000000000000000000000009085015260608301939093526001600160a01b038716608083015281516001805460ff191660ff90921691909117815592516002555190919060039062000137908262000634565b50606082015160038201906200014e908262000634565b5060809190910151600490910180546001600160a01b0319166001600160a01b0390921691909117905562000195620001843390565b692a5a058fc295ed0000006200024d565b620001ad826b033b2e3c9fd0803ce80000006200024d565b620001c682846b024306c4097859c43c000000620002df565b505050505050505062000741565b6001600160a01b0381166200024a576040517f08c379a000000000000000000000000000000000000000000000000000000000815260206004820152601b60248201527f4c69623a20546172676574206973207a65726f2061646472657373000000000060448201526064015b60405180910390fd5b50565b620002616001600160a01b038316620001d4565b6200026f60008383620003b9565b8060018001600082825462000285919062000700565b90915550506001600160a01b0382166000818152600660209081526040808320805486019055518481527fddf252ad1be2c89b69c2b068fc378daa952ba7f163c4a11628f55a4df523b3ef910160405180910390a35b5050565b620002f36001600160a01b038316620001d4565b6001600160a01b03808416600090815260066020908152604091829020825180840184528154815283518085019094526001820154845260029091015490931682820152820152805162000348908362000472565b60408051808201825282518490038152815180830183526020938401515190940184526001600160a01b039485168385015282810193845294841660009081526006835220935184559051805160018501550151600290920180546001600160a01b03191692909116919091179055565b620003de60005474010000000000000000000000000000000000000000900460ff1690565b156200046d576040517f08c379a000000000000000000000000000000000000000000000000000000000815260206004820152602a60248201527f45524332305061757361626c653a20746f6b656e207472616e7366657220776860448201527f696c652070617573656400000000000000000000000000000000000000000000606482015260840162000241565b505050565b80821015620002db576040517f08c379a000000000000000000000000000000000000000000000000000000000815260206004820152601360248201527f422069732067726561746572207468616e204100000000000000000000000000604482015260640162000241565b6001600160a01b03811681146200024a57600080fd5b600080600080608085870312156200050b57600080fd5b84516200051881620004de565b60208601519094506200052b81620004de565b60408601519093506200053e81620004de565b60608601519092506200055181620004de565b939692955090935050565b7f4e487b7100000000000000000000000000000000000000000000000000000000600052604160045260246000fd5b600181811c90821680620005a057607f821691505b602082108103620005da577f4e487b7100000000000000000000000000000000000000000000000000000000600052602260045260246000fd5b50919050565b601f8211156200046d576000816000526020600020601f850160051c810160208610156200060b5750805b601f850160051c820191505b818110156200062c5782815560010162000617565b505050505050565b81516001600160401b038111156200065057620006506200055c565b62000668816200066184546200058b565b84620005e0565b602080601f831160018114620006a05760008415620006875750858301515b600019600386901b1c1916600185901b1785556200062c565b600085815260208120601f198616915b82811015620006d157888601518255948401946001909101908401620006b0565b5085821015620006f05787850151600019600388901b60f8161c191681555b5050505050600190811b01905550565b808201808211156200073b577f4e487b7100000000000000000000000000000000000000000000000000000000600052601160045260246000fd5b92915050565b61188880620007516000396000f3fe6080604052600436106101855760003560e01c806370a08231116100d1578063a9059cbb1161008a578063dd2e0ac011610064578063dd2e0ac0146104c9578063dd62ed3e146104e9578063f627590b14610509578063fd9e31851461052957600080fd5b8063a9059cbb14610469578063b88a391514610489578063c52c1593146104a957600080fd5b806370a08231146103a05780638456cb59146103c05780638afb2207146103d557806395d89b4114610402578063a457c2d714610417578063a543fdf61461043757600080fd5b8063313ce5671161013e57806342966c681161011857806342966c68146102f45780635c975abb1461031457806361737d62146103335780636ff96d171461035357600080fd5b8063313ce5671461029d57806339509351146102bf5780633f4ba83a146102df57600080fd5b806306fdde03146101c1578063095ea7b3146101ec57806317be3fa51461021c57806318160ddd1461023c5780631fa29aad1461025b57806323b872dd1461027d57600080fd5b366101bc5760405162461bcd60e51b81526020600482015260026024820152614e4160f01b60448201526064015b60405180910390fd5b600080fd5b3480156101cd57600080fd5b506101d6610549565b6040516101e3919061141d565b60405180910390f35b3480156101f857600080fd5b5061020c610207366004611488565b6105de565b60405190151581526020016101e3565b34801561022857600080fd5b5061020c610237366004611488565b6105f8565b34801561024857600080fd5b506002545b6040519081526020016101e3565b34801561026757600080fd5b5061027b6102763660046114b2565b610651565b005b34801561028957600080fd5b5061020c6102983660046114d4565b610745565b3480156102a957600080fd5b5060015460405160ff90911681526020016101e3565b3480156102cb57600080fd5b5061020c6102da366004611488565b610769565b3480156102eb57600080fd5b5061027b61078b565b34801561030057600080fd5b5061027b61030f366004611510565b6108a0565b34801561032057600080fd5b50600054600160a01b900460ff1661020c565b34801561033f57600080fd5b5061020c61034e3660046114b2565b6108ad565b34801561035f57600080fd5b5061037361036e3660046114b2565b610993565b6040805182518152602092830151805184830152909201516001600160a01b0316908201526060016101e3565b3480156103ac57600080fd5b5061024d6103bb3660046114b2565b6109e6565b3480156103cc57600080fd5b5061027b610a04565b3480156103e157600080fd5b506103f56103f03660046114b2565b610b06565b6040516101e39190611529565b34801561040e57600080fd5b506101d6610b6d565b34801561042357600080fd5b5061020c610432366004611488565b610b7f565b34801561044357600080fd5b506005546001600160a01b03165b6040516001600160a01b0390911681526020016101e3565b34801561047557600080fd5b5061020c610484366004611488565b610bfa565b34801561049557600080fd5b50600054610451906001600160a01b031681565b3480156104b557600080fd5b5061020c6104c4366004611653565b610c08565b3480156104d557600080fd5b5061020c6104e4366004611510565b610caf565b3480156104f557600080fd5b5061024d61050436600461170c565b610d06565b34801561051557600080fd5b5061020c61052436600461173f565b610d31565b34801561053557600080fd5b5061020c6105443660046114d4565b610dbc565b60606001600201805461055b906117c5565b80601f0160208091040260200160405190810160405280929190818152602001828054610587906117c5565b80156105d45780601f106105a9576101008083540402835291602001916105d4565b820191906000526020600020905b8154815290600101906020018083116105b757829003601f168201915b5050505050905090565b6000336105ec818585610ed5565b60019150505b92915050565b6000610605338484610f5b565b7f9f1ec8c880f76798e7b793325d625e9b60e4082a553c98f42b6cda368dd6000833604080516001600160a01b039092168252602082018590520160405180910390a150600192915050565b6000546001600160a01b03168061067b57604051637e70a7e360e01b815260040160405180910390fd5b6001600160a01b038116632f54bf6e336040516001600160e01b031960e084901b1681526001600160a01b039091166004820152602401602060405180830381865afa1580156106cf573d6000803e3d6000fd5b505050506040513d601f19601f820116820180604052508101906106f391906117f9565b610710576040516315ed864b60e21b815260040160405180910390fd5b610722826001600160a01b0316611031565b50600580546001600160a01b0319166001600160a01b0392909216919091179055565b600033610753858285611087565b61075e8585856110bb565b506001949350505050565b6000336105ec81858561077c8383610d06565b610786919061181b565b610ed5565b6000546001600160a01b0316806107b557604051637e70a7e360e01b815260040160405180910390fd5b6001600160a01b038116632f54bf6e336040516001600160e01b031960e084901b1681526001600160a01b039091166004820152602401602060405180830381865afa158015610809573d6000803e3d6000fd5b505050506040513d601f19601f8201168201806040525081019061082d91906117f9565b61084a576040516315ed864b60e21b815260040160405180910390fd5b61085261117a565b6000805460ff60a01b191690557f5db9ee0a495bf2e6ff9c91a7834c1ba4fdd244a5e8aa4e537bd38aeae4b073aa335b6040516001600160a01b03909116815260200160405180910390a150565b6108aa33826111a6565b50565b600080546001600160a01b0316806108d857604051637e70a7e360e01b815260040160405180910390fd5b6001600160a01b038116632f54bf6e336040516001600160e01b031960e084901b1681526001600160a01b039091166004820152602401602060405180830381865afa15801561092c573d6000803e3d6000fd5b505050506040513d601f19601f8201168201806040525081019061095091906117f9565b61096d576040516315ed864b60e21b815260040160405180910390fd5b600080546001600160a01b0319166001600160a01b038516179055600191505b50919050565b61099b6113e0565b506001600160a01b0390811660009081526006602090815260409182902082518084018452815481528351808501909452600182015484526002909101549093168282015282015290565b6001600160a01b0381166000908152600660205260408120546105f2565b6000546001600160a01b031680610a2e57604051637e70a7e360e01b815260040160405180910390fd5b6001600160a01b038116632f54bf6e336040516001600160e01b031960e084901b1681526001600160a01b039091166004820152602401602060405180830381865afa158015610a82573d6000803e3d6000fd5b505050506040513d601f19601f82011682018060405250810190610aa691906117f9565b610ac3576040516315ed864b60e21b815260040160405180910390fd5b610acb611244565b6000805460ff60a01b1916600160a01b1790557f62e78cea01bee320cd4e420270b5ea74000d11b0c9f74754ebdbfc544b05a2586108823390565b604080518082019091526000808252602082015260055433906001600160a01b0316810361098d5750506001600160a01b03908116600090815260066020908152604091829020825180840190935260018101548352600201549092169181019190915290565b60606001600301805461055b906117c5565b60003381610b8d8286610d06565b905083811015610bed5760405162461bcd60e51b815260206004820152602560248201527f45524332303a2064656372656173656420616c6c6f77616e63652062656c6f77604482015264207a65726f60d81b60648201526084016101b3565b61075e8286868403610ed5565b6000336105ec8185856110bb565b80518251600091908114610c4d5760405162461bcd60e51b815260206004820152600c60248201526b155b995c5d585b081b1a5cdd60a21b60448201526064016101b3565b60005b8181101561075e576000848281518110610c6c57610c6c61183c565b602002602001015190506000868381518110610c8a57610c8a61183c565b60200260200101519050610ca5610c9e3390565b83836110bb565b5050600101610c50565b6000610cbb338361126f565b7f4e7407468c9afb1673f0eb43b54dbfa1f26fd38ee8918b42318c78efefac177333604080516001600160a01b039092168252602082018590520160405180910390a1506001919050565b6001600160a01b03918216600090815260076020908152604080832093909416825291909152205490565b600554600090610d49906001600160a01b0316611031565b6005546001600160a01b031633036105f2576001600160a01b038084166000908152600660209081526040808320600101839055858201518051920151909316825291902080549091019055815115610db357610db38383602001516020015184600001516110bb565b50600192915050565b600080546001600160a01b031680610de757604051637e70a7e360e01b815260040160405180910390fd5b6001600160a01b038116632f54bf6e336040516001600160e01b031960e084901b1681526001600160a01b039091166004820152602401602060405180830381865afa158015610e3b573d6000803e3d6000fd5b505050506040513d601f19601f82011682018060405250810190610e5f91906117f9565b610e7c576040516315ed864b60e21b815260040160405180910390fd5b610e87858585610f5b565b7f9f1ec8c880f76798e7b793325d625e9b60e4082a553c98f42b6cda368dd6000833604080516001600160a01b039092168252602082018690520160405180910390a1506001949350505050565b610ee7836001600160a01b0316611031565b610ef9826001600160a01b0316611031565b6001600160a01b0383811660008181526007602090815260408083209487168084529482529182902085905590518481527f8c5be1e5ebec7d5bd14f71427d1e84f3dd0314c0f7b2291e5b200ac8c7c3b92591015b60405180910390a3505050565b610f6d826001600160a01b0316611031565b6001600160a01b038084166000908152600660209081526040918290208251808401845281548152835180850190945260018201548452600290910154909316828201528201528051610fc09083611329565b60408051808201825282518490038152815180830183526020938401515190940184526001600160a01b039485168385015282810193845294841660009081526006835220935184559051805160018501550151600290920180546001600160a01b03191692909116919091179055565b6001600160a01b0381166108aa5760405162461bcd60e51b815260206004820152601b60248201527f4c69623a20546172676574206973207a65726f2061646472657373000000000060448201526064016101b3565b60006110938484610d06565b905060001981146110b5576110a88183611329565b6110b58484848403610ed5565b50505050565b6110cd836001600160a01b0316611031565b6110df826001600160a01b0316611031565b6110ea838383611373565b6001600160a01b03831660009081526006602052604090205461110d8183611329565b6001600160a01b0380851660008181526006602052604080822086860390559286168082529083902080548601905591517fddf252ad1be2c89b69c2b068fc378daa952ba7f163c4a11628f55a4df523b3ef9061116d9086815260200190565b60405180910390a36110b5565b600054600160a01b900460ff166111a457604051638dfc202b60e01b815260040160405180910390fd5b565b6111b8826001600160a01b0316611031565b6111c482600083611373565b6001600160a01b0382166000908152600660205260409020546111e78183611329565b6001600160a01b03831660008181526006602090815260408083208686039055600280548790039055518581529192917fddf252ad1be2c89b69c2b068fc378daa952ba7f163c4a11628f55a4df523b3ef9101610f4e565b505050565b600054600160a01b900460ff16156111a45760405163d93c066560e01b815260040160405180910390fd5b6001600160a01b038083166000908152600660209081526040918290208251808401845281548152835180850190945260018201548452600290910154841683830190815291810192909252519091166112dc57604051631ec4ebaf60e21b815260040160405180910390fd5b6020810151516112ec9083611329565b6001600160a01b03928316600090815260066020908152604080832060010180548690039055928101510151909316835290912080549091019055565b8082101561136f5760405162461bcd60e51b8152602060048201526013602482015272422069732067726561746572207468616e204160681b60448201526064016101b3565b5050565b600054600160a01b900460ff161561123f5760405162461bcd60e51b815260206004820152602a60248201527f45524332305061757361626c653a20746f6b656e207472616e736665722077686044820152691a5b19481c185d5cd95960b21b60648201526084016101b3565b60405180604001604052806000815260200161141860405180604001604052806000815260200160006001600160a01b031681525090565b905290565b60006020808352835180602085015260005b8181101561144b5785810183015185820160400152820161142f565b506000604082860101526040601f19601f8301168501019250505092915050565b80356001600160a01b038116811461148357600080fd5b919050565b6000806040838503121561149b57600080fd5b6114a48361146c565b946020939093013593505050565b6000602082840312156114c457600080fd5b6114cd8261146c565b9392505050565b6000806000606084860312156114e957600080fd5b6114f28461146c565b92506115006020850161146c565b9150604084013590509250925092565b60006020828403121561152257600080fd5b5035919050565b815181526020808301516001600160a01b031690820152604081016105f2565b634e487b7160e01b600052604160045260246000fd5b6040805190810167ffffffffffffffff8111828210171561158257611582611549565b60405290565b604051601f8201601f1916810167ffffffffffffffff811182821017156115b1576115b1611549565b604052919050565b600067ffffffffffffffff8211156115d3576115d3611549565b5060051b60200190565b600082601f8301126115ee57600080fd5b813560206116036115fe836115b9565b611588565b8083825260208201915060208460051b87010193508684111561162557600080fd5b602086015b848110156116485761163b8161146c565b835291830191830161162a565b509695505050505050565b6000806040838503121561166657600080fd5b823567ffffffffffffffff8082111561167e57600080fd5b818501915085601f83011261169257600080fd5b813560206116a26115fe836115b9565b82815260059290921b840181019181810190898411156116c157600080fd5b948201945b838610156116df578535825294820194908201906116c6565b965050860135925050808211156116f557600080fd5b50611702858286016115dd565b9150509250929050565b6000806040838503121561171f57600080fd5b6117288361146c565b91506117366020840161146c565b90509250929050565b600080828403608081121561175357600080fd5b61175c8461146c565b92506060601f198201121561177057600080fd5b61177861155f565b602085013581526040603f198301121561179157600080fd5b61179961155f565b9150604085013582526117ae6060860161146c565b602083015281602082015280925050509250929050565b600181811c908216806117d957607f821691505b60208210810361098d57634e487b7160e01b600052602260045260246000fd5b60006020828403121561180b57600080fd5b815180151581146114cd57600080fd5b808201808211156105f257634e487b7160e01b600052601160045260246000fd5b634e487b7160e01b600052603260045260246000fdfea264697066735822122007e26aed5b1bffab6d8c2c7b551984b26d1992d9a22090c8d0ba0dbd793a9d9a64736f6c63430008180033",
  "devdoc": {
    "errors": {
      "EnforcedPause()": [
        {
          "details": "The operation failed because the contract is paused."
        }
      ],
      "ExpectedPause()": [
        {
          "details": "The operation failed because the contract is not paused."
        }
      ]
    },
    "events": {
      "Approval(address,address,uint256)": {
        "details": "Emitted when the allowance of a `spender` for an `owner` is set by a call to {approve}. `value` is the new allowance."
      },
      "Paused(address)": {
        "details": "Emitted when the pause is triggered by `account`."
      },
      "Transfer(address,address,uint256)": {
        "details": "Emitted when `value` tokens are moved from one account (`from`) to another (`to`). Note that `value` may be zero."
      },
      "Unpaused(address)": {
        "details": "Emitted when the pause is lifted by `account`."
      }
    },
    "kind": "dev",
    "methods": {
      "accountBalances(address)": {
        "details": "See {IERC20-accountBalances}."
      },
      "allowance(address,address)": {
        "details": "See {IERC20-allowance}."
      },
      "approve(address,uint256)": {
        "details": "See {IERC20-approve}. NOTE: If `amount` is the maximum `uint256`, the allowance is not updated on `transferFrom`. This is semantically equivalent to an infinite approval. Requirements: - `spender` cannot be the zero address."
      },
      "balanceOf(address)": {
        "details": "See {IERC20-balanceOf}.",
        "params": {
          "account": ": Bytes32 address type Note: The function `balanceOf` complies with that ERC20 standard"
        }
      },
      "burn(uint256)": {
        "details": "Burns token of `amount`"
      },
      "decimals()": {
        "details": "Returns the number of decimals used to get its user representation. For example, if `decimals` equals `2`, a balance of `505` tokens should be displayed to a user as `5.05` (`505 / 10 ** 2`). Tokens usually opt for a value of 18, imitating the relationship between Ether and Wei. This is the default value returned by this function, unless it's overridden. NOTE: This information is only used for _display_ purposes: it in no way affects any of the arithmetic of the contract, including {IERC20-balanceOf} and {IERC20-transfer}."
      },
      "decreaseAllowance(address,uint256)": {
        "details": "Atomically decreases the allowance granted to `spender` by the caller. This is an alternative to {approve} that can be used as a mitigation for problems described in {IERC20-approve}. Emits an {Approval} event indicating the updated allowance. Requirements: - `spender` cannot be the zero address. - `spender` must have allowance for the caller of at least `subtractedValue`."
      },
      "getAttorney()": {
        "details": "Returns contracts account connected to the token contracts i.e.    - Attorney Note: Attorney account acts on behalf of a holders to retrive their token        in the event they lost access to their accounts."
      },
      "getLockedInfo(address)": {
        "details": "See IERC20.sol {getInfo}"
      },
      "increaseAllowance(address,uint256)": {
        "details": "Atomically increases the allowance granted to `spender` by the caller. This is an alternative to {approve} that can be used as a mitigation for problems described in {IERC20-approve}. Emits an {Approval} event indicating the updated allowance. Requirements: - `spender` cannot be the zero address."
      },
      "lockSpecial(address,address,uint256)": {
        "details": "See IERC20.sol {lockSpecial}"
      },
      "lockToken(address,uint256)": {
        "details": "See IERC20.sol {lockToken}"
      },
      "name()": {
        "details": "Returns the name of the token."
      },
      "pause()": {
        "details": "Triggers stopped state. Requirements: Only owner role can call. - The contract must not be paused."
      },
      "paused()": {
        "details": "Returns true if the contract is paused, and false otherwise."
      },
      "setAttorney(address)": {
        "details": "Replaces the attorney account. Only authorized owner account can perform this action."
      },
      "setOwnershipManager(address)": {
        "params": {
          "newManager": ": New manager address"
        }
      },
      "symbol()": {
        "details": "Returns the symbol of the token, usually a shorter version of the name."
      },
      "totalSupply()": {
        "details": "See {IERC20-totalSupply}."
      },
      "transfer(address,uint256)": {
        "details": "See {IERC20-transfer}. Requirements: - `to` cannot be the zero address. - the caller must have a balance of at least `amount`."
      },
      "transferFrom(address,address,uint256)": {
        "details": "See {IERC20-transferFrom}. Emits an {Approval} event indicating the updated allowance. This is not required by the EIP. See the note at the beginning of {ERC20}. NOTE: Does not update the allowance if the current allowance is the maximum `uint256`. Requirements: - `from` and `to` cannot be the zero address. - `from` must have a balance of at least `amount`. - the caller must have allowance for ``from``'s tokens of at least `amount`."
      },
      "unlockToken(uint256)": {
        "details": "See IERC20.sol {unlock}"
      },
      "unpause()": {
        "details": "Returns to normal state. Requirements: - Only owner role can call. - The contract must be paused."
      }
    },
    "version": 1
  },
  "userdoc": {
    "kind": "user",
    "methods": {
      "batchTransfer(uint256[],address[])": {
        "notice": "See IERC20.sol {batchTransfer} A dynamic transfer utility.  Note: The size of the amount array must match that of the  account's. Another benefit is that each of the addresses on the  list can be dynamically mapped to different amount."
      },
      "panicUnlock(address,(uint256,(uint256,address)))": {
        "notice": "See IERC20.sol {panicUnlock} Method is executed only of the caller is the attorney Note: Since the user is able to prove to the attorney that they own the lost account, they are also able to reclaim all balances."
      },
      "setOwnershipManager(address)": {
        "notice": "Set Ownership manager"
      }
    },
    "version": 1
  },
  "storageLayout": {
    "storage": [
      {
        "astId": 2443,
        "contract": "contracts/implementations/SimpliToken.sol:SimpliToken",
        "label": "ownershipManager",
        "offset": 0,
        "slot": "0",
        "type": "t_contract(IOwnerShip)3542"
      },
      {
        "astId": 2530,
        "contract": "contracts/implementations/SimpliToken.sol:SimpliToken",
        "label": "_paused",
        "offset": 20,
        "slot": "0",
        "type": "t_bool"
      },
      {
        "astId": 5661,
        "contract": "contracts/implementations/SimpliToken.sol:SimpliToken",
        "label": "tokenInfo",
        "offset": 0,
        "slot": "1",
        "type": "t_struct(TokenInfo)3239_storage"
      },
      {
        "astId": 5666,
        "contract": "contracts/implementations/SimpliToken.sol:SimpliToken",
        "label": "_balances",
        "offset": 0,
        "slot": "6",
        "type": "t_mapping(t_address,t_struct(Balances)3228_storage)"
      },
      {
        "astId": 5672,
        "contract": "contracts/implementations/SimpliToken.sol:SimpliToken",
        "label": "_allowances",
        "offset": 0,
        "slot": "7",
        "type": "t_mapping(t_address,t_mapping(t_address,t_uint256))"
      }
    ],
    "types": {
      "t_address": {
        "encoding": "inplace",
        "label": "address",
        "numberOfBytes": "20"
      },
      "t_bool": {
        "encoding": "inplace",
        "label": "bool",
        "numberOfBytes": "1"
      },
      "t_contract(IOwnerShip)3542": {
        "encoding": "inplace",
        "label": "contract IOwnerShip",
        "numberOfBytes": "20"
      },
      "t_mapping(t_address,t_mapping(t_address,t_uint256))": {
        "encoding": "mapping",
        "key": "t_address",
        "label": "mapping(address => mapping(address => uint256))",
        "numberOfBytes": "32",
        "value": "t_mapping(t_address,t_uint256)"
      },
      "t_mapping(t_address,t_struct(Balances)3228_storage)": {
        "encoding": "mapping",
        "key": "t_address",
        "label": "mapping(address => struct IERC20.Balances)",
        "numberOfBytes": "32",
        "value": "t_struct(Balances)3228_storage"
      },
      "t_mapping(t_address,t_uint256)": {
        "encoding": "mapping",
        "key": "t_address",
        "label": "mapping(address => uint256)",
        "numberOfBytes": "32",
        "value": "t_uint256"
      },
      "t_string_storage": {
        "encoding": "bytes",
        "label": "string",
        "numberOfBytes": "32"
      },
      "t_struct(Balances)3228_storage": {
        "encoding": "inplace",
        "label": "struct IERC20.Balances",
        "members": [
          {
            "astId": 3224,
            "contract": "contracts/implementations/SimpliToken.sol:SimpliToken",
            "label": "spendable",
            "offset": 0,
            "slot": "0",
            "type": "t_uint256"
          },
          {
            "astId": 3227,
            "contract": "contracts/implementations/SimpliToken.sol:SimpliToken",
            "label": "locked",
            "offset": 0,
            "slot": "1",
            "type": "t_struct(Protected)3222_storage"
          }
        ],
        "numberOfBytes": "96"
      },
      "t_struct(Protected)3222_storage": {
        "encoding": "inplace",
        "label": "struct IERC20.Protected",
        "members": [
          {
            "astId": 3219,
            "contract": "contracts/implementations/SimpliToken.sol:SimpliToken",
            "label": "value",
            "offset": 0,
            "slot": "0",
            "type": "t_uint256"
          },
          {
            "astId": 3221,
            "contract": "contracts/implementations/SimpliToken.sol:SimpliToken",
            "label": "escapeTo",
            "offset": 0,
            "slot": "1",
            "type": "t_address"
          }
        ],
        "numberOfBytes": "64"
      },
      "t_struct(TokenInfo)3239_storage": {
        "encoding": "inplace",
        "label": "struct IERC20.TokenInfo",
        "members": [
          {
            "astId": 3230,
            "contract": "contracts/implementations/SimpliToken.sol:SimpliToken",
            "label": "decimals",
            "offset": 0,
            "slot": "0",
            "type": "t_uint8"
          },
          {
            "astId": 3232,
            "contract": "contracts/implementations/SimpliToken.sol:SimpliToken",
            "label": "totalSupply",
            "offset": 0,
            "slot": "1",
            "type": "t_uint256"
          },
          {
            "astId": 3234,
            "contract": "contracts/implementations/SimpliToken.sol:SimpliToken",
            "label": "name",
            "offset": 0,
            "slot": "2",
            "type": "t_string_storage"
          },
          {
            "astId": 3236,
            "contract": "contracts/implementations/SimpliToken.sol:SimpliToken",
            "label": "symbol",
            "offset": 0,
            "slot": "3",
            "type": "t_string_storage"
          },
          {
            "astId": 3238,
            "contract": "contracts/implementations/SimpliToken.sol:SimpliToken",
            "label": "attorney",
            "offset": 0,
            "slot": "4",
            "type": "t_address"
          }
        ],
        "numberOfBytes": "160"
      },
      "t_uint256": {
        "encoding": "inplace",
        "label": "uint256",
        "numberOfBytes": "32"
      },
      "t_uint8": {
        "encoding": "inplace",
        "label": "uint8",
        "numberOfBytes": "1"
      }
    }
  }
}