{
  "address": "0x256BEd54b0843740481853fc781E7a5EC38b1575",
  "abi": [
    {
      "inputs": [
        {
          "internalType": "uint16",
          "name": "serviceRate",
          "type": "uint16"
        },
        {
          "internalType": "uint256",
          "name": "minContribution",
          "type": "uint256"
        },
        {
          "internalType": "uint256",
          "name": "setUpFee",
          "type": "uint256"
        },
        {
          "internalType": "address",
          "name": "feeTo",
          "type": "address"
        },
        {
          "internalType": "address",
          "name": "assetClass",
          "type": "address"
        },
        {
          "internalType": "address",
          "name": "strategyManager",
          "type": "address"
        },
        {
          "internalType": "address",
          "name": "ownerShipManager",
          "type": "address"
        }
      ],
      "stateMutability": "nonpayable",
      "type": "constructor"
    },
    {
      "inputs": [],
      "name": "AllMemberIsPaid",
      "type": "error"
    },
    {
      "inputs": [
        {
          "internalType": "uint24",
          "name": "ccr",
          "type": "uint24"
        }
      ],
      "name": "CollateralCoverageCannotGoBelow_100",
      "type": "error"
    },
    {
      "inputs": [],
      "name": "EnforcedPause",
      "type": "error"
    },
    {
      "inputs": [],
      "name": "ExpectedPause",
      "type": "error"
    },
    {
      "inputs": [],
      "name": "InsufficientFund",
      "type": "error"
    },
    {
      "inputs": [],
      "name": "OwnershipManagerIsNotSet",
      "type": "error"
    },
    {
      "inputs": [],
      "name": "QuorumIsInvalid",
      "type": "error"
    },
    {
      "inputs": [],
      "name": "ReentrancyGuardReentrantCall",
      "type": "error"
    },
    {
      "inputs": [
        {
          "internalType": "address",
          "name": "",
          "type": "address"
        }
      ],
      "name": "UnSupportedAsset",
      "type": "error"
    },
    {
      "inputs": [],
      "name": "UpdateStrategyError",
      "type": "error"
    },
    {
      "anonymous": false,
      "inputs": [
        {
          "components": [
            {
              "components": [
                {
                  "components": [
                    {
                      "internalType": "uint256",
                      "name": "_value",
                      "type": "uint256"
                    }
                  ],
                  "internalType": "struct Counters.Counter",
                  "name": "userCount",
                  "type": "tuple"
                },
                {
                  "components": [
                    {
                      "internalType": "uint256",
                      "name": "quorum",
                      "type": "uint256"
                    },
                    {
                      "internalType": "uint256",
                      "name": "selector",
                      "type": "uint256"
                    },
                    {
                      "internalType": "uint256",
                      "name": "colCoverage",
                      "type": "uint256"
                    },
                    {
                      "internalType": "uint256",
                      "name": "duration",
                      "type": "uint256"
                    },
                    {
                      "internalType": "uint256",
                      "name": "intRate",
                      "type": "uint256"
                    }
                  ],
                  "internalType": "struct Common.Uints",
                  "name": "uints",
                  "type": "tuple"
                },
                {
                  "components": [
                    {
                      "internalType": "uint256",
                      "name": "fullInterest",
                      "type": "uint256"
                    },
                    {
                      "internalType": "uint256",
                      "name": "intPerSec",
                      "type": "uint256"
                    },
                    {
                      "internalType": "uint256",
                      "name": "unit",
                      "type": "uint256"
                    },
                    {
                      "internalType": "uint256",
                      "name": "currentPool",
                      "type": "uint256"
                    },
                    {
                      "internalType": "uint256",
                      "name": "epochId",
                      "type": "uint256"
                    }
                  ],
                  "internalType": "struct Common.Uint256s",
                  "name": "uint256s",
                  "type": "tuple"
                },
                {
                  "components": [
                    {
                      "internalType": "address",
                      "name": "asset",
                      "type": "address"
                    },
                    {
                      "internalType": "address",
                      "name": "lastPaid",
                      "type": "address"
                    },
                    {
                      "internalType": "address",
                      "name": "strategy",
                      "type": "address"
                    },
                    {
                      "internalType": "address",
                      "name": "admin",
                      "type": "address"
                    }
                  ],
                  "internalType": "struct Common.Addresses",
                  "name": "addrs",
                  "type": "tuple"
                },
                {
                  "internalType": "uint256",
                  "name": "allGh",
                  "type": "uint256"
                },
                {
                  "internalType": "bool",
                  "name": "isPermissionless",
                  "type": "bool"
                },
                {
                  "components": [
                    {
                      "components": [
                        {
                          "internalType": "uint256",
                          "name": "durOfChoice",
                          "type": "uint256"
                        },
                        {
                          "internalType": "uint256",
                          "name": "expInterest",
                          "type": "uint256"
                        },
                        {
                          "internalType": "uint256",
                          "name": "payDate",
                          "type": "uint256"
                        },
                        {
                          "internalType": "uint256",
                          "name": "turnTime",
                          "type": "uint256"
                        },
                        {
                          "internalType": "uint256",
                          "name": "loan",
                          "type": "uint256"
                        },
                        {
                          "internalType": "uint256",
                          "name": "colBals",
                          "type": "uint256"
                        },
                        {
                          "internalType": "address",
                          "name": "id",
                          "type": "address"
                        },
                        {
                          "internalType": "bool",
                          "name": "sentQuota",
                          "type": "bool"
                        }
                      ],
                      "internalType": "struct Common.Contributor",
                      "name": "cData",
                      "type": "tuple"
                    },
                    {
                      "components": [
                        {
                          "internalType": "bool",
                          "name": "admin",
                          "type": "bool"
                        },
                        {
                          "internalType": "bool",
                          "name": "member",
                          "type": "bool"
                        }
                      ],
                      "internalType": "struct Common.Rank",
                      "name": "rank",
                      "type": "tuple"
                    },
                    {
                      "internalType": "uint8",
                      "name": "slot",
                      "type": "uint8"
                    }
                  ],
                  "internalType": "struct Common.ContributorData[]",
                  "name": "cData",
                  "type": "tuple[]"
                },
                {
                  "internalType": "enum Common.FuncTag",
                  "name": "stage",
                  "type": "uint8"
                }
              ],
              "internalType": "struct Common.Pool",
              "name": "pool",
              "type": "tuple"
            },
            {
              "components": [
                {
                  "components": [
                    {
                      "internalType": "uint256",
                      "name": "durOfChoice",
                      "type": "uint256"
                    },
                    {
                      "internalType": "uint256",
                      "name": "expInterest",
                      "type": "uint256"
                    },
                    {
                      "internalType": "uint256",
                      "name": "payDate",
                      "type": "uint256"
                    },
                    {
                      "internalType": "uint256",
                      "name": "turnTime",
                      "type": "uint256"
                    },
                    {
                      "internalType": "uint256",
                      "name": "loan",
                      "type": "uint256"
                    },
                    {
                      "internalType": "uint256",
                      "name": "colBals",
                      "type": "uint256"
                    },
                    {
                      "internalType": "address",
                      "name": "id",
                      "type": "address"
                    },
                    {
                      "internalType": "bool",
                      "name": "sentQuota",
                      "type": "bool"
                    }
                  ],
                  "internalType": "struct Common.Contributor",
                  "name": "cData",
                  "type": "tuple"
                },
                {
                  "components": [
                    {
                      "internalType": "bool",
                      "name": "admin",
                      "type": "bool"
                    },
                    {
                      "internalType": "bool",
                      "name": "member",
                      "type": "bool"
                    }
                  ],
                  "internalType": "struct Common.Rank",
                  "name": "rank",
                  "type": "tuple"
                },
                {
                  "internalType": "uint8",
                  "name": "slot",
                  "type": "uint8"
                }
              ],
              "internalType": "struct Common.ContributorData",
              "name": "cData",
              "type": "tuple"
            }
          ],
          "indexed": false,
          "internalType": "struct Common.CreatePoolReturnValue",
          "name": "",
          "type": "tuple"
        }
      ],
      "name": "BandCreated",
      "type": "event"
    },
    {
      "anonymous": false,
      "inputs": [
        {
          "indexed": false,
          "internalType": "uint256",
          "name": "epochId",
          "type": "uint256"
        }
      ],
      "name": "Cancellation",
      "type": "event"
    },
    {
      "anonymous": false,
      "inputs": [
        {
          "components": [
            {
              "components": [
                {
                  "components": [
                    {
                      "internalType": "uint256",
                      "name": "_value",
                      "type": "uint256"
                    }
                  ],
                  "internalType": "struct Counters.Counter",
                  "name": "userCount",
                  "type": "tuple"
                },
                {
                  "components": [
                    {
                      "internalType": "uint256",
                      "name": "quorum",
                      "type": "uint256"
                    },
                    {
                      "internalType": "uint256",
                      "name": "selector",
                      "type": "uint256"
                    },
                    {
                      "internalType": "uint256",
                      "name": "colCoverage",
                      "type": "uint256"
                    },
                    {
                      "internalType": "uint256",
                      "name": "duration",
                      "type": "uint256"
                    },
                    {
                      "internalType": "uint256",
                      "name": "intRate",
                      "type": "uint256"
                    }
                  ],
                  "internalType": "struct Common.Uints",
                  "name": "uints",
                  "type": "tuple"
                },
                {
                  "components": [
                    {
                      "internalType": "uint256",
                      "name": "fullInterest",
                      "type": "uint256"
                    },
                    {
                      "internalType": "uint256",
                      "name": "intPerSec",
                      "type": "uint256"
                    },
                    {
                      "internalType": "uint256",
                      "name": "unit",
                      "type": "uint256"
                    },
                    {
                      "internalType": "uint256",
                      "name": "currentPool",
                      "type": "uint256"
                    },
                    {
                      "internalType": "uint256",
                      "name": "epochId",
                      "type": "uint256"
                    }
                  ],
                  "internalType": "struct Common.Uint256s",
                  "name": "uint256s",
                  "type": "tuple"
                },
                {
                  "components": [
                    {
                      "internalType": "address",
                      "name": "asset",
                      "type": "address"
                    },
                    {
                      "internalType": "address",
                      "name": "lastPaid",
                      "type": "address"
                    },
                    {
                      "internalType": "address",
                      "name": "strategy",
                      "type": "address"
                    },
                    {
                      "internalType": "address",
                      "name": "admin",
                      "type": "address"
                    }
                  ],
                  "internalType": "struct Common.Addresses",
                  "name": "addrs",
                  "type": "tuple"
                },
                {
                  "internalType": "uint256",
                  "name": "allGh",
                  "type": "uint256"
                },
                {
                  "internalType": "bool",
                  "name": "isPermissionless",
                  "type": "bool"
                },
                {
                  "components": [
                    {
                      "components": [
                        {
                          "internalType": "uint256",
                          "name": "durOfChoice",
                          "type": "uint256"
                        },
                        {
                          "internalType": "uint256",
                          "name": "expInterest",
                          "type": "uint256"
                        },
                        {
                          "internalType": "uint256",
                          "name": "payDate",
                          "type": "uint256"
                        },
                        {
                          "internalType": "uint256",
                          "name": "turnTime",
                          "type": "uint256"
                        },
                        {
                          "internalType": "uint256",
                          "name": "loan",
                          "type": "uint256"
                        },
                        {
                          "internalType": "uint256",
                          "name": "colBals",
                          "type": "uint256"
                        },
                        {
                          "internalType": "address",
                          "name": "id",
                          "type": "address"
                        },
                        {
                          "internalType": "bool",
                          "name": "sentQuota",
                          "type": "bool"
                        }
                      ],
                      "internalType": "struct Common.Contributor",
                      "name": "cData",
                      "type": "tuple"
                    },
                    {
                      "components": [
                        {
                          "internalType": "bool",
                          "name": "admin",
                          "type": "bool"
                        },
                        {
                          "internalType": "bool",
                          "name": "member",
                          "type": "bool"
                        }
                      ],
                      "internalType": "struct Common.Rank",
                      "name": "rank",
                      "type": "tuple"
                    },
                    {
                      "internalType": "uint8",
                      "name": "slot",
                      "type": "uint8"
                    }
                  ],
                  "internalType": "struct Common.ContributorData[]",
                  "name": "cData",
                  "type": "tuple[]"
                },
                {
                  "internalType": "enum Common.FuncTag",
                  "name": "stage",
                  "type": "uint8"
                }
              ],
              "internalType": "struct Common.Pool",
              "name": "pool",
              "type": "tuple"
            },
            {
              "internalType": "uint256",
              "name": "debtBal",
              "type": "uint256"
            },
            {
              "internalType": "uint256",
              "name": "colBal",
              "type": "uint256"
            }
          ],
          "indexed": false,
          "internalType": "struct Common.CommonEventData",
          "name": "",
          "type": "tuple"
        }
      ],
      "name": "GetFinanced",
      "type": "event"
    },
    {
      "anonymous": false,
      "inputs": [
        {
          "components": [
            {
              "components": [
                {
                  "components": [
                    {
                      "internalType": "uint256",
                      "name": "_value",
                      "type": "uint256"
                    }
                  ],
                  "internalType": "struct Counters.Counter",
                  "name": "userCount",
                  "type": "tuple"
                },
                {
                  "components": [
                    {
                      "internalType": "uint256",
                      "name": "quorum",
                      "type": "uint256"
                    },
                    {
                      "internalType": "uint256",
                      "name": "selector",
                      "type": "uint256"
                    },
                    {
                      "internalType": "uint256",
                      "name": "colCoverage",
                      "type": "uint256"
                    },
                    {
                      "internalType": "uint256",
                      "name": "duration",
                      "type": "uint256"
                    },
                    {
                      "internalType": "uint256",
                      "name": "intRate",
                      "type": "uint256"
                    }
                  ],
                  "internalType": "struct Common.Uints",
                  "name": "uints",
                  "type": "tuple"
                },
                {
                  "components": [
                    {
                      "internalType": "uint256",
                      "name": "fullInterest",
                      "type": "uint256"
                    },
                    {
                      "internalType": "uint256",
                      "name": "intPerSec",
                      "type": "uint256"
                    },
                    {
                      "internalType": "uint256",
                      "name": "unit",
                      "type": "uint256"
                    },
                    {
                      "internalType": "uint256",
                      "name": "currentPool",
                      "type": "uint256"
                    },
                    {
                      "internalType": "uint256",
                      "name": "epochId",
                      "type": "uint256"
                    }
                  ],
                  "internalType": "struct Common.Uint256s",
                  "name": "uint256s",
                  "type": "tuple"
                },
                {
                  "components": [
                    {
                      "internalType": "address",
                      "name": "asset",
                      "type": "address"
                    },
                    {
                      "internalType": "address",
                      "name": "lastPaid",
                      "type": "address"
                    },
                    {
                      "internalType": "address",
                      "name": "strategy",
                      "type": "address"
                    },
                    {
                      "internalType": "address",
                      "name": "admin",
                      "type": "address"
                    }
                  ],
                  "internalType": "struct Common.Addresses",
                  "name": "addrs",
                  "type": "tuple"
                },
                {
                  "internalType": "uint256",
                  "name": "allGh",
                  "type": "uint256"
                },
                {
                  "internalType": "bool",
                  "name": "isPermissionless",
                  "type": "bool"
                },
                {
                  "components": [
                    {
                      "components": [
                        {
                          "internalType": "uint256",
                          "name": "durOfChoice",
                          "type": "uint256"
                        },
                        {
                          "internalType": "uint256",
                          "name": "expInterest",
                          "type": "uint256"
                        },
                        {
                          "internalType": "uint256",
                          "name": "payDate",
                          "type": "uint256"
                        },
                        {
                          "internalType": "uint256",
                          "name": "turnTime",
                          "type": "uint256"
                        },
                        {
                          "internalType": "uint256",
                          "name": "loan",
                          "type": "uint256"
                        },
                        {
                          "internalType": "uint256",
                          "name": "colBals",
                          "type": "uint256"
                        },
                        {
                          "internalType": "address",
                          "name": "id",
                          "type": "address"
                        },
                        {
                          "internalType": "bool",
                          "name": "sentQuota",
                          "type": "bool"
                        }
                      ],
                      "internalType": "struct Common.Contributor",
                      "name": "cData",
                      "type": "tuple"
                    },
                    {
                      "components": [
                        {
                          "internalType": "bool",
                          "name": "admin",
                          "type": "bool"
                        },
                        {
                          "internalType": "bool",
                          "name": "member",
                          "type": "bool"
                        }
                      ],
                      "internalType": "struct Common.Rank",
                      "name": "rank",
                      "type": "tuple"
                    },
                    {
                      "internalType": "uint8",
                      "name": "slot",
                      "type": "uint8"
                    }
                  ],
                  "internalType": "struct Common.ContributorData[]",
                  "name": "cData",
                  "type": "tuple[]"
                },
                {
                  "internalType": "enum Common.FuncTag",
                  "name": "stage",
                  "type": "uint8"
                }
              ],
              "internalType": "struct Common.Pool",
              "name": "pool",
              "type": "tuple"
            },
            {
              "internalType": "uint256",
              "name": "debtBal",
              "type": "uint256"
            },
            {
              "internalType": "uint256",
              "name": "colBal",
              "type": "uint256"
            }
          ],
          "indexed": false,
          "internalType": "struct Common.CommonEventData",
          "name": "",
          "type": "tuple"
        }
      ],
      "name": "Liquidated",
      "type": "event"
    },
    {
      "anonymous": false,
      "inputs": [
        {
          "components": [
            {
              "components": [
                {
                  "components": [
                    {
                      "internalType": "uint256",
                      "name": "_value",
                      "type": "uint256"
                    }
                  ],
                  "internalType": "struct Counters.Counter",
                  "name": "userCount",
                  "type": "tuple"
                },
                {
                  "components": [
                    {
                      "internalType": "uint256",
                      "name": "quorum",
                      "type": "uint256"
                    },
                    {
                      "internalType": "uint256",
                      "name": "selector",
                      "type": "uint256"
                    },
                    {
                      "internalType": "uint256",
                      "name": "colCoverage",
                      "type": "uint256"
                    },
                    {
                      "internalType": "uint256",
                      "name": "duration",
                      "type": "uint256"
                    },
                    {
                      "internalType": "uint256",
                      "name": "intRate",
                      "type": "uint256"
                    }
                  ],
                  "internalType": "struct Common.Uints",
                  "name": "uints",
                  "type": "tuple"
                },
                {
                  "components": [
                    {
                      "internalType": "uint256",
                      "name": "fullInterest",
                      "type": "uint256"
                    },
                    {
                      "internalType": "uint256",
                      "name": "intPerSec",
                      "type": "uint256"
                    },
                    {
                      "internalType": "uint256",
                      "name": "unit",
                      "type": "uint256"
                    },
                    {
                      "internalType": "uint256",
                      "name": "currentPool",
                      "type": "uint256"
                    },
                    {
                      "internalType": "uint256",
                      "name": "epochId",
                      "type": "uint256"
                    }
                  ],
                  "internalType": "struct Common.Uint256s",
                  "name": "uint256s",
                  "type": "tuple"
                },
                {
                  "components": [
                    {
                      "internalType": "address",
                      "name": "asset",
                      "type": "address"
                    },
                    {
                      "internalType": "address",
                      "name": "lastPaid",
                      "type": "address"
                    },
                    {
                      "internalType": "address",
                      "name": "strategy",
                      "type": "address"
                    },
                    {
                      "internalType": "address",
                      "name": "admin",
                      "type": "address"
                    }
                  ],
                  "internalType": "struct Common.Addresses",
                  "name": "addrs",
                  "type": "tuple"
                },
                {
                  "internalType": "uint256",
                  "name": "allGh",
                  "type": "uint256"
                },
                {
                  "internalType": "bool",
                  "name": "isPermissionless",
                  "type": "bool"
                },
                {
                  "components": [
                    {
                      "components": [
                        {
                          "internalType": "uint256",
                          "name": "durOfChoice",
                          "type": "uint256"
                        },
                        {
                          "internalType": "uint256",
                          "name": "expInterest",
                          "type": "uint256"
                        },
                        {
                          "internalType": "uint256",
                          "name": "payDate",
                          "type": "uint256"
                        },
                        {
                          "internalType": "uint256",
                          "name": "turnTime",
                          "type": "uint256"
                        },
                        {
                          "internalType": "uint256",
                          "name": "loan",
                          "type": "uint256"
                        },
                        {
                          "internalType": "uint256",
                          "name": "colBals",
                          "type": "uint256"
                        },
                        {
                          "internalType": "address",
                          "name": "id",
                          "type": "address"
                        },
                        {
                          "internalType": "bool",
                          "name": "sentQuota",
                          "type": "bool"
                        }
                      ],
                      "internalType": "struct Common.Contributor",
                      "name": "cData",
                      "type": "tuple"
                    },
                    {
                      "components": [
                        {
                          "internalType": "bool",
                          "name": "admin",
                          "type": "bool"
                        },
                        {
                          "internalType": "bool",
                          "name": "member",
                          "type": "bool"
                        }
                      ],
                      "internalType": "struct Common.Rank",
                      "name": "rank",
                      "type": "tuple"
                    },
                    {
                      "internalType": "uint8",
                      "name": "slot",
                      "type": "uint8"
                    }
                  ],
                  "internalType": "struct Common.ContributorData[]",
                  "name": "cData",
                  "type": "tuple[]"
                },
                {
                  "internalType": "enum Common.FuncTag",
                  "name": "stage",
                  "type": "uint8"
                }
              ],
              "internalType": "struct Common.Pool",
              "name": "pool",
              "type": "tuple"
            },
            {
              "internalType": "uint256",
              "name": "debtBal",
              "type": "uint256"
            },
            {
              "internalType": "uint256",
              "name": "colBal",
              "type": "uint256"
            }
          ],
          "indexed": false,
          "internalType": "struct Common.CommonEventData",
          "name": "",
          "type": "tuple"
        }
      ],
      "name": "NewMemberAdded",
      "type": "event"
    },
    {
      "anonymous": false,
      "inputs": [
        {
          "indexed": false,
          "internalType": "address",
          "name": "account",
          "type": "address"
        }
      ],
      "name": "Paused",
      "type": "event"
    },
    {
      "anonymous": false,
      "inputs": [
        {
          "components": [
            {
              "components": [
                {
                  "components": [
                    {
                      "internalType": "uint256",
                      "name": "_value",
                      "type": "uint256"
                    }
                  ],
                  "internalType": "struct Counters.Counter",
                  "name": "userCount",
                  "type": "tuple"
                },
                {
                  "components": [
                    {
                      "internalType": "uint256",
                      "name": "quorum",
                      "type": "uint256"
                    },
                    {
                      "internalType": "uint256",
                      "name": "selector",
                      "type": "uint256"
                    },
                    {
                      "internalType": "uint256",
                      "name": "colCoverage",
                      "type": "uint256"
                    },
                    {
                      "internalType": "uint256",
                      "name": "duration",
                      "type": "uint256"
                    },
                    {
                      "internalType": "uint256",
                      "name": "intRate",
                      "type": "uint256"
                    }
                  ],
                  "internalType": "struct Common.Uints",
                  "name": "uints",
                  "type": "tuple"
                },
                {
                  "components": [
                    {
                      "internalType": "uint256",
                      "name": "fullInterest",
                      "type": "uint256"
                    },
                    {
                      "internalType": "uint256",
                      "name": "intPerSec",
                      "type": "uint256"
                    },
                    {
                      "internalType": "uint256",
                      "name": "unit",
                      "type": "uint256"
                    },
                    {
                      "internalType": "uint256",
                      "name": "currentPool",
                      "type": "uint256"
                    },
                    {
                      "internalType": "uint256",
                      "name": "epochId",
                      "type": "uint256"
                    }
                  ],
                  "internalType": "struct Common.Uint256s",
                  "name": "uint256s",
                  "type": "tuple"
                },
                {
                  "components": [
                    {
                      "internalType": "address",
                      "name": "asset",
                      "type": "address"
                    },
                    {
                      "internalType": "address",
                      "name": "lastPaid",
                      "type": "address"
                    },
                    {
                      "internalType": "address",
                      "name": "strategy",
                      "type": "address"
                    },
                    {
                      "internalType": "address",
                      "name": "admin",
                      "type": "address"
                    }
                  ],
                  "internalType": "struct Common.Addresses",
                  "name": "addrs",
                  "type": "tuple"
                },
                {
                  "internalType": "uint256",
                  "name": "allGh",
                  "type": "uint256"
                },
                {
                  "internalType": "bool",
                  "name": "isPermissionless",
                  "type": "bool"
                },
                {
                  "components": [
                    {
                      "components": [
                        {
                          "internalType": "uint256",
                          "name": "durOfChoice",
                          "type": "uint256"
                        },
                        {
                          "internalType": "uint256",
                          "name": "expInterest",
                          "type": "uint256"
                        },
                        {
                          "internalType": "uint256",
                          "name": "payDate",
                          "type": "uint256"
                        },
                        {
                          "internalType": "uint256",
                          "name": "turnTime",
                          "type": "uint256"
                        },
                        {
                          "internalType": "uint256",
                          "name": "loan",
                          "type": "uint256"
                        },
                        {
                          "internalType": "uint256",
                          "name": "colBals",
                          "type": "uint256"
                        },
                        {
                          "internalType": "address",
                          "name": "id",
                          "type": "address"
                        },
                        {
                          "internalType": "bool",
                          "name": "sentQuota",
                          "type": "bool"
                        }
                      ],
                      "internalType": "struct Common.Contributor",
                      "name": "cData",
                      "type": "tuple"
                    },
                    {
                      "components": [
                        {
                          "internalType": "bool",
                          "name": "admin",
                          "type": "bool"
                        },
                        {
                          "internalType": "bool",
                          "name": "member",
                          "type": "bool"
                        }
                      ],
                      "internalType": "struct Common.Rank",
                      "name": "rank",
                      "type": "tuple"
                    },
                    {
                      "internalType": "uint8",
                      "name": "slot",
                      "type": "uint8"
                    }
                  ],
                  "internalType": "struct Common.ContributorData[]",
                  "name": "cData",
                  "type": "tuple[]"
                },
                {
                  "internalType": "enum Common.FuncTag",
                  "name": "stage",
                  "type": "uint8"
                }
              ],
              "internalType": "struct Common.Pool",
              "name": "pool",
              "type": "tuple"
            },
            {
              "internalType": "uint256",
              "name": "debtBal",
              "type": "uint256"
            },
            {
              "internalType": "uint256",
              "name": "colBal",
              "type": "uint256"
            }
          ],
          "indexed": false,
          "internalType": "struct Common.CommonEventData",
          "name": "",
          "type": "tuple"
        }
      ],
      "name": "Payback",
      "type": "event"
    },
    {
      "anonymous": false,
      "inputs": [
        {
          "indexed": true,
          "internalType": "address",
          "name": "",
          "type": "address"
        },
        {
          "indexed": true,
          "internalType": "address",
          "name": "",
          "type": "address"
        }
      ],
      "name": "Rekeyed",
      "type": "event"
    },
    {
      "anonymous": false,
      "inputs": [
        {
          "indexed": false,
          "internalType": "uint256",
          "name": "",
          "type": "uint256"
        },
        {
          "components": [
            {
              "components": [
                {
                  "internalType": "uint256",
                  "name": "_value",
                  "type": "uint256"
                }
              ],
              "internalType": "struct Counters.Counter",
              "name": "userCount",
              "type": "tuple"
            },
            {
              "components": [
                {
                  "internalType": "uint256",
                  "name": "quorum",
                  "type": "uint256"
                },
                {
                  "internalType": "uint256",
                  "name": "selector",
                  "type": "uint256"
                },
                {
                  "internalType": "uint256",
                  "name": "colCoverage",
                  "type": "uint256"
                },
                {
                  "internalType": "uint256",
                  "name": "duration",
                  "type": "uint256"
                },
                {
                  "internalType": "uint256",
                  "name": "intRate",
                  "type": "uint256"
                }
              ],
              "internalType": "struct Common.Uints",
              "name": "uints",
              "type": "tuple"
            },
            {
              "components": [
                {
                  "internalType": "uint256",
                  "name": "fullInterest",
                  "type": "uint256"
                },
                {
                  "internalType": "uint256",
                  "name": "intPerSec",
                  "type": "uint256"
                },
                {
                  "internalType": "uint256",
                  "name": "unit",
                  "type": "uint256"
                },
                {
                  "internalType": "uint256",
                  "name": "currentPool",
                  "type": "uint256"
                },
                {
                  "internalType": "uint256",
                  "name": "epochId",
                  "type": "uint256"
                }
              ],
              "internalType": "struct Common.Uint256s",
              "name": "uint256s",
              "type": "tuple"
            },
            {
              "components": [
                {
                  "internalType": "address",
                  "name": "asset",
                  "type": "address"
                },
                {
                  "internalType": "address",
                  "name": "lastPaid",
                  "type": "address"
                },
                {
                  "internalType": "address",
                  "name": "strategy",
                  "type": "address"
                },
                {
                  "internalType": "address",
                  "name": "admin",
                  "type": "address"
                }
              ],
              "internalType": "struct Common.Addresses",
              "name": "addrs",
              "type": "tuple"
            },
            {
              "internalType": "uint256",
              "name": "allGh",
              "type": "uint256"
            },
            {
              "internalType": "bool",
              "name": "isPermissionless",
              "type": "bool"
            },
            {
              "components": [
                {
                  "components": [
                    {
                      "internalType": "uint256",
                      "name": "durOfChoice",
                      "type": "uint256"
                    },
                    {
                      "internalType": "uint256",
                      "name": "expInterest",
                      "type": "uint256"
                    },
                    {
                      "internalType": "uint256",
                      "name": "payDate",
                      "type": "uint256"
                    },
                    {
                      "internalType": "uint256",
                      "name": "turnTime",
                      "type": "uint256"
                    },
                    {
                      "internalType": "uint256",
                      "name": "loan",
                      "type": "uint256"
                    },
                    {
                      "internalType": "uint256",
                      "name": "colBals",
                      "type": "uint256"
                    },
                    {
                      "internalType": "address",
                      "name": "id",
                      "type": "address"
                    },
                    {
                      "internalType": "bool",
                      "name": "sentQuota",
                      "type": "bool"
                    }
                  ],
                  "internalType": "struct Common.Contributor",
                  "name": "cData",
                  "type": "tuple"
                },
                {
                  "components": [
                    {
                      "internalType": "bool",
                      "name": "admin",
                      "type": "bool"
                    },
                    {
                      "internalType": "bool",
                      "name": "member",
                      "type": "bool"
                    }
                  ],
                  "internalType": "struct Common.Rank",
                  "name": "rank",
                  "type": "tuple"
                },
                {
                  "internalType": "uint8",
                  "name": "slot",
                  "type": "uint8"
                }
              ],
              "internalType": "struct Common.ContributorData[]",
              "name": "cData",
              "type": "tuple[]"
            },
            {
              "internalType": "enum Common.FuncTag",
              "name": "stage",
              "type": "uint8"
            }
          ],
          "indexed": false,
          "internalType": "struct Common.Pool",
          "name": "",
          "type": "tuple"
        }
      ],
      "name": "RoundUp",
      "type": "event"
    },
    {
      "anonymous": false,
      "inputs": [
        {
          "indexed": false,
          "internalType": "address",
          "name": "account",
          "type": "address"
        }
      ],
      "name": "Unpaused",
      "type": "event"
    },
    {
      "inputs": [],
      "name": "analytics",
      "outputs": [
        {
          "internalType": "uint256",
          "name": "tvlInXFI",
          "type": "uint256"
        },
        {
          "internalType": "uint256",
          "name": "tvlInUsd",
          "type": "uint256"
        },
        {
          "internalType": "uint256",
          "name": "totalPermissioned",
          "type": "uint256"
        },
        {
          "internalType": "uint256",
          "name": "totalPermissionless",
          "type": "uint256"
        }
      ],
      "stateMutability": "view",
      "type": "function"
    },
    {
      "inputs": [
        {
          "internalType": "uint16",
          "name": "intRate",
          "type": "uint16"
        },
        {
          "internalType": "uint16",
          "name": "durationInHours",
          "type": "uint16"
        },
        {
          "internalType": "uint24",
          "name": "colCoverage",
          "type": "uint24"
        },
        {
          "internalType": "uint256",
          "name": "unitLiquidity",
          "type": "uint256"
        },
        {
          "internalType": "address",
          "name": "liquidAsset",
          "type": "address"
        },
        {
          "internalType": "address[]",
          "name": "contributors",
          "type": "address[]"
        }
      ],
      "name": "createPermissionedPool",
      "outputs": [
        {
          "internalType": "bool",
          "name": "",
          "type": "bool"
        }
      ],
      "stateMutability": "nonpayable",
      "type": "function"
    },
    {
      "inputs": [
        {
          "internalType": "uint16",
          "name": "intRate",
          "type": "uint16"
        },
        {
          "internalType": "uint8",
          "name": "quorum",
          "type": "uint8"
        },
        {
          "internalType": "uint16",
          "name": "durationInHours",
          "type": "uint16"
        },
        {
          "internalType": "uint24",
          "name": "colCoverage",
          "type": "uint24"
        },
        {
          "internalType": "uint256",
          "name": "unitLiquidity",
          "type": "uint256"
        },
        {
          "internalType": "address",
          "name": "liquidAsset",
          "type": "address"
        }
      ],
      "name": "createPermissionlessPool",
      "outputs": [
        {
          "internalType": "bool",
          "name": "",
          "type": "bool"
        }
      ],
      "stateMutability": "nonpayable",
      "type": "function"
    },
    {
      "inputs": [],
      "name": "creationFee",
      "outputs": [
        {
          "internalType": "uint256",
          "name": "",
          "type": "uint256"
        }
      ],
      "stateMutability": "view",
      "type": "function"
    },
    {
      "inputs": [
        {
          "internalType": "uint256",
          "name": "epochId",
          "type": "uint256"
        }
      ],
      "name": "enquireLiquidation",
      "outputs": [
        {
          "components": [
            {
              "components": [
                {
                  "internalType": "uint256",
                  "name": "durOfChoice",
                  "type": "uint256"
                },
                {
                  "internalType": "uint256",
                  "name": "expInterest",
                  "type": "uint256"
                },
                {
                  "internalType": "uint256",
                  "name": "payDate",
                  "type": "uint256"
                },
                {
                  "internalType": "uint256",
                  "name": "turnTime",
                  "type": "uint256"
                },
                {
                  "internalType": "uint256",
                  "name": "loan",
                  "type": "uint256"
                },
                {
                  "internalType": "uint256",
                  "name": "colBals",
                  "type": "uint256"
                },
                {
                  "internalType": "address",
                  "name": "id",
                  "type": "address"
                },
                {
                  "internalType": "bool",
                  "name": "sentQuota",
                  "type": "bool"
                }
              ],
              "internalType": "struct Common.Contributor",
              "name": "cData",
              "type": "tuple"
            },
            {
              "components": [
                {
                  "internalType": "bool",
                  "name": "admin",
                  "type": "bool"
                },
                {
                  "internalType": "bool",
                  "name": "member",
                  "type": "bool"
                }
              ],
              "internalType": "struct Common.Rank",
              "name": "rank",
              "type": "tuple"
            },
            {
              "internalType": "uint8",
              "name": "slot",
              "type": "uint8"
            }
          ],
          "internalType": "struct Common.ContributorData",
          "name": "",
          "type": "tuple"
        },
        {
          "internalType": "bool",
          "name": "",
          "type": "bool"
        },
        {
          "internalType": "uint256",
          "name": "",
          "type": "uint256"
        }
      ],
      "stateMutability": "view",
      "type": "function"
    },
    {
      "inputs": [],
      "name": "epoches",
      "outputs": [
        {
          "internalType": "uint256",
          "name": "",
          "type": "uint256"
        }
      ],
      "stateMutability": "view",
      "type": "function"
    },
    {
      "inputs": [
        {
          "internalType": "uint256",
          "name": "epochId",
          "type": "uint256"
        }
      ],
      "name": "getBalances",
      "outputs": [
        {
          "components": [
            {
              "internalType": "uint256",
              "name": "xfi",
              "type": "uint256"
            },
            {
              "internalType": "uint256",
              "name": "erc20",
              "type": "uint256"
            }
          ],
          "internalType": "struct Common.Balances",
          "name": "",
          "type": "tuple"
        }
      ],
      "stateMutability": "view",
      "type": "function"
    },
    {
      "inputs": [
        {
          "internalType": "uint256",
          "name": "epochId",
          "type": "uint256"
        }
      ],
      "name": "getCollaterlQuote",
      "outputs": [
        {
          "internalType": "uint256",
          "name": "collateral",
          "type": "uint256"
        },
        {
          "internalType": "uint24",
          "name": "colCoverage",
          "type": "uint24"
        }
      ],
      "stateMutability": "view",
      "type": "function"
    },
    {
      "inputs": [],
      "name": "getContractData",
      "outputs": [
        {
          "components": [
            {
              "internalType": "address",
              "name": "feeTo",
              "type": "address"
            },
            {
              "internalType": "address",
              "name": "assetAdmin",
              "type": "address"
            },
            {
              "internalType": "uint16",
              "name": "makerRate",
              "type": "uint16"
            },
            {
              "internalType": "address",
              "name": "strategyManager",
              "type": "address"
            }
          ],
          "internalType": "struct IFactory.ContractData",
          "name": "result",
          "type": "tuple"
        }
      ],
      "stateMutability": "view",
      "type": "function"
    },
    {
      "inputs": [
        {
          "internalType": "uint256",
          "name": "epochId",
          "type": "uint256"
        },
        {
          "internalType": "address",
          "name": "target",
          "type": "address"
        }
      ],
      "name": "getCurrentDebt",
      "outputs": [
        {
          "internalType": "uint256",
          "name": "",
          "type": "uint256"
        }
      ],
      "stateMutability": "view",
      "type": "function"
    },
    {
      "inputs": [
        {
          "internalType": "uint256",
          "name": "epochId",
          "type": "uint256"
        },
        {
          "internalType": "uint8",
          "name": "daysOfUseInHr",
          "type": "uint8"
        }
      ],
      "name": "getFinance",
      "outputs": [
        {
          "internalType": "bool",
          "name": "",
          "type": "bool"
        }
      ],
      "stateMutability": "payable",
      "type": "function"
    },
    {
      "inputs": [
        {
          "internalType": "uint256",
          "name": "epochId",
          "type": "uint256"
        }
      ],
      "name": "getPoolData",
      "outputs": [
        {
          "components": [
            {
              "components": [
                {
                  "internalType": "uint256",
                  "name": "_value",
                  "type": "uint256"
                }
              ],
              "internalType": "struct Counters.Counter",
              "name": "userCount",
              "type": "tuple"
            },
            {
              "components": [
                {
                  "internalType": "uint256",
                  "name": "quorum",
                  "type": "uint256"
                },
                {
                  "internalType": "uint256",
                  "name": "selector",
                  "type": "uint256"
                },
                {
                  "internalType": "uint256",
                  "name": "colCoverage",
                  "type": "uint256"
                },
                {
                  "internalType": "uint256",
                  "name": "duration",
                  "type": "uint256"
                },
                {
                  "internalType": "uint256",
                  "name": "intRate",
                  "type": "uint256"
                }
              ],
              "internalType": "struct Common.Uints",
              "name": "uints",
              "type": "tuple"
            },
            {
              "components": [
                {
                  "internalType": "uint256",
                  "name": "fullInterest",
                  "type": "uint256"
                },
                {
                  "internalType": "uint256",
                  "name": "intPerSec",
                  "type": "uint256"
                },
                {
                  "internalType": "uint256",
                  "name": "unit",
                  "type": "uint256"
                },
                {
                  "internalType": "uint256",
                  "name": "currentPool",
                  "type": "uint256"
                },
                {
                  "internalType": "uint256",
                  "name": "epochId",
                  "type": "uint256"
                }
              ],
              "internalType": "struct Common.Uint256s",
              "name": "uint256s",
              "type": "tuple"
            },
            {
              "components": [
                {
                  "internalType": "address",
                  "name": "asset",
                  "type": "address"
                },
                {
                  "internalType": "address",
                  "name": "lastPaid",
                  "type": "address"
                },
                {
                  "internalType": "address",
                  "name": "strategy",
                  "type": "address"
                },
                {
                  "internalType": "address",
                  "name": "admin",
                  "type": "address"
                }
              ],
              "internalType": "struct Common.Addresses",
              "name": "addrs",
              "type": "tuple"
            },
            {
              "internalType": "uint256",
              "name": "allGh",
              "type": "uint256"
            },
            {
              "internalType": "bool",
              "name": "isPermissionless",
              "type": "bool"
            },
            {
              "components": [
                {
                  "components": [
                    {
                      "internalType": "uint256",
                      "name": "durOfChoice",
                      "type": "uint256"
                    },
                    {
                      "internalType": "uint256",
                      "name": "expInterest",
                      "type": "uint256"
                    },
                    {
                      "internalType": "uint256",
                      "name": "payDate",
                      "type": "uint256"
                    },
                    {
                      "internalType": "uint256",
                      "name": "turnTime",
                      "type": "uint256"
                    },
                    {
                      "internalType": "uint256",
                      "name": "loan",
                      "type": "uint256"
                    },
                    {
                      "internalType": "uint256",
                      "name": "colBals",
                      "type": "uint256"
                    },
                    {
                      "internalType": "address",
                      "name": "id",
                      "type": "address"
                    },
                    {
                      "internalType": "bool",
                      "name": "sentQuota",
                      "type": "bool"
                    }
                  ],
                  "internalType": "struct Common.Contributor",
                  "name": "cData",
                  "type": "tuple"
                },
                {
                  "components": [
                    {
                      "internalType": "bool",
                      "name": "admin",
                      "type": "bool"
                    },
                    {
                      "internalType": "bool",
                      "name": "member",
                      "type": "bool"
                    }
                  ],
                  "internalType": "struct Common.Rank",
                  "name": "rank",
                  "type": "tuple"
                },
                {
                  "internalType": "uint8",
                  "name": "slot",
                  "type": "uint8"
                }
              ],
              "internalType": "struct Common.ContributorData[]",
              "name": "cData",
              "type": "tuple[]"
            },
            {
              "internalType": "enum Common.FuncTag",
              "name": "stage",
              "type": "uint8"
            }
          ],
          "internalType": "struct Common.Pool",
          "name": "",
          "type": "tuple"
        }
      ],
      "stateMutability": "view",
      "type": "function"
    },
    {
      "inputs": [],
      "name": "getPoolFromAllEpoches",
      "outputs": [
        {
          "components": [
            {
              "components": [
                {
                  "internalType": "uint256",
                  "name": "_value",
                  "type": "uint256"
                }
              ],
              "internalType": "struct Counters.Counter",
              "name": "userCount",
              "type": "tuple"
            },
            {
              "components": [
                {
                  "internalType": "uint256",
                  "name": "quorum",
                  "type": "uint256"
                },
                {
                  "internalType": "uint256",
                  "name": "selector",
                  "type": "uint256"
                },
                {
                  "internalType": "uint256",
                  "name": "colCoverage",
                  "type": "uint256"
                },
                {
                  "internalType": "uint256",
                  "name": "duration",
                  "type": "uint256"
                },
                {
                  "internalType": "uint256",
                  "name": "intRate",
                  "type": "uint256"
                }
              ],
              "internalType": "struct Common.Uints",
              "name": "uints",
              "type": "tuple"
            },
            {
              "components": [
                {
                  "internalType": "uint256",
                  "name": "fullInterest",
                  "type": "uint256"
                },
                {
                  "internalType": "uint256",
                  "name": "intPerSec",
                  "type": "uint256"
                },
                {
                  "internalType": "uint256",
                  "name": "unit",
                  "type": "uint256"
                },
                {
                  "internalType": "uint256",
                  "name": "currentPool",
                  "type": "uint256"
                },
                {
                  "internalType": "uint256",
                  "name": "epochId",
                  "type": "uint256"
                }
              ],
              "internalType": "struct Common.Uint256s",
              "name": "uint256s",
              "type": "tuple"
            },
            {
              "components": [
                {
                  "internalType": "address",
                  "name": "asset",
                  "type": "address"
                },
                {
                  "internalType": "address",
                  "name": "lastPaid",
                  "type": "address"
                },
                {
                  "internalType": "address",
                  "name": "strategy",
                  "type": "address"
                },
                {
                  "internalType": "address",
                  "name": "admin",
                  "type": "address"
                }
              ],
              "internalType": "struct Common.Addresses",
              "name": "addrs",
              "type": "tuple"
            },
            {
              "internalType": "uint256",
              "name": "allGh",
              "type": "uint256"
            },
            {
              "internalType": "bool",
              "name": "isPermissionless",
              "type": "bool"
            },
            {
              "components": [
                {
                  "components": [
                    {
                      "internalType": "uint256",
                      "name": "durOfChoice",
                      "type": "uint256"
                    },
                    {
                      "internalType": "uint256",
                      "name": "expInterest",
                      "type": "uint256"
                    },
                    {
                      "internalType": "uint256",
                      "name": "payDate",
                      "type": "uint256"
                    },
                    {
                      "internalType": "uint256",
                      "name": "turnTime",
                      "type": "uint256"
                    },
                    {
                      "internalType": "uint256",
                      "name": "loan",
                      "type": "uint256"
                    },
                    {
                      "internalType": "uint256",
                      "name": "colBals",
                      "type": "uint256"
                    },
                    {
                      "internalType": "address",
                      "name": "id",
                      "type": "address"
                    },
                    {
                      "internalType": "bool",
                      "name": "sentQuota",
                      "type": "bool"
                    }
                  ],
                  "internalType": "struct Common.Contributor",
                  "name": "cData",
                  "type": "tuple"
                },
                {
                  "components": [
                    {
                      "internalType": "bool",
                      "name": "admin",
                      "type": "bool"
                    },
                    {
                      "internalType": "bool",
                      "name": "member",
                      "type": "bool"
                    }
                  ],
                  "internalType": "struct Common.Rank",
                  "name": "rank",
                  "type": "tuple"
                },
                {
                  "internalType": "uint8",
                  "name": "slot",
                  "type": "uint8"
                }
              ],
              "internalType": "struct Common.ContributorData[]",
              "name": "cData",
              "type": "tuple[]"
            },
            {
              "internalType": "enum Common.FuncTag",
              "name": "stage",
              "type": "uint8"
            }
          ],
          "internalType": "struct Common.Pool[]",
          "name": "pools",
          "type": "tuple[]"
        }
      ],
      "stateMutability": "view",
      "type": "function"
    },
    {
      "inputs": [
        {
          "internalType": "uint256",
          "name": "epochId",
          "type": "uint256"
        },
        {
          "internalType": "address",
          "name": "user",
          "type": "address"
        }
      ],
      "name": "getProfile",
      "outputs": [
        {
          "components": [
            {
              "components": [
                {
                  "internalType": "uint256",
                  "name": "durOfChoice",
                  "type": "uint256"
                },
                {
                  "internalType": "uint256",
                  "name": "expInterest",
                  "type": "uint256"
                },
                {
                  "internalType": "uint256",
                  "name": "payDate",
                  "type": "uint256"
                },
                {
                  "internalType": "uint256",
                  "name": "turnTime",
                  "type": "uint256"
                },
                {
                  "internalType": "uint256",
                  "name": "loan",
                  "type": "uint256"
                },
                {
                  "internalType": "uint256",
                  "name": "colBals",
                  "type": "uint256"
                },
                {
                  "internalType": "address",
                  "name": "id",
                  "type": "address"
                },
                {
                  "internalType": "bool",
                  "name": "sentQuota",
                  "type": "bool"
                }
              ],
              "internalType": "struct Common.Contributor",
              "name": "cData",
              "type": "tuple"
            },
            {
              "components": [
                {
                  "internalType": "bool",
                  "name": "admin",
                  "type": "bool"
                },
                {
                  "internalType": "bool",
                  "name": "member",
                  "type": "bool"
                }
              ],
              "internalType": "struct Common.Rank",
              "name": "rank",
              "type": "tuple"
            },
            {
              "internalType": "uint8",
              "name": "slot",
              "type": "uint8"
            }
          ],
          "internalType": "struct Common.ContributorData",
          "name": "",
          "type": "tuple"
        }
      ],
      "stateMutability": "view",
      "type": "function"
    },
    {
      "inputs": [
        {
          "internalType": "uint256",
          "name": "epochId",
          "type": "uint256"
        }
      ],
      "name": "getRouter",
      "outputs": [
        {
          "internalType": "string",
          "name": "",
          "type": "string"
        }
      ],
      "stateMutability": "view",
      "type": "function"
    },
    {
      "inputs": [
        {
          "internalType": "uint256",
          "name": "epochId",
          "type": "uint256"
        }
      ],
      "name": "joinAPool",
      "outputs": [
        {
          "internalType": "bool",
          "name": "",
          "type": "bool"
        }
      ],
      "stateMutability": "nonpayable",
      "type": "function"
    },
    {
      "inputs": [
        {
          "internalType": "uint256",
          "name": "epochId",
          "type": "uint256"
        }
      ],
      "name": "liquidate",
      "outputs": [
        {
          "internalType": "bool",
          "name": "",
          "type": "bool"
        }
      ],
      "stateMutability": "nonpayable",
      "type": "function"
    },
    {
      "inputs": [],
      "name": "minContribution",
      "outputs": [
        {
          "internalType": "uint256",
          "name": "",
          "type": "uint256"
        }
      ],
      "stateMutability": "view",
      "type": "function"
    },
    {
      "inputs": [],
      "name": "ownershipManager",
      "outputs": [
        {
          "internalType": "address",
          "name": "",
          "type": "address"
        }
      ],
      "stateMutability": "view",
      "type": "function"
    },
    {
      "inputs": [],
      "name": "pause",
      "outputs": [],
      "stateMutability": "nonpayable",
      "type": "function"
    },
    {
      "inputs": [],
      "name": "paused",
      "outputs": [
        {
          "internalType": "bool",
          "name": "",
          "type": "bool"
        }
      ],
      "stateMutability": "view",
      "type": "function"
    },
    {
      "inputs": [
        {
          "internalType": "uint256",
          "name": "epochId",
          "type": "uint256"
        }
      ],
      "name": "payback",
      "outputs": [
        {
          "internalType": "bool",
          "name": "",
          "type": "bool"
        }
      ],
      "stateMutability": "nonpayable",
      "type": "function"
    },
    {
      "inputs": [
        {
          "internalType": "uint16",
          "name": "serviceRate",
          "type": "uint16"
        },
        {
          "internalType": "uint256",
          "name": "_minContribution",
          "type": "uint256"
        },
        {
          "internalType": "uint256",
          "name": "setUpFee",
          "type": "uint256"
        },
        {
          "internalType": "address",
          "name": "feeTo",
          "type": "address"
        },
        {
          "internalType": "address",
          "name": "assetClass",
          "type": "address"
        },
        {
          "internalType": "address",
          "name": "strategyManager",
          "type": "address"
        }
      ],
      "name": "performSetUp",
      "outputs": [],
      "stateMutability": "nonpayable",
      "type": "function"
    },
    {
      "inputs": [
        {
          "internalType": "uint256",
          "name": "",
          "type": "uint256"
        },
        {
          "internalType": "address",
          "name": "",
          "type": "address"
        }
      ],
      "name": "permits",
      "outputs": [
        {
          "internalType": "bool",
          "name": "",
          "type": "bool"
        }
      ],
      "stateMutability": "view",
      "type": "function"
    },
    {
      "inputs": [
        {
          "internalType": "uint256",
          "name": "epochId",
          "type": "uint256"
        }
      ],
      "name": "removeLiquidityPool",
      "outputs": [
        {
          "internalType": "bool",
          "name": "",
          "type": "bool"
        }
      ],
      "stateMutability": "nonpayable",
      "type": "function"
    },
    {
      "inputs": [
        {
          "internalType": "uint256",
          "name": "",
          "type": "uint256"
        }
      ],
      "name": "routers",
      "outputs": [
        {
          "internalType": "enum IFactory.Router",
          "name": "",
          "type": "uint8"
        }
      ],
      "stateMutability": "view",
      "type": "function"
    },
    {
      "inputs": [
        {
          "internalType": "address",
          "name": "feeTo",
          "type": "address"
        },
        {
          "internalType": "address",
          "name": "assetAdmin",
          "type": "address"
        },
        {
          "internalType": "uint16",
          "name": "serviceRate",
          "type": "uint16"
        },
        {
          "internalType": "uint256",
          "name": "_creationFee",
          "type": "uint256"
        }
      ],
      "name": "setContractData",
      "outputs": [
        {
          "internalType": "bool",
          "name": "",
          "type": "bool"
        }
      ],
      "stateMutability": "nonpayable",
      "type": "function"
    },
    {
      "inputs": [
        {
          "internalType": "uint256",
          "name": "minLiquidity",
          "type": "uint256"
        }
      ],
      "name": "setMinimumLiquidityPerProvider",
      "outputs": [],
      "stateMutability": "nonpayable",
      "type": "function"
    },
    {
      "inputs": [
        {
          "internalType": "address",
          "name": "newManager",
          "type": "address"
        }
      ],
      "name": "setOwnershipManager",
      "outputs": [
        {
          "internalType": "bool",
          "name": "",
          "type": "bool"
        }
      ],
      "stateMutability": "nonpayable",
      "type": "function"
    },
    {
      "inputs": [],
      "name": "unpause",
      "outputs": [],
      "stateMutability": "nonpayable",
      "type": "function"
    },
    {
      "inputs": [
        {
          "internalType": "uint256",
          "name": "epochId",
          "type": "uint256"
        }
      ],
      "name": "withdrawCollateral",
      "outputs": [
        {
          "internalType": "bool",
          "name": "",
          "type": "bool"
        }
      ],
      "stateMutability": "nonpayable",
      "type": "function"
    },
    {
      "inputs": [
        {
          "internalType": "uint256",
          "name": "value",
          "type": "uint256"
        }
      ],
      "name": "withdrawXFI",
      "outputs": [],
      "stateMutability": "nonpayable",
      "type": "function"
    },
    {
      "stateMutability": "payable",
      "type": "receive"
    }
  ],
  "transactionHash": "0x25befc55bc63c134df5c5e1040169e088e2d2128b11f7c832e0d27f864a616e7",
  "args": [
    10,
    1000000000000000,
    0,
    "0xD7c271d20c9E323336bFC843AEb8deC23B346352",
    "0xFd648e8975DD9905f9449F3450DAB7bCa63565c4",
    "0x4963bA955DAF279A1D97a84A2a5fC9348Fdf5513",
    "0xe09e23F8a8032BB39326098802c970f9b48D726C"
  ],
  "numDeployments": 10,
  "solcInputHash": "b72ce8f9312592f75af14fbad28ae673",
  "bytecode": "0x60806040523480156200001157600080fd5b506040516200603638038062006036833981016040819052620000349162000105565b600080546001600160a81b0319166001600160a01b039283161790556001600255600c95909555604080516080810182529386168085529286166020850181905261ffff90971690840181905294166060909201829052600380546001600160a01b0319908116909217905560048054740100000000000000000000000000000000000000009095026001600160b01b031990951690951793909317909355600580549092169092179055600b5562000191565b80516001600160a01b03811681146200010057600080fd5b919050565b600080600080600080600060e0888a0312156200012157600080fd5b875161ffff811681146200013457600080fd5b602089015160408a0151919850965094506200015360608901620000e8565b93506200016360808901620000e8565b92506200017360a08901620000e8565b91506200018360c08901620000e8565b905092959891949750929550565b615e9580620001a16000396000f3fe6080604052600436106101e75760003560e01c80639501a2b411610102578063b88a391511610095578063dce0b4e411610064578063dce0b4e4146106dd578063dde665b3146106f3578063f09734ec14610713578063f6c8e2441461073357600080fd5b8063b88a391514610638578063be24cff814610670578063c4933c5014610690578063d21c87ad146106b057600080fd5b8063a846c2fd116100d1578063a846c2fd146105cd578063aaffadf3146105ed578063b404763f14610603578063b45ea91c1461061657600080fd5b80639501a2b4146104a1578063a4424cf4146104c1578063a68b91ab146104ee578063a7393476146105ad57600080fd5b8063490adbaf1161017a57806361737d621161014957806361737d62146103f05780637b3ce2151461041057806380d5ac8a146104495780638456cb591461048c57600080fd5b8063490adbaf146103395780634e9c1118146103745780635c975abb146103b15780636112fe2e146103d057600080fd5b80633f4ba83a116101b65780633f4ba83a146102b45780633fd97927146102c9578063415f1240146102f65780634662ecbe1461031657600080fd5b80630e22d318146101f3578063184e495f146102155780631a055c1a1461024a5780631c4df1f91461027957600080fd5b366101ee57005b600080fd5b3480156101ff57600080fd5b5061021361020e3660046153ce565b610753565b005b34801561022157600080fd5b506102356102303660046153ce565b61083d565b60405190151581526020015b60405180910390f35b34801561025657600080fd5b5061026a6102653660046153ce565b610883565b60405161024193929190615471565b34801561028557600080fd5b506102356102943660046154b3565b600160209081526000928352604080842090915290825290205460ff1681565b3480156102c057600080fd5b506102136108b3565b3480156102d557600080fd5b506102e96102e43660046154b3565b6109ff565b60405161024191906154e3565b34801561030257600080fd5b506102356103113660046153ce565b610a27565b34801561032257600080fd5b5061032b610ad5565b604051908152602001610241565b34801561034557600080fd5b506103596103543660046153ce565b610ae6565b60408051825181526020928301519281019290925201610241565b34801561038057600080fd5b506103a461038f3660046153ce565b60116020526000908152604090205460ff1681565b6040516102419190615518565b3480156103bd57600080fd5b50600054600160a01b900460ff16610235565b3480156103dc57600080fd5b506102356103eb3660046153ce565b610b18565b3480156103fc57600080fd5b5061023561040b36600461552b565b610c31565b34801561041c57600080fd5b5061043061042b3660046153ce565b610d4f565b6040805192835262ffffff909116602083015201610241565b34801561045557600080fd5b50600d54600e54600f5460105461046c9392919084565b604080519485526020850193909352918301526060820152608001610241565b34801561049857600080fd5b50610213610dad565b3480156104ad57600080fd5b506102136104bc3660046153ce565b610ee5565b3480156104cd57600080fd5b506104e16104dc3660046153ce565b6110b9565b604051610241919061558e565b3480156104fa57600080fd5b5061056860408051608081018252600080825260208201819052918101829052606081019190915250604080516080810182526003546001600160a01b0390811682526004548082166020840152600160a01b900461ffff1692820192909252600554909116606082015290565b604051610241919081516001600160a01b03908116825260208084015182169083015260408084015161ffff1690830152606092830151169181019190915260800190565b3480156105b957600080fd5b506102356105c83660046155d7565b611145565b3480156105d957600080fd5b506102356105e83660046153ce565b6111f1565b3480156105f957600080fd5b5061032b600c5481565b610235610611366004615648565b611299565b34801561062257600080fd5b5061062b61134e565b60405161024191906157e0565b34801561064457600080fd5b50600054610658906001600160a01b031681565b6040516001600160a01b039091168152602001610241565b34801561067c57600080fd5b5061023561068b3660046153ce565b61135a565b34801561069c57600080fd5b506102356106ab36600461585a565b61139f565b3480156106bc57600080fd5b506106d06106cb3660046153ce565b6113bb565b604051610241919061596e565b3480156106e957600080fd5b5061032b600b5481565b3480156106ff57600080fd5b5061021361070e366004615981565b6113da565b34801561071f57600080fd5b5061032b61072e3660046154b3565b61153e565b34801561073f57600080fd5b5061023561074e3660046159e1565b611561565b604051806060016040528060368152602001615d96603691396000546001600160a01b03168061079e5760405162461bcd60e51b815260040161079590615a30565b60405180910390fd5b6001600160a01b038116632f54bf6e336040516001600160e01b031960e084901b1681526001600160a01b039091166004820152602401602060405180830381865afa1580156107f2573d6000803e3d6000fd5b505050506040513d601f19601f820116820180604052508101906108169190615a67565b82906108355760405162461bcd60e51b8152600401610795919061558e565b505050600c55565b60008161084b600382611665565b610879836000808681526011602052604090205460ff166001811115610873576108736154f2565b146116b9565b5060019392505050565b61088b615225565b6000808361089a600382611665565b6108a5600386611732565b935093509350509193909250565b60408051808201909152601f81527f5061757361626c653a204f6e6c794f776e65722063616e20756e70617573650060208201526000546001600160a01b0316806109105760405162461bcd60e51b815260040161079590615a30565b6001600160a01b038116632f54bf6e336040516001600160e01b031960e084901b1681526001600160a01b039091166004820152602401602060405180830381865afa158015610964573d6000803e3d6000fd5b505050506040513d601f19601f820116820180604052508101906109889190615a67565b82906109a75760405162461bcd60e51b8152600401610795919061558e565b506109b06117c3565b6000805460ff60a01b191690557f5db9ee0a495bf2e6ff9c91a7834c1ba4fdd244a5e8aa4e537bd38aeae4b073aa335b6040516001600160a01b03909116815260200160405180910390a15050565b610a07615225565b82610a13600382611665565b610a1f600384866117ef565b949350505050565b6000610a31611812565b81610a3d600382611665565b6000610a4d60038561183d611873565b90507ffe5a24b015fb66e7f076878ae33fe23bdbd8358b0bd0654705ad58def1157ff381604051610a7e9190615a89565b60405180910390a160408051608081018252600d8054808352600e80546020808601828152600f54878901526010546060880152968801519093039485905295909101519094019283905255905550600192915050565b6000610ae1600361197b565b905090565b604080518082019091526000808252602082015281610b06600382611665565b610b1160038461198e565b9392505050565b600081610b26600382611665565b600083815260016020908152604080832033808552925290912054849160039160ff16610ba15760405162461bcd60e51b815260206004820152602360248201527f46756e6348616e646c65723a204e6f205065726d697373696f6e2064657465636044820152621d195960ea1b6064820152608401610795565b6000610bae600388611a47565b9050610be960405180604001604052806012815260200171616e616c79746963732e74766c496e58464960701b815250600d60000154611b2f565b610c0e6040518060400160405280600381526020016210985b60ea1b81525082611b2f565b600d805491909103905560019450610c288184600061183d565b50505050919050565b60408051808201909152601881527f4f6e6c794f776e65723a204e6f74207065726d697474656400000000000000006020820152600080549091906001600160a01b031680610c925760405162461bcd60e51b815260040161079590615a30565b6001600160a01b038116632f54bf6e336040516001600160e01b031960e084901b1681526001600160a01b039091166004820152602401602060405180830381865afa158015610ce6573d6000803e3d6000fd5b505050506040513d601f19601f82011682018060405250810190610d0a9190615a67565b8290610d295760405162461bcd60e51b8152600401610795919061558e565b50600080546001600160a01b0319166001600160a01b0386161790555060019392505050565b60008082610d5e600382611665565b6000610d6b600386611b74565b9050610d988160400151606001516000836020015160400151610d93678963dd8c2c5e000090565b611dce565b60209091015160400151909350915050915091565b60408051808201909152601d81527f5061757361626c653a204f6e6c794f776e65722063616e20706175736500000060208201526000546001600160a01b031680610e0a5760405162461bcd60e51b815260040161079590615a30565b6001600160a01b038116632f54bf6e336040516001600160e01b031960e084901b1681526001600160a01b039091166004820152602401602060405180830381865afa158015610e5e573d6000803e3d6000fd5b505050506040513d601f19601f82011682018060405250810190610e829190615a67565b8290610ea15760405162461bcd60e51b8152600401610795919061558e565b50610eaa611812565b6000805460ff60a01b1916600160a01b1790557f62e78cea01bee320cd4e420270b5ea74000d11b0c9f74754ebdbfc544b05a2586109e03390565b604051806060016040528060238152602001615dcc602391396000546001600160a01b031680610f275760405162461bcd60e51b815260040161079590615a30565b6001600160a01b038116632f54bf6e336040516001600160e01b031960e084901b1681526001600160a01b039091166004820152602401602060405180830381865afa158015610f7b573d6000803e3d6000fd5b505050506040513d601f19601f82011682018060405250810190610f9f9190615a67565b8290610fbe5760405162461bcd60e51b8152600401610795919061558e565b50600083118015610fd0575030318311155b61101c5760405162461bcd60e51b815260206004820152601860248201527f56616c75652069732030207c7c20302062616c616c6e636500000000000000006044820152606401610795565b6003546040516000916001600160a01b03169085908381818185875af1925050503d8060008114611069576040519150601f19603f3d011682016040523d82523d6000602084013e61106e565b606091505b50509050806110b35760405162461bcd60e51b815260206004820152601160248201527015da5d1a191c985dd85b0811985a5b1959607a1b6044820152606401610795565b50505050565b6060816110c7600382611665565b60008381526011602052604081205460ff1660018111156110ea576110ea6154f2565b14611119576040518060400160405280600c81526020016b141154935254d4d253d3915160a21b815250610b11565b505060408051808201909152600e81526d5045524d495353494f4e4c45535360901b6020820152919050565b6040805160018082528183019092526000918291829160208083019080368337019050509050338160008151811061117f5761117f615ac5565b60200260200101906001600160a01b031690816001600160a01b03168152505081601160006111b48c8c8c8c8c8c8a8c611dea565b81526020810191909152604001600020805460ff1916600183818111156111dd576111dd6154f2565b021790555060019998505050505050505050565b60006111fb611812565b81611207600382611665565b600061123a60405180604001604052808681526020016112243390565b6001600160a01b0316905260039061183d6120c1565b90507ffe5a24b015fb66e7f076878ae33fe23bdbd8358b0bd0654705ad58def1157ff38160405161126b9190615a89565b60405180910390a16020810151600e805460009061128a908490615af1565b90915550600195945050505050565b60006112a3611812565b826112af600382611665565b60006112c46003863460ff8816611dc2612349565b90507f317bcce7ba630da9baeff0ed14ec48f5639cf4c1ae57a98d7f3546a1016881f2816040516112f59190615a89565b60405180910390a160408051608081018252600d8054600e805460208501818152600f54868801526010546060808801919091523490940195869052965190950151909101519093039384905255555060019392505050565b6060610ae160036124ff565b6000611364611812565b81611370600382611665565b610b1183600160008681526011602052604090205460ff166001811115611399576113996154f2565b14612770565b8051600090600190816011846111b48c858d8d8d8d8d8a611dea565b6113c36152b6565b816113cf600382611665565b610b11600384611b74565b604051806060016040528060248152602001615e16602491396000546001600160a01b03168061141c5760405162461bcd60e51b815260040161079590615a30565b6001600160a01b038116632f54bf6e336040516001600160e01b031960e084901b1681526001600160a01b039091166004820152602401602060405180830381865afa158015611470573d6000803e3d6000fd5b505050506040513d601f19601f820116820180604052508101906114949190615a67565b82906114b35760405162461bcd60e51b8152600401610795919061558e565b50600c879055604080516080810182526001600160a01b038088168083528188166020840181905261ffff8d169484018590529187166060909301839052600380546001600160a01b03199081169092179055600480546001600160b01b031916909217600160a01b90940293909317905560058054909216179055600b8690555050505050505050565b60008261154c600382611665565b611558600385856127f1565b51949350505050565b6000604051806060016040528060278152602001615def602791396000546001600160a01b0316806115a55760405162461bcd60e51b815260040161079590615a30565b6001600160a01b038116632f54bf6e336040516001600160e01b031960e084901b1681526001600160a01b039091166004820152602401602060405180830381865afa1580156115f9573d6000803e3d6000fd5b505050506040513d601f19601f8201168201806040525081019061161d9190615a67565b829061163c5760405162461bcd60e51b8152600401610795919061558e565b50600b5460000361164d57600b8490555b61165a6003878988612881565b979650505050505050565b61166e8261197b565b81106116b55760405162461bcd60e51b815260206004820152601660248201527522b837b1b41024b2103430b9903737ba103132b3b4b760511b6044820152606401610795565b5050565b60006116c3611812565b826116cf600382611665565b6116de6003858561183d61290d565b600e80546000906116f0908490615b04565b90915550506040518481527f79d50744e568d2dcbac1c613dc0f174be90b0121dbc73682de80b3c4ebc5d1e79060200160405180910390a15060019392505050565b61173a615225565b60008060006117498686611b74565b9050600061177087611767896006018560600151602001518a612b12565b60ff1688612b39565b8051604001519091504211156117a35780611789612c3e565b51825160c0015161179d908a908a906127f1565b516117b3565b846117ac612c3e565b6020015160005b9199909850909650945050505050565b600054600160a01b900460ff166117ed57604051638dfc202b60e01b815260040160405180910390fd5b565b6117f7615225565b610a1f84611809866006018686612b12565b60ff1684612b39565b600054600160a01b900460ff16156117ed5760405163d93c066560e01b815260040160405180910390fd5b60009182526001602090815260408084206001600160a01b03959095168452939052919020805460ff1916911515919091179055565b61187b615387565b6000806118888686611732565b50915091506118c76040518060400160405280600d81526020016c2737ba103232b330bab63a32b960991b815250821515612c9890919063ffffffff16565b336118d3878783612cbc565b808760070187815481106118e9576118e9615ac5565b60009182526020822060139190910201600c0180546001600160a01b0319166001600160a01b039390931692909217909155835160c001516119309060068a019089612b12565b905061194788888385886000015160c00151612d89565b61196f8860405180604001604052808a8152602001856001600160a01b0316815250886120c1565b98975050505050505050565b6000611988826003015490565b92915050565b604080518082019091526000808252602082015260006119ae8484611b74565b6060015160408051808201825281830180516001600160a01b039081163183528451915193516370a0823160e01b81529381166004850152939450909260208401929116906370a0823190602401602060405180830381865afa158015611a19573d6000803e3d6000fd5b505050506040513d601f19601f82011682018060405250810190611a3d9190615b17565b9052949350505050565b6000803390506000846007018481548110611a6457611a64615ac5565b9060005260206000209060130201601101611a83866006018487612b12565b60ff1681548110611a9657611a96615ac5565b6000918252602090912060056009909202010155611ab48484611b74565b606001516040908101519051627b8a6760e11b8152600481018590526001600160a01b0383811660248301529091169062f714ce906044016020604051808303816000875af1158015611b0b573d6000803e3d6000fd5b505050506040513d601f19601f82011682018060405250810190610a1f9190615b17565b6116b58282604051602401611b45929190615b30565b60408051601f198184030181529190526020810180516001600160e01b0316632d839cb360e21b179052612ebc565b611b7c6152b6565b826007018281548110611b9157611b91615ac5565b6000918252602080832060408051610120810182526013909402909101805461010085019081528452815160a080820184526001830154825260028301548286015260038301548285015260048301546060808401919091526005840154608080850191909152878701939093528451808301865260068501548152600785015481880152600885015481870152600985015481830152600a850154818501528786015284518084018652600b8501546001600160a01b039081168252600c860154811682890152600d860154811682880152600e860154168183015290870152600f83015491860191909152601082015460ff161515908501526011810180548351818602810186019094528084529495919460c08701949192909184015b82821015611d815760008481526020908190206040805161016081018252600986029092018054606084019081526001808301546080860152600283015460a0860152600383015460c0860152600483015460e086015260058301546101008087019190915260068401546001600160a01b03811661012088015260ff600160a01b90910481161515610140880152928652845180860186526007850154808516151582529190910483161515818801528587015260089092015416918301919091529083529092019101611cb1565b50505090825250601282015460209091019060ff166004811115611da757611da76154f2565b6004811115611db857611db86154f2565b9052509392505050565b678963dd8c2c5e000090565b6000611de1846012858589841515612ec8565b95945050505050565b6000611df4611812565b60048054604051634df48c7360e11b81526001600160a01b0380881693820193909352869290911690639be918e690602401602060405180830381865afa158015611e43573d6000803e3d6000fd5b505050506040513d601f19601f82011682018060405250810190611e679190615a67565b611e8f57604051631e26fa1d60e11b81526001600160a01b0382166004820152602401610795565b600080846001811115611ea457611ea46154f2565b14905080611ef5576001855111611ef05760405162461bcd60e51b815260206004820152601060248201526f4d696e206f662032206d656d6265727360801b6044820152606401610795565b611f48565b60018a60ff1611611f485760405162461bcd60e51b815260206004820152601960248201527f526f757465723a2051756f72756d20697320696e76616c6964000000000000006044820152606401610795565b60006040518060e001604052808d61ffff1681526020018c60ff1681526020018b61ffff1681526020018a62ffffff168152602001898152602001878152602001886001600160a01b0316815250905060008215611fb057611fab600383612f92565b611fbb565b611fbb60038361309b565b6040805160808082018352600d548252600e546020808401918252600f548486015260105460608501528451928301909452825182525193945090929091820190612007908d90615af1565b815260200185612026576040830151612021906001615af1565b61202c565b82604001515b815260200185612040578260600151612050565b6060830151612050906001615af1565b90528051600d556020810151600e55604080820151600f55606090910151601055517f9f863e268a0d18cc26555f1335b71f38bd64654c71f3abeec28fa25c8fc8f5a99061209f908490615b52565b60405180910390a1505160400151608001519c9b505050505050505050505050565b6120c9615387565b60006120d9858560000151611b74565b90506121148160e001516002604051806040016040528060118152602001705061796261636b206e6f7420726561647960781b815250613216565b600061212986866000015187602001516127f1565b604080518082019091526007815266139bc81919589d60ca1b6020820152815191925061215891151590612c98565b600061216b876007018760000151613245565b9050806121b257612183876007018760000151613499565b612196876007018760000151600161371d565b6121ad87846020015160200151886000015161378b565b6121c5565b6121c5876007018760000151600461371d565b6121e4866020015187600001516121da612c3e565b5163ffffffff8916565b602086015160608401515183516121fc9291906137dc565b602086015160608401518051845160409092015161221b9392906138a8565b612229878760000151611b74565b845260408051606080820183528651825286518301510151602080830191909152865160c001519085015181519293840192811061226957612269615ac5565b60200260200101516000015160a00151815250935061233e604051806101400160405280866000015160c001518560200151815181106122ab576122ab615ac5565b60200260200101516000015160a0015181526020018860000151815260200160008152602001846000015181526020016000815260200188602001516001600160a01b031681526020018560600151604001516001600160a01b0316815260200160006001600160a01b03168152602001831515815260200160006001811115612337576123376154f2565b905261396f565b505050509392505050565b612351615387565b600061235d8787611b74565b90506123978160e0015160016040518060400160405280601081526020016f426f72726f77206e6f7420726561647960801b815250613216565b6020810151516080820151036123c05760405163d77e83a360e01b815260040160405180910390fd5b6123cd8760070187613a19565b61242e60405180604001604052806011815260200170506f6f6c206e6f7420636f6d706c65746560781b81525061241d836020015160000151846040015160400151613a5290919063ffffffff16565b604084015160600151101590612c98565b61165a876040518060e0016040528061244688613a5e565b62ffffff1681526020018a6007018a8154811061246557612465615ac5565b90600052602060002090601302016011018560200151602001518154811061248f5761248f615ac5565b6000918252602091829020600660099092020101546001600160a01b0316825281018a905260018b0154604086810151606001519201916124db9161ffff600160a01b90910416613a70565b81526020018881526020016124f28763ffffffff16565b8152602001849052613a7c565b606081600701805480602002602001604051908101604052809291908181526020016000905b828210156127655760008481526020808220604080516101208101825260138702909201805461010084019081528352815160a080820184526001830154825260028301548287015260038301548285015260048301546060808401919091526005840154608080850191909152868801939093528451808301865260068501548152600785015481890152600885015481870152600985015481830152600a850154818501528686015284518084018652600b8501546001600160a01b039081168252600c8601548116828a0152600d860154811682880152600e860154168183015290860152600f83015491850191909152601082015460ff161515908401526011810180548351818702810187019094528084529395919460c087019491929084015b8282101561271b5760008481526020908190206040805161016081018252600986029092018054606084019081526001808301546080860152600283015460a0860152600383015460c0860152600483015460e086015260058301546101008087019190915260068401546001600160a01b03811661012088015260ff600160a01b9091048116151561014088015292865284518086018652600785015480851615158252919091048316151581880152858701526008909201541691830191909152908352909201910161264b565b50505090825250601282015460209091019060ff166004811115612741576127416154f2565b6004811115612752576127526154f2565b8152505081526020019060010190612525565b505050509050919050565b60008061279d60405180604001604052808681526020018515158152506003613e5b90919063ffffffff16565b90507f71b5023b988b7a2b3a2e6b1bbc0a8ce798e78a73ae4cae0b437caf271fcd645d816040516127ce9190615a89565b60405180910390a1516040908101510151600e8054909101905550600192915050565b604080518082019091526000808252602082015260006128118585611b74565b60400151602001519050612829856006018486612b12565b60ff166020830181905260009061284290879087612b39565b60000151905061287561286a612863836060015161285d4290565b90614115565b8490613a52565b608083015190614121565b83525090949350505050565b60006001600160a01b038416156128b0576001850180546001600160a01b0319166001600160a01b0386161790555b6001600160a01b038316156128d95784546001600160a01b0319166001600160a01b0384161785555b61ffff82811610156129025760018501805461ffff60a01b1916600160a01b61ffff8516021790555b506001949350505050565b60006129198585611665565b60006129258686611b74565b90503361293387878361412d565b600061293d612c3e565b905085156129d7576129b46040518060400160405280601f81526020017f466163746f72794c6962202d205075623a2043616e6e6f742063616e63656c008152506129ab8a6007018a8154811061299657612996615ac5565b90600052602060002090601302016000015490565b60011490612c98565b604080840151810151600090815260058a0160205220805460ff19169055612a24565b60408051808201825260208082527f466163746f72794c6962202d20507269763a2043616e6e6f742063616e63656c908201528482015191820151606090920151612a2492101590612c98565b6000886007018881548110612a3b57612a3b615ac5565b906000526020600020906013020160010160000181905550612a63828860018863ffffffff16565b612a728860070188600461371d565b612afe6040518061014001604052808560400151604001518152602001898152602001600081526020016000815260200160008152602001846001600160a01b031681526020018560600151604001516001600160a01b0316815260200160006001600160a01b03168152602001836020015115158152602001600180811115612337576123376154f2565b505050604090810151015195945050505050565b6001600160a01b039091166000908152602092835260408082209282529190925290205490565b612b41615225565b836007018281548110612b5657612b56615ac5565b90600052602060002090601302016011018381548110612b7857612b78615ac5565b60009182526020918290206040805161016081018252600990930290910180546060840190815260018201546080850152600282015460a0850152600382015460c0850152600482015460e085015260058201546101008086019190915260068301546001600160a01b03811661012087015260ff600160a01b9091048116151561014087015291855283518085018552600784015480841615158252919091048216151581870152948401949094526008015490921691810191909152949350505050565b6040805160a081018252600080825260208201819052918101829052606081018290526080810191909152506040805160a08101825260018082526000602083018190529282018390526060820152608081019190915290565b8082612cb75760405162461bcd60e51b8152600401610795919061558e565b505050565b6000612cc88484611b74565b90506000612cda856006018486612b12565b905060ff811615612d225760405162461bcd60e51b815260206004820152600d60248201526c139bdd081c195c9b5a5d1d1959609a1b6044820152606401610795565b612d82565b612d826040518060400160405280601681526020017541646d696e2063616e6e6f74206c697175696461746560501b8152508360600151606001516001600160a01b0316856001600160a01b031614151515612c9890919063ffffffff16565b5050505050565b81856007018581548110612d9f57612d9f615ac5565b90600052602060002090601302016011018460ff1681548110612dc457612dc4615ac5565b600091825260208083206006600990930201820180546001600160a01b039586166001600160a01b031990911617905585841683529088018082526040808420898552835280842060ff8916905593851683528152828220878352905290812055612e2f8585611b74565b606001516040908101519051636d6ccde160e01b8152600481018690526001600160a01b038481166024830152838116604483015290911690636d6ccde1906064016020604051808303816000875af1158015612e90573d6000803e3d6000fd5b505050506040513d601f19601f82011682018060405250810190612eb49190615a67565b505050505050565b612ec5816141d5565b50565b6000606462ffffff8616811115612ef95760405163a371850b60e01b815262ffffff87166004820152602401610795565b6000612f0b62ffffff88166064613a52565b90506000612f2e87612f28612f218c600a615c68565b8990613a52565b906141f6565b9050612f48612710612f288365ffffffffffff8616613a52565b93508415612f8557612f85848b10156040518060400160405280601081526020016f496e73756666696369656e742058464960801b815250612c98565b5050509695505050505050565b612f9a6153ae565b6000612fa4612c3e565b905060008360a00151600081518110612fbf57612fbf615ac5565b60209081029190910101516002860154909150600090612fe99083906001600160a01b0316614202565b604080518082018252600c81526b105b5bdd5b9d08195e1a5cdd60a21b6020808301919091526080890151600090815260058b0190915291909120549192506130379160ff161515906142a3565b8251608086015160009081526005880160205260409020805460ff191691151591909117905582516130709087908790849086906142c3565b8085526040015160800151835161308c918891859080806143ea565b60208501525091949350505050565b6130a36153ae565b60006130ad612c3e565b905060008360a001516000815181106130c8576130c8615ac5565b602090810291909101015160028601549091506000906130f29083906001600160a01b0316614202565b604084015190915060ff165b8560a001515181101561320c57836040015160ff1681036131505761312a8787848688602001516142c3565b80865260400151608001518451613146918991869080806143ea565b6020860152613204565b60008660a00151828151811061316857613168615ac5565b602002602001015190506131c76040518060400160405280601381526020017241646d696e2073706f7474656420747769636560681b815250856001600160a01b0316836001600160a01b031614151515612c9890919063ffffffff16565b85516040015160800151602086015186516131e9928b929091859190816143ea565b506132008887600001516040015160800151611b74565b8652505b6001016130fe565b5050505092915050565b612cb78183600481111561322c5761322c6154f2565b85600481111561323e5761323e6154f2565b1490612c98565b60008083838154811061325a5761325a615ac5565b6000918252602080832060408051610120810182526013909402909101805461010085019081528452815160a080820184526001830154825260028301548286015260038301548285015260048301546060808401919091526005840154608080850191909152878701939093528451808301865260068501548152600785015481880152600885015481870152600985015481830152600a850154818501528786015284518084018652600b8501546001600160a01b039081168252600c860154811682890152600d860154811682880152600e860154168183015290870152600f83015491860191909152601082015460ff161515908501526011810180548351818602810186019094528084529495919460c08701949192909184015b8282101561344a5760008481526020908190206040805161016081018252600986029092018054606084019081526001808301546080860152600283015460a0860152600383015460c0860152600483015460e086015260058301546101008087019190915260068401546001600160a01b03811661012088015260ff600160a01b9091048116151561014088015292865284518086018652600785015480851615158252919091048316151581880152858701526008909201541691830191909152908352909201910161337a565b50505090825250601282015460209091019060ff166004811115613470576134706154f2565b6004811115613481576134816154f2565b90525060208101515160809091015114949350505050565b60008282815481106134ad576134ad615ac5565b6000918252602080832060408051610120810182526013909402909101805461010085019081528452815160a080820184526001830154825260028301548286015260038301548285015260048301546060808401919091526005840154608080850191909152878701939093528451808301865260068501548152600785015481880152600885015481870152600985015481830152600a850154818501528786015284518084018652600b8501546001600160a01b039081168252600c860154811682890152600d860154811682880152600e860154168183015290870152600f83015491860191909152601082015460ff161515908501526011810180548351818602810186019094528084529495919460c08701949192909184015b8282101561369d5760008481526020908190206040805161016081018252600986029092018054606084019081526001808301546080860152600283015460a0860152600383015460c0860152600483015460e086015260058301546101008087019190915260068401546001600160a01b03811661012088015260ff600160a01b909104811615156101408801529286528451808601865260078501548085161515825291909104831615158188015285870152600890920154169183019190915290835290920191016135cd565b50505090825250601282015460209091019060ff1660048111156136c3576136c36154f2565b60048111156136d4576136d46154f2565b90525060208101515160408083015101519192506136f29190613a52565b83838154811061370457613704615ac5565b6000918252602090912060096013909202010155505050565b6005816004811115613731576137316154f2565b60ff161061374157613741615c77565b8083838154811061375457613754615ac5565b60009182526020909120601260139092020101805460ff19166001836004811115613781576137816154f2565b0217905550505050565b428360070182815481106137a1576137a1615ac5565b906000526020600020906013020160110183815481106137c3576137c3615ac5565b6000918252602090912060036009909202010155505050565b604051636eb1769f60e11b81526001600160a01b03848116600483015230602483015282919084169063dd62ed3e90604401602060405180830381865afa15801561382b573d6000803e3d6000fd5b505050506040513d601f19601f8201168201806040525081019061384f9190615b17565b1015612cb75760405162461bcd60e51b815260206004820152602260248201527f466163746f72794c69623a20496e73756666696369656e7420616c6c6f77616e604482015261636560f01b6064820152608401610795565b6040516323b872dd60e01b81526001600160a01b0385811660048301528281166024830152604482018490528416906323b872dd906064016020604051808303816000875af11580156138ff573d6000803e3d6000fd5b505050506040513d601f19601f820116820180604052508101906139239190615a67565b6110b35760405162461bcd60e51b815260206004820152601b60248201527f466163746f72794c69623a205472616e73666572206661696c656400000000006044820152606401610795565b60008160c001516001600160a01b03166352784664836080015184600001518560400151866060015187602001518860a001518960e001518a61010001518b61012001516040518a63ffffffff1660e01b81526004016139d6989796959493929190615c8d565b60206040518083038185885af11580156139f4573d6000803e3d6000fd5b50505050506040513d601f19601f820116820180604052508101906119889190615b17565b818181548110613a2b57613a2b615ac5565b600091825260208220600f60139092020101805491613a4983615ce5565b91905055505050565b6000610b118284615cfe565b600061198861ffff8316610e10613a52565b6000610b118383614497565b613a84615387565b6000613a8e612c3e565b90506000836020015190506000613ac286613ab58860060188602001518960400151612b12565b60ff168760400151612b39565b805160600151909150613ad790610e10615af1565b421115613b2f5760208501516001600160a01b0316336001600160a01b031614613b2a57339150613b0d8686604001518461453e565b613b2786826040015187602001518589604001518661460c565b90505b613b95565b805160c001516001600160a01b0316336001600160a01b031614613b955760405162461bcd60e51b815260206004820152601860248201527f5475726e2074696d6520686173206e6f742070617373656400000000000000006044820152606401610795565b613c076040518060400160405280601e81526020017f496e73756666696369656e7420436f6c6c61746572616c20696e205846490000815250613bfa8760c00151604001516060015188608001518960c0015160200151604001518a60a00151611dce565b6080880151101590612c98565b8186600701866040015181548110613c2157613c21615ac5565b9060005260206000209060130201600b0160010160006101000a8154816001600160a01b0302191690836001600160a01b03160217905550613c6a866007018660400151614720565b613e1c86600701866040015181548110613c8657613c86615ac5565b9060005260206000209060130201601101604051806101000160405280886000015162ffffff168152602001613cf18960c0015160200151608001518a60c0015160200151606001518b600001518c60c001516040015160600151614750909392919063ffffffff16565b604001518152602001613d14896000015162ffffff16613d0e4290565b90614121565b81526020018460000151606001518152602001613dde6040518061014001604052808b60c00151604001516060015181526020018b6040015181526020018b606001518152602001600081526020018b608001518152602001886001600160a01b031681526020018b60c0015160600151604001516001600160a01b031681526020018c60000160000160009054906101000a90046001600160a01b03166001600160a01b03168152602001896020015115158152602001600180811115612337576123376154f2565b815260200188608001518152602001856001600160a01b03168152602001846000015160e0015115158152508360200151846040015160ff16614871565b613e2f866007018660400151600261371d565b613e3d868660400151611b74565b84526040850151613e5290600788019061497c565b50505092915050565b613e63615387565b613e71838360000151611b74565b80825260e0015160408051808201909152601781527f416464204c6971756964697479206e6f742072656164790000000000000000006020820152613eb99190600090613216565b6000613ec3612c3e565b9050826020015115613f63578251613edd9085903361453e565b805183516007860180549091908110613ef857613ef8615ac5565b9060005260206000209060130201601101613f1e86600601613f173390565b8751612b12565b60ff1681548110613f3157613f31615ac5565b600091825260209091206006600990920201018054911515600160a01b0260ff60a01b19909216919091179055613fec565b815160200151518351600786018054613fc69392613f9d92918110613f8a57613f8a615ac5565b90600052602060002090601302016149b5565b106040518060400160405280600a815260200169141d5888199a5b1b195960b21b815250612c98565b8251613fd490859033612cbc565b8251613fea9085903360208501518551806143ea565b505b816000015160400151604001518460070184600001518154811061401257614012615ac5565b906000526020600020906013020160060160030160008282546140359190615af1565b90915550508251614047908590611b74565b8252825160078501805461407c9290811061406457614064615ac5565b906000526020600020906013020184602001516149bf565b156140ab5781516020908101510151835161409891869161378b565b6140ab846007018460000151600161371d565b6140c6338351606081015151604091820151909101516137dc565b6140e93383516060810151805160409283015183015192909101519091906138a8565b6140fe33835160600151604001518551614a02565b61410c848460000151611b74565b82525092915050565b6000610b118284615b04565b6000610b118284615af1565b600061413d846006018385612b12565b905083600701838154811061415457614154615ac5565b90600052602060002090601302016011018160ff168154811061417957614179615ac5565b600091825260209091206007600990920201015460ff166110b35760405162461bcd60e51b81526020600482015260166024820152752330b1ba37b93ca634b11d1027b7363c9030b236b4b760511b6044820152606401610795565b60006a636f6e736f6c652e6c6f679050600080835160208501845afa505050565b6000610b118284615d2b565b600061420e8284614ac1565b90506001600160a01b03811661428d57604051637316bcd160e01b81526001600160a01b038481166004830152831690637316bcd1906024016020604051808303816000875af1158015614266573d6000803e3d6000fd5b505050506040513d601f19601f8201168201806040525081019061428a9190615d3f565b90505b6001600160a01b03811661198857611988615c77565b808215612cb75760405162461bcd60e51b8152600401610795919061558e565b6142cb6152b6565b60006142d5612c3e565b905060006142e288614b2f565b905061433b6040518060400160405280601781526020017f436f6c20636f76657261676520697320746f6f206c6f770000000000000000008152506064896060015162ffffff1610151515612c9890919063ffffffff16565b61438c826040015160ff16886040015161ffff16116102d0896040015161ffff1611156040518060400160405280601081526020016f24b73b30b634b210323ab930ba34b7b760811b815250614b5f565b61439f858860c0015189608001516137dc565b6143b0886007018884898886614b88565b6143ba8882611b74565b92506143cb868860c0015183614fc9565b6143df858860c001518960800151896138a8565b505095945050505050565b6143f2615225565b86600701868154811061440757614407615ac5565b60009182526020822060116013909202010180546001018155815260078801805461443d91908990811061299657612996615ac5565b905061447188600701888154811061445757614457615ac5565b906000526020600020906013020160000180546001019055565b61196f888260405180604001604052808915158152602001881515815250898b88615059565b600061271061ffff831615806144ab575083155b156144ba576000915050611988565b6144f761ffff80168461ffff161060405180604001604052806011815260200170496e746572657374206f766572666c6f7760781b815250612c98565b61451f8161ffff168511604051806060016040528060268152602001615e3a60269139612c98565b610a1f8161ffff16612f288561ffff1687613a5290919063ffffffff16565b600061454a8484611b74565b9050600061455c856006018486612b12565b905060ff8116156145ad57612d1d6040518060400160405280600c81526020016b2737ba10309036b2b6b132b960a11b81525061459d878460ff1688612b39565b6020908101510151151590612c98565b612d826040518060400160405280601681526020017541646d696e2063616e6e6f74206c697175696461746560501b8152508360600151606001516001600160a01b0316856001600160a01b0316141515612c9890919063ffffffff16565b614614615225565b61462f87614626896006018787612b12565b60ff1685612b39565b8251606090810151825182015283516000910152600788018054919250614684918590811061466057614660615ac5565b9060005260206000209060130201601101826000015183602001518960ff16614871565b6146c487600701848154811061469c5761469c615ac5565b906000526020600020906013020160110183600001518460200151846040015160ff16614871565b6040808201516001600160a01b03808816600090815260068b016020818152858320898452815285832060ff9586169055928916825280835284822088835290925292909220908816905561165a908890614626908787612b12565b81818154811061473257614732615ac5565b600091825260208220600260139092020101805491613a4983615ce5565b61477460405180606001604052806000815260200160008152602001600081525090565b61479860405180606001604052806000815260200160008152602001600081525090565b61480562278d0062ffffff8616118015906147c057506147be62ffffff8516603c615136565b155b8562ffffff168562ffffff16111580156147e757506147e562ffffff8716603c615136565b155b604051806060016040528060258152602001615d7160259139614b5f565b61480f8686614497565b80825215611de157805161482f9062ffffff861690612f28906001613a52565b602082015262ffffff8084169085161161484a578051614863565b80516148639062ffffff80871691612f28918716613a52565b604082015295945050505050565b60405180606001604052808481526020018381526020018260ff16815250848261ffff16815481106148a5576148a5615ac5565b6000918252602091829020835180516009939093029091019182558083015160018301556040808201516002840155606082015160038401556080820151600484015560a0820151600584015560c082015160068401805460e0909401516001600160a01b039092166001600160a81b031990941693909317600160a01b9115159190910217909155838301518051600784018054929095015161ffff1990921690151561ff0019161761010091151591909102179092559101516008909101805460ff191660ff90921691909117905550505050565b614984612c3e565b6040015160ff1682828154811061499d5761499d615ac5565b60009182526020909120600960139092020101555050565b6000611988825490565b6001820154600883015460009182916149d791613a52565b905082156149eb5760098401548114610a1f565b60018401546149f9856149b5565b14949350505050565b6040516320d46be760e11b81526001600160a01b038481166004830152602482018390528316906341a8d7ce906044016020604051808303816000875af1158015614a51573d6000803e3d6000fd5b505050506040513d601f19601f82011682018060405250810190614a759190615a67565b612cb75760405162461bcd60e51b815260206004820152601e60248201527f416464696e67205573657220746f207374726174656779206661696c656400006044820152606401610795565b60405163f8806a1360e01b81526001600160a01b0382811660048301526000919084169063f8806a1390602401602060405180830381865afa158015614b0b573d6000803e3d6000fd5b505050506040513d601f19601f82011682018060405250810190610b119190615d3f565b60078101805460010181556000908152614b488261197b565b9050614b5a8260030180546001019055565b919050565b828015614b695750815b81906110b35760405162461bcd60e51b8152600401610795919061558e565b6000614b978660400151613a5e565b90506000614bcb87600001518384614bc38b6020015160ff168c60800151613a5290919063ffffffff16565b929190614750565b90506040518060a00160405280886020015160ff168152602001876040015160ff168152602001886060015162ffffff1681526020018362ffffff168152602001886000015161ffff16815250888481548110614c2a57614c2a615ac5565b906000526020600020906013020160010160008201518160000155602082015181600101556040820151816002015560608201518160030155608082015181600401559050506040518060a001604052808260000151815260200182602001518152602001886080015181526020018860800151815260200184815250888481548110614cb957614cb9615ac5565b9060005260206000209060130201600601600082015181600001556020820151816001015560408201518160020155606082015181600301556080820151816004015590505060405180608001604052808860c001516001600160a01b0316815260200187608001516001600160a01b03168152602001866001600160a01b031681526020018860a00151600081518110614d5657614d56615ac5565b60200260200101516001600160a01b0316815250888481548110614d7c57614d7c615ac5565b6000918252602091829020835160139290920201600b810180546001600160a01b03199081166001600160a01b039485161790915592840151600c8201805485169184169190911790556040840151600d820180548516918416919091179055606090930151600e9093018054909216921691909117905587548490899085908110614e0a57614e0a615ac5565b906000526020600020906013020160100160006101000a81548160ff021916908315150217905550878381548110614e4457614e44615ac5565b906000526020600020906013020160110160405180606001604052806040518061010001604052806000815260200160008152602001600081526020016000815260200160008152602001600081526020018b60a00151600081518110614ead57614ead615ac5565b6020908102919091018101516001600160a01b039081168352600092820183905292845260408051808201825260018082528184018190528684019190915294810183905286548086018855968352918190208551805160099098029091019687558082015194870194909455838201516002870155606084015160038701556080840151600487015560a0840151600587015560c084015160068701805460e0909601511515600160a01b026001600160a81b0319909616919094161793909317909155828201518051600786018054929094015115156101000261ff00199115159190911661ffff19909216919091171790915501516008909101805460ff9290921660ff19929092169190911790555050505050505050565b6040516301df211960e51b8152600481018290526001600160a01b038381166024830152841690633be42320906044016020604051808303816000875af1158015615018573d6000803e3d6000fd5b505050506040513d601f19601f8201168201806040525081019061503c9190615a67565b612cb75760405163015cfd8160e31b815260040160405180910390fd5b615061615225565b61509287600701848154811061507957615079615ac5565b9060005260206000209060130201601101878787615142565b6001600160a01b03841660009081526006880160209081526040808320868452909152902060ff87169055600787018054839190859081106150d6576150d6615ac5565b90600052602060002090601302016011018760ff16815481106150fb576150fb615ac5565b600091825260209091206006600990920201018054911515600160a01b0260ff60a01b1990921691909117905561165a8760ff881685612b39565b6000610b118284615d5c565b82848460ff168154811061515857615158615ac5565b906000526020600020906009020160080160006101000a81548160ff021916908360ff16021790555081848460ff168154811061519757615197615ac5565b60009182526020918290208351600992909202016007018054939092015161ffff1990931690151561ff001916176101009215159290920291909117905583548190859060ff86169081106151ee576151ee615ac5565b6000918252602090912060099091020160060180546001600160a01b0319166001600160a01b039290921691909117905550505050565b604051806060016040528061528360405180610100016040528060008152602001600081526020016000815260200160008152602001600081526020016000815260200160006001600160a01b031681526020016000151581525090565b81526020016152a960405180604001604052806000151581526020016000151581525090565b8152600060209091015290565b60408051610120810190915260006101008201908152819081526020016153056040518060a0016040528060008152602001600081526020016000815260200160008152602001600081525090565b815260200161533c6040518060a0016040528060008152602001600081526020016000815260200160008152602001600081525090565b8152604080516080810182526000808252602082810182905292820181905260608201529101908152600060208201819052604082018190526060808301526080909101905b905290565b604051806060016040528061539a6152b6565b815260200160008152602001600081525090565b60405180604001604052806153c16152b6565b8152602001615382615225565b6000602082840312156153e057600080fd5b5035919050565b8051805183526020810151602084015260408101516040840152606081015160608401526080810151608084015260a081015160a084015260018060a01b0360c08201511660c084015260e0810151151560e084015250602081015161545f6101008401828051151582526020908101511515910152565b506040015160ff166101409190910152565b6101a0810161548082866153e7565b9215156101608201526101800152919050565b6001600160a01b0381168114612ec557600080fd5b8035614b5a81615493565b600080604083850312156154c657600080fd5b8235915060208301356154d881615493565b809150509250929050565b610160810161198882846153e7565b634e487b7160e01b600052602160045260246000fd5b60028110612ec557612ec56154f2565b6020810161552583615508565b91905290565b60006020828403121561553d57600080fd5b8135610b1181615493565b6000815180845260005b8181101561556e57602081850181015186830182015201615552565b506000602082860101526020601f19601f83011685010191505092915050565b602081526000610b116020830184615548565b803561ffff81168114614b5a57600080fd5b803560ff81168114614b5a57600080fd5b803562ffffff81168114614b5a57600080fd5b60008060008060008060c087890312156155f057600080fd5b6155f9876155a1565b9550615607602088016155b3565b9450615615604088016155a1565b9350615623606088016155c4565b92506080870135915060a087013561563a81615493565b809150509295509295509295565b6000806040838503121561565b57600080fd5b8235915061566b602084016155b3565b90509250929050565b60008151808452602080850194506020840160005b838110156156b05761569c8783516153e7565b610160969096019590820190600101615689565b509495945050505050565b600581106156cb576156cb6154f2565b9052565b600061026082515184526020830151615716602086018280518252602081015160208301526040810151604083015260608101516060830152608081015160808301525050565b50604083810151805160c0870152602081015160e087015290810151610100860152606081015161012086015260808101516101408601525060608381015180516001600160a01b0390811661016088015260208201518116610180880152604082015181166101a0880152918101519091166101c08601525060808301516101e085015260a08301518015156102008601525060c0830151816102208601526157c282860182615674565b91505060e08301516157d86102408601826156bb565b509392505050565b600060208083016020845280855180835260408601915060408160051b87010192506020870160005b8281101561583757603f198886030184526158258583516156cf565b94509285019290850190600101615809565b5092979650505050505050565b634e487b7160e01b600052604160045260246000fd5b60008060008060008060c0878903121561587357600080fd5b61587c876155a1565b9550602061588b8189016155a1565b9550615899604089016155c4565b94506060880135935060808801356158b081615493565b925060a088013567ffffffffffffffff808211156158cd57600080fd5b818a0191508a601f8301126158e157600080fd5b8135818111156158f3576158f3615844565b8060051b604051601f19603f8301168101818110858211171561591857615918615844565b60405291825284820192508381018501918d83111561593657600080fd5b938501935b8285101561595b5761594c856154a8565b8452938501939285019261593b565b8096505050505050509295509295509295565b602081526000610b1160208301846156cf565b60008060008060008060c0878903121561599a57600080fd5b6159a3876155a1565b9550602087013594506040870135935060608701356159c181615493565b925060808701356159d181615493565b915060a087013561563a81615493565b600080600080608085870312156159f757600080fd5b8435615a0281615493565b93506020850135615a1281615493565b9250615a20604086016155a1565b9396929550929360600135925050565b6020808252601a908201527f4f6e6c794f776e65723a204d616e61676572206e6f7420736574000000000000604082015260600190565b600060208284031215615a7957600080fd5b81518015158114610b1157600080fd5b602081526000825160606020840152615aa560808401826156cf565b905060208401516040840152604084015160608401528091505092915050565b634e487b7160e01b600052603260045260246000fd5b634e487b7160e01b600052601160045260246000fd5b8082018082111561198857611988615adb565b8181038181111561198857611988615adb565b600060208284031215615b2957600080fd5b5051919050565b604081526000615b436040830185615548565b90508260208301529392505050565b60208152600082516101806020840152615b706101a08401826156cf565b905060208401516157d860408501826153e7565b600181815b80851115615bbf578160001904821115615ba557615ba5615adb565b80851615615bb257918102915b93841c9390800290615b89565b509250929050565b600082615bd657506001611988565b81615be357506000611988565b8160018114615bf95760028114615c0357615c1f565b6001915050611988565b60ff841115615c1457615c14615adb565b50506001821b611988565b5060208310610133831016604e8410600b8410161715615c42575081810a611988565b615c4c8383615b84565b8060001904821115615c6057615c60615adb565b029392505050565b6000610b1160ff841683615bc7565b634e487b7160e01b600052600160045260246000fd5b8881526020810188905260408101879052606081018690526001600160a01b038581166080830152841660a082015282151560c08201526101008101615cd283615508565b8260e08301529998505050505050505050565b600060018201615cf757615cf7615adb565b5060010190565b808202811582820484141761198857611988615adb565b634e487b7160e01b600052601260045260246000fd5b600082615d3a57615d3a615d15565b500490565b600060208284031215615d5157600080fd5b8151610b1181615493565b600082615d6b57615d6b615d15565b50069056fe5574696c733a2046756c6c447572206f72204475724f6643686f696365206f6572666c6f77466163746f7279202d207365744d696e696d756d4c697175696469747950657250726f7669646572206e6f74207065726d6974746564466163746f7279202d207769746864726177584649206e6f74207065726d6974746564466163746f7279202d20736574436f6e747261637444617461206e6f74207065726d6974746564466163746f7279202d20706572666f726d5365745570206e6f74207065726d69747465645072696e636970616c2073686f756c642062652067726561746572207468616e203130303030a26469706673582212206e0ec8091842d88728eb57213c68576559529b4812ed7556f2e5a9722d8b93df64736f6c63430008180033",
  "libraries": {
    "FactoryLib": "0x8c482a5E78cbcF930eBFc1Eeca0c446b7c85Bdef"
  },
  "devdoc": {
    "author": "Simplifinance - (Bobeu) ",
    "errors": {
      "EnforcedPause()": [
        {
          "details": "The operation failed because the contract is paused."
        }
      ],
      "ExpectedPause()": [
        {
          "details": "The operation failed because the contract is not paused."
        }
      ],
      "ReentrancyGuardReentrantCall()": [
        {
          "details": "Unauthorized reentrant call."
        }
      ]
    },
    "events": {
      "Paused(address)": {
        "details": "Emitted when the pause is triggered by `account`."
      },
      "Unpaused(address)": {
        "details": "Emitted when the pause is lifted by `account`."
      }
    },
    "kind": "dev",
    "methods": {
      "constructor": {
        "details": "Initializes state variables.",
        "params": {
          "assetClass": ": Asset manager contract.",
          "feeTo": ": Account to receive fees.",
          "minContribution": ": Minimum contribution amount.",
          "ownerShipManager": ": Accessibility manager contract",
          "serviceRate": ": Platform fee in %",
          "setUpFee": ": Amount to charge for setting a liquidity pool.",
          "strategyManager": ": Strategy manager contract."
        }
      },
      "createPermissionedPool(uint16,uint16,uint24,uint256,address,address[])": {
        "details": "Create permissioned pool See AbstractFactory.sol "
      },
      "createPermissionlessPool(uint16,uint8,uint16,uint24,uint256,address)": {
        "details": "Create permissionless See AbstractFactory.sol"
      },
      "enquireLiquidation(uint256)": {
        "details": "See FactoryLib.enquireLiquidation"
      },
      "epoches()": {
        "details": "Return current epoch.  This is also total epoches generated to date "
      },
      "getBalances(uint256)": {
        "details": "Returns both ERC20 and Native balances locked in an epoch",
        "params": {
          "epochId": ": Epoch Id"
        }
      },
      "getCollaterlQuote(uint256)": {
        "details": "Returns collaterl quote for the epoch.",
        "params": {
          "epochId": ": EpochId"
        },
        "returns": {
          "colCoverage": "Collateral coverage",
          "collateral": "Collateral"
        }
      },
      "getCurrentDebt(uint256,address)": {
        "params": {
          "epochId": ": Epoch Id",
          "target": ": Target user."
        }
      },
      "getFinance(uint256,uint8)": {
        "details": "Providers borrow from their pool provided the citeria are met.",
        "params": {
          "daysOfUseInHr": ": The time in hours the borrower wishes to retain the loan before paying back.",
          "epochId": ": Epoh Id user wants to borrow from. "
        }
      },
      "getPoolData(uint256)": {
        "details": "Returns a single pool for 'epochId'",
        "params": {
          "epochId": ": Epoch id."
        }
      },
      "getPoolFromAllEpoches()": {
        "details": "Returns pool from all epoched array "
      },
      "getProfile(uint256,address)": {
        "details": "Returns the profile of user",
        "params": {
          "epochId": ": Epoch Id",
          "user": ": User"
        }
      },
      "getRouter(uint256)": {
        "details": "Return the router for an epochId. "
      },
      "joinAPool(uint256)": {
        "details": "See AbstractFactory.sol "
      },
      "liquidate(uint256)": {
        "details": "Liquidate defaulter. Note: The expected repayment time for last paid contributor must have passed. See FactoryLib.liquidate() for more details.",
        "params": {
          "epochId": ": Epoch Id"
        }
      },
      "pause()": {
        "details": "Triggers stopped state. Requirements: Only owner role can call. - The contract must not be paused."
      },
      "paused()": {
        "details": "Returns true if the contract is paused, and false otherwise."
      },
      "payback(uint256)": {
        "details": "Return borrowed fund.",
        "params": {
          "epochId": ": Pool number. See FactoryLib.payback()."
        }
      },
      "performSetUp(uint16,uint256,uint256,address,address,address)": {
        "details": "See _setUp() for doc."
      },
      "removeLiquidityPool(uint256)": {
        "details": "Remove liquidity pool",
        "params": {
          "epochId": ": Epoch/Poool id"
        }
      },
      "setContractData(address,address,uint16,uint256)": {
        "details": "Set state variables.",
        "params": {
          "assetAdmin": ": AssetAdmin contract.",
          "feeTo": ": Fee receiver.",
          "serviceRate": ": fee in %. - Only-owner function."
        }
      },
      "setMinimumLiquidityPerProvider(uint256)": {
        "details": "Updates minimum liquidity of a pool.   Note: Only Owner function.",
        "params": {
          "minLiquidity": ": Minimum contribution."
        }
      },
      "setOwnershipManager(address)": {
        "params": {
          "newManager": ": New manager address"
        }
      },
      "unpause()": {
        "details": "Returns to normal state. Requirements: - Only owner role can call. - The contract must be paused."
      },
      "withdrawCollateral(uint256)": {
        "details": "Withdraws Collateral balance if any",
        "params": {
          "epochId": ": Epoch Id"
        }
      },
      "withdrawXFI(uint256)": {
        "details": "Withdraws XFI balances of this contract if any. OnlyOwner function",
        "params": {
          "value": ": Amount to withdraw"
        }
      }
    },
    "title": "Factory : Main contract",
    "version": 1
  },
  "userdoc": {
    "kind": "user",
    "methods": {
      "getCurrentDebt(uint256,address)": {
        "notice": "Returns the current debt of target user."
      },
      "getFinance(uint256,uint8)": {
        "notice": "Users can be members of multiple epoches. This enlarges the volume of funds they can access.  - This is a payable function since borrowers are required to stake XFI before they can access funds in epoches. - The contract must be in a usable state i.e not paused. - For the selected epoch, the getFinance() must already be unlocked. Unlocking  is automated soon as the required quorum for the epoch is achieved i.e the  numbers of providers equals the set quorum."
      },
      "permits(uint256,address)": {
        "notice": "Mapping of epochId to permit Permit is used to give instructions to the child contract who can withdraw from an epoch. Only one provider can withdraw at a time in an apoch."
      },
      "setOwnershipManager(address)": {
        "notice": "Set Ownership manager"
      }
    },
    "notice": "  A multi p2p lending and borrowing structure where liquidity providers are borrowers. We bring together users form different  parts of the world to form a liquidity synergy, where the pooled fund moved round them from the first to the last on the list in form of borrowed fund.The permissionless model allows users to create liquidity pool for anyone to participate while the  permissioned structure restricts participation only to the known members known as band.",
    "version": 1
  },
  "storageLayout": {
    "storage": [
      {
        "astId": 1678,
        "contract": "contracts/implementations/Factory.sol:Factory",
        "label": "ownershipManager",
        "offset": 0,
        "slot": "0",
        "type": "t_address"
      },
      {
        "astId": 1758,
        "contract": "contracts/implementations/Factory.sol:Factory",
        "label": "_paused",
        "offset": 20,
        "slot": "0",
        "type": "t_bool"
      },
      {
        "astId": 7605,
        "contract": "contracts/implementations/Factory.sol:Factory",
        "label": "permits",
        "offset": 0,
        "slot": "1",
        "type": "t_mapping(t_uint256,t_mapping(t_address,t_bool))"
      },
      {
        "astId": 367,
        "contract": "contracts/implementations/Factory.sol:Factory",
        "label": "_status",
        "offset": 0,
        "slot": "2",
        "type": "t_uint256"
      },
      {
        "astId": 839,
        "contract": "contracts/implementations/Factory.sol:Factory",
        "label": "data",
        "offset": 0,
        "slot": "3",
        "type": "t_struct(Data)3920_storage"
      },
      {
        "astId": 841,
        "contract": "contracts/implementations/Factory.sol:Factory",
        "label": "creationFee",
        "offset": 0,
        "slot": "11",
        "type": "t_uint256"
      },
      {
        "astId": 843,
        "contract": "contracts/implementations/Factory.sol:Factory",
        "label": "minContribution",
        "offset": 0,
        "slot": "12",
        "type": "t_uint256"
      },
      {
        "astId": 846,
        "contract": "contracts/implementations/Factory.sol:Factory",
        "label": "analytics",
        "offset": 0,
        "slot": "13",
        "type": "t_struct(Analytics)2493_storage"
      },
      {
        "astId": 2825,
        "contract": "contracts/implementations/Factory.sol:Factory",
        "label": "routers",
        "offset": 0,
        "slot": "17",
        "type": "t_mapping(t_uint256,t_enum(Router)2344)"
      }
    ],
    "types": {
      "t_address": {
        "encoding": "inplace",
        "label": "address",
        "numberOfBytes": "20"
      },
      "t_array(t_struct(ContributorData)2047_storage)dyn_storage": {
        "base": "t_struct(ContributorData)2047_storage",
        "encoding": "dynamic_array",
        "label": "struct Common.ContributorData[]",
        "numberOfBytes": "32"
      },
      "t_array(t_struct(Pool)1939_storage)dyn_storage": {
        "base": "t_struct(Pool)1939_storage",
        "encoding": "dynamic_array",
        "label": "struct Common.Pool[]",
        "numberOfBytes": "32"
      },
      "t_bool": {
        "encoding": "inplace",
        "label": "bool",
        "numberOfBytes": "1"
      },
      "t_enum(FuncTag)1888": {
        "encoding": "inplace",
        "label": "enum Common.FuncTag",
        "numberOfBytes": "1"
      },
      "t_enum(Router)2344": {
        "encoding": "inplace",
        "label": "enum IFactory.Router",
        "numberOfBytes": "1"
      },
      "t_mapping(t_address,t_bool)": {
        "encoding": "mapping",
        "key": "t_address",
        "label": "mapping(address => bool)",
        "numberOfBytes": "32",
        "value": "t_bool"
      },
      "t_mapping(t_address,t_mapping(t_uint256,t_uint256))": {
        "encoding": "mapping",
        "key": "t_address",
        "label": "mapping(address => mapping(uint256 => uint256))",
        "numberOfBytes": "32",
        "value": "t_mapping(t_uint256,t_uint256)"
      },
      "t_mapping(t_uint256,t_bool)": {
        "encoding": "mapping",
        "key": "t_uint256",
        "label": "mapping(uint256 => bool)",
        "numberOfBytes": "32",
        "value": "t_bool"
      },
      "t_mapping(t_uint256,t_enum(Router)2344)": {
        "encoding": "mapping",
        "key": "t_uint256",
        "label": "mapping(uint256 => enum IFactory.Router)",
        "numberOfBytes": "32",
        "value": "t_enum(Router)2344"
      },
      "t_mapping(t_uint256,t_mapping(t_address,t_bool))": {
        "encoding": "mapping",
        "key": "t_uint256",
        "label": "mapping(uint256 => mapping(address => bool))",
        "numberOfBytes": "32",
        "value": "t_mapping(t_address,t_bool)"
      },
      "t_mapping(t_uint256,t_struct(Pool)1939_storage)": {
        "encoding": "mapping",
        "key": "t_uint256",
        "label": "mapping(uint256 => struct Common.Pool)",
        "numberOfBytes": "32",
        "value": "t_struct(Pool)1939_storage"
      },
      "t_mapping(t_uint256,t_uint256)": {
        "encoding": "mapping",
        "key": "t_uint256",
        "label": "mapping(uint256 => uint256)",
        "numberOfBytes": "32",
        "value": "t_uint256"
      },
      "t_struct(Addresses)1990_storage": {
        "encoding": "inplace",
        "label": "struct Common.Addresses",
        "members": [
          {
            "astId": 1983,
            "contract": "contracts/implementations/Factory.sol:Factory",
            "label": "asset",
            "offset": 0,
            "slot": "0",
            "type": "t_address"
          },
          {
            "astId": 1985,
            "contract": "contracts/implementations/Factory.sol:Factory",
            "label": "lastPaid",
            "offset": 0,
            "slot": "1",
            "type": "t_address"
          },
          {
            "astId": 1987,
            "contract": "contracts/implementations/Factory.sol:Factory",
            "label": "strategy",
            "offset": 0,
            "slot": "2",
            "type": "t_address"
          },
          {
            "astId": 1989,
            "contract": "contracts/implementations/Factory.sol:Factory",
            "label": "admin",
            "offset": 0,
            "slot": "3",
            "type": "t_address"
          }
        ],
        "numberOfBytes": "128"
      },
      "t_struct(Analytics)2493_storage": {
        "encoding": "inplace",
        "label": "struct IFactory.Analytics",
        "members": [
          {
            "astId": 2486,
            "contract": "contracts/implementations/Factory.sol:Factory",
            "label": "tvlInXFI",
            "offset": 0,
            "slot": "0",
            "type": "t_uint256"
          },
          {
            "astId": 2488,
            "contract": "contracts/implementations/Factory.sol:Factory",
            "label": "tvlInUsd",
            "offset": 0,
            "slot": "1",
            "type": "t_uint256"
          },
          {
            "astId": 2490,
            "contract": "contracts/implementations/Factory.sol:Factory",
            "label": "totalPermissioned",
            "offset": 0,
            "slot": "2",
            "type": "t_uint256"
          },
          {
            "astId": 2492,
            "contract": "contracts/implementations/Factory.sol:Factory",
            "label": "totalPermissionless",
            "offset": 0,
            "slot": "3",
            "type": "t_uint256"
          }
        ],
        "numberOfBytes": "128"
      },
      "t_struct(ContractData)2484_storage": {
        "encoding": "inplace",
        "label": "struct IFactory.ContractData",
        "members": [
          {
            "astId": 2477,
            "contract": "contracts/implementations/Factory.sol:Factory",
            "label": "feeTo",
            "offset": 0,
            "slot": "0",
            "type": "t_address"
          },
          {
            "astId": 2479,
            "contract": "contracts/implementations/Factory.sol:Factory",
            "label": "assetAdmin",
            "offset": 0,
            "slot": "1",
            "type": "t_address"
          },
          {
            "astId": 2481,
            "contract": "contracts/implementations/Factory.sol:Factory",
            "label": "makerRate",
            "offset": 20,
            "slot": "1",
            "type": "t_uint16"
          },
          {
            "astId": 2483,
            "contract": "contracts/implementations/Factory.sol:Factory",
            "label": "strategyManager",
            "offset": 0,
            "slot": "2",
            "type": "t_address"
          }
        ],
        "numberOfBytes": "96"
      },
      "t_struct(Contributor)1909_storage": {
        "encoding": "inplace",
        "label": "struct Common.Contributor",
        "members": [
          {
            "astId": 1894,
            "contract": "contracts/implementations/Factory.sol:Factory",
            "label": "durOfChoice",
            "offset": 0,
            "slot": "0",
            "type": "t_uint256"
          },
          {
            "astId": 1896,
            "contract": "contracts/implementations/Factory.sol:Factory",
            "label": "expInterest",
            "offset": 0,
            "slot": "1",
            "type": "t_uint256"
          },
          {
            "astId": 1898,
            "contract": "contracts/implementations/Factory.sol:Factory",
            "label": "payDate",
            "offset": 0,
            "slot": "2",
            "type": "t_uint256"
          },
          {
            "astId": 1900,
            "contract": "contracts/implementations/Factory.sol:Factory",
            "label": "turnTime",
            "offset": 0,
            "slot": "3",
            "type": "t_uint256"
          },
          {
            "astId": 1902,
            "contract": "contracts/implementations/Factory.sol:Factory",
            "label": "loan",
            "offset": 0,
            "slot": "4",
            "type": "t_uint256"
          },
          {
            "astId": 1904,
            "contract": "contracts/implementations/Factory.sol:Factory",
            "label": "colBals",
            "offset": 0,
            "slot": "5",
            "type": "t_uint256"
          },
          {
            "astId": 1906,
            "contract": "contracts/implementations/Factory.sol:Factory",
            "label": "id",
            "offset": 0,
            "slot": "6",
            "type": "t_address"
          },
          {
            "astId": 1908,
            "contract": "contracts/implementations/Factory.sol:Factory",
            "label": "sentQuota",
            "offset": 20,
            "slot": "6",
            "type": "t_bool"
          }
        ],
        "numberOfBytes": "224"
      },
      "t_struct(ContributorData)2047_storage": {
        "encoding": "inplace",
        "label": "struct Common.ContributorData",
        "members": [
          {
            "astId": 2041,
            "contract": "contracts/implementations/Factory.sol:Factory",
            "label": "cData",
            "offset": 0,
            "slot": "0",
            "type": "t_struct(Contributor)1909_storage"
          },
          {
            "astId": 2044,
            "contract": "contracts/implementations/Factory.sol:Factory",
            "label": "rank",
            "offset": 0,
            "slot": "7",
            "type": "t_struct(Rank)1914_storage"
          },
          {
            "astId": 2046,
            "contract": "contracts/implementations/Factory.sol:Factory",
            "label": "slot",
            "offset": 0,
            "slot": "8",
            "type": "t_uint8"
          }
        ],
        "numberOfBytes": "288"
      },
      "t_struct(Counter)431_storage": {
        "encoding": "inplace",
        "label": "struct Counters.Counter",
        "members": [
          {
            "astId": 430,
            "contract": "contracts/implementations/Factory.sol:Factory",
            "label": "_value",
            "offset": 0,
            "slot": "0",
            "type": "t_uint256"
          }
        ],
        "numberOfBytes": "32"
      },
      "t_struct(Data)3920_storage": {
        "encoding": "inplace",
        "label": "struct Data",
        "members": [
          {
            "astId": 3894,
            "contract": "contracts/implementations/Factory.sol:Factory",
            "label": "pData",
            "offset": 0,
            "slot": "0",
            "type": "t_struct(ContractData)2484_storage"
          },
          {
            "astId": 3897,
            "contract": "contracts/implementations/Factory.sol:Factory",
            "label": "epoches",
            "offset": 0,
            "slot": "3",
            "type": "t_struct(Counter)431_storage"
          },
          {
            "astId": 3903,
            "contract": "contracts/implementations/Factory.sol:Factory",
            "label": "pools",
            "offset": 0,
            "slot": "4",
            "type": "t_mapping(t_uint256,t_struct(Pool)1939_storage)"
          },
          {
            "astId": 3908,
            "contract": "contracts/implementations/Factory.sol:Factory",
            "label": "amountExist",
            "offset": 0,
            "slot": "5",
            "type": "t_mapping(t_uint256,t_bool)"
          },
          {
            "astId": 3915,
            "contract": "contracts/implementations/Factory.sol:Factory",
            "label": "slots",
            "offset": 0,
            "slot": "6",
            "type": "t_mapping(t_address,t_mapping(t_uint256,t_uint256))"
          },
          {
            "astId": 3919,
            "contract": "contracts/implementations/Factory.sol:Factory",
            "label": "poolArr",
            "offset": 0,
            "slot": "7",
            "type": "t_array(t_struct(Pool)1939_storage)dyn_storage"
          }
        ],
        "numberOfBytes": "256"
      },
      "t_struct(Pool)1939_storage": {
        "encoding": "inplace",
        "label": "struct Common.Pool",
        "members": [
          {
            "astId": 1918,
            "contract": "contracts/implementations/Factory.sol:Factory",
            "label": "userCount",
            "offset": 0,
            "slot": "0",
            "type": "t_struct(Counter)431_storage"
          },
          {
            "astId": 1921,
            "contract": "contracts/implementations/Factory.sol:Factory",
            "label": "uints",
            "offset": 0,
            "slot": "1",
            "type": "t_struct(Uints)1980_storage"
          },
          {
            "astId": 1924,
            "contract": "contracts/implementations/Factory.sol:Factory",
            "label": "uint256s",
            "offset": 0,
            "slot": "6",
            "type": "t_struct(Uint256s)1968_storage"
          },
          {
            "astId": 1927,
            "contract": "contracts/implementations/Factory.sol:Factory",
            "label": "addrs",
            "offset": 0,
            "slot": "11",
            "type": "t_struct(Addresses)1990_storage"
          },
          {
            "astId": 1929,
            "contract": "contracts/implementations/Factory.sol:Factory",
            "label": "allGh",
            "offset": 0,
            "slot": "15",
            "type": "t_uint256"
          },
          {
            "astId": 1931,
            "contract": "contracts/implementations/Factory.sol:Factory",
            "label": "isPermissionless",
            "offset": 0,
            "slot": "16",
            "type": "t_bool"
          },
          {
            "astId": 1935,
            "contract": "contracts/implementations/Factory.sol:Factory",
            "label": "cData",
            "offset": 0,
            "slot": "17",
            "type": "t_array(t_struct(ContributorData)2047_storage)dyn_storage"
          },
          {
            "astId": 1938,
            "contract": "contracts/implementations/Factory.sol:Factory",
            "label": "stage",
            "offset": 0,
            "slot": "18",
            "type": "t_enum(FuncTag)1888"
          }
        ],
        "numberOfBytes": "608"
      },
      "t_struct(Rank)1914_storage": {
        "encoding": "inplace",
        "label": "struct Common.Rank",
        "members": [
          {
            "astId": 1911,
            "contract": "contracts/implementations/Factory.sol:Factory",
            "label": "admin",
            "offset": 0,
            "slot": "0",
            "type": "t_bool"
          },
          {
            "astId": 1913,
            "contract": "contracts/implementations/Factory.sol:Factory",
            "label": "member",
            "offset": 1,
            "slot": "0",
            "type": "t_bool"
          }
        ],
        "numberOfBytes": "32"
      },
      "t_struct(Uint256s)1968_storage": {
        "encoding": "inplace",
        "label": "struct Common.Uint256s",
        "members": [
          {
            "astId": 1959,
            "contract": "contracts/implementations/Factory.sol:Factory",
            "label": "fullInterest",
            "offset": 0,
            "slot": "0",
            "type": "t_uint256"
          },
          {
            "astId": 1961,
            "contract": "contracts/implementations/Factory.sol:Factory",
            "label": "intPerSec",
            "offset": 0,
            "slot": "1",
            "type": "t_uint256"
          },
          {
            "astId": 1963,
            "contract": "contracts/implementations/Factory.sol:Factory",
            "label": "unit",
            "offset": 0,
            "slot": "2",
            "type": "t_uint256"
          },
          {
            "astId": 1965,
            "contract": "contracts/implementations/Factory.sol:Factory",
            "label": "currentPool",
            "offset": 0,
            "slot": "3",
            "type": "t_uint256"
          },
          {
            "astId": 1967,
            "contract": "contracts/implementations/Factory.sol:Factory",
            "label": "epochId",
            "offset": 0,
            "slot": "4",
            "type": "t_uint256"
          }
        ],
        "numberOfBytes": "160"
      },
      "t_struct(Uints)1980_storage": {
        "encoding": "inplace",
        "label": "struct Common.Uints",
        "members": [
          {
            "astId": 1971,
            "contract": "contracts/implementations/Factory.sol:Factory",
            "label": "quorum",
            "offset": 0,
            "slot": "0",
            "type": "t_uint256"
          },
          {
            "astId": 1973,
            "contract": "contracts/implementations/Factory.sol:Factory",
            "label": "selector",
            "offset": 0,
            "slot": "1",
            "type": "t_uint256"
          },
          {
            "astId": 1975,
            "contract": "contracts/implementations/Factory.sol:Factory",
            "label": "colCoverage",
            "offset": 0,
            "slot": "2",
            "type": "t_uint256"
          },
          {
            "astId": 1977,
            "contract": "contracts/implementations/Factory.sol:Factory",
            "label": "duration",
            "offset": 0,
            "slot": "3",
            "type": "t_uint256"
          },
          {
            "astId": 1979,
            "contract": "contracts/implementations/Factory.sol:Factory",
            "label": "intRate",
            "offset": 0,
            "slot": "4",
            "type": "t_uint256"
          }
        ],
        "numberOfBytes": "160"
      },
      "t_uint16": {
        "encoding": "inplace",
        "label": "uint16",
        "numberOfBytes": "2"
      },
      "t_uint256": {
        "encoding": "inplace",
        "label": "uint256",
        "numberOfBytes": "32"
      },
      "t_uint8": {
        "encoding": "inplace",
        "label": "uint8",
        "numberOfBytes": "1"
      }
    }
  }
}