{
  "address": "0xe3F9527da2412eB74E3BEa41a1cE4501C6b8566b",
  "abi": [
    {
      "inputs": [
        {
          "internalType": "uint256",
          "name": "_fee",
          "type": "uint256"
        },
        {
          "internalType": "address",
          "name": "_feeTo",
          "type": "address"
        },
        {
          "internalType": "contract IOwnerShip",
          "name": "_ownershipManager",
          "type": "address"
        }
      ],
      "stateMutability": "nonpayable",
      "type": "constructor"
    },
    {
      "inputs": [
        {
          "internalType": "address",
          "name": "target",
          "type": "address"
        }
      ],
      "name": "AddressEmptyCode",
      "type": "error"
    },
    {
      "inputs": [
        {
          "internalType": "address",
          "name": "account",
          "type": "address"
        }
      ],
      "name": "AddressInsufficientBalance",
      "type": "error"
    },
    {
      "inputs": [],
      "name": "CallNotFromEscapeAccount",
      "type": "error"
    },
    {
      "inputs": [],
      "name": "EnforcedPause",
      "type": "error"
    },
    {
      "inputs": [],
      "name": "ExpectedPause",
      "type": "error"
    },
    {
      "inputs": [],
      "name": "FailedInnerCall",
      "type": "error"
    },
    {
      "inputs": [],
      "name": "ManagerAddressIsZero",
      "type": "error"
    },
    {
      "inputs": [],
      "name": "NotPermittedToCall",
      "type": "error"
    },
    {
      "anonymous": false,
      "inputs": [
        {
          "indexed": false,
          "internalType": "address",
          "name": "account",
          "type": "address"
        }
      ],
      "name": "Paused",
      "type": "event"
    },
    {
      "anonymous": false,
      "inputs": [
        {
          "indexed": false,
          "internalType": "address",
          "name": "account",
          "type": "address"
        }
      ],
      "name": "Unpaused",
      "type": "event"
    },
    {
      "inputs": [],
      "name": "fee",
      "outputs": [
        {
          "internalType": "uint256",
          "name": "",
          "type": "uint256"
        }
      ],
      "stateMutability": "view",
      "type": "function"
    },
    {
      "inputs": [],
      "name": "ownershipManager",
      "outputs": [
        {
          "internalType": "contract IOwnerShip",
          "name": "",
          "type": "address"
        }
      ],
      "stateMutability": "view",
      "type": "function"
    },
    {
      "inputs": [
        {
          "internalType": "address",
          "name": "lostAccount",
          "type": "address"
        }
      ],
      "name": "panicUnlock",
      "outputs": [],
      "stateMutability": "payable",
      "type": "function"
    },
    {
      "inputs": [],
      "name": "pause",
      "outputs": [],
      "stateMutability": "nonpayable",
      "type": "function"
    },
    {
      "inputs": [],
      "name": "paused",
      "outputs": [
        {
          "internalType": "bool",
          "name": "",
          "type": "bool"
        }
      ],
      "stateMutability": "view",
      "type": "function"
    },
    {
      "inputs": [
        {
          "internalType": "uint256",
          "name": "newFee",
          "type": "uint256"
        }
      ],
      "name": "setFee",
      "outputs": [],
      "stateMutability": "nonpayable",
      "type": "function"
    },
    {
      "inputs": [
        {
          "internalType": "address",
          "name": "newManager",
          "type": "address"
        }
      ],
      "name": "setOwnershipManager",
      "outputs": [
        {
          "internalType": "bool",
          "name": "",
          "type": "bool"
        }
      ],
      "stateMutability": "nonpayable",
      "type": "function"
    },
    {
      "inputs": [
        {
          "internalType": "contract IERC20",
          "name": "_token",
          "type": "address"
        }
      ],
      "name": "setToken",
      "outputs": [],
      "stateMutability": "nonpayable",
      "type": "function"
    },
    {
      "inputs": [],
      "name": "token",
      "outputs": [
        {
          "internalType": "contract IERC20",
          "name": "",
          "type": "address"
        }
      ],
      "stateMutability": "view",
      "type": "function"
    },
    {
      "inputs": [],
      "name": "unpause",
      "outputs": [],
      "stateMutability": "nonpayable",
      "type": "function"
    },
    {
      "stateMutability": "payable",
      "type": "receive"
    }
  ],
  "transactionHash": "0x589d6a90a6d0a999a3ffccd556cb540ff7d6ced5b39f7d0de178ee7438ab3bca",
  "args": [
    "10000000000000000000",
    "0xD7c271d20c9E323336bFC843AEb8deC23B346352",
    "0x85f9819923B0C3B38516dbBb0156B93811e42DcE"
  ],
  "numDeployments": 1,
  "solcInputHash": "f780c2f11c4ccd0f85c921954ca3f88d",
  "bytecode": "0x608060405234801561001057600080fd5b50604051610e58380380610e5883398101604081905261002f91610111565b600080546001600160a81b0319166001600160a01b038381169190911790915561005a908316610085565b50600191909155600280546001600160a01b0319166001600160a01b03909216919091179055610154565b6001600160a01b0381166100f9576040517f08c379a000000000000000000000000000000000000000000000000000000000815260206004820152601b60248201527f4c69623a20546172676574206973207a65726f20616464726573730000000000604482015260640160405180910390fd5b50565b6001600160a01b03811681146100f957600080fd5b60008060006060848603121561012657600080fd5b835192506020840151610138816100fc565b6040850151909250610149816100fc565b809150509250925092565b610cf5806101636000396000f3fe6080604052600436106100955760003560e01c806369fe0e2d1161005957806369fe0e2d146101995780638456cb59146101b9578063b88a3915146101ce578063ddca3f4314610206578063fc0c546a1461022a57600080fd5b8063144fa6d7146101015780633f4ba83a146101215780635c975abb1461013657806360d4507f1461016657806361737d621461017957600080fd5b366100fc576002546040516000916001600160a01b03169034908381818185875af1925050503d80600081146100e7576040519150601f19603f3d011682016040523d82523d6000602084013e6100ec565b606091505b50509050806100fa57600080fd5b005b600080fd5b34801561010d57600080fd5b506100fa61011c366004610b9b565b61024a565b34801561012d57600080fd5b506100fa61033e565b34801561014257600080fd5b50600054600160a01b900460ff165b60405190151581526020015b60405180910390f35b6100fa610174366004610b9b565b610453565b34801561018557600080fd5b50610151610194366004610b9b565b6105a1565b3480156101a557600080fd5b506100fa6101b4366004610bb8565b610685565b3480156101c557600080fd5b506100fa61074a565b3480156101da57600080fd5b506000546101ee906001600160a01b031681565b6040516001600160a01b03909116815260200161015d565b34801561021257600080fd5b5061021c60015481565b60405190815260200161015d565b34801561023657600080fd5b506003546101ee906001600160a01b031681565b6000546001600160a01b03168061027457604051637e70a7e360e01b815260040160405180910390fd5b6001600160a01b038116632f54bf6e336040516001600160e01b031960e084901b1681526001600160a01b039091166004820152602401602060405180830381865afa1580156102c8573d6000803e3d6000fd5b505050506040513d601f19601f820116820180604052508101906102ec9190610bd1565b610309576040516315ed864b60e21b815260040160405180910390fd5b61031b826001600160a01b031661084c565b50600380546001600160a01b0319166001600160a01b0392909216919091179055565b6000546001600160a01b03168061036857604051637e70a7e360e01b815260040160405180910390fd5b6001600160a01b038116632f54bf6e336040516001600160e01b031960e084901b1681526001600160a01b039091166004820152602401602060405180830381865afa1580156103bc573d6000803e3d6000fd5b505050506040513d601f19601f820116820180604052508101906103e09190610bd1565b6103fd576040516315ed864b60e21b815260040160405180910390fd5b6104056108a5565b6000805460ff60a01b191690557f5db9ee0a495bf2e6ff9c91a7834c1ba4fdd244a5e8aa4e537bd38aeae4b073aa335b6040516001600160a01b03909116815260200160405180910390a150565b61045b6108d1565b600354604051636ff96d1760e01b81526001600160a01b0383811660048301526000921690636ff96d1790602401606060405180830381865afa1580156104a6573d6000803e3d6000fd5b505050506040513d601f19601f820116820180604052508101906104ca9190610c2a565b6020810151519091506105175760405162461bcd60e51b815260206004820152601060248201526f139bc81b1bd8dac819195d1958dd195960821b60448201526064015b60405180910390fd5b6001546105259034906108fc565b6002546040516000916001600160a01b03169034908381818185875af1925050503d8060008114610572576040519150601f19603f3d011682016040523d82523d6000602084013e610577565b606091505b505090508061058557600080fd5b60035461059c906001600160a01b03168484610946565b505050565b600080546001600160a01b0316806105cc57604051637e70a7e360e01b815260040160405180910390fd5b6001600160a01b038116632f54bf6e336040516001600160e01b031960e084901b1681526001600160a01b039091166004820152602401602060405180830381865afa158015610620573d6000803e3d6000fd5b505050506040513d601f19601f820116820180604052508101906106449190610bd1565b610661576040516315ed864b60e21b815260040160405180910390fd5b600080546001600160a01b0319166001600160a01b03851617905550600192915050565b6000546001600160a01b0316806106af57604051637e70a7e360e01b815260040160405180910390fd5b6001600160a01b038116632f54bf6e336040516001600160e01b031960e084901b1681526001600160a01b039091166004820152602401602060405180830381865afa158015610703573d6000803e3d6000fd5b505050506040513d601f19601f820116820180604052508101906107279190610bd1565b610744576040516315ed864b60e21b815260040160405180910390fd5b50600155565b6000546001600160a01b03168061077457604051637e70a7e360e01b815260040160405180910390fd5b6001600160a01b038116632f54bf6e336040516001600160e01b031960e084901b1681526001600160a01b039091166004820152602401602060405180830381865afa1580156107c8573d6000803e3d6000fd5b505050506040513d601f19601f820116820180604052508101906107ec9190610bd1565b610809576040516315ed864b60e21b815260040160405180910390fd5b6108116108d1565b6000805460ff60a01b1916600160a01b1790557f62e78cea01bee320cd4e420270b5ea74000d11b0c9f74754ebdbfc544b05a2586104353390565b6001600160a01b0381166108a25760405162461bcd60e51b815260206004820152601b60248201527f4c69623a20546172676574206973207a65726f20616464726573730000000000604482015260640161050e565b50565b600054600160a01b900460ff166108cf57604051638dfc202b60e01b815260040160405180910390fd5b565b600054600160a01b900460ff16156108cf5760405163d93c066560e01b815260040160405180910390fd5b808210156109425760405162461bcd60e51b8152602060048201526013602482015272422069732067726561746572207468616e204160681b604482015260640161050e565b5050565b6040516001600160a01b0380841660248301528251604483015260208084015180516064850152015116608482015261059c90849063f627590b60e01b9060a40160408051601f198184030181529190526020810180516001600160e01b03166001600160e01b03199093169290921790915260006109ce6001600160a01b03841683610a4e565b90508051600014806109ef5750808060200190518101906109ef9190610bd1565b61059c5760405162461bcd60e51b815260206004820152602a60248201527f5361666545524332303a204552433230206f7065726174696f6e20646964206e6044820152691bdd081cdd58d8d9595960b21b606482015260840161050e565b6060610a5c83836000610a63565b9392505050565b60603031821115610a895760405163cd78605960e01b815230600482015260240161050e565b600080856001600160a01b03168486604051610aa59190610c90565b60006040518083038185875af1925050503d8060008114610ae2576040519150601f19603f3d011682016040523d82523d6000602084013e610ae7565b606091505b5091509150610af7868383610b01565b9695505050505050565b606082610b1657610b1182610b5d565b610a5c565b8151158015610b2d57506001600160a01b0384163b155b15610b5657604051639996b31560e01b81526001600160a01b038516600482015260240161050e565b5080610a5c565b805115610b6d5780518082602001fd5b604051630a12f52160e11b815260040160405180910390fd5b6001600160a01b03811681146108a257600080fd5b600060208284031215610bad57600080fd5b8135610a5c81610b86565b600060208284031215610bca57600080fd5b5035919050565b600060208284031215610be357600080fd5b81518015158114610a5c57600080fd5b6040805190810167ffffffffffffffff81118282101715610c2457634e487b7160e01b600052604160045260246000fd5b60405290565b60008183036060811215610c3d57600080fd5b610c45610bf3565b835181526040601f1983011215610c5b57600080fd5b610c63610bf3565b9150602084015182526040840151610c7a81610b86565b6020838101919091528101919091529392505050565b6000825160005b81811015610cb15760208186018101518583015201610c97565b50600092019182525091905056fea264697066735822122072502f65a2cc3f282884650253afb5e11bdd917ed829addeba06889937894ea364736f6c63430008180033",
  "devdoc": {
    "errors": {
      "AddressEmptyCode(address)": [
        {
          "details": "There's no code at `target` (it is not a contract)."
        }
      ],
      "AddressInsufficientBalance(address)": [
        {
          "details": "The ETH balance of the account is not enough to perform the operation."
        }
      ],
      "EnforcedPause()": [
        {
          "details": "The operation failed because the contract is paused."
        }
      ],
      "ExpectedPause()": [
        {
          "details": "The operation failed because the contract is not paused."
        }
      ],
      "FailedInnerCall()": [
        {
          "details": "A call to an address target failed. The target may have reverted."
        }
      ]
    },
    "events": {
      "Paused(address)": {
        "details": "Emitted when the pause is triggered by `account`."
      },
      "Unpaused(address)": {
        "details": "Emitted when the pause is lifted by `account`."
      }
    },
    "kind": "dev",
    "methods": {
      "panicUnlock(address)": {
        "details": "Panic unlock token. Token balances is sent to address specified as an escape address."
      },
      "pause()": {
        "details": "Triggers stopped state. Requirements: Only owner role can call. - The contract must not be paused."
      },
      "paused()": {
        "details": "Returns true if the contract is paused, and false otherwise."
      },
      "setOwnershipManager(address)": {
        "params": {
          "newManager": ": New manager address"
        }
      },
      "unpause()": {
        "details": "Returns to normal state. Requirements: - Only owner role can call. - The contract must be paused."
      }
    },
    "version": 1
  },
  "userdoc": {
    "kind": "user",
    "methods": {
      "setOwnershipManager(address)": {
        "notice": "Set Ownership manager"
      }
    },
    "notice": "Attorney acts as mediator between token and their holders when they lost access to their account and had previously set up a lock. Attorney run attestation om the token contract if user's claim is genuine, charges a small amount of fee and unlocks the token.  Tokens are unlocked and sent to the escape address. ",
    "version": 1
  },
  "storageLayout": {
    "storage": [
      {
        "astId": 2443,
        "contract": "contracts/implementations/token/Attorney.sol:Attorney",
        "label": "ownershipManager",
        "offset": 0,
        "slot": "0",
        "type": "t_contract(IOwnerShip)3542"
      },
      {
        "astId": 2530,
        "contract": "contracts/implementations/token/Attorney.sol:Attorney",
        "label": "_paused",
        "offset": 20,
        "slot": "0",
        "type": "t_bool"
      },
      {
        "astId": 5456,
        "contract": "contracts/implementations/token/Attorney.sol:Attorney",
        "label": "fee",
        "offset": 0,
        "slot": "1",
        "type": "t_uint256"
      },
      {
        "astId": 5458,
        "contract": "contracts/implementations/token/Attorney.sol:Attorney",
        "label": "feeTo",
        "offset": 0,
        "slot": "2",
        "type": "t_address"
      },
      {
        "astId": 5461,
        "contract": "contracts/implementations/token/Attorney.sol:Attorney",
        "label": "token",
        "offset": 0,
        "slot": "3",
        "type": "t_contract(IERC20)3240"
      }
    ],
    "types": {
      "t_address": {
        "encoding": "inplace",
        "label": "address",
        "numberOfBytes": "20"
      },
      "t_bool": {
        "encoding": "inplace",
        "label": "bool",
        "numberOfBytes": "1"
      },
      "t_contract(IERC20)3240": {
        "encoding": "inplace",
        "label": "contract IERC20",
        "numberOfBytes": "20"
      },
      "t_contract(IOwnerShip)3542": {
        "encoding": "inplace",
        "label": "contract IOwnerShip",
        "numberOfBytes": "20"
      },
      "t_uint256": {
        "encoding": "inplace",
        "label": "uint256",
        "numberOfBytes": "32"
      }
    }
  }
}