{
  "address": "0x9041F75414dEE439E0C5Fc618862642B93F84cb4",
  "abi": [
    {
      "inputs": [
        {
          "internalType": "contract IOwnerShip",
          "name": "_ownershipManager",
          "type": "address"
        },
        {
          "internalType": "address",
          "name": "_feeTo",
          "type": "address"
        }
      ],
      "stateMutability": "nonpayable",
      "type": "constructor"
    },
    {
      "inputs": [],
      "name": "ManagerAddressIsZero",
      "type": "error"
    },
    {
      "inputs": [],
      "name": "NotPermittedToCall",
      "type": "error"
    },
    {
      "inputs": [
        {
          "internalType": "address",
          "name": "",
          "type": "address"
        }
      ],
      "name": "ZeroAddress",
      "type": "error"
    },
    {
      "inputs": [
        {
          "internalType": "uint256",
          "name": "unit",
          "type": "uint256"
        }
      ],
      "name": "createBank",
      "outputs": [
        {
          "internalType": "address",
          "name": "_bank",
          "type": "address"
        }
      ],
      "stateMutability": "nonpayable",
      "type": "function"
    },
    {
      "inputs": [],
      "name": "feeTo",
      "outputs": [
        {
          "internalType": "address",
          "name": "",
          "type": "address"
        }
      ],
      "stateMutability": "view",
      "type": "function"
    },
    {
      "inputs": [
        {
          "internalType": "uint256",
          "name": "unit",
          "type": "uint256"
        }
      ],
      "name": "getBank",
      "outputs": [
        {
          "internalType": "address",
          "name": "",
          "type": "address"
        }
      ],
      "stateMutability": "view",
      "type": "function"
    },
    {
      "inputs": [],
      "name": "ownershipManager",
      "outputs": [
        {
          "internalType": "contract IOwnerShip",
          "name": "",
          "type": "address"
        }
      ],
      "stateMutability": "view",
      "type": "function"
    },
    {
      "inputs": [
        {
          "internalType": "address",
          "name": "newFeeTo",
          "type": "address"
        }
      ],
      "name": "setFeeTp",
      "outputs": [],
      "stateMutability": "nonpayable",
      "type": "function"
    },
    {
      "inputs": [
        {
          "internalType": "address",
          "name": "newManager",
          "type": "address"
        }
      ],
      "name": "setOwnershipManager",
      "outputs": [
        {
          "internalType": "bool",
          "name": "",
          "type": "bool"
        }
      ],
      "stateMutability": "nonpayable",
      "type": "function"
    },
    {
      "inputs": [],
      "name": "totalBanks",
      "outputs": [
        {
          "internalType": "uint256",
          "name": "",
          "type": "uint256"
        }
      ],
      "stateMutability": "view",
      "type": "function"
    },
    {
      "stateMutability": "payable",
      "type": "receive"
    }
  ],
  "transactionHash": "0xfce355b620204dce1502a3749a9b1812078f8485da3322c8d1e3548974dbca4e",
  "args": [
    "0x85f9819923B0C3B38516dbBb0156B93811e42DcE",
    "0xD7c271d20c9E323336bFC843AEb8deC23B346352"
  ],
  "numDeployments": 1,
  "solcInputHash": "e8736083370991cf784bacd988b240e6",
  "bytecode": "0x608060405234801561001057600080fd5b506040516119fb3803806119fb83398101604081905261002f91610078565b600080546001600160a01b039384166001600160a01b031991821617909155600280549290931691161790556100b2565b6001600160a01b038116811461007557600080fd5b50565b6000806040838503121561008b57600080fd5b825161009681610060565b60208401519092506100a781610060565b809150509250929050565b61193a806100c16000396000f3fe6080604052600436106100745760003560e01c8063bf74912c1161004e578063bf74912c14610110578063c3b95b1b14610132578063e487862714610168578063f01cc0a61461018857600080fd5b8063017e7e581461008357806361737d62146100c0578063b88a3915146100f057600080fd5b3661007e57600080fd5b600080fd5b34801561008f57600080fd5b506002546100a3906001600160a01b031681565b6040516001600160a01b0390911681526020015b60405180910390f35b3480156100cc57600080fd5b506100e06100db366004610527565b6101ac565b60405190151581526020016100b7565b3480156100fc57600080fd5b506000546100a3906001600160a01b031681565b34801561011c57600080fd5b5061013061012b366004610527565b610292565b005b34801561013e57600080fd5b506100a361014d366004610550565b6000908152600360205260409020546001600160a01b031690565b34801561017457600080fd5b506100a3610183366004610550565b610374565b34801561019457600080fd5b5061019e60015481565b6040519081526020016100b7565b600080546001600160a01b0316806101d757604051637e70a7e360e01b815260040160405180910390fd5b6001600160a01b038116632f54bf6e336040516001600160e01b031960e084901b1681526001600160a01b039091166004820152602401602060405180830381865afa15801561022b573d6000803e3d6000fd5b505050506040513d601f19601f8201168201806040525081019061024f9190610569565b61026c576040516315ed864b60e21b815260040160405180910390fd5b600080546001600160a01b0319166001600160a01b038516179055600191505b50919050565b6000546001600160a01b0316806102bc57604051637e70a7e360e01b815260040160405180910390fd5b6001600160a01b038116632f54bf6e336040516001600160e01b031960e084901b1681526001600160a01b039091166004820152602401602060405180830381865afa158015610310573d6000803e3d6000fd5b505050506040513d601f19601f820116820180604052508101906103349190610569565b610351576040516315ed864b60e21b815260040160405180910390fd5b50600280546001600160a01b0319166001600160a01b0392909216919091179055565b600080546001600160a01b03168061039f57604051637e70a7e360e01b815260040160405180910390fd5b6001600160a01b038116632f54bf6e336040516001600160e01b031960e084901b1681526001600160a01b039091166004820152602401602060405180830381865afa1580156103f3573d6000803e3d6000fd5b505050506040513d601f19601f820116820180604052508101906104179190610569565b610434576040516315ed864b60e21b815260040160405180910390fd5b6000838152600360205260409020546001600160a01b03166104605761045983610480565b915061028c565b6000838152600360205260409020546001600160a01b03165b9392505050565b60018054600091826104918361058b565b90915550506000546002546040516001600160a01b0392831692909116906104b89061051a565b6001600160a01b03928316815291166020820152604001604051809103906000f0801580156104eb573d6000803e3d6000fd5b50600083815260036020526040902080546001600160a01b0319166001600160a01b0383161790559050919050565b611352806105b383390190565b60006020828403121561053957600080fd5b81356001600160a01b038116811461047957600080fd5b60006020828403121561056257600080fd5b5035919050565b60006020828403121561057b57600080fd5b8151801515811461047957600080fd5b6000600182016105ab57634e487b7160e01b600052601160045260246000fd5b506001019056fe608060405234801561001057600080fd5b5060405161135238038061135283398101604081905261002f9161007c565b600080546001600160a01b039384166001600160a01b03199182161790915560018055600480549290931691161790556100b6565b6001600160a01b038116811461007957600080fd5b50565b6000806040838503121561008f57600080fd5b825161009a81610064565b60208401519092506100ab81610064565b809150509250929050565b61128d806100c56000396000f3fe60806040526004361061008a5760003560e01c806361737d621161005957806361737d62146101eb578063b88a39151461020b578063bb16369f1461022b578063d4e869441461024b578063fae34f7f1461027957600080fd5b8063017e7e58146100f65780633bc5de301461013357806341a8d7ce1461017e5780634cd01af1146101ae57600080fd5b366100f1576004546040516000916001600160a01b03169034908381818185875af1925050503d80600081146100dc576040519150601f19603f3d011682016040523d82523d6000602084013e6100e1565b606091505b50509050806100ef57600080fd5b005b600080fd5b34801561010257600080fd5b50600454610116906001600160a01b031681565b6040516001600160a01b0390911681526020015b60405180910390f35b34801561013f57600080fd5b5060408051808201825260008082526020918201528151808301835260025480825260035491830191825283519081529051918101919091520161012a565b34801561018a57600080fd5b5061019e610199366004610df8565b610299565b604051901515815260200161012a565b3480156101ba57600080fd5b506101ce6101c9366004610df8565b610376565b60408051825115158152602092830151928101929092520161012a565b3480156101f757600080fd5b5061019e610206366004610e24565b6103d4565b34801561021757600080fd5b50600054610116906001600160a01b031681565b34801561023757600080fd5b5061019e610246366004610e41565b6104b8565b34801561025757600080fd5b5061026b610266366004610e87565b6105e3565b60405190815260200161012a565b34801561028557600080fd5b5061019e610294366004611088565b610771565b600080546001600160a01b0316806102c457604051637e70a7e360e01b815260040160405180910390fd5b6001600160a01b038116632f54bf6e336040516001600160e01b031960e084901b1681526001600160a01b039091166004820152602401602060405180830381865afa158015610318573d6000803e3d6000fd5b505050506040513d601f19601f8201168201806040525081019061033c9190611180565b610359576040516315ed864b60e21b815260040160405180910390fd5b60028054600101905561036c8484610a31565b5060019392505050565b60408051808201825260008082526020918201819052825180840184526001600160a01b0386168083526005845284832086845284528483205460ff1615158252825260068352838220858352835292902054908201525b92915050565b600080546001600160a01b0316806103ff57604051637e70a7e360e01b815260040160405180910390fd5b6001600160a01b038116632f54bf6e336040516001600160e01b031960e084901b1681526001600160a01b039091166004820152602401602060405180830381865afa158015610453573d6000803e3d6000fd5b505050506040513d601f19601f820116820180604052508101906104779190611180565b610494576040516315ed864b60e21b815260040160405180910390fd5b600080546001600160a01b0319166001600160a01b03851617905550600192915050565b600080546001600160a01b0316806104e357604051637e70a7e360e01b815260040160405180910390fd5b6001600160a01b038116632f54bf6e336040516001600160e01b031960e084901b1681526001600160a01b039091166004820152602401602060405180830381865afa158015610537573d6000803e3d6000fd5b505050506040513d601f19601f8201168201806040525081019061055b9190611180565b610578576040516315ed864b60e21b815260040160405180910390fd5b6001600160a01b03861660009081526005602090815260408083208684529091529020548690849060ff166105c05760405163442421a560e11b815260040160405180910390fd5b6105cb888888610a95565b6105d58886610b9b565b506001979650505050505050565b6001600160a01b03861660009081526005602090815260408083208484529091528120548790839060ff1661062b5760405163442421a560e11b815260040160405180910390fd5b6000546001600160a01b03168061065557604051637e70a7e360e01b815260040160405180910390fd5b6001600160a01b038116632f54bf6e336040516001600160e01b031960e084901b1681526001600160a01b039091166004820152602401602060405180830381865afa1580156106a9573d6000803e3d6000fd5b505050506040513d601f19601f820116820180604052508101906106cd9190611180565b6106ea576040516315ed864b60e21b815260040160405180910390fd5b6001600160a01b0389161580159061070a57506001600160a01b038a1615155b6107165761071661119d565b6001600160a01b038a166000908152600660209081526040808320888452909152902086905587871561075757600380548901905587811115610757578790035b6107628b8b83610a95565b50969998505050505050505050565b600080546001600160a01b03168061079c57604051637e70a7e360e01b815260040160405180910390fd5b6001600160a01b038116632f54bf6e336040516001600160e01b031960e084901b1681526001600160a01b039091166004820152602401602060405180830381865afa1580156107f0573d6000803e3d6000fd5b505050506040513d601f19601f820116820180604052508101906108149190611180565b610831576040516315ed864b60e21b815260040160405180910390fd5b8260c00151610841578251610847565b8260e001515b6101008401516001600160a01b038216600090815260056020908152604080832084845290915290205460ff166108915760405163442421a560e11b815260040160405180910390fd5b84516001600160a01b03166000908152600660209081526040808320610100890151845290915290205460c086015115610926575060e0850180516001600160a01b0390811660009081526006602081815260408084206101008c018051865290835281852054875190961685529282528084208351855290915282209190915591519151909161092191610b9b565b610939565b6109398660000151876101000151610b9b565b85516001600160a01b031660009081526006602090815260408083206101008a0151845290915280822091909155860151606087015161097991906111c9565b60208701516040516370a0823160e01b81523060048201526001600160a01b03909116906370a0823190602401602060405180830381865afa1580156109c3573d6000803e3d6000fd5b505050506040513d601f19601f820116820180604052508101906109e791906111dc565b10156109f5576109f561119d565b610a09866000015187610120015183610a95565b856080015115610a2557610a2586602001518760a00151610c19565b50600195945050505050565b6001600160a01b038216600090815260056020908152604080832084845290915290205460ff1615610a6557610a6561119d565b6001600160a01b03909116600090815260056020908152604080832093835292905220805460ff19166001179055565b604051636eb1769f60e11b81523060048201526001600160a01b0384811660248301526000919084169063dd62ed3e90604401602060405180830381865afa158015610ae5573d6000803e3d6000fd5b505050506040513d601f19601f82011682018060405250810190610b0991906111dc565b90506001600160a01b03831663095ea7b385610b258585610db1565b6040516001600160e01b031960e085901b1681526001600160a01b03909216600483015260248201526044016020604051808303816000875af1158015610b70573d6000803e3d6000fd5b505050506040513d601f19601f82011682018060405250810190610b949190611180565b5050505050565b6001600160a01b038216600090815260056020908152604080832084845290915290205460ff16610bce57610bce61119d565b60025415610bec5760028054906000610be6836111f5565b91905055505b6001600160a01b03909116600090815260056020908152604080832093835292905220805460ff19169055565b6040516370a0823160e01b81523060048201526000906001600160a01b038416906370a0823190602401602060405180830381865afa158015610c60573d6000803e3d6000fd5b505050506040513d601f19601f82011682018060405250810190610c8491906111dc565b6003549091508115610da6578082118015610c9f5750600081115b15610d4d57610cae818361120c565b60006003556004805460405163a9059cbb60e01b81526001600160a01b0391821692810192909252602482018490529193509085169063a9059cbb906044016020604051808303816000875af1158015610d0c573d6000803e3d6000fd5b505050506040513d601f19601f82011682018060405250810190610d309190611180565b610d4d57604051634c9b841960e01b815260040160405180910390fd5b8115610da6578251610d60908390610dc4565b905060005b8351811015610da4576000848281518110610d8257610d8261121f565b602002602001015160c001519050610d9b818785610a95565b50600101610d65565b505b505060006002555050565b6000610dbd82846111c9565b9392505050565b6000610dbd8284611235565b6001600160a01b0381168114610de557600080fd5b50565b8035610df381610dd0565b919050565b60008060408385031215610e0b57600080fd5b8235610e1681610dd0565b946020939093013593505050565b600060208284031215610e3657600080fd5b8135610dbd81610dd0565b60008060008060808587031215610e5757600080fd5b8435610e6281610dd0565b93506020850135610e7281610dd0565b93969395505050506040820135916060013590565b60008060008060008060c08789031215610ea057600080fd5b8635610eab81610dd0565b95506020870135610ebb81610dd0565b95989597505050506040840135936060810135936080820135935060a0909101359150565b634e487b7160e01b600052604160045260246000fd5b604051610120810167ffffffffffffffff81118282101715610f1a57610f1a610ee0565b60405290565b604051610140810167ffffffffffffffff81118282101715610f1a57610f1a610ee0565b604051601f8201601f1916810167ffffffffffffffff81118282101715610f6d57610f6d610ee0565b604052919050565b8015158114610de557600080fd5b8035610df381610f75565b600082601f830112610f9f57600080fd5b8135602067ffffffffffffffff821115610fbb57610fbb610ee0565b610fc9818360051b01610f44565b8281526101209283028501820192828201919087851115610fe957600080fd5b8387015b8581101561107b5781818a0312156110055760008081fd5b61100d610ef6565b81358152858201358682015260408083013590820152606080830135908201526080808301359082015260a0808301359082015260c061104e818401610de8565b9082015260e061105f838201610f83565b9082015261010082810135908201528452928401928101610fed565b5090979650505050505050565b60006020828403121561109a57600080fd5b813567ffffffffffffffff808211156110b257600080fd5b9083019061014082860312156110c757600080fd5b6110cf610f20565b6110d883610de8565b81526110e660208401610de8565b6020820152604083013560408201526060830135606082015261110b60808401610f83565b608082015260a08301358281111561112257600080fd5b61112e87828601610f8e565b60a08301525061114060c08401610f83565b60c082015261115160e08401610de8565b60e082015261010083810135908201526101209150611171828401610de8565b91810191909152949350505050565b60006020828403121561119257600080fd5b8151610dbd81610f75565b634e487b7160e01b600052600160045260246000fd5b634e487b7160e01b600052601160045260246000fd5b808201808211156103ce576103ce6111b3565b6000602082840312156111ee57600080fd5b5051919050565b600081611204576112046111b3565b506000190190565b818103818111156103ce576103ce6111b3565b634e487b7160e01b600052603260045260246000fd5b60008261125257634e487b7160e01b600052601260045260246000fd5b50049056fea2646970667358221220ae96452f7940e9e57e1236891dbe7aaa6db30de846e3283a2c30f647dfdda3e064736f6c63430008180033a2646970667358221220bc1a65e8dae337eab7dae5f8c04d7637cdcb13c4f6b0ded66bd3b701b1223faf64736f6c63430008180033",
  "devdoc": {
    "kind": "dev",
    "methods": {
      "createBank(uint256)": {
        "details": "Create a new bank."
      },
      "getBank(uint256)": {
        "params": {
          "unit": ": Unit amount"
        }
      },
      "setOwnershipManager(address)": {
        "params": {
          "newManager": ": New manager address"
        }
      }
    },
    "stateVariables": {
      "bankMap": {
        "details": "Mapping of addresses to strategies. Also used as reverse map of strategies to status."
      }
    },
    "title": "SmartBankAdmin: A standalone contract that manages bank creation,  deletion, read and write data. Author: Simplifinance",
    "version": 1
  },
  "userdoc": {
    "kind": "user",
    "methods": {
      "createBank(uint256)": {
        "notice": "'unit' should not own a bank before now.          only address with owner permission can call."
      },
      "getBank(uint256)": {
        "notice": "Returns then bank for 'unit'"
      },
      "setOwnershipManager(address)": {
        "notice": "Set Ownership manager"
      }
    },
    "version": 1
  },
  "storageLayout": {
    "storage": [
      {
        "astId": 770,
        "contract": "contracts/implementations/strategies/BankFactory.sol:BankFactory",
        "label": "ownershipManager",
        "offset": 0,
        "slot": "0",
        "type": "t_contract(IOwnerShip)1485"
      },
      {
        "astId": 2318,
        "contract": "contracts/implementations/strategies/BankFactory.sol:BankFactory",
        "label": "totalBanks",
        "offset": 0,
        "slot": "1",
        "type": "t_uint256"
      },
      {
        "astId": 2320,
        "contract": "contracts/implementations/strategies/BankFactory.sol:BankFactory",
        "label": "feeTo",
        "offset": 0,
        "slot": "2",
        "type": "t_address"
      },
      {
        "astId": 2325,
        "contract": "contracts/implementations/strategies/BankFactory.sol:BankFactory",
        "label": "bankMap",
        "offset": 0,
        "slot": "3",
        "type": "t_mapping(t_uint256,t_address)"
      }
    ],
    "types": {
      "t_address": {
        "encoding": "inplace",
        "label": "address",
        "numberOfBytes": "20"
      },
      "t_contract(IOwnerShip)1485": {
        "encoding": "inplace",
        "label": "contract IOwnerShip",
        "numberOfBytes": "20"
      },
      "t_mapping(t_uint256,t_address)": {
        "encoding": "mapping",
        "key": "t_uint256",
        "label": "mapping(uint256 => address)",
        "numberOfBytes": "32",
        "value": "t_address"
      },
      "t_uint256": {
        "encoding": "inplace",
        "label": "uint256",
        "numberOfBytes": "32"
      }
    }
  }
}