{
  "address": "0x979537594357d9EB54535917fc111C4ceA48d7dE",
  "abi": [
    {
      "inputs": [
        {
          "internalType": "uint16",
          "name": "serviceRate",
          "type": "uint16"
        },
        {
          "internalType": "uint256",
          "name": "minContribution",
          "type": "uint256"
        },
        {
          "internalType": "address",
          "name": "feeTo",
          "type": "address"
        },
        {
          "internalType": "address",
          "name": "assetClass",
          "type": "address"
        },
        {
          "internalType": "address",
          "name": "bankFactory",
          "type": "address"
        },
        {
          "internalType": "address",
          "name": "ownerShipManager",
          "type": "address"
        }
      ],
      "stateMutability": "nonpayable",
      "type": "constructor"
    },
    {
      "inputs": [],
      "name": "APoolWithThisAmountExist",
      "type": "error"
    },
    {
      "inputs": [],
      "name": "AllMemberIsPaid",
      "type": "error"
    },
    {
      "inputs": [
        {
          "internalType": "uint24",
          "name": "ccr",
          "type": "uint24"
        }
      ],
      "name": "CollateralCoverageCannotGoBelow_100",
      "type": "error"
    },
    {
      "inputs": [],
      "name": "EnforcedPause",
      "type": "error"
    },
    {
      "inputs": [],
      "name": "ExpectedPause",
      "type": "error"
    },
    {
      "inputs": [],
      "name": "InsufficientFund",
      "type": "error"
    },
    {
      "inputs": [],
      "name": "InvalidContributionAmount",
      "type": "error"
    },
    {
      "inputs": [],
      "name": "OwnershipManagerIsNotSet",
      "type": "error"
    },
    {
      "inputs": [],
      "name": "QuorumIsInvalid",
      "type": "error"
    },
    {
      "inputs": [],
      "name": "ReentrancyGuardReentrantCall",
      "type": "error"
    },
    {
      "inputs": [
        {
          "internalType": "address",
          "name": "",
          "type": "address"
        }
      ],
      "name": "UnSupportedAsset",
      "type": "error"
    },
    {
      "anonymous": false,
      "inputs": [
        {
          "components": [
            {
              "components": [
                {
                  "components": [
                    {
                      "internalType": "uint256",
                      "name": "_value",
                      "type": "uint256"
                    }
                  ],
                  "internalType": "struct Counters.Counter",
                  "name": "userCount",
                  "type": "tuple"
                },
                {
                  "components": [
                    {
                      "internalType": "uint256",
                      "name": "quorum",
                      "type": "uint256"
                    },
                    {
                      "internalType": "uint256",
                      "name": "selector",
                      "type": "uint256"
                    },
                    {
                      "internalType": "uint256",
                      "name": "colCoverage",
                      "type": "uint256"
                    },
                    {
                      "internalType": "uint256",
                      "name": "duration",
                      "type": "uint256"
                    },
                    {
                      "internalType": "uint256",
                      "name": "intRate",
                      "type": "uint256"
                    }
                  ],
                  "internalType": "struct Common.Uints",
                  "name": "uints",
                  "type": "tuple"
                },
                {
                  "components": [
                    {
                      "internalType": "uint256",
                      "name": "fullInterest",
                      "type": "uint256"
                    },
                    {
                      "internalType": "uint256",
                      "name": "intPerSec",
                      "type": "uint256"
                    },
                    {
                      "internalType": "uint256",
                      "name": "unit",
                      "type": "uint256"
                    },
                    {
                      "internalType": "uint256",
                      "name": "currentPool",
                      "type": "uint256"
                    },
                    {
                      "internalType": "uint256",
                      "name": "unitId",
                      "type": "uint256"
                    },
                    {
                      "internalType": "uint256",
                      "name": "rId",
                      "type": "uint256"
                    }
                  ],
                  "internalType": "struct Common.Uint256s",
                  "name": "uint256s",
                  "type": "tuple"
                },
                {
                  "components": [
                    {
                      "internalType": "address",
                      "name": "asset",
                      "type": "address"
                    },
                    {
                      "internalType": "address",
                      "name": "lastPaid",
                      "type": "address"
                    },
                    {
                      "internalType": "address",
                      "name": "bank",
                      "type": "address"
                    },
                    {
                      "internalType": "address",
                      "name": "admin",
                      "type": "address"
                    }
                  ],
                  "internalType": "struct Common.Addresses",
                  "name": "addrs",
                  "type": "tuple"
                },
                {
                  "internalType": "uint256",
                  "name": "allGh",
                  "type": "uint256"
                },
                {
                  "components": [
                    {
                      "internalType": "uint256",
                      "name": "durOfChoice",
                      "type": "uint256"
                    },
                    {
                      "internalType": "uint256",
                      "name": "expInterest",
                      "type": "uint256"
                    },
                    {
                      "internalType": "uint256",
                      "name": "payDate",
                      "type": "uint256"
                    },
                    {
                      "internalType": "uint256",
                      "name": "turnTime",
                      "type": "uint256"
                    },
                    {
                      "internalType": "uint256",
                      "name": "loan",
                      "type": "uint256"
                    },
                    {
                      "internalType": "uint256",
                      "name": "colBals",
                      "type": "uint256"
                    },
                    {
                      "internalType": "address",
                      "name": "id",
                      "type": "address"
                    },
                    {
                      "internalType": "bool",
                      "name": "sentQuota",
                      "type": "bool"
                    }
                  ],
                  "internalType": "struct Common.Contributor[]",
                  "name": "cData",
                  "type": "tuple[]"
                },
                {
                  "internalType": "enum Common.Router",
                  "name": "router",
                  "type": "uint8"
                },
                {
                  "internalType": "enum Common.FuncTag",
                  "name": "stage",
                  "type": "uint8"
                }
              ],
              "internalType": "struct Common.Pool",
              "name": "pool",
              "type": "tuple"
            },
            {
              "components": [
                {
                  "internalType": "uint256",
                  "name": "durOfChoice",
                  "type": "uint256"
                },
                {
                  "internalType": "uint256",
                  "name": "expInterest",
                  "type": "uint256"
                },
                {
                  "internalType": "uint256",
                  "name": "payDate",
                  "type": "uint256"
                },
                {
                  "internalType": "uint256",
                  "name": "turnTime",
                  "type": "uint256"
                },
                {
                  "internalType": "uint256",
                  "name": "loan",
                  "type": "uint256"
                },
                {
                  "internalType": "uint256",
                  "name": "colBals",
                  "type": "uint256"
                },
                {
                  "internalType": "address",
                  "name": "id",
                  "type": "address"
                },
                {
                  "internalType": "bool",
                  "name": "sentQuota",
                  "type": "bool"
                }
              ],
              "internalType": "struct Common.Contributor",
              "name": "cData",
              "type": "tuple"
            }
          ],
          "indexed": false,
          "internalType": "struct Common.CreatePoolReturnValue",
          "name": "",
          "type": "tuple"
        }
      ],
      "name": "BandCreated",
      "type": "event"
    },
    {
      "anonymous": false,
      "inputs": [
        {
          "indexed": false,
          "internalType": "uint256",
          "name": "epochId",
          "type": "uint256"
        }
      ],
      "name": "Cancellation",
      "type": "event"
    },
    {
      "anonymous": false,
      "inputs": [
        {
          "components": [
            {
              "components": [
                {
                  "components": [
                    {
                      "internalType": "uint256",
                      "name": "_value",
                      "type": "uint256"
                    }
                  ],
                  "internalType": "struct Counters.Counter",
                  "name": "userCount",
                  "type": "tuple"
                },
                {
                  "components": [
                    {
                      "internalType": "uint256",
                      "name": "quorum",
                      "type": "uint256"
                    },
                    {
                      "internalType": "uint256",
                      "name": "selector",
                      "type": "uint256"
                    },
                    {
                      "internalType": "uint256",
                      "name": "colCoverage",
                      "type": "uint256"
                    },
                    {
                      "internalType": "uint256",
                      "name": "duration",
                      "type": "uint256"
                    },
                    {
                      "internalType": "uint256",
                      "name": "intRate",
                      "type": "uint256"
                    }
                  ],
                  "internalType": "struct Common.Uints",
                  "name": "uints",
                  "type": "tuple"
                },
                {
                  "components": [
                    {
                      "internalType": "uint256",
                      "name": "fullInterest",
                      "type": "uint256"
                    },
                    {
                      "internalType": "uint256",
                      "name": "intPerSec",
                      "type": "uint256"
                    },
                    {
                      "internalType": "uint256",
                      "name": "unit",
                      "type": "uint256"
                    },
                    {
                      "internalType": "uint256",
                      "name": "currentPool",
                      "type": "uint256"
                    },
                    {
                      "internalType": "uint256",
                      "name": "unitId",
                      "type": "uint256"
                    },
                    {
                      "internalType": "uint256",
                      "name": "rId",
                      "type": "uint256"
                    }
                  ],
                  "internalType": "struct Common.Uint256s",
                  "name": "uint256s",
                  "type": "tuple"
                },
                {
                  "components": [
                    {
                      "internalType": "address",
                      "name": "asset",
                      "type": "address"
                    },
                    {
                      "internalType": "address",
                      "name": "lastPaid",
                      "type": "address"
                    },
                    {
                      "internalType": "address",
                      "name": "bank",
                      "type": "address"
                    },
                    {
                      "internalType": "address",
                      "name": "admin",
                      "type": "address"
                    }
                  ],
                  "internalType": "struct Common.Addresses",
                  "name": "addrs",
                  "type": "tuple"
                },
                {
                  "internalType": "uint256",
                  "name": "allGh",
                  "type": "uint256"
                },
                {
                  "components": [
                    {
                      "internalType": "uint256",
                      "name": "durOfChoice",
                      "type": "uint256"
                    },
                    {
                      "internalType": "uint256",
                      "name": "expInterest",
                      "type": "uint256"
                    },
                    {
                      "internalType": "uint256",
                      "name": "payDate",
                      "type": "uint256"
                    },
                    {
                      "internalType": "uint256",
                      "name": "turnTime",
                      "type": "uint256"
                    },
                    {
                      "internalType": "uint256",
                      "name": "loan",
                      "type": "uint256"
                    },
                    {
                      "internalType": "uint256",
                      "name": "colBals",
                      "type": "uint256"
                    },
                    {
                      "internalType": "address",
                      "name": "id",
                      "type": "address"
                    },
                    {
                      "internalType": "bool",
                      "name": "sentQuota",
                      "type": "bool"
                    }
                  ],
                  "internalType": "struct Common.Contributor[]",
                  "name": "cData",
                  "type": "tuple[]"
                },
                {
                  "internalType": "enum Common.Router",
                  "name": "router",
                  "type": "uint8"
                },
                {
                  "internalType": "enum Common.FuncTag",
                  "name": "stage",
                  "type": "uint8"
                }
              ],
              "internalType": "struct Common.Pool",
              "name": "pool",
              "type": "tuple"
            },
            {
              "internalType": "uint256",
              "name": "debtBal",
              "type": "uint256"
            },
            {
              "internalType": "uint256",
              "name": "colBal",
              "type": "uint256"
            }
          ],
          "indexed": false,
          "internalType": "struct Common.CommonEventData",
          "name": "",
          "type": "tuple"
        }
      ],
      "name": "GetFinanced",
      "type": "event"
    },
    {
      "anonymous": false,
      "inputs": [
        {
          "components": [
            {
              "components": [
                {
                  "components": [
                    {
                      "internalType": "uint256",
                      "name": "_value",
                      "type": "uint256"
                    }
                  ],
                  "internalType": "struct Counters.Counter",
                  "name": "userCount",
                  "type": "tuple"
                },
                {
                  "components": [
                    {
                      "internalType": "uint256",
                      "name": "quorum",
                      "type": "uint256"
                    },
                    {
                      "internalType": "uint256",
                      "name": "selector",
                      "type": "uint256"
                    },
                    {
                      "internalType": "uint256",
                      "name": "colCoverage",
                      "type": "uint256"
                    },
                    {
                      "internalType": "uint256",
                      "name": "duration",
                      "type": "uint256"
                    },
                    {
                      "internalType": "uint256",
                      "name": "intRate",
                      "type": "uint256"
                    }
                  ],
                  "internalType": "struct Common.Uints",
                  "name": "uints",
                  "type": "tuple"
                },
                {
                  "components": [
                    {
                      "internalType": "uint256",
                      "name": "fullInterest",
                      "type": "uint256"
                    },
                    {
                      "internalType": "uint256",
                      "name": "intPerSec",
                      "type": "uint256"
                    },
                    {
                      "internalType": "uint256",
                      "name": "unit",
                      "type": "uint256"
                    },
                    {
                      "internalType": "uint256",
                      "name": "currentPool",
                      "type": "uint256"
                    },
                    {
                      "internalType": "uint256",
                      "name": "unitId",
                      "type": "uint256"
                    },
                    {
                      "internalType": "uint256",
                      "name": "rId",
                      "type": "uint256"
                    }
                  ],
                  "internalType": "struct Common.Uint256s",
                  "name": "uint256s",
                  "type": "tuple"
                },
                {
                  "components": [
                    {
                      "internalType": "address",
                      "name": "asset",
                      "type": "address"
                    },
                    {
                      "internalType": "address",
                      "name": "lastPaid",
                      "type": "address"
                    },
                    {
                      "internalType": "address",
                      "name": "bank",
                      "type": "address"
                    },
                    {
                      "internalType": "address",
                      "name": "admin",
                      "type": "address"
                    }
                  ],
                  "internalType": "struct Common.Addresses",
                  "name": "addrs",
                  "type": "tuple"
                },
                {
                  "internalType": "uint256",
                  "name": "allGh",
                  "type": "uint256"
                },
                {
                  "components": [
                    {
                      "internalType": "uint256",
                      "name": "durOfChoice",
                      "type": "uint256"
                    },
                    {
                      "internalType": "uint256",
                      "name": "expInterest",
                      "type": "uint256"
                    },
                    {
                      "internalType": "uint256",
                      "name": "payDate",
                      "type": "uint256"
                    },
                    {
                      "internalType": "uint256",
                      "name": "turnTime",
                      "type": "uint256"
                    },
                    {
                      "internalType": "uint256",
                      "name": "loan",
                      "type": "uint256"
                    },
                    {
                      "internalType": "uint256",
                      "name": "colBals",
                      "type": "uint256"
                    },
                    {
                      "internalType": "address",
                      "name": "id",
                      "type": "address"
                    },
                    {
                      "internalType": "bool",
                      "name": "sentQuota",
                      "type": "bool"
                    }
                  ],
                  "internalType": "struct Common.Contributor[]",
                  "name": "cData",
                  "type": "tuple[]"
                },
                {
                  "internalType": "enum Common.Router",
                  "name": "router",
                  "type": "uint8"
                },
                {
                  "internalType": "enum Common.FuncTag",
                  "name": "stage",
                  "type": "uint8"
                }
              ],
              "internalType": "struct Common.Pool",
              "name": "pool",
              "type": "tuple"
            },
            {
              "internalType": "uint256",
              "name": "debtBal",
              "type": "uint256"
            },
            {
              "internalType": "uint256",
              "name": "colBal",
              "type": "uint256"
            }
          ],
          "indexed": false,
          "internalType": "struct Common.CommonEventData",
          "name": "",
          "type": "tuple"
        }
      ],
      "name": "Liquidated",
      "type": "event"
    },
    {
      "anonymous": false,
      "inputs": [
        {
          "components": [
            {
              "components": [
                {
                  "components": [
                    {
                      "internalType": "uint256",
                      "name": "_value",
                      "type": "uint256"
                    }
                  ],
                  "internalType": "struct Counters.Counter",
                  "name": "userCount",
                  "type": "tuple"
                },
                {
                  "components": [
                    {
                      "internalType": "uint256",
                      "name": "quorum",
                      "type": "uint256"
                    },
                    {
                      "internalType": "uint256",
                      "name": "selector",
                      "type": "uint256"
                    },
                    {
                      "internalType": "uint256",
                      "name": "colCoverage",
                      "type": "uint256"
                    },
                    {
                      "internalType": "uint256",
                      "name": "duration",
                      "type": "uint256"
                    },
                    {
                      "internalType": "uint256",
                      "name": "intRate",
                      "type": "uint256"
                    }
                  ],
                  "internalType": "struct Common.Uints",
                  "name": "uints",
                  "type": "tuple"
                },
                {
                  "components": [
                    {
                      "internalType": "uint256",
                      "name": "fullInterest",
                      "type": "uint256"
                    },
                    {
                      "internalType": "uint256",
                      "name": "intPerSec",
                      "type": "uint256"
                    },
                    {
                      "internalType": "uint256",
                      "name": "unit",
                      "type": "uint256"
                    },
                    {
                      "internalType": "uint256",
                      "name": "currentPool",
                      "type": "uint256"
                    },
                    {
                      "internalType": "uint256",
                      "name": "unitId",
                      "type": "uint256"
                    },
                    {
                      "internalType": "uint256",
                      "name": "rId",
                      "type": "uint256"
                    }
                  ],
                  "internalType": "struct Common.Uint256s",
                  "name": "uint256s",
                  "type": "tuple"
                },
                {
                  "components": [
                    {
                      "internalType": "address",
                      "name": "asset",
                      "type": "address"
                    },
                    {
                      "internalType": "address",
                      "name": "lastPaid",
                      "type": "address"
                    },
                    {
                      "internalType": "address",
                      "name": "bank",
                      "type": "address"
                    },
                    {
                      "internalType": "address",
                      "name": "admin",
                      "type": "address"
                    }
                  ],
                  "internalType": "struct Common.Addresses",
                  "name": "addrs",
                  "type": "tuple"
                },
                {
                  "internalType": "uint256",
                  "name": "allGh",
                  "type": "uint256"
                },
                {
                  "components": [
                    {
                      "internalType": "uint256",
                      "name": "durOfChoice",
                      "type": "uint256"
                    },
                    {
                      "internalType": "uint256",
                      "name": "expInterest",
                      "type": "uint256"
                    },
                    {
                      "internalType": "uint256",
                      "name": "payDate",
                      "type": "uint256"
                    },
                    {
                      "internalType": "uint256",
                      "name": "turnTime",
                      "type": "uint256"
                    },
                    {
                      "internalType": "uint256",
                      "name": "loan",
                      "type": "uint256"
                    },
                    {
                      "internalType": "uint256",
                      "name": "colBals",
                      "type": "uint256"
                    },
                    {
                      "internalType": "address",
                      "name": "id",
                      "type": "address"
                    },
                    {
                      "internalType": "bool",
                      "name": "sentQuota",
                      "type": "bool"
                    }
                  ],
                  "internalType": "struct Common.Contributor[]",
                  "name": "cData",
                  "type": "tuple[]"
                },
                {
                  "internalType": "enum Common.Router",
                  "name": "router",
                  "type": "uint8"
                },
                {
                  "internalType": "enum Common.FuncTag",
                  "name": "stage",
                  "type": "uint8"
                }
              ],
              "internalType": "struct Common.Pool",
              "name": "pool",
              "type": "tuple"
            },
            {
              "internalType": "uint256",
              "name": "debtBal",
              "type": "uint256"
            },
            {
              "internalType": "uint256",
              "name": "colBal",
              "type": "uint256"
            }
          ],
          "indexed": false,
          "internalType": "struct Common.CommonEventData",
          "name": "",
          "type": "tuple"
        }
      ],
      "name": "NewMemberAdded",
      "type": "event"
    },
    {
      "anonymous": false,
      "inputs": [
        {
          "indexed": false,
          "internalType": "address",
          "name": "account",
          "type": "address"
        }
      ],
      "name": "Paused",
      "type": "event"
    },
    {
      "anonymous": false,
      "inputs": [
        {
          "components": [
            {
              "components": [
                {
                  "components": [
                    {
                      "internalType": "uint256",
                      "name": "_value",
                      "type": "uint256"
                    }
                  ],
                  "internalType": "struct Counters.Counter",
                  "name": "userCount",
                  "type": "tuple"
                },
                {
                  "components": [
                    {
                      "internalType": "uint256",
                      "name": "quorum",
                      "type": "uint256"
                    },
                    {
                      "internalType": "uint256",
                      "name": "selector",
                      "type": "uint256"
                    },
                    {
                      "internalType": "uint256",
                      "name": "colCoverage",
                      "type": "uint256"
                    },
                    {
                      "internalType": "uint256",
                      "name": "duration",
                      "type": "uint256"
                    },
                    {
                      "internalType": "uint256",
                      "name": "intRate",
                      "type": "uint256"
                    }
                  ],
                  "internalType": "struct Common.Uints",
                  "name": "uints",
                  "type": "tuple"
                },
                {
                  "components": [
                    {
                      "internalType": "uint256",
                      "name": "fullInterest",
                      "type": "uint256"
                    },
                    {
                      "internalType": "uint256",
                      "name": "intPerSec",
                      "type": "uint256"
                    },
                    {
                      "internalType": "uint256",
                      "name": "unit",
                      "type": "uint256"
                    },
                    {
                      "internalType": "uint256",
                      "name": "currentPool",
                      "type": "uint256"
                    },
                    {
                      "internalType": "uint256",
                      "name": "unitId",
                      "type": "uint256"
                    },
                    {
                      "internalType": "uint256",
                      "name": "rId",
                      "type": "uint256"
                    }
                  ],
                  "internalType": "struct Common.Uint256s",
                  "name": "uint256s",
                  "type": "tuple"
                },
                {
                  "components": [
                    {
                      "internalType": "address",
                      "name": "asset",
                      "type": "address"
                    },
                    {
                      "internalType": "address",
                      "name": "lastPaid",
                      "type": "address"
                    },
                    {
                      "internalType": "address",
                      "name": "bank",
                      "type": "address"
                    },
                    {
                      "internalType": "address",
                      "name": "admin",
                      "type": "address"
                    }
                  ],
                  "internalType": "struct Common.Addresses",
                  "name": "addrs",
                  "type": "tuple"
                },
                {
                  "internalType": "uint256",
                  "name": "allGh",
                  "type": "uint256"
                },
                {
                  "components": [
                    {
                      "internalType": "uint256",
                      "name": "durOfChoice",
                      "type": "uint256"
                    },
                    {
                      "internalType": "uint256",
                      "name": "expInterest",
                      "type": "uint256"
                    },
                    {
                      "internalType": "uint256",
                      "name": "payDate",
                      "type": "uint256"
                    },
                    {
                      "internalType": "uint256",
                      "name": "turnTime",
                      "type": "uint256"
                    },
                    {
                      "internalType": "uint256",
                      "name": "loan",
                      "type": "uint256"
                    },
                    {
                      "internalType": "uint256",
                      "name": "colBals",
                      "type": "uint256"
                    },
                    {
                      "internalType": "address",
                      "name": "id",
                      "type": "address"
                    },
                    {
                      "internalType": "bool",
                      "name": "sentQuota",
                      "type": "bool"
                    }
                  ],
                  "internalType": "struct Common.Contributor[]",
                  "name": "cData",
                  "type": "tuple[]"
                },
                {
                  "internalType": "enum Common.Router",
                  "name": "router",
                  "type": "uint8"
                },
                {
                  "internalType": "enum Common.FuncTag",
                  "name": "stage",
                  "type": "uint8"
                }
              ],
              "internalType": "struct Common.Pool",
              "name": "pool",
              "type": "tuple"
            },
            {
              "internalType": "uint256",
              "name": "debtBal",
              "type": "uint256"
            },
            {
              "internalType": "uint256",
              "name": "colBal",
              "type": "uint256"
            }
          ],
          "indexed": false,
          "internalType": "struct Common.CommonEventData",
          "name": "",
          "type": "tuple"
        }
      ],
      "name": "Payback",
      "type": "event"
    },
    {
      "anonymous": false,
      "inputs": [
        {
          "indexed": true,
          "internalType": "address",
          "name": "",
          "type": "address"
        },
        {
          "indexed": true,
          "internalType": "address",
          "name": "",
          "type": "address"
        }
      ],
      "name": "Rekeyed",
      "type": "event"
    },
    {
      "anonymous": false,
      "inputs": [
        {
          "indexed": false,
          "internalType": "uint256",
          "name": "",
          "type": "uint256"
        },
        {
          "components": [
            {
              "components": [
                {
                  "internalType": "uint256",
                  "name": "_value",
                  "type": "uint256"
                }
              ],
              "internalType": "struct Counters.Counter",
              "name": "userCount",
              "type": "tuple"
            },
            {
              "components": [
                {
                  "internalType": "uint256",
                  "name": "quorum",
                  "type": "uint256"
                },
                {
                  "internalType": "uint256",
                  "name": "selector",
                  "type": "uint256"
                },
                {
                  "internalType": "uint256",
                  "name": "colCoverage",
                  "type": "uint256"
                },
                {
                  "internalType": "uint256",
                  "name": "duration",
                  "type": "uint256"
                },
                {
                  "internalType": "uint256",
                  "name": "intRate",
                  "type": "uint256"
                }
              ],
              "internalType": "struct Common.Uints",
              "name": "uints",
              "type": "tuple"
            },
            {
              "components": [
                {
                  "internalType": "uint256",
                  "name": "fullInterest",
                  "type": "uint256"
                },
                {
                  "internalType": "uint256",
                  "name": "intPerSec",
                  "type": "uint256"
                },
                {
                  "internalType": "uint256",
                  "name": "unit",
                  "type": "uint256"
                },
                {
                  "internalType": "uint256",
                  "name": "currentPool",
                  "type": "uint256"
                },
                {
                  "internalType": "uint256",
                  "name": "unitId",
                  "type": "uint256"
                },
                {
                  "internalType": "uint256",
                  "name": "rId",
                  "type": "uint256"
                }
              ],
              "internalType": "struct Common.Uint256s",
              "name": "uint256s",
              "type": "tuple"
            },
            {
              "components": [
                {
                  "internalType": "address",
                  "name": "asset",
                  "type": "address"
                },
                {
                  "internalType": "address",
                  "name": "lastPaid",
                  "type": "address"
                },
                {
                  "internalType": "address",
                  "name": "bank",
                  "type": "address"
                },
                {
                  "internalType": "address",
                  "name": "admin",
                  "type": "address"
                }
              ],
              "internalType": "struct Common.Addresses",
              "name": "addrs",
              "type": "tuple"
            },
            {
              "internalType": "uint256",
              "name": "allGh",
              "type": "uint256"
            },
            {
              "components": [
                {
                  "internalType": "uint256",
                  "name": "durOfChoice",
                  "type": "uint256"
                },
                {
                  "internalType": "uint256",
                  "name": "expInterest",
                  "type": "uint256"
                },
                {
                  "internalType": "uint256",
                  "name": "payDate",
                  "type": "uint256"
                },
                {
                  "internalType": "uint256",
                  "name": "turnTime",
                  "type": "uint256"
                },
                {
                  "internalType": "uint256",
                  "name": "loan",
                  "type": "uint256"
                },
                {
                  "internalType": "uint256",
                  "name": "colBals",
                  "type": "uint256"
                },
                {
                  "internalType": "address",
                  "name": "id",
                  "type": "address"
                },
                {
                  "internalType": "bool",
                  "name": "sentQuota",
                  "type": "bool"
                }
              ],
              "internalType": "struct Common.Contributor[]",
              "name": "cData",
              "type": "tuple[]"
            },
            {
              "internalType": "enum Common.Router",
              "name": "router",
              "type": "uint8"
            },
            {
              "internalType": "enum Common.FuncTag",
              "name": "stage",
              "type": "uint8"
            }
          ],
          "indexed": false,
          "internalType": "struct Common.Pool",
          "name": "",
          "type": "tuple"
        }
      ],
      "name": "RoundUp",
      "type": "event"
    },
    {
      "anonymous": false,
      "inputs": [
        {
          "indexed": false,
          "internalType": "address",
          "name": "account",
          "type": "address"
        }
      ],
      "name": "Unpaused",
      "type": "event"
    },
    {
      "inputs": [],
      "name": "analytics",
      "outputs": [
        {
          "internalType": "uint256",
          "name": "tvlInXFI",
          "type": "uint256"
        },
        {
          "internalType": "uint256",
          "name": "tvlInUsd",
          "type": "uint256"
        },
        {
          "internalType": "uint256",
          "name": "totalPermissioned",
          "type": "uint256"
        },
        {
          "internalType": "uint256",
          "name": "totalPermissionless",
          "type": "uint256"
        }
      ],
      "stateMutability": "view",
      "type": "function"
    },
    {
      "inputs": [
        {
          "internalType": "uint16",
          "name": "intRate",
          "type": "uint16"
        },
        {
          "internalType": "uint16",
          "name": "durationInHours",
          "type": "uint16"
        },
        {
          "internalType": "uint24",
          "name": "colCoverage",
          "type": "uint24"
        },
        {
          "internalType": "uint256",
          "name": "unitLiquidity",
          "type": "uint256"
        },
        {
          "internalType": "address",
          "name": "asset",
          "type": "address"
        },
        {
          "internalType": "address[]",
          "name": "contributors",
          "type": "address[]"
        }
      ],
      "name": "createPermissionedPool",
      "outputs": [
        {
          "internalType": "bool",
          "name": "",
          "type": "bool"
        }
      ],
      "stateMutability": "nonpayable",
      "type": "function"
    },
    {
      "inputs": [
        {
          "internalType": "uint16",
          "name": "intRate",
          "type": "uint16"
        },
        {
          "internalType": "uint8",
          "name": "quorum",
          "type": "uint8"
        },
        {
          "internalType": "uint16",
          "name": "durationInHours",
          "type": "uint16"
        },
        {
          "internalType": "uint24",
          "name": "colCoverage",
          "type": "uint24"
        },
        {
          "internalType": "uint256",
          "name": "unitLiquidity",
          "type": "uint256"
        },
        {
          "internalType": "address",
          "name": "asset",
          "type": "address"
        }
      ],
      "name": "createPermissionlessPool",
      "outputs": [
        {
          "internalType": "bool",
          "name": "",
          "type": "bool"
        }
      ],
      "stateMutability": "nonpayable",
      "type": "function"
    },
    {
      "inputs": [],
      "name": "creationFee",
      "outputs": [
        {
          "internalType": "uint256",
          "name": "",
          "type": "uint256"
        }
      ],
      "stateMutability": "view",
      "type": "function"
    },
    {
      "inputs": [
        {
          "internalType": "uint256",
          "name": "unit",
          "type": "uint256"
        }
      ],
      "name": "enquireLiquidation",
      "outputs": [
        {
          "components": [
            {
              "internalType": "uint256",
              "name": "durOfChoice",
              "type": "uint256"
            },
            {
              "internalType": "uint256",
              "name": "expInterest",
              "type": "uint256"
            },
            {
              "internalType": "uint256",
              "name": "payDate",
              "type": "uint256"
            },
            {
              "internalType": "uint256",
              "name": "turnTime",
              "type": "uint256"
            },
            {
              "internalType": "uint256",
              "name": "loan",
              "type": "uint256"
            },
            {
              "internalType": "uint256",
              "name": "colBals",
              "type": "uint256"
            },
            {
              "internalType": "address",
              "name": "id",
              "type": "address"
            },
            {
              "internalType": "bool",
              "name": "sentQuota",
              "type": "bool"
            }
          ],
          "internalType": "struct Common.Contributor",
          "name": "",
          "type": "tuple"
        },
        {
          "internalType": "bool",
          "name": "",
          "type": "bool"
        },
        {
          "internalType": "uint256",
          "name": "",
          "type": "uint256"
        },
        {
          "components": [
            {
              "internalType": "uint256",
              "name": "value",
              "type": "uint256"
            },
            {
              "internalType": "bool",
              "name": "isMember",
              "type": "bool"
            },
            {
              "internalType": "bool",
              "name": "isAdmin",
              "type": "bool"
            }
          ],
          "internalType": "struct Common.Slot",
          "name": "",
          "type": "tuple"
        },
        {
          "internalType": "address",
          "name": "",
          "type": "address"
        }
      ],
      "stateMutability": "view",
      "type": "function"
    },
    {
      "inputs": [
        {
          "internalType": "uint256",
          "name": "unit",
          "type": "uint256"
        }
      ],
      "name": "getBalances",
      "outputs": [
        {
          "components": [
            {
              "internalType": "uint256",
              "name": "xfi",
              "type": "uint256"
            },
            {
              "internalType": "uint256",
              "name": "erc20",
              "type": "uint256"
            }
          ],
          "internalType": "struct Common.Balances",
          "name": "",
          "type": "tuple"
        }
      ],
      "stateMutability": "view",
      "type": "function"
    },
    {
      "inputs": [
        {
          "internalType": "uint256",
          "name": "unit",
          "type": "uint256"
        }
      ],
      "name": "getCollaterlQuote",
      "outputs": [
        {
          "internalType": "uint256",
          "name": "collateral",
          "type": "uint256"
        },
        {
          "internalType": "uint24",
          "name": "colCoverage",
          "type": "uint24"
        }
      ],
      "stateMutability": "view",
      "type": "function"
    },
    {
      "inputs": [
        {
          "internalType": "uint256",
          "name": "unit",
          "type": "uint256"
        },
        {
          "internalType": "address",
          "name": "target",
          "type": "address"
        }
      ],
      "name": "getCurrentDebt",
      "outputs": [
        {
          "internalType": "uint256",
          "name": "",
          "type": "uint256"
        }
      ],
      "stateMutability": "view",
      "type": "function"
    },
    {
      "inputs": [],
      "name": "getEpoches",
      "outputs": [
        {
          "internalType": "uint256",
          "name": "",
          "type": "uint256"
        }
      ],
      "stateMutability": "view",
      "type": "function"
    },
    {
      "inputs": [],
      "name": "getFactoryData",
      "outputs": [
        {
          "components": [
            {
              "components": [
                {
                  "internalType": "uint256",
                  "name": "tvlInXFI",
                  "type": "uint256"
                },
                {
                  "internalType": "uint256",
                  "name": "tvlInUsd",
                  "type": "uint256"
                },
                {
                  "internalType": "uint256",
                  "name": "totalPermissioned",
                  "type": "uint256"
                },
                {
                  "internalType": "uint256",
                  "name": "totalPermissionless",
                  "type": "uint256"
                }
              ],
              "internalType": "struct IFactory.Analytics",
              "name": "analytics",
              "type": "tuple"
            },
            {
              "components": [
                {
                  "internalType": "address",
                  "name": "feeTo",
                  "type": "address"
                },
                {
                  "internalType": "address",
                  "name": "assetAdmin",
                  "type": "address"
                },
                {
                  "internalType": "uint16",
                  "name": "makerRate",
                  "type": "uint16"
                },
                {
                  "internalType": "address",
                  "name": "bankFactory",
                  "type": "address"
                }
              ],
              "internalType": "struct IFactory.ContractData",
              "name": "contractData",
              "type": "tuple"
            },
            {
              "internalType": "uint256",
              "name": "currentEpoches",
              "type": "uint256"
            },
            {
              "internalType": "uint256",
              "name": "recordEpoches",
              "type": "uint256"
            }
          ],
          "internalType": "struct IFactory.ViewFactoryData",
          "name": "",
          "type": "tuple"
        }
      ],
      "stateMutability": "view",
      "type": "function"
    },
    {
      "inputs": [
        {
          "internalType": "uint256",
          "name": "unit",
          "type": "uint256"
        },
        {
          "internalType": "uint8",
          "name": "daysOfUseInHr",
          "type": "uint8"
        }
      ],
      "name": "getFinance",
      "outputs": [
        {
          "internalType": "bool",
          "name": "",
          "type": "bool"
        }
      ],
      "stateMutability": "payable",
      "type": "function"
    },
    {
      "inputs": [
        {
          "internalType": "address",
          "name": "user",
          "type": "address"
        }
      ],
      "name": "getPoint",
      "outputs": [
        {
          "components": [
            {
              "internalType": "uint256",
              "name": "contributor",
              "type": "uint256"
            },
            {
              "internalType": "uint256",
              "name": "creator",
              "type": "uint256"
            }
          ],
          "internalType": "struct Common.Point",
          "name": "point",
          "type": "tuple"
        }
      ],
      "stateMutability": "view",
      "type": "function"
    },
    {
      "inputs": [
        {
          "internalType": "uint256",
          "name": "unitId",
          "type": "uint256"
        }
      ],
      "name": "getPoolData",
      "outputs": [
        {
          "components": [
            {
              "components": [
                {
                  "internalType": "uint256",
                  "name": "_value",
                  "type": "uint256"
                }
              ],
              "internalType": "struct Counters.Counter",
              "name": "userCount",
              "type": "tuple"
            },
            {
              "components": [
                {
                  "internalType": "uint256",
                  "name": "quorum",
                  "type": "uint256"
                },
                {
                  "internalType": "uint256",
                  "name": "selector",
                  "type": "uint256"
                },
                {
                  "internalType": "uint256",
                  "name": "colCoverage",
                  "type": "uint256"
                },
                {
                  "internalType": "uint256",
                  "name": "duration",
                  "type": "uint256"
                },
                {
                  "internalType": "uint256",
                  "name": "intRate",
                  "type": "uint256"
                }
              ],
              "internalType": "struct Common.Uints",
              "name": "uints",
              "type": "tuple"
            },
            {
              "components": [
                {
                  "internalType": "uint256",
                  "name": "fullInterest",
                  "type": "uint256"
                },
                {
                  "internalType": "uint256",
                  "name": "intPerSec",
                  "type": "uint256"
                },
                {
                  "internalType": "uint256",
                  "name": "unit",
                  "type": "uint256"
                },
                {
                  "internalType": "uint256",
                  "name": "currentPool",
                  "type": "uint256"
                },
                {
                  "internalType": "uint256",
                  "name": "unitId",
                  "type": "uint256"
                },
                {
                  "internalType": "uint256",
                  "name": "rId",
                  "type": "uint256"
                }
              ],
              "internalType": "struct Common.Uint256s",
              "name": "uint256s",
              "type": "tuple"
            },
            {
              "components": [
                {
                  "internalType": "address",
                  "name": "asset",
                  "type": "address"
                },
                {
                  "internalType": "address",
                  "name": "lastPaid",
                  "type": "address"
                },
                {
                  "internalType": "address",
                  "name": "bank",
                  "type": "address"
                },
                {
                  "internalType": "address",
                  "name": "admin",
                  "type": "address"
                }
              ],
              "internalType": "struct Common.Addresses",
              "name": "addrs",
              "type": "tuple"
            },
            {
              "internalType": "uint256",
              "name": "allGh",
              "type": "uint256"
            },
            {
              "components": [
                {
                  "internalType": "uint256",
                  "name": "durOfChoice",
                  "type": "uint256"
                },
                {
                  "internalType": "uint256",
                  "name": "expInterest",
                  "type": "uint256"
                },
                {
                  "internalType": "uint256",
                  "name": "payDate",
                  "type": "uint256"
                },
                {
                  "internalType": "uint256",
                  "name": "turnTime",
                  "type": "uint256"
                },
                {
                  "internalType": "uint256",
                  "name": "loan",
                  "type": "uint256"
                },
                {
                  "internalType": "uint256",
                  "name": "colBals",
                  "type": "uint256"
                },
                {
                  "internalType": "address",
                  "name": "id",
                  "type": "address"
                },
                {
                  "internalType": "bool",
                  "name": "sentQuota",
                  "type": "bool"
                }
              ],
              "internalType": "struct Common.Contributor[]",
              "name": "cData",
              "type": "tuple[]"
            },
            {
              "internalType": "enum Common.Router",
              "name": "router",
              "type": "uint8"
            },
            {
              "internalType": "enum Common.FuncTag",
              "name": "stage",
              "type": "uint8"
            }
          ],
          "internalType": "struct Common.Pool",
          "name": "",
          "type": "tuple"
        }
      ],
      "stateMutability": "view",
      "type": "function"
    },
    {
      "inputs": [
        {
          "internalType": "uint256",
          "name": "unit",
          "type": "uint256"
        },
        {
          "internalType": "address",
          "name": "user",
          "type": "address"
        }
      ],
      "name": "getProfile",
      "outputs": [
        {
          "components": [
            {
              "internalType": "uint256",
              "name": "durOfChoice",
              "type": "uint256"
            },
            {
              "internalType": "uint256",
              "name": "expInterest",
              "type": "uint256"
            },
            {
              "internalType": "uint256",
              "name": "payDate",
              "type": "uint256"
            },
            {
              "internalType": "uint256",
              "name": "turnTime",
              "type": "uint256"
            },
            {
              "internalType": "uint256",
              "name": "loan",
              "type": "uint256"
            },
            {
              "internalType": "uint256",
              "name": "colBals",
              "type": "uint256"
            },
            {
              "internalType": "address",
              "name": "id",
              "type": "address"
            },
            {
              "internalType": "bool",
              "name": "sentQuota",
              "type": "bool"
            }
          ],
          "internalType": "struct Common.Contributor",
          "name": "",
          "type": "tuple"
        }
      ],
      "stateMutability": "view",
      "type": "function"
    },
    {
      "inputs": [
        {
          "internalType": "uint256",
          "name": "uId",
          "type": "uint256"
        }
      ],
      "name": "getRecord",
      "outputs": [
        {
          "components": [
            {
              "components": [
                {
                  "internalType": "uint256",
                  "name": "_value",
                  "type": "uint256"
                }
              ],
              "internalType": "struct Counters.Counter",
              "name": "userCount",
              "type": "tuple"
            },
            {
              "components": [
                {
                  "internalType": "uint256",
                  "name": "quorum",
                  "type": "uint256"
                },
                {
                  "internalType": "uint256",
                  "name": "selector",
                  "type": "uint256"
                },
                {
                  "internalType": "uint256",
                  "name": "colCoverage",
                  "type": "uint256"
                },
                {
                  "internalType": "uint256",
                  "name": "duration",
                  "type": "uint256"
                },
                {
                  "internalType": "uint256",
                  "name": "intRate",
                  "type": "uint256"
                }
              ],
              "internalType": "struct Common.Uints",
              "name": "uints",
              "type": "tuple"
            },
            {
              "components": [
                {
                  "internalType": "uint256",
                  "name": "fullInterest",
                  "type": "uint256"
                },
                {
                  "internalType": "uint256",
                  "name": "intPerSec",
                  "type": "uint256"
                },
                {
                  "internalType": "uint256",
                  "name": "unit",
                  "type": "uint256"
                },
                {
                  "internalType": "uint256",
                  "name": "currentPool",
                  "type": "uint256"
                },
                {
                  "internalType": "uint256",
                  "name": "unitId",
                  "type": "uint256"
                },
                {
                  "internalType": "uint256",
                  "name": "rId",
                  "type": "uint256"
                }
              ],
              "internalType": "struct Common.Uint256s",
              "name": "uint256s",
              "type": "tuple"
            },
            {
              "components": [
                {
                  "internalType": "address",
                  "name": "asset",
                  "type": "address"
                },
                {
                  "internalType": "address",
                  "name": "lastPaid",
                  "type": "address"
                },
                {
                  "internalType": "address",
                  "name": "bank",
                  "type": "address"
                },
                {
                  "internalType": "address",
                  "name": "admin",
                  "type": "address"
                }
              ],
              "internalType": "struct Common.Addresses",
              "name": "addrs",
              "type": "tuple"
            },
            {
              "internalType": "uint256",
              "name": "allGh",
              "type": "uint256"
            },
            {
              "components": [
                {
                  "internalType": "uint256",
                  "name": "durOfChoice",
                  "type": "uint256"
                },
                {
                  "internalType": "uint256",
                  "name": "expInterest",
                  "type": "uint256"
                },
                {
                  "internalType": "uint256",
                  "name": "payDate",
                  "type": "uint256"
                },
                {
                  "internalType": "uint256",
                  "name": "turnTime",
                  "type": "uint256"
                },
                {
                  "internalType": "uint256",
                  "name": "loan",
                  "type": "uint256"
                },
                {
                  "internalType": "uint256",
                  "name": "colBals",
                  "type": "uint256"
                },
                {
                  "internalType": "address",
                  "name": "id",
                  "type": "address"
                },
                {
                  "internalType": "bool",
                  "name": "sentQuota",
                  "type": "bool"
                }
              ],
              "internalType": "struct Common.Contributor[]",
              "name": "cData",
              "type": "tuple[]"
            },
            {
              "internalType": "enum Common.Router",
              "name": "router",
              "type": "uint8"
            },
            {
              "internalType": "enum Common.FuncTag",
              "name": "stage",
              "type": "uint8"
            }
          ],
          "internalType": "struct Common.Pool",
          "name": "pool",
          "type": "tuple"
        }
      ],
      "stateMutability": "view",
      "type": "function"
    },
    {
      "inputs": [],
      "name": "getRecordEpoches",
      "outputs": [
        {
          "internalType": "uint256",
          "name": "",
          "type": "uint256"
        }
      ],
      "stateMutability": "view",
      "type": "function"
    },
    {
      "inputs": [
        {
          "internalType": "uint256",
          "name": "unit",
          "type": "uint256"
        }
      ],
      "name": "getRouter",
      "outputs": [
        {
          "internalType": "string",
          "name": "",
          "type": "string"
        }
      ],
      "stateMutability": "view",
      "type": "function"
    },
    {
      "inputs": [
        {
          "internalType": "address",
          "name": "user",
          "type": "address"
        },
        {
          "internalType": "uint256",
          "name": "unit",
          "type": "uint256"
        }
      ],
      "name": "getSlot",
      "outputs": [
        {
          "components": [
            {
              "internalType": "uint256",
              "name": "value",
              "type": "uint256"
            },
            {
              "internalType": "bool",
              "name": "isMember",
              "type": "bool"
            },
            {
              "internalType": "bool",
              "name": "isAdmin",
              "type": "bool"
            }
          ],
          "internalType": "struct Common.Slot",
          "name": "",
          "type": "tuple"
        }
      ],
      "stateMutability": "view",
      "type": "function"
    },
    {
      "inputs": [
        {
          "internalType": "uint256",
          "name": "unit",
          "type": "uint256"
        }
      ],
      "name": "getStatus",
      "outputs": [
        {
          "components": [
            {
              "internalType": "bool",
              "name": "isInitialized",
              "type": "bool"
            },
            {
              "internalType": "enum Common.Status",
              "name": "status",
              "type": "uint8"
            }
          ],
          "internalType": "struct Common.Unit",
          "name": "_unit",
          "type": "tuple"
        }
      ],
      "stateMutability": "view",
      "type": "function"
    },
    {
      "inputs": [
        {
          "internalType": "uint256",
          "name": "unit",
          "type": "uint256"
        }
      ],
      "name": "joinAPool",
      "outputs": [
        {
          "internalType": "bool",
          "name": "",
          "type": "bool"
        }
      ],
      "stateMutability": "nonpayable",
      "type": "function"
    },
    {
      "inputs": [
        {
          "internalType": "uint256",
          "name": "unit",
          "type": "uint256"
        }
      ],
      "name": "liquidate",
      "outputs": [
        {
          "internalType": "bool",
          "name": "",
          "type": "bool"
        }
      ],
      "stateMutability": "nonpayable",
      "type": "function"
    },
    {
      "inputs": [],
      "name": "minContribution",
      "outputs": [
        {
          "internalType": "uint256",
          "name": "",
          "type": "uint256"
        }
      ],
      "stateMutability": "view",
      "type": "function"
    },
    {
      "inputs": [],
      "name": "ownershipManager",
      "outputs": [
        {
          "internalType": "address",
          "name": "",
          "type": "address"
        }
      ],
      "stateMutability": "view",
      "type": "function"
    },
    {
      "inputs": [],
      "name": "pause",
      "outputs": [],
      "stateMutability": "nonpayable",
      "type": "function"
    },
    {
      "inputs": [],
      "name": "paused",
      "outputs": [
        {
          "internalType": "bool",
          "name": "",
          "type": "bool"
        }
      ],
      "stateMutability": "view",
      "type": "function"
    },
    {
      "inputs": [
        {
          "internalType": "uint256",
          "name": "unit",
          "type": "uint256"
        }
      ],
      "name": "payback",
      "outputs": [
        {
          "internalType": "bool",
          "name": "",
          "type": "bool"
        }
      ],
      "stateMutability": "nonpayable",
      "type": "function"
    },
    {
      "inputs": [
        {
          "internalType": "uint16",
          "name": "serviceRate",
          "type": "uint16"
        },
        {
          "internalType": "uint256",
          "name": "_minContribution",
          "type": "uint256"
        },
        {
          "internalType": "address",
          "name": "feeTo",
          "type": "address"
        },
        {
          "internalType": "address",
          "name": "assetClass",
          "type": "address"
        },
        {
          "internalType": "address",
          "name": "strategyManager",
          "type": "address"
        }
      ],
      "name": "performSetUp",
      "outputs": [],
      "stateMutability": "nonpayable",
      "type": "function"
    },
    {
      "inputs": [
        {
          "internalType": "uint256",
          "name": "unit",
          "type": "uint256"
        }
      ],
      "name": "removeLiquidityPool",
      "outputs": [
        {
          "internalType": "bool",
          "name": "",
          "type": "bool"
        }
      ],
      "stateMutability": "nonpayable",
      "type": "function"
    },
    {
      "inputs": [
        {
          "internalType": "uint256",
          "name": "",
          "type": "uint256"
        }
      ],
      "name": "routers",
      "outputs": [
        {
          "internalType": "enum Common.Router",
          "name": "",
          "type": "uint8"
        }
      ],
      "stateMutability": "view",
      "type": "function"
    },
    {
      "inputs": [
        {
          "internalType": "address",
          "name": "feeTo",
          "type": "address"
        },
        {
          "internalType": "address",
          "name": "assetAdmin",
          "type": "address"
        },
        {
          "internalType": "uint16",
          "name": "serviceRate",
          "type": "uint16"
        },
        {
          "internalType": "address",
          "name": "bankFactory",
          "type": "address"
        }
      ],
      "name": "setContractData",
      "outputs": [
        {
          "internalType": "bool",
          "name": "",
          "type": "bool"
        }
      ],
      "stateMutability": "nonpayable",
      "type": "function"
    },
    {
      "inputs": [
        {
          "internalType": "uint256",
          "name": "minLiquidity",
          "type": "uint256"
        }
      ],
      "name": "setMinimumLiquidityPerProvider",
      "outputs": [],
      "stateMutability": "nonpayable",
      "type": "function"
    },
    {
      "inputs": [
        {
          "internalType": "address",
          "name": "newManager",
          "type": "address"
        }
      ],
      "name": "setOwnershipManager",
      "outputs": [
        {
          "internalType": "bool",
          "name": "",
          "type": "bool"
        }
      ],
      "stateMutability": "nonpayable",
      "type": "function"
    },
    {
      "inputs": [],
      "name": "unpause",
      "outputs": [],
      "stateMutability": "nonpayable",
      "type": "function"
    },
    {
      "stateMutability": "payable",
      "type": "receive"
    }
  ],
  "transactionHash": "0xcb54c0b93ae139e772c32dcc5852a1688107978b32d4726d57826f79b5155201",
  "args": [
    10,
    1000000000000000,
    "0xD7c271d20c9E323336bFC843AEb8deC23B346352",
    "0x10bE1f145aF23aa31cB591C38D942d98073Aa5b2",
    "0xf3226E5bc32Ad476916C808198cFEBc5a154dD97",
    "0xe09e23F8a8032BB39326098802c970f9b48D726C"
  ],
  "numDeployments": 12,
  "solcInputHash": "fd6d05205091d6ce95274fb55e025faf",
  "bytecode": "0x60806040523480156200001157600080fd5b5060405162005eeb38038062005eeb833981016040819052620000349162000188565b6001600081905580546001600160a81b0319166001600160a01b0383161790558585858585856200006986868686866200007b565b50505050505050505050505062000209565b600e8490556200009060028385888562000098565b505050505050565b60006001600160a01b03851615620000c8576003860180546001600160a01b0319166001600160a01b0387161790555b6001600160a01b03821615620000f6576004860180546001600160a01b0319166001600160a01b0384161790555b6001600160a01b0384161562000124576002860180546001600160a01b0319166001600160a01b0386161790555b61ffff83811610156200015f5760038601805461ffff60a01b19167401000000000000000000000000000000000000000061ffff8616021790555b50600195945050505050565b80516001600160a01b03811681146200018357600080fd5b919050565b60008060008060008060c08789031215620001a257600080fd5b865161ffff81168114620001b557600080fd5b60208801519096509450620001cd604088016200016b565b9350620001dd606088016200016b565b9250620001ed608088016200016b565b9150620001fd60a088016200016b565b90509295509295509295565b615cd280620002196000396000f3fe6080604052600436106101f25760003560e01c80637b3ce2151161010d578063b404763f116100a0578063d21c87ad1161006f578063d21c87ad14610736578063dce0b4e414610756578063ed4c6cd81461076c578063f09734ec14610799578063f33b78bd146107b957600080fd5b8063b404763f146106ab578063b88a3915146106be578063be24cff8146106f6578063c4933c501461071657600080fd5b8063a4424cf4116100dc578063a4424cf414610628578063a739347614610655578063a846c2fd14610675578063aaffadf31461069557600080fd5b80637b3ce2151461050957806380d5ac8a146105425780638456cb59146105855780639e6fbfd31461059a57600080fd5b8063490adbaf116101855780635c975abb116101545780635c975abb1461049557806361737d62146104b45780636d52a538146104d457806371d5501b146104f457600080fd5b8063490adbaf146103de5780634e9c11181461040b5780634ff531b6146104485780635c622a0e1461046857600080fd5b806323508188116101c157806323508188146103595780633f4ba83a1461037c5780633fd9792714610391578063415f1240146103be57600080fd5b806303e9e609146102a25780630e22d318146102d8578063184e495f146102f85780631a055c1a1461032857600080fd5b3661029d576605543df729c00034111561029b576004546040516000916001600160a01b03169034908381818185875af1925050503d8060008114610253576040519150601f19603f3d011682016040523d82523d6000602084013e610258565b606091505b50509050806102995760405162461bcd60e51b815260206004820152600860248201526714995d995c9d195960c21b60448201526064015b60405180910390fd5b505b005b600080fd5b3480156102ae57600080fd5b506102c26102bd3660046151bb565b6107d9565b6040516102cf91906153cb565b60405180910390f35b3480156102e457600080fd5b5061029b6102f33660046151bb565b6107f2565b34801561030457600080fd5b506103186103133660046151bb565b6108d3565b60405190151581526020016102cf565b34801561033457600080fd5b506103486103433660046151bb565b61090c565b6040516102cf9594939291906153de565b34801561036557600080fd5b5061036e610962565b6040519081526020016102cf565b34801561038857600080fd5b5061029b610973565b34801561039d57600080fd5b506103b16103ac36600461545c565b610abf565b6040516102cf919061548c565b3480156103ca57600080fd5b506103186103d93660046151bb565b610aeb565b3480156103ea57600080fd5b506103fe6103f93660046151bb565b610b9a565b6040516102cf919061549b565b34801561041757600080fd5b5061043b6104263660046151bb565b60136020526000908152604090205460ff1681565b6040516102cf91906154b2565b34801561045457600080fd5b506103fe6104633660046154c5565b610bd0565b34801561047457600080fd5b506104886104833660046151bb565b610c23565b6040516102cf91906154e2565b3480156104a157600080fd5b50600154600160a01b900460ff16610318565b3480156104c057600080fd5b506103186104cf3660046154c5565b610c93565b3480156104e057600080fd5b5061029b6104ef36600461551a565b610db1565b34801561050057600080fd5b5061036e610ea1565b34801561051557600080fd5b506105296105243660046151bb565b610ead565b6040805192835262ffffff9091166020830152016102cf565b34801561054e57600080fd5b50600f546010546011546012546105659392919084565b6040805194855260208501939093529183015260608201526080016102cf565b34801561059157600080fd5b5061029b610f11565b3480156105a657600080fd5b506105af611049565b60408051825180518252602080820151818401528184015183850152606091820151828401528085015180516001600160a01b03908116608086015291810151821660a08501528085015161ffff1660c08501528201511660e083015291830151610100820152910151610120820152610140016102cf565b34801561063457600080fd5b506106486106433660046151bb565b6110e9565b6040516102cf9190615580565b34801561066157600080fd5b506103186106703660046155f3565b611168565b34801561068157600080fd5b506103186106903660046151bb565b611214565b3480156106a157600080fd5b5061036e600e5481565b6103186106b9366004615664565b6112bf565b3480156106ca57600080fd5b506001546106de906001600160a01b031681565b6040516001600160a01b0390911681526020016102cf565b34801561070257600080fd5b506103186107113660046151bb565b611378565b34801561072257600080fd5b506103186107313660046156a6565b6113c0565b34801561074257600080fd5b506102c26107513660046151bb565b6113dc565b34801561076257600080fd5b5061036e600d5481565b34801561077857600080fd5b5061078c6107873660046157ba565b6113ef565b6040516102cf91906157e6565b3480156107a557600080fd5b5061036e6107b436600461545c565b611487565b3480156107c557600080fd5b506103186107d436600461580b565b6114ae565b6107e1614ea4565b6107ec6002836115a3565b92915050565b604051806060016040528060368152602001615bf6603691396001546001600160a01b0316806108345760405162461bcd60e51b815260040161029090615865565b6001600160a01b038116632f54bf6e336040516001600160e01b031960e084901b1681526001600160a01b039091166004820152602401602060405180830381865afa158015610888573d6000803e3d6000fd5b505050506040513d601f19601f820116820180604052508101906108ac919061589c565b82906108cb5760405162461bcd60e51b81526004016102909190615580565b505050600e55565b6000610903828260008581526013602052604090205460ff1660018111156108fd576108fd615273565b146117ce565b50600192915050565b610914614f8b565b604080516060810182526000808252602082018190529181018290528190600085600161094360078383611851565b61094e600289611933565b939c929b5090995097509095509350505050565b600061096e6002611a5e565b905090565b60408051808201909152601f81527f5061757361626c653a204f6e6c794f776e65722063616e20756e70617573650060208201526001546001600160a01b0316806109d05760405162461bcd60e51b815260040161029090615865565b6001600160a01b038116632f54bf6e336040516001600160e01b031960e084901b1681526001600160a01b039091166004820152602401602060405180830381865afa158015610a24573d6000803e3d6000fd5b505050506040513d601f19601f82011682018060405250810190610a48919061589c565b8290610a675760405162461bcd60e51b81526004016102909190615580565b50610a70611a6b565b6001805460ff60a01b191690557f5db9ee0a495bf2e6ff9c91a7834c1ba4fdd244a5e8aa4e537bd38aeae4b073aa335b6040516001600160a01b03909116815260200160405180910390a15050565b610ac7614f8b565b826000610ad660078383611851565b610ae260028587611a97565b95945050505050565b6000610af5611ab5565b816001610b0460078383611851565b6000610b11600286611ae0565b90507fa24ac7173eba5a1ddf9b0e3b53757f55be1483d84c6b927a9f5664e1a991f12281604051610b4291906158be565b60405180910390a160408051608081018252600f805480835260108054602080860182815260115487890152601254606088015296880151909303948590529590910151909401928390525590555060019392505050565b6040805180820190915260008082526020820152816000610bbd60078383611851565b610bc8600285611c24565b949350505050565b604080518082018252600080825260208083018290528351808501855282815281018290526001600160a01b0385168252600b8152908390208351808501909452805484526001015490830152906107ec565b60408051808201909152600080825260208201526000828152600760209081526040918290208251808401909352805460ff808216151585529192840191610100909104166001811115610c7957610c79615273565b6001811115610c8a57610c8a615273565b90525092915050565b60408051808201909152601881527f4f6e6c794f776e65723a204e6f74207065726d697474656400000000000000006020820152600154600091906001600160a01b031680610cf45760405162461bcd60e51b815260040161029090615865565b6001600160a01b038116632f54bf6e336040516001600160e01b031960e084901b1681526001600160a01b039091166004820152602401602060405180830381865afa158015610d48573d6000803e3d6000fd5b505050506040513d601f19601f82011682018060405250810190610d6c919061589c565b8290610d8b5760405162461bcd60e51b81526004016102909190615580565b50600180546001600160a01b0319166001600160a01b0386161790555060019392505050565b604051806060016040528060248152602001615c53602491396001546001600160a01b031680610df35760405162461bcd60e51b815260040161029090615865565b6001600160a01b038116632f54bf6e336040516001600160e01b031960e084901b1681526001600160a01b039091166004820152602401602060405180830381865afa158015610e47573d6000803e3d6000fd5b505050506040513d601f19601f82011682018060405250810190610e6b919061589c565b8290610e8a5760405162461bcd60e51b81526004016102909190615580565b50610e988787878787611d0f565b50505050505050565b600061096e6002611d2a565b600080826001610ebf60078383611851565b6000610ecc600287611d34565b5160208101518051604080840151810151920151929350610efb92910290600090678ac7230489e80000611f83565b6020909101516040015190945092505050915091565b60408051808201909152601d81527f5061757361626c653a204f6e6c794f776e65722063616e20706175736500000060208201526001546001600160a01b031680610f6e5760405162461bcd60e51b815260040161029090615865565b6001600160a01b038116632f54bf6e336040516001600160e01b031960e084901b1681526001600160a01b039091166004820152602401602060405180830381865afa158015610fc2573d6000803e3d6000fd5b505050506040513d601f19601f82011682018060405250810190610fe6919061589c565b82906110055760405162461bcd60e51b81526004016102909190615580565b5061100e611ab5565b6001805460ff60a01b1916600160a01b1790557f62e78cea01bee320cd4e420270b5ea74000d11b0c9f74754ebdbfc544b05a258610aa03390565b611051614fdb565b6040805161010081018252600f54608080830191825260105460a084015260115460c084015260125460e0840152908252825190810183526004546001600160a01b039081168252600554808216602080850191909152600160a01b90910461ffff168386015260065490911660608301528201529081016110d36002611d2a565b81526020016110e26002611a5e565b9052919050565b60606000808381526013602052604090205460ff16600181111561110f5761110f615273565b1461113e576040518060400160405280600c81526020016b141154935254d4d253d3915160a21b8152506107ec565b505060408051808201909152600e81526d5045524d495353494f4e4c45535360901b602082015290565b604080516001808252818301909252600091829182916020808301908036833701905050905033816000815181106111a2576111a26158fa565b60200260200101906001600160a01b031690816001600160a01b03168152505081601360006111d78c8c8c8c8c8c8a8c611f94565b81526020810191909152604001600020805460ff19166001838181111561120057611200615273565b021790555060019998505050505050505050565b600061121e611ab5565b81600161122d60078383611851565b600061125d604051806040016040528087815260200161124a3390565b6001600160a01b03169052600290612266565b6020810151601080549091019055604080820151600f8054919091039055519091507fa24ac7173eba5a1ddf9b0e3b53757f55be1483d84c6b927a9f5664e1a991f122906112ac9083906158be565b60405180910390a1506001949350505050565b60006112c9611ab5565b8260016112d860078383611851565b60006112ed6002873460ff8916611f77612282565b90507f08f87245175216c1664456390ee3dbc09288e23a905192c42f4956646a68fbf38160405161131e91906158be565b60405180910390a160408051608081018252600f8054601080546020850181815260115486880152601254606080880191909152349094019586905296519095015190910151909303938490525555506001949350505050565b6000611382611ab5565b81600161139160078383611851565b610bc884600160008781526013602052604090205460ff1660018111156113ba576113ba615273565b14612469565b8051600090600190816013846111d78c858d8d8d8d8d8a611f94565b6113e4614ea4565b6107ec6002836124ea565b604080516060810182526000808252602082018190529181019190915281600061141b60078383611851565b6040805160608082018352600080835260208084018290529284018190526001600160a01b0389168152600c8352838120888252835283902083519182018452805482526001015460ff8082161515938301939093526101009004909116151591810191909152610ae2565b600082600161149860078383611851565b6114a460028686612698565b5195945050505050565b6000604051806060016040528060278152602001615c2c602791396001546001600160a01b0316806114f25760405162461bcd60e51b815260040161029090615865565b6001600160a01b038116632f54bf6e336040516001600160e01b031960e084901b1681526001600160a01b039091166004820152602401602060405180830381865afa158015611546573d6000803e3d6000fd5b505050506040513d601f19601f8201168201806040525081019061156a919061589c565b82906115895760405162461bcd60e51b81526004016102909190615580565b5061159860028789888861271f565b979650505050505050565b6115ab614ea4565b6000828152600780850160209081526040808420815161012081018352815461010082019081528152825160a08082018552600184015482526002840154828701526003840154828601526004840154606080840191909152600585015460808085019190915284880193909352855160c081018752600686015481529785015488880152600885015488870152600985015488820152600a85015488840152600b850154888301528386019790975284518083018652600c8501546001600160a01b039081168252600d860154811682890152600e860154811682880152600f8601541681890152968301969096526010830154908201526011820180548451818702810187019095528085529196929587019490929084015b8282101561175457600084815260209081902060408051610100810182526007860290920180548352600180820154848601526002820154928401929092526003810154606084015260048101546080840152600581015460a0840152600601546001600160a01b03811660c0840152600160a01b900460ff16151560e083015290835290920191016116c6565b50505090825250601282015460209091019060ff16600181111561177a5761177a615273565b600181111561178b5761178b615273565b81526020016012820160019054906101000a900460ff1660058111156117b3576117b3615273565b60058111156117c4576117c4615273565b9052509392505050565b60006117d8611ab5565b8260016117e760078383611851565b6117f3600286866127dd565b5160409081015101516010805460009061180e908490615926565b90915550506040518581527f79d50744e568d2dcbac1c613dc0f174be90b0121dbc73682de80b3c4ebc5d1e79060200160405180910390a1506001949350505050565b6000828152602084815260408083208151808301909252805460ff80821615158452929391929184019161010090910416600181111561189357611893615273565b60018111156118a4576118a4615273565b90525080519091506118c957604051631717aceb60e31b815260040160405180910390fd5b811561192d576001816020015160018111156118e7576118e7615273565b1461192d5760405162461bcd60e51b8152602060048201526016602482015275105b5bdd5b9d081b9bdd081a5b9a5d1a585b1a5e995960521b6044820152606401610290565b50505050565b61193b614f8b565b6040805160608101825260008082526020820181905291810182905281906000806119668888611d34565b60000151905060006119818989846060015160200151612993565b9050806040015161198f4290565b1115611a15578061199e612b24565b600001516119b18b8b8560c00151612698565b5160c0840180516001600160a01b03166000908152600a8e01602090815260408083208f8452825291829020925182516060810184528454815260019094015460ff8082161515938601939093526101009004909116151591830191909152611a49565b86611a1e612b24565b6020015160006040518060600160405280600081526020016000151581526020016000151581525060005b939d929c50909a509850909650945050505050565b60006107ec826001015490565b600154600160a01b900460ff16611a9557604051638dfc202b60e01b815260040160405180910390fd5b565b611a9f614f8b565b611aaa848385612b7e565b610bc8848385612993565b600154600160a01b900460ff1615611a955760405163d93c066560e01b815260040160405180910390fd5b611ae861504d565b600080600080611af88787611933565b945094505093509350611b3b6040518060400160405280600d81526020016c2737ba103232b330bab63a32b960991b815250841515612bc590919063ffffffff16565b60008681526006880160205260409020543390611b59898984612be4565b6001600160a01b03821660c087018190526040805160a08101825288815260208101879052908101839052606081018a90526080810191909152611b9e908a90612c37565b6001600160a01b038381166000908152600a8b01602090815260408083208c845282528083208381556001908101805461ffff1916905585845260088e01835292819020600d0180546001600160a01b031916948716948517905580518082019091528b815290810192909252611c17918b9186612d4b565b9998505050505050505050565b60408051808201909152600080825260208201526000611c448484611d34565b516060015180519091506001600160a01b0316611c795760405180604001604052806000815260200160008152509150611d08565b60408051808201825282820180516001600160a01b039081163183528451915193516370a0823160e01b815293811660048501529192602084019291909116906370a0823190602401602060405180830381865afa158015611cdf573d6000803e3d6000fd5b505050506040513d601f19601f82011682018060405250810190611d039190615939565b905291505b5092915050565b600e849055611d2260028385888561271f565b505050505050565b60006107ec825490565b611d3c615060565b600082815260068401602052604090205460208083018290526000918252600880860182526040808420815161012081018352815461010082019081528152825160a08082018552600184015482526002840154828801526003840154828601526004840154606080840191909152600585015460808085019190915284890193909352855160c081018752600686015481526007860154818a01529685015487870152600985015487820152600a85015487840152600b850154878301528386019690965284518083018652600c8501546001600160a01b039081168252600d8601548116828a0152600e860154811682880152600f860154168188015295830195909552601083015490820152601182018054845181880281018801909552808552919692959487019490929084015b82821015611efc57600084815260209081902060408051610100810182526007860290920180548352600180820154848601526002820154928401929092526003810154606084015260048101546080840152600581015460a0840152600601546001600160a01b03811660c0840152600160a01b900460ff16151560e08301529083529092019101611e6e565b50505090825250601282015460209091019060ff166001811115611f2257611f22615273565b6001811115611f3357611f33615273565b81526020016012820160019054906101000a900460ff166005811115611f5b57611f5b615273565b6005811115611f6c57611f6c615273565b905250815292915050565b678ac7230489e8000090565b6000610ae28460128585898661311c565b6000611f9e611ab5565b600554604051634df48c7360e11b81526001600160a01b03808716600483015286921690639be918e690602401602060405180830381865afa158015611fe8573d6000803e3d6000fd5b505050506040513d601f19601f8201168201806040525081019061200c919061589c565b61203457604051631e26fa1d60e11b81526001600160a01b0382166004820152602401610290565b60008084600181111561204957612049615273565b1490508061209a5760018551116120955760405162461bcd60e51b815260206004820152601060248201526f4d696e206f662032206d656d6265727360801b6044820152606401610290565b6120ed565b60018a60ff16116120ed5760405162461bcd60e51b815260206004820152601960248201527f526f757465723a2051756f72756d20697320696e76616c6964000000000000006044820152606401610290565b60006040518060e001604052808d61ffff1681526020018c60ff1681526020018b61ffff1681526020018a62ffffff168152602001898152602001878152602001886001600160a01b0316815250905060008215612155576121506002836131e6565b612160565b612160600283613284565b6040805160808082018352600f548252601054602080840191825260115484860152601254606085015284519283019094528251825251939450909290918201906121ac908d90615952565b8152602001856121cb5760408301516121c6906001615952565b6121d1565b82604001515b8152602001856121e55782606001516121f5565b60608301516121f5906001615952565b90528051600f556020810151601055604080820151601155606090910151601255517f7f3debb2023800336a334eab44d0dc68ebdc7029f8f2431f93dfb443e605bb1a90612244908490615965565b60405180910390a1505160409081015101519c9b505050505050505050505050565b61226e61504d565b61227b8383600080612d4b565b9392505050565b61228a61504d565b60006122968787611d34565b6000015190506122d48160e0015160016040518060400160405280601081526020016f426f72726f77206e6f7420726561647960801b815250613411565b6020810151516080820151036122fd5760405163d77e83a360e01b815260040160405180910390fd5b600086815260068801602052604090205461231c906008890190613440565b61237d60405180604001604052806011815260200170506f6f6c206e6f7420636f6d706c65746560781b81525061236c83602001516000015184604001516040015161346690919063ffffffff16565b604084015160600151101590612bc5565b6115988760405180610100016040528061239688613472565b62ffffff16815260008a815260068c016020908152604082205492019160088d0191908152602001908152602001600020601101856020015160200151815481106123e3576123e36158fa565b6000918252602080832060066007909302018201546001600160a01b031684528381018d90528c8352908d01905260409081902054910190815260038b015460408601516060015160209092019161244591600160a01b900461ffff16613484565b815260200188815260200161245c8763ffffffff16565b8152602001849052613490565b6000806124966040518060400160405280868152602001851515815250600261384390919063ffffffff16565b90507fd6c52f8fb3e49253af1ab95fba993618a51d1cafeafdf50295ebe703d3050c78816040516124c791906158be565b60405180910390a151604090810151015160108054909101905550600192915050565b6124f2614ea4565b6000828152600884810160209081526040808420815161012081018352815461010082019081528152825160a08082018552600184015482526002840154828701526003840154828601526004840154606080840191909152600585015460808085019190915284880193909352855160c081018752600686015481526007860154818901529785015488870152600985015488820152600a85015488840152600b850154888301528386019790975284518083018652600c8501546001600160a01b039081168252600d860154811682890152600e860154811682880152600f860154168189015296830196909652601083015490820152601182018054845181870281018701909552808552919692958701949092908401821561175457600084815260209081902060408051610100810182526007860290920180548352600180820154848601526002820154928401929092526003810154606084015260048101546080840152600581015460a0840152600601546001600160a01b03811660c0840152600160a01b900460ff16151560e083015290835290920191016116c6565b604080518082019091526000808252602082015260006126b88585611d34565b51604001516020015190506126d1600a86018486613ad3565b51602083015260006126e4868686612993565b905061271361270861270183606001516126fb4290565b90613b3b565b8490613466565b608083015190613b47565b83525090949350505050565b60006001600160a01b0385161561274e576003860180546001600160a01b0319166001600160a01b0387161790555b6001600160a01b0382161561277b576004860180546001600160a01b0319166001600160a01b0384161790555b6001600160a01b038416156127a8576002860180546001600160a01b0319166001600160a01b0386161790555b61ffff83811610156127d15760038601805461ffff60a01b1916600160a01b61ffff8616021790555b50600195945050505050565b6127e5615060565b6127ef8484611d34565b9050336127fd858583613b53565b821561286d576128686040518060400160405280601f81526020017f466163746f72794c6962202d205075623a2043616e6e6f742063616e63656c0081525061285f876008016000866020015181526020019081526020016000206000015490565b60011490612bc5565b6128bb565b60408051808201825260208082527f466163746f72794c6962202d20507269763a2043616e6e6f742063616e63656c908201528351820151918201516060909201516128bb92101590612bc5565b60208281018051600090815260088801909252604091829020601201805461ff0019166104001790555183519091015160a001516128fc9187918790613bc9565b815160608101516040808201519151928101518082015160a090910151915163bb16369f60e01b81526001600160a01b03868116600483015294851660248201526044810191909152606481019190915291169063bb16369f90608401600060405180830381600087803b15801561297357600080fd5b505af1158015612987573d6000803e3d6000fd5b50505050509392505050565b61299b614f8b565b6001600160a01b0382166000908152600a850160209081526040808320868452825280832081516060810183528154815260019091015460ff80821615158386015261010090910416151581830152868452600688018352818420548452600888019092529091206011015415612acc5760008481526006860160205260408120546008870191908152602001908152602001600020601101816000015181548110612a4957612a496158fa565b600091825260209182902060408051610100810182526007909302909101805483526001810154938301939093526002830154908201526003820154606082015260048201546080820152600582015460a08201526006909101546001600160a01b03811660c083015260ff600160a01b90910416151560e08201529150612b1c565b60405180610100016040528060008152602001600081526020016000815260200160008152602001600081526020016000815260200160006001600160a01b031681526020016000151581525091505b509392505050565b6040805160a081018252600080825260208201819052918101829052606081018290526080810191909152506040805160a08101825260018082526000602083018190529282018390526060820152608081019190915290565b612bc06040518060400160405280600c81526020016b2737ba10309036b2b6b132b960a11b815250612bb485600a018486613ad3565b60200151151590612bc5565b505050565b8082612bc05760405162461bcd60e51b81526004016102909190615580565b612bc06040518060400160405280601881526020017f5573657220697320616c72656164792061206d656d6265720000000000000000815250612c2b85600a018486613ad3565b60200151151590613f36565b80600001518260080160008360400151815260200190815260200160002060110182602001516000015181548110612c7157612c716158fa565b6000918252602080832084516007909302019182558381015160018084019190915560408086015160028501556060808701516003860155608080880151600487015560a0880151600587015560c08801516006909601805460e0909901511515600160a01b026001600160a81b03199099166001600160a01b03978816179890981790975587840151968801519094168552600a90970182528684209590920151835293845290849020825181559282015192018054919093015115156101000261ff00199215159290921661ffff1990911617179055565b612d5361504d565b6000612d63868660000151611d34565b9050612da2816000015160e001516002604051806040016040528060118152602001705061796261636b206e6f7420726561647960781b815250613411565b6000612db78787600001518860200151612698565b604080518082019091526007815266139bc81919589d60ca1b60208201528151919250612de691151590612bc5565b612dfe87876000015184602001518960200151613f56565b81516020810151516080909101511480612ef657612e3388600801600085602001518152602001908152602001600020613fed565b612e56886008016000856020015181526020019081526020016000206001614008565b612e7188846000015160200151602001518560200151614058565b6040518060600160405280612e8a8a8a60000151611d34565b600001518152602001846000015160a00151846020015181518110612eb157612eb16158fa565b6020026020010151608001518152602001846000015160a00151846020015181518110612ee057612ee06158fa565b602002602001015160a001518152509350612fb9565b6040518060600160405280612f0f8a8a60000151611d34565b600001518152602001846000015160a00151846020015181518110612f3657612f366158fa565b6020026020010151608001518152602001846000015160a00151846020015181518110612f6557612f656158fa565b602002602001015160a001518152509350612f96888460200151896000015186600001516040015160a00151613bc9565b612fb9886008016000856020015181526020019081526020016000206005614008565b825160600151805160409182015191516370a0823160e01b81526001600160a01b039283166004820152600092909116906370a0823190602401602060405180830381865afa158015613010573d6000803e3d6000fd5b505050506040513d601f19601f820116820180604052508101906130349190615939565b602089015185516060015151855192935061304e92614098565b60208801518451606001518051855160409092015161306e939290614164565b836000015160600151604001516001600160a01b0316634ba22344896020015186600001516060015160000151866000015185878a6000015160a001518e8e8d600001516040015160a001516040518a63ffffffff1660e01b81526004016130de99989796959493929190615997565b600060405180830381600087803b1580156130f857600080fd5b505af115801561310c573d6000803e3d6000fd5b5050505050505050949350505050565b6000606462ffffff861681111561314d5760405163a371850b60e01b815262ffffff87166004820152602401610290565b600061315f62ffffff88166064613466565b905060006131828761317c6131758c600a615b20565b8990613466565b9061422b565b905061319c61271061317c8365ffffffffffff8616613466565b935084156131d9576131d9848b10156040518060400160405280601081526020016f496e73756666696369656e742058464960801b815250612bc5565b5050509695505050505050565b6131ee615080565b60006131f8612b24565b905060008360a00151600081518110613213576132136158fa565b60209081029190910101516080850151600487015491925060009161324191906001600160a01b0316614237565b90506132518686838560006142d7565b80855260409081015160808101519101518451613275928992909186908080614410565b60208501525091949350505050565b61328c615080565b6000613296612b24565b905060008360a001516000815181106132b1576132b16158fa565b6020908102919091010151608085015160048701549192506000916132df91906001600160a01b0316614237565b604084015190915060ff165b8560a001515181101561340757836040015160ff168103613342576133148787848660016142d7565b80865260409081015160808101519101518551613338928a92909187908080614410565b60208601526133ff565b60008660a00151828151811061335a5761335a6158fa565b602002602001015190506133b96040518060400160405280601381526020017241646d696e2073706f7474656420747769636560681b815250856001600160a01b0316836001600160a01b031614151515612bc590919063ffffffff16565b85516040908101516080810151910151602087015187516133e3938c939092909186919081614410565b506133fa8887600001516040015160400151611d34565b518652505b6001016132eb565b5050505092915050565b612bc08183600581111561342757613427615273565b85600581111561343957613439615273565b1490612bc5565b600081815260208390526040812060100180549161345d83615b2f565b91905055505050565b600061227b8284615b48565b60006107ec61ffff8316610e10613466565b600061227b838361447c565b61349861504d565b602082015160408301516000906134b190869084612993565b90508060600151610e106134c59190615952565b4211156135685760208401516001600160a01b0316336001600160a01b031614613563573391506134fb85856040015184612b7e565b613560856040518060c0016040528061351c89600a01878a60400151613ad3565b815260200187602001516001600160a01b03168152602001856001600160a01b03168152602001876040015181526020018760600151815260200184815250614523565b90505b6135cd565b60c08101516001600160a01b0316336001600160a01b0316146135cd5760405162461bcd60e51b815260206004820152601860248201527f5475726e2074696d6520686173206e6f742070617373656400000000000000006044820152606401610290565b60006135fb8560e0015160400151606001518660a001518760e0015160200151604001518860c00151611f83565b60608601805160009081526008890160208190526040909120600d0180546001600160a01b0319166001600160a01b038816179055905191925061363e91614665565b6040805161010081018252865162ffffff16815260e087015160208181015160808101516060918201518b51949096015190910151600095928501936136879391929190614682565b6040015181526020016136aa886000015162ffffff166136a44290565b90613b47565b8152606085810151602083015260e08901518082015160408181015160a0808e01519351948301519586015160808f0151969091015183516301074f6160e71b81526001600160a01b038e81166004830152968716602482015260448101929092526064820196909652608481018a905260a481019590955294019391909116916383a7b080919060c40160206040518083038185885af1158015613753573d6000803e3d6000fd5b50505050506040513d601f19601f820116820180604052508101906137789190615939565b81526020018760a001518152602001856001600160a01b031681526020018460e00151151581525090506137f4876040518060a001604052808481526020016137c98b600a01898c60400151613ad3565b81526020018960600151815260200189604001518152602001876001600160a01b0316815250612c37565b606086015160009081526008880160205260409020613814906002614008565b613822878760400151611d34565b518552606086015160009081526008880160205260409020613407906147a3565b61384b61504d565b6000613855612b24565b90506000613867858560000151611d34565b90506138b2816000015160e0015160006040518060400160405280601781526020017f416464204c6971756964697479206e6f74207265616479000000000000000000815250613411565b8360200151156139325783516138ca90869033612b7e565b8151602082810151600090815260088801909152604090206011016138f4600a8801338851613ad3565b5181548110613905576139056158fa565b906000526020600020906007020160060160146101000a81548160ff0219169083151502179055506139b7565b61398c8160000151602001516000015161396387600801600085602001518152602001908152602001600020611d2a565b106040518060400160405280600a815260200169141d5888199a5b1b195960b21b815250612bc5565b835161399a90869033612be4565b602081015184516139b5918791336020870151875180614410565b505b806000015160400151604001518560080160008360200151815260200190815260200160002060060160030160008282546139f29190615952565b909155505060208082015160009081526008870182526040902090850151613a1a91906147ba565b15613a5d57613a3a85826000015160200151602001518360200151614058565b613a5d856008016000836020015181526020019081526020016000206001614008565b613a7833825160608101515160409182015190910151614098565b613a9b338251606081015180516040928301518301519290910151909190614164565b80516060015160400151613ab9903383516040015160a001516147fd565b613ac7858560000151611d34565b51835250909392505050565b6040805160608082018352600080835260208084018290529284018190526001600160a01b039590951685529481528184209284529182529182902082519384018352805484526001015460ff80821615159285019290925261010090041615159082015290565b600061227b8284615926565b600061227b8284615952565b6001600160a01b0381166000908152600a840160209081526040808320858452909152902060010154610100900460ff16612bc05760405162461bcd60e51b81526020600482015260166024820152752330b1ba37b93ca634b11d1027b7363c9030b236b4b760511b6044820152606401610290565b60008381526008808601602090815260408084208585526007808a019093529320835481556001808501549082015560028085015490820155600380850154908201556004808501549082015560058085015490820155600680850154908201558184015491810191909155828201549181019190915560098083015490820155600a8083015490820155600b8083015490820155600c8083015490820180546001600160a01b03199081166001600160a01b0393841617909155600d8085015490840180548316918416919091179055600e8085015490840180548316918416919091179055600f80850154908401805490921692169190911790556010808301549082015560118083018054613ce492840191906150a0565b50601282810154908201805460ff9092169160ff191660018381811115613d0d57613d0d615273565b0217905550601282810154908201805460ff61010093849004169261ff001990911690836005811115613d4257613d42615273565b021790555050604080518082019091526001815290506020810160009052600083815260058601602090815260409091208251815490151560ff19821681178355928401519192839161ff001990911661ffff1990911617610100836001811115613daf57613daf615273565b02179055505060008080526008808701602052604080832087845292208254815560018084015490820155600280840154908201556003808401549082015560048084015490820155600580840154908201556006808401549082015560078084015490820155828201549181019190915560098083015490820155600a8083015490820155600b8083015490820155600c8083015490820180546001600160a01b03199081166001600160a01b0393841617909155600d8085015490840180548316918416919091179055600e8085015490840180548316918416919091179055600f808501549084018054909216921691909117905560108083015490820155601180830180549394509192613ecb9291840191906150a0565b50601282810154908201805460ff9092169160ff191660018381811115613ef457613ef4615273565b0217905550601282810154908201805460ff61010093849004169261ff001990911690836005811115613f2957613f29615273565b0217905550505050505050565b808215612bc05760405162461bcd60e51b81526004016102909190615580565b6000613f6685600a018386613ad3565b51600084815260088701602052604081206011018054929350909183908110613f9157613f916158fa565b90600052602060002090600702016004018190555060008560080160008581526020019081526020016000206011018281548110613fd157613fd16158fa565b9060005260206000209060070201600501819055505050505050565b6001810154600882015461400091613466565b600990910155565b600681600581111561401c5761401c615273565b60ff161061402c5761402c615b5f565b60128201805482919061ff00191661010083600581111561404f5761404f615273565b02179055505050565b426000828152600885016020526040902060110180548490811061407e5761407e6158fa565b906000526020600020906007020160030181905550505050565b604051636eb1769f60e11b81526001600160a01b03848116600483015230602483015282919084169063dd62ed3e90604401602060405180830381865afa1580156140e7573d6000803e3d6000fd5b505050506040513d601f19601f8201168201806040525081019061410b9190615939565b1015612bc05760405162461bcd60e51b815260206004820152602260248201527f466163746f72794c69623a20496e73756666696369656e7420616c6c6f77616e604482015261636560f01b6064820152608401610290565b6040516323b872dd60e01b81526001600160a01b0385811660048301528281166024830152604482018490528416906323b872dd906064016020604051808303816000875af11580156141bb573d6000803e3d6000fd5b505050506040513d601f19601f820116820180604052508101906141df919061589c565b61192d5760405162461bcd60e51b815260206004820152601b60248201527f466163746f72794c69623a205472616e73666572206661696c656400000000006044820152606401610290565b600061227b8284615b8b565b6000614243828461485b565b90506001600160a01b0381166142c15760405163e487862760e01b8152600481018490526001600160a01b0383169063e4878627906024016020604051808303816000875af115801561429a573d6000803e3d6000fd5b505050506040513d601f19601f820116820180604052508101906142be9190615b9f565b90505b6001600160a01b0381166107ec576107ec615b5f565b6142df614ea4565b60006142e9612b24565b905060006142fb8888608001516148c7565b90506143546040518060400160405280601781526020017f436f6c20636f76657261676520697320746f6f206c6f770000000000000000008152506064896060015162ffffff1610151515612bc590919063ffffffff16565b6143a5826040015160ff16886040015161ffff16116102d0896040015161ffff1611156040518060400160405280601081526020016f24b73b30b634b210323ab930ba34b7b760811b8152506149c3565b6143b8858860c001518960800151614098565b6143cc858860c00151896080015189614164565b6143e386866143de8b8b8b8a886149ec565b6147fd565b6143f588600901868460000151614a4d565b614403888860800151611d34565b5198975050505050505050565b614418614f8b565b60008781526008890160205260408120601181018054600101905554600089815260088b0160205260409020805460010190559050611c178960405180606001604052808460ff1681526020018715158152602001881515815250888a8c88614abc565b600061271061ffff83161580614490575083155b1561449f5760009150506107ec565b6144dc61ffff80168461ffff161060405180604001604052806011815260200170496e746572657374206f766572666c6f7760781b815250612bc5565b6145048161ffff168511604051806060016040528060268152602001615c7760269139612bc5565b610bc88161ffff1661317c8561ffff168761346690919063ffffffff16565b61452b614f8b565b600061454384600a0184604001518560600151613ad3565b90506145588484606001518560400151612993565b60a0808501805160609081015181850152815160009082015260408051938401815291518352815180820183528551815287516020908101511515828201528851840151151582850152808501919091526080808901519385019390935281880151918401919091528601516001600160a01b0316908201529092506145df908590612c37565b614652846040518060a0016040528085815260200160405180606001604052808860000151600001518152602001866020015115158152602001866040015115158152508152602001866080015181526020018660600151815260200186604001516001600160a01b0316815250612c37565b610bc88484606001518560400151612993565b600081815260208390526040812060020180549161345d83615b2f565b6146a660405180606001604052806000815260200160008152602001600081525090565b6146ca60405180606001604052806000815260200160008152602001600081525090565b61473762278d0062ffffff8616118015906146f257506146f062ffffff8516603c614b2e565b155b8562ffffff168562ffffff1611158015614719575061471762ffffff8716603c614b2e565b155b604051806060016040528060258152602001615bd1602591396149c3565b614741868661447c565b80825215610ae25780516147619062ffffff86169061317c906001613466565b602082015262ffffff8084169085161161477c578051614795565b80516147959062ffffff8087169161317c918716613466565b604082015295945050505050565b6147ab612b24565b6040015160ff16600990910155565b6001820154600883015460009182916147d291613466565b905082156147e65760098401548114610bc8565b60018401546147f485611d2a565b14949350505050565b6040516320d46be760e11b81526001600160a01b038381166004830152602482018390528416906341a8d7ce90604401600060405180830381600087803b15801561484757600080fd5b505af1158015610e98573d6000803e3d6000fd5b60405163c3b95b1b60e01b8152600481018290526000906001600160a01b0384169063c3b95b1b90602401602060405180830381865afa1580156148a3573d6000803e3d6000fd5b505050506040513d601f19601f8201168201806040525081019061227b9190615b9f565b600081815260058301602090815260408083208151808301909252805460ff808216151584528594840191610100900416600181111561490957614909615273565b600181111561491a5761491a615273565b905250805190915061496a5760008381526005850160205260409020805460ff1916600117905561494e8480546001019055565b83546000848152600686016020526040902081905591506149b4565b60018160200151600181111561498257614982615273565b036149a05760405163ca61cb2760e01b815260040160405180910390fd5b600083815260068501602052604090205491505b611d0884600501846001614b3a565b8280156149cd5750815b819061192d5760405162461bcd60e51b81526004016102909190615580565b6000806149fc8660400151613472565b90506000614a3087600001518384614a288b6020015160ff168c6080015161346690919063ffffffff16565b929190614682565b9050614a418888838988878b614b71565b98975050505050505050565b80614a86576001600160a01b0382166000908152602084905260408120805460029290614a7b908490615952565b92505081905561192d565b6001600160a01b0382166000908152602084905260408120600101805460059290614ab2908490615952565b9091555050505050565b614ac4614f8b565b614ad18784868989614deb565b600083815260088801602052604090208651601190910180548492908110614afb57614afb6158fa565b906000526020600020906007020160060160146101000a81548160ff021916908315150217905550611598878587612993565b600061227b8284615bbc565b6000828152602084905260409020805482919061ff001916610100836001811115614b6757614b67615273565b0217905550505050565b600080614b7c612b24565b9050614b8e8960010180546001019055565b600189015491506040518060a00160405280896020015160ff168152602001826040015160ff168152602001896060015162ffffff1681526020018562ffffff168152602001896000015161ffff1681525089600801600087815260200190815260200160002060010160008201518160000155602082015181600101556040820151816002015560608201518160030155608082015181600401559050506040518060c001604052808860000151815260200188602001518152602001896080015181526020018960800151815260200186815260200183815250896008016000878152602001908152602001600020600601600082015181600001556020820151816001015560408201518160020155606082015181600301556080820151816004015560a0820151816005015590505060405180608001604052808960c001516001600160a01b0316815260200182608001516001600160a01b03168152602001876001600160a01b031681526020018960a00151600081518110614d1857614d186158fa565b6020908102919091018101516001600160a01b03908116909252600088815260088d0182526040908190208451600c820180549186166001600160a01b031992831617905592850151600d8201805491861691851691909117905590840151600e82018054918516918416919091179055606090930151600f84018054919093169116179055601201805484919060ff191660018381811115614dbd57614dbd615273565b0217905550506000938452600897909701602052505060409020601201805461ff0019169055509192915050565b6001600160a01b0381166000908152600a86016020908152604080832086845282528083208551815582860151600190910180548388015115156101000261ff00199315159390931661ffff19909116179190911790558683526008880190915290208251601190910180548392908110614e6857614e686158fa565b906000526020600020906007020160060160006101000a8154816001600160a01b0302191690836001600160a01b031602179055505050505050565b6040805161012081019091526000610100820190815281908152602001614ef36040518060a0016040528060008152602001600081526020016000815260200160008152602001600081525090565b8152602001614f316040518060c001604052806000815260200160008152602001600081526020016000815260200160008152602001600081525090565b8152604080516080810182526000808252602082810182905292820181905260608201529101908152602001600081526020016060815260200160006001811115614f7e57614f7e615273565b815260200160005b905290565b60405180610100016040528060008152602001600081526020016000815260200160008152602001600081526020016000815260200160006001600160a01b031681526020016000151581525090565b60405180608001604052806150116040518060800160405280600081526020016000815260200160008152602001600081525090565b8152604080516080810182526000808252602082810182905292820181905260608201529101905b815260200160008152602001600081525090565b6040518060600160405280615039614ea4565b6040518060400160405280615073614ea4565b8152602001600081525090565b6040518060400160405280615093614ea4565b8152602001614f86614f8b565b8280548282559060005260206000209060070281019282156151625760005260206000209160070282015b82811115615162578254825560018084015490830155600280840154908301556003808401549083015560048084015490830155600580840154908301556006808401805491840180546001600160a01b031981166001600160a01b039094169384178255915460ff600160a01b91829004161515026001600160a81b0319909216909217179055600792830192909101906150cb565b5061516e929150615172565b5090565b5b8082111561516e5760008082556001820181905560028201819055600382018190556004820181905560058201556006810180546001600160a81b0319169055600701615173565b6000602082840312156151cd57600080fd5b5035919050565b805182526020810151602083015260408101516040830152606081015160608301526080810151608083015260a081015160a083015260018060a01b0360c08201511660c083015260e0810151151560e08301525050565b60008151808452602080850194506020840160005b83811015615268576152548783516151d4565b610100969096019590820190600101615241565b509495945050505050565b634e487b7160e01b600052602160045260246000fd5b6002811061529957615299615273565b50565b6152a581615289565b9052565b600681106152a5576152a5615273565b600061028082515184526020830151615300602086018280518252602081015160208301526040810151604083015260608101516060830152608081015160808301525050565b50604083810151805160c087015260208082015160e0880152818301516101008801526060808301516101208901526080808401516101408a015260a0938401516101608a01528188015180516001600160a01b039081166101808c01529381015184166101a08b01529485015183166101c08a0152930151166101e08701529084015161020086015283015161022085018290526153a18286018261522c565b91505060c08301516153b761024086018261529c565b5060e0830151612b1c6102608601826152a9565b60208152600061227b60208301846152b9565b6101c081016153ed82886151d4565b94151561010082015261012081019390935281516101408401526020820151151561016084015260409091015115156101808301526001600160a01b03166101a090910152919050565b6001600160a01b038116811461529957600080fd5b803561545781615437565b919050565b6000806040838503121561546f57600080fd5b82359150602083013561548181615437565b809150509250929050565b61010081016107ec82846151d4565b8151815260208083015190820152604081016107ec565b602081016154bf83615289565b91905290565b6000602082840312156154d757600080fd5b813561227b81615437565b815115158152602082015160408201906154fb81615289565b8060208401525092915050565b803561ffff8116811461545757600080fd5b600080600080600060a0868803121561553257600080fd5b61553b86615508565b945060208601359350604086013561555281615437565b9250606086013561556281615437565b9150608086013561557281615437565b809150509295509295909350565b60006020808352835180602085015260005b818110156155ae57858101830151858201604001528201615592565b506000604082860101526040601f19601f8301168501019250505092915050565b803560ff8116811461545757600080fd5b803562ffffff8116811461545757600080fd5b60008060008060008060c0878903121561560c57600080fd5b61561587615508565b9550615623602088016155cf565b945061563160408801615508565b935061563f606088016155e0565b92506080870135915060a087013561565681615437565b809150509295509295509295565b6000806040838503121561567757600080fd5b82359150615687602084016155cf565b90509250929050565b634e487b7160e01b600052604160045260246000fd5b60008060008060008060c087890312156156bf57600080fd5b6156c887615508565b955060206156d7818901615508565b95506156e5604089016155e0565b94506060880135935060808801356156fc81615437565b925060a088013567ffffffffffffffff8082111561571957600080fd5b818a0191508a601f83011261572d57600080fd5b81358181111561573f5761573f615690565b8060051b604051601f19603f8301168101818110858211171561576457615764615690565b60405291825284820192508381018501918d83111561578257600080fd5b938501935b828510156157a7576157988561544c565b84529385019392850192615787565b8096505050505050509295509295509295565b600080604083850312156157cd57600080fd5b82356157d881615437565b946020939093013593505050565b81518152602080830151151590820152604080830151151590820152606081016107ec565b6000806000806080858703121561582157600080fd5b843561582c81615437565b9350602085013561583c81615437565b925061584a60408601615508565b9150606085013561585a81615437565b939692955090935050565b6020808252601a908201527f4f6e6c794f776e65723a204d616e61676572206e6f7420736574000000000000604082015260600190565b6000602082840312156158ae57600080fd5b8151801515811461227b57600080fd5b6020815260008251606060208401526158da60808401826152b9565b905060208401516040840152604084015160608401528091505092915050565b634e487b7160e01b600052603260045260246000fd5b634e487b7160e01b600052601160045260246000fd5b818103818111156107ec576107ec615910565b60006020828403121561594b57600080fd5b5051919050565b808201808211156107ec576107ec615910565b602081526000825161012060208401526159836101408401826152b9565b90506020840151612b1c60408501826151d4565b6001600160a01b038a8116825289166020808301919091526040820189905260608201889052861515608083015261012060a08301819052865190830181905260009161014084019188820191845b82811015615a0d576159f98585516151d4565b6101009490940193928101926001016159e6565b5050505094151560c0830152506001600160a01b039290921660e0830152610100909101529695505050505050565b600181815b80851115615a77578160001904821115615a5d57615a5d615910565b80851615615a6a57918102915b93841c9390800290615a41565b509250929050565b600082615a8e575060016107ec565b81615a9b575060006107ec565b8160018114615ab15760028114615abb57615ad7565b60019150506107ec565b60ff841115615acc57615acc615910565b50506001821b6107ec565b5060208310610133831016604e8410600b8410161715615afa575081810a6107ec565b615b048383615a3c565b8060001904821115615b1857615b18615910565b029392505050565b600061227b60ff841683615a7f565b600060018201615b4157615b41615910565b5060010190565b80820281158282048414176107ec576107ec615910565b634e487b7160e01b600052600160045260246000fd5b634e487b7160e01b600052601260045260246000fd5b600082615b9a57615b9a615b75565b500490565b600060208284031215615bb157600080fd5b815161227b81615437565b600082615bcb57615bcb615b75565b50069056fe5574696c733a2046756c6c447572206f72204475724f6643686f696365206f6572666c6f77466163746f7279202d207365744d696e696d756d4c697175696469747950657250726f7669646572206e6f74207065726d6974746564466163746f7279202d20736574436f6e747261637444617461206e6f74207065726d6974746564466163746f7279202d20706572666f726d5365745570206e6f74207065726d69747465645072696e636970616c2073686f756c642062652067726561746572207468616e203130303030a26469706673582212205a8a5ed47e440dc212bf973a0da4690c6b797b70f402bcf04c08f9ed8b3f09cb64736f6c63430008180033",
  "libraries": {
    "FactoryLib": "0x3fBeEF170115d24a3B82cf7F438e558a8338881C"
  },
  "devdoc": {
    "author": "Simplifinance - (Bobeu) ",
    "errors": {
      "EnforcedPause()": [
        {
          "details": "The operation failed because the contract is paused."
        }
      ],
      "ExpectedPause()": [
        {
          "details": "The operation failed because the contract is not paused."
        }
      ],
      "ReentrancyGuardReentrantCall()": [
        {
          "details": "Unauthorized reentrant call."
        }
      ]
    },
    "events": {
      "Paused(address)": {
        "details": "Emitted when the pause is triggered by `account`."
      },
      "Unpaused(address)": {
        "details": "Emitted when the pause is lifted by `account`."
      }
    },
    "kind": "dev",
    "methods": {
      "constructor": {
        "details": "Initializes state variables.",
        "params": {
          "assetClass": ": Asset manager contract.",
          "bankFactory": ": BankFactory contract.",
          "feeTo": ": Account to receive fees.",
          "minContribution": ": Minimum contribution amount.",
          "ownerShipManager": ": Accessibility manager contract",
          "serviceRate": ": Platform fee in %"
        }
      },
      "createPermissionedPool(uint16,uint16,uint24,uint256,address,address[])": {
        "details": "Create permissioned pool See AbstractFactory.sol "
      },
      "createPermissionlessPool(uint16,uint8,uint16,uint24,uint256,address)": {
        "details": "Create permissionless See AbstractFactory.sol"
      },
      "enquireLiquidation(uint256)": {
        "details": "See FactoryLib.enquireLiquidation"
      },
      "getBalances(uint256)": {
        "details": "Returns both ERC20 and Native balances locked in an epoch",
        "params": {
          "unit": ": Epoch Id"
        }
      },
      "getCollaterlQuote(uint256)": {
        "details": "Returns collaterl quote for the epoch.",
        "params": {
          "unit": ": EpochId"
        },
        "returns": {
          "colCoverage": "Collateral coverage",
          "collateral": "Collateral"
        }
      },
      "getCurrentDebt(uint256,address)": {
        "params": {
          "target": ": Target user.",
          "unit": ": Epoch Id"
        }
      },
      "getEpoches()": {
        "details": "Return current epoch.  This is also total epoches generated to date "
      },
      "getFinance(uint256,uint8)": {
        "details": "Providers borrow from their pool provided the citeria are met.",
        "params": {
          "daysOfUseInHr": ": The time in hours the borrower wishes to retain the loan before paying back.",
          "unit": ": Epoh Id user wants to borrow from. "
        }
      },
      "getPoolData(uint256)": {
        "details": "Returns a single pool for 'unit'",
        "params": {
          "unitId": ": Contribution Id."
        }
      },
      "getProfile(uint256,address)": {
        "details": "Returns the profile of user",
        "params": {
          "unit": ": unit contribution",
          "user": ": User"
        }
      },
      "getRecord(uint256)": {
        "details": "Return past pools using unitId. @notice The correct unitId must be parsed."
      },
      "getRecordEpoches()": {
        "details": "Returns epoches"
      },
      "getRouter(uint256)": {
        "details": "Return the router for an unit."
      },
      "joinAPool(uint256)": {
        "details": "See AbstractFactory.sol "
      },
      "liquidate(uint256)": {
        "details": "Liquidate defaulter. Note: The expected repayment time for last paid contributor must have passed. See FactoryLib.liquidate() for more details.",
        "params": {
          "unit": ": Epoch Id"
        }
      },
      "pause()": {
        "details": "Triggers stopped state. Requirements: Only owner role can call. - The contract must not be paused."
      },
      "paused()": {
        "details": "Returns true if the contract is paused, and false otherwise."
      },
      "payback(uint256)": {
        "details": "Return borrowed fund.",
        "params": {
          "unit": ": Contribution See FactoryLib.payback()."
        }
      },
      "performSetUp(uint16,uint256,address,address,address)": {
        "details": "See _setUp() for doc."
      },
      "removeLiquidityPool(uint256)": {
        "details": "Remove liquidity pool",
        "params": {
          "unit": ": Epoch/Poool id"
        }
      },
      "setContractData(address,address,uint16,address)": {
        "details": "Set state variables.",
        "params": {
          "assetAdmin": ": AssetAdmin contract.",
          "feeTo": ": Fee receiver.",
          "serviceRate": ": fee in %. - Only-owner function."
        }
      },
      "setMinimumLiquidityPerProvider(uint256)": {
        "details": "Updates minimum liquidity of a pool.   Note: Only Owner function.",
        "params": {
          "minLiquidity": ": Minimum contribution."
        }
      },
      "setOwnershipManager(address)": {
        "params": {
          "newManager": ": New manager address"
        }
      },
      "unpause()": {
        "details": "Returns to normal state. Requirements: - Only owner role can call. - The contract must be paused."
      }
    },
    "title": "Factory : Main contract",
    "version": 1
  },
  "userdoc": {
    "kind": "user",
    "methods": {
      "getCurrentDebt(uint256,address)": {
        "notice": "Returns the current debt of target user."
      },
      "getFinance(uint256,uint8)": {
        "notice": "Users can be members of multiple epoches. This enlarges the volume of funds they can access.  - This is a payable function since borrowers are required to stake XFI before they can access funds in epoches. - The contract must be in a usable state i.e not paused. - For the selected epoch, the getFinance() must already be unlocked. Unlocking  is automated soon as the required quorum for the epoch is achieved i.e the  numbers of providers equals the set quorum."
      },
      "setOwnershipManager(address)": {
        "notice": "Set Ownership manager"
      }
    },
    "notice": "  A multi p2p lending and borrowing structure where liquidity providers are borrowers. We bring together users form different  parts of the world to form a liquidity synergy, where the pooled fund moved round them from the first to the last on the list in form of borrowed fund.The permissionless model allows users to create liquidity pool for anyone to participate while the  permissioned structure restricts participation only to the known members known as band.",
    "version": 1
  },
  "storageLayout": {
    "storage": [
      {
        "astId": 367,
        "contract": "contracts/implementations/Factory.sol:Factory",
        "label": "_status",
        "offset": 0,
        "slot": "0",
        "type": "t_uint256"
      },
      {
        "astId": 1739,
        "contract": "contracts/implementations/Factory.sol:Factory",
        "label": "ownershipManager",
        "offset": 0,
        "slot": "1",
        "type": "t_address"
      },
      {
        "astId": 1819,
        "contract": "contracts/implementations/Factory.sol:Factory",
        "label": "_paused",
        "offset": 20,
        "slot": "1",
        "type": "t_bool"
      },
      {
        "astId": 877,
        "contract": "contracts/implementations/Factory.sol:Factory",
        "label": "data",
        "offset": 0,
        "slot": "2",
        "type": "t_struct(Data)4373_storage"
      },
      {
        "astId": 879,
        "contract": "contracts/implementations/Factory.sol:Factory",
        "label": "creationFee",
        "offset": 0,
        "slot": "13",
        "type": "t_uint256"
      },
      {
        "astId": 881,
        "contract": "contracts/implementations/Factory.sol:Factory",
        "label": "minContribution",
        "offset": 0,
        "slot": "14",
        "type": "t_uint256"
      },
      {
        "astId": 884,
        "contract": "contracts/implementations/Factory.sol:Factory",
        "label": "analytics",
        "offset": 0,
        "slot": "15",
        "type": "t_struct(Analytics)2748_storage"
      },
      {
        "astId": 2981,
        "contract": "contracts/implementations/Factory.sol:Factory",
        "label": "routers",
        "offset": 0,
        "slot": "19",
        "type": "t_mapping(t_uint256,t_enum(Router)1956)"
      }
    ],
    "types": {
      "t_address": {
        "encoding": "inplace",
        "label": "address",
        "numberOfBytes": "20"
      },
      "t_array(t_struct(Contributor)2010_storage)dyn_storage": {
        "base": "t_struct(Contributor)2010_storage",
        "encoding": "dynamic_array",
        "label": "struct Common.Contributor[]",
        "numberOfBytes": "32"
      },
      "t_bool": {
        "encoding": "inplace",
        "label": "bool",
        "numberOfBytes": "1"
      },
      "t_enum(FuncTag)1950": {
        "encoding": "inplace",
        "label": "enum Common.FuncTag",
        "numberOfBytes": "1"
      },
      "t_enum(Router)1956": {
        "encoding": "inplace",
        "label": "enum Common.Router",
        "numberOfBytes": "1"
      },
      "t_enum(Status)1953": {
        "encoding": "inplace",
        "label": "enum Common.Status",
        "numberOfBytes": "1"
      },
      "t_mapping(t_address,t_mapping(t_uint256,t_struct(Slot)2151_storage))": {
        "encoding": "mapping",
        "key": "t_address",
        "label": "mapping(address => mapping(uint256 => struct Common.Slot))",
        "numberOfBytes": "32",
        "value": "t_mapping(t_uint256,t_struct(Slot)2151_storage)"
      },
      "t_mapping(t_address,t_struct(Point)1992_storage)": {
        "encoding": "mapping",
        "key": "t_address",
        "label": "mapping(address => struct Common.Point)",
        "numberOfBytes": "32",
        "value": "t_struct(Point)1992_storage"
      },
      "t_mapping(t_uint256,t_enum(Router)1956)": {
        "encoding": "mapping",
        "key": "t_uint256",
        "label": "mapping(uint256 => enum Common.Router)",
        "numberOfBytes": "32",
        "value": "t_enum(Router)1956"
      },
      "t_mapping(t_uint256,t_struct(Pool)1987_storage)": {
        "encoding": "mapping",
        "key": "t_uint256",
        "label": "mapping(uint256 => struct Common.Pool)",
        "numberOfBytes": "32",
        "value": "t_struct(Pool)1987_storage"
      },
      "t_mapping(t_uint256,t_struct(Slot)2151_storage)": {
        "encoding": "mapping",
        "key": "t_uint256",
        "label": "mapping(uint256 => struct Common.Slot)",
        "numberOfBytes": "32",
        "value": "t_struct(Slot)2151_storage"
      },
      "t_mapping(t_uint256,t_struct(Unit)1962_storage)": {
        "encoding": "mapping",
        "key": "t_uint256",
        "label": "mapping(uint256 => struct Common.Unit)",
        "numberOfBytes": "32",
        "value": "t_struct(Unit)1962_storage"
      },
      "t_mapping(t_uint256,t_uint256)": {
        "encoding": "mapping",
        "key": "t_uint256",
        "label": "mapping(uint256 => uint256)",
        "numberOfBytes": "32",
        "value": "t_uint256"
      },
      "t_struct(Addresses)2097_storage": {
        "encoding": "inplace",
        "label": "struct Common.Addresses",
        "members": [
          {
            "astId": 2090,
            "contract": "contracts/implementations/Factory.sol:Factory",
            "label": "asset",
            "offset": 0,
            "slot": "0",
            "type": "t_address"
          },
          {
            "astId": 2092,
            "contract": "contracts/implementations/Factory.sol:Factory",
            "label": "lastPaid",
            "offset": 0,
            "slot": "1",
            "type": "t_address"
          },
          {
            "astId": 2094,
            "contract": "contracts/implementations/Factory.sol:Factory",
            "label": "bank",
            "offset": 0,
            "slot": "2",
            "type": "t_address"
          },
          {
            "astId": 2096,
            "contract": "contracts/implementations/Factory.sol:Factory",
            "label": "admin",
            "offset": 0,
            "slot": "3",
            "type": "t_address"
          }
        ],
        "numberOfBytes": "128"
      },
      "t_struct(Analytics)2748_storage": {
        "encoding": "inplace",
        "label": "struct IFactory.Analytics",
        "members": [
          {
            "astId": 2741,
            "contract": "contracts/implementations/Factory.sol:Factory",
            "label": "tvlInXFI",
            "offset": 0,
            "slot": "0",
            "type": "t_uint256"
          },
          {
            "astId": 2743,
            "contract": "contracts/implementations/Factory.sol:Factory",
            "label": "tvlInUsd",
            "offset": 0,
            "slot": "1",
            "type": "t_uint256"
          },
          {
            "astId": 2745,
            "contract": "contracts/implementations/Factory.sol:Factory",
            "label": "totalPermissioned",
            "offset": 0,
            "slot": "2",
            "type": "t_uint256"
          },
          {
            "astId": 2747,
            "contract": "contracts/implementations/Factory.sol:Factory",
            "label": "totalPermissionless",
            "offset": 0,
            "slot": "3",
            "type": "t_uint256"
          }
        ],
        "numberOfBytes": "128"
      },
      "t_struct(ContractData)2739_storage": {
        "encoding": "inplace",
        "label": "struct IFactory.ContractData",
        "members": [
          {
            "astId": 2732,
            "contract": "contracts/implementations/Factory.sol:Factory",
            "label": "feeTo",
            "offset": 0,
            "slot": "0",
            "type": "t_address"
          },
          {
            "astId": 2734,
            "contract": "contracts/implementations/Factory.sol:Factory",
            "label": "assetAdmin",
            "offset": 0,
            "slot": "1",
            "type": "t_address"
          },
          {
            "astId": 2736,
            "contract": "contracts/implementations/Factory.sol:Factory",
            "label": "makerRate",
            "offset": 20,
            "slot": "1",
            "type": "t_uint16"
          },
          {
            "astId": 2738,
            "contract": "contracts/implementations/Factory.sol:Factory",
            "label": "bankFactory",
            "offset": 0,
            "slot": "2",
            "type": "t_address"
          }
        ],
        "numberOfBytes": "96"
      },
      "t_struct(Contributor)2010_storage": {
        "encoding": "inplace",
        "label": "struct Common.Contributor",
        "members": [
          {
            "astId": 1995,
            "contract": "contracts/implementations/Factory.sol:Factory",
            "label": "durOfChoice",
            "offset": 0,
            "slot": "0",
            "type": "t_uint256"
          },
          {
            "astId": 1997,
            "contract": "contracts/implementations/Factory.sol:Factory",
            "label": "expInterest",
            "offset": 0,
            "slot": "1",
            "type": "t_uint256"
          },
          {
            "astId": 1999,
            "contract": "contracts/implementations/Factory.sol:Factory",
            "label": "payDate",
            "offset": 0,
            "slot": "2",
            "type": "t_uint256"
          },
          {
            "astId": 2001,
            "contract": "contracts/implementations/Factory.sol:Factory",
            "label": "turnTime",
            "offset": 0,
            "slot": "3",
            "type": "t_uint256"
          },
          {
            "astId": 2003,
            "contract": "contracts/implementations/Factory.sol:Factory",
            "label": "loan",
            "offset": 0,
            "slot": "4",
            "type": "t_uint256"
          },
          {
            "astId": 2005,
            "contract": "contracts/implementations/Factory.sol:Factory",
            "label": "colBals",
            "offset": 0,
            "slot": "5",
            "type": "t_uint256"
          },
          {
            "astId": 2007,
            "contract": "contracts/implementations/Factory.sol:Factory",
            "label": "id",
            "offset": 0,
            "slot": "6",
            "type": "t_address"
          },
          {
            "astId": 2009,
            "contract": "contracts/implementations/Factory.sol:Factory",
            "label": "sentQuota",
            "offset": 20,
            "slot": "6",
            "type": "t_bool"
          }
        ],
        "numberOfBytes": "224"
      },
      "t_struct(Counter)470_storage": {
        "encoding": "inplace",
        "label": "struct Counters.Counter",
        "members": [
          {
            "astId": 469,
            "contract": "contracts/implementations/Factory.sol:Factory",
            "label": "_value",
            "offset": 0,
            "slot": "0",
            "type": "t_uint256"
          }
        ],
        "numberOfBytes": "32"
      },
      "t_struct(Data)4373_storage": {
        "encoding": "inplace",
        "label": "struct Data",
        "members": [
          {
            "astId": 4335,
            "contract": "contracts/implementations/Factory.sol:Factory",
            "label": "epoches",
            "offset": 0,
            "slot": "0",
            "type": "t_struct(Counter)470_storage"
          },
          {
            "astId": 4338,
            "contract": "contracts/implementations/Factory.sol:Factory",
            "label": "pastEpoches",
            "offset": 0,
            "slot": "1",
            "type": "t_struct(Counter)470_storage"
          },
          {
            "astId": 4341,
            "contract": "contracts/implementations/Factory.sol:Factory",
            "label": "pData",
            "offset": 0,
            "slot": "2",
            "type": "t_struct(ContractData)2739_storage"
          },
          {
            "astId": 4346,
            "contract": "contracts/implementations/Factory.sol:Factory",
            "label": "units",
            "offset": 0,
            "slot": "5",
            "type": "t_mapping(t_uint256,t_struct(Unit)1962_storage)"
          },
          {
            "astId": 4350,
            "contract": "contracts/implementations/Factory.sol:Factory",
            "label": "indexes",
            "offset": 0,
            "slot": "6",
            "type": "t_mapping(t_uint256,t_uint256)"
          },
          {
            "astId": 4355,
            "contract": "contracts/implementations/Factory.sol:Factory",
            "label": "records",
            "offset": 0,
            "slot": "7",
            "type": "t_mapping(t_uint256,t_struct(Pool)1987_storage)"
          },
          {
            "astId": 4360,
            "contract": "contracts/implementations/Factory.sol:Factory",
            "label": "current",
            "offset": 0,
            "slot": "8",
            "type": "t_mapping(t_uint256,t_struct(Pool)1987_storage)"
          },
          {
            "astId": 4365,
            "contract": "contracts/implementations/Factory.sol:Factory",
            "label": "points",
            "offset": 0,
            "slot": "9",
            "type": "t_mapping(t_address,t_struct(Point)1992_storage)"
          },
          {
            "astId": 4372,
            "contract": "contracts/implementations/Factory.sol:Factory",
            "label": "slots",
            "offset": 0,
            "slot": "10",
            "type": "t_mapping(t_address,t_mapping(t_uint256,t_struct(Slot)2151_storage))"
          }
        ],
        "numberOfBytes": "352"
      },
      "t_struct(Point)1992_storage": {
        "encoding": "inplace",
        "label": "struct Common.Point",
        "members": [
          {
            "astId": 1989,
            "contract": "contracts/implementations/Factory.sol:Factory",
            "label": "contributor",
            "offset": 0,
            "slot": "0",
            "type": "t_uint256"
          },
          {
            "astId": 1991,
            "contract": "contracts/implementations/Factory.sol:Factory",
            "label": "creator",
            "offset": 0,
            "slot": "1",
            "type": "t_uint256"
          }
        ],
        "numberOfBytes": "64"
      },
      "t_struct(Pool)1987_storage": {
        "encoding": "inplace",
        "label": "struct Common.Pool",
        "members": [
          {
            "astId": 1965,
            "contract": "contracts/implementations/Factory.sol:Factory",
            "label": "userCount",
            "offset": 0,
            "slot": "0",
            "type": "t_struct(Counter)470_storage"
          },
          {
            "astId": 1968,
            "contract": "contracts/implementations/Factory.sol:Factory",
            "label": "uints",
            "offset": 0,
            "slot": "1",
            "type": "t_struct(Uints)2087_storage"
          },
          {
            "astId": 1971,
            "contract": "contracts/implementations/Factory.sol:Factory",
            "label": "uint256s",
            "offset": 0,
            "slot": "6",
            "type": "t_struct(Uint256s)2075_storage"
          },
          {
            "astId": 1974,
            "contract": "contracts/implementations/Factory.sol:Factory",
            "label": "addrs",
            "offset": 0,
            "slot": "12",
            "type": "t_struct(Addresses)2097_storage"
          },
          {
            "astId": 1976,
            "contract": "contracts/implementations/Factory.sol:Factory",
            "label": "allGh",
            "offset": 0,
            "slot": "16",
            "type": "t_uint256"
          },
          {
            "astId": 1980,
            "contract": "contracts/implementations/Factory.sol:Factory",
            "label": "cData",
            "offset": 0,
            "slot": "17",
            "type": "t_array(t_struct(Contributor)2010_storage)dyn_storage"
          },
          {
            "astId": 1983,
            "contract": "contracts/implementations/Factory.sol:Factory",
            "label": "router",
            "offset": 0,
            "slot": "18",
            "type": "t_enum(Router)1956"
          },
          {
            "astId": 1986,
            "contract": "contracts/implementations/Factory.sol:Factory",
            "label": "stage",
            "offset": 1,
            "slot": "18",
            "type": "t_enum(FuncTag)1950"
          }
        ],
        "numberOfBytes": "608"
      },
      "t_struct(Slot)2151_storage": {
        "encoding": "inplace",
        "label": "struct Common.Slot",
        "members": [
          {
            "astId": 2146,
            "contract": "contracts/implementations/Factory.sol:Factory",
            "label": "value",
            "offset": 0,
            "slot": "0",
            "type": "t_uint256"
          },
          {
            "astId": 2148,
            "contract": "contracts/implementations/Factory.sol:Factory",
            "label": "isMember",
            "offset": 0,
            "slot": "1",
            "type": "t_bool"
          },
          {
            "astId": 2150,
            "contract": "contracts/implementations/Factory.sol:Factory",
            "label": "isAdmin",
            "offset": 1,
            "slot": "1",
            "type": "t_bool"
          }
        ],
        "numberOfBytes": "64"
      },
      "t_struct(Uint256s)2075_storage": {
        "encoding": "inplace",
        "label": "struct Common.Uint256s",
        "members": [
          {
            "astId": 2064,
            "contract": "contracts/implementations/Factory.sol:Factory",
            "label": "fullInterest",
            "offset": 0,
            "slot": "0",
            "type": "t_uint256"
          },
          {
            "astId": 2066,
            "contract": "contracts/implementations/Factory.sol:Factory",
            "label": "intPerSec",
            "offset": 0,
            "slot": "1",
            "type": "t_uint256"
          },
          {
            "astId": 2068,
            "contract": "contracts/implementations/Factory.sol:Factory",
            "label": "unit",
            "offset": 0,
            "slot": "2",
            "type": "t_uint256"
          },
          {
            "astId": 2070,
            "contract": "contracts/implementations/Factory.sol:Factory",
            "label": "currentPool",
            "offset": 0,
            "slot": "3",
            "type": "t_uint256"
          },
          {
            "astId": 2072,
            "contract": "contracts/implementations/Factory.sol:Factory",
            "label": "unitId",
            "offset": 0,
            "slot": "4",
            "type": "t_uint256"
          },
          {
            "astId": 2074,
            "contract": "contracts/implementations/Factory.sol:Factory",
            "label": "rId",
            "offset": 0,
            "slot": "5",
            "type": "t_uint256"
          }
        ],
        "numberOfBytes": "192"
      },
      "t_struct(Uints)2087_storage": {
        "encoding": "inplace",
        "label": "struct Common.Uints",
        "members": [
          {
            "astId": 2078,
            "contract": "contracts/implementations/Factory.sol:Factory",
            "label": "quorum",
            "offset": 0,
            "slot": "0",
            "type": "t_uint256"
          },
          {
            "astId": 2080,
            "contract": "contracts/implementations/Factory.sol:Factory",
            "label": "selector",
            "offset": 0,
            "slot": "1",
            "type": "t_uint256"
          },
          {
            "astId": 2082,
            "contract": "contracts/implementations/Factory.sol:Factory",
            "label": "colCoverage",
            "offset": 0,
            "slot": "2",
            "type": "t_uint256"
          },
          {
            "astId": 2084,
            "contract": "contracts/implementations/Factory.sol:Factory",
            "label": "duration",
            "offset": 0,
            "slot": "3",
            "type": "t_uint256"
          },
          {
            "astId": 2086,
            "contract": "contracts/implementations/Factory.sol:Factory",
            "label": "intRate",
            "offset": 0,
            "slot": "4",
            "type": "t_uint256"
          }
        ],
        "numberOfBytes": "160"
      },
      "t_struct(Unit)1962_storage": {
        "encoding": "inplace",
        "label": "struct Common.Unit",
        "members": [
          {
            "astId": 1958,
            "contract": "contracts/implementations/Factory.sol:Factory",
            "label": "isInitialized",
            "offset": 0,
            "slot": "0",
            "type": "t_bool"
          },
          {
            "astId": 1961,
            "contract": "contracts/implementations/Factory.sol:Factory",
            "label": "status",
            "offset": 1,
            "slot": "0",
            "type": "t_enum(Status)1953"
          }
        ],
        "numberOfBytes": "32"
      },
      "t_uint16": {
        "encoding": "inplace",
        "label": "uint16",
        "numberOfBytes": "2"
      },
      "t_uint256": {
        "encoding": "inplace",
        "label": "uint256",
        "numberOfBytes": "32"
      }
    }
  }
}