{
  "address": "0xd91FdF9d46ddbcdBD7EBE4485bdC9D2d5DE9a333",
  "abi": [
    {
      "inputs": [],
      "stateMutability": "nonpayable",
      "type": "constructor"
    },
    {
      "inputs": [
        {
          "internalType": "uint256",
          "name": "roleId",
          "type": "uint256"
        }
      ],
      "name": "getRoleBearer",
      "outputs": [
        {
          "internalType": "address",
          "name": "",
          "type": "address"
        }
      ],
      "stateMutability": "view",
      "type": "function"
    },
    {
      "inputs": [
        {
          "internalType": "address",
          "name": "target",
          "type": "address"
        }
      ],
      "name": "hasRole",
      "outputs": [
        {
          "internalType": "bool",
          "name": "",
          "type": "bool"
        }
      ],
      "stateMutability": "view",
      "type": "function"
    },
    {
      "inputs": [
        {
          "internalType": "address",
          "name": "target",
          "type": "address"
        }
      ],
      "name": "removeRole",
      "outputs": [
        {
          "internalType": "bool",
          "name": "",
          "type": "bool"
        }
      ],
      "stateMutability": "nonpayable",
      "type": "function"
    },
    {
      "inputs": [],
      "name": "renounceRole",
      "outputs": [
        {
          "internalType": "bool",
          "name": "",
          "type": "bool"
        }
      ],
      "stateMutability": "nonpayable",
      "type": "function"
    },
    {
      "inputs": [],
      "name": "roleCount",
      "outputs": [
        {
          "internalType": "uint256",
          "name": "",
          "type": "uint256"
        }
      ],
      "stateMutability": "view",
      "type": "function"
    },
    {
      "inputs": [
        {
          "internalType": "uint256",
          "name": "",
          "type": "uint256"
        }
      ],
      "name": "roles",
      "outputs": [
        {
          "internalType": "address",
          "name": "",
          "type": "address"
        }
      ],
      "stateMutability": "view",
      "type": "function"
    },
    {
      "inputs": [
        {
          "internalType": "address[]",
          "name": "roleBearers",
          "type": "address[]"
        }
      ],
      "name": "setRole",
      "outputs": [
        {
          "internalType": "bool",
          "name": "",
          "type": "bool"
        }
      ],
      "stateMutability": "nonpayable",
      "type": "function"
    }
  ],
  "transactionHash": "0x975d8427246d34b10220ccb6046b2311c9f495e3402fb33472e5a7a990886967",
  "args": [],
  "numDeployments": 1,
  "solcInputHash": "643eb59cb0f5205015bc29f950dbae35",
  "bytecode": "0x608060405234801561001057600080fd5b5061001c336001610021565b610192565b6001600160a01b0382166100bb576040517f08c379a000000000000000000000000000000000000000000000000000000000815260206004820152602560248201527f526f6c65426173653a20277461726765742720706172616d657465722069732060448201527f656d707479000000000000000000000000000000000000000000000000000000606482015260840160405180910390fd5b806100f6576001600160a01b0382166000908152600160205260408120805460ff19169055805481806100ed83610162565b9190505561012d565b6001600160a01b03821660009081526001602081905260408220805460ff191682179055815490918061012883610179565b919050555b50505050565b7f4e487b7100000000000000000000000000000000000000000000000000000000600052601160045260246000fd5b60008161017157610171610133565b506000190190565b60006001820161018b5761018b610133565b5060010190565b610594806101a16000396000f3fe608060405234801561001057600080fd5b506004361061007d5760003560e01c8063bfda4a491161005b578063bfda4a49146100e9578063ddf963581461012a578063dfe23f8414610141578063ed82d28a1461014957600080fd5b80634762155d146100825780637ef09bca146100aa578063a8912cbc146100d6575b600080fd5b6100956100903660046103c0565b610172565b60405190151581526020015b60405180910390f35b6100956100b83660046103c0565b6001600160a01b031660009081526001602052604090205460ff1690565b6100956100e43660046103f8565b6101be565b6101126100f73660046104bd565b6002602052600090815260409020546001600160a01b031681565b6040516001600160a01b0390911681526020016100a1565b61013360005481565b6040519081526020016100a1565b61009561022d565b6101126101573660046104bd565b6000908152600260205260409020546001600160a01b031690565b3360009081526001602052604081205460ff166101aa5760405162461bcd60e51b81526004016101a1906104d6565b60405180910390fd5b6101b58260006102cd565b5060015b919050565b3360009081526001602052604081205460ff166101ed5760405162461bcd60e51b81526004016101a1906104d6565b600160005b83518110156102265761021e84828151811061021057610210610502565b6020026020010151836102cd565b6001016101f2565b5092915050565b3360009081526001602052604081205460ff1661025c5760405162461bcd60e51b81526004016101a1906104d6565b6001600054116102bc5760405162461bcd60e51b815260206004820152602560248201527f4174206c65617374203220726f6c657320697320726571756972656420746f206044820152646c6561766560d81b60648201526084016101a1565b6102c73360006102cd565b50600190565b6001600160a01b0382166103315760405162461bcd60e51b815260206004820152602560248201527f526f6c65426173653a20277461726765742720706172616d6574657220697320604482015264656d70747960d81b60648201526084016101a1565b8061036c576001600160a01b0382166000908152600160205260408120805460ff19169055805481806103638361052e565b919050556103a3565b6001600160a01b03821660009081526001602081905260408220805460ff191682179055815490918061039e83610545565b919050555b50505050565b80356001600160a01b03811681146101b957600080fd5b6000602082840312156103d257600080fd5b6103db826103a9565b9392505050565b634e487b7160e01b600052604160045260246000fd5b6000602080838503121561040b57600080fd5b823567ffffffffffffffff8082111561042357600080fd5b818501915085601f83011261043757600080fd5b813581811115610449576104496103e2565b8060051b604051601f19603f8301168101818110858211171561046e5761046e6103e2565b60405291825284820192508381018501918883111561048c57600080fd5b938501935b828510156104b1576104a2856103a9565b84529385019392850192610491565b98975050505050505050565b6000602082840312156104cf57600080fd5b5035919050565b60208082526012908201527143616c6c657220686173206e6f20726f6c6560701b604082015260600190565b634e487b7160e01b600052603260045260246000fd5b634e487b7160e01b600052601160045260246000fd5b60008161053d5761053d610518565b506000190190565b60006001820161055757610557610518565b506001019056fea264697066735822122041adfa99b626c9274751e40de2477d3a519121955a7d839c7337e9c835d5c59764736f6c63430008180033",
  "devdoc": {
    "author": "Simplifinance Code written by Isaac Jesse (a.k.a Bobeu) Github: https://github.com/bobeu",
    "kind": "dev",
    "methods": {
      "getRoleBearer(uint256)": {
        "details": "Returns role bearer. Can be called externally by contracts.",
        "params": {
          "roleId": ": Role Id. "
        }
      },
      "hasRole(address)": {
        "details": "Check if target is an role.",
        "params": {
          "target": ": Target address."
        }
      },
      "removeRole(address)": {
        "details": "Remove an address as owner.",
        "params": {
          "target": ": Target address"
        }
      },
      "renounceRole()": {
        "details": "An owner can renounce their role. This however will not leave the contract empty without an owner. There must be at least one owner left."
      },
      "setRole(address[])": {
        "details": "Add a new owner address",
        "params": {
          "roleBearers": ": New roles"
        }
      }
    },
    "title": "RoleManager contract cuts across all Simplifi's contracts. Multiple accounts can be given role right to interact with  ecosystem's smart contracts. It is a standalone contract for managing role in Simplifi protocol",
    "version": 1
  },
  "userdoc": {
    "kind": "user",
    "methods": {
      "removeRole(address)": {
        "notice": "Only address with owner permission can remove another owner."
      },
      "renounceRole()": {
        "notice": "Only address with owner permission can renounce role."
      },
      "roleCount()": {
        "notice": "Number of roles."
      },
      "roles(uint256)": {
        "notice": "Mapping of roleCount to addresses. A valid id will return a mapped owner."
      },
      "setRole(address[])": {
        "notice": "Only address with owner permission can add another owner."
      }
    },
    "notice": "Accounts with role access cannot access users'fund. Users'funds are isolated from the main contract. Funds are  managed in a special safe called Bank. Each of the pools operates a unique and reusable safe.",
    "version": 1
  },
  "storageLayout": {
    "storage": [
      {
        "astId": 10648,
        "contract": "contracts/standalone/RoleManager.sol:RoleManager",
        "label": "roleCount",
        "offset": 0,
        "slot": "0",
        "type": "t_uint256"
      },
      {
        "astId": 10653,
        "contract": "contracts/standalone/RoleManager.sol:RoleManager",
        "label": "_hasRole",
        "offset": 0,
        "slot": "1",
        "type": "t_mapping(t_address,t_bool)"
      },
      {
        "astId": 10658,
        "contract": "contracts/standalone/RoleManager.sol:RoleManager",
        "label": "roles",
        "offset": 0,
        "slot": "2",
        "type": "t_mapping(t_uint256,t_address)"
      }
    ],
    "types": {
      "t_address": {
        "encoding": "inplace",
        "label": "address",
        "numberOfBytes": "20"
      },
      "t_bool": {
        "encoding": "inplace",
        "label": "bool",
        "numberOfBytes": "1"
      },
      "t_mapping(t_address,t_bool)": {
        "encoding": "mapping",
        "key": "t_address",
        "label": "mapping(address => bool)",
        "numberOfBytes": "32",
        "value": "t_bool"
      },
      "t_mapping(t_uint256,t_address)": {
        "encoding": "mapping",
        "key": "t_uint256",
        "label": "mapping(uint256 => address)",
        "numberOfBytes": "32",
        "value": "t_address"
      },
      "t_uint256": {
        "encoding": "inplace",
        "label": "uint256",
        "numberOfBytes": "32"
      }
    }
  }
}