{
  "address": "0x0A4C5E8e382835279B4c6b526c93eBAE65eb1716",
  "abi": [
    {
      "inputs": [
        {
          "internalType": "contract IRoleBase",
          "name": "_roleManager",
          "type": "address"
        },
        {
          "internalType": "address[]",
          "name": "_signers",
          "type": "address[]"
        },
        {
          "internalType": "uint8",
          "name": "_quorum",
          "type": "uint8"
        }
      ],
      "stateMutability": "nonpayable",
      "type": "constructor"
    },
    {
      "inputs": [
        {
          "internalType": "address",
          "name": "target",
          "type": "address"
        }
      ],
      "name": "AddressEmptyCode",
      "type": "error"
    },
    {
      "inputs": [
        {
          "internalType": "address",
          "name": "account",
          "type": "address"
        }
      ],
      "name": "AddressInsufficientBalance",
      "type": "error"
    },
    {
      "inputs": [],
      "name": "AlreadySigned",
      "type": "error"
    },
    {
      "inputs": [
        {
          "internalType": "string",
          "name": "errorMsg",
          "type": "string"
        }
      ],
      "name": "ErrorOccurred",
      "type": "error"
    },
    {
      "inputs": [],
      "name": "FailedInnerCall",
      "type": "error"
    },
    {
      "inputs": [
        {
          "internalType": "uint256",
          "name": "",
          "type": "uint256"
        }
      ],
      "name": "InsufficientBalance",
      "type": "error"
    },
    {
      "inputs": [
        {
          "internalType": "uint256",
          "name": "",
          "type": "uint256"
        }
      ],
      "name": "InvalidRequestId",
      "type": "error"
    },
    {
      "inputs": [],
      "name": "Pending",
      "type": "error"
    },
    {
      "inputs": [],
      "name": "PleaseLeaveAMinimumOfTwoSigners",
      "type": "error"
    },
    {
      "inputs": [],
      "name": "ReentrancyGuardReentrantCall",
      "type": "error"
    },
    {
      "anonymous": false,
      "inputs": [
        {
          "indexed": false,
          "internalType": "uint256",
          "name": "reqId",
          "type": "uint256"
        },
        {
          "indexed": false,
          "internalType": "address",
          "name": "from",
          "type": "address"
        }
      ],
      "name": "Requested",
      "type": "event"
    },
    {
      "anonymous": false,
      "inputs": [
        {
          "indexed": false,
          "internalType": "uint256",
          "name": "reqId",
          "type": "uint256"
        },
        {
          "indexed": false,
          "internalType": "address",
          "name": "from",
          "type": "address"
        }
      ],
      "name": "Signer",
      "type": "event"
    },
    {
      "anonymous": false,
      "inputs": [
        {
          "indexed": false,
          "internalType": "string",
          "name": "",
          "type": "string"
        }
      ],
      "name": "ThankYou",
      "type": "event"
    },
    {
      "inputs": [
        {
          "internalType": "uint256",
          "name": "reqId",
          "type": "uint256"
        }
      ],
      "name": "executeTransaction",
      "outputs": [],
      "stateMutability": "nonpayable",
      "type": "function"
    },
    {
      "inputs": [],
      "name": "getExecutors",
      "outputs": [
        {
          "internalType": "address[]",
          "name": "",
          "type": "address[]"
        }
      ],
      "stateMutability": "view",
      "type": "function"
    },
    {
      "inputs": [
        {
          "internalType": "uint256",
          "name": "reqId",
          "type": "uint256"
        }
      ],
      "name": "getTransactionRequest",
      "outputs": [
        {
          "components": [
            {
              "internalType": "uint256",
              "name": "amount",
              "type": "uint256"
            },
            {
              "internalType": "address",
              "name": "recipient",
              "type": "address"
            },
            {
              "internalType": "uint256",
              "name": "delay",
              "type": "uint256"
            },
            {
              "internalType": "address[]",
              "name": "executors",
              "type": "address[]"
            },
            {
              "internalType": "enum TokenDistributor.Status",
              "name": "status",
              "type": "uint8"
            },
            {
              "internalType": "enum TokenDistributor.Type",
              "name": "txType",
              "type": "uint8"
            },
            {
              "internalType": "uint256",
              "name": "expirationTime",
              "type": "uint256"
            },
            {
              "internalType": "uint256",
              "name": "id",
              "type": "uint256"
            }
          ],
          "internalType": "struct TokenDistributor.TransactionRequest",
          "name": "req",
          "type": "tuple"
        }
      ],
      "stateMutability": "view",
      "type": "function"
    },
    {
      "inputs": [
        {
          "internalType": "address",
          "name": "_recipient",
          "type": "address"
        },
        {
          "internalType": "uint256",
          "name": "_amount",
          "type": "uint256"
        },
        {
          "internalType": "uint16",
          "name": "_delayInHours",
          "type": "uint16"
        },
        {
          "internalType": "uint8",
          "name": "_type",
          "type": "uint8"
        }
      ],
      "name": "proposeTransaction",
      "outputs": [],
      "stateMutability": "nonpayable",
      "type": "function"
    },
    {
      "inputs": [],
      "name": "quorum",
      "outputs": [
        {
          "internalType": "uint256",
          "name": "",
          "type": "uint256"
        }
      ],
      "stateMutability": "view",
      "type": "function"
    },
    {
      "inputs": [],
      "name": "requestIDs",
      "outputs": [
        {
          "internalType": "uint256",
          "name": "",
          "type": "uint256"
        }
      ],
      "stateMutability": "view",
      "type": "function"
    },
    {
      "inputs": [],
      "name": "roleManager",
      "outputs": [
        {
          "internalType": "contract IRoleBase",
          "name": "",
          "type": "address"
        }
      ],
      "stateMutability": "view",
      "type": "function"
    },
    {
      "inputs": [
        {
          "internalType": "address",
          "name": "newManager",
          "type": "address"
        }
      ],
      "name": "setRoleManager",
      "outputs": [
        {
          "internalType": "bool",
          "name": "",
          "type": "bool"
        }
      ],
      "stateMutability": "nonpayable",
      "type": "function"
    },
    {
      "inputs": [
        {
          "internalType": "contract IERC20",
          "name": "newToken",
          "type": "address"
        }
      ],
      "name": "setToken",
      "outputs": [],
      "stateMutability": "nonpayable",
      "type": "function"
    },
    {
      "inputs": [
        {
          "internalType": "uint256",
          "name": "reqId",
          "type": "uint256"
        }
      ],
      "name": "signTransaction",
      "outputs": [],
      "stateMutability": "nonpayable",
      "type": "function"
    },
    {
      "inputs": [
        {
          "internalType": "address",
          "name": "",
          "type": "address"
        },
        {
          "internalType": "uint256",
          "name": "",
          "type": "uint256"
        }
      ],
      "name": "signed",
      "outputs": [
        {
          "internalType": "bool",
          "name": "",
          "type": "bool"
        }
      ],
      "stateMutability": "view",
      "type": "function"
    },
    {
      "inputs": [
        {
          "internalType": "address",
          "name": "",
          "type": "address"
        }
      ],
      "name": "signers",
      "outputs": [
        {
          "internalType": "bool",
          "name": "",
          "type": "bool"
        }
      ],
      "stateMutability": "view",
      "type": "function"
    },
    {
      "inputs": [],
      "name": "token",
      "outputs": [
        {
          "internalType": "contract IERC20",
          "name": "",
          "type": "address"
        }
      ],
      "stateMutability": "view",
      "type": "function"
    },
    {
      "inputs": [],
      "name": "validExecutors",
      "outputs": [
        {
          "internalType": "uint256",
          "name": "",
          "type": "uint256"
        }
      ],
      "stateMutability": "view",
      "type": "function"
    },
    {
      "stateMutability": "payable",
      "type": "receive"
    }
  ],
  "transactionHash": "0x886ac9a6b9c15857daed4c1258b4ac659e86ed99b78e59a12754a1ee5f1d8b03",
  "args": [
    "0xd91FdF9d46ddbcdBD7EBE4485bdC9D2d5DE9a333",
    [
      "0x16101742676EC066090da2cCf7e7380f917F9f0D",
      "0x85AbBd0605F9C725a1af6CA4Fb1fD4dC14dBD669",
      "0xef55Bc253297392F1a2295f5cE2478F401368c27",
      "0xD7c271d20c9E323336bFC843AEb8deC23B346352"
    ],
    2
  ],
  "numDeployments": 1,
  "solcInputHash": "643eb59cb0f5205015bc29f950dbae35",
  "bytecode": "0x60806040523480156200001157600080fd5b5060405162001f4838038062001f48833981016040819052620000349162000355565b600080546001600160a01b0319166001600160a01b0385161790556001808055825160ff831660025590811180156200006f57506001600254115b62000101576040517f08c379a000000000000000000000000000000000000000000000000000000000815260206004820152602160248201527f4d696e696d756d206f662032207369676e65727320616e6420322071756f727560448201527f6d0000000000000000000000000000000000000000000000000000000000000060648201526084015b60405180910390fd5b8015620001665760005b81811015620001645760008482815181106200012b576200012b62000452565b602002602001015190506200014f816001600160a01b03166200017060201b60201c565b6200015a81620001e5565b506001016200010b565b505b50505050620004b0565b6001600160a01b038116620001e2576040517f08c379a000000000000000000000000000000000000000000000000000000000815260206004820152601b60248201527f4c69623a20546172676574206973207a65726f206164647265737300000000006044820152606401620000f8565b50565b6001600160a01b03811660009081526007602052604090205460ff16156200026a576040517f08c379a000000000000000000000000000000000000000000000000000000000815260206004820152601560248201527f4163636f756e7420616c726561647920657869737400000000000000000000006044820152606401620000f8565b6001600160a01b0381166000818152600760205260408120805460ff1916600190811790915560058054808301825592527f036b6384b5eca791c62761152d0c79bb0604c104a5fb6f4eb0703f3154bb3db090910180546001600160a01b031916909217909155600380548201905560025411620001e257620001e262000481565b6001600160a01b0381168114620001e257600080fd5b7f4e487b7100000000000000000000000000000000000000000000000000000000600052604160045260246000fd5b80516200033e81620002ec565b919050565b805160ff811681146200033e57600080fd5b6000806000606084860312156200036b57600080fd5b83516200037881620002ec565b602085810151919450906001600160401b03808211156200039857600080fd5b818701915087601f830112620003ad57600080fd5b815181811115620003c257620003c262000302565b8060051b604051601f19603f83011681018181108582111715620003ea57620003ea62000302565b60405291825284820192508381018501918a8311156200040957600080fd5b938501935b828510156200043257620004228562000331565b845293850193928501926200040e565b809750505050505050620004496040850162000343565b90509250925092565b7f4e487b7100000000000000000000000000000000000000000000000000000000600052603260045260246000fd5b7f4e487b7100000000000000000000000000000000000000000000000000000000600052600160045260246000fd5b611a8880620004c06000396000f3fe6080604052600436106100e05760003560e01c806394ddb9c81161007f578063ef09e78f11610059578063ef09e78f146102e0578063f1d588c514610302578063fc0c546a14610322578063fe02be5d1461034257600080fd5b806394ddb9c81461027d578063ca93ed7814610293578063ee22610b146102c057600080fd5b80631703a018116100bb5780631703a018146101be57806324e5bfa7146101e25780635d9ec2101461022d578063736c0d5b1461024d57600080fd5b8062435da51461013f5780630ced97791461017c578063144fa6d71461019e57600080fd5b3661013a577f239e6a6d3e08690a61fbe93c21ce607af4bb0ddff595243cb13a6a808d15c8d4604051610130906020808252600990820152685468616e6b20596f7560b81b604082015260600190565b60405180910390a1005b600080fd5b34801561014b57600080fd5b5060005461015f906001600160a01b031681565b6040516001600160a01b0390911681526020015b60405180910390f35b34801561018857600080fd5b5061019c6101973660046116e0565b610358565b005b3480156101aa57600080fd5b5061019c6101b9366004611740565b610589565b3480156101ca57600080fd5b506101d460025481565b604051908152602001610173565b3480156101ee57600080fd5b5061021d6101fd36600461175d565b600860209081526000928352604080842090915290825290205460ff1681565b6040519015158152602001610173565b34801561023957600080fd5b5061019c610248366004611789565b6105c5565b34801561025957600080fd5b5061021d610268366004611740565b60076020526000908152604090205460ff1681565b34801561028957600080fd5b506101d460045481565b34801561029f57600080fd5b506102b36102ae366004611789565b610995565b60405161017391906117da565b3480156102cc57600080fd5b5061019c6102db366004611789565b610afe565b3480156102ec57600080fd5b506102f5611010565b604051610173919061189d565b34801561030e57600080fd5b5061021d61031d366004611740565b611072565b34801561032e57600080fd5b5060095461015f906001600160a01b031681565b34801561034e57600080fd5b506101d460035481565b3360009081526007602052604090205460ff166103905760405162461bcd60e51b8152600401610387906118ea565b60405180910390fd5b60058160ff16106103d65760405162461bcd60e51b815260206004820152601060248201526f24b73b30b634b21039b2b632b1ba37b960811b6044820152606401610387565b60006103e061109f565b905060058260ff16101561043a576001600160a01b03851661043a5760405162461bcd60e51b815260206004820152601360248201527220b9339418149034b9903d32b9379030b2323960691b6044820152606401610387565b6000818152600660205260409020848155600180820180546001600160a01b0319166001600160a01b0389161790556004909101805460ff1916828002179055508160ff166004811115610490576104906117a2565b600082815260066020526040902060049081018054909161ff0019909116906101009084908111156104c4576104c46117a2565b0217905550600081815260066020818152604080842092830185905567ffffffffffffffff621275004201166005840155610e1061ffff881602600284015560039092018054600181810183559185528285200180546001600160a01b0319163390811790915580855260088352838520868652835293839020805460ff19169091179055815184815290810183905281517ffda9ac54069bb066debdc05afc39e260f270fcfb0ce45a42e94b6615a4514fbc929181900390910190a1505050505050565b6105916110bd565b6105a3816001600160a01b031661113c565b600980546001600160a01b0319166001600160a01b0392909216919091179055565b3360009081526007602052604090205460ff166105f45760405162461bcd60e51b8152600401610387906118ea565b8080600003610619576040516364b4f07960e11b815260048101829052602401610387565b33600081815260086020908152604080832086845290915290205483919060ff16156106585760405163585eb56560e11b815260040160405180910390fd5b60008481526006602090815260408083208151610100810183528154815260018201546001600160a01b0316818501526002820154818401526003820180548451818702810187019095528085529194929360608601939092908301828280156106eb57602002820191906000526020600020905b81546001600160a01b031681526001909101906020018083116106cd575b505050918352505060048281015460209092019160ff1690811115610712576107126117a2565b6004811115610723576107236117a2565b81526020016004820160019054906101000a900460ff16600481111561074b5761074b6117a2565b600481111561075c5761075c6117a2565b81526020016005820154815260200160068201548152505090508060c001516107824290565b67ffffffffffffffff161180156107ae57506001816080015160048111156107ac576107ac6117a2565b145b156107d85760046080820181905260008681526006602052604090208101805460ff191690911790555b6004816080015160048111156107f0576107f06117a2565b146109645761082f81600160405180604001604052806016815260200175151c9e1b881b5d5cdd081899481a5b9a5d1a585d195960521b815250611192565b60608101515160025481106108795760405162461bcd60e51b815260206004820152601060248201526f5369676e65727320636f6d706c65746560801b6044820152606401610387565b60008681526006602090815260408083206003018054600180820183559185528385200180546001600160a01b03191633908117909155808552600884528285208b86529093529220805460ff19168317905560025490916108dc908490611926565b03610961576000878152600660205260409020600401805460ff191660021790554261090b9062127500611939565b67ffffffffffffffff166006600089815260200190815260200160002060050181905550826040015161093b4290565b67ffffffffffffffff160160066000898152602001908152602001600020600201819055505b50505b506001600160a01b0316600090815260086020908152604080832093835292905220805460ff191660011790555050565b6109dc604080516101008101825260008082526020820181905291810182905260608082015290608082019081526020016000815260200160008152602001600081525090565b6000828152600660209081526040918290208251610100810184528154815260018201546001600160a01b0316818401526002820154818501526003820180548551818602810186019096528086529194929360608601939290830182828015610a6f57602002820191906000526020600020905b81546001600160a01b03168152600190910190602001808311610a51575b505050918352505060048281015460209092019160ff1690811115610a9657610a966117a2565b6004811115610aa757610aa76117a2565b81526020016004820160019054906101000a900460ff166004811115610acf57610acf6117a2565b6004811115610ae057610ae06117a2565b81526005820154602082015260069091015460409091015292915050565b3360009081526007602052604090205460ff16610b2d5760405162461bcd60e51b8152600401610387906118ea565b8080600003610b52576040516364b4f07960e11b815260048101829052602401610387565b610b5a6111e0565b60008281526006602090815260408083208151610100810183528154815260018201546001600160a01b031681850152600282015481840152600382018054845181870281018701909552808552919492936060860193909290830182828015610bed57602002820191906000526020600020905b81546001600160a01b03168152600190910190602001808311610bcf575b505050918352505060048281015460209092019160ff1690811115610c1457610c146117a2565b6004811115610c2557610c256117a2565b81526020016004820160019054906101000a900460ff166004811115610c4d57610c4d6117a2565b6004811115610c5e57610c5e6117a2565b81526020016005820154815260200160068201548152505090508060c00151610c844290565b67ffffffffffffffff16118015610cb05750600281608001516004811115610cae57610cae6117a2565b145b15610cda5760046080820181905260008481526006602052604090208101805460ff191690911790555b600481608001516004811115610cf257610cf26117a2565b1461100257610d3181600260405180604001604052806016815260200175151c9e1b881b5d5cdd081899481a5b9a5d1a585d195960521b815250611192565b60408101514267ffffffffffffffff161015610d60576040516306df203960e41b815260040160405180910390fd5b60008381526006602052604081206004908101805460ff1916600317905560a083015190811115610d9357610d936117a2565b03610dd157600954610dad906001600160a01b031661113c565b60208101518151600954610dcc926001600160a01b039091169161120a565b611002565b60018160a001516004811115610de957610de96117a2565b03610ec757610e0481602001516001600160a01b031661113c565b8051303190811015610e2c57604051639266535160e01b815260048101829052602401610387565b602082015182516040516000926001600160a01b031691908381818185875af1925050503d8060008114610e7c576040519150601f19603f3d011682016040523d82523d6000602084013e610e81565b606091505b5050905080610ec05760405162461bcd60e51b815260206004820152600b60248201526a151c9e1b8819985a5b195960aa1b6044820152606401610387565b5050611002565b60028160a001516004811115610edf57610edf6117a2565b03610f0757610efa81602001516001600160a01b031661113c565b610dcc8160200151611261565b60038160a001516004811115610f1f57610f1f6117a2565b03610f4d57610f3a81602001516001600160a01b031661113c565b610dcc8160200151826060015185611341565b60048160a001516004811115610f6557610f656117a2565b036110025760035481511115610ffc5760405162461bcd60e51b815260206004820152605060248201527f6177616974207369676e5472616e73616374696f6e287b7369676e65723a206460448201527f65706c6f7965722c207265717565737449643a2069642c20636f6e747261637460648201526f3a206469737472696275746f727d293b60801b608482015260a401610387565b80516002555b5061100c60018055565b5050565b6060600580548060200260200160405190810160405280929190818152602001828054801561106857602002820191906000526020600020905b81546001600160a01b0316815260019091019060200180831161104a575b5050505050905090565b600061107c6110bd565b600080546001600160a01b0319166001600160a01b038416179055506001919050565b60048054600091826110b083611961565b9190505550600454905090565b6000546001600160a01b0316806110fe576110fe6040518060400160405280600f81526020016e4d616e61676572206973207a65726f60881b81525061136c565b6111073361138e565b611139576111396040518060400160405280600d81526020016c1058d8d95cdcc819195b9a5959609a1b81525061136c565b50565b6001600160a01b0381166111395760405162461bcd60e51b815260206004820152601b60248201527f4c69623a20546172676574206973207a65726f206164647265737300000000006044820152606401610387565b8160048111156111a4576111a46117a2565b836080015160048111156111ba576111ba6117a2565b1481906111da5760405162461bcd60e51b8152600401610387919061199e565b50505050565b60026001540361120357604051633ee5aeb560e01b815260040160405180910390fd5b6002600155565b604080516001600160a01b038416602482015260448082018490528251808303909101815260649091019091526020810180516001600160e01b031663a9059cbb60e01b17905261125c908490611403565b505050565b6001600160a01b03811660009081526007602052604090205460ff16156112c25760405162461bcd60e51b81526020600482015260156024820152741058d8dbdd5b9d08185b1c9958591e48195e1a5cdd605a1b6044820152606401610387565b6001600160a01b0381166000818152600760205260408120805460ff1916600190811790915560058054808301825592527f036b6384b5eca791c62761152d0c79bb0604c104a5fb6f4eb0703f3154bb3db090910180546001600160a01b031916909217909155600380548201905560025411611139576111396119d1565b6001600160a01b0383166000908152600760205260409020805460ff1916905561125c828483611498565b805115611139578060405163cc86106360e01b8152600401610387919061199e565b60008054604051633f784de560e11b81526001600160a01b03848116600483015290911690637ef09bca90602401602060405180830381865afa1580156113d9573d6000803e3d6000fd5b505050506040513d601f19601f820116820180604052508101906113fd91906119e7565b92915050565b60006114186001600160a01b03841683611593565b905080516000148061143957508080602001905181019061143991906119e7565b61125c5760405162461bcd60e51b815260206004820152602a60248201527f5361666545524332303a204552433230206f7065726174696f6e20646964206e6044820152691bdd081cdd58d8d9595960b21b6064820152608401610387565b60005b83518110156111da5760008482815181106114b8576114b8611a09565b60200260200101519050836001600160a01b0316816001600160a01b03160361158a576002600354111561157157600380549060006114f683611a1f565b9091555050600083815260066020526040812060030180548490811061151e5761151e611a09565b9060005260206000200160006101000a8154816001600160a01b0302191690836001600160a01b0316021790555060028054111561156c576002805490600061156683611a1f565b91905055505b61158a565b604051637e49101560e11b815260040160405180910390fd5b5060010161149b565b60606115a1838360006115a8565b9392505050565b606030318211156115ce5760405163cd78605960e01b8152306004820152602401610387565b600080856001600160a01b031684866040516115ea9190611a36565b60006040518083038185875af1925050503d8060008114611627576040519150601f19603f3d011682016040523d82523d6000602084013e61162c565b606091505b509150915061163c868383611646565b9695505050505050565b60608261165b57611656826116a2565b6115a1565b815115801561167257506001600160a01b0384163b155b1561169b57604051639996b31560e01b81526001600160a01b0385166004820152602401610387565b50806115a1565b8051156116b25780518082602001fd5b604051630a12f52160e11b815260040160405180910390fd5b6001600160a01b038116811461113957600080fd5b600080600080608085870312156116f657600080fd5b8435611701816116cb565b935060208501359250604085013561ffff8116811461171f57600080fd5b9150606085013560ff8116811461173557600080fd5b939692955090935050565b60006020828403121561175257600080fd5b81356115a1816116cb565b6000806040838503121561177057600080fd5b823561177b816116cb565b946020939093013593505050565b60006020828403121561179b57600080fd5b5035919050565b634e487b7160e01b600052602160045260246000fd5b600581106117d657634e487b7160e01b600052602160045260246000fd5b9052565b6000602080835261012083018451828501528185015160018060a01b0380821660408701526040870151606087015260608701519150610100806080880152838351808652610140890191508685019550600094505b8085101561185257855184168252948601946001949094019390860190611830565b506080890151955061186760a08901876117b8565b60a0890151955061187b60c08901876117b8565b60c089015160e089015260e08901518289015280965050505050505092915050565b6020808252825182820181905260009190848201906040850190845b818110156118de5783516001600160a01b0316835292840192918401916001016118b9565b50909695505050505050565b6020808252600c908201526b2737ba10309039b4b3b732b960a11b604082015260600190565b634e487b7160e01b600052601160045260246000fd5b808201808211156113fd576113fd611910565b67ffffffffffffffff81811683821601908082111561195a5761195a611910565b5092915050565b60006001820161197357611973611910565b5060010190565b60005b8381101561199557818101518382015260200161197d565b50506000910152565b60208152600082518060208401526119bd81604085016020870161197a565b601f01601f19169190910160400192915050565b634e487b7160e01b600052600160045260246000fd5b6000602082840312156119f957600080fd5b815180151581146115a157600080fd5b634e487b7160e01b600052603260045260246000fd5b600081611a2e57611a2e611910565b506000190190565b60008251611a4881846020870161197a565b919091019291505056fea264697066735822122076b4dac24d6ee3a33f87247db03d858da156c3abf090ec3964bb9d24e677cb7864736f6c63430008180033",
  "devdoc": {
    "details": "Total supply is minted to this contract and is controlled by a set of addresses  acting hence TokenDistributor is multisig in nature.  To transfer any amount of token out of this contract, the following steps must be peformed:  - INITIATE TRXN: A request to transfer an amount must be made. An event is emitted       to extract the request Id. Request IDs are unique to another.  - SIGN TRXN: The predefined signers addresses will have to sign the transaction with       the given request Id. The number of signers needed to validate execution must match       `quorum` declared in the state variable.  - EXECUTE TRXN: Transactions can only be executed if the delay period has passed and are       are already signed.  Same functionalities can be used to add and remove a new signer, and change quorum. ",
    "errors": {
      "AddressEmptyCode(address)": [
        {
          "details": "There's no code at `target` (it is not a contract)."
        }
      ],
      "AddressInsufficientBalance(address)": [
        {
          "details": "The ETH balance of the account is not enough to perform the operation."
        }
      ],
      "FailedInnerCall()": [
        {
          "details": "A call to an address target failed. The target may have reverted."
        }
      ],
      "ReentrancyGuardReentrantCall()": [
        {
          "details": "Unauthorized reentrant call."
        }
      ]
    },
    "kind": "dev",
    "methods": {
      "executeTransaction(uint256)": {
        "details": "Executes pending transaction.",
        "params": {
          "reqId": ": Request Id Transaction must be pending in status. When moved to executed,  they have no way to be restored. Only signer accounts can call."
        }
      },
      "getTransactionRequest(uint256)": {
        "details": "Return request struct at the reqId ref."
      },
      "proposeTransaction(address,uint256,uint16,uint8)": {
        "details": "Initiate transaction.  This function can be invoked only by the authorized accounts as signers. The `_type` parameter is used to select the type of transaction  the caller want to perform - a more reason we restrict the `_type`  input to number between 0 and 5 otherwise we get out of bound error since enums work similar to arrays.",
        "params": {
          "_amount": ":         Amount to send as value (in token).",
          "_delayInHours": ":   If this flag is set to value greater than 0, execution of the proposed transaction will not succeed unless the  delay time has passed.",
          "_recipient": ":     An address to act as the beneficiary of this  transaction.",
          "_type": ":  The type of transaction to perform. Transction could be any of the following as set in the `Type` enum: ERC20 (0): Transfer ERC20 token. NATIVE (1): Transfer network asset such as ETH. ADDSIGNER (2): Add more signers to the list. REMOVESIGNER (3): Deactivate the `_recipient` address from as a signers.  SETQUORUM (4): Increase or decrease the number of signatories needed to execute a transaction. Note: By default, the caller is deemed to have signed the transaction."
        }
      },
      "setRoleManager(address)": {
        "params": {
          "newManager": ": New manager address"
        }
      },
      "signTransaction(uint256)": {
        "details": "Sign transactions",
        "params": {
          "reqId": ": Request Id. Note: Caller must be one of the signers"
        }
      }
    },
    "stateVariables": {
      "requestIDs": {
        "details": "Unique order ID mapped to each transfer request. Note: Two requests can not have same order ID. "
      },
      "requests": {
        "details": "Transfer orders. Mapping of Ids to Request Note: We assigned slot `0` to add and remove signer. i.e requests[0]."
      },
      "signed": {
        "details": "Signed requests Mapping of signer to request id to bool"
      },
      "signers": {
        "details": "Signers Mapping of address to bool"
      }
    },
    "title": "InitialTokenReceiver",
    "version": 1
  },
  "userdoc": {
    "kind": "user",
    "methods": {
      "quorum()": {
        "notice": "Number of signers require to execute a transfer"
      },
      "setRoleManager(address)": {
        "notice": "Set Role manager"
      }
    },
    "version": 1
  },
  "storageLayout": {
    "storage": [
      {
        "astId": 4832,
        "contract": "contracts/standalone/TokenDistributor.sol:TokenDistributor",
        "label": "roleManager",
        "offset": 0,
        "slot": "0",
        "type": "t_contract(IRoleBase)1920"
      },
      {
        "astId": 1131,
        "contract": "contracts/standalone/TokenDistributor.sol:TokenDistributor",
        "label": "_status",
        "offset": 0,
        "slot": "1",
        "type": "t_uint256"
      },
      {
        "astId": 11663,
        "contract": "contracts/standalone/TokenDistributor.sol:TokenDistributor",
        "label": "quorum",
        "offset": 0,
        "slot": "2",
        "type": "t_uint256"
      },
      {
        "astId": 11665,
        "contract": "contracts/standalone/TokenDistributor.sol:TokenDistributor",
        "label": "validExecutors",
        "offset": 0,
        "slot": "3",
        "type": "t_uint256"
      },
      {
        "astId": 11668,
        "contract": "contracts/standalone/TokenDistributor.sol:TokenDistributor",
        "label": "requestIDs",
        "offset": 0,
        "slot": "4",
        "type": "t_uint256"
      },
      {
        "astId": 11691,
        "contract": "contracts/standalone/TokenDistributor.sol:TokenDistributor",
        "label": "executors",
        "offset": 0,
        "slot": "5",
        "type": "t_array(t_address)dyn_storage"
      },
      {
        "astId": 11697,
        "contract": "contracts/standalone/TokenDistributor.sol:TokenDistributor",
        "label": "requests",
        "offset": 0,
        "slot": "6",
        "type": "t_mapping(t_uint256,t_struct(TransactionRequest)11688_storage)"
      },
      {
        "astId": 11702,
        "contract": "contracts/standalone/TokenDistributor.sol:TokenDistributor",
        "label": "signers",
        "offset": 0,
        "slot": "7",
        "type": "t_mapping(t_address,t_bool)"
      },
      {
        "astId": 11709,
        "contract": "contracts/standalone/TokenDistributor.sol:TokenDistributor",
        "label": "signed",
        "offset": 0,
        "slot": "8",
        "type": "t_mapping(t_address,t_mapping(t_uint256,t_bool))"
      },
      {
        "astId": 11712,
        "contract": "contracts/standalone/TokenDistributor.sol:TokenDistributor",
        "label": "token",
        "offset": 0,
        "slot": "9",
        "type": "t_contract(IERC20)1762"
      }
    ],
    "types": {
      "t_address": {
        "encoding": "inplace",
        "label": "address",
        "numberOfBytes": "20"
      },
      "t_array(t_address)dyn_storage": {
        "base": "t_address",
        "encoding": "dynamic_array",
        "label": "address[]",
        "numberOfBytes": "32"
      },
      "t_bool": {
        "encoding": "inplace",
        "label": "bool",
        "numberOfBytes": "1"
      },
      "t_contract(IERC20)1762": {
        "encoding": "inplace",
        "label": "contract IERC20",
        "numberOfBytes": "20"
      },
      "t_contract(IRoleBase)1920": {
        "encoding": "inplace",
        "label": "contract IRoleBase",
        "numberOfBytes": "20"
      },
      "t_enum(Status)11653": {
        "encoding": "inplace",
        "label": "enum TokenDistributor.Status",
        "numberOfBytes": "1"
      },
      "t_enum(Type)11660": {
        "encoding": "inplace",
        "label": "enum TokenDistributor.Type",
        "numberOfBytes": "1"
      },
      "t_mapping(t_address,t_bool)": {
        "encoding": "mapping",
        "key": "t_address",
        "label": "mapping(address => bool)",
        "numberOfBytes": "32",
        "value": "t_bool"
      },
      "t_mapping(t_address,t_mapping(t_uint256,t_bool))": {
        "encoding": "mapping",
        "key": "t_address",
        "label": "mapping(address => mapping(uint256 => bool))",
        "numberOfBytes": "32",
        "value": "t_mapping(t_uint256,t_bool)"
      },
      "t_mapping(t_uint256,t_bool)": {
        "encoding": "mapping",
        "key": "t_uint256",
        "label": "mapping(uint256 => bool)",
        "numberOfBytes": "32",
        "value": "t_bool"
      },
      "t_mapping(t_uint256,t_struct(TransactionRequest)11688_storage)": {
        "encoding": "mapping",
        "key": "t_uint256",
        "label": "mapping(uint256 => struct TokenDistributor.TransactionRequest)",
        "numberOfBytes": "32",
        "value": "t_struct(TransactionRequest)11688_storage"
      },
      "t_struct(TransactionRequest)11688_storage": {
        "encoding": "inplace",
        "label": "struct TokenDistributor.TransactionRequest",
        "members": [
          {
            "astId": 11670,
            "contract": "contracts/standalone/TokenDistributor.sol:TokenDistributor",
            "label": "amount",
            "offset": 0,
            "slot": "0",
            "type": "t_uint256"
          },
          {
            "astId": 11672,
            "contract": "contracts/standalone/TokenDistributor.sol:TokenDistributor",
            "label": "recipient",
            "offset": 0,
            "slot": "1",
            "type": "t_address"
          },
          {
            "astId": 11674,
            "contract": "contracts/standalone/TokenDistributor.sol:TokenDistributor",
            "label": "delay",
            "offset": 0,
            "slot": "2",
            "type": "t_uint256"
          },
          {
            "astId": 11677,
            "contract": "contracts/standalone/TokenDistributor.sol:TokenDistributor",
            "label": "executors",
            "offset": 0,
            "slot": "3",
            "type": "t_array(t_address)dyn_storage"
          },
          {
            "astId": 11680,
            "contract": "contracts/standalone/TokenDistributor.sol:TokenDistributor",
            "label": "status",
            "offset": 0,
            "slot": "4",
            "type": "t_enum(Status)11653"
          },
          {
            "astId": 11683,
            "contract": "contracts/standalone/TokenDistributor.sol:TokenDistributor",
            "label": "txType",
            "offset": 1,
            "slot": "4",
            "type": "t_enum(Type)11660"
          },
          {
            "astId": 11685,
            "contract": "contracts/standalone/TokenDistributor.sol:TokenDistributor",
            "label": "expirationTime",
            "offset": 0,
            "slot": "5",
            "type": "t_uint256"
          },
          {
            "astId": 11687,
            "contract": "contracts/standalone/TokenDistributor.sol:TokenDistributor",
            "label": "id",
            "offset": 0,
            "slot": "6",
            "type": "t_uint256"
          }
        ],
        "numberOfBytes": "224"
      },
      "t_uint256": {
        "encoding": "inplace",
        "label": "uint256",
        "numberOfBytes": "32"
      }
    }
  }
}