{
  "address": "0xc6C6984F09c2f1815C23F8F3971A6d1945AE610C",
  "abi": [
    {
      "inputs": [
        {
          "internalType": "contract IOwnerShip",
          "name": "_ownershipManager",
          "type": "address"
        },
        {
          "internalType": "address[]",
          "name": "_signers",
          "type": "address[]"
        },
        {
          "internalType": "uint8",
          "name": "_quorum",
          "type": "uint8"
        }
      ],
      "stateMutability": "nonpayable",
      "type": "constructor"
    },
    {
      "inputs": [
        {
          "internalType": "address",
          "name": "target",
          "type": "address"
        }
      ],
      "name": "AddressEmptyCode",
      "type": "error"
    },
    {
      "inputs": [
        {
          "internalType": "address",
          "name": "account",
          "type": "address"
        }
      ],
      "name": "AddressInsufficientBalance",
      "type": "error"
    },
    {
      "inputs": [],
      "name": "AlreadySigned",
      "type": "error"
    },
    {
      "inputs": [],
      "name": "FailedInnerCall",
      "type": "error"
    },
    {
      "inputs": [
        {
          "internalType": "uint256",
          "name": "",
          "type": "uint256"
        }
      ],
      "name": "InsufficientBalance",
      "type": "error"
    },
    {
      "inputs": [
        {
          "internalType": "uint256",
          "name": "",
          "type": "uint256"
        }
      ],
      "name": "InvalidRequestId",
      "type": "error"
    },
    {
      "inputs": [],
      "name": "ManagerAddressIsZero",
      "type": "error"
    },
    {
      "inputs": [],
      "name": "NotPermittedToCall",
      "type": "error"
    },
    {
      "inputs": [],
      "name": "Pending",
      "type": "error"
    },
    {
      "inputs": [],
      "name": "ReentrancyGuardReentrantCall",
      "type": "error"
    },
    {
      "anonymous": false,
      "inputs": [
        {
          "indexed": false,
          "internalType": "uint256",
          "name": "reqId",
          "type": "uint256"
        },
        {
          "indexed": false,
          "internalType": "address",
          "name": "from",
          "type": "address"
        }
      ],
      "name": "Requested",
      "type": "event"
    },
    {
      "anonymous": false,
      "inputs": [
        {
          "indexed": false,
          "internalType": "uint256",
          "name": "reqId",
          "type": "uint256"
        },
        {
          "indexed": false,
          "internalType": "address",
          "name": "from",
          "type": "address"
        }
      ],
      "name": "Signer",
      "type": "event"
    },
    {
      "inputs": [],
      "name": "delay",
      "outputs": [
        {
          "internalType": "uint256",
          "name": "",
          "type": "uint256"
        }
      ],
      "stateMutability": "view",
      "type": "function"
    },
    {
      "inputs": [
        {
          "internalType": "uint256",
          "name": "reqId",
          "type": "uint256"
        }
      ],
      "name": "executeTransaction",
      "outputs": [],
      "stateMutability": "nonpayable",
      "type": "function"
    },
    {
      "inputs": [],
      "name": "getExecutors",
      "outputs": [
        {
          "internalType": "address[]",
          "name": "",
          "type": "address[]"
        }
      ],
      "stateMutability": "view",
      "type": "function"
    },
    {
      "inputs": [
        {
          "internalType": "uint256",
          "name": "reqId",
          "type": "uint256"
        }
      ],
      "name": "getTransactionRequest",
      "outputs": [
        {
          "components": [
            {
              "internalType": "uint256",
              "name": "amount",
              "type": "uint256"
            },
            {
              "internalType": "address",
              "name": "recipient",
              "type": "address"
            },
            {
              "internalType": "uint256",
              "name": "delay",
              "type": "uint256"
            },
            {
              "internalType": "address[]",
              "name": "executors",
              "type": "address[]"
            },
            {
              "internalType": "enum TokenDistributor.Status",
              "name": "status",
              "type": "uint8"
            },
            {
              "internalType": "enum TokenDistributor.Type",
              "name": "txType",
              "type": "uint8"
            }
          ],
          "internalType": "struct TokenDistributor.Request",
          "name": "req",
          "type": "tuple"
        }
      ],
      "stateMutability": "view",
      "type": "function"
    },
    {
      "inputs": [
        {
          "internalType": "address",
          "name": "_recipient",
          "type": "address"
        },
        {
          "internalType": "uint256",
          "name": "_amount",
          "type": "uint256"
        },
        {
          "internalType": "uint16",
          "name": "_delayInHours",
          "type": "uint16"
        },
        {
          "internalType": "uint8",
          "name": "_type",
          "type": "uint8"
        }
      ],
      "name": "initiateTransaction",
      "outputs": [],
      "stateMutability": "nonpayable",
      "type": "function"
    },
    {
      "inputs": [],
      "name": "ownershipManager",
      "outputs": [
        {
          "internalType": "contract IOwnerShip",
          "name": "",
          "type": "address"
        }
      ],
      "stateMutability": "view",
      "type": "function"
    },
    {
      "inputs": [],
      "name": "quorum",
      "outputs": [
        {
          "internalType": "uint256",
          "name": "",
          "type": "uint256"
        }
      ],
      "stateMutability": "view",
      "type": "function"
    },
    {
      "inputs": [
        {
          "internalType": "address",
          "name": "newManager",
          "type": "address"
        }
      ],
      "name": "setOwnershipManager",
      "outputs": [
        {
          "internalType": "bool",
          "name": "",
          "type": "bool"
        }
      ],
      "stateMutability": "nonpayable",
      "type": "function"
    },
    {
      "inputs": [
        {
          "internalType": "contract IERC20",
          "name": "newToken",
          "type": "address"
        }
      ],
      "name": "setToken",
      "outputs": [],
      "stateMutability": "nonpayable",
      "type": "function"
    },
    {
      "inputs": [
        {
          "internalType": "uint256",
          "name": "reqId",
          "type": "uint256"
        }
      ],
      "name": "signTransaction",
      "outputs": [],
      "stateMutability": "nonpayable",
      "type": "function"
    },
    {
      "inputs": [],
      "name": "token",
      "outputs": [
        {
          "internalType": "contract IERC20",
          "name": "",
          "type": "address"
        }
      ],
      "stateMutability": "view",
      "type": "function"
    },
    {
      "stateMutability": "payable",
      "type": "receive"
    }
  ],
  "transactionHash": "0xc62798a5466c9d2f2bd3be0eb4e842224fce23c61f99d37701a905c597e61e49",
  "args": [
    "0x85f9819923B0C3B38516dbBb0156B93811e42DcE",
    [
      "0x16101742676EC066090da2cCf7e7380f917F9f0D",
      "0x85AbBd0605F9C725a1af6CA4Fb1fD4dC14dBD669",
      "0xef55Bc253297392F1a2295f5cE2478F401368c27",
      "0xD7c271d20c9E323336bFC843AEb8deC23B346352"
    ],
    3
  ],
  "numDeployments": 1,
  "solcInputHash": "f780c2f11c4ccd0f85c921954ca3f88d",
  "bytecode": "0x60806040523480156200001157600080fd5b5060405162001a8e38038062001a8e833981016040819052620000349162000183565b600080546001600160a01b0319166001600160a01b03851617905560018055815160ff82166002558015620000a75760005b81811015620000a5576200009c84828151811062000088576200008862000280565b6020026020010151620000b160201b60201c565b60010162000066565b505b50505050620002af565b6001600160a01b03166000818152600760205260408120805460ff191660019081179091556005805491820181559091527f036b6384b5eca791c62761152d0c79bb0604c104a5fb6f4eb0703f3154bb3db00180546001600160a01b0319169091179055565b6001600160a01b03811681146200012d57600080fd5b50565b7f4e487b7100000000000000000000000000000000000000000000000000000000600052604160045260246000fd5b80516200016c8162000117565b919050565b805160ff811681146200016c57600080fd5b6000806000606084860312156200019957600080fd5b8351620001a68162000117565b602085810151919450906001600160401b0380821115620001c657600080fd5b818701915087601f830112620001db57600080fd5b815181811115620001f057620001f062000130565b8060051b604051601f19603f8301168101818110858211171562000218576200021862000130565b60405291825284820192508381018501918a8311156200023757600080fd5b938501935b82851015620002605762000250856200015f565b845293850193928501926200023c565b809750505050505050620002776040850162000171565b90509250925092565b7f4e487b7100000000000000000000000000000000000000000000000000000000600052603260045260246000fd5b6117cf80620002bf6000396000f3fe6080604052600436106100a05760003560e01c8063b88a391511610064578063b88a39151461015d578063ca93ed7814610195578063ee22610b146101c2578063ef09e78f146101e2578063f6a3a5e614610204578063fc0c546a1461022457600080fd5b8063144fa6d7146100ac5780631703a018146100ce5780635d9ec210146100f757806361737d62146101175780636a42b8f81461014757600080fd5b366100a757005b600080fd5b3480156100b857600080fd5b506100cc6100c73660046114d6565b610244565b005b3480156100da57600080fd5b506100e460025481565b6040519081526020015b60405180910390f35b34801561010357600080fd5b506100cc6101123660046114f3565b610338565b34801561012357600080fd5b506101376101323660046114d6565b610619565b60405190151581526020016100ee565b34801561015357600080fd5b506100e460045481565b34801561016957600080fd5b5060005461017d906001600160a01b031681565b6040516001600160a01b0390911681526020016100ee565b3480156101a157600080fd5b506101b56101b03660046114f3565b6106fd565b6040516100ee9190611546565b3480156101ce57600080fd5b506100cc6101dd3660046114f3565b610840565b3480156101ee57600080fd5b506101f7610efd565b6040516100ee91906115ef565b34801561021057600080fd5b506100cc61021f36600461163c565b610f5f565b34801561023057600080fd5b5060095461017d906001600160a01b031681565b6000546001600160a01b03168061026e57604051637e70a7e360e01b815260040160405180910390fd5b6001600160a01b038116632f54bf6e336040516001600160e01b031960e084901b1681526001600160a01b039091166004820152602401602060405180830381865afa1580156102c2573d6000803e3d6000fd5b505050506040513d601f19601f820116820180604052508101906102e6919061169c565b610303576040516315ed864b60e21b815260040160405180910390fd5b610315826001600160a01b0316611178565b50600980546001600160a01b0319166001600160a01b0392909216919091179055565b3360009081526007602052604090205460ff166103705760405162461bcd60e51b8152600401610367906116be565b60405180910390fd5b8080600003610395576040516364b4f07960e11b815260048101829052602401610367565b33600081815260086020908152604080832086845290915290205483919060ff16156103d45760405163585eb56560e11b815260040160405180910390fd5b6000848152600660209081526040808320815160c0810183528154815260018201546001600160a01b03168185015260028201548184015260038201805484518187028101870190955280855291949293606086019390929083018282801561046657602002820191906000526020600020905b81546001600160a01b03168152600190910190602001808311610448575b5050509183525050600482015460209091019060ff16600381111561048d5761048d61150c565b600381111561049e5761049e61150c565b81526020016004820160019054906101000a900460ff1660048111156104c6576104c661150c565b60048111156104d7576104d761150c565b81525050905061051781600160405180604001604052806016815260200175151c9e1b881b5d5cdd081899481a5b9a5d1a585d195960521b8152506111d1565b60608101515160025481106105615760405162461bcd60e51b815260206004820152601060248201526f5369676e65727320636f6d706c65746560801b6044820152606401610367565b60008681526006602090815260408083206003018054600180820183559185528385200180546001600160a01b03191633908117909155808552600884528285208b86529093529220805460ff19168317905560025490916105c49084906116fa565b036105e6576000878152600660205260409020600401805460ff191660021790555b5050506001600160a01b0316600090815260086020908152604080832093835292905220805460ff191660011790555050565b600080546001600160a01b03168061064457604051637e70a7e360e01b815260040160405180910390fd5b6001600160a01b038116632f54bf6e336040516001600160e01b031960e084901b1681526001600160a01b039091166004820152602401602060405180830381865afa158015610698573d6000803e3d6000fd5b505050506040513d601f19601f820116820180604052508101906106bc919061169c565b6106d9576040516315ed864b60e21b815260040160405180910390fd5b600080546001600160a01b0319166001600160a01b03851617905550600192915050565b6107346040805160c08101825260008082526020820181905291810182905260608082015290608082019081526020016000905290565b600082815260066020908152604091829020825160c0810184528154815260018201546001600160a01b03168184015260028201548185015260038201805485518186028101860190965280865291949293606086019392908301828280156107c657602002820191906000526020600020905b81546001600160a01b031681526001909101906020018083116107a8575b5050509183525050600482015460209091019060ff1660038111156107ed576107ed61150c565b60038111156107fe576107fe61150c565b81526020016004820160019054906101000a900460ff1660048111156108265761082661150c565b60048111156108375761083761150c565b90525092915050565b3360009081526007602052604090205460ff1661086f5760405162461bcd60e51b8152600401610367906116be565b8080600003610894576040516364b4f07960e11b815260048101829052602401610367565b61089c61121f565b6000828152600660209081526040808320815160c0810183528154815260018201546001600160a01b03168185015260028201548184015260038201805484518187028101870190955280855291949293606086019390929083018282801561092e57602002820191906000526020600020905b81546001600160a01b03168152600190910190602001808311610910575b5050509183525050600482015460209091019060ff1660038111156109555761095561150c565b60038111156109665761096661150c565b81526020016004820160019054906101000a900460ff16600481111561098e5761098e61150c565b600481111561099f5761099f61150c565b8152505090506109df81600260405180604001604052806016815260200175151c9e1b881b5d5cdd081899481a5b9a5d1a585d195960521b8152506111d1565b60408101514267ffffffffffffffff161015610a0e576040516306df203960e41b815260040160405180910390fd5b60008381526006602052604081206004908101805460ff1916600317905560a083015190811115610a4157610a4161150c565b03610a7f57600954610a5b906001600160a01b0316611178565b60208101518151600954610a7a926001600160a01b0390911691611249565b610eef565b60018160a001516004811115610a9757610a9761150c565b03610b5f578051303190811015610ac457604051639266535160e01b815260048101829052602401610367565b602082015182516040516000926001600160a01b031691908381818185875af1925050503d8060008114610b14576040519150601f19603f3d011682016040523d82523d6000602084013e610b19565b606091505b5050905080610b585760405162461bcd60e51b815260206004820152600b60248201526a151c9e1b8819985a5b195960aa1b6044820152606401610367565b5050610eef565b60028160a001516004811115610b7757610b7761150c565b03610d3857600083815260066020908152604091829020825160c0810184528154815260018201546001600160a01b0316818401526002820154818501526003820180548551818602810186019096528086529194929360608601939290830182828015610c0e57602002820191906000526020600020905b81546001600160a01b03168152600190910190602001808311610bf0575b5050509183525050600482015460209091019060ff166003811115610c3557610c3561150c565b6003811115610c4657610c4661150c565b81526020016004820160019054906101000a900460ff166004811115610c6e57610c6e61150c565b6004811115610c7f57610c7f61150c565b90525060008481526006602052604081208181556001810180546001600160a01b031916905560028101829055919250610cbc600383018261148f565b50600401805461ffff191690556020810151610a7a906001600160a01b03166000818152600760205260408120805460ff191660019081179091556005805491820181559091527f036b6384b5eca791c62761152d0c79bb0604c104a5fb6f4eb0703f3154bb3db00180546001600160a01b0319169091179055565b60038160a001516004811115610d5057610d5061150c565b03610ecc57600083815260066020908152604091829020825160c0810184528154815260018201546001600160a01b0316818401526002820154818501526003820180548551818602810186019096528086529194929360608601939290830182828015610de757602002820191906000526020600020905b81546001600160a01b03168152600190910190602001808311610dc9575b5050509183525050600482015460209091019060ff166003811115610e0e57610e0e61150c565b6003811115610e1f57610e1f61150c565b81526020016004820160019054906101000a900460ff166004811115610e4757610e4761150c565b6004811115610e5857610e5861150c565b90525060008481526006602052604081208181556001810180546001600160a01b031916905560028101829055919250610e95600383018261148f565b50600401805461ffff191690556020810151610a7a906001600160a01b03166000908152600760205260409020805460ff19169055565b60048160a001516004811115610ee457610ee461150c565b03610eef5780516002555b50610ef960018055565b5050565b60606005805480602002602001604051908101604052809291908181526020018280548015610f5557602002820191906000526020600020905b81546001600160a01b03168152600190910190602001808311610f37575b5050505050905090565b3360009081526007602052604090205460ff16610f8e5760405162461bcd60e51b8152600401610367906116be565b60058160ff1610610fd45760405162461bcd60e51b815260206004820152601060248201526f24b73b30b634b21039b2b632b1ba37b960811b6044820152606401610367565b6000610fde6112a0565b905060048260ff16101561103b576001600160a01b03851661103b5760405162461bcd60e51b81526020600482015260166024820152752932b1b4b834b2b73a1034b9903d32b9379030b2323960511b6044820152606401610367565b6000818152600660205260409020848155600180820180546001600160a01b0319166001600160a01b0389161790556004909101805460ff1916828002179055508160ff1660048111156110915761109161150c565b600082815260066020526040902060049081018054909161ff0019909116906101009084908111156110c5576110c561150c565b0217905550600081815260066020908152604080832067ffffffffffffffff42610e10890261ffff16011660028201556003018054600180820183559185528385200180546001600160a01b0319163390811790915580855260088452828520868652845293829020805460ff19169091179055805184815291820183905280517ffda9ac54069bb066debdc05afc39e260f270fcfb0ce45a42e94b6615a4514fbc9281900390910190a1505050505050565b6001600160a01b0381166111ce5760405162461bcd60e51b815260206004820152601b60248201527f4c69623a20546172676574206973207a65726f206164647265737300000000006044820152606401610367565b50565b8160038111156111e3576111e361150c565b836080015160038111156111f9576111f961150c565b1481906112195760405162461bcd60e51b81526004016103679190611731565b50505050565b60026001540361124257604051633ee5aeb560e01b815260040160405180910390fd5b6002600155565b604080516001600160a01b038416602482015260448082018490528251808303909101815260649091019091526020810180516001600160e01b031663a9059cbb60e01b17905261129b9084906112be565b505050565b60038054600091826112b183611764565b9190505550600354905090565b60006112d36001600160a01b03841683611353565b90508051600014806112f45750808060200190518101906112f4919061169c565b61129b5760405162461bcd60e51b815260206004820152602a60248201527f5361666545524332303a204552433230206f7065726174696f6e20646964206e6044820152691bdd081cdd58d8d9595960b21b6064820152608401610367565b60606113618383600061136a565b90505b92915050565b606030318211156113905760405163cd78605960e01b8152306004820152602401610367565b600080856001600160a01b031684866040516113ac919061177d565b60006040518083038185875af1925050503d80600081146113e9576040519150601f19603f3d011682016040523d82523d6000602084013e6113ee565b606091505b50915091506113fe86838361140a565b925050505b9392505050565b60608261141f5761141a82611466565b611403565b815115801561143657506001600160a01b0384163b155b1561145f57604051639996b31560e01b81526001600160a01b0385166004820152602401610367565b5080611403565b8051156114765780518082602001fd5b604051630a12f52160e11b815260040160405180910390fd5b50805460008255906000526020600020908101906111ce91905b808211156114bd57600081556001016114a9565b5090565b6001600160a01b03811681146111ce57600080fd5b6000602082840312156114e857600080fd5b8135611403816114c1565b60006020828403121561150557600080fd5b5035919050565b634e487b7160e01b600052602160045260246000fd5b600481106115325761153261150c565b9052565b600581106115325761153261150c565b6020808252825182820152828101516001600160a01b0390811660408085019190915284015160608085019190915284015160c06080850152805160e08501819052600093929183019184916101008701905b808410156115bb57845183168252938501936001939093019290850190611599565b50608088015194506115d060a0880186611522565b60a088015194506115e460c0880186611536565b979650505050505050565b6020808252825182820181905260009190848201906040850190845b818110156116305783516001600160a01b03168352928401929184019160010161160b565b50909695505050505050565b6000806000806080858703121561165257600080fd5b843561165d816114c1565b935060208501359250604085013561ffff8116811461167b57600080fd5b9150606085013560ff8116811461169157600080fd5b939692955090935050565b6000602082840312156116ae57600080fd5b8151801515811461140357600080fd5b6020808252600c908201526b2737ba10309039b4b3b732b960a11b604082015260600190565b634e487b7160e01b600052601160045260246000fd5b80820180821115611364576113646116e4565b60005b83811015611728578181015183820152602001611710565b50506000910152565b602081526000825180602084015261175081604085016020870161170d565b601f01601f19169190910160400192915050565b600060018201611776576117766116e4565b5060010190565b6000825161178f81846020870161170d565b919091019291505056fea26469706673582212204775b8738b74388c86bda8fde06537906761d172b6137ca4dd90d09a03e70fd264736f6c63430008180033",
  "devdoc": {
    "details": "Total supply is minted to this contract and is controlled by a set of addresses  acting hence TokenDistributor is multisig in nature.  To transfer any amount of token out of this contract, the following steps must be peformed:  - INITIATE TRXN: A request to transfer an amount must be made. An event is emitted       to extract the request Id. Request IDs are unique to another.  - SIGN TRXN: The predefined signers addresses will have to sign the transaction with       the given request Id. The number of signers needed to validate execution must match       `quorum` declared in the state variable.  - EXECUTE TRXN: Transactions can only be executed if the delay period has passed and are       are already signed.  Same functionalities can be used to add and remove a new signer, and change quorum. ",
    "errors": {
      "AddressEmptyCode(address)": [
        {
          "details": "There's no code at `target` (it is not a contract)."
        }
      ],
      "AddressInsufficientBalance(address)": [
        {
          "details": "The ETH balance of the account is not enough to perform the operation."
        }
      ],
      "FailedInnerCall()": [
        {
          "details": "A call to an address target failed. The target may have reverted."
        }
      ],
      "ReentrancyGuardReentrantCall()": [
        {
          "details": "Unauthorized reentrant call."
        }
      ]
    },
    "kind": "dev",
    "methods": {
      "executeTransaction(uint256)": {
        "details": "Executes pending transaction.",
        "params": {
          "reqId": ": Request Id Transaction must be pending in status. When moved to executed,  they have no way to be restored. Only signer accounts can call."
        }
      },
      "getTransactionRequest(uint256)": {
        "details": "Return request struct at the reqId ref."
      },
      "initiateTransaction(address,uint256,uint16,uint8)": {
        "details": "Initiate transaction.  This function can be invoked only by the authorized accounts as signers. The `_type` parameter is used to select the type of transaction  the caller want to perform - a more reason we restrict the `_type`  input to number between 0 and 5 otherwise we get out of bound error since enums work similar to arrays.",
        "params": {
          "_amount": ":         Amount to send as value (in token).",
          "_delayInHours": ":   If this flag is set to value greater than 0, execution of the proposed transaction will not succeed unless the  delay time has passed.",
          "_recipient": ":     An address to act as the beneficiary of this  transaction.",
          "_type": ":  The type of transaction to perform. Transction could be any of the following as set in the `Type` enum: ERC20 (0): Transfer ERC20 token. NATIVE (1): Transfer network asset such as ETH. ADDSIGNER (2): Add more signers to the list. REMOVESIGNER (3): Deactivate the `_recipient` address from as a signers.  SETQUORUM (4): Increase or decrease the number of signatories needed to execute a transaction. Note: By default, the caller is deemed to have signed the transaction."
        }
      },
      "setOwnershipManager(address)": {
        "params": {
          "newManager": ": New manager address"
        }
      },
      "signTransaction(uint256)": {
        "details": "Sign transactions",
        "params": {
          "reqId": ": Request Id. Note: Caller must be one of the signers"
        }
      }
    },
    "stateVariables": {
      "requestIDs": {
        "details": "Unique order ID mapped to each transfer request. Note: Two requests can not have same order ID. "
      },
      "requests": {
        "details": "Transfer orders. Mapping of Ids to Request Note: We assigned slot `0` to add and remove signer. i.e requests[0]."
      },
      "signed": {
        "details": "Signed requests Mapping of signer to request id to bool"
      },
      "signers": {
        "details": "Signers Mapping of address to bool"
      }
    },
    "title": "InitialTokenReceiver",
    "version": 1
  },
  "userdoc": {
    "kind": "user",
    "methods": {
      "delay()": {
        "notice": "Delay timer. Transfers are executed after the expiration of this period."
      },
      "quorum()": {
        "notice": "Number of signers require to execute a transfer"
      },
      "setOwnershipManager(address)": {
        "notice": "Set Ownership manager"
      }
    },
    "version": 1
  },
  "storageLayout": {
    "storage": [
      {
        "astId": 2443,
        "contract": "contracts/implementations/token/TokenDistributor.sol:TokenDistributor",
        "label": "ownershipManager",
        "offset": 0,
        "slot": "0",
        "type": "t_contract(IOwnerShip)3542"
      },
      {
        "astId": 1085,
        "contract": "contracts/implementations/token/TokenDistributor.sol:TokenDistributor",
        "label": "_status",
        "offset": 0,
        "slot": "1",
        "type": "t_uint256"
      },
      {
        "astId": 6986,
        "contract": "contracts/implementations/token/TokenDistributor.sol:TokenDistributor",
        "label": "quorum",
        "offset": 0,
        "slot": "2",
        "type": "t_uint256"
      },
      {
        "astId": 6989,
        "contract": "contracts/implementations/token/TokenDistributor.sol:TokenDistributor",
        "label": "requestIDs",
        "offset": 0,
        "slot": "3",
        "type": "t_uint256"
      },
      {
        "astId": 6992,
        "contract": "contracts/implementations/token/TokenDistributor.sol:TokenDistributor",
        "label": "delay",
        "offset": 0,
        "slot": "4",
        "type": "t_uint256"
      },
      {
        "astId": 7011,
        "contract": "contracts/implementations/token/TokenDistributor.sol:TokenDistributor",
        "label": "executors",
        "offset": 0,
        "slot": "5",
        "type": "t_array(t_address)dyn_storage"
      },
      {
        "astId": 7017,
        "contract": "contracts/implementations/token/TokenDistributor.sol:TokenDistributor",
        "label": "requests",
        "offset": 0,
        "slot": "6",
        "type": "t_mapping(t_uint256,t_struct(Request)7008_storage)"
      },
      {
        "astId": 7022,
        "contract": "contracts/implementations/token/TokenDistributor.sol:TokenDistributor",
        "label": "signers",
        "offset": 0,
        "slot": "7",
        "type": "t_mapping(t_address,t_bool)"
      },
      {
        "astId": 7029,
        "contract": "contracts/implementations/token/TokenDistributor.sol:TokenDistributor",
        "label": "signed",
        "offset": 0,
        "slot": "8",
        "type": "t_mapping(t_address,t_mapping(t_uint256,t_bool))"
      },
      {
        "astId": 7032,
        "contract": "contracts/implementations/token/TokenDistributor.sol:TokenDistributor",
        "label": "token",
        "offset": 0,
        "slot": "9",
        "type": "t_contract(IERC20)3240"
      }
    ],
    "types": {
      "t_address": {
        "encoding": "inplace",
        "label": "address",
        "numberOfBytes": "20"
      },
      "t_array(t_address)dyn_storage": {
        "base": "t_address",
        "encoding": "dynamic_array",
        "label": "address[]",
        "numberOfBytes": "32"
      },
      "t_bool": {
        "encoding": "inplace",
        "label": "bool",
        "numberOfBytes": "1"
      },
      "t_contract(IERC20)3240": {
        "encoding": "inplace",
        "label": "contract IERC20",
        "numberOfBytes": "20"
      },
      "t_contract(IOwnerShip)3542": {
        "encoding": "inplace",
        "label": "contract IOwnerShip",
        "numberOfBytes": "20"
      },
      "t_enum(Status)6976": {
        "encoding": "inplace",
        "label": "enum TokenDistributor.Status",
        "numberOfBytes": "1"
      },
      "t_enum(Type)6983": {
        "encoding": "inplace",
        "label": "enum TokenDistributor.Type",
        "numberOfBytes": "1"
      },
      "t_mapping(t_address,t_bool)": {
        "encoding": "mapping",
        "key": "t_address",
        "label": "mapping(address => bool)",
        "numberOfBytes": "32",
        "value": "t_bool"
      },
      "t_mapping(t_address,t_mapping(t_uint256,t_bool))": {
        "encoding": "mapping",
        "key": "t_address",
        "label": "mapping(address => mapping(uint256 => bool))",
        "numberOfBytes": "32",
        "value": "t_mapping(t_uint256,t_bool)"
      },
      "t_mapping(t_uint256,t_bool)": {
        "encoding": "mapping",
        "key": "t_uint256",
        "label": "mapping(uint256 => bool)",
        "numberOfBytes": "32",
        "value": "t_bool"
      },
      "t_mapping(t_uint256,t_struct(Request)7008_storage)": {
        "encoding": "mapping",
        "key": "t_uint256",
        "label": "mapping(uint256 => struct TokenDistributor.Request)",
        "numberOfBytes": "32",
        "value": "t_struct(Request)7008_storage"
      },
      "t_struct(Request)7008_storage": {
        "encoding": "inplace",
        "label": "struct TokenDistributor.Request",
        "members": [
          {
            "astId": 6994,
            "contract": "contracts/implementations/token/TokenDistributor.sol:TokenDistributor",
            "label": "amount",
            "offset": 0,
            "slot": "0",
            "type": "t_uint256"
          },
          {
            "astId": 6996,
            "contract": "contracts/implementations/token/TokenDistributor.sol:TokenDistributor",
            "label": "recipient",
            "offset": 0,
            "slot": "1",
            "type": "t_address"
          },
          {
            "astId": 6998,
            "contract": "contracts/implementations/token/TokenDistributor.sol:TokenDistributor",
            "label": "delay",
            "offset": 0,
            "slot": "2",
            "type": "t_uint256"
          },
          {
            "astId": 7001,
            "contract": "contracts/implementations/token/TokenDistributor.sol:TokenDistributor",
            "label": "executors",
            "offset": 0,
            "slot": "3",
            "type": "t_array(t_address)dyn_storage"
          },
          {
            "astId": 7004,
            "contract": "contracts/implementations/token/TokenDistributor.sol:TokenDistributor",
            "label": "status",
            "offset": 0,
            "slot": "4",
            "type": "t_enum(Status)6976"
          },
          {
            "astId": 7007,
            "contract": "contracts/implementations/token/TokenDistributor.sol:TokenDistributor",
            "label": "txType",
            "offset": 1,
            "slot": "4",
            "type": "t_enum(Type)6983"
          }
        ],
        "numberOfBytes": "160"
      },
      "t_uint256": {
        "encoding": "inplace",
        "label": "uint256",
        "numberOfBytes": "32"
      }
    }
  }
}