{
  "address": "0x33976f7D860A399De49F454A094A42Fe9B456fb0",
  "abi": [
    {
      "inputs": [
        {
          "internalType": "contract IRoleBase",
          "name": "_roleManager",
          "type": "address"
        },
        {
          "internalType": "string",
          "name": "_name",
          "type": "string"
        },
        {
          "internalType": "string",
          "name": "_symbol",
          "type": "string"
        }
      ],
      "stateMutability": "nonpayable",
      "type": "constructor"
    },
    {
      "inputs": [
        {
          "internalType": "address",
          "name": "spender",
          "type": "address"
        },
        {
          "internalType": "uint256",
          "name": "allowance",
          "type": "uint256"
        },
        {
          "internalType": "uint256",
          "name": "needed",
          "type": "uint256"
        }
      ],
      "name": "ERC20InsufficientAllowance",
      "type": "error"
    },
    {
      "inputs": [
        {
          "internalType": "address",
          "name": "sender",
          "type": "address"
        },
        {
          "internalType": "uint256",
          "name": "balance",
          "type": "uint256"
        },
        {
          "internalType": "uint256",
          "name": "needed",
          "type": "uint256"
        }
      ],
      "name": "ERC20InsufficientBalance",
      "type": "error"
    },
    {
      "inputs": [
        {
          "internalType": "address",
          "name": "approver",
          "type": "address"
        }
      ],
      "name": "ERC20InvalidApprover",
      "type": "error"
    },
    {
      "inputs": [
        {
          "internalType": "address",
          "name": "receiver",
          "type": "address"
        }
      ],
      "name": "ERC20InvalidReceiver",
      "type": "error"
    },
    {
      "inputs": [
        {
          "internalType": "address",
          "name": "sender",
          "type": "address"
        }
      ],
      "name": "ERC20InvalidSender",
      "type": "error"
    },
    {
      "inputs": [
        {
          "internalType": "address",
          "name": "spender",
          "type": "address"
        }
      ],
      "name": "ERC20InvalidSpender",
      "type": "error"
    },
    {
      "inputs": [
        {
          "internalType": "string",
          "name": "errorMsg",
          "type": "string"
        }
      ],
      "name": "ErrorOccurred",
      "type": "error"
    },
    {
      "anonymous": false,
      "inputs": [
        {
          "indexed": true,
          "internalType": "address",
          "name": "owner",
          "type": "address"
        },
        {
          "indexed": true,
          "internalType": "address",
          "name": "spender",
          "type": "address"
        },
        {
          "indexed": false,
          "internalType": "uint256",
          "name": "value",
          "type": "uint256"
        }
      ],
      "name": "Approval",
      "type": "event"
    },
    {
      "anonymous": false,
      "inputs": [
        {
          "indexed": true,
          "internalType": "address",
          "name": "from",
          "type": "address"
        },
        {
          "indexed": true,
          "internalType": "address",
          "name": "to",
          "type": "address"
        },
        {
          "indexed": false,
          "internalType": "uint256",
          "name": "value",
          "type": "uint256"
        }
      ],
      "name": "Transfer",
      "type": "event"
    },
    {
      "inputs": [
        {
          "internalType": "address",
          "name": "owner",
          "type": "address"
        },
        {
          "internalType": "address",
          "name": "spender",
          "type": "address"
        }
      ],
      "name": "allowance",
      "outputs": [
        {
          "internalType": "uint256",
          "name": "",
          "type": "uint256"
        }
      ],
      "stateMutability": "view",
      "type": "function"
    },
    {
      "inputs": [
        {
          "internalType": "address",
          "name": "spender",
          "type": "address"
        },
        {
          "internalType": "uint256",
          "name": "value",
          "type": "uint256"
        }
      ],
      "name": "approve",
      "outputs": [
        {
          "internalType": "bool",
          "name": "",
          "type": "bool"
        }
      ],
      "stateMutability": "nonpayable",
      "type": "function"
    },
    {
      "inputs": [
        {
          "internalType": "address",
          "name": "account",
          "type": "address"
        }
      ],
      "name": "balanceOf",
      "outputs": [
        {
          "internalType": "uint256",
          "name": "",
          "type": "uint256"
        }
      ],
      "stateMutability": "view",
      "type": "function"
    },
    {
      "inputs": [],
      "name": "decimals",
      "outputs": [
        {
          "internalType": "uint8",
          "name": "",
          "type": "uint8"
        }
      ],
      "stateMutability": "view",
      "type": "function"
    },
    {
      "inputs": [
        {
          "internalType": "address",
          "name": "to",
          "type": "address"
        }
      ],
      "name": "deposit",
      "outputs": [
        {
          "internalType": "bool",
          "name": "",
          "type": "bool"
        }
      ],
      "stateMutability": "payable",
      "type": "function"
    },
    {
      "inputs": [],
      "name": "name",
      "outputs": [
        {
          "internalType": "string",
          "name": "",
          "type": "string"
        }
      ],
      "stateMutability": "view",
      "type": "function"
    },
    {
      "inputs": [],
      "name": "roleManager",
      "outputs": [
        {
          "internalType": "contract IRoleBase",
          "name": "",
          "type": "address"
        }
      ],
      "stateMutability": "view",
      "type": "function"
    },
    {
      "inputs": [
        {
          "internalType": "address",
          "name": "newManager",
          "type": "address"
        }
      ],
      "name": "setRoleManager",
      "outputs": [
        {
          "internalType": "bool",
          "name": "",
          "type": "bool"
        }
      ],
      "stateMutability": "nonpayable",
      "type": "function"
    },
    {
      "inputs": [],
      "name": "symbol",
      "outputs": [
        {
          "internalType": "string",
          "name": "",
          "type": "string"
        }
      ],
      "stateMutability": "view",
      "type": "function"
    },
    {
      "inputs": [],
      "name": "totalSupply",
      "outputs": [
        {
          "internalType": "uint256",
          "name": "",
          "type": "uint256"
        }
      ],
      "stateMutability": "view",
      "type": "function"
    },
    {
      "inputs": [
        {
          "internalType": "address",
          "name": "to",
          "type": "address"
        },
        {
          "internalType": "uint256",
          "name": "value",
          "type": "uint256"
        }
      ],
      "name": "transfer",
      "outputs": [
        {
          "internalType": "bool",
          "name": "",
          "type": "bool"
        }
      ],
      "stateMutability": "nonpayable",
      "type": "function"
    },
    {
      "inputs": [
        {
          "internalType": "address",
          "name": "from",
          "type": "address"
        },
        {
          "internalType": "address",
          "name": "to",
          "type": "address"
        },
        {
          "internalType": "uint256",
          "name": "value",
          "type": "uint256"
        }
      ],
      "name": "transferFrom",
      "outputs": [
        {
          "internalType": "bool",
          "name": "done",
          "type": "bool"
        }
      ],
      "stateMutability": "nonpayable",
      "type": "function"
    }
  ],
  "transactionHash": "0x50ed85d9be13c507cc394212e4729391a2e574dd8f1e9e1fd34f97714ac032df",
  "args": [
    "0xd91FdF9d46ddbcdBD7EBE4485bdC9D2d5DE9a333",
    "WrappedXFI Token",
    "WXFI"
  ],
  "numDeployments": 1,
  "solcInputHash": "9d0793288b64fe8bfda278217fc9f874",
  "bytecode": "0x60806040523480156200001157600080fd5b5060405162000f2138038062000f21833981016040819052620000349162000175565b8282826003620000458382620002a9565b506004620000548282620002a9565b50505062000068816200007260201b60201c565b5050505062000375565b600580546001600160a01b0319166001600160a01b0392909216919091179055565b7f4e487b7100000000000000000000000000000000000000000000000000000000600052604160045260246000fd5b600082601f830112620000d557600080fd5b81516001600160401b0380821115620000f257620000f262000094565b604051601f8301601f19908116603f011681019082821181831017156200011d576200011d62000094565b81604052838152602092508660208588010111156200013b57600080fd5b600091505b838210156200015f578582018301518183018401529082019062000140565b6000602085830101528094505050505092915050565b6000806000606084860312156200018b57600080fd5b83516001600160a01b0381168114620001a357600080fd5b60208501519093506001600160401b0380821115620001c157600080fd5b620001cf87838801620000c3565b93506040860151915080821115620001e657600080fd5b50620001f586828701620000c3565b9150509250925092565b600181811c908216806200021457607f821691505b6020821081036200024e577f4e487b7100000000000000000000000000000000000000000000000000000000600052602260045260246000fd5b50919050565b601f821115620002a4576000816000526020600020601f850160051c810160208610156200027f5750805b601f850160051c820191505b81811015620002a0578281556001016200028b565b5050505b505050565b81516001600160401b03811115620002c557620002c562000094565b620002dd81620002d68454620001ff565b8462000254565b602080601f831160018114620003155760008415620002fc5750858301515b600019600386901b1c1916600185901b178555620002a0565b600085815260208120601f198616915b82811015620003465788860151825594840194600190910190840162000325565b5085821015620003655787850151600019600388901b60f8161c191681555b5050505050600190811b01905550565b610b9c80620003856000396000f3fe6080604052600436106100a65760003560e01c806370a082311161006457806370a082311461019557806395d89b41146101cb578063a9059cbb146101e0578063dd62ed3e14610200578063f1d588c514610246578063f340fa011461026657600080fd5b8062435da5146100ab57806306fdde03146100e8578063095ea7b31461010a57806318160ddd1461013a57806323b872dd14610159578063313ce56714610179575b600080fd5b3480156100b757600080fd5b506005546100cb906001600160a01b031681565b6040516001600160a01b0390911681526020015b60405180910390f35b3480156100f457600080fd5b506100fd610279565b6040516100df91906109cf565b34801561011657600080fd5b5061012a610125366004610a35565b61030b565b60405190151581526020016100df565b34801561014657600080fd5b506002545b6040519081526020016100df565b34801561016557600080fd5b5061012a610174366004610a5f565b610325565b34801561018557600080fd5b50604051601281526020016100df565b3480156101a157600080fd5b5061014b6101b0366004610a9b565b6001600160a01b031660009081526020819052604090205490565b3480156101d757600080fd5b506100fd6103f4565b3480156101ec57600080fd5b5061012a6101fb366004610a35565b610403565b34801561020c57600080fd5b5061014b61021b366004610ab6565b6001600160a01b03918216600090815260016020908152604080832093909416825291909152205490565b34801561025257600080fd5b5061012a610261366004610a9b565b61042a565b61012a610274366004610a9b565b610458565b60606003805461028890610ae9565b80601f01602080910402602001604051908101604052809291908181526020018280546102b490610ae9565b80156103015780601f106102d657610100808354040283529160200191610301565b820191906000526020600020905b8154815290600101906020018083116102e457829003601f168201915b5050505050905090565b60003361031981858561047b565b60019150505b92915050565b6000336103318561048d565b6103de576103408582856104fc565b61034a818461057a565b6040516001600160a01b038516908490600081818185875af1925050503d8060008114610393576040519150601f19603f3d011682016040523d82523d6000602084013e610398565b606091505b505080925050816103d95760405162461bcd60e51b815260206004820152600660248201526511985a5b195960d21b60448201526064015b60405180910390fd5b6103ec565b6103e98585856105b4565b91505b509392505050565b60606004805461028890610ae9565b60006001600160a01b0383161561041957600092505b61042383836105d8565b9392505050565b60006104346105e6565b600580546001600160a01b0319166001600160a01b0384161790555060015b919050565b6000336104658134610665565b610472818434600061069b565b50600192915050565b610488838383600161069b565b505050565b600554604051633f784de560e11b81526001600160a01b0383811660048301526000921690637ef09bca90602401602060405180830381865afa1580156104d8573d6000803e3d6000fd5b505050506040513d601f19601f8201168201806040525081019061031f9190610b23565b6001600160a01b038381166000908152600160209081526040808320938616835292905220546000198114610574578181101561056557604051637dc7a0d960e11b81526001600160a01b038416600482015260248101829052604481018390526064016103d0565b6105748484848403600061069b565b50505050565b6001600160a01b0382166105a457604051634b637e8f60e11b8152600060048201526024016103d0565b6105b08260008361074f565b5050565b6000336105c28582856104fc565b6105cd858585610879565b506001949350505050565b600033610319818585610879565b6005546001600160a01b031680610627576106276040518060400160405280600f81526020016e4d616e61676572206973207a65726f60881b8152506108d8565b6106303361048d565b610662576106626040518060400160405280600d81526020016c1058d8d95cdcc819195b9a5959609a1b8152506108d8565b50565b6001600160a01b03821661068f5760405163ec442f0560e01b8152600060048201526024016103d0565b6105b06000838361074f565b6106a48461048d565b6106f7576106b18361048d565b6106f25760405162461bcd60e51b815260206004820152601260248201527120b8383937bb30b6103337b93134b23232b760711b60448201526064016103d0565b610742565b6107008361048d565b156107425760405162461bcd60e51b815260206004820152601260248201527120b8383937bb30b6103337b93134b23232b760711b60448201526064016103d0565b61057484848484156108fa565b6001600160a01b03831661077a57806002600082825461076f9190610b45565b909155506107ec9050565b6001600160a01b038316600090815260208190526040902054818110156107cd5760405163391434e360e21b81526001600160a01b038516600482015260248101829052604481018390526064016103d0565b6001600160a01b03841660009081526020819052604090209082900390555b6001600160a01b03821661080857600280548290039055610827565b6001600160a01b03821660009081526020819052604090208054820190555b816001600160a01b0316836001600160a01b03167fddf252ad1be2c89b69c2b068fc378daa952ba7f163c4a11628f55a4df523b3ef8360405161086c91815260200190565b60405180910390a3505050565b6001600160a01b0383166108a357604051634b637e8f60e11b8152600060048201526024016103d0565b6001600160a01b0382166108cd5760405163ec442f0560e01b8152600060048201526024016103d0565b61048883838361074f565b805115610662578060405163cc86106360e01b81526004016103d091906109cf565b6001600160a01b0384166109245760405163e602df0560e01b8152600060048201526024016103d0565b6001600160a01b03831661094e57604051634a1406b160e11b8152600060048201526024016103d0565b6001600160a01b038085166000908152600160209081526040808320938716835292905220829055801561057457826001600160a01b0316846001600160a01b03167f8c5be1e5ebec7d5bd14f71427d1e84f3dd0314c0f7b2291e5b200ac8c7c3b925846040516109c191815260200190565b60405180910390a350505050565b60006020808352835180602085015260005b818110156109fd578581018301518582016040015282016109e1565b506000604082860101526040601f19601f8301168501019250505092915050565b80356001600160a01b038116811461045357600080fd5b60008060408385031215610a4857600080fd5b610a5183610a1e565b946020939093013593505050565b600080600060608486031215610a7457600080fd5b610a7d84610a1e565b9250610a8b60208501610a1e565b9150604084013590509250925092565b600060208284031215610aad57600080fd5b61042382610a1e565b60008060408385031215610ac957600080fd5b610ad283610a1e565b9150610ae060208401610a1e565b90509250929050565b600181811c90821680610afd57607f821691505b602082108103610b1d57634e487b7160e01b600052602260045260246000fd5b50919050565b600060208284031215610b3557600080fd5b8151801515811461042357600080fd5b8082018082111561031f57634e487b7160e01b600052601160045260246000fdfea2646970667358221220c2b2ec14b624ae7238fd5babb7bb6057acf6ce33d532c639b56c669c24344d1d64736f6c63430008180033",
  "devdoc": {
    "errors": {
      "ERC20InsufficientAllowance(address,uint256,uint256)": [
        {
          "details": "Indicates a failure with the `spender`s `allowance`. Used in transfers.",
          "params": {
            "allowance": "Amount of tokens a `spender` is allowed to operate with.",
            "needed": "Minimum amount required to perform a transfer.",
            "spender": "Address that may be allowed to operate on tokens without being their owner."
          }
        }
      ],
      "ERC20InsufficientBalance(address,uint256,uint256)": [
        {
          "details": "Indicates an error related to the current `balance` of a `sender`. Used in transfers.",
          "params": {
            "balance": "Current balance for the interacting account.",
            "needed": "Minimum amount required to perform a transfer.",
            "sender": "Address whose tokens are being transferred."
          }
        }
      ],
      "ERC20InvalidApprover(address)": [
        {
          "details": "Indicates a failure with the `approver` of a token to be approved. Used in approvals.",
          "params": {
            "approver": "Address initiating an approval operation."
          }
        }
      ],
      "ERC20InvalidReceiver(address)": [
        {
          "details": "Indicates a failure with the token `receiver`. Used in transfers.",
          "params": {
            "receiver": "Address to which tokens are being transferred."
          }
        }
      ],
      "ERC20InvalidSender(address)": [
        {
          "details": "Indicates a failure with the token `sender`. Used in transfers.",
          "params": {
            "sender": "Address whose tokens are being transferred."
          }
        }
      ],
      "ERC20InvalidSpender(address)": [
        {
          "details": "Indicates a failure with the `spender` to be approved. Used in approvals.",
          "params": {
            "spender": "Address that may be allowed to operate on tokens without being their owner."
          }
        }
      ]
    },
    "events": {
      "Approval(address,address,uint256)": {
        "details": "Emitted when the allowance of a `spender` for an `owner` is set by a call to {approve}. `value` is the new allowance."
      },
      "Transfer(address,address,uint256)": {
        "details": "Emitted when `value` tokens are moved from one account (`from`) to another (`to`). Note that `value` may be zero."
      }
    },
    "kind": "dev",
    "methods": {
      "allowance(address,address)": {
        "details": "See {IERC20-allowance}."
      },
      "approve(address,uint256)": {
        "details": "See {IERC20-approve}. NOTE: If `value` is the maximum `uint256`, the allowance is not updated on `transferFrom`. This is semantically equivalent to an infinite approval. Requirements: - `spender` cannot be the zero address."
      },
      "balanceOf(address)": {
        "details": "See {IERC20-balanceOf}."
      },
      "decimals()": {
        "details": "Returns the number of decimals used to get its user representation. For example, if `decimals` equals `2`, a balance of `505` tokens should be displayed to a user as `5.05` (`505 / 10 ** 2`). Tokens usually opt for a value of 18, imitating the relationship between Ether and Wei. This is the default value returned by this function, unless it's overridden. NOTE: This information is only used for _display_ purposes: it in no way affects any of the arithmetic of the contract, including {IERC20-balanceOf} and {IERC20-transfer}."
      },
      "deposit(address)": {
        "details": "Deposit collateral",
        "params": {
          "to": ": Account to receive the deposit "
        }
      },
      "name()": {
        "details": "Returns the name of the token."
      },
      "setRoleManager(address)": {
        "params": {
          "newManager": ": New manager address"
        }
      },
      "symbol()": {
        "details": "Returns the symbol of the token, usually a shorter version of the name."
      },
      "totalSupply()": {
        "details": "See {IERC20-totalSupply}."
      },
      "transfer(address,uint256)": {
        "details": "Transfer is disbled indefinitely"
      },
      "transferFrom(address,address,uint256)": {
        "details": "Override the transferFrom function so users get their XFI deposit when they withdraw",
        "params": {
          "from": ": Owner account where approval was given",
          "to": ": Account to withdraw to",
          "value": ": Amount to withdraw"
        }
      }
    },
    "title": "WrappedNative is a supported collateral asset on the connected network e.g. Celo or XFI can be used used as collateral in Flexpool.",
    "version": 1
  },
  "userdoc": {
    "kind": "user",
    "methods": {
      "setRoleManager(address)": {
        "notice": "Set Role manager"
      },
      "transferFrom(address,address,uint256)": {
        "notice": "If 'from' does not have a role with the roleManger, its an indication that the call  is coming from a user hence withdrawal action, otherwise, its from the Flexpool factory or the Safe contract"
      }
    },
    "notice": "Wrapped token denominated in native coin. Contributors can get finance by depositing a native or corresponding stablecoin as cover for the asset they're borrowing. To have more granular control over the deposited XFI coin, we provide a wrapped version of the native coin. ",
    "version": 1
  },
  "storageLayout": {
    "storage": [
      {
        "astId": 159,
        "contract": "contracts/standalone/collaterals/WrappedNative.sol:WrappedNative",
        "label": "_balances",
        "offset": 0,
        "slot": "0",
        "type": "t_mapping(t_address,t_uint256)"
      },
      {
        "astId": 165,
        "contract": "contracts/standalone/collaterals/WrappedNative.sol:WrappedNative",
        "label": "_allowances",
        "offset": 0,
        "slot": "1",
        "type": "t_mapping(t_address,t_mapping(t_address,t_uint256))"
      },
      {
        "astId": 167,
        "contract": "contracts/standalone/collaterals/WrappedNative.sol:WrappedNative",
        "label": "_totalSupply",
        "offset": 0,
        "slot": "2",
        "type": "t_uint256"
      },
      {
        "astId": 169,
        "contract": "contracts/standalone/collaterals/WrappedNative.sol:WrappedNative",
        "label": "_name",
        "offset": 0,
        "slot": "3",
        "type": "t_string_storage"
      },
      {
        "astId": 171,
        "contract": "contracts/standalone/collaterals/WrappedNative.sol:WrappedNative",
        "label": "_symbol",
        "offset": 0,
        "slot": "4",
        "type": "t_string_storage"
      },
      {
        "astId": 1059,
        "contract": "contracts/standalone/collaterals/WrappedNative.sol:WrappedNative",
        "label": "roleManager",
        "offset": 0,
        "slot": "5",
        "type": "t_contract(IRoleBase)1006"
      }
    ],
    "types": {
      "t_address": {
        "encoding": "inplace",
        "label": "address",
        "numberOfBytes": "20"
      },
      "t_contract(IRoleBase)1006": {
        "encoding": "inplace",
        "label": "contract IRoleBase",
        "numberOfBytes": "20"
      },
      "t_mapping(t_address,t_mapping(t_address,t_uint256))": {
        "encoding": "mapping",
        "key": "t_address",
        "label": "mapping(address => mapping(address => uint256))",
        "numberOfBytes": "32",
        "value": "t_mapping(t_address,t_uint256)"
      },
      "t_mapping(t_address,t_uint256)": {
        "encoding": "mapping",
        "key": "t_address",
        "label": "mapping(address => uint256)",
        "numberOfBytes": "32",
        "value": "t_uint256"
      },
      "t_string_storage": {
        "encoding": "bytes",
        "label": "string",
        "numberOfBytes": "32"
      },
      "t_uint256": {
        "encoding": "inplace",
        "label": "uint256",
        "numberOfBytes": "32"
      }
    }
  }
}