{
  "address": "0xa00E598D0c6c2Ab62E74B1282c9Efd9d2010F47A",
  "abi": [
    {
      "inputs": [
        {
          "internalType": "address",
          "name": "_asset",
          "type": "address"
        },
        {
          "internalType": "contract IRoleBase",
          "name": "_roleManager",
          "type": "address"
        }
      ],
      "stateMutability": "nonpayable",
      "type": "constructor"
    },
    {
      "inputs": [
        {
          "internalType": "string",
          "name": "errorMsg",
          "type": "string"
        }
      ],
      "name": "ErrorOccurred",
      "type": "error"
    },
    {
      "inputs": [],
      "name": "getDefaultSupportedCollateralAsset",
      "outputs": [
        {
          "internalType": "address",
          "name": "_default",
          "type": "address"
        }
      ],
      "stateMutability": "view",
      "type": "function"
    },
    {
      "inputs": [],
      "name": "getSupportedAssets",
      "outputs": [
        {
          "components": [
            {
              "internalType": "address",
              "name": "id",
              "type": "address"
            },
            {
              "internalType": "string",
              "name": "name",
              "type": "string"
            },
            {
              "internalType": "string",
              "name": "symbol",
              "type": "string"
            }
          ],
          "internalType": "struct SupportedAssetManager.SupportedAsset[]",
          "name": "_assets",
          "type": "tuple[]"
        }
      ],
      "stateMutability": "view",
      "type": "function"
    },
    {
      "inputs": [
        {
          "internalType": "address",
          "name": "_asset",
          "type": "address"
        }
      ],
      "name": "isSupportedAsset",
      "outputs": [
        {
          "internalType": "bool",
          "name": "",
          "type": "bool"
        }
      ],
      "stateMutability": "view",
      "type": "function"
    },
    {
      "inputs": [
        {
          "internalType": "address",
          "name": "",
          "type": "address"
        }
      ],
      "name": "listed",
      "outputs": [
        {
          "internalType": "bool",
          "name": "",
          "type": "bool"
        }
      ],
      "stateMutability": "view",
      "type": "function"
    },
    {
      "inputs": [],
      "name": "roleManager",
      "outputs": [
        {
          "internalType": "contract IRoleBase",
          "name": "",
          "type": "address"
        }
      ],
      "stateMutability": "view",
      "type": "function"
    },
    {
      "inputs": [
        {
          "internalType": "address",
          "name": "newManager",
          "type": "address"
        }
      ],
      "name": "setRoleManager",
      "outputs": [
        {
          "internalType": "bool",
          "name": "",
          "type": "bool"
        }
      ],
      "stateMutability": "nonpayable",
      "type": "function"
    },
    {
      "inputs": [
        {
          "internalType": "address",
          "name": "_asset",
          "type": "address"
        }
      ],
      "name": "supportAsset",
      "outputs": [],
      "stateMutability": "nonpayable",
      "type": "function"
    },
    {
      "inputs": [
        {
          "internalType": "address",
          "name": "newAsset",
          "type": "address"
        }
      ],
      "name": "unsupportAsset",
      "outputs": [],
      "stateMutability": "nonpayable",
      "type": "function"
    }
  ],
  "transactionHash": "0x9c43742e8eee3c6e09d8d8606cd7edf9c39d5ca490ea5cd76a86e7355462230d",
  "args": [
    "0x962289B0F4f0Aa00d84D7a55DAFC68F28C54fAC0",
    "0x79dF2FCc7DfDdc0C85Cc1f82B1f631b4b9D994B0"
  ],
  "numDeployments": 3,
  "solcInputHash": "df159e95352441ed65652ea3a2393118",
  "bytecode": "0x60806040523480156200001157600080fd5b50604051620010813803806200108183398101604081905262000034916200030a565b600080546001600160a01b0319166001600160a01b0383161790556001600160a01b0382166200009d5760408051808201909152601681527f44656661756c7420617373657420697320656d7074790000000000000000000060208201526200009d90620000b0565b620000a882620000fa565b505062000601565b805115620000f757806040517fcc861063000000000000000000000000000000000000000000000000000000008152600401620000ee91906200036f565b60405180910390fd5b50565b6001600160a01b03811660009081526003602052604090205460ff16620002ad576001600160a01b0381166000818152600360209081526040808320805460ff19166001908117909155815160608101835285815282517f06fdde030000000000000000000000000000000000000000000000000000000081529251919590949385019390926306fdde0392600480830193928290030181865afa158015620001a7573d6000803e3d6000fd5b505050506040513d6000823e601f3d908101601f19168201604052620001d19190810190620003d3565b8152602001836001600160a01b03166395d89b416040518163ffffffff1660e01b8152600401600060405180830381865afa15801562000215573d6000803e3d6000fd5b505050506040513d6000823e601f3d908101601f191682016040526200023f9190810190620003d3565b90528154600180820184556000938452602093849020835160039093020180546001600160a01b0319166001600160a01b0390931692909217825592820151919290919082019062000292908262000535565b5060408201516002820190620002a9908262000535565b5050505b6001600160a01b03811660009081526002602052604090205460ff16620000f7576001600160a01b0381166000908152600260205260409020805460ff1916600117905550565b6001600160a01b0381168114620000f757600080fd5b600080604083850312156200031e57600080fd5b82516200032b81620002f4565b60208401519092506200033e81620002f4565b809150509250929050565b60005b83811015620003665781810151838201526020016200034c565b50506000910152565b60208152600082518060208401526200039081604085016020870162000349565b601f01601f19169190910160400192915050565b7f4e487b7100000000000000000000000000000000000000000000000000000000600052604160045260246000fd5b600060208284031215620003e657600080fd5b81516001600160401b0380821115620003fe57600080fd5b818401915084601f8301126200041357600080fd5b815181811115620004285762000428620003a4565b604051601f8201601f19908116603f01168101908382118183101715620004535762000453620003a4565b816040528281528760208487010111156200046d57600080fd5b6200048083602083016020880162000349565b979650505050505050565b600181811c90821680620004a057607f821691505b602082108103620004da577f4e487b7100000000000000000000000000000000000000000000000000000000600052602260045260246000fd5b50919050565b601f82111562000530576000816000526020600020601f850160051c810160208610156200050b5750805b601f850160051c820191505b818110156200052c5782815560010162000517565b5050505b505050565b81516001600160401b03811115620005515762000551620003a4565b62000569816200056284546200048b565b84620004e0565b602080601f831160018114620005a15760008415620005885750858301515b600019600386901b1c1916600185901b1785556200052c565b600085815260208120601f198616915b82811015620005d257888601518255948401946001909101908401620005b1565b5085821015620005f15787850151600019600388901b60f8161c191681555b5050505050600190811b01905550565b610a7080620006116000396000f3fe608060405234801561001057600080fd5b50600436106100875760003560e01c8063739c13db1161005b578063739c13db146101175780639be918e61461011f578063e5406dbf14610132578063f1d588c51461014757600080fd5b8062435da51461008c5780634cd55c2d146100bc57806364138230146100d15780636968751214610104575b600080fd5b60005461009f906001600160a01b031681565b6040516001600160a01b0390911681526020015b60405180910390f35b6100cf6100ca3660046106ad565b61015a565b005b6100f46100df3660046106ad565b60036020526000908152604090205460ff1681565b60405190151581526020016100b3565b6100cf6101123660046106ad565b61016e565b61009f610197565b6100f461012d3660046106ad565b6101d9565b61013a6101fc565b6040516100b3919061072d565b6100f46101553660046106ad565b610395565b6101626103c2565b61016b8161043e565b50565b6101766103c2565b6001600160a01b03166000908152600260205260409020805460ff19169055565b600060016000815481106101ad576101ad6107cb565b60009182526020909120600390910201546001600160a01b03169050806101d6576101d66107e1565b90565b6001600160a01b03811660009081526002602052604081205460ff165b92915050565b60606001805480602002602001604051908101604052809291908181526020016000905b8282101561038c57600084815260209081902060408051606081019091526003850290910180546001600160a01b031682526001810180549293919291840191610269906107f7565b80601f0160208091040260200160405190810160405280929190818152602001828054610295906107f7565b80156102e25780601f106102b7576101008083540402835291602001916102e2565b820191906000526020600020905b8154815290600101906020018083116102c557829003601f168201915b505050505081526020016002820180546102fb906107f7565b80601f0160208091040260200160405190810160405280929190818152602001828054610327906107f7565b80156103745780601f1061034957610100808354040283529160200191610374565b820191906000526020600020905b81548152906001019060200180831161035757829003601f168201915b50505050508152505081526020019060010190610220565b50505050905090565b600061039f6103c2565b600080546001600160a01b0319166001600160a01b038416179055506001919050565b6000546001600160a01b031680610403576104036040518060400160405280600f81526020016e4d616e61676572206973207a65726f60881b815250610613565b61040c3361063e565b61016b5761016b6040518060400160405280600d81526020016c1058d8d95cdcc819195b9a5959609a1b815250610613565b6001600160a01b03811660009081526003602052604090205460ff166105cd576001600160a01b0381166000818152600360209081526040808320805460ff19166001908117909155815160608101835285815282516306fdde0360e01b81529251919590949385019390926306fdde0392600480830193928290030181865afa1580156104d0573d6000803e3d6000fd5b505050506040513d6000823e601f3d908101601f191682016040526104f89190810190610847565b8152602001836001600160a01b03166395d89b416040518163ffffffff1660e01b8152600401600060405180830381865afa15801561053b573d6000803e3d6000fd5b505050506040513d6000823e601f3d908101601f191682016040526105639190810190610847565b90528154600180820184556000938452602093849020835160039093020180546001600160a01b0319166001600160a01b039093169290921782559282015191929091908201906105b49082610945565b50604082015160028201906105c99082610945565b5050505b6001600160a01b03811660009081526002602052604090205460ff1661016b576001600160a01b0381166000908152600260205260409020805460ff1916600117905550565b80511561016b578060405163cc86106360e01b81526004016106359190610a05565b60405180910390fd5b60008054604051633f784de560e11b81526001600160a01b03848116600483015290911690637ef09bca90602401602060405180830381865afa158015610689573d6000803e3d6000fd5b505050506040513d601f19601f820116820180604052508101906101f69190610a18565b6000602082840312156106bf57600080fd5b81356001600160a01b03811681146106d657600080fd5b9392505050565b60005b838110156106f85781810151838201526020016106e0565b50506000910152565b600081518084526107198160208601602086016106dd565b601f01601f19169290920160200192915050565b600060208083018184528085518083526040925060408601915060408160051b87010184880160005b838110156107bd57888303603f19018552815180516001600160a01b031684528781015160608986018190529061078f82870182610701565b915050878201519150848103888601526107a98183610701565b968901969450505090860190600101610756565b509098975050505050505050565b634e487b7160e01b600052603260045260246000fd5b634e487b7160e01b600052600160045260246000fd5b600181811c9082168061080b57607f821691505b60208210810361082b57634e487b7160e01b600052602260045260246000fd5b50919050565b634e487b7160e01b600052604160045260246000fd5b60006020828403121561085957600080fd5b815167ffffffffffffffff8082111561087157600080fd5b818401915084601f83011261088557600080fd5b81518181111561089757610897610831565b604051601f8201601f19908116603f011681019083821181831017156108bf576108bf610831565b816040528281528760208487010111156108d857600080fd5b6108e98360208301602088016106dd565b979650505050505050565b601f821115610940576000816000526020600020601f850160051c8101602086101561091d5750805b601f850160051c820191505b8181101561093c57828155600101610929565b5050505b505050565b815167ffffffffffffffff81111561095f5761095f610831565b6109738161096d84546107f7565b846108f4565b602080601f8311600181146109a857600084156109905750858301515b600019600386901b1c1916600185901b17855561093c565b600085815260208120601f198616915b828110156109d7578886015182559484019460019091019084016109b8565b50858210156109f55787850151600019600388901b60f8161c191681555b5050505050600190811b01905550565b6020815260006106d66020830184610701565b600060208284031215610a2a57600080fd5b815180151581146106d657600080fdfea2646970667358221220101e8b37e961abc7a689f9be0067507bf1561041681794ec7c2ca8a421cf0e4e64736f6c63430008180033",
  "devdoc": {
    "kind": "dev",
    "methods": {
      "constructor": {
        "details": "Initialize state variables",
        "params": {
          "_asset": ": Initial supported asset"
        }
      },
      "getDefaultSupportedCollateralAsset()": {
        "details": "Returns the default supported asset"
      },
      "getSupportedAssets()": {
        "details": "Returns a list of supported assets"
      },
      "isSupportedAsset(address)": {
        "details": "Check if an asset is supported"
      },
      "setRoleManager(address)": {
        "params": {
          "newManager": ": New manager address"
        }
      },
      "supportAsset(address)": {
        "details": "Support a new asset Note: OnlyRoleBase action",
        "params": {
          "_asset": ": Asset to add to list of supported asset"
        }
      },
      "unsupportAsset(address)": {
        "details": "Unsupports an asset Note: Only-owner action",
        "params": {
          "newAsset": ": Removes an asset from the list of supported asset"
        }
      }
    },
    "stateVariables": {
      "supportedAssets": {
        "details": "Mapping assets address to bool i.e Assets must be contract account and must be supported"
      }
    },
    "version": 1
  },
  "userdoc": {
    "kind": "user",
    "methods": {
      "setRoleManager(address)": {
        "notice": "Set Role manager"
      }
    },
    "version": 1
  },
  "storageLayout": {
    "storage": [
      {
        "astId": 288,
        "contract": "contracts/standalone/SupportedAssetManager.sol:SupportedAssetManager",
        "label": "roleManager",
        "offset": 0,
        "slot": "0",
        "type": "t_contract(IRoleBase)220"
      },
      {
        "astId": 417,
        "contract": "contracts/standalone/SupportedAssetManager.sol:SupportedAssetManager",
        "label": "assets",
        "offset": 0,
        "slot": "1",
        "type": "t_array(t_struct(SupportedAsset)413_storage)dyn_storage"
      },
      {
        "astId": 422,
        "contract": "contracts/standalone/SupportedAssetManager.sol:SupportedAssetManager",
        "label": "supportedAssets",
        "offset": 0,
        "slot": "2",
        "type": "t_mapping(t_address,t_bool)"
      },
      {
        "astId": 426,
        "contract": "contracts/standalone/SupportedAssetManager.sol:SupportedAssetManager",
        "label": "listed",
        "offset": 0,
        "slot": "3",
        "type": "t_mapping(t_address,t_bool)"
      }
    ],
    "types": {
      "t_address": {
        "encoding": "inplace",
        "label": "address",
        "numberOfBytes": "20"
      },
      "t_array(t_struct(SupportedAsset)413_storage)dyn_storage": {
        "base": "t_struct(SupportedAsset)413_storage",
        "encoding": "dynamic_array",
        "label": "struct SupportedAssetManager.SupportedAsset[]",
        "numberOfBytes": "32"
      },
      "t_bool": {
        "encoding": "inplace",
        "label": "bool",
        "numberOfBytes": "1"
      },
      "t_contract(IRoleBase)220": {
        "encoding": "inplace",
        "label": "contract IRoleBase",
        "numberOfBytes": "20"
      },
      "t_mapping(t_address,t_bool)": {
        "encoding": "mapping",
        "key": "t_address",
        "label": "mapping(address => bool)",
        "numberOfBytes": "32",
        "value": "t_bool"
      },
      "t_string_storage": {
        "encoding": "bytes",
        "label": "string",
        "numberOfBytes": "32"
      },
      "t_struct(SupportedAsset)413_storage": {
        "encoding": "inplace",
        "label": "struct SupportedAssetManager.SupportedAsset",
        "members": [
          {
            "astId": 408,
            "contract": "contracts/standalone/SupportedAssetManager.sol:SupportedAssetManager",
            "label": "id",
            "offset": 0,
            "slot": "0",
            "type": "t_address"
          },
          {
            "astId": 410,
            "contract": "contracts/standalone/SupportedAssetManager.sol:SupportedAssetManager",
            "label": "name",
            "offset": 0,
            "slot": "1",
            "type": "t_string_storage"
          },
          {
            "astId": 412,
            "contract": "contracts/standalone/SupportedAssetManager.sol:SupportedAssetManager",
            "label": "symbol",
            "offset": 0,
            "slot": "2",
            "type": "t_string_storage"
          }
        ],
        "numberOfBytes": "96"
      }
    }
  }
}