{
  "address": "0xbBcFe9aECacee498FFC00b652b7e3dDA34565c0d",
  "abi": [
    {
      "inputs": [
        {
          "internalType": "address",
          "name": "_ownershipManager",
          "type": "address"
        }
      ],
      "stateMutability": "nonpayable",
      "type": "constructor"
    },
    {
      "inputs": [
        {
          "internalType": "address",
          "name": "",
          "type": "address"
        }
      ],
      "name": "ZeroAddress",
      "type": "error"
    },
    {
      "inputs": [
        {
          "internalType": "address",
          "name": "user",
          "type": "address"
        }
      ],
      "name": "createStrategy",
      "outputs": [
        {
          "internalType": "address",
          "name": "_strategy",
          "type": "address"
        }
      ],
      "stateMutability": "nonpayable",
      "type": "function"
    },
    {
      "inputs": [
        {
          "internalType": "address",
          "name": "user",
          "type": "address"
        }
      ],
      "name": "getStrategy",
      "outputs": [
        {
          "internalType": "address",
          "name": "",
          "type": "address"
        }
      ],
      "stateMutability": "view",
      "type": "function"
    },
    {
      "inputs": [],
      "name": "ownershipManager",
      "outputs": [
        {
          "internalType": "address",
          "name": "",
          "type": "address"
        }
      ],
      "stateMutability": "view",
      "type": "function"
    },
    {
      "inputs": [
        {
          "internalType": "address",
          "name": "newManager",
          "type": "address"
        }
      ],
      "name": "setOwnershipManager",
      "outputs": [
        {
          "internalType": "bool",
          "name": "",
          "type": "bool"
        }
      ],
      "stateMutability": "nonpayable",
      "type": "function"
    },
    {
      "inputs": [],
      "name": "totalStrategies",
      "outputs": [
        {
          "internalType": "uint256",
          "name": "",
          "type": "uint256"
        }
      ],
      "stateMutability": "view",
      "type": "function"
    },
    {
      "stateMutability": "payable",
      "type": "receive"
    }
  ],
  "transactionHash": "0xd7d6a150d7debe2961f274f51ad0def3080f2bd784a1422bbf052e23a592ddf3",
  "args": [
    "0xe09e23F8a8032BB39326098802c970f9b48D726C"
  ],
  "numDeployments": 6,
  "solcInputHash": "2fed8b31c5d065153d6a744af0eb5c90",
  "bytecode": "0x608060405234801561001057600080fd5b5060405161197038038061197083398101604081905261002f91610050565b600080546001600160a01b0319166001600160a01b03831617905550610080565b60006020828403121561006257600080fd5b81516001600160a01b038116811461007957600080fd5b9392505050565b6118e18061008f6000396000f3fe60806040526004361061004e5760003560e01c806361737d621461005d5780637316bcd114610092578063b88a3915146100ca578063f8806a13146100ea578063f96d7b801461012357600080fd5b3661005857600080fd5b600080fd5b34801561006957600080fd5b5061007d610078366004610498565b610147565b60405190151581526020015b60405180910390f35b34801561009e57600080fd5b506100b26100ad366004610498565b61029c565b6040516001600160a01b039091168152602001610089565b3480156100d657600080fd5b506000546100b2906001600160a01b031681565b3480156100f657600080fd5b506100b2610105366004610498565b6001600160a01b039081166000908152600360205260409020541690565b34801561012f57600080fd5b5061013960015481565b604051908152602001610089565b60408051808201909152601881527f4f6e6c794f776e65723a204e6f74207065726d697474656400000000000000006020820152600080549091906001600160a01b0316806101dd5760405162461bcd60e51b815260206004820152601a60248201527f4f6e6c794f776e65723a204d616e61676572206e6f742073657400000000000060448201526064015b60405180910390fd5b6001600160a01b038116632f54bf6e336040516001600160e01b031960e084901b1681526001600160a01b039091166004820152602401602060405180830381865afa158015610231573d6000803e3d6000fd5b505050506040513d601f19601f8201168201806040525081019061025591906104c8565b82906102745760405162461bcd60e51b81526004016101d491906104ea565b50600080546001600160a01b0319166001600160a01b038616179055600192505b5050919050565b60006040518060600160405280602b8152602001611881602b91396000546001600160a01b0316806103105760405162461bcd60e51b815260206004820152601a60248201527f4f6e6c794f776e65723a204d616e61676572206e6f742073657400000000000060448201526064016101d4565b6001600160a01b038116632f54bf6e336040516001600160e01b031960e084901b1681526001600160a01b039091166004820152602401602060405180830381865afa158015610364573d6000803e3d6000fd5b505050506040513d601f19601f8201168201806040525081019061038891906104c8565b82906103a75760405162461bcd60e51b81526004016101d491906104ea565b506001600160a01b03808516600090815260036020526040902054166103d7576103d0846103f8565b9250610295565b5050506001600160a01b039081166000908152600360205260409020541690565b600180546000918261040983610539565b90915550506000546040516001600160a01b03909116906104299061048b565b6001600160a01b039091168152602001604051809103906000f080158015610455573d6000803e3d6000fd5b506001600160a01b03808416600090815260036020526040902080546001600160a01b0319169183169190911790559050919050565b6113208061056183390190565b6000602082840312156104aa57600080fd5b81356001600160a01b03811681146104c157600080fd5b9392505050565b6000602082840312156104da57600080fd5b815180151581146104c157600080fd5b60006020808352835180602085015260005b81811015610518578581018301518582016040015282016104fc565b506000604082860101526040601f19601f8301168501019250505092915050565b60006001820161055957634e487b7160e01b600052601160045260246000fd5b506001019056fe608060405234801561001057600080fd5b5060405161132038038061132083398101604081905261002f91610050565b600080546001600160a01b0319166001600160a01b03831617905550610080565b60006020828403121561006257600080fd5b81516001600160a01b038116811461007957600080fd5b9392505050565b6112918061008f6000396000f3fe6080604052600436106100945760003560e01c806354346b661161005957806354346b661461024557806361737d621461027d5780636d6ccde11461029d578063b88a3915146102bd578063cf35bdd0146102dd57600080fd5b8062f714ce14610182578063036a1c22146101b55780633be42320146101e257806341a8d7ce14610212578063527846641461023257600080fd5b3661017d576040518060600160405280602681526020016111cc602691396000546001600160a01b0316806100e45760405162461bcd60e51b81526004016100db90610ed5565b60405180910390fd5b6001600160a01b038116632f54bf6e336040516001600160e01b031960e084901b1681526001600160a01b039091166004820152602401602060405180830381865afa158015610138573d6000803e3d6000fd5b505050506040513d601f19601f8201168201806040525081019061015c9190610f1d565b829061017b5760405162461bcd60e51b81526004016100db9190610f3a565b005b600080fd5b34801561018e57600080fd5b506101a261019d366004610fa5565b610313565b6040519081526020015b60405180910390f35b3480156101c157600080fd5b506101a26101d0366004610fd1565b60046020526000908152604090205481565b3480156101ee57600080fd5b506102026101fd366004610fa5565b6104d2565b60405190151581526020016101ac565b34801561021e57600080fd5b5061020261022d366004610fea565b6105e3565b6101a2610240366004611014565b610722565b34801561025157600080fd5b50610265610260366004611099565b61096d565b6040516001600160a01b0390911681526020016101ac565b34801561028957600080fd5b506102026102983660046110bb565b6109a5565b3480156102a957600080fd5b506102026102b83660046110d6565b610ac3565b3480156102c957600080fd5b50600054610265906001600160a01b031681565b3480156102e957600080fd5b506102656102f8366004610fd1565b6002602052600090815260409020546001600160a01b031681565b60408051808201909152601781527f53747261746567793a204e6f74205065726d69747465640000000000000000006020820152600080549091906001600160a01b0316806103745760405162461bcd60e51b81526004016100db90610ed5565b6001600160a01b038116632f54bf6e336040516001600160e01b031960e084901b1681526001600160a01b039091166004820152602401602060405180830381865afa1580156103c8573d6000803e3d6000fd5b505050506040513d601f19601f820116820180604052508101906103ec9190610f1d565b829061040b5760405162461bcd60e51b81526004016100db9190610f3a565b506001600160a01b03841660009081526001602090815260408083208884529091528120805491905592508261046e5760405162461bcd60e51b81526020600482015260086024820152674e6f20636c61696d60c01b60448201526064016100db565b303160000361049357604051638817231760e01b8152303160048201526024016100db565b6040516001600160a01b0385169084156108fc029085906000818181858888f193505050501580156104c9573d6000803e3d6000fd5b50505092915050565b600060405180606001604052806022815260200161123a602291396000546001600160a01b0316806105165760405162461bcd60e51b81526004016100db90610ed5565b6001600160a01b038116632f54bf6e336040516001600160e01b031960e084901b1681526001600160a01b039091166004820152602401602060405180830381865afa15801561056a573d6000803e3d6000fd5b505050506040513d601f19601f8201168201806040525081019061058e9190610f1d565b82906105ad5760405162461bcd60e51b81526004016100db9190610f3a565b50600085815260026020526040902080546001600160a01b0386166001600160a01b031990911617905560019250505092915050565b60408051808201909152601f81527f5374726174656779202d2061646455703a204e6f74207065726d6974746564006020820152600080549091906001600160a01b0316806106445760405162461bcd60e51b81526004016100db90610ed5565b6001600160a01b038116632f54bf6e336040516001600160e01b031960e084901b1681526001600160a01b039091166004820152602401602060405180830381865afa158015610698573d6000803e3d6000fd5b505050506040513d601f19601f820116820180604052508101906106bc9190610f1d565b82906106db5760405162461bcd60e51b81526004016100db9190610f3a565b5060008481526003602090815260408220805460018181018355918452919092200180546001600160a01b0388166001600160a01b03199091161790559250505092915050565b6000604051806060016040528060228152602001611218602291396000546001600160a01b0316806107665760405162461bcd60e51b81526004016100db90610ed5565b6001600160a01b038116632f54bf6e336040516001600160e01b031960e084901b1681526001600160a01b039091166004820152602401602060405180830381865afa1580156107ba573d6000803e3d6000fd5b505050506040513d601f19601f820116820180604052508101906107de9190610f1d565b82906107fd5760405162461bcd60e51b81526004016100db9190610f3a565b506000888152600260205260409020546001600160a01b0316600185600181111561082a5761082a611112565b036108d3578a8c1161083c578b610846565b6108468b8d61113e565b9350610853888286610cbd565b8a156108ce5760405163a9059cbb60e01b81526001600160a01b038881166004830152602482018d905282169063a9059cbb906044016020604051808303816000875af11580156108a8573d6000803e3d6000fd5b505050506040513d601f19601f820116820180604052508101906108cc9190610f1d565b505b61095e565b6001600160a01b03881660009081526001602090815260408083208c8452909152812080548e9290610906908490611151565b9091555050891561093557600089815260046020526040812080548c929061092f908490611151565b90915550505b851561095e5760008981526002602052604090205461095e908a906001600160a01b0316610d69565b50505098975050505050505050565b6003602052816000526040600020818154811061098957600080fd5b6000918252602090912001546001600160a01b03169150829050565b60408051808201909152601881527f4f6e6c794f776e65723a204e6f74207065726d697474656400000000000000006020820152600080549091906001600160a01b031680610a065760405162461bcd60e51b81526004016100db90610ed5565b6001600160a01b038116632f54bf6e336040516001600160e01b031960e084901b1681526001600160a01b039091166004820152602401602060405180830381865afa158015610a5a573d6000803e3d6000fd5b505050506040513d601f19601f82011682018060405250810190610a7e9190610f1d565b8290610a9d5760405162461bcd60e51b81526004016100db9190610f3a565b50600080546001600160a01b0319166001600160a01b0386161790555060019392505050565b60006040518060600160405280602681526020016111f2602691396000546001600160a01b031680610b075760405162461bcd60e51b81526004016100db90610ed5565b6001600160a01b038116632f54bf6e336040516001600160e01b031960e084901b1681526001600160a01b039091166004820152602401602060405180830381865afa158015610b5b573d6000803e3d6000fd5b505050506040513d601f19601f82011682018060405250810190610b7f9190610f1d565b8290610b9e5760405162461bcd60e51b81526004016100db9190610f3a565b50600086815260036020908152604080832080548251818502810185019093528083529192909190830182828015610bff57602002820191906000526020600020905b81546001600160a01b03168152600190910190602001808311610be1575b50505050509050600080600090505b8251811015610c5957866001600160a01b0316838281518110610c3357610c33611164565b60200260200101516001600160a01b031603610c5157809150600195505b600101610c0e565b508415610cb2576000888152600360205260409020805488919083908110610c8357610c83611164565b9060005260206000200160006101000a8154816001600160a01b0302191690836001600160a01b031602179055505b505050509392505050565b6000610cc98385610e48565b9050826001600160a01b031663095ea7b38560008411610ce95784610cf3565b610cf38486611151565b6040516001600160e01b031960e085901b1681526001600160a01b03909216600483015260248201526044016020604051808303816000875af1158015610d3e573d6000803e3d6000fd5b505050506040513d601f19601f82011682018060405250810190610d629190610f1d565b5050505050565b600082815260046020908152604080832054600383528184208054835181860281018601909452808452919493909190830182828015610dd257602002820191906000526020600020905b81546001600160a01b03168152600190910190602001808311610db4575b50505060008781526004602052604081205550508051909150808311610dfa57610dfa61117a565b6000610e068483610ec3565b905060005b82811015610e3f57610e37848281518110610e2857610e28611164565b60200260200101518784610cbd565b600101610e0b565b50505050505050565b604051636eb1769f60e11b81523060048201526001600160a01b0382811660248301526000919084169063dd62ed3e90604401602060405180830381865afa158015610e98573d6000803e3d6000fd5b505050506040513d601f19601f82011682018060405250810190610ebc9190611190565b9392505050565b6000610ebc82846111a9565b92915050565b6020808252601a908201527f4f6e6c794f776e65723a204d616e61676572206e6f7420736574000000000000604082015260600190565b8015158114610f1a57600080fd5b50565b600060208284031215610f2f57600080fd5b8151610ebc81610f0c565b60006020808352835180602085015260005b81811015610f6857858101830151858201604001528201610f4c565b506000604082860101526040601f19601f8301168501019250505092915050565b80356001600160a01b0381168114610fa057600080fd5b919050565b60008060408385031215610fb857600080fd5b82359150610fc860208401610f89565b90509250929050565b600060208284031215610fe357600080fd5b5035919050565b60008060408385031215610ffd57600080fd5b61100683610f89565b946020939093013593505050565b600080600080600080600080610100898b03121561103157600080fd5b8835975060208901359650604089013595506060890135945061105660808a01610f89565b935061106460a08a01610f89565b925060c089013561107481610f0c565b915060e08901356002811061108857600080fd5b809150509295985092959890939650565b600080604083850312156110ac57600080fd5b50508035926020909101359150565b6000602082840312156110cd57600080fd5b610ebc82610f89565b6000806000606084860312156110eb57600080fd5b833592506110fb60208501610f89565b915061110960408501610f89565b90509250925092565b634e487b7160e01b600052602160045260246000fd5b634e487b7160e01b600052601160045260246000fd5b81810381811115610ecf57610ecf611128565b80820180821115610ecf57610ecf611128565b634e487b7160e01b600052603260045260246000fd5b634e487b7160e01b600052600160045260246000fd5b6000602082840312156111a257600080fd5b5051919050565b6000826111c657634e487b7160e01b600052601260045260246000fd5b50049056fe53747261746567793a204e6f74207265636569766564202d204e6f74207065726d69747465645374726174656779202d207377617050726f76696465723a204e6f74207065726d69747465645374726174656779202d20736574436c61696d3a204e6f74207065726d69747465645374726174656779202d206d617041737365743a204e6f74207065726d6974746564a2646970667358221220fccd9a35e92d06b53170331a8f25600f006ae53951f3718a9ec50297d914a46c64736f6c6343000818003353747261746567794d6772202d2063726561746553747261746567793a204e6f74207065726d6974746564a2646970667358221220d0405516dfd8c4400c916f2a600d987f42b656480841845619685ee7aa804d7e64736f6c63430008180033",
  "devdoc": {
    "kind": "dev",
    "methods": {
      "createStrategy(address)": {
        "details": "Create a new strategy."
      },
      "getStrategy(address)": {
        "params": {
          "user": ": User Address"
        }
      },
      "setOwnershipManager(address)": {
        "params": {
          "newManager": ": New manager address"
        }
      }
    },
    "stateVariables": {
      "strategies": {
        "details": "List of Strategies and their keys "
      },
      "strategyMap": {
        "details": "Mapping of addresses to strategies. Also used as reverse map of strategies to status."
      }
    },
    "title": "SmartStrategyAdmin: A standalone contract that manages strategy creation,  deletion, read and write data. Author: Simplifinance",
    "version": 1
  },
  "userdoc": {
    "kind": "user",
    "methods": {
      "createStrategy(address)": {
        "notice": "'user' should not own a strategy before now.          only address with owner permission can call."
      },
      "getStrategy(address)": {
        "notice": "Returns strategy of 'user'"
      },
      "setOwnershipManager(address)": {
        "notice": "Set Ownership manager"
      }
    },
    "version": 1
  },
  "storageLayout": {
    "storage": [
      {
        "astId": 1654,
        "contract": "contracts/implementations/strategies/StrategyManager.sol:StrategyManager",
        "label": "ownershipManager",
        "offset": 0,
        "slot": "0",
        "type": "t_address"
      },
      {
        "astId": 3709,
        "contract": "contracts/implementations/strategies/StrategyManager.sol:StrategyManager",
        "label": "totalStrategies",
        "offset": 0,
        "slot": "1",
        "type": "t_uint256"
      },
      {
        "astId": 3714,
        "contract": "contracts/implementations/strategies/StrategyManager.sol:StrategyManager",
        "label": "strategies",
        "offset": 0,
        "slot": "2",
        "type": "t_array(t_struct(StrategyData)2617_storage)dyn_storage"
      },
      {
        "astId": 3719,
        "contract": "contracts/implementations/strategies/StrategyManager.sol:StrategyManager",
        "label": "strategyMap",
        "offset": 0,
        "slot": "3",
        "type": "t_mapping(t_address,t_address)"
      }
    ],
    "types": {
      "t_address": {
        "encoding": "inplace",
        "label": "address",
        "numberOfBytes": "20"
      },
      "t_array(t_struct(StrategyData)2617_storage)dyn_storage": {
        "base": "t_struct(StrategyData)2617_storage",
        "encoding": "dynamic_array",
        "label": "struct IStrategyManager.StrategyData[]",
        "numberOfBytes": "32"
      },
      "t_mapping(t_address,t_address)": {
        "encoding": "mapping",
        "key": "t_address",
        "label": "mapping(address => address)",
        "numberOfBytes": "32",
        "value": "t_address"
      },
      "t_struct(StrategyData)2617_storage": {
        "encoding": "inplace",
        "label": "struct IStrategyManager.StrategyData",
        "members": [
          {
            "astId": 2614,
            "contract": "contracts/implementations/strategies/StrategyManager.sol:StrategyManager",
            "label": "key",
            "offset": 0,
            "slot": "0",
            "type": "t_address"
          },
          {
            "astId": 2616,
            "contract": "contracts/implementations/strategies/StrategyManager.sol:StrategyManager",
            "label": "value",
            "offset": 0,
            "slot": "1",
            "type": "t_address"
          }
        ],
        "numberOfBytes": "64"
      },
      "t_uint256": {
        "encoding": "inplace",
        "label": "uint256",
        "numberOfBytes": "32"
      }
    }
  }
}